{"contracts/periphery/routers/EquipmentMinter.sol":{"EquipmentMinter":{"abi":[{"inputs":[{"internalType":"address","name":"equipmentsNftAddress","type":"address"},{"internalType":"address","name":"charactersAddress","type":"address"},{"internalType":"address","name":"enerlinkAddress","type":"address"},{"internalType":"address[4]","name":"materials","type":"address[4]"},{"internalType":"address[4]","name":"catalysts","type":"address[4]"}],"stateMutability":"nonpayable","type":"constructor"},{"anonymous":false,"inputs":[{"indexed":true,"internalType":"address","name":"player_address","type":"address"},{"components":[{"internalType":"uint256","name":"request_id","type":"uint256"},{"internalType":"uint64","name":"equipment_type","type":"uint64"},{"internalType":"uint32","name":"number_of_items","type":"uint32"},{"internalType":"uint256","name":"time_requested","type":"uint256"},{"internalType":"bool","name":"free","type":"bool"}],"indexed":false,"internalType":"struct equipment_request","name":"request","type":"tuple"}],"name":"EquipmentRequested","type":"event"},{"anonymous":false,"inputs":[{"indexed":true,"internalType":"address","name":"previousOwner","type":"address"},{"indexed":true,"internalType":"address","name":"newOwner","type":"address"}],"name":"OwnershipTransferred","type":"event"},{"anonymous":false,"inputs":[{"indexed":false,"internalType":"address","name":"account","type":"address"}],"name":"Paused","type":"event"},{"anonymous":false,"inputs":[{"indexed":false,"internalType":"address","name":"account","type":"address"}],"name":"Unpaused","type":"event"},{"inputs":[],"name":"cancelRequestExperimental","outputs":[],"stateMutability":"nonpayable","type":"function"},{"inputs":[{"internalType":"uint256","name":"","type":"uint256"},{"internalType":"uint256","name":"","type":"uint256"}],"name":"character_minted_free","outputs":[{"internalType":"bool","name":"","type":"bool"}],"stateMutability":"view","type":"function"},{"inputs":[{"internalType":"uint256","name":"equipment_type","type":"uint256"}],"name":"getEquipmentRecipe","outputs":[{"components":[{"internalType":"uint256","name":"main_material","type":"uint256"},{"internalType":"uint256","name":"indirect_material","type":"uint256"},{"internalType":"uint256","name":"catalyst","type":"uint256"},{"internalType":"uint256","name":"main_material_amount","type":"uint256"},{"internalType":"uint256","name":"indirect_material_amount","type":"uint256"},{"internalType":"uint256","name":"catalyst_amount","type":"uint256"}],"internalType":"struct item_recipe","name":"recipe","type":"tuple"}],"stateMutability":"pure","type":"function"},{"inputs":[],"name":"mintEquipments","outputs":[],"stateMutability":"nonpayable","type":"function"},{"inputs":[{"internalType":"address","name":"user","type":"address"},{"internalType":"uint256[]","name":"randomNumberRequested","type":"uint256[]"}],"name":"mintEquipmentsExperimental","outputs":[],"stateMutability":"nonpayable","type":"function"},{"inputs":[],"name":"mint_fee","outputs":[{"internalType":"uint256","name":"","type":"uint256"}],"stateMutability":"view","type":"function"},{"inputs":[],"name":"owner","outputs":[{"internalType":"address","name":"","type":"address"}],"stateMutability":"view","type":"function"},{"inputs":[],"name":"paused","outputs":[{"internalType":"bool","name":"","type":"bool"}],"stateMutability":"view","type":"function"},{"inputs":[],"name":"renounceOwnership","outputs":[],"stateMutability":"nonpayable","type":"function"},{"inputs":[{"internalType":"address","name":"","type":"address"}],"name":"request","outputs":[{"internalType":"uint256","name":"request_id","type":"uint256"},{"internalType":"uint64","name":"equipment_type","type":"uint64"},{"internalType":"uint32","name":"number_of_items","type":"uint32"},{"internalType":"uint256","name":"time_requested","type":"uint256"},{"internalType":"bool","name":"free","type":"bool"}],"stateMutability":"view","type":"function"},{"inputs":[{"internalType":"uint64","name":"_equipment_type","type":"uint64"},{"internalType":"uint256","name":"item_count","type":"uint256"}],"name":"requestEquipment","outputs":[],"stateMutability":"payable","type":"function"},{"inputs":[{"internalType":"uint64","name":"_equipment_type","type":"uint64"}],"name":"requestEquipmentExperimental","outputs":[],"stateMutability":"payable","type":"function"},{"inputs":[{"internalType":"uint256","name":"character_id","type":"uint256"},{"internalType":"uint64","name":"_equipment_type","type":"uint64"}],"name":"requestEquipmentFree","outputs":[],"stateMutability":"payable","type":"function"},{"inputs":[{"internalType":"uint256","name":"amount","type":"uint256"}],"name":"setMintFee","outputs":[],"stateMutability":"nonpayable","type":"function"},{"inputs":[{"internalType":"address","name":"_vrfContract","type":"address"}],"name":"setRandomizationContract","outputs":[],"stateMutability":"nonpayable","type":"function"},{"inputs":[{"internalType":"address","name":"newOwner","type":"address"}],"name":"transferOwnership","outputs":[],"stateMutability":"nonpayable","type":"function"},{"inputs":[{"internalType":"uint256","name":"equipment_type","type":"uint256"},{"internalType":"uint256","name":"item_count","type":"uint256"}],"name":"userMaterialsEnough","outputs":[{"internalType":"bool","name":"enough","type":"bool"}],"stateMutability":"view","type":"function"},{"inputs":[],"name":"withdraw","outputs":[],"stateMutability":"nonpayable","type":"function"}],"evm":{"bytecode":{"linkReferences":{},"object":"60806040523480156200001157600080fd5b50604051620053b6380380620053b68339818101604052810190620000379190620004ec565b620000576200004b620001a860201b60201c565b620001b060201b60201c565b60008060146101000a81548160ff02191690831515021790555084600560006101000a81548173ffffffffffffffffffffffffffffffffffffffff021916908373ffffffffffffffffffffffffffffffffffffffff16021790555083600260006101000a81548173ffffffffffffffffffffffffffffffffffffffff021916908373ffffffffffffffffffffffffffffffffffffffff16021790555082600360006101000a81548173ffffffffffffffffffffffffffffffffffffffff021916908373ffffffffffffffffffffffffffffffffffffffff16021790555081600a9060046200014792919062000274565b5080600e9060046200015b92919062000274565b5033600660006101000a81548173ffffffffffffffffffffffffffffffffffffffff021916908373ffffffffffffffffffffffffffffffffffffffff160217905550505050505062000575565b600033905090565b60008060009054906101000a900473ffffffffffffffffffffffffffffffffffffffff169050816000806101000a81548173ffffffffffffffffffffffffffffffffffffffff021916908373ffffffffffffffffffffffffffffffffffffffff1602179055508173ffffffffffffffffffffffffffffffffffffffff168173ffffffffffffffffffffffffffffffffffffffff167f8be0079c531659141344cd1fd0a4f28419497f9722a3daafe3b4186f6b6457e060405160405180910390a35050565b8260048101928215620002e3579160200282015b82811115620002e25782518260006101000a81548173ffffffffffffffffffffffffffffffffffffffff021916908373ffffffffffffffffffffffffffffffffffffffff1602179055509160200191906001019062000288565b5b509050620002f29190620002f6565b5090565b5b8082111562000311576000816000905550600101620002f7565b5090565b6000604051905090565b600080fd5b600073ffffffffffffffffffffffffffffffffffffffff82169050919050565b6000620003518262000324565b9050919050565b620003638162000344565b81146200036f57600080fd5b50565b600081519050620003838162000358565b92915050565b600080fd5b6000601f19601f8301169050919050565b7f4e487b7100000000000000000000000000000000000000000000000000000000600052604160045260246000fd5b620003d9826200038e565b810181811067ffffffffffffffff82111715620003fb57620003fa6200039f565b5b80604052505050565b60006200041062000315565b90506200041e8282620003ce565b919050565b600067ffffffffffffffff8211156200044157620004406200039f565b5b602082029050919050565b600080fd5b600062000468620004628462000423565b62000404565b905080602084028301858111156200048557620004846200044c565b5b835b81811015620004b257806200049d888262000372565b84526020840193505060208101905062000487565b5050509392505050565b600082601f830112620004d457620004d362000389565b5b6004620004e384828562000451565b91505092915050565b600080600080600061016086880312156200050c576200050b6200031f565b5b60006200051c8882890162000372565b95505060206200052f8882890162000372565b9450506040620005428882890162000372565b93505060606200055588828901620004bc565b92505060e06200056888828901620004bc565b9150509295509295909350565b614e3180620005856000396000f3fe6080604052600436106101095760003560e01c80638da5cb5b11610095578063b25f9b3e11610064578063b25f9b3e1461032b578063da610fcf14610342578063e9ff18c61461036d578063eddd0d9c14610389578063f2fde38b146103b257610109565b80638da5cb5b1461027e578063a330e03e146102a9578063a9a876af146102e6578063ab111add1461030f57610109565b80635473e978116100dc5780635473e978146101995780635c975abb146101c2578063715018a6146101ed5780638428e99a1461020457806387acbc971461024157610109565b806308e6b2c91461010e57806320b37cfc1461012557806327c78c42146101415780633ccfd60b14610182575b600080fd5b34801561011a57600080fd5b506101236103db565b005b61013f600480360381019061013a9190613543565b610748565b005b34801561014d57600080fd5b50610168600480360381019061016391906135e1565b610bea565b604051610179959493929190613666565b60405180910390f35b34801561018e57600080fd5b50610197610c51565b005b3480156101a557600080fd5b506101c060048036038101906101bb91906135e1565b610d2a565b005b3480156101ce57600080fd5b506101d7610db7565b6040516101e491906136b9565b60405180910390f35b3480156101f957600080fd5b50610202610dcd565b005b34801561021057600080fd5b5061022b600480360381019061022691906136d4565b610de1565b604051610238919061378b565b60405180910390f35b34801561024d57600080fd5b50610268600480360381019061026391906137a6565b610df9565b60405161027591906136b9565b60405180910390f35b34801561028a57600080fd5b50610293610eca565b6040516102a091906137f5565b60405180910390f35b3480156102b557600080fd5b506102d060048036038101906102cb91906137a6565b610ef3565b6040516102dd91906136b9565b60405180910390f35b3480156102f257600080fd5b5061030d60048036038101906103089190613969565b610f22565b005b610329600480360381019061032491906139c5565b6111ec565b005b34801561033757600080fd5b50610340611872565b005b34801561034e57600080fd5b50610357611bd9565b6040516103649190613a05565b60405180910390f35b61038760048036038101906103829190613a20565b611bdf565b005b34801561039557600080fd5b506103b060048036038101906103ab91906136d4565b612034565b005b3480156103be57600080fd5b506103d960048036038101906103d491906135e1565b612055565b005b6000600760003373ffffffffffffffffffffffffffffffffffffffff1673ffffffffffffffffffffffffffffffffffffffff1681526020019081526020016000206040518060a0016040529081600082015481526020016001820160009054906101000a900467ffffffffffffffff1667ffffffffffffffff1667ffffffffffffffff1681526020016001820160089054906101000a900463ffffffff1663ffffffff1663ffffffff168152602001600282015481526020016003820160009054906101000a900460ff161515151581525050905060008160000151116104f7576040517f08c379a00000000000000000000000000000000000000000000000000000000081526004016104ee90613aaa565b60405180910390fd5b600080600160009054906101000a900473ffffffffffffffffffffffffffffffffffffffff1673ffffffffffffffffffffffffffffffffffffffff1663d8a4676f84600001516040518263ffffffff1660e01b81526004016105599190613a05565b600060405180830381865afa158015610576573d6000803e3d6000fd5b505050506040513d6000823e3d601f19601f8201168201806040525081019061059f9190613ba2565b91509150816105e3576040517f08c379a00000000000000000000000000000000000000000000000000000000081526004016105da90613c70565b60405180910390fd5b60005b836040015163ffffffff16811015610639576106263383838151811061060f5761060e613c90565b5b6020026020010151866020015187608001516120d8565b808061063190613cee565b9150506105e6565b506040518060a0016040528060008152602001600067ffffffffffffffff168152602001600063ffffffff16815260200142815260200160001515815250600760003373ffffffffffffffffffffffffffffffffffffffff1673ffffffffffffffffffffffffffffffffffffffff1681526020019081526020016000206000820151816000015560208201518160010160006101000a81548167ffffffffffffffff021916908367ffffffffffffffff16021790555060408201518160010160086101000a81548163ffffffff021916908363ffffffff1602179055506060820151816002015560808201518160030160006101000a81548160ff021916908315150217905550905050505050565b610750612269565b6000600760003373ffffffffffffffffffffffffffffffffffffffff1673ffffffffffffffffffffffffffffffffffffffff1681526020019081526020016000206040518060a0016040529081600082015481526020016001820160009054906101000a900467ffffffffffffffff1667ffffffffffffffff1667ffffffffffffffff1681526020016001820160089054906101000a900463ffffffff1663ffffffff1663ffffffff168152602001600282015481526020016003820160009054906101000a900460ff1615151515815250509050600081600001511461086c576040517f08c379a000000000000000000000000000000000000000000000000000000000815260040161086390613da8565b60405180910390fd5b60058367ffffffffffffffff16106108b9576040517f08c379a00000000000000000000000000000000000000000000000000000000081526004016108b090613e3a565b60405180910390fd5b6000821180156108c95750600482105b610908576040517f08c379a00000000000000000000000000000000000000000000000000000000081526004016108ff90613ecc565b60405180910390fd5b600854826109169190613eec565b341015610958576040517f08c379a000000000000000000000000000000000000000000000000000000000815260040161094f90613fc6565b60405180910390fd5b600061096e8467ffffffffffffffff16846122b3565b9050806109b0576040517f08c379a00000000000000000000000000000000000000000000000000000000081526004016109a790614058565b60405180910390fd5b6040518060a00160405280600160009054906101000a900473ffffffffffffffffffffffffffffffffffffffff1673ffffffffffffffffffffffffffffffffffffffff16639bca039d338760006040518463ffffffff1660e01b8152600401610a1b93929190614078565b6020604051808303816000875af1158015610a3a573d6000803e3d6000fd5b505050506040513d601f19601f82011682018060405250810190610a5e91906140af565b81526020018567ffffffffffffffff1681526020018463ffffffff16815260200142815260200160001515815250600760003373ffffffffffffffffffffffffffffffffffffffff1673ffffffffffffffffffffffffffffffffffffffff1681526020019081526020016000206000820151816000015560208201518160010160006101000a81548167ffffffffffffffff021916908367ffffffffffffffff16021790555060408201518160010160086101000a81548163ffffffff021916908363ffffffff1602179055506060820151816002015560808201518160030160006101000a81548160ff0219169083151502179055509050503373ffffffffffffffffffffffffffffffffffffffff167f58577bf17ae4d0cc9d3b31873621b2a79ce93516e49b689b734695e54df0d9fd600760003373ffffffffffffffffffffffffffffffffffffffff1673ffffffffffffffffffffffffffffffffffffffff168152602001908152602001600020604051610bdc9190614260565b60405180910390a250505050565b60076020528060005260406000206000915090508060000154908060010160009054906101000a900467ffffffffffffffff16908060010160089054906101000a900463ffffffff16908060020154908060030160009054906101000a900460ff16905085565b610c596124ed565b6000600660009054906101000a900473ffffffffffffffffffffffffffffffffffffffff1673ffffffffffffffffffffffffffffffffffffffff1647604051610ca1906142ac565b60006040518083038185875af1925050503d8060008114610cde576040519150601f19603f3d011682016040523d82523d6000602084013e610ce3565b606091505b5050905080610d27576040517f08c379a0000000000000000000000000000000000000000000000000000000008152600401610d1e9061430d565b60405180910390fd5b50565b610d326124ed565b80600460006101000a81548173ffffffffffffffffffffffffffffffffffffffff021916908373ffffffffffffffffffffffffffffffffffffffff16021790555080600160006101000a81548173ffffffffffffffffffffffffffffffffffffffff021916908373ffffffffffffffffffffffffffffffffffffffff16021790555050565b60008060149054906101000a900460ff16905090565b610dd56124ed565b610ddf600061256b565b565b610de96133cb565b610df28261262f565b9050919050565b6000600190506000610e0a8461262f565b9050828160600151610e1c9190613eec565b816060018181525050828160800151610e359190613eec565b816080018181525050828160a00151610e4e9190613eec565b8160a00181815250506000610e6682600001516126a1565b5090506000610e7883602001516126a1565b5090506000610e8a8460400151612763565b5090508360600151831015610e9e57600094505b8360800151821015610eaf57600094505b8360a00151811015610ec057600094505b5050505092915050565b60008060009054906101000a900473ffffffffffffffffffffffffffffffffffffffff16905090565b60096020528160005260406000206020528060005260406000206000915091509054906101000a900460ff1681565b600460009054906101000a900473ffffffffffffffffffffffffffffffffffffffff1673ffffffffffffffffffffffffffffffffffffffff163373ffffffffffffffffffffffffffffffffffffffff1614610fb2576040517f08c379a0000000000000000000000000000000000000000000000000000000008152600401610fa9906143c5565b60405180910390fd5b6000600760008473ffffffffffffffffffffffffffffffffffffffff1673ffffffffffffffffffffffffffffffffffffffff1681526020019081526020016000206040518060a0016040529081600082015481526020016001820160009054906101000a900467ffffffffffffffff1667ffffffffffffffff1667ffffffffffffffff1681526020016001820160089054906101000a900463ffffffff1663ffffffff1663ffffffff168152602001600282015481526020016003820160009054906101000a900460ff161515151581525050905060005b816040015163ffffffff168110156110dd576110ca848483815181106110b3576110b2613c90565b5b6020026020010151846020015185608001516120d8565b80806110d590613cee565b91505061108a565b506040518060a0016040528060008152602001600067ffffffffffffffff168152602001600063ffffffff16815260200142815260200160001515815250600760008573ffffffffffffffffffffffffffffffffffffffff1673ffffffffffffffffffffffffffffffffffffffff1681526020019081526020016000206000820151816000015560208201518160010160006101000a81548167ffffffffffffffff021916908367ffffffffffffffff16021790555060408201518160010160086101000a81548163ffffffff021916908363ffffffff1602179055506060820151816002015560808201518160030160006101000a81548160ff021916908315150217905550905050505050565b6111f4612269565b6000600760003373ffffffffffffffffffffffffffffffffffffffff1673ffffffffffffffffffffffffffffffffffffffff1681526020019081526020016000206040518060a0016040529081600082015481526020016001820160009054906101000a900467ffffffffffffffff1667ffffffffffffffff1667ffffffffffffffff1681526020016001820160089054906101000a900463ffffffff1663ffffffff1663ffffffff168152602001600282015481526020016003820160009054906101000a900460ff16151515158152505090506000816000015114611310576040517f08c379a000000000000000000000000000000000000000000000000000000000815260040161130790613da8565b60405180910390fd5b60058267ffffffffffffffff161061135d576040517f08c379a000000000000000000000000000000000000000000000000000000000815260040161135490614431565b60405180910390fd5b600854600161136c9190613eec565b3410156113ae576040517f08c379a00000000000000000000000000000000000000000000000000000000081526004016113a59061449d565b60405180910390fd5b6009600084815260200190815260200160002060008367ffffffffffffffff16815260200190815260200160002060009054906101000a900460ff161561142a576040517f08c379a000000000000000000000000000000000000000000000000000000000815260040161142190614509565b60405180910390fd5b60c8600260009054906101000a900473ffffffffffffffffffffffffffffffffffffffff1673ffffffffffffffffffffffffffffffffffffffff1663468f25b0856040518263ffffffff1660e01b81526004016114879190613a05565b61010060405180830381865afa1580156114a5573d6000803e3d6000fd5b505050506040513d601f19601f820116820180604052508101906114c99190614624565b60e0015163ffffffff1611611513576040517f08c379a000000000000000000000000000000000000000000000000000000000815260040161150a9061469e565b60405180910390fd5b600260009054906101000a900473ffffffffffffffffffffffffffffffffffffffff1673ffffffffffffffffffffffffffffffffffffffff1663e327a6af33856040518363ffffffff1660e01b81526004016115709291906146be565b602060405180830381865afa15801561158d573d6000803e3d6000fd5b505050506040513d601f19601f820116820180604052508101906115b191906146e7565b6115f0576040517f08c379a00000000000000000000000000000000000000000000000000000000081526004016115e790614760565b60405180910390fd5b60016009600085815260200190815260200160002060008467ffffffffffffffff16815260200190815260200160002060006101000a81548160ff0219169083151502179055506040518060a00160405280600160009054906101000a900473ffffffffffffffffffffffffffffffffffffffff1673ffffffffffffffffffffffffffffffffffffffff16639bca039d33600160006040518463ffffffff1660e01b81526004016116a3939291906147c5565b6020604051808303816000875af11580156116c2573d6000803e3d6000fd5b505050506040513d601f19601f820116820180604052508101906116e691906140af565b81526020018367ffffffffffffffff168152602001600163ffffffff16815260200142815260200160011515815250600760003373ffffffffffffffffffffffffffffffffffffffff1673ffffffffffffffffffffffffffffffffffffffff1681526020019081526020016000206000820151816000015560208201518160010160006101000a81548167ffffffffffffffff021916908367ffffffffffffffff16021790555060408201518160010160086101000a81548163ffffffff021916908363ffffffff1602179055506060820151816002015560808201518160030160006101000a81548160ff0219169083151502179055509050503373ffffffffffffffffffffffffffffffffffffffff167f58577bf17ae4d0cc9d3b31873621b2a79ce93516e49b689b734695e54df0d9fd600760003373ffffffffffffffffffffffffffffffffffffffff1673ffffffffffffffffffffffffffffffffffffffff1681526020019081526020016000206040516118659190614260565b60405180910390a2505050565b6000600760003373ffffffffffffffffffffffffffffffffffffffff1673ffffffffffffffffffffffffffffffffffffffff1681526020019081526020016000206040518060a0016040529081600082015481526020016001820160009054906101000a900467ffffffffffffffff1667ffffffffffffffff1667ffffffffffffffff1681526020016001820160089054906101000a900463ffffffff1663ffffffff1663ffffffff168152602001600282015481526020016003820160009054906101000a900460ff16151515158152505090506000600160009054906101000a900473ffffffffffffffffffffffffffffffffffffffff1673ffffffffffffffffffffffffffffffffffffffff1663d8a4676f83600001516040518263ffffffff1660e01b81526004016119a89190613a05565b600060405180830381865afa1580156119c5573d6000803e3d6000fd5b505050506040513d6000823e3d601f19601f820116820180604052508101906119ee9190613ba2565b5090506000826000015111611a38576040517f08c379a0000000000000000000000000000000000000000000000000000000008152600401611a2f9061486e565b60405180910390fd5b610e10826060015142611a4b919061488e565b11611a8b576040517f08c379a0000000000000000000000000000000000000000000000000000000008152600401611a829061495a565b60405180910390fd5b8015611acc576040517f08c379a0000000000000000000000000000000000000000000000000000000008152600401611ac3906149ec565b60405180910390fd5b6040518060a0016040528060008152602001600067ffffffffffffffff168152602001600063ffffffff16815260200142815260200160001515815250600760003373ffffffffffffffffffffffffffffffffffffffff1673ffffffffffffffffffffffffffffffffffffffff1681526020019081526020016000206000820151816000015560208201518160010160006101000a81548167ffffffffffffffff021916908367ffffffffffffffff16021790555060408201518160010160086101000a81548163ffffffff021916908363ffffffff1602179055506060820151816002015560808201518160030160006101000a81548160ff0219169083151502179055509050505050565b60085481565b611be7612269565b6000600760003373ffffffffffffffffffffffffffffffffffffffff1673ffffffffffffffffffffffffffffffffffffffff1681526020019081526020016000206040518060a0016040529081600082015481526020016001820160009054906101000a900467ffffffffffffffff1667ffffffffffffffff1667ffffffffffffffff1681526020016001820160089054906101000a900463ffffffff1663ffffffff1663ffffffff168152602001600282015481526020016003820160009054906101000a900460ff16151515158152505090506000816000015114611d03576040517f08c379a0000000000000000000000000000000000000000000000000000000008152600401611cfa90613da8565b60405180910390fd5b60058267ffffffffffffffff1610611d50576040517f08c379a0000000000000000000000000000000000000000000000000000000008152600401611d4790613e3a565b60405180910390fd5b6008546001611d5f9190613eec565b341015611da1576040517f08c379a0000000000000000000000000000000000000000000000000000000008152600401611d9890613fc6565b60405180910390fd5b6000611db88367ffffffffffffffff1660016122b3565b905080611dfa576040517f08c379a0000000000000000000000000000000000000000000000000000000008152600401611df190614058565b60405180910390fd5b6040518060a00160405280600160009054906101000a900473ffffffffffffffffffffffffffffffffffffffff1673ffffffffffffffffffffffffffffffffffffffff16639bca039d336001806040518463ffffffff1660e01b8152600401611e65939291906147c5565b6020604051808303816000875af1158015611e84573d6000803e3d6000fd5b505050506040513d601f19601f82011682018060405250810190611ea891906140af565b81526020018467ffffffffffffffff168152602001600163ffffffff16815260200142815260200160001515815250600760003373ffffffffffffffffffffffffffffffffffffffff1673ffffffffffffffffffffffffffffffffffffffff1681526020019081526020016000206000820151816000015560208201518160010160006101000a81548167ffffffffffffffff021916908367ffffffffffffffff16021790555060408201518160010160086101000a81548163ffffffff021916908363ffffffff1602179055506060820151816002015560808201518160030160006101000a81548160ff0219169083151502179055509050503373ffffffffffffffffffffffffffffffffffffffff167f58577bf17ae4d0cc9d3b31873621b2a79ce93516e49b689b734695e54df0d9fd600760003373ffffffffffffffffffffffffffffffffffffffff1673ffffffffffffffffffffffffffffffffffffffff1681526020019081526020016000206040516120279190614260565b60405180910390a2505050565b61203c6124ed565b633b9aca008161204c9190613eec565b60088190555050565b61205d6124ed565b600073ffffffffffffffffffffffffffffffffffffffff168173ffffffffffffffffffffffffffffffffffffffff16036120cc576040517f08c379a00000000000000000000000000000000000000000000000000000000081526004016120c390614a7e565b60405180910390fd5b6120d58161256b565b50565b60048267ffffffffffffffff16036121ab57600060016003856120fb9190614acd565b6121059190614afe565b9050600360009054906101000a900473ffffffffffffffffffffffffffffffffffffffff1673ffffffffffffffffffffffffffffffffffffffff166340c10f1986670de0b6b3a76400008461215a9190613eec565b6040518363ffffffff1660e01b81526004016121779291906146be565b600060405180830381600087803b15801561219157600080fd5b505af11580156121a5573d6000803e3d6000fd5b50505050505b60048267ffffffffffffffff1614612263576000806121cb858585612825565b91509150600560009054906101000a900473ffffffffffffffffffffffffffffffffffffffff1673ffffffffffffffffffffffffffffffffffffffff1663506e90aa8784846040518463ffffffff1660e01b815260040161222e93929190614c29565b600060405180830381600087803b15801561224857600080fd5b505af115801561225c573d6000803e3d6000fd5b5050505050505b50505050565b612271610db7565b156122b1576040517f08c379a00000000000000000000000000000000000000000000000000000000081526004016122a890614cad565b60405180910390fd5b565b60006001905060006122c48461262f565b90508281606001516122d69190613eec565b8160600181815250508281608001516122ef9190613eec565b816080018181525050828160a001516123089190613eec565b8160a001818152505060008061232183600001516126a1565b9150915060008061233585602001516126a1565b915091506000806123498760400151612763565b91509150866060015186101561235e57600097505b866080015184101561236f57600097505b8660a0015182101561238057600097505b60011515881515036124e0578473ffffffffffffffffffffffffffffffffffffffff166379cc67903389606001516040518363ffffffff1660e01b81526004016123cb9291906146be565b600060405180830381600087803b1580156123e557600080fd5b505af11580156123f9573d6000803e3d6000fd5b505050508273ffffffffffffffffffffffffffffffffffffffff166379cc67903389608001516040518363ffffffff1660e01b815260040161243c9291906146be565b600060405180830381600087803b15801561245657600080fd5b505af115801561246a573d6000803e3d6000fd5b505050508073ffffffffffffffffffffffffffffffffffffffff166379cc6790338960a001516040518363ffffffff1660e01b81526004016124ad9291906146be565b600060405180830381600087803b1580156124c757600080fd5b505af11580156124db573d6000803e3d6000fd5b505050505b5050505050505092915050565b6124f5612a4b565b73ffffffffffffffffffffffffffffffffffffffff16612513610eca565b73ffffffffffffffffffffffffffffffffffffffff1614612569576040517f08c379a000000000000000000000000000000000000000000000000000000000815260040161256090614d19565b60405180910390fd5b565b60008060009054906101000a900473ffffffffffffffffffffffffffffffffffffffff169050816000806101000a81548173ffffffffffffffffffffffffffffffffffffffff021916908373ffffffffffffffffffffffffffffffffffffffff1602179055508173ffffffffffffffffffffffffffffffffffffffff168173ffffffffffffffffffffffffffffffffffffffff167f8be0079c531659141344cd1fd0a4f28419497f9722a3daafe3b4186f6b6457e060405160405180910390a35050565b6126376133cb565b60008061264384612a53565b9150915060008061265386612ad3565b9150915060008061266388612b53565b915091506040518060c00160405280878152602001858152602001838152602001868152602001848152602001828152509650505050505050919050565b6000806000600a84600481106126ba576126b9613c90565b5b0160009054906101000a900473ffffffffffffffffffffffffffffffffffffffff1690508091508173ffffffffffffffffffffffffffffffffffffffff166370a08231336040518263ffffffff1660e01b815260040161271a91906137f5565b602060405180830381865afa158015612737573d6000803e3d6000fd5b505050506040513d601f19601f8201168201806040525081019061275b91906140af565b925050915091565b6000806000600e846004811061277c5761277b613c90565b5b0160009054906101000a900473ffffffffffffffffffffffffffffffffffffffff1690508091508173ffffffffffffffffffffffffffffffffffffffff166370a08231336040518263ffffffff1660e01b81526004016127dc91906137f5565b602060405180830381865afa1580156127f9573d6000803e3d6000fd5b505050506040513d601f19601f8201168201806040525081019061281d91906140af565b925050915091565b61282d613401565b612835613451565b600061284086612bd3565b905060008061286983600f8151811061285c5761285b613c90565b5b6020026020010151612ca7565b91509150851561287857600091505b600060405180610100016040528085600e8151811061289a57612899613c90565b5b602002602001015161ffff1661ffff16815260200185600d815181106128c3576128c2613c90565b5b602002602001015161ffff1661ffff16815260200185600c815181106128ec576128eb613c90565b5b602002602001015161ffff1661ffff16815260200185600b8151811061291557612914613c90565b5b602002602001015161ffff1661ffff16815260200185600a8151811061293e5761293d613c90565b5b602002602001015161ffff1661ffff1681526020018560098151811061296757612966613c90565b5b602002602001015161ffff1661ffff168152602001856008815181106129905761298f613c90565b5b602002602001015161ffff1661ffff168152602001856007815181106129b9576129b8613c90565b5b602002602001015161ffff1661ffff1681525090506000806129e683858c67ffffffffffffffff16612d5d565b80935081945082995050505060405180608001604052808b67ffffffffffffffff1681526020018667ffffffffffffffff1681526020018367ffffffffffffffff1681526020018267ffffffffffffffff168152509750505050505050935093915050565b600033905090565b60008060008303612a6e576000915067a688906bd8b0000090505b60018303612a865760019150677ce66c50e284000090505b60028303612a9e57600191506729a2241af62c000090505b60038303612ab6576002915067a688906bd8b0000090505b60048303612ace5760039150670de0b6b3a764000090505b915091565b60008060008303612aee5760019150673782dace9d90000090505b60018303612b0657600091506729a2241af62c000090505b60028303612b1e5760009150670de0b6b3a764000090505b60038303612b365760009150673782dace9d90000090505b60048303612b4e5760029150670de0b6b3a764000090505b915091565b60008060008303612b6e5760009150670de0b6b3a764000090505b60018303612b865760019150670de0b6b3a764000090505b60028303612b9e5760019150670de0b6b3a764000090505b60038303612bb65760029150670de0b6b3a764000090505b60048303612bce57600391506703782dace9d9000090505b915091565b60606000601067ffffffffffffffff811115612bf257612bf1613826565b5b604051908082528060200260200182016040528015612c205781602001602082028036833780820191505090505b509050600061ffff9050600080600f90505b60008112612c9b5760008387169050601084901b93508281901c905080858381518110612c6257612c61613c90565b5b602002602001019061ffff16908161ffff1681525050601083612c859190614afe565b9250508080612c9390614d43565b915050612c32565b50829350505050919050565b60008060006103e884612cba9190614d99565b61ffff1690506103e2811115612cd35760049250606491505b6103d881118015612ce657506103e28111155b15612cf45760039250603c91505b6103b081118015612d0757506103d88111155b15612d155760029250602891505b6102e881118015612d2857506103b08111155b15612d365760019250601991505b60008110158015612d4957506102ec8111155b15612d575760009250600f91505b50915091565b612d65613451565b600080600080612d73613496565b612d7b613496565b60005b6008811015612e0a5760006103e88c8360088110612d9f57612d9e613c90565b5b6020020151612dae9190614d99565b61ffff16905080848360088110612dc857612dc7613c90565b5b602002018181525050838260088110612de457612de3613c90565b5b602002015186612df49190614afe565b9550508080612e0290613cee565b915050612d7e565b5060005b6008811015612e7457848a848360088110612e2c57612e2b613c90565b5b6020020151612e3b9190613eec565b612e459190614dca565b828260088110612e5857612e57613c90565b5b6020020181815250508080612e6c90613cee565b915050612e0e565b50600080612e828a8c61300b565b9150915080838360088110612e9a57612e99613c90565b5b60200201818151612eab9190614afe565b9150818152505060405180610100016040528084600060088110612ed257612ed1613c90565b5b602002015163ffffffff16815260200184600160088110612ef657612ef5613c90565b5b602002015163ffffffff16815260200184600260088110612f1a57612f19613c90565b5b602002015163ffffffff16815260200184600360088110612f3e57612f3d613c90565b5b602002015163ffffffff16815260200184600460088110612f6257612f61613c90565b5b602002015163ffffffff16815260200184600560088110612f8657612f85613c90565b5b602002015163ffffffff16815260200184600660088110612faa57612fa9613c90565b5b602002015163ffffffff16815260200184600760088110612fce57612fcd613c90565b5b602002015163ffffffff168152509850612fe78461310b565b8096508199505050612ffa85878d6132f7565b965050505050505093509350939050565b60008060008403613043576000915060966032846130299190614afe565b61012c6130369190613eec565b6130409190614dca565b90505b600184036130835760019150600260966032856130609190614afe565b60e161306c9190613eec565b6130769190614dca565b6130809190614dca565b90505b600284036130c35760019150600260966032856130a09190614afe565b604b6130ac9190613eec565b6130b69190614dca565b6130c09190614dca565b90505b600384036131045760029150600260966032856130e09190614afe565b61012c6130ed9190613eec565b6130f79190614dca565b6131019190614dca565b90505b9250929050565b6000806000604051806101000160405280600081526020016001815260200160028152602001600381526020016004815260200160058152602001600681526020016007815250905060006008905060005b818110156132b95760006001826131749190614afe565b90505b828110156132a55786816008811061319257613191613c90565b5b60200201518783600881106131aa576131a9613c90565b5b602002015110156132925760008783600881106131ca576131c9613c90565b5b6020020151905060008584600881106131e6576131e5613c90565b5b60200201519050888360088110613200576131ff613c90565b5b602002015189856008811061321857613217613c90565b5b60200201818152505085836008811061323457613233613c90565b5b602002015186856008811061324c5761324b613c90565b5b6020020181815250508189846008811061326957613268613c90565b5b6020020181815250508086846008811061328657613285613c90565b5b60200201818152505050505b808061329d90613cee565b915050613177565b5080806132b190613cee565b91505061315d565b50816000600881106132ce576132cd613c90565b5b60200201519350846000600881106132e9576132e8613c90565b5b602002015192505050915091565b6000808383866133079190613eec565b6133119190614dca565b90506005811180156133245750600a8111155b1561332e57600191505b600a8111801561333f5750600f8111155b1561334957600291505b600f8111801561335a575060148111155b1561336457600391505b6014811180156133755750601e8111155b1561337f57600491505b601e811180156133905750602d8111155b1561339a57600591505b602d811180156133ab575060418111155b156133b557600691505b60418111156133c357600791505b509392505050565b6040518060c001604052806000815260200160008152602001600081526020016000815260200160008152602001600081525090565b6040518060800160405280600067ffffffffffffffff168152602001600067ffffffffffffffff168152602001600067ffffffffffffffff168152602001600067ffffffffffffffff1681525090565b60405180610100016040528060008152602001600081526020016000815260200160008152602001600081526020016000815260200160008152602001600081525090565b604051806101000160405280600890602082028036833780820191505090505090565b6000604051905090565b600080fd5b600080fd5b600067ffffffffffffffff82169050919050565b6134ea816134cd565b81146134f557600080fd5b50565b600081359050613507816134e1565b92915050565b6000819050919050565b6135208161350d565b811461352b57600080fd5b50565b60008135905061353d81613517565b92915050565b6000806040838503121561355a576135596134c3565b5b6000613568858286016134f8565b92505060206135798582860161352e565b9150509250929050565b600073ffffffffffffffffffffffffffffffffffffffff82169050919050565b60006135ae82613583565b9050919050565b6135be816135a3565b81146135c957600080fd5b50565b6000813590506135db816135b5565b92915050565b6000602082840312156135f7576135f66134c3565b5b6000613605848285016135cc565b91505092915050565b6136178161350d565b82525050565b613626816134cd565b82525050565b600063ffffffff82169050919050565b6136458161362c565b82525050565b60008115159050919050565b6136608161364b565b82525050565b600060a08201905061367b600083018861360e565b613688602083018761361d565b613695604083018661363c565b6136a2606083018561360e565b6136af6080830184613657565b9695505050505050565b60006020820190506136ce6000830184613657565b92915050565b6000602082840312156136ea576136e96134c3565b5b60006136f88482850161352e565b91505092915050565b61370a8161350d565b82525050565b60c0820160008201516137266000850182613701565b5060208201516137396020850182613701565b50604082015161374c6040850182613701565b50606082015161375f6060850182613701565b5060808201516137726080850182613701565b5060a082015161378560a0850182613701565b50505050565b600060c0820190506137a06000830184613710565b92915050565b600080604083850312156137bd576137bc6134c3565b5b60006137cb8582860161352e565b92505060206137dc8582860161352e565b9150509250929050565b6137ef816135a3565b82525050565b600060208201905061380a60008301846137e6565b92915050565b600080fd5b6000601f19601f8301169050919050565b7f4e487b7100000000000000000000000000000000000000000000000000000000600052604160045260246000fd5b61385e82613815565b810181811067ffffffffffffffff8211171561387d5761387c613826565b5b80604052505050565b60006138906134b9565b905061389c8282613855565b919050565b600067ffffffffffffffff8211156138bc576138bb613826565b5b602082029050602081019050919050565b600080fd5b60006138e56138e0846138a1565b613886565b90508083825260208201905060208402830185811115613908576139076138cd565b5b835b81811015613931578061391d888261352e565b84526020840193505060208101905061390a565b5050509392505050565b600082601f8301126139505761394f613810565b5b81356139608482602086016138d2565b91505092915050565b600080604083850312156139805761397f6134c3565b5b600061398e858286016135cc565b925050602083013567ffffffffffffffff8111156139af576139ae6134c8565b5b6139bb8582860161393b565b9150509250929050565b600080604083850312156139dc576139db6134c3565b5b60006139ea8582860161352e565b92505060206139fb858286016134f8565b9150509250929050565b6000602082019050613a1a600083018461360e565b92915050565b600060208284031215613a3657613a356134c3565b5b6000613a44848285016134f8565b91505092915050565b600082825260208201905092915050565b7f654d4e54523a204e6f207265717565737420746f206d696e742e000000000000600082015250565b6000613a94601a83613a4d565b9150613a9f82613a5e565b602082019050919050565b60006020820190508181036000830152613ac381613a87565b9050919050565b613ad38161364b565b8114613ade57600080fd5b50565b600081519050613af081613aca565b92915050565b600081519050613b0581613517565b92915050565b6000613b1e613b19846138a1565b613886565b90508083825260208201905060208402830185811115613b4157613b406138cd565b5b835b81811015613b6a5780613b568882613af6565b845260208401935050602081019050613b43565b5050509392505050565b600082601f830112613b8957613b88613810565b5b8151613b99848260208601613b0b565b91505092915050565b60008060408385031215613bb957613bb86134c3565b5b6000613bc785828601613ae1565b925050602083015167ffffffffffffffff811115613be857613be76134c8565b5b613bf485828601613b74565b9150509250929050565b7f654d4e54523a2052657175657374206973206e6f74207965742066756c66696c60008201527f6c6564206f7220696e76616c696420726571756573742069642e000000000000602082015250565b6000613c5a603a83613a4d565b9150613c6582613bfe565b604082019050919050565b60006020820190508181036000830152613c8981613c4d565b9050919050565b7f4e487b7100000000000000000000000000000000000000000000000000000000600052603260045260246000fd5b7f4e487b7100000000000000000000000000000000000000000000000000000000600052601160045260246000fd5b6000613cf98261350d565b91507fffffffffffffffffffffffffffffffffffffffffffffffffffffffffffffffff8203613d2b57613d2a613cbf565b5b600182019050919050565b7f654d4e54523a205468657265206973206120726571756573742070656e64696e60008201527f67206d696e742e00000000000000000000000000000000000000000000000000602082015250565b6000613d92602783613a4d565b9150613d9d82613d36565b604082019050919050565b60006020820190508181036000830152613dc181613d85565b9050919050565b7f654d4e54523a20496e636f7272656374206e756d62657220666f7220616e206560008201527f717569706d656e7420747970652e000000000000000000000000000000000000602082015250565b6000613e24602e83613a4d565b9150613e2f82613dc8565b604082019050919050565b60006020820190508181036000830152613e5381613e17565b9050919050565b7f654d4e54523a2043616e206f6e6c79207265717565737420746f206d696e742060008201527f3120746f2033206974656d7320617420612074696d652e000000000000000000602082015250565b6000613eb6603783613a4d565b9150613ec182613e5a565b604082019050919050565b60006020820190508181036000830152613ee581613ea9565b9050919050565b6000613ef78261350d565b9150613f028361350d565b9250828202613f108161350d565b91508282048414831517613f2757613f26613cbf565b5b5092915050565b7f654d4e54523a20496e636f727265637420616d6f756e7420666f72206571756960008201527f706d656e74206d696e74696e672e2053656e642065786163746c7920302e303160208201527f204d4154494320706572206974656d207265717565737465642e000000000000604082015250565b6000613fb0605a83613a4d565b9150613fbb82613f2e565b606082019050919050565b60006020820190508181036000830152613fdf81613fa3565b9050919050565b7f654d4e54523a204e6f7420656e6f756768206d6174657269616c7320666f722060008201527f74686973206372616674696e67207472616e73616374696f6e2e000000000000602082015250565b6000614042603a83613a4d565b915061404d82613fe6565b604082019050919050565b6000602082019050818103600083015261407181614035565b9050919050565b600060608201905061408d60008301866137e6565b61409a602083018561363c565b6140a76040830184613657565b949350505050565b6000602082840312156140c5576140c46134c3565b5b60006140d384828501613af6565b91505092915050565b60008160001c9050919050565b6000819050919050565b6000614106614101836140dc565b6140e9565b9050919050565b600067ffffffffffffffff82169050919050565b600061413461412f836140dc565b61410d565b9050919050565b614144816134cd565b82525050565b60008160401c9050919050565b600063ffffffff82169050919050565b600061417a6141758361414a565b614157565b9050919050565b61418a8161362c565b82525050565b600060ff82169050919050565b60006141b06141ab836140dc565b614190565b9050919050565b6141c08161364b565b82525050565b60a0820160008083015490506141db816140f3565b6141e86000860182613701565b50600183015490506141f981614121565b614206602086018261413b565b5061421081614167565b61421d6040860182614181565b506002830154905061422e816140f3565b61423b6060860182613701565b506003830154905061424c8161419d565b61425960808601826141b7565b5050505050565b600060a08201905061427560008301846141c6565b92915050565b600081905092915050565b50565b600061429660008361427b565b91506142a182614286565b600082019050919050565b60006142b782614289565b9150819050919050565b7f4661696c656420746f207769746864726177206d61746963732e000000000000600082015250565b60006142f7601a83613a4d565b9150614302826142c1565b602082019050919050565b60006020820190508181036000830152614326816142ea565b9050919050565b7f654d4e54523a2043616e206f6e6c792062652063616c6c65642062792074686560008201527f2056524620436f6e747261637420666f722065717569706d656e74206372616660208201527f74696e672e000000000000000000000000000000000000000000000000000000604082015250565b60006143af604583613a4d565b91506143ba8261432d565b606082019050919050565b600060208201905081810360008301526143de816143a2565b9050919050565b7f654d4e54523a20696e76616c6964206571707420747970652e00000000000000600082015250565b600061441b601983613a4d565b9150614426826143e5565b602082019050919050565b6000602082019050818103600083015261444a8161440e565b9050919050565b7f654d4e54523a2073656e6420302e3031206d6174696300000000000000000000600082015250565b6000614487601683613a4d565b915061449282614451565b602082019050919050565b600060208201905081810360008301526144b68161447a565b9050919050565b7f654d4e54523a2063686172616374657220616c7265616479206d696e7465642e600082015250565b60006144f3602083613a4d565b91506144fe826144bd565b602082019050919050565b60006020820190508181036000830152614522816144e6565b9050919050565b600080fd5b6145378161362c565b811461454257600080fd5b50565b6000815190506145548161452e565b92915050565b6000610100828403121561457157614570614529565b5b61457c610100613886565b9050600061458c84828501614545565b60008301525060206145a084828501614545565b60208301525060406145b484828501614545565b60408301525060606145c884828501614545565b60608301525060806145dc84828501614545565b60808301525060a06145f084828501614545565b60a08301525060c061460484828501614545565b60c08301525060e061461884828501614545565b60e08301525092915050565b6000610100828403121561463b5761463a6134c3565b5b60006146498482850161455a565b91505092915050565b7f654d4e54523a20696e7375662063686172206578702e00000000000000000000600082015250565b6000614688601683613a4d565b915061469382614652565b602082019050919050565b600060208201905081810360008301526146b78161467b565b9050919050565b60006040820190506146d360008301856137e6565b6146e0602083018461360e565b9392505050565b6000602082840312156146fd576146fc6134c3565b5b600061470b84828501613ae1565b91505092915050565b7f654d4e54523a20636861726163746572206e6f74206f776e65642e0000000000600082015250565b600061474a601b83613a4d565b915061475582614714565b602082019050919050565b600060208201905081810360008301526147798161473d565b9050919050565b6000819050919050565b6000819050919050565b60006147af6147aa6147a584614780565b61478a565b61362c565b9050919050565b6147bf81614794565b82525050565b60006060820190506147da60008301866137e6565b6147e760208301856147b6565b6147f46040830184613657565b949350505050565b7f654d4e54523a2043616e6e6f742063616e63656c206e6f6e2d6578697374696e60008201527f672072657175657374732e000000000000000000000000000000000000000000602082015250565b6000614858602b83613a4d565b9150614863826147fc565b604082019050919050565b600060208201905081810360008301526148878161484b565b9050919050565b60006148998261350d565b91506148a48361350d565b92508282039050818111156148bc576148bb613cbf565b5b92915050565b7f654d4e54523a2043616e6e6f742063616e63656c20726571756573747320746860008201527f617420686176656e74206c6170736564203120686f75722066726f6d2074696d60208201527f65207265717565737465642e0000000000000000000000000000000000000000604082015250565b6000614944604c83613a4d565b915061494f826148c2565b606082019050919050565b6000602082019050818103600083015261497381614937565b9050919050565b7f654d4e54523a2043616e6e6f742063616e63656c20726571756573747320746860008201527f6174206861766520616c7265616479206265656e2066756c66696c6c65642e00602082015250565b60006149d6603f83613a4d565b91506149e18261497a565b604082019050919050565b60006020820190508181036000830152614a05816149c9565b9050919050565b7f4f776e61626c653a206e6577206f776e657220697320746865207a65726f206160008201527f6464726573730000000000000000000000000000000000000000000000000000602082015250565b6000614a68602683613a4d565b9150614a7382614a0c565b604082019050919050565b60006020820190508181036000830152614a9781614a5b565b9050919050565b7f4e487b7100000000000000000000000000000000000000000000000000000000600052601260045260246000fd5b6000614ad88261350d565b9150614ae38361350d565b925082614af357614af2614a9e565b5b828206905092915050565b6000614b098261350d565b9150614b148361350d565b9250828201905080821115614b2c57614b2b613cbf565b5b92915050565b608082016000820151614b48600085018261413b565b506020820151614b5b602085018261413b565b506040820151614b6e604085018261413b565b506060820151614b81606085018261413b565b50505050565b61010082016000820151614b9e6000850182613701565b506020820151614bb16020850182613701565b506040820151614bc46040850182613701565b506060820151614bd76060850182613701565b506080820151614bea6080850182613701565b5060a0820151614bfd60a0850182613701565b5060c0820151614c1060c0850182613701565b5060e0820151614c2360e0850182613701565b50505050565b60006101a082019050614c3f60008301866137e6565b614c4c6020830185614b32565b614c5960a0830184614b87565b949350505050565b7f5061757361626c653a2070617573656400000000000000000000000000000000600082015250565b6000614c97601083613a4d565b9150614ca282614c61565b602082019050919050565b60006020820190508181036000830152614cc681614c8a565b9050919050565b7f4f776e61626c653a2063616c6c6572206973206e6f7420746865206f776e6572600082015250565b6000614d03602083613a4d565b9150614d0e82614ccd565b602082019050919050565b60006020820190508181036000830152614d3281614cf6565b9050919050565b6000819050919050565b6000614d4e82614d39565b91507f80000000000000000000000000000000000000000000000000000000000000008203614d8057614d7f613cbf565b5b600182039050919050565b600061ffff82169050919050565b6000614da482614d8b565b9150614daf83614d8b565b925082614dbf57614dbe614a9e565b5b828206905092915050565b6000614dd58261350d565b9150614de08361350d565b925082614df057614def614a9e565b5b82820490509291505056fea2646970667358221220b99cb505cd50b4e8e07a85397e480d13de4cd5d038a9ed3fc08d20a3f9d4bf7664736f6c63430008110033","opcodes":"PUSH1 0x80 PUSH1 0x40 MSTORE CALLVALUE DUP1 ISZERO PUSH3 0x11 JUMPI PUSH1 0x0 DUP1 REVERT JUMPDEST POP PUSH1 0x40 MLOAD PUSH3 0x53B6 CODESIZE SUB DUP1 PUSH3 0x53B6 DUP4 CODECOPY DUP2 DUP2 ADD PUSH1 0x40 MSTORE DUP2 ADD SWAP1 PUSH3 0x37 SWAP2 SWAP1 PUSH3 0x4EC JUMP JUMPDEST PUSH3 0x57 PUSH3 0x4B PUSH3 0x1A8 PUSH1 0x20 SHL PUSH1 0x20 SHR JUMP JUMPDEST PUSH3 0x1B0 PUSH1 0x20 SHL PUSH1 0x20 SHR JUMP JUMPDEST PUSH1 0x0 DUP1 PUSH1 0x14 PUSH2 0x100 EXP DUP2 SLOAD DUP2 PUSH1 0xFF MUL NOT AND SWAP1 DUP4 ISZERO ISZERO MUL OR SWAP1 SSTORE POP DUP5 PUSH1 0x5 PUSH1 0x0 PUSH2 0x100 EXP DUP2 SLOAD DUP2 PUSH20 0xFFFFFFFFFFFFFFFFFFFFFFFFFFFFFFFFFFFFFFFF MUL NOT AND SWAP1 DUP4 PUSH20 0xFFFFFFFFFFFFFFFFFFFFFFFFFFFFFFFFFFFFFFFF AND MUL OR SWAP1 SSTORE POP DUP4 PUSH1 0x2 PUSH1 0x0 PUSH2 0x100 EXP DUP2 SLOAD DUP2 PUSH20 0xFFFFFFFFFFFFFFFFFFFFFFFFFFFFFFFFFFFFFFFF MUL NOT AND SWAP1 DUP4 PUSH20 0xFFFFFFFFFFFFFFFFFFFFFFFFFFFFFFFFFFFFFFFF AND MUL OR SWAP1 SSTORE POP DUP3 PUSH1 0x3 PUSH1 0x0 PUSH2 0x100 EXP DUP2 SLOAD DUP2 PUSH20 0xFFFFFFFFFFFFFFFFFFFFFFFFFFFFFFFFFFFFFFFF MUL NOT AND SWAP1 DUP4 PUSH20 0xFFFFFFFFFFFFFFFFFFFFFFFFFFFFFFFFFFFFFFFF AND MUL OR SWAP1 SSTORE POP DUP2 PUSH1 0xA SWAP1 PUSH1 0x4 PUSH3 0x147 SWAP3 SWAP2 SWAP1 PUSH3 0x274 JUMP JUMPDEST POP DUP1 PUSH1 0xE SWAP1 PUSH1 0x4 PUSH3 0x15B SWAP3 SWAP2 SWAP1 PUSH3 0x274 JUMP JUMPDEST POP CALLER PUSH1 0x6 PUSH1 0x0 PUSH2 0x100 EXP DUP2 SLOAD DUP2 PUSH20 0xFFFFFFFFFFFFFFFFFFFFFFFFFFFFFFFFFFFFFFFF MUL NOT AND SWAP1 DUP4 PUSH20 0xFFFFFFFFFFFFFFFFFFFFFFFFFFFFFFFFFFFFFFFF AND MUL OR SWAP1 SSTORE POP POP POP POP POP POP PUSH3 0x575 JUMP JUMPDEST PUSH1 0x0 CALLER SWAP1 POP SWAP1 JUMP JUMPDEST PUSH1 0x0 DUP1 PUSH1 0x0 SWAP1 SLOAD SWAP1 PUSH2 0x100 EXP SWAP1 DIV PUSH20 0xFFFFFFFFFFFFFFFFFFFFFFFFFFFFFFFFFFFFFFFF AND SWAP1 POP DUP2 PUSH1 0x0 DUP1 PUSH2 0x100 EXP DUP2 SLOAD DUP2 PUSH20 0xFFFFFFFFFFFFFFFFFFFFFFFFFFFFFFFFFFFFFFFF MUL NOT AND SWAP1 DUP4 PUSH20 0xFFFFFFFFFFFFFFFFFFFFFFFFFFFFFFFFFFFFFFFF AND MUL OR SWAP1 SSTORE POP DUP2 PUSH20 0xFFFFFFFFFFFFFFFFFFFFFFFFFFFFFFFFFFFFFFFF AND DUP2 PUSH20 0xFFFFFFFFFFFFFFFFFFFFFFFFFFFFFFFFFFFFFFFF AND PUSH32 0x8BE0079C531659141344CD1FD0A4F28419497F9722A3DAAFE3B4186F6B6457E0 PUSH1 0x40 MLOAD PUSH1 0x40 MLOAD DUP1 SWAP2 SUB SWAP1 LOG3 POP POP JUMP JUMPDEST DUP3 PUSH1 0x4 DUP2 ADD SWAP3 DUP3 ISZERO PUSH3 0x2E3 JUMPI SWAP2 PUSH1 0x20 MUL DUP3 ADD JUMPDEST DUP3 DUP2 GT ISZERO PUSH3 0x2E2 JUMPI DUP3 MLOAD DUP3 PUSH1 0x0 PUSH2 0x100 EXP DUP2 SLOAD DUP2 PUSH20 0xFFFFFFFFFFFFFFFFFFFFFFFFFFFFFFFFFFFFFFFF MUL NOT AND SWAP1 DUP4 PUSH20 0xFFFFFFFFFFFFFFFFFFFFFFFFFFFFFFFFFFFFFFFF AND MUL OR SWAP1 SSTORE POP SWAP2 PUSH1 0x20 ADD SWAP2 SWAP1 PUSH1 0x1 ADD SWAP1 PUSH3 0x288 JUMP JUMPDEST JUMPDEST POP SWAP1 POP PUSH3 0x2F2 SWAP2 SWAP1 PUSH3 0x2F6 JUMP JUMPDEST POP SWAP1 JUMP JUMPDEST JUMPDEST DUP1 DUP3 GT ISZERO PUSH3 0x311 JUMPI PUSH1 0x0 DUP2 PUSH1 0x0 SWAP1 SSTORE POP PUSH1 0x1 ADD PUSH3 0x2F7 JUMP JUMPDEST POP SWAP1 JUMP JUMPDEST PUSH1 0x0 PUSH1 0x40 MLOAD SWAP1 POP SWAP1 JUMP JUMPDEST PUSH1 0x0 DUP1 REVERT JUMPDEST PUSH1 0x0 PUSH20 0xFFFFFFFFFFFFFFFFFFFFFFFFFFFFFFFFFFFFFFFF DUP3 AND SWAP1 POP SWAP2 SWAP1 POP JUMP JUMPDEST PUSH1 0x0 PUSH3 0x351 DUP3 PUSH3 0x324 JUMP JUMPDEST SWAP1 POP SWAP2 SWAP1 POP JUMP JUMPDEST PUSH3 0x363 DUP2 PUSH3 0x344 JUMP JUMPDEST DUP2 EQ PUSH3 0x36F JUMPI PUSH1 0x0 DUP1 REVERT JUMPDEST POP JUMP JUMPDEST PUSH1 0x0 DUP2 MLOAD SWAP1 POP PUSH3 0x383 DUP2 PUSH3 0x358 JUMP JUMPDEST SWAP3 SWAP2 POP POP JUMP JUMPDEST PUSH1 0x0 DUP1 REVERT JUMPDEST PUSH1 0x0 PUSH1 0x1F NOT PUSH1 0x1F DUP4 ADD AND SWAP1 POP SWAP2 SWAP1 POP JUMP JUMPDEST PUSH32 0x4E487B7100000000000000000000000000000000000000000000000000000000 PUSH1 0x0 MSTORE PUSH1 0x41 PUSH1 0x4 MSTORE PUSH1 0x24 PUSH1 0x0 REVERT JUMPDEST PUSH3 0x3D9 DUP3 PUSH3 0x38E JUMP JUMPDEST DUP2 ADD DUP2 DUP2 LT PUSH8 0xFFFFFFFFFFFFFFFF DUP3 GT OR ISZERO PUSH3 0x3FB JUMPI PUSH3 0x3FA PUSH3 0x39F JUMP JUMPDEST JUMPDEST DUP1 PUSH1 0x40 MSTORE POP POP POP JUMP JUMPDEST PUSH1 0x0 PUSH3 0x410 PUSH3 0x315 JUMP JUMPDEST SWAP1 POP PUSH3 0x41E DUP3 DUP3 PUSH3 0x3CE JUMP JUMPDEST SWAP2 SWAP1 POP JUMP JUMPDEST PUSH1 0x0 PUSH8 0xFFFFFFFFFFFFFFFF DUP3 GT ISZERO PUSH3 0x441 JUMPI PUSH3 0x440 PUSH3 0x39F JUMP JUMPDEST JUMPDEST PUSH1 0x20 DUP3 MUL SWAP1 POP SWAP2 SWAP1 POP JUMP JUMPDEST PUSH1 0x0 DUP1 REVERT JUMPDEST PUSH1 0x0 PUSH3 0x468 PUSH3 0x462 DUP5 PUSH3 0x423 JUMP JUMPDEST PUSH3 0x404 JUMP JUMPDEST SWAP1 POP DUP1 PUSH1 0x20 DUP5 MUL DUP4 ADD DUP6 DUP2 GT ISZERO PUSH3 0x485 JUMPI PUSH3 0x484 PUSH3 0x44C JUMP JUMPDEST JUMPDEST DUP4 JUMPDEST DUP2 DUP2 LT ISZERO PUSH3 0x4B2 JUMPI DUP1 PUSH3 0x49D DUP9 DUP3 PUSH3 0x372 JUMP JUMPDEST DUP5 MSTORE PUSH1 0x20 DUP5 ADD SWAP4 POP POP PUSH1 0x20 DUP2 ADD SWAP1 POP PUSH3 0x487 JUMP JUMPDEST POP POP POP SWAP4 SWAP3 POP POP POP JUMP JUMPDEST PUSH1 0x0 DUP3 PUSH1 0x1F DUP4 ADD SLT PUSH3 0x4D4 JUMPI PUSH3 0x4D3 PUSH3 0x389 JUMP JUMPDEST JUMPDEST PUSH1 0x4 PUSH3 0x4E3 DUP5 DUP3 DUP6 PUSH3 0x451 JUMP JUMPDEST SWAP2 POP POP SWAP3 SWAP2 POP POP JUMP JUMPDEST PUSH1 0x0 DUP1 PUSH1 0x0 DUP1 PUSH1 0x0 PUSH2 0x160 DUP7 DUP9 SUB SLT ISZERO PUSH3 0x50C JUMPI PUSH3 0x50B PUSH3 0x31F JUMP JUMPDEST JUMPDEST PUSH1 0x0 PUSH3 0x51C DUP9 DUP3 DUP10 ADD PUSH3 0x372 JUMP JUMPDEST SWAP6 POP POP PUSH1 0x20 PUSH3 0x52F DUP9 DUP3 DUP10 ADD PUSH3 0x372 JUMP JUMPDEST SWAP5 POP POP PUSH1 0x40 PUSH3 0x542 DUP9 DUP3 DUP10 ADD PUSH3 0x372 JUMP JUMPDEST SWAP4 POP POP PUSH1 0x60 PUSH3 0x555 DUP9 DUP3 DUP10 ADD PUSH3 0x4BC JUMP JUMPDEST SWAP3 POP POP PUSH1 0xE0 PUSH3 0x568 DUP9 DUP3 DUP10 ADD PUSH3 0x4BC JUMP JUMPDEST SWAP2 POP POP SWAP3 SWAP6 POP SWAP3 SWAP6 SWAP1 SWAP4 POP JUMP JUMPDEST PUSH2 0x4E31 DUP1 PUSH3 0x585 PUSH1 0x0 CODECOPY PUSH1 0x0 RETURN INVALID PUSH1 0x80 PUSH1 0x40 MSTORE PUSH1 0x4 CALLDATASIZE LT PUSH2 0x109 JUMPI PUSH1 0x0 CALLDATALOAD PUSH1 0xE0 SHR DUP1 PUSH4 0x8DA5CB5B GT PUSH2 0x95 JUMPI DUP1 PUSH4 0xB25F9B3E GT PUSH2 0x64 JUMPI DUP1 PUSH4 0xB25F9B3E EQ PUSH2 0x32B JUMPI DUP1 PUSH4 0xDA610FCF EQ PUSH2 0x342 JUMPI DUP1 PUSH4 0xE9FF18C6 EQ PUSH2 0x36D JUMPI DUP1 PUSH4 0xEDDD0D9C EQ PUSH2 0x389 JUMPI DUP1 PUSH4 0xF2FDE38B EQ PUSH2 0x3B2 JUMPI PUSH2 0x109 JUMP JUMPDEST DUP1 PUSH4 0x8DA5CB5B EQ PUSH2 0x27E JUMPI DUP1 PUSH4 0xA330E03E EQ PUSH2 0x2A9 JUMPI DUP1 PUSH4 0xA9A876AF EQ PUSH2 0x2E6 JUMPI DUP1 PUSH4 0xAB111ADD EQ PUSH2 0x30F JUMPI PUSH2 0x109 JUMP JUMPDEST DUP1 PUSH4 0x5473E978 GT PUSH2 0xDC JUMPI DUP1 PUSH4 0x5473E978 EQ PUSH2 0x199 JUMPI DUP1 PUSH4 0x5C975ABB EQ PUSH2 0x1C2 JUMPI DUP1 PUSH4 0x715018A6 EQ PUSH2 0x1ED JUMPI DUP1 PUSH4 0x8428E99A EQ PUSH2 0x204 JUMPI DUP1 PUSH4 0x87ACBC97 EQ PUSH2 0x241 JUMPI PUSH2 0x109 JUMP JUMPDEST DUP1 PUSH4 0x8E6B2C9 EQ PUSH2 0x10E JUMPI DUP1 PUSH4 0x20B37CFC EQ PUSH2 0x125 JUMPI DUP1 PUSH4 0x27C78C42 EQ PUSH2 0x141 JUMPI DUP1 PUSH4 0x3CCFD60B EQ PUSH2 0x182 JUMPI JUMPDEST PUSH1 0x0 DUP1 REVERT JUMPDEST CALLVALUE DUP1 ISZERO PUSH2 0x11A JUMPI PUSH1 0x0 DUP1 REVERT JUMPDEST POP PUSH2 0x123 PUSH2 0x3DB JUMP JUMPDEST STOP JUMPDEST PUSH2 0x13F PUSH1 0x4 DUP1 CALLDATASIZE SUB DUP2 ADD SWAP1 PUSH2 0x13A SWAP2 SWAP1 PUSH2 0x3543 JUMP JUMPDEST PUSH2 0x748 JUMP JUMPDEST STOP JUMPDEST CALLVALUE DUP1 ISZERO PUSH2 0x14D JUMPI PUSH1 0x0 DUP1 REVERT JUMPDEST POP PUSH2 0x168 PUSH1 0x4 DUP1 CALLDATASIZE SUB DUP2 ADD SWAP1 PUSH2 0x163 SWAP2 SWAP1 PUSH2 0x35E1 JUMP JUMPDEST PUSH2 0xBEA JUMP JUMPDEST PUSH1 0x40 MLOAD PUSH2 0x179 SWAP6 SWAP5 SWAP4 SWAP3 SWAP2 SWAP1 PUSH2 0x3666 JUMP JUMPDEST PUSH1 0x40 MLOAD DUP1 SWAP2 SUB SWAP1 RETURN JUMPDEST CALLVALUE DUP1 ISZERO PUSH2 0x18E JUMPI PUSH1 0x0 DUP1 REVERT JUMPDEST POP PUSH2 0x197 PUSH2 0xC51 JUMP JUMPDEST STOP JUMPDEST CALLVALUE DUP1 ISZERO PUSH2 0x1A5 JUMPI PUSH1 0x0 DUP1 REVERT JUMPDEST POP PUSH2 0x1C0 PUSH1 0x4 DUP1 CALLDATASIZE SUB DUP2 ADD SWAP1 PUSH2 0x1BB SWAP2 SWAP1 PUSH2 0x35E1 JUMP JUMPDEST PUSH2 0xD2A JUMP JUMPDEST STOP JUMPDEST CALLVALUE DUP1 ISZERO PUSH2 0x1CE JUMPI PUSH1 0x0 DUP1 REVERT JUMPDEST POP PUSH2 0x1D7 PUSH2 0xDB7 JUMP JUMPDEST PUSH1 0x40 MLOAD PUSH2 0x1E4 SWAP2 SWAP1 PUSH2 0x36B9 JUMP JUMPDEST PUSH1 0x40 MLOAD DUP1 SWAP2 SUB SWAP1 RETURN JUMPDEST CALLVALUE DUP1 ISZERO PUSH2 0x1F9 JUMPI PUSH1 0x0 DUP1 REVERT JUMPDEST POP PUSH2 0x202 PUSH2 0xDCD JUMP JUMPDEST STOP JUMPDEST CALLVALUE DUP1 ISZERO PUSH2 0x210 JUMPI PUSH1 0x0 DUP1 REVERT JUMPDEST POP PUSH2 0x22B PUSH1 0x4 DUP1 CALLDATASIZE SUB DUP2 ADD SWAP1 PUSH2 0x226 SWAP2 SWAP1 PUSH2 0x36D4 JUMP JUMPDEST PUSH2 0xDE1 JUMP JUMPDEST PUSH1 0x40 MLOAD PUSH2 0x238 SWAP2 SWAP1 PUSH2 0x378B JUMP JUMPDEST PUSH1 0x40 MLOAD DUP1 SWAP2 SUB SWAP1 RETURN JUMPDEST CALLVALUE DUP1 ISZERO PUSH2 0x24D JUMPI PUSH1 0x0 DUP1 REVERT JUMPDEST POP PUSH2 0x268 PUSH1 0x4 DUP1 CALLDATASIZE SUB DUP2 ADD SWAP1 PUSH2 0x263 SWAP2 SWAP1 PUSH2 0x37A6 JUMP JUMPDEST PUSH2 0xDF9 JUMP JUMPDEST PUSH1 0x40 MLOAD PUSH2 0x275 SWAP2 SWAP1 PUSH2 0x36B9 JUMP JUMPDEST PUSH1 0x40 MLOAD DUP1 SWAP2 SUB SWAP1 RETURN JUMPDEST CALLVALUE DUP1 ISZERO PUSH2 0x28A JUMPI PUSH1 0x0 DUP1 REVERT JUMPDEST POP PUSH2 0x293 PUSH2 0xECA JUMP JUMPDEST PUSH1 0x40 MLOAD PUSH2 0x2A0 SWAP2 SWAP1 PUSH2 0x37F5 JUMP JUMPDEST PUSH1 0x40 MLOAD DUP1 SWAP2 SUB SWAP1 RETURN JUMPDEST CALLVALUE DUP1 ISZERO PUSH2 0x2B5 JUMPI PUSH1 0x0 DUP1 REVERT JUMPDEST POP PUSH2 0x2D0 PUSH1 0x4 DUP1 CALLDATASIZE SUB DUP2 ADD SWAP1 PUSH2 0x2CB SWAP2 SWAP1 PUSH2 0x37A6 JUMP JUMPDEST PUSH2 0xEF3 JUMP JUMPDEST PUSH1 0x40 MLOAD PUSH2 0x2DD SWAP2 SWAP1 PUSH2 0x36B9 JUMP JUMPDEST PUSH1 0x40 MLOAD DUP1 SWAP2 SUB SWAP1 RETURN JUMPDEST CALLVALUE DUP1 ISZERO PUSH2 0x2F2 JUMPI PUSH1 0x0 DUP1 REVERT JUMPDEST POP PUSH2 0x30D PUSH1 0x4 DUP1 CALLDATASIZE SUB DUP2 ADD SWAP1 PUSH2 0x308 SWAP2 SWAP1 PUSH2 0x3969 JUMP JUMPDEST PUSH2 0xF22 JUMP JUMPDEST STOP JUMPDEST PUSH2 0x329 PUSH1 0x4 DUP1 CALLDATASIZE SUB DUP2 ADD SWAP1 PUSH2 0x324 SWAP2 SWAP1 PUSH2 0x39C5 JUMP JUMPDEST PUSH2 0x11EC JUMP JUMPDEST STOP JUMPDEST CALLVALUE DUP1 ISZERO PUSH2 0x337 JUMPI PUSH1 0x0 DUP1 REVERT JUMPDEST POP PUSH2 0x340 PUSH2 0x1872 JUMP JUMPDEST STOP JUMPDEST CALLVALUE DUP1 ISZERO PUSH2 0x34E JUMPI PUSH1 0x0 DUP1 REVERT JUMPDEST POP PUSH2 0x357 PUSH2 0x1BD9 JUMP JUMPDEST PUSH1 0x40 MLOAD PUSH2 0x364 SWAP2 SWAP1 PUSH2 0x3A05 JUMP JUMPDEST PUSH1 0x40 MLOAD DUP1 SWAP2 SUB SWAP1 RETURN JUMPDEST PUSH2 0x387 PUSH1 0x4 DUP1 CALLDATASIZE SUB DUP2 ADD SWAP1 PUSH2 0x382 SWAP2 SWAP1 PUSH2 0x3A20 JUMP JUMPDEST PUSH2 0x1BDF JUMP JUMPDEST STOP JUMPDEST CALLVALUE DUP1 ISZERO PUSH2 0x395 JUMPI PUSH1 0x0 DUP1 REVERT JUMPDEST POP PUSH2 0x3B0 PUSH1 0x4 DUP1 CALLDATASIZE SUB DUP2 ADD SWAP1 PUSH2 0x3AB SWAP2 SWAP1 PUSH2 0x36D4 JUMP JUMPDEST PUSH2 0x2034 JUMP JUMPDEST STOP JUMPDEST CALLVALUE DUP1 ISZERO PUSH2 0x3BE JUMPI PUSH1 0x0 DUP1 REVERT JUMPDEST POP PUSH2 0x3D9 PUSH1 0x4 DUP1 CALLDATASIZE SUB DUP2 ADD SWAP1 PUSH2 0x3D4 SWAP2 SWAP1 PUSH2 0x35E1 JUMP JUMPDEST PUSH2 0x2055 JUMP JUMPDEST STOP JUMPDEST PUSH1 0x0 PUSH1 0x7 PUSH1 0x0 CALLER PUSH20 0xFFFFFFFFFFFFFFFFFFFFFFFFFFFFFFFFFFFFFFFF AND PUSH20 0xFFFFFFFFFFFFFFFFFFFFFFFFFFFFFFFFFFFFFFFF AND DUP2 MSTORE PUSH1 0x20 ADD SWAP1 DUP2 MSTORE PUSH1 0x20 ADD PUSH1 0x0 KECCAK256 PUSH1 0x40 MLOAD DUP1 PUSH1 0xA0 ADD PUSH1 0x40 MSTORE SWAP1 DUP2 PUSH1 0x0 DUP3 ADD SLOAD DUP2 MSTORE PUSH1 0x20 ADD PUSH1 0x1 DUP3 ADD PUSH1 0x0 SWAP1 SLOAD SWAP1 PUSH2 0x100 EXP SWAP1 DIV PUSH8 0xFFFFFFFFFFFFFFFF AND PUSH8 0xFFFFFFFFFFFFFFFF AND PUSH8 0xFFFFFFFFFFFFFFFF AND DUP2 MSTORE PUSH1 0x20 ADD PUSH1 0x1 DUP3 ADD PUSH1 0x8 SWAP1 SLOAD SWAP1 PUSH2 0x100 EXP SWAP1 DIV PUSH4 0xFFFFFFFF AND PUSH4 0xFFFFFFFF AND PUSH4 0xFFFFFFFF AND DUP2 MSTORE PUSH1 0x20 ADD PUSH1 0x2 DUP3 ADD SLOAD DUP2 MSTORE PUSH1 0x20 ADD PUSH1 0x3 DUP3 ADD PUSH1 0x0 SWAP1 SLOAD SWAP1 PUSH2 0x100 EXP SWAP1 DIV PUSH1 0xFF AND ISZERO ISZERO ISZERO ISZERO DUP2 MSTORE POP POP SWAP1 POP PUSH1 0x0 DUP2 PUSH1 0x0 ADD MLOAD GT PUSH2 0x4F7 JUMPI PUSH1 0x40 MLOAD PUSH32 0x8C379A000000000000000000000000000000000000000000000000000000000 DUP2 MSTORE PUSH1 0x4 ADD PUSH2 0x4EE SWAP1 PUSH2 0x3AAA JUMP JUMPDEST PUSH1 0x40 MLOAD DUP1 SWAP2 SUB SWAP1 REVERT JUMPDEST PUSH1 0x0 DUP1 PUSH1 0x1 PUSH1 0x0 SWAP1 SLOAD SWAP1 PUSH2 0x100 EXP SWAP1 DIV PUSH20 0xFFFFFFFFFFFFFFFFFFFFFFFFFFFFFFFFFFFFFFFF AND PUSH20 0xFFFFFFFFFFFFFFFFFFFFFFFFFFFFFFFFFFFFFFFF AND PUSH4 0xD8A4676F DUP5 PUSH1 0x0 ADD MLOAD PUSH1 0x40 MLOAD DUP3 PUSH4 0xFFFFFFFF AND PUSH1 0xE0 SHL DUP2 MSTORE PUSH1 0x4 ADD PUSH2 0x559 SWAP2 SWAP1 PUSH2 0x3A05 JUMP JUMPDEST PUSH1 0x0 PUSH1 0x40 MLOAD DUP1 DUP4 SUB DUP2 DUP7 GAS STATICCALL ISZERO DUP1 ISZERO PUSH2 0x576 JUMPI RETURNDATASIZE PUSH1 0x0 DUP1 RETURNDATACOPY RETURNDATASIZE PUSH1 0x0 REVERT JUMPDEST POP POP POP POP PUSH1 0x40 MLOAD RETURNDATASIZE PUSH1 0x0 DUP3 RETURNDATACOPY RETURNDATASIZE PUSH1 0x1F NOT PUSH1 0x1F DUP3 ADD AND DUP3 ADD DUP1 PUSH1 0x40 MSTORE POP DUP2 ADD SWAP1 PUSH2 0x59F SWAP2 SWAP1 PUSH2 0x3BA2 JUMP JUMPDEST SWAP2 POP SWAP2 POP DUP2 PUSH2 0x5E3 JUMPI PUSH1 0x40 MLOAD PUSH32 0x8C379A000000000000000000000000000000000000000000000000000000000 DUP2 MSTORE PUSH1 0x4 ADD PUSH2 0x5DA SWAP1 PUSH2 0x3C70 JUMP JUMPDEST PUSH1 0x40 MLOAD DUP1 SWAP2 SUB SWAP1 REVERT JUMPDEST PUSH1 0x0 JUMPDEST DUP4 PUSH1 0x40 ADD MLOAD PUSH4 0xFFFFFFFF AND DUP2 LT ISZERO PUSH2 0x639 JUMPI PUSH2 0x626 CALLER DUP4 DUP4 DUP2 MLOAD DUP2 LT PUSH2 0x60F JUMPI PUSH2 0x60E PUSH2 0x3C90 JUMP JUMPDEST JUMPDEST PUSH1 0x20 MUL PUSH1 0x20 ADD ADD MLOAD DUP7 PUSH1 0x20 ADD MLOAD DUP8 PUSH1 0x80 ADD MLOAD PUSH2 0x20D8 JUMP JUMPDEST DUP1 DUP1 PUSH2 0x631 SWAP1 PUSH2 0x3CEE JUMP JUMPDEST SWAP2 POP POP PUSH2 0x5E6 JUMP JUMPDEST POP PUSH1 0x40 MLOAD DUP1 PUSH1 0xA0 ADD PUSH1 0x40 MSTORE DUP1 PUSH1 0x0 DUP2 MSTORE PUSH1 0x20 ADD PUSH1 0x0 PUSH8 0xFFFFFFFFFFFFFFFF AND DUP2 MSTORE PUSH1 0x20 ADD PUSH1 0x0 PUSH4 0xFFFFFFFF AND DUP2 MSTORE PUSH1 0x20 ADD TIMESTAMP DUP2 MSTORE PUSH1 0x20 ADD PUSH1 0x0 ISZERO ISZERO DUP2 MSTORE POP PUSH1 0x7 PUSH1 0x0 CALLER PUSH20 0xFFFFFFFFFFFFFFFFFFFFFFFFFFFFFFFFFFFFFFFF AND PUSH20 0xFFFFFFFFFFFFFFFFFFFFFFFFFFFFFFFFFFFFFFFF AND DUP2 MSTORE PUSH1 0x20 ADD SWAP1 DUP2 MSTORE PUSH1 0x20 ADD PUSH1 0x0 KECCAK256 PUSH1 0x0 DUP3 ADD MLOAD DUP2 PUSH1 0x0 ADD SSTORE PUSH1 0x20 DUP3 ADD MLOAD DUP2 PUSH1 0x1 ADD PUSH1 0x0 PUSH2 0x100 EXP DUP2 SLOAD DUP2 PUSH8 0xFFFFFFFFFFFFFFFF MUL NOT AND SWAP1 DUP4 PUSH8 0xFFFFFFFFFFFFFFFF AND MUL OR SWAP1 SSTORE POP PUSH1 0x40 DUP3 ADD MLOAD DUP2 PUSH1 0x1 ADD PUSH1 0x8 PUSH2 0x100 EXP DUP2 SLOAD DUP2 PUSH4 0xFFFFFFFF MUL NOT AND SWAP1 DUP4 PUSH4 0xFFFFFFFF AND MUL OR SWAP1 SSTORE POP PUSH1 0x60 DUP3 ADD MLOAD DUP2 PUSH1 0x2 ADD SSTORE PUSH1 0x80 DUP3 ADD MLOAD DUP2 PUSH1 0x3 ADD PUSH1 0x0 PUSH2 0x100 EXP DUP2 SLOAD DUP2 PUSH1 0xFF MUL NOT AND SWAP1 DUP4 ISZERO ISZERO MUL OR SWAP1 SSTORE POP SWAP1 POP POP POP POP POP JUMP JUMPDEST PUSH2 0x750 PUSH2 0x2269 JUMP JUMPDEST PUSH1 0x0 PUSH1 0x7 PUSH1 0x0 CALLER PUSH20 0xFFFFFFFFFFFFFFFFFFFFFFFFFFFFFFFFFFFFFFFF AND PUSH20 0xFFFFFFFFFFFFFFFFFFFFFFFFFFFFFFFFFFFFFFFF AND DUP2 MSTORE PUSH1 0x20 ADD SWAP1 DUP2 MSTORE PUSH1 0x20 ADD PUSH1 0x0 KECCAK256 PUSH1 0x40 MLOAD DUP1 PUSH1 0xA0 ADD PUSH1 0x40 MSTORE SWAP1 DUP2 PUSH1 0x0 DUP3 ADD SLOAD DUP2 MSTORE PUSH1 0x20 ADD PUSH1 0x1 DUP3 ADD PUSH1 0x0 SWAP1 SLOAD SWAP1 PUSH2 0x100 EXP SWAP1 DIV PUSH8 0xFFFFFFFFFFFFFFFF AND PUSH8 0xFFFFFFFFFFFFFFFF AND PUSH8 0xFFFFFFFFFFFFFFFF AND DUP2 MSTORE PUSH1 0x20 ADD PUSH1 0x1 DUP3 ADD PUSH1 0x8 SWAP1 SLOAD SWAP1 PUSH2 0x100 EXP SWAP1 DIV PUSH4 0xFFFFFFFF AND PUSH4 0xFFFFFFFF AND PUSH4 0xFFFFFFFF AND DUP2 MSTORE PUSH1 0x20 ADD PUSH1 0x2 DUP3 ADD SLOAD DUP2 MSTORE PUSH1 0x20 ADD PUSH1 0x3 DUP3 ADD PUSH1 0x0 SWAP1 SLOAD SWAP1 PUSH2 0x100 EXP SWAP1 DIV PUSH1 0xFF AND ISZERO ISZERO ISZERO ISZERO DUP2 MSTORE POP POP SWAP1 POP PUSH1 0x0 DUP2 PUSH1 0x0 ADD MLOAD EQ PUSH2 0x86C JUMPI PUSH1 0x40 MLOAD PUSH32 0x8C379A000000000000000000000000000000000000000000000000000000000 DUP2 MSTORE PUSH1 0x4 ADD PUSH2 0x863 SWAP1 PUSH2 0x3DA8 JUMP JUMPDEST PUSH1 0x40 MLOAD DUP1 SWAP2 SUB SWAP1 REVERT JUMPDEST PUSH1 0x5 DUP4 PUSH8 0xFFFFFFFFFFFFFFFF AND LT PUSH2 0x8B9 JUMPI PUSH1 0x40 MLOAD PUSH32 0x8C379A000000000000000000000000000000000000000000000000000000000 DUP2 MSTORE PUSH1 0x4 ADD PUSH2 0x8B0 SWAP1 PUSH2 0x3E3A JUMP JUMPDEST PUSH1 0x40 MLOAD DUP1 SWAP2 SUB SWAP1 REVERT JUMPDEST PUSH1 0x0 DUP3 GT DUP1 ISZERO PUSH2 0x8C9 JUMPI POP PUSH1 0x4 DUP3 LT JUMPDEST PUSH2 0x908 JUMPI PUSH1 0x40 MLOAD PUSH32 0x8C379A000000000000000000000000000000000000000000000000000000000 DUP2 MSTORE PUSH1 0x4 ADD PUSH2 0x8FF SWAP1 PUSH2 0x3ECC JUMP JUMPDEST PUSH1 0x40 MLOAD DUP1 SWAP2 SUB SWAP1 REVERT JUMPDEST PUSH1 0x8 SLOAD DUP3 PUSH2 0x916 SWAP2 SWAP1 PUSH2 0x3EEC JUMP JUMPDEST CALLVALUE LT ISZERO PUSH2 0x958 JUMPI PUSH1 0x40 MLOAD PUSH32 0x8C379A000000000000000000000000000000000000000000000000000000000 DUP2 MSTORE PUSH1 0x4 ADD PUSH2 0x94F SWAP1 PUSH2 0x3FC6 JUMP JUMPDEST PUSH1 0x40 MLOAD DUP1 SWAP2 SUB SWAP1 REVERT JUMPDEST PUSH1 0x0 PUSH2 0x96E DUP5 PUSH8 0xFFFFFFFFFFFFFFFF AND DUP5 PUSH2 0x22B3 JUMP JUMPDEST SWAP1 POP DUP1 PUSH2 0x9B0 JUMPI PUSH1 0x40 MLOAD PUSH32 0x8C379A000000000000000000000000000000000000000000000000000000000 DUP2 MSTORE PUSH1 0x4 ADD PUSH2 0x9A7 SWAP1 PUSH2 0x4058 JUMP JUMPDEST PUSH1 0x40 MLOAD DUP1 SWAP2 SUB SWAP1 REVERT JUMPDEST PUSH1 0x40 MLOAD DUP1 PUSH1 0xA0 ADD PUSH1 0x40 MSTORE DUP1 PUSH1 0x1 PUSH1 0x0 SWAP1 SLOAD SWAP1 PUSH2 0x100 EXP SWAP1 DIV PUSH20 0xFFFFFFFFFFFFFFFFFFFFFFFFFFFFFFFFFFFFFFFF AND PUSH20 0xFFFFFFFFFFFFFFFFFFFFFFFFFFFFFFFFFFFFFFFF AND PUSH4 0x9BCA039D CALLER DUP8 PUSH1 0x0 PUSH1 0x40 MLOAD DUP5 PUSH4 0xFFFFFFFF AND PUSH1 0xE0 SHL DUP2 MSTORE PUSH1 0x4 ADD PUSH2 0xA1B SWAP4 SWAP3 SWAP2 SWAP1 PUSH2 0x4078 JUMP JUMPDEST PUSH1 0x20 PUSH1 0x40 MLOAD DUP1 DUP4 SUB DUP2 PUSH1 0x0 DUP8 GAS CALL ISZERO DUP1 ISZERO PUSH2 0xA3A JUMPI RETURNDATASIZE PUSH1 0x0 DUP1 RETURNDATACOPY RETURNDATASIZE PUSH1 0x0 REVERT JUMPDEST POP POP POP POP PUSH1 0x40 MLOAD RETURNDATASIZE PUSH1 0x1F NOT PUSH1 0x1F DUP3 ADD AND DUP3 ADD DUP1 PUSH1 0x40 MSTORE POP DUP2 ADD SWAP1 PUSH2 0xA5E SWAP2 SWAP1 PUSH2 0x40AF JUMP JUMPDEST DUP2 MSTORE PUSH1 0x20 ADD DUP6 PUSH8 0xFFFFFFFFFFFFFFFF AND DUP2 MSTORE PUSH1 0x20 ADD DUP5 PUSH4 0xFFFFFFFF AND DUP2 MSTORE PUSH1 0x20 ADD TIMESTAMP DUP2 MSTORE PUSH1 0x20 ADD PUSH1 0x0 ISZERO ISZERO DUP2 MSTORE POP PUSH1 0x7 PUSH1 0x0 CALLER PUSH20 0xFFFFFFFFFFFFFFFFFFFFFFFFFFFFFFFFFFFFFFFF AND PUSH20 0xFFFFFFFFFFFFFFFFFFFFFFFFFFFFFFFFFFFFFFFF AND DUP2 MSTORE PUSH1 0x20 ADD SWAP1 DUP2 MSTORE PUSH1 0x20 ADD PUSH1 0x0 KECCAK256 PUSH1 0x0 DUP3 ADD MLOAD DUP2 PUSH1 0x0 ADD SSTORE PUSH1 0x20 DUP3 ADD MLOAD DUP2 PUSH1 0x1 ADD PUSH1 0x0 PUSH2 0x100 EXP DUP2 SLOAD DUP2 PUSH8 0xFFFFFFFFFFFFFFFF MUL NOT AND SWAP1 DUP4 PUSH8 0xFFFFFFFFFFFFFFFF AND MUL OR SWAP1 SSTORE POP PUSH1 0x40 DUP3 ADD MLOAD DUP2 PUSH1 0x1 ADD PUSH1 0x8 PUSH2 0x100 EXP DUP2 SLOAD DUP2 PUSH4 0xFFFFFFFF MUL NOT AND SWAP1 DUP4 PUSH4 0xFFFFFFFF AND MUL OR SWAP1 SSTORE POP PUSH1 0x60 DUP3 ADD MLOAD DUP2 PUSH1 0x2 ADD SSTORE PUSH1 0x80 DUP3 ADD MLOAD DUP2 PUSH1 0x3 ADD PUSH1 0x0 PUSH2 0x100 EXP DUP2 SLOAD DUP2 PUSH1 0xFF MUL NOT AND SWAP1 DUP4 ISZERO ISZERO MUL OR SWAP1 SSTORE POP SWAP1 POP POP CALLER PUSH20 0xFFFFFFFFFFFFFFFFFFFFFFFFFFFFFFFFFFFFFFFF AND PUSH32 0x58577BF17AE4D0CC9D3B31873621B2A79CE93516E49B689B734695E54DF0D9FD PUSH1 0x7 PUSH1 0x0 CALLER PUSH20 0xFFFFFFFFFFFFFFFFFFFFFFFFFFFFFFFFFFFFFFFF AND PUSH20 0xFFFFFFFFFFFFFFFFFFFFFFFFFFFFFFFFFFFFFFFF AND DUP2 MSTORE PUSH1 0x20 ADD SWAP1 DUP2 MSTORE PUSH1 0x20 ADD PUSH1 0x0 KECCAK256 PUSH1 0x40 MLOAD PUSH2 0xBDC SWAP2 SWAP1 PUSH2 0x4260 JUMP JUMPDEST PUSH1 0x40 MLOAD DUP1 SWAP2 SUB SWAP1 LOG2 POP POP POP POP JUMP JUMPDEST PUSH1 0x7 PUSH1 0x20 MSTORE DUP1 PUSH1 0x0 MSTORE PUSH1 0x40 PUSH1 0x0 KECCAK256 PUSH1 0x0 SWAP2 POP SWAP1 POP DUP1 PUSH1 0x0 ADD SLOAD SWAP1 DUP1 PUSH1 0x1 ADD PUSH1 0x0 SWAP1 SLOAD SWAP1 PUSH2 0x100 EXP SWAP1 DIV PUSH8 0xFFFFFFFFFFFFFFFF AND SWAP1 DUP1 PUSH1 0x1 ADD PUSH1 0x8 SWAP1 SLOAD SWAP1 PUSH2 0x100 EXP SWAP1 DIV PUSH4 0xFFFFFFFF AND SWAP1 DUP1 PUSH1 0x2 ADD SLOAD SWAP1 DUP1 PUSH1 0x3 ADD PUSH1 0x0 SWAP1 SLOAD SWAP1 PUSH2 0x100 EXP SWAP1 DIV PUSH1 0xFF AND SWAP1 POP DUP6 JUMP JUMPDEST PUSH2 0xC59 PUSH2 0x24ED JUMP JUMPDEST PUSH1 0x0 PUSH1 0x6 PUSH1 0x0 SWAP1 SLOAD SWAP1 PUSH2 0x100 EXP SWAP1 DIV PUSH20 0xFFFFFFFFFFFFFFFFFFFFFFFFFFFFFFFFFFFFFFFF AND PUSH20 0xFFFFFFFFFFFFFFFFFFFFFFFFFFFFFFFFFFFFFFFF AND SELFBALANCE PUSH1 0x40 MLOAD PUSH2 0xCA1 SWAP1 PUSH2 0x42AC JUMP JUMPDEST PUSH1 0x0 PUSH1 0x40 MLOAD DUP1 DUP4 SUB DUP2 DUP6 DUP8 GAS CALL SWAP3 POP POP POP RETURNDATASIZE DUP1 PUSH1 0x0 DUP2 EQ PUSH2 0xCDE JUMPI PUSH1 0x40 MLOAD SWAP2 POP PUSH1 0x1F NOT PUSH1 0x3F RETURNDATASIZE ADD AND DUP3 ADD PUSH1 0x40 MSTORE RETURNDATASIZE DUP3 MSTORE RETURNDATASIZE PUSH1 0x0 PUSH1 0x20 DUP5 ADD RETURNDATACOPY PUSH2 0xCE3 JUMP JUMPDEST PUSH1 0x60 SWAP2 POP JUMPDEST POP POP SWAP1 POP DUP1 PUSH2 0xD27 JUMPI PUSH1 0x40 MLOAD PUSH32 0x8C379A000000000000000000000000000000000000000000000000000000000 DUP2 MSTORE PUSH1 0x4 ADD PUSH2 0xD1E SWAP1 PUSH2 0x430D JUMP JUMPDEST PUSH1 0x40 MLOAD DUP1 SWAP2 SUB SWAP1 REVERT JUMPDEST POP JUMP JUMPDEST PUSH2 0xD32 PUSH2 0x24ED JUMP JUMPDEST DUP1 PUSH1 0x4 PUSH1 0x0 PUSH2 0x100 EXP DUP2 SLOAD DUP2 PUSH20 0xFFFFFFFFFFFFFFFFFFFFFFFFFFFFFFFFFFFFFFFF MUL NOT AND SWAP1 DUP4 PUSH20 0xFFFFFFFFFFFFFFFFFFFFFFFFFFFFFFFFFFFFFFFF AND MUL OR SWAP1 SSTORE POP DUP1 PUSH1 0x1 PUSH1 0x0 PUSH2 0x100 EXP DUP2 SLOAD DUP2 PUSH20 0xFFFFFFFFFFFFFFFFFFFFFFFFFFFFFFFFFFFFFFFF MUL NOT AND SWAP1 DUP4 PUSH20 0xFFFFFFFFFFFFFFFFFFFFFFFFFFFFFFFFFFFFFFFF AND MUL OR SWAP1 SSTORE POP POP JUMP JUMPDEST PUSH1 0x0 DUP1 PUSH1 0x14 SWAP1 SLOAD SWAP1 PUSH2 0x100 EXP SWAP1 DIV PUSH1 0xFF AND SWAP1 POP SWAP1 JUMP JUMPDEST PUSH2 0xDD5 PUSH2 0x24ED JUMP JUMPDEST PUSH2 0xDDF PUSH1 0x0 PUSH2 0x256B JUMP JUMPDEST JUMP JUMPDEST PUSH2 0xDE9 PUSH2 0x33CB JUMP JUMPDEST PUSH2 0xDF2 DUP3 PUSH2 0x262F JUMP JUMPDEST SWAP1 POP SWAP2 SWAP1 POP JUMP JUMPDEST PUSH1 0x0 PUSH1 0x1 SWAP1 POP PUSH1 0x0 PUSH2 0xE0A DUP5 PUSH2 0x262F JUMP JUMPDEST SWAP1 POP DUP3 DUP2 PUSH1 0x60 ADD MLOAD PUSH2 0xE1C SWAP2 SWAP1 PUSH2 0x3EEC JUMP JUMPDEST DUP2 PUSH1 0x60 ADD DUP2 DUP2 MSTORE POP POP DUP3 DUP2 PUSH1 0x80 ADD MLOAD PUSH2 0xE35 SWAP2 SWAP1 PUSH2 0x3EEC JUMP JUMPDEST DUP2 PUSH1 0x80 ADD DUP2 DUP2 MSTORE POP POP DUP3 DUP2 PUSH1 0xA0 ADD MLOAD PUSH2 0xE4E SWAP2 SWAP1 PUSH2 0x3EEC JUMP JUMPDEST DUP2 PUSH1 0xA0 ADD DUP2 DUP2 MSTORE POP POP PUSH1 0x0 PUSH2 0xE66 DUP3 PUSH1 0x0 ADD MLOAD PUSH2 0x26A1 JUMP JUMPDEST POP SWAP1 POP PUSH1 0x0 PUSH2 0xE78 DUP4 PUSH1 0x20 ADD MLOAD PUSH2 0x26A1 JUMP JUMPDEST POP SWAP1 POP PUSH1 0x0 PUSH2 0xE8A DUP5 PUSH1 0x40 ADD MLOAD PUSH2 0x2763 JUMP JUMPDEST POP SWAP1 POP DUP4 PUSH1 0x60 ADD MLOAD DUP4 LT ISZERO PUSH2 0xE9E JUMPI PUSH1 0x0 SWAP5 POP JUMPDEST DUP4 PUSH1 0x80 ADD MLOAD DUP3 LT ISZERO PUSH2 0xEAF JUMPI PUSH1 0x0 SWAP5 POP JUMPDEST DUP4 PUSH1 0xA0 ADD MLOAD DUP2 LT ISZERO PUSH2 0xEC0 JUMPI PUSH1 0x0 SWAP5 POP JUMPDEST POP POP POP POP SWAP3 SWAP2 POP POP JUMP JUMPDEST PUSH1 0x0 DUP1 PUSH1 0x0 SWAP1 SLOAD SWAP1 PUSH2 0x100 EXP SWAP1 DIV PUSH20 0xFFFFFFFFFFFFFFFFFFFFFFFFFFFFFFFFFFFFFFFF AND SWAP1 POP SWAP1 JUMP JUMPDEST PUSH1 0x9 PUSH1 0x20 MSTORE DUP2 PUSH1 0x0 MSTORE PUSH1 0x40 PUSH1 0x0 KECCAK256 PUSH1 0x20 MSTORE DUP1 PUSH1 0x0 MSTORE PUSH1 0x40 PUSH1 0x0 KECCAK256 PUSH1 0x0 SWAP2 POP SWAP2 POP SWAP1 SLOAD SWAP1 PUSH2 0x100 EXP SWAP1 DIV PUSH1 0xFF AND DUP2 JUMP JUMPDEST PUSH1 0x4 PUSH1 0x0 SWAP1 SLOAD SWAP1 PUSH2 0x100 EXP SWAP1 DIV PUSH20 0xFFFFFFFFFFFFFFFFFFFFFFFFFFFFFFFFFFFFFFFF AND PUSH20 0xFFFFFFFFFFFFFFFFFFFFFFFFFFFFFFFFFFFFFFFF AND CALLER PUSH20 0xFFFFFFFFFFFFFFFFFFFFFFFFFFFFFFFFFFFFFFFF AND EQ PUSH2 0xFB2 JUMPI PUSH1 0x40 MLOAD PUSH32 0x8C379A000000000000000000000000000000000000000000000000000000000 DUP2 MSTORE PUSH1 0x4 ADD PUSH2 0xFA9 SWAP1 PUSH2 0x43C5 JUMP JUMPDEST PUSH1 0x40 MLOAD DUP1 SWAP2 SUB SWAP1 REVERT JUMPDEST PUSH1 0x0 PUSH1 0x7 PUSH1 0x0 DUP5 PUSH20 0xFFFFFFFFFFFFFFFFFFFFFFFFFFFFFFFFFFFFFFFF AND PUSH20 0xFFFFFFFFFFFFFFFFFFFFFFFFFFFFFFFFFFFFFFFF AND DUP2 MSTORE PUSH1 0x20 ADD SWAP1 DUP2 MSTORE PUSH1 0x20 ADD PUSH1 0x0 KECCAK256 PUSH1 0x40 MLOAD DUP1 PUSH1 0xA0 ADD PUSH1 0x40 MSTORE SWAP1 DUP2 PUSH1 0x0 DUP3 ADD SLOAD DUP2 MSTORE PUSH1 0x20 ADD PUSH1 0x1 DUP3 ADD PUSH1 0x0 SWAP1 SLOAD SWAP1 PUSH2 0x100 EXP SWAP1 DIV PUSH8 0xFFFFFFFFFFFFFFFF AND PUSH8 0xFFFFFFFFFFFFFFFF AND PUSH8 0xFFFFFFFFFFFFFFFF AND DUP2 MSTORE PUSH1 0x20 ADD PUSH1 0x1 DUP3 ADD PUSH1 0x8 SWAP1 SLOAD SWAP1 PUSH2 0x100 EXP SWAP1 DIV PUSH4 0xFFFFFFFF AND PUSH4 0xFFFFFFFF AND PUSH4 0xFFFFFFFF AND DUP2 MSTORE PUSH1 0x20 ADD PUSH1 0x2 DUP3 ADD SLOAD DUP2 MSTORE PUSH1 0x20 ADD PUSH1 0x3 DUP3 ADD PUSH1 0x0 SWAP1 SLOAD SWAP1 PUSH2 0x100 EXP SWAP1 DIV PUSH1 0xFF AND ISZERO ISZERO ISZERO ISZERO DUP2 MSTORE POP POP SWAP1 POP PUSH1 0x0 JUMPDEST DUP2 PUSH1 0x40 ADD MLOAD PUSH4 0xFFFFFFFF AND DUP2 LT ISZERO PUSH2 0x10DD JUMPI PUSH2 0x10CA DUP5 DUP5 DUP4 DUP2 MLOAD DUP2 LT PUSH2 0x10B3 JUMPI PUSH2 0x10B2 PUSH2 0x3C90 JUMP JUMPDEST JUMPDEST PUSH1 0x20 MUL PUSH1 0x20 ADD ADD MLOAD DUP5 PUSH1 0x20 ADD MLOAD DUP6 PUSH1 0x80 ADD MLOAD PUSH2 0x20D8 JUMP JUMPDEST DUP1 DUP1 PUSH2 0x10D5 SWAP1 PUSH2 0x3CEE JUMP JUMPDEST SWAP2 POP POP PUSH2 0x108A JUMP JUMPDEST POP PUSH1 0x40 MLOAD DUP1 PUSH1 0xA0 ADD PUSH1 0x40 MSTORE DUP1 PUSH1 0x0 DUP2 MSTORE PUSH1 0x20 ADD PUSH1 0x0 PUSH8 0xFFFFFFFFFFFFFFFF AND DUP2 MSTORE PUSH1 0x20 ADD PUSH1 0x0 PUSH4 0xFFFFFFFF AND DUP2 MSTORE PUSH1 0x20 ADD TIMESTAMP DUP2 MSTORE PUSH1 0x20 ADD PUSH1 0x0 ISZERO ISZERO DUP2 MSTORE POP PUSH1 0x7 PUSH1 0x0 DUP6 PUSH20 0xFFFFFFFFFFFFFFFFFFFFFFFFFFFFFFFFFFFFFFFF AND PUSH20 0xFFFFFFFFFFFFFFFFFFFFFFFFFFFFFFFFFFFFFFFF AND DUP2 MSTORE PUSH1 0x20 ADD SWAP1 DUP2 MSTORE PUSH1 0x20 ADD PUSH1 0x0 KECCAK256 PUSH1 0x0 DUP3 ADD MLOAD DUP2 PUSH1 0x0 ADD SSTORE PUSH1 0x20 DUP3 ADD MLOAD DUP2 PUSH1 0x1 ADD PUSH1 0x0 PUSH2 0x100 EXP DUP2 SLOAD DUP2 PUSH8 0xFFFFFFFFFFFFFFFF MUL NOT AND SWAP1 DUP4 PUSH8 0xFFFFFFFFFFFFFFFF AND MUL OR SWAP1 SSTORE POP PUSH1 0x40 DUP3 ADD MLOAD DUP2 PUSH1 0x1 ADD PUSH1 0x8 PUSH2 0x100 EXP DUP2 SLOAD DUP2 PUSH4 0xFFFFFFFF MUL NOT AND SWAP1 DUP4 PUSH4 0xFFFFFFFF AND MUL OR SWAP1 SSTORE POP PUSH1 0x60 DUP3 ADD MLOAD DUP2 PUSH1 0x2 ADD SSTORE PUSH1 0x80 DUP3 ADD MLOAD DUP2 PUSH1 0x3 ADD PUSH1 0x0 PUSH2 0x100 EXP DUP2 SLOAD DUP2 PUSH1 0xFF MUL NOT AND SWAP1 DUP4 ISZERO ISZERO MUL OR SWAP1 SSTORE POP SWAP1 POP POP POP POP POP JUMP JUMPDEST PUSH2 0x11F4 PUSH2 0x2269 JUMP JUMPDEST PUSH1 0x0 PUSH1 0x7 PUSH1 0x0 CALLER PUSH20 0xFFFFFFFFFFFFFFFFFFFFFFFFFFFFFFFFFFFFFFFF AND PUSH20 0xFFFFFFFFFFFFFFFFFFFFFFFFFFFFFFFFFFFFFFFF AND DUP2 MSTORE PUSH1 0x20 ADD SWAP1 DUP2 MSTORE PUSH1 0x20 ADD PUSH1 0x0 KECCAK256 PUSH1 0x40 MLOAD DUP1 PUSH1 0xA0 ADD PUSH1 0x40 MSTORE SWAP1 DUP2 PUSH1 0x0 DUP3 ADD SLOAD DUP2 MSTORE PUSH1 0x20 ADD PUSH1 0x1 DUP3 ADD PUSH1 0x0 SWAP1 SLOAD SWAP1 PUSH2 0x100 EXP SWAP1 DIV PUSH8 0xFFFFFFFFFFFFFFFF AND PUSH8 0xFFFFFFFFFFFFFFFF AND PUSH8 0xFFFFFFFFFFFFFFFF AND DUP2 MSTORE PUSH1 0x20 ADD PUSH1 0x1 DUP3 ADD PUSH1 0x8 SWAP1 SLOAD SWAP1 PUSH2 0x100 EXP SWAP1 DIV PUSH4 0xFFFFFFFF AND PUSH4 0xFFFFFFFF AND PUSH4 0xFFFFFFFF AND DUP2 MSTORE PUSH1 0x20 ADD PUSH1 0x2 DUP3 ADD SLOAD DUP2 MSTORE PUSH1 0x20 ADD PUSH1 0x3 DUP3 ADD PUSH1 0x0 SWAP1 SLOAD SWAP1 PUSH2 0x100 EXP SWAP1 DIV PUSH1 0xFF AND ISZERO ISZERO ISZERO ISZERO DUP2 MSTORE POP POP SWAP1 POP PUSH1 0x0 DUP2 PUSH1 0x0 ADD MLOAD EQ PUSH2 0x1310 JUMPI PUSH1 0x40 MLOAD PUSH32 0x8C379A000000000000000000000000000000000000000000000000000000000 DUP2 MSTORE PUSH1 0x4 ADD PUSH2 0x1307 SWAP1 PUSH2 0x3DA8 JUMP JUMPDEST PUSH1 0x40 MLOAD DUP1 SWAP2 SUB SWAP1 REVERT JUMPDEST PUSH1 0x5 DUP3 PUSH8 0xFFFFFFFFFFFFFFFF AND LT PUSH2 0x135D JUMPI PUSH1 0x40 MLOAD PUSH32 0x8C379A000000000000000000000000000000000000000000000000000000000 DUP2 MSTORE PUSH1 0x4 ADD PUSH2 0x1354 SWAP1 PUSH2 0x4431 JUMP JUMPDEST PUSH1 0x40 MLOAD DUP1 SWAP2 SUB SWAP1 REVERT JUMPDEST PUSH1 0x8 SLOAD PUSH1 0x1 PUSH2 0x136C SWAP2 SWAP1 PUSH2 0x3EEC JUMP JUMPDEST CALLVALUE LT ISZERO PUSH2 0x13AE JUMPI PUSH1 0x40 MLOAD PUSH32 0x8C379A000000000000000000000000000000000000000000000000000000000 DUP2 MSTORE PUSH1 0x4 ADD PUSH2 0x13A5 SWAP1 PUSH2 0x449D JUMP JUMPDEST PUSH1 0x40 MLOAD DUP1 SWAP2 SUB SWAP1 REVERT JUMPDEST PUSH1 0x9 PUSH1 0x0 DUP5 DUP2 MSTORE PUSH1 0x20 ADD SWAP1 DUP2 MSTORE PUSH1 0x20 ADD PUSH1 0x0 KECCAK256 PUSH1 0x0 DUP4 PUSH8 0xFFFFFFFFFFFFFFFF AND DUP2 MSTORE PUSH1 0x20 ADD SWAP1 DUP2 MSTORE PUSH1 0x20 ADD PUSH1 0x0 KECCAK256 PUSH1 0x0 SWAP1 SLOAD SWAP1 PUSH2 0x100 EXP SWAP1 DIV PUSH1 0xFF AND ISZERO PUSH2 0x142A JUMPI PUSH1 0x40 MLOAD PUSH32 0x8C379A000000000000000000000000000000000000000000000000000000000 DUP2 MSTORE PUSH1 0x4 ADD PUSH2 0x1421 SWAP1 PUSH2 0x4509 JUMP JUMPDEST PUSH1 0x40 MLOAD DUP1 SWAP2 SUB SWAP1 REVERT JUMPDEST PUSH1 0xC8 PUSH1 0x2 PUSH1 0x0 SWAP1 SLOAD SWAP1 PUSH2 0x100 EXP SWAP1 DIV PUSH20 0xFFFFFFFFFFFFFFFFFFFFFFFFFFFFFFFFFFFFFFFF AND PUSH20 0xFFFFFFFFFFFFFFFFFFFFFFFFFFFFFFFFFFFFFFFF AND PUSH4 0x468F25B0 DUP6 PUSH1 0x40 MLOAD DUP3 PUSH4 0xFFFFFFFF AND PUSH1 0xE0 SHL DUP2 MSTORE PUSH1 0x4 ADD PUSH2 0x1487 SWAP2 SWAP1 PUSH2 0x3A05 JUMP JUMPDEST PUSH2 0x100 PUSH1 0x40 MLOAD DUP1 DUP4 SUB DUP2 DUP7 GAS STATICCALL ISZERO DUP1 ISZERO PUSH2 0x14A5 JUMPI RETURNDATASIZE PUSH1 0x0 DUP1 RETURNDATACOPY RETURNDATASIZE PUSH1 0x0 REVERT JUMPDEST POP POP POP POP PUSH1 0x40 MLOAD RETURNDATASIZE PUSH1 0x1F NOT PUSH1 0x1F DUP3 ADD AND DUP3 ADD DUP1 PUSH1 0x40 MSTORE POP DUP2 ADD SWAP1 PUSH2 0x14C9 SWAP2 SWAP1 PUSH2 0x4624 JUMP JUMPDEST PUSH1 0xE0 ADD MLOAD PUSH4 0xFFFFFFFF AND GT PUSH2 0x1513 JUMPI PUSH1 0x40 MLOAD PUSH32 0x8C379A000000000000000000000000000000000000000000000000000000000 DUP2 MSTORE PUSH1 0x4 ADD PUSH2 0x150A SWAP1 PUSH2 0x469E JUMP JUMPDEST PUSH1 0x40 MLOAD DUP1 SWAP2 SUB SWAP1 REVERT JUMPDEST PUSH1 0x2 PUSH1 0x0 SWAP1 SLOAD SWAP1 PUSH2 0x100 EXP SWAP1 DIV PUSH20 0xFFFFFFFFFFFFFFFFFFFFFFFFFFFFFFFFFFFFFFFF AND PUSH20 0xFFFFFFFFFFFFFFFFFFFFFFFFFFFFFFFFFFFFFFFF AND PUSH4 0xE327A6AF CALLER DUP6 PUSH1 0x40 MLOAD DUP4 PUSH4 0xFFFFFFFF AND PUSH1 0xE0 SHL DUP2 MSTORE PUSH1 0x4 ADD PUSH2 0x1570 SWAP3 SWAP2 SWAP1 PUSH2 0x46BE JUMP JUMPDEST PUSH1 0x20 PUSH1 0x40 MLOAD DUP1 DUP4 SUB DUP2 DUP7 GAS STATICCALL ISZERO DUP1 ISZERO PUSH2 0x158D JUMPI RETURNDATASIZE PUSH1 0x0 DUP1 RETURNDATACOPY RETURNDATASIZE PUSH1 0x0 REVERT JUMPDEST POP POP POP POP PUSH1 0x40 MLOAD RETURNDATASIZE PUSH1 0x1F NOT PUSH1 0x1F DUP3 ADD AND DUP3 ADD DUP1 PUSH1 0x40 MSTORE POP DUP2 ADD SWAP1 PUSH2 0x15B1 SWAP2 SWAP1 PUSH2 0x46E7 JUMP JUMPDEST PUSH2 0x15F0 JUMPI PUSH1 0x40 MLOAD PUSH32 0x8C379A000000000000000000000000000000000000000000000000000000000 DUP2 MSTORE PUSH1 0x4 ADD PUSH2 0x15E7 SWAP1 PUSH2 0x4760 JUMP JUMPDEST PUSH1 0x40 MLOAD DUP1 SWAP2 SUB SWAP1 REVERT JUMPDEST PUSH1 0x1 PUSH1 0x9 PUSH1 0x0 DUP6 DUP2 MSTORE PUSH1 0x20 ADD SWAP1 DUP2 MSTORE PUSH1 0x20 ADD PUSH1 0x0 KECCAK256 PUSH1 0x0 DUP5 PUSH8 0xFFFFFFFFFFFFFFFF AND DUP2 MSTORE PUSH1 0x20 ADD SWAP1 DUP2 MSTORE PUSH1 0x20 ADD PUSH1 0x0 KECCAK256 PUSH1 0x0 PUSH2 0x100 EXP DUP2 SLOAD DUP2 PUSH1 0xFF MUL NOT AND SWAP1 DUP4 ISZERO ISZERO MUL OR SWAP1 SSTORE POP PUSH1 0x40 MLOAD DUP1 PUSH1 0xA0 ADD PUSH1 0x40 MSTORE DUP1 PUSH1 0x1 PUSH1 0x0 SWAP1 SLOAD SWAP1 PUSH2 0x100 EXP SWAP1 DIV PUSH20 0xFFFFFFFFFFFFFFFFFFFFFFFFFFFFFFFFFFFFFFFF AND PUSH20 0xFFFFFFFFFFFFFFFFFFFFFFFFFFFFFFFFFFFFFFFF AND PUSH4 0x9BCA039D CALLER PUSH1 0x1 PUSH1 0x0 PUSH1 0x40 MLOAD DUP5 PUSH4 0xFFFFFFFF AND PUSH1 0xE0 SHL DUP2 MSTORE PUSH1 0x4 ADD PUSH2 0x16A3 SWAP4 SWAP3 SWAP2 SWAP1 PUSH2 0x47C5 JUMP JUMPDEST PUSH1 0x20 PUSH1 0x40 MLOAD DUP1 DUP4 SUB DUP2 PUSH1 0x0 DUP8 GAS CALL ISZERO DUP1 ISZERO PUSH2 0x16C2 JUMPI RETURNDATASIZE PUSH1 0x0 DUP1 RETURNDATACOPY RETURNDATASIZE PUSH1 0x0 REVERT JUMPDEST POP POP POP POP PUSH1 0x40 MLOAD RETURNDATASIZE PUSH1 0x1F NOT PUSH1 0x1F DUP3 ADD AND DUP3 ADD DUP1 PUSH1 0x40 MSTORE POP DUP2 ADD SWAP1 PUSH2 0x16E6 SWAP2 SWAP1 PUSH2 0x40AF JUMP JUMPDEST DUP2 MSTORE PUSH1 0x20 ADD DUP4 PUSH8 0xFFFFFFFFFFFFFFFF AND DUP2 MSTORE PUSH1 0x20 ADD PUSH1 0x1 PUSH4 0xFFFFFFFF AND DUP2 MSTORE PUSH1 0x20 ADD TIMESTAMP DUP2 MSTORE PUSH1 0x20 ADD PUSH1 0x1 ISZERO ISZERO DUP2 MSTORE POP PUSH1 0x7 PUSH1 0x0 CALLER PUSH20 0xFFFFFFFFFFFFFFFFFFFFFFFFFFFFFFFFFFFFFFFF AND PUSH20 0xFFFFFFFFFFFFFFFFFFFFFFFFFFFFFFFFFFFFFFFF AND DUP2 MSTORE PUSH1 0x20 ADD SWAP1 DUP2 MSTORE PUSH1 0x20 ADD PUSH1 0x0 KECCAK256 PUSH1 0x0 DUP3 ADD MLOAD DUP2 PUSH1 0x0 ADD SSTORE PUSH1 0x20 DUP3 ADD MLOAD DUP2 PUSH1 0x1 ADD PUSH1 0x0 PUSH2 0x100 EXP DUP2 SLOAD DUP2 PUSH8 0xFFFFFFFFFFFFFFFF MUL NOT AND SWAP1 DUP4 PUSH8 0xFFFFFFFFFFFFFFFF AND MUL OR SWAP1 SSTORE POP PUSH1 0x40 DUP3 ADD MLOAD DUP2 PUSH1 0x1 ADD PUSH1 0x8 PUSH2 0x100 EXP DUP2 SLOAD DUP2 PUSH4 0xFFFFFFFF MUL NOT AND SWAP1 DUP4 PUSH4 0xFFFFFFFF AND MUL OR SWAP1 SSTORE POP PUSH1 0x60 DUP3 ADD MLOAD DUP2 PUSH1 0x2 ADD SSTORE PUSH1 0x80 DUP3 ADD MLOAD DUP2 PUSH1 0x3 ADD PUSH1 0x0 PUSH2 0x100 EXP DUP2 SLOAD DUP2 PUSH1 0xFF MUL NOT AND SWAP1 DUP4 ISZERO ISZERO MUL OR SWAP1 SSTORE POP SWAP1 POP POP CALLER PUSH20 0xFFFFFFFFFFFFFFFFFFFFFFFFFFFFFFFFFFFFFFFF AND PUSH32 0x58577BF17AE4D0CC9D3B31873621B2A79CE93516E49B689B734695E54DF0D9FD PUSH1 0x7 PUSH1 0x0 CALLER PUSH20 0xFFFFFFFFFFFFFFFFFFFFFFFFFFFFFFFFFFFFFFFF AND PUSH20 0xFFFFFFFFFFFFFFFFFFFFFFFFFFFFFFFFFFFFFFFF AND DUP2 MSTORE PUSH1 0x20 ADD SWAP1 DUP2 MSTORE PUSH1 0x20 ADD PUSH1 0x0 KECCAK256 PUSH1 0x40 MLOAD PUSH2 0x1865 SWAP2 SWAP1 PUSH2 0x4260 JUMP JUMPDEST PUSH1 0x40 MLOAD DUP1 SWAP2 SUB SWAP1 LOG2 POP POP POP JUMP JUMPDEST PUSH1 0x0 PUSH1 0x7 PUSH1 0x0 CALLER PUSH20 0xFFFFFFFFFFFFFFFFFFFFFFFFFFFFFFFFFFFFFFFF AND PUSH20 0xFFFFFFFFFFFFFFFFFFFFFFFFFFFFFFFFFFFFFFFF AND DUP2 MSTORE PUSH1 0x20 ADD SWAP1 DUP2 MSTORE PUSH1 0x20 ADD PUSH1 0x0 KECCAK256 PUSH1 0x40 MLOAD DUP1 PUSH1 0xA0 ADD PUSH1 0x40 MSTORE SWAP1 DUP2 PUSH1 0x0 DUP3 ADD SLOAD DUP2 MSTORE PUSH1 0x20 ADD PUSH1 0x1 DUP3 ADD PUSH1 0x0 SWAP1 SLOAD SWAP1 PUSH2 0x100 EXP SWAP1 DIV PUSH8 0xFFFFFFFFFFFFFFFF AND PUSH8 0xFFFFFFFFFFFFFFFF AND PUSH8 0xFFFFFFFFFFFFFFFF AND DUP2 MSTORE PUSH1 0x20 ADD PUSH1 0x1 DUP3 ADD PUSH1 0x8 SWAP1 SLOAD SWAP1 PUSH2 0x100 EXP SWAP1 DIV PUSH4 0xFFFFFFFF AND PUSH4 0xFFFFFFFF AND PUSH4 0xFFFFFFFF AND DUP2 MSTORE PUSH1 0x20 ADD PUSH1 0x2 DUP3 ADD SLOAD DUP2 MSTORE PUSH1 0x20 ADD PUSH1 0x3 DUP3 ADD PUSH1 0x0 SWAP1 SLOAD SWAP1 PUSH2 0x100 EXP SWAP1 DIV PUSH1 0xFF AND ISZERO ISZERO ISZERO ISZERO DUP2 MSTORE POP POP SWAP1 POP PUSH1 0x0 PUSH1 0x1 PUSH1 0x0 SWAP1 SLOAD SWAP1 PUSH2 0x100 EXP SWAP1 DIV PUSH20 0xFFFFFFFFFFFFFFFFFFFFFFFFFFFFFFFFFFFFFFFF AND PUSH20 0xFFFFFFFFFFFFFFFFFFFFFFFFFFFFFFFFFFFFFFFF AND PUSH4 0xD8A4676F DUP4 PUSH1 0x0 ADD MLOAD PUSH1 0x40 MLOAD DUP3 PUSH4 0xFFFFFFFF AND PUSH1 0xE0 SHL DUP2 MSTORE PUSH1 0x4 ADD PUSH2 0x19A8 SWAP2 SWAP1 PUSH2 0x3A05 JUMP JUMPDEST PUSH1 0x0 PUSH1 0x40 MLOAD DUP1 DUP4 SUB DUP2 DUP7 GAS STATICCALL ISZERO DUP1 ISZERO PUSH2 0x19C5 JUMPI RETURNDATASIZE PUSH1 0x0 DUP1 RETURNDATACOPY RETURNDATASIZE PUSH1 0x0 REVERT JUMPDEST POP POP POP POP PUSH1 0x40 MLOAD RETURNDATASIZE PUSH1 0x0 DUP3 RETURNDATACOPY RETURNDATASIZE PUSH1 0x1F NOT PUSH1 0x1F DUP3 ADD AND DUP3 ADD DUP1 PUSH1 0x40 MSTORE POP DUP2 ADD SWAP1 PUSH2 0x19EE SWAP2 SWAP1 PUSH2 0x3BA2 JUMP JUMPDEST POP SWAP1 POP PUSH1 0x0 DUP3 PUSH1 0x0 ADD MLOAD GT PUSH2 0x1A38 JUMPI PUSH1 0x40 MLOAD PUSH32 0x8C379A000000000000000000000000000000000000000000000000000000000 DUP2 MSTORE PUSH1 0x4 ADD PUSH2 0x1A2F SWAP1 PUSH2 0x486E JUMP JUMPDEST PUSH1 0x40 MLOAD DUP1 SWAP2 SUB SWAP1 REVERT JUMPDEST PUSH2 0xE10 DUP3 PUSH1 0x60 ADD MLOAD TIMESTAMP PUSH2 0x1A4B SWAP2 SWAP1 PUSH2 0x488E JUMP JUMPDEST GT PUSH2 0x1A8B JUMPI PUSH1 0x40 MLOAD PUSH32 0x8C379A000000000000000000000000000000000000000000000000000000000 DUP2 MSTORE PUSH1 0x4 ADD PUSH2 0x1A82 SWAP1 PUSH2 0x495A JUMP JUMPDEST PUSH1 0x40 MLOAD DUP1 SWAP2 SUB SWAP1 REVERT JUMPDEST DUP1 ISZERO PUSH2 0x1ACC JUMPI PUSH1 0x40 MLOAD PUSH32 0x8C379A000000000000000000000000000000000000000000000000000000000 DUP2 MSTORE PUSH1 0x4 ADD PUSH2 0x1AC3 SWAP1 PUSH2 0x49EC JUMP JUMPDEST PUSH1 0x40 MLOAD DUP1 SWAP2 SUB SWAP1 REVERT JUMPDEST PUSH1 0x40 MLOAD DUP1 PUSH1 0xA0 ADD PUSH1 0x40 MSTORE DUP1 PUSH1 0x0 DUP2 MSTORE PUSH1 0x20 ADD PUSH1 0x0 PUSH8 0xFFFFFFFFFFFFFFFF AND DUP2 MSTORE PUSH1 0x20 ADD PUSH1 0x0 PUSH4 0xFFFFFFFF AND DUP2 MSTORE PUSH1 0x20 ADD TIMESTAMP DUP2 MSTORE PUSH1 0x20 ADD PUSH1 0x0 ISZERO ISZERO DUP2 MSTORE POP PUSH1 0x7 PUSH1 0x0 CALLER PUSH20 0xFFFFFFFFFFFFFFFFFFFFFFFFFFFFFFFFFFFFFFFF AND PUSH20 0xFFFFFFFFFFFFFFFFFFFFFFFFFFFFFFFFFFFFFFFF AND DUP2 MSTORE PUSH1 0x20 ADD SWAP1 DUP2 MSTORE PUSH1 0x20 ADD PUSH1 0x0 KECCAK256 PUSH1 0x0 DUP3 ADD MLOAD DUP2 PUSH1 0x0 ADD SSTORE PUSH1 0x20 DUP3 ADD MLOAD DUP2 PUSH1 0x1 ADD PUSH1 0x0 PUSH2 0x100 EXP DUP2 SLOAD DUP2 PUSH8 0xFFFFFFFFFFFFFFFF MUL NOT AND SWAP1 DUP4 PUSH8 0xFFFFFFFFFFFFFFFF AND MUL OR SWAP1 SSTORE POP PUSH1 0x40 DUP3 ADD MLOAD DUP2 PUSH1 0x1 ADD PUSH1 0x8 PUSH2 0x100 EXP DUP2 SLOAD DUP2 PUSH4 0xFFFFFFFF MUL NOT AND SWAP1 DUP4 PUSH4 0xFFFFFFFF AND MUL OR SWAP1 SSTORE POP PUSH1 0x60 DUP3 ADD MLOAD DUP2 PUSH1 0x2 ADD SSTORE PUSH1 0x80 DUP3 ADD MLOAD DUP2 PUSH1 0x3 ADD PUSH1 0x0 PUSH2 0x100 EXP DUP2 SLOAD DUP2 PUSH1 0xFF MUL NOT AND SWAP1 DUP4 ISZERO ISZERO MUL OR SWAP1 SSTORE POP SWAP1 POP POP POP POP JUMP JUMPDEST PUSH1 0x8 SLOAD DUP2 JUMP JUMPDEST PUSH2 0x1BE7 PUSH2 0x2269 JUMP JUMPDEST PUSH1 0x0 PUSH1 0x7 PUSH1 0x0 CALLER PUSH20 0xFFFFFFFFFFFFFFFFFFFFFFFFFFFFFFFFFFFFFFFF AND PUSH20 0xFFFFFFFFFFFFFFFFFFFFFFFFFFFFFFFFFFFFFFFF AND DUP2 MSTORE PUSH1 0x20 ADD SWAP1 DUP2 MSTORE PUSH1 0x20 ADD PUSH1 0x0 KECCAK256 PUSH1 0x40 MLOAD DUP1 PUSH1 0xA0 ADD PUSH1 0x40 MSTORE SWAP1 DUP2 PUSH1 0x0 DUP3 ADD SLOAD DUP2 MSTORE PUSH1 0x20 ADD PUSH1 0x1 DUP3 ADD PUSH1 0x0 SWAP1 SLOAD SWAP1 PUSH2 0x100 EXP SWAP1 DIV PUSH8 0xFFFFFFFFFFFFFFFF AND PUSH8 0xFFFFFFFFFFFFFFFF AND PUSH8 0xFFFFFFFFFFFFFFFF AND DUP2 MSTORE PUSH1 0x20 ADD PUSH1 0x1 DUP3 ADD PUSH1 0x8 SWAP1 SLOAD SWAP1 PUSH2 0x100 EXP SWAP1 DIV PUSH4 0xFFFFFFFF AND PUSH4 0xFFFFFFFF AND PUSH4 0xFFFFFFFF AND DUP2 MSTORE PUSH1 0x20 ADD PUSH1 0x2 DUP3 ADD SLOAD DUP2 MSTORE PUSH1 0x20 ADD PUSH1 0x3 DUP3 ADD PUSH1 0x0 SWAP1 SLOAD SWAP1 PUSH2 0x100 EXP SWAP1 DIV PUSH1 0xFF AND ISZERO ISZERO ISZERO ISZERO DUP2 MSTORE POP POP SWAP1 POP PUSH1 0x0 DUP2 PUSH1 0x0 ADD MLOAD EQ PUSH2 0x1D03 JUMPI PUSH1 0x40 MLOAD PUSH32 0x8C379A000000000000000000000000000000000000000000000000000000000 DUP2 MSTORE PUSH1 0x4 ADD PUSH2 0x1CFA SWAP1 PUSH2 0x3DA8 JUMP JUMPDEST PUSH1 0x40 MLOAD DUP1 SWAP2 SUB SWAP1 REVERT JUMPDEST PUSH1 0x5 DUP3 PUSH8 0xFFFFFFFFFFFFFFFF AND LT PUSH2 0x1D50 JUMPI PUSH1 0x40 MLOAD PUSH32 0x8C379A000000000000000000000000000000000000000000000000000000000 DUP2 MSTORE PUSH1 0x4 ADD PUSH2 0x1D47 SWAP1 PUSH2 0x3E3A JUMP JUMPDEST PUSH1 0x40 MLOAD DUP1 SWAP2 SUB SWAP1 REVERT JUMPDEST PUSH1 0x8 SLOAD PUSH1 0x1 PUSH2 0x1D5F SWAP2 SWAP1 PUSH2 0x3EEC JUMP JUMPDEST CALLVALUE LT ISZERO PUSH2 0x1DA1 JUMPI PUSH1 0x40 MLOAD PUSH32 0x8C379A000000000000000000000000000000000000000000000000000000000 DUP2 MSTORE PUSH1 0x4 ADD PUSH2 0x1D98 SWAP1 PUSH2 0x3FC6 JUMP JUMPDEST PUSH1 0x40 MLOAD DUP1 SWAP2 SUB SWAP1 REVERT JUMPDEST PUSH1 0x0 PUSH2 0x1DB8 DUP4 PUSH8 0xFFFFFFFFFFFFFFFF AND PUSH1 0x1 PUSH2 0x22B3 JUMP JUMPDEST SWAP1 POP DUP1 PUSH2 0x1DFA JUMPI PUSH1 0x40 MLOAD PUSH32 0x8C379A000000000000000000000000000000000000000000000000000000000 DUP2 MSTORE PUSH1 0x4 ADD PUSH2 0x1DF1 SWAP1 PUSH2 0x4058 JUMP JUMPDEST PUSH1 0x40 MLOAD DUP1 SWAP2 SUB SWAP1 REVERT JUMPDEST PUSH1 0x40 MLOAD DUP1 PUSH1 0xA0 ADD PUSH1 0x40 MSTORE DUP1 PUSH1 0x1 PUSH1 0x0 SWAP1 SLOAD SWAP1 PUSH2 0x100 EXP SWAP1 DIV PUSH20 0xFFFFFFFFFFFFFFFFFFFFFFFFFFFFFFFFFFFFFFFF AND PUSH20 0xFFFFFFFFFFFFFFFFFFFFFFFFFFFFFFFFFFFFFFFF AND PUSH4 0x9BCA039D CALLER PUSH1 0x1 DUP1 PUSH1 0x40 MLOAD DUP5 PUSH4 0xFFFFFFFF AND PUSH1 0xE0 SHL DUP2 MSTORE PUSH1 0x4 ADD PUSH2 0x1E65 SWAP4 SWAP3 SWAP2 SWAP1 PUSH2 0x47C5 JUMP JUMPDEST PUSH1 0x20 PUSH1 0x40 MLOAD DUP1 DUP4 SUB DUP2 PUSH1 0x0 DUP8 GAS CALL ISZERO DUP1 ISZERO PUSH2 0x1E84 JUMPI RETURNDATASIZE PUSH1 0x0 DUP1 RETURNDATACOPY RETURNDATASIZE PUSH1 0x0 REVERT JUMPDEST POP POP POP POP PUSH1 0x40 MLOAD RETURNDATASIZE PUSH1 0x1F NOT PUSH1 0x1F DUP3 ADD AND DUP3 ADD DUP1 PUSH1 0x40 MSTORE POP DUP2 ADD SWAP1 PUSH2 0x1EA8 SWAP2 SWAP1 PUSH2 0x40AF JUMP JUMPDEST DUP2 MSTORE PUSH1 0x20 ADD DUP5 PUSH8 0xFFFFFFFFFFFFFFFF AND DUP2 MSTORE PUSH1 0x20 ADD PUSH1 0x1 PUSH4 0xFFFFFFFF AND DUP2 MSTORE PUSH1 0x20 ADD TIMESTAMP DUP2 MSTORE PUSH1 0x20 ADD PUSH1 0x0 ISZERO ISZERO DUP2 MSTORE POP PUSH1 0x7 PUSH1 0x0 CALLER PUSH20 0xFFFFFFFFFFFFFFFFFFFFFFFFFFFFFFFFFFFFFFFF AND PUSH20 0xFFFFFFFFFFFFFFFFFFFFFFFFFFFFFFFFFFFFFFFF AND DUP2 MSTORE PUSH1 0x20 ADD SWAP1 DUP2 MSTORE PUSH1 0x20 ADD PUSH1 0x0 KECCAK256 PUSH1 0x0 DUP3 ADD MLOAD DUP2 PUSH1 0x0 ADD SSTORE PUSH1 0x20 DUP3 ADD MLOAD DUP2 PUSH1 0x1 ADD PUSH1 0x0 PUSH2 0x100 EXP DUP2 SLOAD DUP2 PUSH8 0xFFFFFFFFFFFFFFFF MUL NOT AND SWAP1 DUP4 PUSH8 0xFFFFFFFFFFFFFFFF AND MUL OR SWAP1 SSTORE POP PUSH1 0x40 DUP3 ADD MLOAD DUP2 PUSH1 0x1 ADD PUSH1 0x8 PUSH2 0x100 EXP DUP2 SLOAD DUP2 PUSH4 0xFFFFFFFF MUL NOT AND SWAP1 DUP4 PUSH4 0xFFFFFFFF AND MUL OR SWAP1 SSTORE POP PUSH1 0x60 DUP3 ADD MLOAD DUP2 PUSH1 0x2 ADD SSTORE PUSH1 0x80 DUP3 ADD MLOAD DUP2 PUSH1 0x3 ADD PUSH1 0x0 PUSH2 0x100 EXP DUP2 SLOAD DUP2 PUSH1 0xFF MUL NOT AND SWAP1 DUP4 ISZERO ISZERO MUL OR SWAP1 SSTORE POP SWAP1 POP POP CALLER PUSH20 0xFFFFFFFFFFFFFFFFFFFFFFFFFFFFFFFFFFFFFFFF AND PUSH32 0x58577BF17AE4D0CC9D3B31873621B2A79CE93516E49B689B734695E54DF0D9FD PUSH1 0x7 PUSH1 0x0 CALLER PUSH20 0xFFFFFFFFFFFFFFFFFFFFFFFFFFFFFFFFFFFFFFFF AND PUSH20 0xFFFFFFFFFFFFFFFFFFFFFFFFFFFFFFFFFFFFFFFF AND DUP2 MSTORE PUSH1 0x20 ADD SWAP1 DUP2 MSTORE PUSH1 0x20 ADD PUSH1 0x0 KECCAK256 PUSH1 0x40 MLOAD PUSH2 0x2027 SWAP2 SWAP1 PUSH2 0x4260 JUMP JUMPDEST PUSH1 0x40 MLOAD DUP1 SWAP2 SUB SWAP1 LOG2 POP POP POP JUMP JUMPDEST PUSH2 0x203C PUSH2 0x24ED JUMP JUMPDEST PUSH4 0x3B9ACA00 DUP2 PUSH2 0x204C SWAP2 SWAP1 PUSH2 0x3EEC JUMP JUMPDEST PUSH1 0x8 DUP2 SWAP1 SSTORE POP POP JUMP JUMPDEST PUSH2 0x205D PUSH2 0x24ED JUMP JUMPDEST PUSH1 0x0 PUSH20 0xFFFFFFFFFFFFFFFFFFFFFFFFFFFFFFFFFFFFFFFF AND DUP2 PUSH20 0xFFFFFFFFFFFFFFFFFFFFFFFFFFFFFFFFFFFFFFFF AND SUB PUSH2 0x20CC JUMPI PUSH1 0x40 MLOAD PUSH32 0x8C379A000000000000000000000000000000000000000000000000000000000 DUP2 MSTORE PUSH1 0x4 ADD PUSH2 0x20C3 SWAP1 PUSH2 0x4A7E JUMP JUMPDEST PUSH1 0x40 MLOAD DUP1 SWAP2 SUB SWAP1 REVERT JUMPDEST PUSH2 0x20D5 DUP2 PUSH2 0x256B JUMP JUMPDEST POP JUMP JUMPDEST PUSH1 0x4 DUP3 PUSH8 0xFFFFFFFFFFFFFFFF AND SUB PUSH2 0x21AB JUMPI PUSH1 0x0 PUSH1 0x1 PUSH1 0x3 DUP6 PUSH2 0x20FB SWAP2 SWAP1 PUSH2 0x4ACD JUMP JUMPDEST PUSH2 0x2105 SWAP2 SWAP1 PUSH2 0x4AFE JUMP JUMPDEST SWAP1 POP PUSH1 0x3 PUSH1 0x0 SWAP1 SLOAD SWAP1 PUSH2 0x100 EXP SWAP1 DIV PUSH20 0xFFFFFFFFFFFFFFFFFFFFFFFFFFFFFFFFFFFFFFFF AND PUSH20 0xFFFFFFFFFFFFFFFFFFFFFFFFFFFFFFFFFFFFFFFF AND PUSH4 0x40C10F19 DUP7 PUSH8 0xDE0B6B3A7640000 DUP5 PUSH2 0x215A SWAP2 SWAP1 PUSH2 0x3EEC JUMP JUMPDEST PUSH1 0x40 MLOAD DUP4 PUSH4 0xFFFFFFFF AND PUSH1 0xE0 SHL DUP2 MSTORE PUSH1 0x4 ADD PUSH2 0x2177 SWAP3 SWAP2 SWAP1 PUSH2 0x46BE JUMP JUMPDEST PUSH1 0x0 PUSH1 0x40 MLOAD DUP1 DUP4 SUB DUP2 PUSH1 0x0 DUP8 DUP1 EXTCODESIZE ISZERO DUP1 ISZERO PUSH2 0x2191 JUMPI PUSH1 0x0 DUP1 REVERT JUMPDEST POP GAS CALL ISZERO DUP1 ISZERO PUSH2 0x21A5 JUMPI RETURNDATASIZE PUSH1 0x0 DUP1 RETURNDATACOPY RETURNDATASIZE PUSH1 0x0 REVERT JUMPDEST POP POP POP POP POP JUMPDEST PUSH1 0x4 DUP3 PUSH8 0xFFFFFFFFFFFFFFFF AND EQ PUSH2 0x2263 JUMPI PUSH1 0x0 DUP1 PUSH2 0x21CB DUP6 DUP6 DUP6 PUSH2 0x2825 JUMP JUMPDEST SWAP2 POP SWAP2 POP PUSH1 0x5 PUSH1 0x0 SWAP1 SLOAD SWAP1 PUSH2 0x100 EXP SWAP1 DIV PUSH20 0xFFFFFFFFFFFFFFFFFFFFFFFFFFFFFFFFFFFFFFFF AND PUSH20 0xFFFFFFFFFFFFFFFFFFFFFFFFFFFFFFFFFFFFFFFF AND PUSH4 0x506E90AA DUP8 DUP5 DUP5 PUSH1 0x40 MLOAD DUP5 PUSH4 0xFFFFFFFF AND PUSH1 0xE0 SHL DUP2 MSTORE PUSH1 0x4 ADD PUSH2 0x222E SWAP4 SWAP3 SWAP2 SWAP1 PUSH2 0x4C29 JUMP JUMPDEST PUSH1 0x0 PUSH1 0x40 MLOAD DUP1 DUP4 SUB DUP2 PUSH1 0x0 DUP8 DUP1 EXTCODESIZE ISZERO DUP1 ISZERO PUSH2 0x2248 JUMPI PUSH1 0x0 DUP1 REVERT JUMPDEST POP GAS CALL ISZERO DUP1 ISZERO PUSH2 0x225C JUMPI RETURNDATASIZE PUSH1 0x0 DUP1 RETURNDATACOPY RETURNDATASIZE PUSH1 0x0 REVERT JUMPDEST POP POP POP POP POP POP JUMPDEST POP POP POP POP JUMP JUMPDEST PUSH2 0x2271 PUSH2 0xDB7 JUMP JUMPDEST ISZERO PUSH2 0x22B1 JUMPI PUSH1 0x40 MLOAD PUSH32 0x8C379A000000000000000000000000000000000000000000000000000000000 DUP2 MSTORE PUSH1 0x4 ADD PUSH2 0x22A8 SWAP1 PUSH2 0x4CAD JUMP JUMPDEST PUSH1 0x40 MLOAD DUP1 SWAP2 SUB SWAP1 REVERT JUMPDEST JUMP JUMPDEST PUSH1 0x0 PUSH1 0x1 SWAP1 POP PUSH1 0x0 PUSH2 0x22C4 DUP5 PUSH2 0x262F JUMP JUMPDEST SWAP1 POP DUP3 DUP2 PUSH1 0x60 ADD MLOAD PUSH2 0x22D6 SWAP2 SWAP1 PUSH2 0x3EEC JUMP JUMPDEST DUP2 PUSH1 0x60 ADD DUP2 DUP2 MSTORE POP POP DUP3 DUP2 PUSH1 0x80 ADD MLOAD PUSH2 0x22EF SWAP2 SWAP1 PUSH2 0x3EEC JUMP JUMPDEST DUP2 PUSH1 0x80 ADD DUP2 DUP2 MSTORE POP POP DUP3 DUP2 PUSH1 0xA0 ADD MLOAD PUSH2 0x2308 SWAP2 SWAP1 PUSH2 0x3EEC JUMP JUMPDEST DUP2 PUSH1 0xA0 ADD DUP2 DUP2 MSTORE POP POP PUSH1 0x0 DUP1 PUSH2 0x2321 DUP4 PUSH1 0x0 ADD MLOAD PUSH2 0x26A1 JUMP JUMPDEST SWAP2 POP SWAP2 POP PUSH1 0x0 DUP1 PUSH2 0x2335 DUP6 PUSH1 0x20 ADD MLOAD PUSH2 0x26A1 JUMP JUMPDEST SWAP2 POP SWAP2 POP PUSH1 0x0 DUP1 PUSH2 0x2349 DUP8 PUSH1 0x40 ADD MLOAD PUSH2 0x2763 JUMP JUMPDEST SWAP2 POP SWAP2 POP DUP7 PUSH1 0x60 ADD MLOAD DUP7 LT ISZERO PUSH2 0x235E JUMPI PUSH1 0x0 SWAP8 POP JUMPDEST DUP7 PUSH1 0x80 ADD MLOAD DUP5 LT ISZERO PUSH2 0x236F JUMPI PUSH1 0x0 SWAP8 POP JUMPDEST DUP7 PUSH1 0xA0 ADD MLOAD DUP3 LT ISZERO PUSH2 0x2380 JUMPI PUSH1 0x0 SWAP8 POP JUMPDEST PUSH1 0x1 ISZERO ISZERO DUP9 ISZERO ISZERO SUB PUSH2 0x24E0 JUMPI DUP5 PUSH20 0xFFFFFFFFFFFFFFFFFFFFFFFFFFFFFFFFFFFFFFFF AND PUSH4 0x79CC6790 CALLER DUP10 PUSH1 0x60 ADD MLOAD PUSH1 0x40 MLOAD DUP4 PUSH4 0xFFFFFFFF AND PUSH1 0xE0 SHL DUP2 MSTORE PUSH1 0x4 ADD PUSH2 0x23CB SWAP3 SWAP2 SWAP1 PUSH2 0x46BE JUMP JUMPDEST PUSH1 0x0 PUSH1 0x40 MLOAD DUP1 DUP4 SUB DUP2 PUSH1 0x0 DUP8 DUP1 EXTCODESIZE ISZERO DUP1 ISZERO PUSH2 0x23E5 JUMPI PUSH1 0x0 DUP1 REVERT JUMPDEST POP GAS CALL ISZERO DUP1 ISZERO PUSH2 0x23F9 JUMPI RETURNDATASIZE PUSH1 0x0 DUP1 RETURNDATACOPY RETURNDATASIZE PUSH1 0x0 REVERT JUMPDEST POP POP POP POP DUP3 PUSH20 0xFFFFFFFFFFFFFFFFFFFFFFFFFFFFFFFFFFFFFFFF AND PUSH4 0x79CC6790 CALLER DUP10 PUSH1 0x80 ADD MLOAD PUSH1 0x40 MLOAD DUP4 PUSH4 0xFFFFFFFF AND PUSH1 0xE0 SHL DUP2 MSTORE PUSH1 0x4 ADD PUSH2 0x243C SWAP3 SWAP2 SWAP1 PUSH2 0x46BE JUMP JUMPDEST PUSH1 0x0 PUSH1 0x40 MLOAD DUP1 DUP4 SUB DUP2 PUSH1 0x0 DUP8 DUP1 EXTCODESIZE ISZERO DUP1 ISZERO PUSH2 0x2456 JUMPI PUSH1 0x0 DUP1 REVERT JUMPDEST POP GAS CALL ISZERO DUP1 ISZERO PUSH2 0x246A JUMPI RETURNDATASIZE PUSH1 0x0 DUP1 RETURNDATACOPY RETURNDATASIZE PUSH1 0x0 REVERT JUMPDEST POP POP POP POP DUP1 PUSH20 0xFFFFFFFFFFFFFFFFFFFFFFFFFFFFFFFFFFFFFFFF AND PUSH4 0x79CC6790 CALLER DUP10 PUSH1 0xA0 ADD MLOAD PUSH1 0x40 MLOAD DUP4 PUSH4 0xFFFFFFFF AND PUSH1 0xE0 SHL DUP2 MSTORE PUSH1 0x4 ADD PUSH2 0x24AD SWAP3 SWAP2 SWAP1 PUSH2 0x46BE JUMP JUMPDEST PUSH1 0x0 PUSH1 0x40 MLOAD DUP1 DUP4 SUB DUP2 PUSH1 0x0 DUP8 DUP1 EXTCODESIZE ISZERO DUP1 ISZERO PUSH2 0x24C7 JUMPI PUSH1 0x0 DUP1 REVERT JUMPDEST POP GAS CALL ISZERO DUP1 ISZERO PUSH2 0x24DB JUMPI RETURNDATASIZE PUSH1 0x0 DUP1 RETURNDATACOPY RETURNDATASIZE PUSH1 0x0 REVERT JUMPDEST POP POP POP POP JUMPDEST POP POP POP POP POP POP POP SWAP3 SWAP2 POP POP JUMP JUMPDEST PUSH2 0x24F5 PUSH2 0x2A4B JUMP JUMPDEST PUSH20 0xFFFFFFFFFFFFFFFFFFFFFFFFFFFFFFFFFFFFFFFF AND PUSH2 0x2513 PUSH2 0xECA JUMP JUMPDEST PUSH20 0xFFFFFFFFFFFFFFFFFFFFFFFFFFFFFFFFFFFFFFFF AND EQ PUSH2 0x2569 JUMPI PUSH1 0x40 MLOAD PUSH32 0x8C379A000000000000000000000000000000000000000000000000000000000 DUP2 MSTORE PUSH1 0x4 ADD PUSH2 0x2560 SWAP1 PUSH2 0x4D19 JUMP JUMPDEST PUSH1 0x40 MLOAD DUP1 SWAP2 SUB SWAP1 REVERT JUMPDEST JUMP JUMPDEST PUSH1 0x0 DUP1 PUSH1 0x0 SWAP1 SLOAD SWAP1 PUSH2 0x100 EXP SWAP1 DIV PUSH20 0xFFFFFFFFFFFFFFFFFFFFFFFFFFFFFFFFFFFFFFFF AND SWAP1 POP DUP2 PUSH1 0x0 DUP1 PUSH2 0x100 EXP DUP2 SLOAD DUP2 PUSH20 0xFFFFFFFFFFFFFFFFFFFFFFFFFFFFFFFFFFFFFFFF MUL NOT AND SWAP1 DUP4 PUSH20 0xFFFFFFFFFFFFFFFFFFFFFFFFFFFFFFFFFFFFFFFF AND MUL OR SWAP1 SSTORE POP DUP2 PUSH20 0xFFFFFFFFFFFFFFFFFFFFFFFFFFFFFFFFFFFFFFFF AND DUP2 PUSH20 0xFFFFFFFFFFFFFFFFFFFFFFFFFFFFFFFFFFFFFFFF AND PUSH32 0x8BE0079C531659141344CD1FD0A4F28419497F9722A3DAAFE3B4186F6B6457E0 PUSH1 0x40 MLOAD PUSH1 0x40 MLOAD DUP1 SWAP2 SUB SWAP1 LOG3 POP POP JUMP JUMPDEST PUSH2 0x2637 PUSH2 0x33CB JUMP JUMPDEST PUSH1 0x0 DUP1 PUSH2 0x2643 DUP5 PUSH2 0x2A53 JUMP JUMPDEST SWAP2 POP SWAP2 POP PUSH1 0x0 DUP1 PUSH2 0x2653 DUP7 PUSH2 0x2AD3 JUMP JUMPDEST SWAP2 POP SWAP2 POP PUSH1 0x0 DUP1 PUSH2 0x2663 DUP9 PUSH2 0x2B53 JUMP JUMPDEST SWAP2 POP SWAP2 POP PUSH1 0x40 MLOAD DUP1 PUSH1 0xC0 ADD PUSH1 0x40 MSTORE DUP1 DUP8 DUP2 MSTORE PUSH1 0x20 ADD DUP6 DUP2 MSTORE PUSH1 0x20 ADD DUP4 DUP2 MSTORE PUSH1 0x20 ADD DUP7 DUP2 MSTORE PUSH1 0x20 ADD DUP5 DUP2 MSTORE PUSH1 0x20 ADD DUP3 DUP2 MSTORE POP SWAP7 POP POP POP POP POP POP POP SWAP2 SWAP1 POP JUMP JUMPDEST PUSH1 0x0 DUP1 PUSH1 0x0 PUSH1 0xA DUP5 PUSH1 0x4 DUP2 LT PUSH2 0x26BA JUMPI PUSH2 0x26B9 PUSH2 0x3C90 JUMP JUMPDEST JUMPDEST ADD PUSH1 0x0 SWAP1 SLOAD SWAP1 PUSH2 0x100 EXP SWAP1 DIV PUSH20 0xFFFFFFFFFFFFFFFFFFFFFFFFFFFFFFFFFFFFFFFF AND SWAP1 POP DUP1 SWAP2 POP DUP2 PUSH20 0xFFFFFFFFFFFFFFFFFFFFFFFFFFFFFFFFFFFFFFFF AND PUSH4 0x70A08231 CALLER PUSH1 0x40 MLOAD DUP3 PUSH4 0xFFFFFFFF AND PUSH1 0xE0 SHL DUP2 MSTORE PUSH1 0x4 ADD PUSH2 0x271A SWAP2 SWAP1 PUSH2 0x37F5 JUMP JUMPDEST PUSH1 0x20 PUSH1 0x40 MLOAD DUP1 DUP4 SUB DUP2 DUP7 GAS STATICCALL ISZERO DUP1 ISZERO PUSH2 0x2737 JUMPI RETURNDATASIZE PUSH1 0x0 DUP1 RETURNDATACOPY RETURNDATASIZE PUSH1 0x0 REVERT JUMPDEST POP POP POP POP PUSH1 0x40 MLOAD RETURNDATASIZE PUSH1 0x1F NOT PUSH1 0x1F DUP3 ADD AND DUP3 ADD DUP1 PUSH1 0x40 MSTORE POP DUP2 ADD SWAP1 PUSH2 0x275B SWAP2 SWAP1 PUSH2 0x40AF JUMP JUMPDEST SWAP3 POP POP SWAP2 POP SWAP2 JUMP JUMPDEST PUSH1 0x0 DUP1 PUSH1 0x0 PUSH1 0xE DUP5 PUSH1 0x4 DUP2 LT PUSH2 0x277C JUMPI PUSH2 0x277B PUSH2 0x3C90 JUMP JUMPDEST JUMPDEST ADD PUSH1 0x0 SWAP1 SLOAD SWAP1 PUSH2 0x100 EXP SWAP1 DIV PUSH20 0xFFFFFFFFFFFFFFFFFFFFFFFFFFFFFFFFFFFFFFFF AND SWAP1 POP DUP1 SWAP2 POP DUP2 PUSH20 0xFFFFFFFFFFFFFFFFFFFFFFFFFFFFFFFFFFFFFFFF AND PUSH4 0x70A08231 CALLER PUSH1 0x40 MLOAD DUP3 PUSH4 0xFFFFFFFF AND PUSH1 0xE0 SHL DUP2 MSTORE PUSH1 0x4 ADD PUSH2 0x27DC SWAP2 SWAP1 PUSH2 0x37F5 JUMP JUMPDEST PUSH1 0x20 PUSH1 0x40 MLOAD DUP1 DUP4 SUB DUP2 DUP7 GAS STATICCALL ISZERO DUP1 ISZERO PUSH2 0x27F9 JUMPI RETURNDATASIZE PUSH1 0x0 DUP1 RETURNDATACOPY RETURNDATASIZE PUSH1 0x0 REVERT JUMPDEST POP POP POP POP PUSH1 0x40 MLOAD RETURNDATASIZE PUSH1 0x1F NOT PUSH1 0x1F DUP3 ADD AND DUP3 ADD DUP1 PUSH1 0x40 MSTORE POP DUP2 ADD SWAP1 PUSH2 0x281D SWAP2 SWAP1 PUSH2 0x40AF JUMP JUMPDEST SWAP3 POP POP SWAP2 POP SWAP2 JUMP JUMPDEST PUSH2 0x282D PUSH2 0x3401 JUMP JUMPDEST PUSH2 0x2835 PUSH2 0x3451 JUMP JUMPDEST PUSH1 0x0 PUSH2 0x2840 DUP7 PUSH2 0x2BD3 JUMP JUMPDEST SWAP1 POP PUSH1 0x0 DUP1 PUSH2 0x2869 DUP4 PUSH1 0xF DUP2 MLOAD DUP2 LT PUSH2 0x285C JUMPI PUSH2 0x285B PUSH2 0x3C90 JUMP JUMPDEST JUMPDEST PUSH1 0x20 MUL PUSH1 0x20 ADD ADD MLOAD PUSH2 0x2CA7 JUMP JUMPDEST SWAP2 POP SWAP2 POP DUP6 ISZERO PUSH2 0x2878 JUMPI PUSH1 0x0 SWAP2 POP JUMPDEST PUSH1 0x0 PUSH1 0x40 MLOAD DUP1 PUSH2 0x100 ADD PUSH1 0x40 MSTORE DUP1 DUP6 PUSH1 0xE DUP2 MLOAD DUP2 LT PUSH2 0x289A JUMPI PUSH2 0x2899 PUSH2 0x3C90 JUMP JUMPDEST JUMPDEST PUSH1 0x20 MUL PUSH1 0x20 ADD ADD MLOAD PUSH2 0xFFFF AND PUSH2 0xFFFF AND DUP2 MSTORE PUSH1 0x20 ADD DUP6 PUSH1 0xD DUP2 MLOAD DUP2 LT PUSH2 0x28C3 JUMPI PUSH2 0x28C2 PUSH2 0x3C90 JUMP JUMPDEST JUMPDEST PUSH1 0x20 MUL PUSH1 0x20 ADD ADD MLOAD PUSH2 0xFFFF AND PUSH2 0xFFFF AND DUP2 MSTORE PUSH1 0x20 ADD DUP6 PUSH1 0xC DUP2 MLOAD DUP2 LT PUSH2 0x28EC JUMPI PUSH2 0x28EB PUSH2 0x3C90 JUMP JUMPDEST JUMPDEST PUSH1 0x20 MUL PUSH1 0x20 ADD ADD MLOAD PUSH2 0xFFFF AND PUSH2 0xFFFF AND DUP2 MSTORE PUSH1 0x20 ADD DUP6 PUSH1 0xB DUP2 MLOAD DUP2 LT PUSH2 0x2915 JUMPI PUSH2 0x2914 PUSH2 0x3C90 JUMP JUMPDEST JUMPDEST PUSH1 0x20 MUL PUSH1 0x20 ADD ADD MLOAD PUSH2 0xFFFF AND PUSH2 0xFFFF AND DUP2 MSTORE PUSH1 0x20 ADD DUP6 PUSH1 0xA DUP2 MLOAD DUP2 LT PUSH2 0x293E JUMPI PUSH2 0x293D PUSH2 0x3C90 JUMP JUMPDEST JUMPDEST PUSH1 0x20 MUL PUSH1 0x20 ADD ADD MLOAD PUSH2 0xFFFF AND PUSH2 0xFFFF AND DUP2 MSTORE PUSH1 0x20 ADD DUP6 PUSH1 0x9 DUP2 MLOAD DUP2 LT PUSH2 0x2967 JUMPI PUSH2 0x2966 PUSH2 0x3C90 JUMP JUMPDEST JUMPDEST PUSH1 0x20 MUL PUSH1 0x20 ADD ADD MLOAD PUSH2 0xFFFF AND PUSH2 0xFFFF AND DUP2 MSTORE PUSH1 0x20 ADD DUP6 PUSH1 0x8 DUP2 MLOAD DUP2 LT PUSH2 0x2990 JUMPI PUSH2 0x298F PUSH2 0x3C90 JUMP JUMPDEST JUMPDEST PUSH1 0x20 MUL PUSH1 0x20 ADD ADD MLOAD PUSH2 0xFFFF AND PUSH2 0xFFFF AND DUP2 MSTORE PUSH1 0x20 ADD DUP6 PUSH1 0x7 DUP2 MLOAD DUP2 LT PUSH2 0x29B9 JUMPI PUSH2 0x29B8 PUSH2 0x3C90 JUMP JUMPDEST JUMPDEST PUSH1 0x20 MUL PUSH1 0x20 ADD ADD MLOAD PUSH2 0xFFFF AND PUSH2 0xFFFF AND DUP2 MSTORE POP SWAP1 POP PUSH1 0x0 DUP1 PUSH2 0x29E6 DUP4 DUP6 DUP13 PUSH8 0xFFFFFFFFFFFFFFFF AND PUSH2 0x2D5D JUMP JUMPDEST DUP1 SWAP4 POP DUP2 SWAP5 POP DUP3 SWAP10 POP POP POP POP PUSH1 0x40 MLOAD DUP1 PUSH1 0x80 ADD PUSH1 0x40 MSTORE DUP1 DUP12 PUSH8 0xFFFFFFFFFFFFFFFF AND DUP2 MSTORE PUSH1 0x20 ADD DUP7 PUSH8 0xFFFFFFFFFFFFFFFF AND DUP2 MSTORE PUSH1 0x20 ADD DUP4 PUSH8 0xFFFFFFFFFFFFFFFF AND DUP2 MSTORE PUSH1 0x20 ADD DUP3 PUSH8 0xFFFFFFFFFFFFFFFF AND DUP2 MSTORE POP SWAP8 POP POP POP POP POP POP POP SWAP4 POP SWAP4 SWAP2 POP POP JUMP JUMPDEST PUSH1 0x0 CALLER SWAP1 POP SWAP1 JUMP JUMPDEST PUSH1 0x0 DUP1 PUSH1 0x0 DUP4 SUB PUSH2 0x2A6E JUMPI PUSH1 0x0 SWAP2 POP PUSH8 0xA688906BD8B00000 SWAP1 POP JUMPDEST PUSH1 0x1 DUP4 SUB PUSH2 0x2A86 JUMPI PUSH1 0x1 SWAP2 POP PUSH8 0x7CE66C50E2840000 SWAP1 POP JUMPDEST PUSH1 0x2 DUP4 SUB PUSH2 0x2A9E JUMPI PUSH1 0x1 SWAP2 POP PUSH8 0x29A2241AF62C0000 SWAP1 POP JUMPDEST PUSH1 0x3 DUP4 SUB PUSH2 0x2AB6 JUMPI PUSH1 0x2 SWAP2 POP PUSH8 0xA688906BD8B00000 SWAP1 POP JUMPDEST PUSH1 0x4 DUP4 SUB PUSH2 0x2ACE JUMPI PUSH1 0x3 SWAP2 POP PUSH8 0xDE0B6B3A7640000 SWAP1 POP JUMPDEST SWAP2 POP SWAP2 JUMP JUMPDEST PUSH1 0x0 DUP1 PUSH1 0x0 DUP4 SUB PUSH2 0x2AEE JUMPI PUSH1 0x1 SWAP2 POP PUSH8 0x3782DACE9D900000 SWAP1 POP JUMPDEST PUSH1 0x1 DUP4 SUB PUSH2 0x2B06 JUMPI PUSH1 0x0 SWAP2 POP PUSH8 0x29A2241AF62C0000 SWAP1 POP JUMPDEST PUSH1 0x2 DUP4 SUB PUSH2 0x2B1E JUMPI PUSH1 0x0 SWAP2 POP PUSH8 0xDE0B6B3A7640000 SWAP1 POP JUMPDEST PUSH1 0x3 DUP4 SUB PUSH2 0x2B36 JUMPI PUSH1 0x0 SWAP2 POP PUSH8 0x3782DACE9D900000 SWAP1 POP JUMPDEST PUSH1 0x4 DUP4 SUB PUSH2 0x2B4E JUMPI PUSH1 0x2 SWAP2 POP PUSH8 0xDE0B6B3A7640000 SWAP1 POP JUMPDEST SWAP2 POP SWAP2 JUMP JUMPDEST PUSH1 0x0 DUP1 PUSH1 0x0 DUP4 SUB PUSH2 0x2B6E JUMPI PUSH1 0x0 SWAP2 POP PUSH8 0xDE0B6B3A7640000 SWAP1 POP JUMPDEST PUSH1 0x1 DUP4 SUB PUSH2 0x2B86 JUMPI PUSH1 0x1 SWAP2 POP PUSH8 0xDE0B6B3A7640000 SWAP1 POP JUMPDEST PUSH1 0x2 DUP4 SUB PUSH2 0x2B9E JUMPI PUSH1 0x1 SWAP2 POP PUSH8 0xDE0B6B3A7640000 SWAP1 POP JUMPDEST PUSH1 0x3 DUP4 SUB PUSH2 0x2BB6 JUMPI PUSH1 0x2 SWAP2 POP PUSH8 0xDE0B6B3A7640000 SWAP1 POP JUMPDEST PUSH1 0x4 DUP4 SUB PUSH2 0x2BCE JUMPI PUSH1 0x3 SWAP2 POP PUSH8 0x3782DACE9D90000 SWAP1 POP JUMPDEST SWAP2 POP SWAP2 JUMP JUMPDEST PUSH1 0x60 PUSH1 0x0 PUSH1 0x10 PUSH8 0xFFFFFFFFFFFFFFFF DUP2 GT ISZERO PUSH2 0x2BF2 JUMPI PUSH2 0x2BF1 PUSH2 0x3826 JUMP JUMPDEST JUMPDEST PUSH1 0x40 MLOAD SWAP1 DUP1 DUP3 MSTORE DUP1 PUSH1 0x20 MUL PUSH1 0x20 ADD DUP3 ADD PUSH1 0x40 MSTORE DUP1 ISZERO PUSH2 0x2C20 JUMPI DUP2 PUSH1 0x20 ADD PUSH1 0x20 DUP3 MUL DUP1 CALLDATASIZE DUP4 CALLDATACOPY DUP1 DUP3 ADD SWAP2 POP POP SWAP1 POP JUMPDEST POP SWAP1 POP PUSH1 0x0 PUSH2 0xFFFF SWAP1 POP PUSH1 0x0 DUP1 PUSH1 0xF SWAP1 POP JUMPDEST PUSH1 0x0 DUP2 SLT PUSH2 0x2C9B JUMPI PUSH1 0x0 DUP4 DUP8 AND SWAP1 POP PUSH1 0x10 DUP5 SWAP1 SHL SWAP4 POP DUP3 DUP2 SWAP1 SHR SWAP1 POP DUP1 DUP6 DUP4 DUP2 MLOAD DUP2 LT PUSH2 0x2C62 JUMPI PUSH2 0x2C61 PUSH2 0x3C90 JUMP JUMPDEST JUMPDEST PUSH1 0x20 MUL PUSH1 0x20 ADD ADD SWAP1 PUSH2 0xFFFF AND SWAP1 DUP2 PUSH2 0xFFFF AND DUP2 MSTORE POP POP PUSH1 0x10 DUP4 PUSH2 0x2C85 SWAP2 SWAP1 PUSH2 0x4AFE JUMP JUMPDEST SWAP3 POP POP DUP1 DUP1 PUSH2 0x2C93 SWAP1 PUSH2 0x4D43 JUMP JUMPDEST SWAP2 POP POP PUSH2 0x2C32 JUMP JUMPDEST POP DUP3 SWAP4 POP POP POP POP SWAP2 SWAP1 POP JUMP JUMPDEST PUSH1 0x0 DUP1 PUSH1 0x0 PUSH2 0x3E8 DUP5 PUSH2 0x2CBA SWAP2 SWAP1 PUSH2 0x4D99 JUMP JUMPDEST PUSH2 0xFFFF AND SWAP1 POP PUSH2 0x3E2 DUP2 GT ISZERO PUSH2 0x2CD3 JUMPI PUSH1 0x4 SWAP3 POP PUSH1 0x64 SWAP2 POP JUMPDEST PUSH2 0x3D8 DUP2 GT DUP1 ISZERO PUSH2 0x2CE6 JUMPI POP PUSH2 0x3E2 DUP2 GT ISZERO JUMPDEST ISZERO PUSH2 0x2CF4 JUMPI PUSH1 0x3 SWAP3 POP PUSH1 0x3C SWAP2 POP JUMPDEST PUSH2 0x3B0 DUP2 GT DUP1 ISZERO PUSH2 0x2D07 JUMPI POP PUSH2 0x3D8 DUP2 GT ISZERO JUMPDEST ISZERO PUSH2 0x2D15 JUMPI PUSH1 0x2 SWAP3 POP PUSH1 0x28 SWAP2 POP JUMPDEST PUSH2 0x2E8 DUP2 GT DUP1 ISZERO PUSH2 0x2D28 JUMPI POP PUSH2 0x3B0 DUP2 GT ISZERO JUMPDEST ISZERO PUSH2 0x2D36 JUMPI PUSH1 0x1 SWAP3 POP PUSH1 0x19 SWAP2 POP JUMPDEST PUSH1 0x0 DUP2 LT ISZERO DUP1 ISZERO PUSH2 0x2D49 JUMPI POP PUSH2 0x2EC DUP2 GT ISZERO JUMPDEST ISZERO PUSH2 0x2D57 JUMPI PUSH1 0x0 SWAP3 POP PUSH1 0xF SWAP2 POP JUMPDEST POP SWAP2 POP SWAP2 JUMP JUMPDEST PUSH2 0x2D65 PUSH2 0x3451 JUMP JUMPDEST PUSH1 0x0 DUP1 PUSH1 0x0 DUP1 PUSH2 0x2D73 PUSH2 0x3496 JUMP JUMPDEST PUSH2 0x2D7B PUSH2 0x3496 JUMP JUMPDEST PUSH1 0x0 JUMPDEST PUSH1 0x8 DUP2 LT ISZERO PUSH2 0x2E0A JUMPI PUSH1 0x0 PUSH2 0x3E8 DUP13 DUP4 PUSH1 0x8 DUP2 LT PUSH2 0x2D9F JUMPI PUSH2 0x2D9E PUSH2 0x3C90 JUMP JUMPDEST JUMPDEST PUSH1 0x20 MUL ADD MLOAD PUSH2 0x2DAE SWAP2 SWAP1 PUSH2 0x4D99 JUMP JUMPDEST PUSH2 0xFFFF AND SWAP1 POP DUP1 DUP5 DUP4 PUSH1 0x8 DUP2 LT PUSH2 0x2DC8 JUMPI PUSH2 0x2DC7 PUSH2 0x3C90 JUMP JUMPDEST JUMPDEST PUSH1 0x20 MUL ADD DUP2 DUP2 MSTORE POP POP DUP4 DUP3 PUSH1 0x8 DUP2 LT PUSH2 0x2DE4 JUMPI PUSH2 0x2DE3 PUSH2 0x3C90 JUMP JUMPDEST JUMPDEST PUSH1 0x20 MUL ADD MLOAD DUP7 PUSH2 0x2DF4 SWAP2 SWAP1 PUSH2 0x4AFE JUMP JUMPDEST SWAP6 POP POP DUP1 DUP1 PUSH2 0x2E02 SWAP1 PUSH2 0x3CEE JUMP JUMPDEST SWAP2 POP POP PUSH2 0x2D7E JUMP JUMPDEST POP PUSH1 0x0 JUMPDEST PUSH1 0x8 DUP2 LT ISZERO PUSH2 0x2E74 JUMPI DUP5 DUP11 DUP5 DUP4 PUSH1 0x8 DUP2 LT PUSH2 0x2E2C JUMPI PUSH2 0x2E2B PUSH2 0x3C90 JUMP JUMPDEST JUMPDEST PUSH1 0x20 MUL ADD MLOAD PUSH2 0x2E3B SWAP2 SWAP1 PUSH2 0x3EEC JUMP JUMPDEST PUSH2 0x2E45 SWAP2 SWAP1 PUSH2 0x4DCA JUMP JUMPDEST DUP3 DUP3 PUSH1 0x8 DUP2 LT PUSH2 0x2E58 JUMPI PUSH2 0x2E57 PUSH2 0x3C90 JUMP JUMPDEST JUMPDEST PUSH1 0x20 MUL ADD DUP2 DUP2 MSTORE POP POP DUP1 DUP1 PUSH2 0x2E6C SWAP1 PUSH2 0x3CEE JUMP JUMPDEST SWAP2 POP POP PUSH2 0x2E0E JUMP JUMPDEST POP PUSH1 0x0 DUP1 PUSH2 0x2E82 DUP11 DUP13 PUSH2 0x300B JUMP JUMPDEST SWAP2 POP SWAP2 POP DUP1 DUP4 DUP4 PUSH1 0x8 DUP2 LT PUSH2 0x2E9A JUMPI PUSH2 0x2E99 PUSH2 0x3C90 JUMP JUMPDEST JUMPDEST PUSH1 0x20 MUL ADD DUP2 DUP2 MLOAD PUSH2 0x2EAB SWAP2 SWAP1 PUSH2 0x4AFE JUMP JUMPDEST SWAP2 POP DUP2 DUP2 MSTORE POP POP PUSH1 0x40 MLOAD DUP1 PUSH2 0x100 ADD PUSH1 0x40 MSTORE DUP1 DUP5 PUSH1 0x0 PUSH1 0x8 DUP2 LT PUSH2 0x2ED2 JUMPI PUSH2 0x2ED1 PUSH2 0x3C90 JUMP JUMPDEST JUMPDEST PUSH1 0x20 MUL ADD MLOAD PUSH4 0xFFFFFFFF AND DUP2 MSTORE PUSH1 0x20 ADD DUP5 PUSH1 0x1 PUSH1 0x8 DUP2 LT PUSH2 0x2EF6 JUMPI PUSH2 0x2EF5 PUSH2 0x3C90 JUMP JUMPDEST JUMPDEST PUSH1 0x20 MUL ADD MLOAD PUSH4 0xFFFFFFFF AND DUP2 MSTORE PUSH1 0x20 ADD DUP5 PUSH1 0x2 PUSH1 0x8 DUP2 LT PUSH2 0x2F1A JUMPI PUSH2 0x2F19 PUSH2 0x3C90 JUMP JUMPDEST JUMPDEST PUSH1 0x20 MUL ADD MLOAD PUSH4 0xFFFFFFFF AND DUP2 MSTORE PUSH1 0x20 ADD DUP5 PUSH1 0x3 PUSH1 0x8 DUP2 LT PUSH2 0x2F3E JUMPI PUSH2 0x2F3D PUSH2 0x3C90 JUMP JUMPDEST JUMPDEST PUSH1 0x20 MUL ADD MLOAD PUSH4 0xFFFFFFFF AND DUP2 MSTORE PUSH1 0x20 ADD DUP5 PUSH1 0x4 PUSH1 0x8 DUP2 LT PUSH2 0x2F62 JUMPI PUSH2 0x2F61 PUSH2 0x3C90 JUMP JUMPDEST JUMPDEST PUSH1 0x20 MUL ADD MLOAD PUSH4 0xFFFFFFFF AND DUP2 MSTORE PUSH1 0x20 ADD DUP5 PUSH1 0x5 PUSH1 0x8 DUP2 LT PUSH2 0x2F86 JUMPI PUSH2 0x2F85 PUSH2 0x3C90 JUMP JUMPDEST JUMPDEST PUSH1 0x20 MUL ADD MLOAD PUSH4 0xFFFFFFFF AND DUP2 MSTORE PUSH1 0x20 ADD DUP5 PUSH1 0x6 PUSH1 0x8 DUP2 LT PUSH2 0x2FAA JUMPI PUSH2 0x2FA9 PUSH2 0x3C90 JUMP JUMPDEST JUMPDEST PUSH1 0x20 MUL ADD MLOAD PUSH4 0xFFFFFFFF AND DUP2 MSTORE PUSH1 0x20 ADD DUP5 PUSH1 0x7 PUSH1 0x8 DUP2 LT PUSH2 0x2FCE JUMPI PUSH2 0x2FCD PUSH2 0x3C90 JUMP JUMPDEST JUMPDEST PUSH1 0x20 MUL ADD MLOAD PUSH4 0xFFFFFFFF AND DUP2 MSTORE POP SWAP9 POP PUSH2 0x2FE7 DUP5 PUSH2 0x310B JUMP JUMPDEST DUP1 SWAP7 POP DUP2 SWAP10 POP POP POP PUSH2 0x2FFA DUP6 DUP8 DUP14 PUSH2 0x32F7 JUMP JUMPDEST SWAP7 POP POP POP POP POP POP POP SWAP4 POP SWAP4 POP SWAP4 SWAP1 POP JUMP JUMPDEST PUSH1 0x0 DUP1 PUSH1 0x0 DUP5 SUB PUSH2 0x3043 JUMPI PUSH1 0x0 SWAP2 POP PUSH1 0x96 PUSH1 0x32 DUP5 PUSH2 0x3029 SWAP2 SWAP1 PUSH2 0x4AFE JUMP JUMPDEST PUSH2 0x12C PUSH2 0x3036 SWAP2 SWAP1 PUSH2 0x3EEC JUMP JUMPDEST PUSH2 0x3040 SWAP2 SWAP1 PUSH2 0x4DCA JUMP JUMPDEST SWAP1 POP JUMPDEST PUSH1 0x1 DUP5 SUB PUSH2 0x3083 JUMPI PUSH1 0x1 SWAP2 POP PUSH1 0x2 PUSH1 0x96 PUSH1 0x32 DUP6 PUSH2 0x3060 SWAP2 SWAP1 PUSH2 0x4AFE JUMP JUMPDEST PUSH1 0xE1 PUSH2 0x306C SWAP2 SWAP1 PUSH2 0x3EEC JUMP JUMPDEST PUSH2 0x3076 SWAP2 SWAP1 PUSH2 0x4DCA JUMP JUMPDEST PUSH2 0x3080 SWAP2 SWAP1 PUSH2 0x4DCA JUMP JUMPDEST SWAP1 POP JUMPDEST PUSH1 0x2 DUP5 SUB PUSH2 0x30C3 JUMPI PUSH1 0x1 SWAP2 POP PUSH1 0x2 PUSH1 0x96 PUSH1 0x32 DUP6 PUSH2 0x30A0 SWAP2 SWAP1 PUSH2 0x4AFE JUMP JUMPDEST PUSH1 0x4B PUSH2 0x30AC SWAP2 SWAP1 PUSH2 0x3EEC JUMP JUMPDEST PUSH2 0x30B6 SWAP2 SWAP1 PUSH2 0x4DCA JUMP JUMPDEST PUSH2 0x30C0 SWAP2 SWAP1 PUSH2 0x4DCA JUMP JUMPDEST SWAP1 POP JUMPDEST PUSH1 0x3 DUP5 SUB PUSH2 0x3104 JUMPI PUSH1 0x2 SWAP2 POP PUSH1 0x2 PUSH1 0x96 PUSH1 0x32 DUP6 PUSH2 0x30E0 SWAP2 SWAP1 PUSH2 0x4AFE JUMP JUMPDEST PUSH2 0x12C PUSH2 0x30ED SWAP2 SWAP1 PUSH2 0x3EEC JUMP JUMPDEST PUSH2 0x30F7 SWAP2 SWAP1 PUSH2 0x4DCA JUMP JUMPDEST PUSH2 0x3101 SWAP2 SWAP1 PUSH2 0x4DCA JUMP JUMPDEST SWAP1 POP JUMPDEST SWAP3 POP SWAP3 SWAP1 POP JUMP JUMPDEST PUSH1 0x0 DUP1 PUSH1 0x0 PUSH1 0x40 MLOAD DUP1 PUSH2 0x100 ADD PUSH1 0x40 MSTORE DUP1 PUSH1 0x0 DUP2 MSTORE PUSH1 0x20 ADD PUSH1 0x1 DUP2 MSTORE PUSH1 0x20 ADD PUSH1 0x2 DUP2 MSTORE PUSH1 0x20 ADD PUSH1 0x3 DUP2 MSTORE PUSH1 0x20 ADD PUSH1 0x4 DUP2 MSTORE PUSH1 0x20 ADD PUSH1 0x5 DUP2 MSTORE PUSH1 0x20 ADD PUSH1 0x6 DUP2 MSTORE PUSH1 0x20 ADD PUSH1 0x7 DUP2 MSTORE POP SWAP1 POP PUSH1 0x0 PUSH1 0x8 SWAP1 POP PUSH1 0x0 JUMPDEST DUP2 DUP2 LT ISZERO PUSH2 0x32B9 JUMPI PUSH1 0x0 PUSH1 0x1 DUP3 PUSH2 0x3174 SWAP2 SWAP1 PUSH2 0x4AFE JUMP JUMPDEST SWAP1 POP JUMPDEST DUP3 DUP2 LT ISZERO PUSH2 0x32A5 JUMPI DUP7 DUP2 PUSH1 0x8 DUP2 LT PUSH2 0x3192 JUMPI PUSH2 0x3191 PUSH2 0x3C90 JUMP JUMPDEST JUMPDEST PUSH1 0x20 MUL ADD MLOAD DUP8 DUP4 PUSH1 0x8 DUP2 LT PUSH2 0x31AA JUMPI PUSH2 0x31A9 PUSH2 0x3C90 JUMP JUMPDEST JUMPDEST PUSH1 0x20 MUL ADD MLOAD LT ISZERO PUSH2 0x3292 JUMPI PUSH1 0x0 DUP8 DUP4 PUSH1 0x8 DUP2 LT PUSH2 0x31CA JUMPI PUSH2 0x31C9 PUSH2 0x3C90 JUMP JUMPDEST JUMPDEST PUSH1 0x20 MUL ADD MLOAD SWAP1 POP PUSH1 0x0 DUP6 DUP5 PUSH1 0x8 DUP2 LT PUSH2 0x31E6 JUMPI PUSH2 0x31E5 PUSH2 0x3C90 JUMP JUMPDEST JUMPDEST PUSH1 0x20 MUL ADD MLOAD SWAP1 POP DUP9 DUP4 PUSH1 0x8 DUP2 LT PUSH2 0x3200 JUMPI PUSH2 0x31FF PUSH2 0x3C90 JUMP JUMPDEST JUMPDEST PUSH1 0x20 MUL ADD MLOAD DUP10 DUP6 PUSH1 0x8 DUP2 LT PUSH2 0x3218 JUMPI PUSH2 0x3217 PUSH2 0x3C90 JUMP JUMPDEST JUMPDEST PUSH1 0x20 MUL ADD DUP2 DUP2 MSTORE POP POP DUP6 DUP4 PUSH1 0x8 DUP2 LT PUSH2 0x3234 JUMPI PUSH2 0x3233 PUSH2 0x3C90 JUMP JUMPDEST JUMPDEST PUSH1 0x20 MUL ADD MLOAD DUP7 DUP6 PUSH1 0x8 DUP2 LT PUSH2 0x324C JUMPI PUSH2 0x324B PUSH2 0x3C90 JUMP JUMPDEST JUMPDEST PUSH1 0x20 MUL ADD DUP2 DUP2 MSTORE POP POP DUP2 DUP10 DUP5 PUSH1 0x8 DUP2 LT PUSH2 0x3269 JUMPI PUSH2 0x3268 PUSH2 0x3C90 JUMP JUMPDEST JUMPDEST PUSH1 0x20 MUL ADD DUP2 DUP2 MSTORE POP POP DUP1 DUP7 DUP5 PUSH1 0x8 DUP2 LT PUSH2 0x3286 JUMPI PUSH2 0x3285 PUSH2 0x3C90 JUMP JUMPDEST JUMPDEST PUSH1 0x20 MUL ADD DUP2 DUP2 MSTORE POP POP POP POP JUMPDEST DUP1 DUP1 PUSH2 0x329D SWAP1 PUSH2 0x3CEE JUMP JUMPDEST SWAP2 POP POP PUSH2 0x3177 JUMP JUMPDEST POP DUP1 DUP1 PUSH2 0x32B1 SWAP1 PUSH2 0x3CEE JUMP JUMPDEST SWAP2 POP POP PUSH2 0x315D JUMP JUMPDEST POP DUP2 PUSH1 0x0 PUSH1 0x8 DUP2 LT PUSH2 0x32CE JUMPI PUSH2 0x32CD PUSH2 0x3C90 JUMP JUMPDEST JUMPDEST PUSH1 0x20 MUL ADD MLOAD SWAP4 POP DUP5 PUSH1 0x0 PUSH1 0x8 DUP2 LT PUSH2 0x32E9 JUMPI PUSH2 0x32E8 PUSH2 0x3C90 JUMP JUMPDEST JUMPDEST PUSH1 0x20 MUL ADD MLOAD SWAP3 POP POP POP SWAP2 POP SWAP2 JUMP JUMPDEST PUSH1 0x0 DUP1 DUP4 DUP4 DUP7 PUSH2 0x3307 SWAP2 SWAP1 PUSH2 0x3EEC JUMP JUMPDEST PUSH2 0x3311 SWAP2 SWAP1 PUSH2 0x4DCA JUMP JUMPDEST SWAP1 POP PUSH1 0x5 DUP2 GT DUP1 ISZERO PUSH2 0x3324 JUMPI POP PUSH1 0xA DUP2 GT ISZERO JUMPDEST ISZERO PUSH2 0x332E JUMPI PUSH1 0x1 SWAP2 POP JUMPDEST PUSH1 0xA DUP2 GT DUP1 ISZERO PUSH2 0x333F JUMPI POP PUSH1 0xF DUP2 GT ISZERO JUMPDEST ISZERO PUSH2 0x3349 JUMPI PUSH1 0x2 SWAP2 POP JUMPDEST PUSH1 0xF DUP2 GT DUP1 ISZERO PUSH2 0x335A JUMPI POP PUSH1 0x14 DUP2 GT ISZERO JUMPDEST ISZERO PUSH2 0x3364 JUMPI PUSH1 0x3 SWAP2 POP JUMPDEST PUSH1 0x14 DUP2 GT DUP1 ISZERO PUSH2 0x3375 JUMPI POP PUSH1 0x1E DUP2 GT ISZERO JUMPDEST ISZERO PUSH2 0x337F JUMPI PUSH1 0x4 SWAP2 POP JUMPDEST PUSH1 0x1E DUP2 GT DUP1 ISZERO PUSH2 0x3390 JUMPI POP PUSH1 0x2D DUP2 GT ISZERO JUMPDEST ISZERO PUSH2 0x339A JUMPI PUSH1 0x5 SWAP2 POP JUMPDEST PUSH1 0x2D DUP2 GT DUP1 ISZERO PUSH2 0x33AB JUMPI POP PUSH1 0x41 DUP2 GT ISZERO JUMPDEST ISZERO PUSH2 0x33B5 JUMPI PUSH1 0x6 SWAP2 POP JUMPDEST PUSH1 0x41 DUP2 GT ISZERO PUSH2 0x33C3 JUMPI PUSH1 0x7 SWAP2 POP JUMPDEST POP SWAP4 SWAP3 POP POP POP JUMP JUMPDEST PUSH1 0x40 MLOAD DUP1 PUSH1 0xC0 ADD PUSH1 0x40 MSTORE DUP1 PUSH1 0x0 DUP2 MSTORE PUSH1 0x20 ADD PUSH1 0x0 DUP2 MSTORE PUSH1 0x20 ADD PUSH1 0x0 DUP2 MSTORE PUSH1 0x20 ADD PUSH1 0x0 DUP2 MSTORE PUSH1 0x20 ADD PUSH1 0x0 DUP2 MSTORE PUSH1 0x20 ADD PUSH1 0x0 DUP2 MSTORE POP SWAP1 JUMP JUMPDEST PUSH1 0x40 MLOAD DUP1 PUSH1 0x80 ADD PUSH1 0x40 MSTORE DUP1 PUSH1 0x0 PUSH8 0xFFFFFFFFFFFFFFFF AND DUP2 MSTORE PUSH1 0x20 ADD PUSH1 0x0 PUSH8 0xFFFFFFFFFFFFFFFF AND DUP2 MSTORE PUSH1 0x20 ADD PUSH1 0x0 PUSH8 0xFFFFFFFFFFFFFFFF AND DUP2 MSTORE PUSH1 0x20 ADD PUSH1 0x0 PUSH8 0xFFFFFFFFFFFFFFFF AND DUP2 MSTORE POP SWAP1 JUMP JUMPDEST PUSH1 0x40 MLOAD DUP1 PUSH2 0x100 ADD PUSH1 0x40 MSTORE DUP1 PUSH1 0x0 DUP2 MSTORE PUSH1 0x20 ADD PUSH1 0x0 DUP2 MSTORE PUSH1 0x20 ADD PUSH1 0x0 DUP2 MSTORE PUSH1 0x20 ADD PUSH1 0x0 DUP2 MSTORE PUSH1 0x20 ADD PUSH1 0x0 DUP2 MSTORE PUSH1 0x20 ADD PUSH1 0x0 DUP2 MSTORE PUSH1 0x20 ADD PUSH1 0x0 DUP2 MSTORE PUSH1 0x20 ADD PUSH1 0x0 DUP2 MSTORE POP SWAP1 JUMP JUMPDEST PUSH1 0x40 MLOAD DUP1 PUSH2 0x100 ADD PUSH1 0x40 MSTORE DUP1 PUSH1 0x8 SWAP1 PUSH1 0x20 DUP3 MUL DUP1 CALLDATASIZE DUP4 CALLDATACOPY DUP1 DUP3 ADD SWAP2 POP POP SWAP1 POP POP SWAP1 JUMP JUMPDEST PUSH1 0x0 PUSH1 0x40 MLOAD SWAP1 POP SWAP1 JUMP JUMPDEST PUSH1 0x0 DUP1 REVERT JUMPDEST PUSH1 0x0 DUP1 REVERT JUMPDEST PUSH1 0x0 PUSH8 0xFFFFFFFFFFFFFFFF DUP3 AND SWAP1 POP SWAP2 SWAP1 POP JUMP JUMPDEST PUSH2 0x34EA DUP2 PUSH2 0x34CD JUMP JUMPDEST DUP2 EQ PUSH2 0x34F5 JUMPI PUSH1 0x0 DUP1 REVERT JUMPDEST POP JUMP JUMPDEST PUSH1 0x0 DUP2 CALLDATALOAD SWAP1 POP PUSH2 0x3507 DUP2 PUSH2 0x34E1 JUMP JUMPDEST SWAP3 SWAP2 POP POP JUMP JUMPDEST PUSH1 0x0 DUP2 SWAP1 POP SWAP2 SWAP1 POP JUMP JUMPDEST PUSH2 0x3520 DUP2 PUSH2 0x350D JUMP JUMPDEST DUP2 EQ PUSH2 0x352B JUMPI PUSH1 0x0 DUP1 REVERT JUMPDEST POP JUMP JUMPDEST PUSH1 0x0 DUP2 CALLDATALOAD SWAP1 POP PUSH2 0x353D DUP2 PUSH2 0x3517 JUMP JUMPDEST SWAP3 SWAP2 POP POP JUMP JUMPDEST PUSH1 0x0 DUP1 PUSH1 0x40 DUP4 DUP6 SUB SLT ISZERO PUSH2 0x355A JUMPI PUSH2 0x3559 PUSH2 0x34C3 JUMP JUMPDEST JUMPDEST PUSH1 0x0 PUSH2 0x3568 DUP6 DUP3 DUP7 ADD PUSH2 0x34F8 JUMP JUMPDEST SWAP3 POP POP PUSH1 0x20 PUSH2 0x3579 DUP6 DUP3 DUP7 ADD PUSH2 0x352E JUMP JUMPDEST SWAP2 POP POP SWAP3 POP SWAP3 SWAP1 POP JUMP JUMPDEST PUSH1 0x0 PUSH20 0xFFFFFFFFFFFFFFFFFFFFFFFFFFFFFFFFFFFFFFFF DUP3 AND SWAP1 POP SWAP2 SWAP1 POP JUMP JUMPDEST PUSH1 0x0 PUSH2 0x35AE DUP3 PUSH2 0x3583 JUMP JUMPDEST SWAP1 POP SWAP2 SWAP1 POP JUMP JUMPDEST PUSH2 0x35BE DUP2 PUSH2 0x35A3 JUMP JUMPDEST DUP2 EQ PUSH2 0x35C9 JUMPI PUSH1 0x0 DUP1 REVERT JUMPDEST POP JUMP JUMPDEST PUSH1 0x0 DUP2 CALLDATALOAD SWAP1 POP PUSH2 0x35DB DUP2 PUSH2 0x35B5 JUMP JUMPDEST SWAP3 SWAP2 POP POP JUMP JUMPDEST PUSH1 0x0 PUSH1 0x20 DUP3 DUP5 SUB SLT ISZERO PUSH2 0x35F7 JUMPI PUSH2 0x35F6 PUSH2 0x34C3 JUMP JUMPDEST JUMPDEST PUSH1 0x0 PUSH2 0x3605 DUP5 DUP3 DUP6 ADD PUSH2 0x35CC JUMP JUMPDEST SWAP2 POP POP SWAP3 SWAP2 POP POP JUMP JUMPDEST PUSH2 0x3617 DUP2 PUSH2 0x350D JUMP JUMPDEST DUP3 MSTORE POP POP JUMP JUMPDEST PUSH2 0x3626 DUP2 PUSH2 0x34CD JUMP JUMPDEST DUP3 MSTORE POP POP JUMP JUMPDEST PUSH1 0x0 PUSH4 0xFFFFFFFF DUP3 AND SWAP1 POP SWAP2 SWAP1 POP JUMP JUMPDEST PUSH2 0x3645 DUP2 PUSH2 0x362C JUMP JUMPDEST DUP3 MSTORE POP POP JUMP JUMPDEST PUSH1 0x0 DUP2 ISZERO ISZERO SWAP1 POP SWAP2 SWAP1 POP JUMP JUMPDEST PUSH2 0x3660 DUP2 PUSH2 0x364B JUMP JUMPDEST DUP3 MSTORE POP POP JUMP JUMPDEST PUSH1 0x0 PUSH1 0xA0 DUP3 ADD SWAP1 POP PUSH2 0x367B PUSH1 0x0 DUP4 ADD DUP9 PUSH2 0x360E JUMP JUMPDEST PUSH2 0x3688 PUSH1 0x20 DUP4 ADD DUP8 PUSH2 0x361D JUMP JUMPDEST PUSH2 0x3695 PUSH1 0x40 DUP4 ADD DUP7 PUSH2 0x363C JUMP JUMPDEST PUSH2 0x36A2 PUSH1 0x60 DUP4 ADD DUP6 PUSH2 0x360E JUMP JUMPDEST PUSH2 0x36AF PUSH1 0x80 DUP4 ADD DUP5 PUSH2 0x3657 JUMP JUMPDEST SWAP7 SWAP6 POP POP POP POP POP POP JUMP JUMPDEST PUSH1 0x0 PUSH1 0x20 DUP3 ADD SWAP1 POP PUSH2 0x36CE PUSH1 0x0 DUP4 ADD DUP5 PUSH2 0x3657 JUMP JUMPDEST SWAP3 SWAP2 POP POP JUMP JUMPDEST PUSH1 0x0 PUSH1 0x20 DUP3 DUP5 SUB SLT ISZERO PUSH2 0x36EA JUMPI PUSH2 0x36E9 PUSH2 0x34C3 JUMP JUMPDEST JUMPDEST PUSH1 0x0 PUSH2 0x36F8 DUP5 DUP3 DUP6 ADD PUSH2 0x352E JUMP JUMPDEST SWAP2 POP POP SWAP3 SWAP2 POP POP JUMP JUMPDEST PUSH2 0x370A DUP2 PUSH2 0x350D JUMP JUMPDEST DUP3 MSTORE POP POP JUMP JUMPDEST PUSH1 0xC0 DUP3 ADD PUSH1 0x0 DUP3 ADD MLOAD PUSH2 0x3726 PUSH1 0x0 DUP6 ADD DUP3 PUSH2 0x3701 JUMP JUMPDEST POP PUSH1 0x20 DUP3 ADD MLOAD PUSH2 0x3739 PUSH1 0x20 DUP6 ADD DUP3 PUSH2 0x3701 JUMP JUMPDEST POP PUSH1 0x40 DUP3 ADD MLOAD PUSH2 0x374C PUSH1 0x40 DUP6 ADD DUP3 PUSH2 0x3701 JUMP JUMPDEST POP PUSH1 0x60 DUP3 ADD MLOAD PUSH2 0x375F PUSH1 0x60 DUP6 ADD DUP3 PUSH2 0x3701 JUMP JUMPDEST POP PUSH1 0x80 DUP3 ADD MLOAD PUSH2 0x3772 PUSH1 0x80 DUP6 ADD DUP3 PUSH2 0x3701 JUMP JUMPDEST POP PUSH1 0xA0 DUP3 ADD MLOAD PUSH2 0x3785 PUSH1 0xA0 DUP6 ADD DUP3 PUSH2 0x3701 JUMP JUMPDEST POP POP POP POP JUMP JUMPDEST PUSH1 0x0 PUSH1 0xC0 DUP3 ADD SWAP1 POP PUSH2 0x37A0 PUSH1 0x0 DUP4 ADD DUP5 PUSH2 0x3710 JUMP JUMPDEST SWAP3 SWAP2 POP POP JUMP JUMPDEST PUSH1 0x0 DUP1 PUSH1 0x40 DUP4 DUP6 SUB SLT ISZERO PUSH2 0x37BD JUMPI PUSH2 0x37BC PUSH2 0x34C3 JUMP JUMPDEST JUMPDEST PUSH1 0x0 PUSH2 0x37CB DUP6 DUP3 DUP7 ADD PUSH2 0x352E JUMP JUMPDEST SWAP3 POP POP PUSH1 0x20 PUSH2 0x37DC DUP6 DUP3 DUP7 ADD PUSH2 0x352E JUMP JUMPDEST SWAP2 POP POP SWAP3 POP SWAP3 SWAP1 POP JUMP JUMPDEST PUSH2 0x37EF DUP2 PUSH2 0x35A3 JUMP JUMPDEST DUP3 MSTORE POP POP JUMP JUMPDEST PUSH1 0x0 PUSH1 0x20 DUP3 ADD SWAP1 POP PUSH2 0x380A PUSH1 0x0 DUP4 ADD DUP5 PUSH2 0x37E6 JUMP JUMPDEST SWAP3 SWAP2 POP POP JUMP JUMPDEST PUSH1 0x0 DUP1 REVERT JUMPDEST PUSH1 0x0 PUSH1 0x1F NOT PUSH1 0x1F DUP4 ADD AND SWAP1 POP SWAP2 SWAP1 POP JUMP JUMPDEST PUSH32 0x4E487B7100000000000000000000000000000000000000000000000000000000 PUSH1 0x0 MSTORE PUSH1 0x41 PUSH1 0x4 MSTORE PUSH1 0x24 PUSH1 0x0 REVERT JUMPDEST PUSH2 0x385E DUP3 PUSH2 0x3815 JUMP JUMPDEST DUP2 ADD DUP2 DUP2 LT PUSH8 0xFFFFFFFFFFFFFFFF DUP3 GT OR ISZERO PUSH2 0x387D JUMPI PUSH2 0x387C PUSH2 0x3826 JUMP JUMPDEST JUMPDEST DUP1 PUSH1 0x40 MSTORE POP POP POP JUMP JUMPDEST PUSH1 0x0 PUSH2 0x3890 PUSH2 0x34B9 JUMP JUMPDEST SWAP1 POP PUSH2 0x389C DUP3 DUP3 PUSH2 0x3855 JUMP JUMPDEST SWAP2 SWAP1 POP JUMP JUMPDEST PUSH1 0x0 PUSH8 0xFFFFFFFFFFFFFFFF DUP3 GT ISZERO PUSH2 0x38BC JUMPI PUSH2 0x38BB PUSH2 0x3826 JUMP JUMPDEST JUMPDEST PUSH1 0x20 DUP3 MUL SWAP1 POP PUSH1 0x20 DUP2 ADD SWAP1 POP SWAP2 SWAP1 POP JUMP JUMPDEST PUSH1 0x0 DUP1 REVERT JUMPDEST PUSH1 0x0 PUSH2 0x38E5 PUSH2 0x38E0 DUP5 PUSH2 0x38A1 JUMP JUMPDEST PUSH2 0x3886 JUMP JUMPDEST SWAP1 POP DUP1 DUP4 DUP3 MSTORE PUSH1 0x20 DUP3 ADD SWAP1 POP PUSH1 0x20 DUP5 MUL DUP4 ADD DUP6 DUP2 GT ISZERO PUSH2 0x3908 JUMPI PUSH2 0x3907 PUSH2 0x38CD JUMP JUMPDEST JUMPDEST DUP4 JUMPDEST DUP2 DUP2 LT ISZERO PUSH2 0x3931 JUMPI DUP1 PUSH2 0x391D DUP9 DUP3 PUSH2 0x352E JUMP JUMPDEST DUP5 MSTORE PUSH1 0x20 DUP5 ADD SWAP4 POP POP PUSH1 0x20 DUP2 ADD SWAP1 POP PUSH2 0x390A JUMP JUMPDEST POP POP POP SWAP4 SWAP3 POP POP POP JUMP JUMPDEST PUSH1 0x0 DUP3 PUSH1 0x1F DUP4 ADD SLT PUSH2 0x3950 JUMPI PUSH2 0x394F PUSH2 0x3810 JUMP JUMPDEST JUMPDEST DUP2 CALLDATALOAD PUSH2 0x3960 DUP5 DUP3 PUSH1 0x20 DUP7 ADD PUSH2 0x38D2 JUMP JUMPDEST SWAP2 POP POP SWAP3 SWAP2 POP POP JUMP JUMPDEST PUSH1 0x0 DUP1 PUSH1 0x40 DUP4 DUP6 SUB SLT ISZERO PUSH2 0x3980 JUMPI PUSH2 0x397F PUSH2 0x34C3 JUMP JUMPDEST JUMPDEST PUSH1 0x0 PUSH2 0x398E DUP6 DUP3 DUP7 ADD PUSH2 0x35CC JUMP JUMPDEST SWAP3 POP POP PUSH1 0x20 DUP4 ADD CALLDATALOAD PUSH8 0xFFFFFFFFFFFFFFFF DUP2 GT ISZERO PUSH2 0x39AF JUMPI PUSH2 0x39AE PUSH2 0x34C8 JUMP JUMPDEST JUMPDEST PUSH2 0x39BB DUP6 DUP3 DUP7 ADD PUSH2 0x393B JUMP JUMPDEST SWAP2 POP POP SWAP3 POP SWAP3 SWAP1 POP JUMP JUMPDEST PUSH1 0x0 DUP1 PUSH1 0x40 DUP4 DUP6 SUB SLT ISZERO PUSH2 0x39DC JUMPI PUSH2 0x39DB PUSH2 0x34C3 JUMP JUMPDEST JUMPDEST PUSH1 0x0 PUSH2 0x39EA DUP6 DUP3 DUP7 ADD PUSH2 0x352E JUMP JUMPDEST SWAP3 POP POP PUSH1 0x20 PUSH2 0x39FB DUP6 DUP3 DUP7 ADD PUSH2 0x34F8 JUMP JUMPDEST SWAP2 POP POP SWAP3 POP SWAP3 SWAP1 POP JUMP JUMPDEST PUSH1 0x0 PUSH1 0x20 DUP3 ADD SWAP1 POP PUSH2 0x3A1A PUSH1 0x0 DUP4 ADD DUP5 PUSH2 0x360E JUMP JUMPDEST SWAP3 SWAP2 POP POP JUMP JUMPDEST PUSH1 0x0 PUSH1 0x20 DUP3 DUP5 SUB SLT ISZERO PUSH2 0x3A36 JUMPI PUSH2 0x3A35 PUSH2 0x34C3 JUMP JUMPDEST JUMPDEST PUSH1 0x0 PUSH2 0x3A44 DUP5 DUP3 DUP6 ADD PUSH2 0x34F8 JUMP JUMPDEST SWAP2 POP POP SWAP3 SWAP2 POP POP JUMP JUMPDEST PUSH1 0x0 DUP3 DUP3 MSTORE PUSH1 0x20 DUP3 ADD SWAP1 POP SWAP3 SWAP2 POP POP JUMP JUMPDEST PUSH32 0x654D4E54523A204E6F207265717565737420746F206D696E742E000000000000 PUSH1 0x0 DUP3 ADD MSTORE POP JUMP JUMPDEST PUSH1 0x0 PUSH2 0x3A94 PUSH1 0x1A DUP4 PUSH2 0x3A4D JUMP JUMPDEST SWAP2 POP PUSH2 0x3A9F DUP3 PUSH2 0x3A5E JUMP JUMPDEST PUSH1 0x20 DUP3 ADD SWAP1 POP SWAP2 SWAP1 POP JUMP JUMPDEST PUSH1 0x0 PUSH1 0x20 DUP3 ADD SWAP1 POP DUP2 DUP2 SUB PUSH1 0x0 DUP4 ADD MSTORE PUSH2 0x3AC3 DUP2 PUSH2 0x3A87 JUMP JUMPDEST SWAP1 POP SWAP2 SWAP1 POP JUMP JUMPDEST PUSH2 0x3AD3 DUP2 PUSH2 0x364B JUMP JUMPDEST DUP2 EQ PUSH2 0x3ADE JUMPI PUSH1 0x0 DUP1 REVERT JUMPDEST POP JUMP JUMPDEST PUSH1 0x0 DUP2 MLOAD SWAP1 POP PUSH2 0x3AF0 DUP2 PUSH2 0x3ACA JUMP JUMPDEST SWAP3 SWAP2 POP POP JUMP JUMPDEST PUSH1 0x0 DUP2 MLOAD SWAP1 POP PUSH2 0x3B05 DUP2 PUSH2 0x3517 JUMP JUMPDEST SWAP3 SWAP2 POP POP JUMP JUMPDEST PUSH1 0x0 PUSH2 0x3B1E PUSH2 0x3B19 DUP5 PUSH2 0x38A1 JUMP JUMPDEST PUSH2 0x3886 JUMP JUMPDEST SWAP1 POP DUP1 DUP4 DUP3 MSTORE PUSH1 0x20 DUP3 ADD SWAP1 POP PUSH1 0x20 DUP5 MUL DUP4 ADD DUP6 DUP2 GT ISZERO PUSH2 0x3B41 JUMPI PUSH2 0x3B40 PUSH2 0x38CD JUMP JUMPDEST JUMPDEST DUP4 JUMPDEST DUP2 DUP2 LT ISZERO PUSH2 0x3B6A JUMPI DUP1 PUSH2 0x3B56 DUP9 DUP3 PUSH2 0x3AF6 JUMP JUMPDEST DUP5 MSTORE PUSH1 0x20 DUP5 ADD SWAP4 POP POP PUSH1 0x20 DUP2 ADD SWAP1 POP PUSH2 0x3B43 JUMP JUMPDEST POP POP POP SWAP4 SWAP3 POP POP POP JUMP JUMPDEST PUSH1 0x0 DUP3 PUSH1 0x1F DUP4 ADD SLT PUSH2 0x3B89 JUMPI PUSH2 0x3B88 PUSH2 0x3810 JUMP JUMPDEST JUMPDEST DUP2 MLOAD PUSH2 0x3B99 DUP5 DUP3 PUSH1 0x20 DUP7 ADD PUSH2 0x3B0B JUMP JUMPDEST SWAP2 POP POP SWAP3 SWAP2 POP POP JUMP JUMPDEST PUSH1 0x0 DUP1 PUSH1 0x40 DUP4 DUP6 SUB SLT ISZERO PUSH2 0x3BB9 JUMPI PUSH2 0x3BB8 PUSH2 0x34C3 JUMP JUMPDEST JUMPDEST PUSH1 0x0 PUSH2 0x3BC7 DUP6 DUP3 DUP7 ADD PUSH2 0x3AE1 JUMP JUMPDEST SWAP3 POP POP PUSH1 0x20 DUP4 ADD MLOAD PUSH8 0xFFFFFFFFFFFFFFFF DUP2 GT ISZERO PUSH2 0x3BE8 JUMPI PUSH2 0x3BE7 PUSH2 0x34C8 JUMP JUMPDEST JUMPDEST PUSH2 0x3BF4 DUP6 DUP3 DUP7 ADD PUSH2 0x3B74 JUMP JUMPDEST SWAP2 POP POP SWAP3 POP SWAP3 SWAP1 POP JUMP JUMPDEST PUSH32 0x654D4E54523A2052657175657374206973206E6F74207965742066756C66696C PUSH1 0x0 DUP3 ADD MSTORE PUSH32 0x6C6564206F7220696E76616C696420726571756573742069642E000000000000 PUSH1 0x20 DUP3 ADD MSTORE POP JUMP JUMPDEST PUSH1 0x0 PUSH2 0x3C5A PUSH1 0x3A DUP4 PUSH2 0x3A4D JUMP JUMPDEST SWAP2 POP PUSH2 0x3C65 DUP3 PUSH2 0x3BFE JUMP JUMPDEST PUSH1 0x40 DUP3 ADD SWAP1 POP SWAP2 SWAP1 POP JUMP JUMPDEST PUSH1 0x0 PUSH1 0x20 DUP3 ADD SWAP1 POP DUP2 DUP2 SUB PUSH1 0x0 DUP4 ADD MSTORE PUSH2 0x3C89 DUP2 PUSH2 0x3C4D JUMP JUMPDEST SWAP1 POP SWAP2 SWAP1 POP JUMP JUMPDEST PUSH32 0x4E487B7100000000000000000000000000000000000000000000000000000000 PUSH1 0x0 MSTORE PUSH1 0x32 PUSH1 0x4 MSTORE PUSH1 0x24 PUSH1 0x0 REVERT JUMPDEST PUSH32 0x4E487B7100000000000000000000000000000000000000000000000000000000 PUSH1 0x0 MSTORE PUSH1 0x11 PUSH1 0x4 MSTORE PUSH1 0x24 PUSH1 0x0 REVERT JUMPDEST PUSH1 0x0 PUSH2 0x3CF9 DUP3 PUSH2 0x350D JUMP JUMPDEST SWAP2 POP PUSH32 0xFFFFFFFFFFFFFFFFFFFFFFFFFFFFFFFFFFFFFFFFFFFFFFFFFFFFFFFFFFFFFFFF DUP3 SUB PUSH2 0x3D2B JUMPI PUSH2 0x3D2A PUSH2 0x3CBF JUMP JUMPDEST JUMPDEST PUSH1 0x1 DUP3 ADD SWAP1 POP SWAP2 SWAP1 POP JUMP JUMPDEST PUSH32 0x654D4E54523A205468657265206973206120726571756573742070656E64696E PUSH1 0x0 DUP3 ADD MSTORE PUSH32 0x67206D696E742E00000000000000000000000000000000000000000000000000 PUSH1 0x20 DUP3 ADD MSTORE POP JUMP JUMPDEST PUSH1 0x0 PUSH2 0x3D92 PUSH1 0x27 DUP4 PUSH2 0x3A4D JUMP JUMPDEST SWAP2 POP PUSH2 0x3D9D DUP3 PUSH2 0x3D36 JUMP JUMPDEST PUSH1 0x40 DUP3 ADD SWAP1 POP SWAP2 SWAP1 POP JUMP JUMPDEST PUSH1 0x0 PUSH1 0x20 DUP3 ADD SWAP1 POP DUP2 DUP2 SUB PUSH1 0x0 DUP4 ADD MSTORE PUSH2 0x3DC1 DUP2 PUSH2 0x3D85 JUMP JUMPDEST SWAP1 POP SWAP2 SWAP1 POP JUMP JUMPDEST PUSH32 0x654D4E54523A20496E636F7272656374206E756D62657220666F7220616E2065 PUSH1 0x0 DUP3 ADD MSTORE PUSH32 0x717569706D656E7420747970652E000000000000000000000000000000000000 PUSH1 0x20 DUP3 ADD MSTORE POP JUMP JUMPDEST PUSH1 0x0 PUSH2 0x3E24 PUSH1 0x2E DUP4 PUSH2 0x3A4D JUMP JUMPDEST SWAP2 POP PUSH2 0x3E2F DUP3 PUSH2 0x3DC8 JUMP JUMPDEST PUSH1 0x40 DUP3 ADD SWAP1 POP SWAP2 SWAP1 POP JUMP JUMPDEST PUSH1 0x0 PUSH1 0x20 DUP3 ADD SWAP1 POP DUP2 DUP2 SUB PUSH1 0x0 DUP4 ADD MSTORE PUSH2 0x3E53 DUP2 PUSH2 0x3E17 JUMP JUMPDEST SWAP1 POP SWAP2 SWAP1 POP JUMP JUMPDEST PUSH32 0x654D4E54523A2043616E206F6E6C79207265717565737420746F206D696E7420 PUSH1 0x0 DUP3 ADD MSTORE PUSH32 0x3120746F2033206974656D7320617420612074696D652E000000000000000000 PUSH1 0x20 DUP3 ADD MSTORE POP JUMP JUMPDEST PUSH1 0x0 PUSH2 0x3EB6 PUSH1 0x37 DUP4 PUSH2 0x3A4D JUMP JUMPDEST SWAP2 POP PUSH2 0x3EC1 DUP3 PUSH2 0x3E5A JUMP JUMPDEST PUSH1 0x40 DUP3 ADD SWAP1 POP SWAP2 SWAP1 POP JUMP JUMPDEST PUSH1 0x0 PUSH1 0x20 DUP3 ADD SWAP1 POP DUP2 DUP2 SUB PUSH1 0x0 DUP4 ADD MSTORE PUSH2 0x3EE5 DUP2 PUSH2 0x3EA9 JUMP JUMPDEST SWAP1 POP SWAP2 SWAP1 POP JUMP JUMPDEST PUSH1 0x0 PUSH2 0x3EF7 DUP3 PUSH2 0x350D JUMP JUMPDEST SWAP2 POP PUSH2 0x3F02 DUP4 PUSH2 0x350D JUMP JUMPDEST SWAP3 POP DUP3 DUP3 MUL PUSH2 0x3F10 DUP2 PUSH2 0x350D JUMP JUMPDEST SWAP2 POP DUP3 DUP3 DIV DUP5 EQ DUP4 ISZERO OR PUSH2 0x3F27 JUMPI PUSH2 0x3F26 PUSH2 0x3CBF JUMP JUMPDEST JUMPDEST POP SWAP3 SWAP2 POP POP JUMP JUMPDEST PUSH32 0x654D4E54523A20496E636F727265637420616D6F756E7420666F722065717569 PUSH1 0x0 DUP3 ADD MSTORE PUSH32 0x706D656E74206D696E74696E672E2053656E642065786163746C7920302E3031 PUSH1 0x20 DUP3 ADD MSTORE PUSH32 0x204D4154494320706572206974656D207265717565737465642E000000000000 PUSH1 0x40 DUP3 ADD MSTORE POP JUMP JUMPDEST PUSH1 0x0 PUSH2 0x3FB0 PUSH1 0x5A DUP4 PUSH2 0x3A4D JUMP JUMPDEST SWAP2 POP PUSH2 0x3FBB DUP3 PUSH2 0x3F2E JUMP JUMPDEST PUSH1 0x60 DUP3 ADD SWAP1 POP SWAP2 SWAP1 POP JUMP JUMPDEST PUSH1 0x0 PUSH1 0x20 DUP3 ADD SWAP1 POP DUP2 DUP2 SUB PUSH1 0x0 DUP4 ADD MSTORE PUSH2 0x3FDF DUP2 PUSH2 0x3FA3 JUMP JUMPDEST SWAP1 POP SWAP2 SWAP1 POP JUMP JUMPDEST PUSH32 0x654D4E54523A204E6F7420656E6F756768206D6174657269616C7320666F7220 PUSH1 0x0 DUP3 ADD MSTORE PUSH32 0x74686973206372616674696E67207472616E73616374696F6E2E000000000000 PUSH1 0x20 DUP3 ADD MSTORE POP JUMP JUMPDEST PUSH1 0x0 PUSH2 0x4042 PUSH1 0x3A DUP4 PUSH2 0x3A4D JUMP JUMPDEST SWAP2 POP PUSH2 0x404D DUP3 PUSH2 0x3FE6 JUMP JUMPDEST PUSH1 0x40 DUP3 ADD SWAP1 POP SWAP2 SWAP1 POP JUMP JUMPDEST PUSH1 0x0 PUSH1 0x20 DUP3 ADD SWAP1 POP DUP2 DUP2 SUB PUSH1 0x0 DUP4 ADD MSTORE PUSH2 0x4071 DUP2 PUSH2 0x4035 JUMP JUMPDEST SWAP1 POP SWAP2 SWAP1 POP JUMP JUMPDEST PUSH1 0x0 PUSH1 0x60 DUP3 ADD SWAP1 POP PUSH2 0x408D PUSH1 0x0 DUP4 ADD DUP7 PUSH2 0x37E6 JUMP JUMPDEST PUSH2 0x409A PUSH1 0x20 DUP4 ADD DUP6 PUSH2 0x363C JUMP JUMPDEST PUSH2 0x40A7 PUSH1 0x40 DUP4 ADD DUP5 PUSH2 0x3657 JUMP JUMPDEST SWAP5 SWAP4 POP POP POP POP JUMP JUMPDEST PUSH1 0x0 PUSH1 0x20 DUP3 DUP5 SUB SLT ISZERO PUSH2 0x40C5 JUMPI PUSH2 0x40C4 PUSH2 0x34C3 JUMP JUMPDEST JUMPDEST PUSH1 0x0 PUSH2 0x40D3 DUP5 DUP3 DUP6 ADD PUSH2 0x3AF6 JUMP JUMPDEST SWAP2 POP POP SWAP3 SWAP2 POP POP JUMP JUMPDEST PUSH1 0x0 DUP2 PUSH1 0x0 SHR SWAP1 POP SWAP2 SWAP1 POP JUMP JUMPDEST PUSH1 0x0 DUP2 SWAP1 POP SWAP2 SWAP1 POP JUMP JUMPDEST PUSH1 0x0 PUSH2 0x4106 PUSH2 0x4101 DUP4 PUSH2 0x40DC JUMP JUMPDEST PUSH2 0x40E9 JUMP JUMPDEST SWAP1 POP SWAP2 SWAP1 POP JUMP JUMPDEST PUSH1 0x0 PUSH8 0xFFFFFFFFFFFFFFFF DUP3 AND SWAP1 POP SWAP2 SWAP1 POP JUMP JUMPDEST PUSH1 0x0 PUSH2 0x4134 PUSH2 0x412F DUP4 PUSH2 0x40DC JUMP JUMPDEST PUSH2 0x410D JUMP JUMPDEST SWAP1 POP SWAP2 SWAP1 POP JUMP JUMPDEST PUSH2 0x4144 DUP2 PUSH2 0x34CD JUMP JUMPDEST DUP3 MSTORE POP POP JUMP JUMPDEST PUSH1 0x0 DUP2 PUSH1 0x40 SHR SWAP1 POP SWAP2 SWAP1 POP JUMP JUMPDEST PUSH1 0x0 PUSH4 0xFFFFFFFF DUP3 AND SWAP1 POP SWAP2 SWAP1 POP JUMP JUMPDEST PUSH1 0x0 PUSH2 0x417A PUSH2 0x4175 DUP4 PUSH2 0x414A JUMP JUMPDEST PUSH2 0x4157 JUMP JUMPDEST SWAP1 POP SWAP2 SWAP1 POP JUMP JUMPDEST PUSH2 0x418A DUP2 PUSH2 0x362C JUMP JUMPDEST DUP3 MSTORE POP POP JUMP JUMPDEST PUSH1 0x0 PUSH1 0xFF DUP3 AND SWAP1 POP SWAP2 SWAP1 POP JUMP JUMPDEST PUSH1 0x0 PUSH2 0x41B0 PUSH2 0x41AB DUP4 PUSH2 0x40DC JUMP JUMPDEST PUSH2 0x4190 JUMP JUMPDEST SWAP1 POP SWAP2 SWAP1 POP JUMP JUMPDEST PUSH2 0x41C0 DUP2 PUSH2 0x364B JUMP JUMPDEST DUP3 MSTORE POP POP JUMP JUMPDEST PUSH1 0xA0 DUP3 ADD PUSH1 0x0 DUP1 DUP4 ADD SLOAD SWAP1 POP PUSH2 0x41DB DUP2 PUSH2 0x40F3 JUMP JUMPDEST PUSH2 0x41E8 PUSH1 0x0 DUP7 ADD DUP3 PUSH2 0x3701 JUMP JUMPDEST POP PUSH1 0x1 DUP4 ADD SLOAD SWAP1 POP PUSH2 0x41F9 DUP2 PUSH2 0x4121 JUMP JUMPDEST PUSH2 0x4206 PUSH1 0x20 DUP7 ADD DUP3 PUSH2 0x413B JUMP JUMPDEST POP PUSH2 0x4210 DUP2 PUSH2 0x4167 JUMP JUMPDEST PUSH2 0x421D PUSH1 0x40 DUP7 ADD DUP3 PUSH2 0x4181 JUMP JUMPDEST POP PUSH1 0x2 DUP4 ADD SLOAD SWAP1 POP PUSH2 0x422E DUP2 PUSH2 0x40F3 JUMP JUMPDEST PUSH2 0x423B PUSH1 0x60 DUP7 ADD DUP3 PUSH2 0x3701 JUMP JUMPDEST POP PUSH1 0x3 DUP4 ADD SLOAD SWAP1 POP PUSH2 0x424C DUP2 PUSH2 0x419D JUMP JUMPDEST PUSH2 0x4259 PUSH1 0x80 DUP7 ADD DUP3 PUSH2 0x41B7 JUMP JUMPDEST POP POP POP POP POP JUMP JUMPDEST PUSH1 0x0 PUSH1 0xA0 DUP3 ADD SWAP1 POP PUSH2 0x4275 PUSH1 0x0 DUP4 ADD DUP5 PUSH2 0x41C6 JUMP JUMPDEST SWAP3 SWAP2 POP POP JUMP JUMPDEST PUSH1 0x0 DUP2 SWAP1 POP SWAP3 SWAP2 POP POP JUMP JUMPDEST POP JUMP JUMPDEST PUSH1 0x0 PUSH2 0x4296 PUSH1 0x0 DUP4 PUSH2 0x427B JUMP JUMPDEST SWAP2 POP PUSH2 0x42A1 DUP3 PUSH2 0x4286 JUMP JUMPDEST PUSH1 0x0 DUP3 ADD SWAP1 POP SWAP2 SWAP1 POP JUMP JUMPDEST PUSH1 0x0 PUSH2 0x42B7 DUP3 PUSH2 0x4289 JUMP JUMPDEST SWAP2 POP DUP2 SWAP1 POP SWAP2 SWAP1 POP JUMP JUMPDEST PUSH32 0x4661696C656420746F207769746864726177206D61746963732E000000000000 PUSH1 0x0 DUP3 ADD MSTORE POP JUMP JUMPDEST PUSH1 0x0 PUSH2 0x42F7 PUSH1 0x1A DUP4 PUSH2 0x3A4D JUMP JUMPDEST SWAP2 POP PUSH2 0x4302 DUP3 PUSH2 0x42C1 JUMP JUMPDEST PUSH1 0x20 DUP3 ADD SWAP1 POP SWAP2 SWAP1 POP JUMP JUMPDEST PUSH1 0x0 PUSH1 0x20 DUP3 ADD SWAP1 POP DUP2 DUP2 SUB PUSH1 0x0 DUP4 ADD MSTORE PUSH2 0x4326 DUP2 PUSH2 0x42EA JUMP JUMPDEST SWAP1 POP SWAP2 SWAP1 POP JUMP JUMPDEST PUSH32 0x654D4E54523A2043616E206F6E6C792062652063616C6C656420627920746865 PUSH1 0x0 DUP3 ADD MSTORE PUSH32 0x2056524620436F6E747261637420666F722065717569706D656E742063726166 PUSH1 0x20 DUP3 ADD MSTORE PUSH32 0x74696E672E000000000000000000000000000000000000000000000000000000 PUSH1 0x40 DUP3 ADD MSTORE POP JUMP JUMPDEST PUSH1 0x0 PUSH2 0x43AF PUSH1 0x45 DUP4 PUSH2 0x3A4D JUMP JUMPDEST SWAP2 POP PUSH2 0x43BA DUP3 PUSH2 0x432D JUMP JUMPDEST PUSH1 0x60 DUP3 ADD SWAP1 POP SWAP2 SWAP1 POP JUMP JUMPDEST PUSH1 0x0 PUSH1 0x20 DUP3 ADD SWAP1 POP DUP2 DUP2 SUB PUSH1 0x0 DUP4 ADD MSTORE PUSH2 0x43DE DUP2 PUSH2 0x43A2 JUMP JUMPDEST SWAP1 POP SWAP2 SWAP1 POP JUMP JUMPDEST PUSH32 0x654D4E54523A20696E76616C6964206571707420747970652E00000000000000 PUSH1 0x0 DUP3 ADD MSTORE POP JUMP JUMPDEST PUSH1 0x0 PUSH2 0x441B PUSH1 0x19 DUP4 PUSH2 0x3A4D JUMP JUMPDEST SWAP2 POP PUSH2 0x4426 DUP3 PUSH2 0x43E5 JUMP JUMPDEST PUSH1 0x20 DUP3 ADD SWAP1 POP SWAP2 SWAP1 POP JUMP JUMPDEST PUSH1 0x0 PUSH1 0x20 DUP3 ADD SWAP1 POP DUP2 DUP2 SUB PUSH1 0x0 DUP4 ADD MSTORE PUSH2 0x444A DUP2 PUSH2 0x440E JUMP JUMPDEST SWAP1 POP SWAP2 SWAP1 POP JUMP JUMPDEST PUSH32 0x654D4E54523A2073656E6420302E3031206D6174696300000000000000000000 PUSH1 0x0 DUP3 ADD MSTORE POP JUMP JUMPDEST PUSH1 0x0 PUSH2 0x4487 PUSH1 0x16 DUP4 PUSH2 0x3A4D JUMP JUMPDEST SWAP2 POP PUSH2 0x4492 DUP3 PUSH2 0x4451 JUMP JUMPDEST PUSH1 0x20 DUP3 ADD SWAP1 POP SWAP2 SWAP1 POP JUMP JUMPDEST PUSH1 0x0 PUSH1 0x20 DUP3 ADD SWAP1 POP DUP2 DUP2 SUB PUSH1 0x0 DUP4 ADD MSTORE PUSH2 0x44B6 DUP2 PUSH2 0x447A JUMP JUMPDEST SWAP1 POP SWAP2 SWAP1 POP JUMP JUMPDEST PUSH32 0x654D4E54523A2063686172616374657220616C7265616479206D696E7465642E PUSH1 0x0 DUP3 ADD MSTORE POP JUMP JUMPDEST PUSH1 0x0 PUSH2 0x44F3 PUSH1 0x20 DUP4 PUSH2 0x3A4D JUMP JUMPDEST SWAP2 POP PUSH2 0x44FE DUP3 PUSH2 0x44BD JUMP JUMPDEST PUSH1 0x20 DUP3 ADD SWAP1 POP SWAP2 SWAP1 POP JUMP JUMPDEST PUSH1 0x0 PUSH1 0x20 DUP3 ADD SWAP1 POP DUP2 DUP2 SUB PUSH1 0x0 DUP4 ADD MSTORE PUSH2 0x4522 DUP2 PUSH2 0x44E6 JUMP JUMPDEST SWAP1 POP SWAP2 SWAP1 POP JUMP JUMPDEST PUSH1 0x0 DUP1 REVERT JUMPDEST PUSH2 0x4537 DUP2 PUSH2 0x362C JUMP JUMPDEST DUP2 EQ PUSH2 0x4542 JUMPI PUSH1 0x0 DUP1 REVERT JUMPDEST POP JUMP JUMPDEST PUSH1 0x0 DUP2 MLOAD SWAP1 POP PUSH2 0x4554 DUP2 PUSH2 0x452E JUMP JUMPDEST SWAP3 SWAP2 POP POP JUMP JUMPDEST PUSH1 0x0 PUSH2 0x100 DUP3 DUP5 SUB SLT ISZERO PUSH2 0x4571 JUMPI PUSH2 0x4570 PUSH2 0x4529 JUMP JUMPDEST JUMPDEST PUSH2 0x457C PUSH2 0x100 PUSH2 0x3886 JUMP JUMPDEST SWAP1 POP PUSH1 0x0 PUSH2 0x458C DUP5 DUP3 DUP6 ADD PUSH2 0x4545 JUMP JUMPDEST PUSH1 0x0 DUP4 ADD MSTORE POP PUSH1 0x20 PUSH2 0x45A0 DUP5 DUP3 DUP6 ADD PUSH2 0x4545 JUMP JUMPDEST PUSH1 0x20 DUP4 ADD MSTORE POP PUSH1 0x40 PUSH2 0x45B4 DUP5 DUP3 DUP6 ADD PUSH2 0x4545 JUMP JUMPDEST PUSH1 0x40 DUP4 ADD MSTORE POP PUSH1 0x60 PUSH2 0x45C8 DUP5 DUP3 DUP6 ADD PUSH2 0x4545 JUMP JUMPDEST PUSH1 0x60 DUP4 ADD MSTORE POP PUSH1 0x80 PUSH2 0x45DC DUP5 DUP3 DUP6 ADD PUSH2 0x4545 JUMP JUMPDEST PUSH1 0x80 DUP4 ADD MSTORE POP PUSH1 0xA0 PUSH2 0x45F0 DUP5 DUP3 DUP6 ADD PUSH2 0x4545 JUMP JUMPDEST PUSH1 0xA0 DUP4 ADD MSTORE POP PUSH1 0xC0 PUSH2 0x4604 DUP5 DUP3 DUP6 ADD PUSH2 0x4545 JUMP JUMPDEST PUSH1 0xC0 DUP4 ADD MSTORE POP PUSH1 0xE0 PUSH2 0x4618 DUP5 DUP3 DUP6 ADD PUSH2 0x4545 JUMP JUMPDEST PUSH1 0xE0 DUP4 ADD MSTORE POP SWAP3 SWAP2 POP POP JUMP JUMPDEST PUSH1 0x0 PUSH2 0x100 DUP3 DUP5 SUB SLT ISZERO PUSH2 0x463B JUMPI PUSH2 0x463A PUSH2 0x34C3 JUMP JUMPDEST JUMPDEST PUSH1 0x0 PUSH2 0x4649 DUP5 DUP3 DUP6 ADD PUSH2 0x455A JUMP JUMPDEST SWAP2 POP POP SWAP3 SWAP2 POP POP JUMP JUMPDEST PUSH32 0x654D4E54523A20696E7375662063686172206578702E00000000000000000000 PUSH1 0x0 DUP3 ADD MSTORE POP JUMP JUMPDEST PUSH1 0x0 PUSH2 0x4688 PUSH1 0x16 DUP4 PUSH2 0x3A4D JUMP JUMPDEST SWAP2 POP PUSH2 0x4693 DUP3 PUSH2 0x4652 JUMP JUMPDEST PUSH1 0x20 DUP3 ADD SWAP1 POP SWAP2 SWAP1 POP JUMP JUMPDEST PUSH1 0x0 PUSH1 0x20 DUP3 ADD SWAP1 POP DUP2 DUP2 SUB PUSH1 0x0 DUP4 ADD MSTORE PUSH2 0x46B7 DUP2 PUSH2 0x467B JUMP JUMPDEST SWAP1 POP SWAP2 SWAP1 POP JUMP JUMPDEST PUSH1 0x0 PUSH1 0x40 DUP3 ADD SWAP1 POP PUSH2 0x46D3 PUSH1 0x0 DUP4 ADD DUP6 PUSH2 0x37E6 JUMP JUMPDEST PUSH2 0x46E0 PUSH1 0x20 DUP4 ADD DUP5 PUSH2 0x360E JUMP JUMPDEST SWAP4 SWAP3 POP POP POP JUMP JUMPDEST PUSH1 0x0 PUSH1 0x20 DUP3 DUP5 SUB SLT ISZERO PUSH2 0x46FD JUMPI PUSH2 0x46FC PUSH2 0x34C3 JUMP JUMPDEST JUMPDEST PUSH1 0x0 PUSH2 0x470B DUP5 DUP3 DUP6 ADD PUSH2 0x3AE1 JUMP JUMPDEST SWAP2 POP POP SWAP3 SWAP2 POP POP JUMP JUMPDEST PUSH32 0x654D4E54523A20636861726163746572206E6F74206F776E65642E0000000000 PUSH1 0x0 DUP3 ADD MSTORE POP JUMP JUMPDEST PUSH1 0x0 PUSH2 0x474A PUSH1 0x1B DUP4 PUSH2 0x3A4D JUMP JUMPDEST SWAP2 POP PUSH2 0x4755 DUP3 PUSH2 0x4714 JUMP JUMPDEST PUSH1 0x20 DUP3 ADD SWAP1 POP SWAP2 SWAP1 POP JUMP JUMPDEST PUSH1 0x0 PUSH1 0x20 DUP3 ADD SWAP1 POP DUP2 DUP2 SUB PUSH1 0x0 DUP4 ADD MSTORE PUSH2 0x4779 DUP2 PUSH2 0x473D JUMP JUMPDEST SWAP1 POP SWAP2 SWAP1 POP JUMP JUMPDEST PUSH1 0x0 DUP2 SWAP1 POP SWAP2 SWAP1 POP JUMP JUMPDEST PUSH1 0x0 DUP2 SWAP1 POP SWAP2 SWAP1 POP JUMP JUMPDEST PUSH1 0x0 PUSH2 0x47AF PUSH2 0x47AA PUSH2 0x47A5 DUP5 PUSH2 0x4780 JUMP JUMPDEST PUSH2 0x478A JUMP JUMPDEST PUSH2 0x362C JUMP JUMPDEST SWAP1 POP SWAP2 SWAP1 POP JUMP JUMPDEST PUSH2 0x47BF DUP2 PUSH2 0x4794 JUMP JUMPDEST DUP3 MSTORE POP POP JUMP JUMPDEST PUSH1 0x0 PUSH1 0x60 DUP3 ADD SWAP1 POP PUSH2 0x47DA PUSH1 0x0 DUP4 ADD DUP7 PUSH2 0x37E6 JUMP JUMPDEST PUSH2 0x47E7 PUSH1 0x20 DUP4 ADD DUP6 PUSH2 0x47B6 JUMP JUMPDEST PUSH2 0x47F4 PUSH1 0x40 DUP4 ADD DUP5 PUSH2 0x3657 JUMP JUMPDEST SWAP5 SWAP4 POP POP POP POP JUMP JUMPDEST PUSH32 0x654D4E54523A2043616E6E6F742063616E63656C206E6F6E2D6578697374696E PUSH1 0x0 DUP3 ADD MSTORE PUSH32 0x672072657175657374732E000000000000000000000000000000000000000000 PUSH1 0x20 DUP3 ADD MSTORE POP JUMP JUMPDEST PUSH1 0x0 PUSH2 0x4858 PUSH1 0x2B DUP4 PUSH2 0x3A4D JUMP JUMPDEST SWAP2 POP PUSH2 0x4863 DUP3 PUSH2 0x47FC JUMP JUMPDEST PUSH1 0x40 DUP3 ADD SWAP1 POP SWAP2 SWAP1 POP JUMP JUMPDEST PUSH1 0x0 PUSH1 0x20 DUP3 ADD SWAP1 POP DUP2 DUP2 SUB PUSH1 0x0 DUP4 ADD MSTORE PUSH2 0x4887 DUP2 PUSH2 0x484B JUMP JUMPDEST SWAP1 POP SWAP2 SWAP1 POP JUMP JUMPDEST PUSH1 0x0 PUSH2 0x4899 DUP3 PUSH2 0x350D JUMP JUMPDEST SWAP2 POP PUSH2 0x48A4 DUP4 PUSH2 0x350D JUMP JUMPDEST SWAP3 POP DUP3 DUP3 SUB SWAP1 POP DUP2 DUP2 GT ISZERO PUSH2 0x48BC JUMPI PUSH2 0x48BB PUSH2 0x3CBF JUMP JUMPDEST JUMPDEST SWAP3 SWAP2 POP POP JUMP JUMPDEST PUSH32 0x654D4E54523A2043616E6E6F742063616E63656C207265717565737473207468 PUSH1 0x0 DUP3 ADD MSTORE PUSH32 0x617420686176656E74206C6170736564203120686F75722066726F6D2074696D PUSH1 0x20 DUP3 ADD MSTORE PUSH32 0x65207265717565737465642E0000000000000000000000000000000000000000 PUSH1 0x40 DUP3 ADD MSTORE POP JUMP JUMPDEST PUSH1 0x0 PUSH2 0x4944 PUSH1 0x4C DUP4 PUSH2 0x3A4D JUMP JUMPDEST SWAP2 POP PUSH2 0x494F DUP3 PUSH2 0x48C2 JUMP JUMPDEST PUSH1 0x60 DUP3 ADD SWAP1 POP SWAP2 SWAP1 POP JUMP JUMPDEST PUSH1 0x0 PUSH1 0x20 DUP3 ADD SWAP1 POP DUP2 DUP2 SUB PUSH1 0x0 DUP4 ADD MSTORE PUSH2 0x4973 DUP2 PUSH2 0x4937 JUMP JUMPDEST SWAP1 POP SWAP2 SWAP1 POP JUMP JUMPDEST PUSH32 0x654D4E54523A2043616E6E6F742063616E63656C207265717565737473207468 PUSH1 0x0 DUP3 ADD MSTORE PUSH32 0x6174206861766520616C7265616479206265656E2066756C66696C6C65642E00 PUSH1 0x20 DUP3 ADD MSTORE POP JUMP JUMPDEST PUSH1 0x0 PUSH2 0x49D6 PUSH1 0x3F DUP4 PUSH2 0x3A4D JUMP JUMPDEST SWAP2 POP PUSH2 0x49E1 DUP3 PUSH2 0x497A JUMP JUMPDEST PUSH1 0x40 DUP3 ADD SWAP1 POP SWAP2 SWAP1 POP JUMP JUMPDEST PUSH1 0x0 PUSH1 0x20 DUP3 ADD SWAP1 POP DUP2 DUP2 SUB PUSH1 0x0 DUP4 ADD MSTORE PUSH2 0x4A05 DUP2 PUSH2 0x49C9 JUMP JUMPDEST SWAP1 POP SWAP2 SWAP1 POP JUMP JUMPDEST PUSH32 0x4F776E61626C653A206E6577206F776E657220697320746865207A65726F2061 PUSH1 0x0 DUP3 ADD MSTORE PUSH32 0x6464726573730000000000000000000000000000000000000000000000000000 PUSH1 0x20 DUP3 ADD MSTORE POP JUMP JUMPDEST PUSH1 0x0 PUSH2 0x4A68 PUSH1 0x26 DUP4 PUSH2 0x3A4D JUMP JUMPDEST SWAP2 POP PUSH2 0x4A73 DUP3 PUSH2 0x4A0C JUMP JUMPDEST PUSH1 0x40 DUP3 ADD SWAP1 POP SWAP2 SWAP1 POP JUMP JUMPDEST PUSH1 0x0 PUSH1 0x20 DUP3 ADD SWAP1 POP DUP2 DUP2 SUB PUSH1 0x0 DUP4 ADD MSTORE PUSH2 0x4A97 DUP2 PUSH2 0x4A5B JUMP JUMPDEST SWAP1 POP SWAP2 SWAP1 POP JUMP JUMPDEST PUSH32 0x4E487B7100000000000000000000000000000000000000000000000000000000 PUSH1 0x0 MSTORE PUSH1 0x12 PUSH1 0x4 MSTORE PUSH1 0x24 PUSH1 0x0 REVERT JUMPDEST PUSH1 0x0 PUSH2 0x4AD8 DUP3 PUSH2 0x350D JUMP JUMPDEST SWAP2 POP PUSH2 0x4AE3 DUP4 PUSH2 0x350D JUMP JUMPDEST SWAP3 POP DUP3 PUSH2 0x4AF3 JUMPI PUSH2 0x4AF2 PUSH2 0x4A9E JUMP JUMPDEST JUMPDEST DUP3 DUP3 MOD SWAP1 POP SWAP3 SWAP2 POP POP JUMP JUMPDEST PUSH1 0x0 PUSH2 0x4B09 DUP3 PUSH2 0x350D JUMP JUMPDEST SWAP2 POP PUSH2 0x4B14 DUP4 PUSH2 0x350D JUMP JUMPDEST SWAP3 POP DUP3 DUP3 ADD SWAP1 POP DUP1 DUP3 GT ISZERO PUSH2 0x4B2C JUMPI PUSH2 0x4B2B PUSH2 0x3CBF JUMP JUMPDEST JUMPDEST SWAP3 SWAP2 POP POP JUMP JUMPDEST PUSH1 0x80 DUP3 ADD PUSH1 0x0 DUP3 ADD MLOAD PUSH2 0x4B48 PUSH1 0x0 DUP6 ADD DUP3 PUSH2 0x413B JUMP JUMPDEST POP PUSH1 0x20 DUP3 ADD MLOAD PUSH2 0x4B5B PUSH1 0x20 DUP6 ADD DUP3 PUSH2 0x413B JUMP JUMPDEST POP PUSH1 0x40 DUP3 ADD MLOAD PUSH2 0x4B6E PUSH1 0x40 DUP6 ADD DUP3 PUSH2 0x413B JUMP JUMPDEST POP PUSH1 0x60 DUP3 ADD MLOAD PUSH2 0x4B81 PUSH1 0x60 DUP6 ADD DUP3 PUSH2 0x413B JUMP JUMPDEST POP POP POP POP JUMP JUMPDEST PUSH2 0x100 DUP3 ADD PUSH1 0x0 DUP3 ADD MLOAD PUSH2 0x4B9E PUSH1 0x0 DUP6 ADD DUP3 PUSH2 0x3701 JUMP JUMPDEST POP PUSH1 0x20 DUP3 ADD MLOAD PUSH2 0x4BB1 PUSH1 0x20 DUP6 ADD DUP3 PUSH2 0x3701 JUMP JUMPDEST POP PUSH1 0x40 DUP3 ADD MLOAD PUSH2 0x4BC4 PUSH1 0x40 DUP6 ADD DUP3 PUSH2 0x3701 JUMP JUMPDEST POP PUSH1 0x60 DUP3 ADD MLOAD PUSH2 0x4BD7 PUSH1 0x60 DUP6 ADD DUP3 PUSH2 0x3701 JUMP JUMPDEST POP PUSH1 0x80 DUP3 ADD MLOAD PUSH2 0x4BEA PUSH1 0x80 DUP6 ADD DUP3 PUSH2 0x3701 JUMP JUMPDEST POP PUSH1 0xA0 DUP3 ADD MLOAD PUSH2 0x4BFD PUSH1 0xA0 DUP6 ADD DUP3 PUSH2 0x3701 JUMP JUMPDEST POP PUSH1 0xC0 DUP3 ADD MLOAD PUSH2 0x4C10 PUSH1 0xC0 DUP6 ADD DUP3 PUSH2 0x3701 JUMP JUMPDEST POP PUSH1 0xE0 DUP3 ADD MLOAD PUSH2 0x4C23 PUSH1 0xE0 DUP6 ADD DUP3 PUSH2 0x3701 JUMP JUMPDEST POP POP POP POP JUMP JUMPDEST PUSH1 0x0 PUSH2 0x1A0 DUP3 ADD SWAP1 POP PUSH2 0x4C3F PUSH1 0x0 DUP4 ADD DUP7 PUSH2 0x37E6 JUMP JUMPDEST PUSH2 0x4C4C PUSH1 0x20 DUP4 ADD DUP6 PUSH2 0x4B32 JUMP JUMPDEST PUSH2 0x4C59 PUSH1 0xA0 DUP4 ADD DUP5 PUSH2 0x4B87 JUMP JUMPDEST SWAP5 SWAP4 POP POP POP POP JUMP JUMPDEST PUSH32 0x5061757361626C653A2070617573656400000000000000000000000000000000 PUSH1 0x0 DUP3 ADD MSTORE POP JUMP JUMPDEST PUSH1 0x0 PUSH2 0x4C97 PUSH1 0x10 DUP4 PUSH2 0x3A4D JUMP JUMPDEST SWAP2 POP PUSH2 0x4CA2 DUP3 PUSH2 0x4C61 JUMP JUMPDEST PUSH1 0x20 DUP3 ADD SWAP1 POP SWAP2 SWAP1 POP JUMP JUMPDEST PUSH1 0x0 PUSH1 0x20 DUP3 ADD SWAP1 POP DUP2 DUP2 SUB PUSH1 0x0 DUP4 ADD MSTORE PUSH2 0x4CC6 DUP2 PUSH2 0x4C8A JUMP JUMPDEST SWAP1 POP SWAP2 SWAP1 POP JUMP JUMPDEST PUSH32 0x4F776E61626C653A2063616C6C6572206973206E6F7420746865206F776E6572 PUSH1 0x0 DUP3 ADD MSTORE POP JUMP JUMPDEST PUSH1 0x0 PUSH2 0x4D03 PUSH1 0x20 DUP4 PUSH2 0x3A4D JUMP JUMPDEST SWAP2 POP PUSH2 0x4D0E DUP3 PUSH2 0x4CCD JUMP JUMPDEST PUSH1 0x20 DUP3 ADD SWAP1 POP SWAP2 SWAP1 POP JUMP JUMPDEST PUSH1 0x0 PUSH1 0x20 DUP3 ADD SWAP1 POP DUP2 DUP2 SUB PUSH1 0x0 DUP4 ADD MSTORE PUSH2 0x4D32 DUP2 PUSH2 0x4CF6 JUMP JUMPDEST SWAP1 POP SWAP2 SWAP1 POP JUMP JUMPDEST PUSH1 0x0 DUP2 SWAP1 POP SWAP2 SWAP1 POP JUMP JUMPDEST PUSH1 0x0 PUSH2 0x4D4E DUP3 PUSH2 0x4D39 JUMP JUMPDEST SWAP2 POP PUSH32 0x8000000000000000000000000000000000000000000000000000000000000000 DUP3 SUB PUSH2 0x4D80 JUMPI PUSH2 0x4D7F PUSH2 0x3CBF JUMP JUMPDEST JUMPDEST PUSH1 0x1 DUP3 SUB SWAP1 POP SWAP2 SWAP1 POP JUMP JUMPDEST PUSH1 0x0 PUSH2 0xFFFF DUP3 AND SWAP1 POP SWAP2 SWAP1 POP JUMP JUMPDEST PUSH1 0x0 PUSH2 0x4DA4 DUP3 PUSH2 0x4D8B JUMP JUMPDEST SWAP2 POP PUSH2 0x4DAF DUP4 PUSH2 0x4D8B JUMP JUMPDEST SWAP3 POP DUP3 PUSH2 0x4DBF JUMPI PUSH2 0x4DBE PUSH2 0x4A9E JUMP JUMPDEST JUMPDEST DUP3 DUP3 MOD SWAP1 POP SWAP3 SWAP2 POP POP JUMP JUMPDEST PUSH1 0x0 PUSH2 0x4DD5 DUP3 PUSH2 0x350D JUMP JUMPDEST SWAP2 POP PUSH2 0x4DE0 DUP4 PUSH2 0x350D JUMP JUMPDEST SWAP3 POP DUP3 PUSH2 0x4DF0 JUMPI PUSH2 0x4DEF PUSH2 0x4A9E JUMP JUMPDEST JUMPDEST DUP3 DUP3 DIV SWAP1 POP SWAP3 SWAP2 POP POP JUMP INVALID LOG2 PUSH5 0x6970667358 0x22 SLT KECCAK256 0xB9 SWAP13 0xB5 SDIV 0xCD POP 0xB4 0xE8 0xE0 PUSH27 0x85397E480D13DE4CD5D038A9ED3FC08D20A3F9D4BF7664736F6C63 NUMBER STOP ADDMOD GT STOP CALLER "},"methodIdentifiers":{"cancelRequestExperimental()":"b25f9b3e","character_minted_free(uint256,uint256)":"a330e03e","getEquipmentRecipe(uint256)":"8428e99a","mintEquipments()":"08e6b2c9","mintEquipmentsExperimental(address,uint256[])":"a9a876af","mint_fee()":"da610fcf","owner()":"8da5cb5b","paused()":"5c975abb","renounceOwnership()":"715018a6","request(address)":"27c78c42","requestEquipment(uint64,uint256)":"20b37cfc","requestEquipmentExperimental(uint64)":"e9ff18c6","requestEquipmentFree(uint256,uint64)":"ab111add","setMintFee(uint256)":"eddd0d9c","setRandomizationContract(address)":"5473e978","transferOwnership(address)":"f2fde38b","userMaterialsEnough(uint256,uint256)":"87acbc97","withdraw()":"3ccfd60b"}}}}}