{
  "_format": "hh-sol-artifact-1",
  "contractName": "TestVRF",
  "sourceName": "contracts/periphery/chainlink/vrf/test/testVrf.sol",
  "abi": [
    {
      "inputs": [],
      "stateMutability": "nonpayable",
      "type": "constructor"
    },
    {
      "anonymous": false,
      "inputs": [
        {
          "indexed": false,
          "internalType": "uint256",
          "name": "requestId",
          "type": "uint256"
        },
        {
          "indexed": false,
          "internalType": "uint256[]",
          "name": "randomWords",
          "type": "uint256[]"
        },
        {
          "indexed": false,
          "internalType": "address",
          "name": "user",
          "type": "address"
        },
        {
          "indexed": false,
          "internalType": "bool",
          "name": "experimental",
          "type": "bool"
        }
      ],
      "name": "RequestFulfilled",
      "type": "event"
    },
    {
      "anonymous": false,
      "inputs": [
        {
          "indexed": false,
          "internalType": "uint256",
          "name": "requestId",
          "type": "uint256"
        },
        {
          "indexed": false,
          "internalType": "uint32",
          "name": "numWords",
          "type": "uint32"
        },
        {
          "indexed": false,
          "internalType": "address",
          "name": "user",
          "type": "address"
        },
        {
          "indexed": false,
          "internalType": "bool",
          "name": "experimental",
          "type": "bool"
        }
      ],
      "name": "RequestSent",
      "type": "event"
    },
    {
      "inputs": [
        {
          "internalType": "uint256",
          "name": "_requestId",
          "type": "uint256"
        }
      ],
      "name": "getRequestStatus",
      "outputs": [
        {
          "internalType": "bool",
          "name": "fulfilled",
          "type": "bool"
        },
        {
          "internalType": "uint256[]",
          "name": "randomWords",
          "type": "uint256[]"
        }
      ],
      "stateMutability": "view",
      "type": "function"
    },
    {
      "inputs": [],
      "name": "lastRequestId",
      "outputs": [
        {
          "internalType": "uint256",
          "name": "",
          "type": "uint256"
        }
      ],
      "stateMutability": "view",
      "type": "function"
    },
    {
      "inputs": [
        {
          "internalType": "uint256",
          "name": "",
          "type": "uint256"
        }
      ],
      "name": "requestIdToUser",
      "outputs": [
        {
          "internalType": "address",
          "name": "",
          "type": "address"
        }
      ],
      "stateMutability": "view",
      "type": "function"
    },
    {
      "inputs": [
        {
          "internalType": "uint256",
          "name": "",
          "type": "uint256"
        }
      ],
      "name": "requestIds",
      "outputs": [
        {
          "internalType": "uint256",
          "name": "",
          "type": "uint256"
        }
      ],
      "stateMutability": "view",
      "type": "function"
    },
    {
      "inputs": [
        {
          "internalType": "address",
          "name": "user",
          "type": "address"
        },
        {
          "internalType": "uint32",
          "name": "numWords",
          "type": "uint32"
        },
        {
          "internalType": "bool",
          "name": "_experimental",
          "type": "bool"
        }
      ],
      "name": "requestRandomWords",
      "outputs": [
        {
          "internalType": "uint256",
          "name": "requestId",
          "type": "uint256"
        }
      ],
      "stateMutability": "nonpayable",
      "type": "function"
    },
    {
      "inputs": [
        {
          "internalType": "uint256",
          "name": "",
          "type": "uint256"
        }
      ],
      "name": "s_requests",
      "outputs": [
        {
          "internalType": "bool",
          "name": "fulfilled",
          "type": "bool"
        },
        {
          "internalType": "bool",
          "name": "exists",
          "type": "bool"
        },
        {
          "internalType": "bool",
          "name": "experimental",
          "type": "bool"
        }
      ],
      "stateMutability": "view",
      "type": "function"
    }
  ],
  "bytecode": "0x608060405234801561001057600080fd5b50610da9806100206000396000f3fe608060405234801561001057600080fd5b50600436106100625760003560e01c80638796ba8c146100675780639bca039d14610097578063a168fa89146100c7578063d8a4676f146100f9578063dc7d73bb1461012a578063fc2a88c31461015a575b600080fd5b610081600480360381019061007c9190610826565b610178565b60405161008e9190610862565b60405180910390f35b6100b160048036038101906100ac919061094f565b61019c565b6040516100be9190610862565b60405180910390f35b6100e160048036038101906100dc9190610826565b61038b565b6040516100f0939291906109b1565b60405180910390f35b610113600480360381019061010e9190610826565b6103dc565b604051610121929190610aa6565b60405180910390f35b610144600480360381019061013f9190610826565b610520565b6040516101519190610ae5565b60405180910390f35b610162610553565b60405161016f9190610862565b60405180910390f35b6002818154811061018857600080fd5b906000526020600020016000915090505481565b600060016003546101ad9190610b2f565b90506040518060800160405280600015158152602001600115158152602001600067ffffffffffffffff8111156101e7576101e6610b63565b5b6040519080825280602002602001820160405280156102155781602001602082028036833780820191505090505b50815260200183151581525060008083815260200190815260200160002060008201518160000160006101000a81548160ff02191690831515021790555060208201518160000160016101000a81548160ff021916908315150217905550604082015181600101908051906020019061028f929190610781565b5060608201518160020160006101000a81548160ff021916908315150217905550905050600281908060018154018082558091505060019003906000526020600020016000909190919091505580600381905550836001600083815260200190815260200160002060006101000a81548173ffffffffffffffffffffffffffffffffffffffff021916908373ffffffffffffffffffffffffffffffffffffffff1602179055507fb8453fd5dd0230d943eee23a0979d14131d507cce20c48722fdb2d0b956f1d4b8184868560405161036a9493929190610ba1565b60405180910390a16103848161037f85610559565b610631565b9392505050565b60006020528060005260406000206000915090508060000160009054906101000a900460ff16908060000160019054906101000a900460ff16908060020160009054906101000a900460ff16905083565b6000606060008084815260200190815260200160002060000160019054906101000a900460ff16610442576040517f08c379a000000000000000000000000000000000000000000000000000000000815260040161043990610c43565b60405180910390fd5b60008060008581526020019081526020016000206040518060800160405290816000820160009054906101000a900460ff161515151581526020016000820160019054906101000a900460ff16151515158152602001600182018054806020026020016040519081016040528092919081815260200182805480156104e657602002820191906000526020600020905b8154815260200190600101908083116104d2575b505050505081526020016002820160009054906101000a900460ff1615151515815250509050806000015181604001519250925050915091565b60016020528060005260406000206000915054906101000a900473ffffffffffffffffffffffffffffffffffffffff1681565b60035481565b606060008263ffffffff1667ffffffffffffffff81111561057d5761057c610b63565b5b6040519080825280602002602001820160405280156105ab5781602001602082028036833780820191505090505b50905060005b8363ffffffff16811015610627576000434060001c826040516020016105d8929190610c84565b6040516020818303038152906040528051906020012060001c90508083838151811061060757610606610cb0565b5b60200260200101818152505050808061061f90610cdf565b9150506105b1565b5080915050919050565b60008083815260200190815260200160002060000160019054906101000a900460ff16610693576040517f08c379a000000000000000000000000000000000000000000000000000000000815260040161068a90610c43565b60405180910390fd5b600160008084815260200190815260200160002060000160006101000a81548160ff0219169083151502179055508060008084815260200190815260200160002060010190805190602001906106ea929190610781565b507f2ffe53b8e09a16b5df366b82e23cb08b2bb3aa5a1fe761d1db1aaa4ecd6cdfc182826001600086815260200190815260200160002060009054906101000a900473ffffffffffffffffffffffffffffffffffffffff1660008087815260200190815260200160002060020160009054906101000a900460ff166040516107759493929190610d27565b60405180910390a15050565b8280548282559060005260206000209081019282156107bd579160200282015b828111156107bc5782518255916020019190600101906107a1565b5b5090506107ca91906107ce565b5090565b5b808211156107e75760008160009055506001016107cf565b5090565b600080fd5b6000819050919050565b610803816107f0565b811461080e57600080fd5b50565b600081359050610820816107fa565b92915050565b60006020828403121561083c5761083b6107eb565b5b600061084a84828501610811565b91505092915050565b61085c816107f0565b82525050565b60006020820190506108776000830184610853565b92915050565b600073ffffffffffffffffffffffffffffffffffffffff82169050919050565b60006108a88261087d565b9050919050565b6108b88161089d565b81146108c357600080fd5b50565b6000813590506108d5816108af565b92915050565b600063ffffffff82169050919050565b6108f4816108db565b81146108ff57600080fd5b50565b600081359050610911816108eb565b92915050565b60008115159050919050565b61092c81610917565b811461093757600080fd5b50565b60008135905061094981610923565b92915050565b600080600060608486031215610968576109676107eb565b5b6000610976868287016108c6565b935050602061098786828701610902565b92505060406109988682870161093a565b9150509250925092565b6109ab81610917565b82525050565b60006060820190506109c660008301866109a2565b6109d360208301856109a2565b6109e060408301846109a2565b949350505050565b600081519050919050565b600082825260208201905092915050565b6000819050602082019050919050565b610a1d816107f0565b82525050565b6000610a2f8383610a14565b60208301905092915050565b6000602082019050919050565b6000610a53826109e8565b610a5d81856109f3565b9350610a6883610a04565b8060005b83811015610a99578151610a808882610a23565b9750610a8b83610a3b565b925050600181019050610a6c565b5085935050505092915050565b6000604082019050610abb60008301856109a2565b8181036020830152610acd8184610a48565b90509392505050565b610adf8161089d565b82525050565b6000602082019050610afa6000830184610ad6565b92915050565b7f4e487b7100000000000000000000000000000000000000000000000000000000600052601160045260246000fd5b6000610b3a826107f0565b9150610b45836107f0565b9250828201905080821115610b5d57610b5c610b00565b5b92915050565b7f4e487b7100000000000000000000000000000000000000000000000000000000600052604160045260246000fd5b610b9b816108db565b82525050565b6000608082019050610bb66000830187610853565b610bc36020830186610b92565b610bd06040830185610ad6565b610bdd60608301846109a2565b95945050505050565b600082825260208201905092915050565b7f72657175657374206e6f7420666f756e64000000000000000000000000000000600082015250565b6000610c2d601183610be6565b9150610c3882610bf7565b602082019050919050565b60006020820190508181036000830152610c5c81610c20565b9050919050565b6000819050919050565b610c7e610c79826107f0565b610c63565b82525050565b6000610c908285610c6d565b602082019150610ca08284610c6d565b6020820191508190509392505050565b7f4e487b7100000000000000000000000000000000000000000000000000000000600052603260045260246000fd5b6000610cea826107f0565b91507fffffffffffffffffffffffffffffffffffffffffffffffffffffffffffffffff8203610d1c57610d1b610b00565b5b600182019050919050565b6000608082019050610d3c6000830187610853565b8181036020830152610d4e8186610a48565b9050610d5d6040830185610ad6565b610d6a60608301846109a2565b9594505050505056fea26469706673582212206dae39811e2319f40929a3f7ac085320dff83aaec718695b5630358740c10a0764736f6c63430008110033",
  "linkReferences": {},
  "deployedLinkReferences": {}
}