{
  "_format": "hh-sol-artifact-1",
  "contractName": "VRFv2EquipmentCrafting",
  "sourceName": "contracts/periphery/chainlink/vrf/VRFv2EquipmentCrafting.sol",
  "abi": [
    {
      "inputs": [
        {
          "internalType": "uint64",
          "name": "subscriptionId",
          "type": "uint64"
        },
        {
          "internalType": "address",
          "name": "_coordinator",
          "type": "address"
        },
        {
          "internalType": "bytes32",
          "name": "_keyHash",
          "type": "bytes32"
        },
        {
          "internalType": "address",
          "name": "ownerContract",
          "type": "address"
        }
      ],
      "stateMutability": "nonpayable",
      "type": "constructor"
    },
    {
      "inputs": [
        {
          "internalType": "address",
          "name": "have",
          "type": "address"
        },
        {
          "internalType": "address",
          "name": "want",
          "type": "address"
        }
      ],
      "name": "OnlyCoordinatorCanFulfill",
      "type": "error"
    },
    {
      "anonymous": false,
      "inputs": [
        {
          "indexed": true,
          "internalType": "address",
          "name": "from",
          "type": "address"
        },
        {
          "indexed": true,
          "internalType": "address",
          "name": "to",
          "type": "address"
        }
      ],
      "name": "OwnershipTransferRequested",
      "type": "event"
    },
    {
      "anonymous": false,
      "inputs": [
        {
          "indexed": true,
          "internalType": "address",
          "name": "from",
          "type": "address"
        },
        {
          "indexed": true,
          "internalType": "address",
          "name": "to",
          "type": "address"
        }
      ],
      "name": "OwnershipTransferred",
      "type": "event"
    },
    {
      "anonymous": false,
      "inputs": [
        {
          "indexed": false,
          "internalType": "uint256",
          "name": "requestId",
          "type": "uint256"
        },
        {
          "indexed": false,
          "internalType": "uint256[]",
          "name": "randomWords",
          "type": "uint256[]"
        },
        {
          "indexed": false,
          "internalType": "address",
          "name": "user",
          "type": "address"
        },
        {
          "indexed": false,
          "internalType": "bool",
          "name": "experimental",
          "type": "bool"
        }
      ],
      "name": "RequestFulfilled",
      "type": "event"
    },
    {
      "anonymous": false,
      "inputs": [
        {
          "indexed": false,
          "internalType": "uint256",
          "name": "requestId",
          "type": "uint256"
        },
        {
          "indexed": false,
          "internalType": "uint32",
          "name": "numWords",
          "type": "uint32"
        },
        {
          "indexed": false,
          "internalType": "address",
          "name": "user",
          "type": "address"
        },
        {
          "indexed": false,
          "internalType": "bool",
          "name": "experimental",
          "type": "bool"
        }
      ],
      "name": "RequestSent",
      "type": "event"
    },
    {
      "inputs": [],
      "name": "acceptOwnership",
      "outputs": [],
      "stateMutability": "nonpayable",
      "type": "function"
    },
    {
      "inputs": [
        {
          "internalType": "uint256",
          "name": "_requestId",
          "type": "uint256"
        }
      ],
      "name": "getRequestStatus",
      "outputs": [
        {
          "internalType": "bool",
          "name": "fulfilled",
          "type": "bool"
        },
        {
          "internalType": "uint256[]",
          "name": "randomWords",
          "type": "uint256[]"
        }
      ],
      "stateMutability": "view",
      "type": "function"
    },
    {
      "inputs": [],
      "name": "lastRequestId",
      "outputs": [
        {
          "internalType": "uint256",
          "name": "",
          "type": "uint256"
        }
      ],
      "stateMutability": "view",
      "type": "function"
    },
    {
      "inputs": [],
      "name": "owner",
      "outputs": [
        {
          "internalType": "address",
          "name": "",
          "type": "address"
        }
      ],
      "stateMutability": "view",
      "type": "function"
    },
    {
      "inputs": [
        {
          "internalType": "uint256",
          "name": "requestId",
          "type": "uint256"
        },
        {
          "internalType": "uint256[]",
          "name": "randomWords",
          "type": "uint256[]"
        }
      ],
      "name": "rawFulfillRandomWords",
      "outputs": [],
      "stateMutability": "nonpayable",
      "type": "function"
    },
    {
      "inputs": [
        {
          "internalType": "uint256",
          "name": "",
          "type": "uint256"
        }
      ],
      "name": "requestIdToUser",
      "outputs": [
        {
          "internalType": "address",
          "name": "",
          "type": "address"
        }
      ],
      "stateMutability": "view",
      "type": "function"
    },
    {
      "inputs": [
        {
          "internalType": "uint256",
          "name": "",
          "type": "uint256"
        }
      ],
      "name": "requestIds",
      "outputs": [
        {
          "internalType": "uint256",
          "name": "",
          "type": "uint256"
        }
      ],
      "stateMutability": "view",
      "type": "function"
    },
    {
      "inputs": [
        {
          "internalType": "address",
          "name": "user",
          "type": "address"
        },
        {
          "internalType": "uint32",
          "name": "numWords",
          "type": "uint32"
        },
        {
          "internalType": "bool",
          "name": "_experimental",
          "type": "bool"
        }
      ],
      "name": "requestRandomWords",
      "outputs": [
        {
          "internalType": "uint256",
          "name": "requestId",
          "type": "uint256"
        }
      ],
      "stateMutability": "nonpayable",
      "type": "function"
    },
    {
      "inputs": [
        {
          "internalType": "uint256",
          "name": "",
          "type": "uint256"
        }
      ],
      "name": "s_requests",
      "outputs": [
        {
          "internalType": "bool",
          "name": "fulfilled",
          "type": "bool"
        },
        {
          "internalType": "bool",
          "name": "exists",
          "type": "bool"
        },
        {
          "internalType": "bool",
          "name": "experimental",
          "type": "bool"
        }
      ],
      "stateMutability": "view",
      "type": "function"
    },
    {
      "inputs": [
        {
          "internalType": "address",
          "name": "to",
          "type": "address"
        }
      ],
      "name": "transferOwnership",
      "outputs": [],
      "stateMutability": "nonpayable",
      "type": "function"
    }
  ],
  "bytecode": "0x60a06040526003600960006101000a81548161ffff021916908361ffff1602179055503480156200002f57600080fd5b5060405162001d6438038062001d64833981810160405281019062000055919062000460565b80806000858073ffffffffffffffffffffffffffffffffffffffff1660808173ffffffffffffffffffffffffffffffffffffffff168152505050600073ffffffffffffffffffffffffffffffffffffffff168273ffffffffffffffffffffffffffffffffffffffff160362000101576040517f08c379a0000000000000000000000000000000000000000000000000000000008152600401620000f89062000533565b60405180910390fd5b816000806101000a81548173ffffffffffffffffffffffffffffffffffffffff021916908373ffffffffffffffffffffffffffffffffffffffff160217905550600073ffffffffffffffffffffffffffffffffffffffff168173ffffffffffffffffffffffffffffffffffffffff1614620001885762000187816200024760201b60201c565b5b50505082600460006101000a81548173ffffffffffffffffffffffffffffffffffffffff021916908373ffffffffffffffffffffffffffffffffffffffff1602179055508160088190555083600560146101000a81548167ffffffffffffffff021916908367ffffffffffffffff16021790555080600560006101000a81548173ffffffffffffffffffffffffffffffffffffffff021916908373ffffffffffffffffffffffffffffffffffffffff16021790555050505050620005c7565b3373ffffffffffffffffffffffffffffffffffffffff168173ffffffffffffffffffffffffffffffffffffffff1603620002b8576040517f08c379a0000000000000000000000000000000000000000000000000000000008152600401620002af90620005a5565b60405180910390fd5b80600160006101000a81548173ffffffffffffffffffffffffffffffffffffffff021916908373ffffffffffffffffffffffffffffffffffffffff1602179055508073ffffffffffffffffffffffffffffffffffffffff1660008054906101000a900473ffffffffffffffffffffffffffffffffffffffff1673ffffffffffffffffffffffffffffffffffffffff167fed8889f560326eb138920d842192f0eb3dd22b4f139c87a2c57538e05bae127860405160405180910390a350565b600080fd5b600067ffffffffffffffff82169050919050565b6200039a816200037b565b8114620003a657600080fd5b50565b600081519050620003ba816200038f565b92915050565b600073ffffffffffffffffffffffffffffffffffffffff82169050919050565b6000620003ed82620003c0565b9050919050565b620003ff81620003e0565b81146200040b57600080fd5b50565b6000815190506200041f81620003f4565b92915050565b6000819050919050565b6200043a8162000425565b81146200044657600080fd5b50565b6000815190506200045a816200042f565b92915050565b600080600080608085870312156200047d576200047c62000376565b5b60006200048d87828801620003a9565b9450506020620004a0878288016200040e565b9350506040620004b38782880162000449565b9250506060620004c6878288016200040e565b91505092959194509250565b600082825260208201905092915050565b7f43616e6e6f7420736574206f776e657220746f207a65726f0000000000000000600082015250565b60006200051b601883620004d2565b91506200052882620004e3565b602082019050919050565b600060208201905081810360008301526200054e816200050c565b9050919050565b7f43616e6e6f74207472616e7366657220746f2073656c66000000000000000000600082015250565b60006200058d601783620004d2565b91506200059a8262000555565b602082019050919050565b60006020820190508181036000830152620005c0816200057e565b9050919050565b60805161177a620005ea60003960008181610216015261026a015261177a6000f3fe608060405234801561001057600080fd5b506004361061009e5760003560e01c8063a168fa8911610066578063a168fa8914610147578063d8a4676f14610179578063dc7d73bb146101aa578063f2fde38b146101da578063fc2a88c3146101f65761009e565b80631fe543e3146100a357806379ba5097146100bf5780638796ba8c146100c95780638da5cb5b146100f95780639bca039d14610117575b600080fd5b6100bd60048036038101906100b89190610f95565b610214565b005b6100c76102d4565b005b6100e360048036038101906100de9190610ff1565b610469565b6040516100f0919061102d565b60405180910390f35b61010161048d565b60405161010e9190611089565b60405180910390f35b610131600480360381019061012c9190611144565b6104b6565b60405161013e919061102d565b60405180910390f35b610161600480360381019061015c9190610ff1565b6107a2565b604051610170939291906111a6565b60405180910390f35b610193600480360381019061018e9190610ff1565b6107f3565b6040516101a192919061129b565b60405180910390f35b6101c460048036038101906101bf9190610ff1565b610939565b6040516101d19190611089565b60405180910390f35b6101f460048036038101906101ef91906112cb565b61096c565b005b6101fe610980565b60405161020b919061102d565b60405180910390f35b7f000000000000000000000000000000000000000000000000000000000000000073ffffffffffffffffffffffffffffffffffffffff163373ffffffffffffffffffffffffffffffffffffffff16146102c657337f00000000000000000000000000000000000000000000000000000000000000006040517f1cf993f40000000000000000000000000000000000000000000000000000000081526004016102bd9291906112f8565b60405180910390fd5b6102d08282610986565b5050565b600160009054906101000a900473ffffffffffffffffffffffffffffffffffffffff1673ffffffffffffffffffffffffffffffffffffffff163373ffffffffffffffffffffffffffffffffffffffff1614610364576040517f08c379a000000000000000000000000000000000000000000000000000000000815260040161035b9061137e565b60405180910390fd5b60008060009054906101000a900473ffffffffffffffffffffffffffffffffffffffff169050336000806101000a81548173ffffffffffffffffffffffffffffffffffffffff021916908373ffffffffffffffffffffffffffffffffffffffff1602179055506000600160006101000a81548173ffffffffffffffffffffffffffffffffffffffff021916908373ffffffffffffffffffffffffffffffffffffffff1602179055503373ffffffffffffffffffffffffffffffffffffffff168173ffffffffffffffffffffffffffffffffffffffff167f8be0079c531659141344cd1fd0a4f28419497f9722a3daafe3b4186f6b6457e060405160405180910390a350565b6006818154811061047957600080fd5b906000526020600020016000915090505481565b60008060009054906101000a900473ffffffffffffffffffffffffffffffffffffffff16905090565b60006104c0610bcc565b600083614e206104d091906113cd565b620186a06104de919061140a565b9050821561050657620927c0846104f591906113cd565b620186a0610503919061140a565b90505b600460009054906101000a900473ffffffffffffffffffffffffffffffffffffffff1673ffffffffffffffffffffffffffffffffffffffff16635d3b1d30600854600560149054906101000a900467ffffffffffffffff16600960009054906101000a900461ffff1685896040518663ffffffff1660e01b81526004016105919594939291906114aa565b6020604051808303816000875af11580156105b0573d6000803e3d6000fd5b505050506040513d601f19601f820116820180604052508101906105d49190611512565b91506040518060800160405280600015158152602001600115158152602001600067ffffffffffffffff81111561060e5761060d610e52565b5b60405190808252806020026020018201604052801561063c5781602001602082028036833780820191505090505b5081526020018415158152506002600084815260200190815260200160002060008201518160000160006101000a81548160ff02191690831515021790555060208201518160000160016101000a81548160ff02191690831515021790555060408201518160010190805190602001906106b7929190610d88565b5060608201518160020160006101000a81548160ff021916908315150217905550905050600682908060018154018082558091505060019003906000526020600020016000909190919091505581600781905550846003600084815260200190815260200160002060006101000a81548173ffffffffffffffffffffffffffffffffffffffff021916908373ffffffffffffffffffffffffffffffffffffffff1602179055507fb8453fd5dd0230d943eee23a0979d14131d507cce20c48722fdb2d0b956f1d4b82858786604051610792949392919061153f565b60405180910390a1509392505050565b60026020528060005260406000206000915090508060000160009054906101000a900460ff16908060000160019054906101000a900460ff16908060020160009054906101000a900460ff16905083565b600060606002600084815260200190815260200160002060000160019054906101000a900460ff1661085a576040517f08c379a0000000000000000000000000000000000000000000000000000000008152600401610851906115d0565b60405180910390fd5b6000600260008581526020019081526020016000206040518060800160405290816000820160009054906101000a900460ff161515151581526020016000820160019054906101000a900460ff16151515158152602001600182018054806020026020016040519081016040528092919081815260200182805480156108ff57602002820191906000526020600020905b8154815260200190600101908083116108eb575b505050505081526020016002820160009054906101000a900460ff1615151515815250509050806000015181604001519250925050915091565b60036020528060005260406000206000915054906101000a900473ffffffffffffffffffffffffffffffffffffffff1681565b610974610bcc565b61097d81610c5c565b50565b60075481565b6002600083815260200190815260200160002060000160019054906101000a900460ff166109e9576040517f08c379a00000000000000000000000000000000000000000000000000000000081526004016109e0906115d0565b60405180910390fd5b60016002600084815260200190815260200160002060000160006101000a81548160ff02191690831515021790555080600260008481526020019081526020016000206001019080519060200190610a42929190610d88565b50600115156002600084815260200190815260200160002060020160009054906101000a900460ff16151503610b3557600560009054906101000a900473ffffffffffffffffffffffffffffffffffffffff1673ffffffffffffffffffffffffffffffffffffffff1663a9a876af6003600085815260200190815260200160002060009054906101000a900473ffffffffffffffffffffffffffffffffffffffff16836040518363ffffffff1660e01b8152600401610b029291906115f0565b600060405180830381600087803b158015610b1c57600080fd5b505af1158015610b30573d6000803e3d6000fd5b505050505b7f2ffe53b8e09a16b5df366b82e23cb08b2bb3aa5a1fe761d1db1aaa4ecd6cdfc182826003600086815260200190815260200160002060009054906101000a900473ffffffffffffffffffffffffffffffffffffffff166002600087815260200190815260200160002060020160009054906101000a900460ff16604051610bc09493929190611620565b60405180910390a15050565b60008054906101000a900473ffffffffffffffffffffffffffffffffffffffff1673ffffffffffffffffffffffffffffffffffffffff163373ffffffffffffffffffffffffffffffffffffffff1614610c5a576040517f08c379a0000000000000000000000000000000000000000000000000000000008152600401610c51906116b8565b60405180910390fd5b565b3373ffffffffffffffffffffffffffffffffffffffff168173ffffffffffffffffffffffffffffffffffffffff1603610cca576040517f08c379a0000000000000000000000000000000000000000000000000000000008152600401610cc190611724565b60405180910390fd5b80600160006101000a81548173ffffffffffffffffffffffffffffffffffffffff021916908373ffffffffffffffffffffffffffffffffffffffff1602179055508073ffffffffffffffffffffffffffffffffffffffff1660008054906101000a900473ffffffffffffffffffffffffffffffffffffffff1673ffffffffffffffffffffffffffffffffffffffff167fed8889f560326eb138920d842192f0eb3dd22b4f139c87a2c57538e05bae127860405160405180910390a350565b828054828255906000526020600020908101928215610dc4579160200282015b82811115610dc3578251825591602001919060010190610da8565b5b509050610dd19190610dd5565b5090565b5b80821115610dee576000816000905550600101610dd6565b5090565b6000604051905090565b600080fd5b600080fd5b6000819050919050565b610e1981610e06565b8114610e2457600080fd5b50565b600081359050610e3681610e10565b92915050565b600080fd5b6000601f19601f8301169050919050565b7f4e487b7100000000000000000000000000000000000000000000000000000000600052604160045260246000fd5b610e8a82610e41565b810181811067ffffffffffffffff82111715610ea957610ea8610e52565b5b80604052505050565b6000610ebc610df2565b9050610ec88282610e81565b919050565b600067ffffffffffffffff821115610ee857610ee7610e52565b5b602082029050602081019050919050565b600080fd5b6000610f11610f0c84610ecd565b610eb2565b90508083825260208201905060208402830185811115610f3457610f33610ef9565b5b835b81811015610f5d5780610f498882610e27565b845260208401935050602081019050610f36565b5050509392505050565b600082601f830112610f7c57610f7b610e3c565b5b8135610f8c848260208601610efe565b91505092915050565b60008060408385031215610fac57610fab610dfc565b5b6000610fba85828601610e27565b925050602083013567ffffffffffffffff811115610fdb57610fda610e01565b5b610fe785828601610f67565b9150509250929050565b60006020828403121561100757611006610dfc565b5b600061101584828501610e27565b91505092915050565b61102781610e06565b82525050565b6000602082019050611042600083018461101e565b92915050565b600073ffffffffffffffffffffffffffffffffffffffff82169050919050565b600061107382611048565b9050919050565b61108381611068565b82525050565b600060208201905061109e600083018461107a565b92915050565b6110ad81611068565b81146110b857600080fd5b50565b6000813590506110ca816110a4565b92915050565b600063ffffffff82169050919050565b6110e9816110d0565b81146110f457600080fd5b50565b600081359050611106816110e0565b92915050565b60008115159050919050565b6111218161110c565b811461112c57600080fd5b50565b60008135905061113e81611118565b92915050565b60008060006060848603121561115d5761115c610dfc565b5b600061116b868287016110bb565b935050602061117c868287016110f7565b925050604061118d8682870161112f565b9150509250925092565b6111a08161110c565b82525050565b60006060820190506111bb6000830186611197565b6111c86020830185611197565b6111d56040830184611197565b949350505050565b600081519050919050565b600082825260208201905092915050565b6000819050602082019050919050565b61121281610e06565b82525050565b60006112248383611209565b60208301905092915050565b6000602082019050919050565b6000611248826111dd565b61125281856111e8565b935061125d836111f9565b8060005b8381101561128e5781516112758882611218565b975061128083611230565b925050600181019050611261565b5085935050505092915050565b60006040820190506112b06000830185611197565b81810360208301526112c2818461123d565b90509392505050565b6000602082840312156112e1576112e0610dfc565b5b60006112ef848285016110bb565b91505092915050565b600060408201905061130d600083018561107a565b61131a602083018461107a565b9392505050565b600082825260208201905092915050565b7f4d7573742062652070726f706f736564206f776e657200000000000000000000600082015250565b6000611368601683611321565b915061137382611332565b602082019050919050565b600060208201905081810360008301526113978161135b565b9050919050565b7f4e487b7100000000000000000000000000000000000000000000000000000000600052601160045260246000fd5b60006113d8826110d0565b91506113e3836110d0565b92508282026113f1816110d0565b91508082146114035761140261139e565b5b5092915050565b6000611415826110d0565b9150611420836110d0565b9250828201905063ffffffff81111561143c5761143b61139e565b5b92915050565b6000819050919050565b61145581611442565b82525050565b600067ffffffffffffffff82169050919050565b6114788161145b565b82525050565b600061ffff82169050919050565b6114958161147e565b82525050565b6114a4816110d0565b82525050565b600060a0820190506114bf600083018861144c565b6114cc602083018761146f565b6114d9604083018661148c565b6114e6606083018561149b565b6114f3608083018461149b565b9695505050505050565b60008151905061150c81610e10565b92915050565b60006020828403121561152857611527610dfc565b5b6000611536848285016114fd565b91505092915050565b6000608082019050611554600083018761101e565b611561602083018661149b565b61156e604083018561107a565b61157b6060830184611197565b95945050505050565b7f72657175657374206e6f7420666f756e64000000000000000000000000000000600082015250565b60006115ba601183611321565b91506115c582611584565b602082019050919050565b600060208201905081810360008301526115e9816115ad565b9050919050565b6000604082019050611605600083018561107a565b8181036020830152611617818461123d565b90509392505050565b6000608082019050611635600083018761101e565b8181036020830152611647818661123d565b9050611656604083018561107a565b6116636060830184611197565b95945050505050565b7f4f6e6c792063616c6c61626c65206279206f776e657200000000000000000000600082015250565b60006116a2601683611321565b91506116ad8261166c565b602082019050919050565b600060208201905081810360008301526116d181611695565b9050919050565b7f43616e6e6f74207472616e7366657220746f2073656c66000000000000000000600082015250565b600061170e601783611321565b9150611719826116d8565b602082019050919050565b6000602082019050818103600083015261173d81611701565b905091905056fea264697066735822122047764c00939fd3191be255b73bfeec9ead3fa4efcf4fe6ff46de3c0e4471c0c664736f6c63430008110033",
  "linkReferences": {},
  "deployedLinkReferences": {}
}