{
  "_format": "hh-sol-artifact-1",
  "contractName": "CharacterUriConstructor",
  "sourceName": "contracts/periphery/libraries/characters/CharacterUriConstructor.sol",
  "abi": [
    {
      "inputs": [
        {
          "components": [
            {
              "internalType": "uint32",
              "name": "character_class",
              "type": "uint32"
            },
            {
              "internalType": "uint32",
              "name": "element",
              "type": "uint32"
            },
            {
              "internalType": "uint32",
              "name": "str",
              "type": "uint32"
            },
            {
              "internalType": "uint32",
              "name": "vit",
              "type": "uint32"
            },
            {
              "internalType": "uint32",
              "name": "dex",
              "type": "uint32"
            },
            {
              "internalType": "uint32",
              "name": "talent",
              "type": "uint32"
            },
            {
              "internalType": "uint32",
              "name": "mood",
              "type": "uint32"
            },
            {
              "internalType": "uint32",
              "name": "exp",
              "type": "uint32"
            }
          ],
          "internalType": "struct character_properties",
          "name": "character_props",
          "type": "tuple"
        },
        {
          "components": [
            {
              "internalType": "string",
              "name": "name",
              "type": "string"
            },
            {
              "internalType": "string",
              "name": "image",
              "type": "string"
            },
            {
              "internalType": "string",
              "name": "mood",
              "type": "string"
            },
            {
              "internalType": "string",
              "name": "bonus",
              "type": "string"
            },
            {
              "internalType": "string",
              "name": "bonus_value",
              "type": "string"
            },
            {
              "internalType": "string",
              "name": "talent_value",
              "type": "string"
            }
          ],
          "internalType": "struct character_uri_details",
          "name": "uri_details",
          "type": "tuple"
        },
        {
          "internalType": "string",
          "name": "_character_name",
          "type": "string"
        }
      ],
      "name": "encodeStrings",
      "outputs": [
        {
          "internalType": "string",
          "name": "uriJSON",
          "type": "string"
        }
      ],
      "stateMutability": "pure",
      "type": "function"
    }
  ],
  "bytecode": "0x608060405234801561001057600080fd5b506121a1806100206000396000f3fe608060405234801561001057600080fd5b506004361061002b5760003560e01c8063b12ca1da14610030575b600080fd5b61004a60048036038101906100459190611079565b610060565b6040516100579190611186565b60405180910390f35b60606100b061006f84846100d8565b6100798686610120565b61008a610085886101d2565b61025b565b60405160200161009c939291906111e4565b6040516020818303038152906040526102f2565b6040516020016100c0919061123b565b60405160208183030381529060405290509392505050565b60608260200151828460000151856060015186608001518760400151604051602001610109969594939291906114e7565b604051602081830303815290604052905092915050565b6060610135836040015163ffffffff16610455565b610148846060015163ffffffff16610455565b61015b856080015163ffffffff16610455565b610186600160648860e001516101719190611614565b61017b9190611645565b63ffffffff16610455565b61019387602001516105b5565b6101a08860a001516106d8565b8760a001516040516020016101bb97969594939291906118dd565b604051602081830303815290604052905092915050565b6101da610c82565b6040518061010001604052806101ef84610889565b81526020016101fd8461093c565b815260200161020b846109f0565b815260200161021984610aa4565b815260200161022784610b25565b815260200161023584610ba6565b815260200161024384610c27565b815260200161025184610c47565b8152509050919050565b606061026a8260000151610455565b6102778360200151610455565b6102848460400151610455565b6102918560600151610455565b61029e8660800151610455565b6102ab8760a00151610455565b6102b88860c00151610455565b6102c58960e00151610455565b6040516020016102dc989796959493929190611e88565b6040516020818303038152906040529050919050565b6060600082510361031457604051806020016040528060008152509050610450565b600060405180606001604052806040815260200161212c60409139905060006003600285516103439190611f6b565b61034d9190611f9f565b60046103599190611fd0565b67ffffffffffffffff81111561037257610371610cf1565b5b6040519080825280601f01601f1916602001820160405280156103a45781602001600182028036833780820191505090505b509050600182016020820185865187015b80821015610410576003820191508151603f8160121c168501518453600184019350603f81600c1c168501518453600184019350603f8160061c168501518453600184019350603f81168501518453600184019350506103b5565b505060038651066001811461042c576002811461043f57610447565b603d6001830353603d6002830353610447565b603d60018303535b50505080925050505b919050565b60606000820361049c576040518060400160405280600181526020017f300000000000000000000000000000000000000000000000000000000000000081525090506105b0565b600082905060005b600082146104ce5780806104b790612012565b915050600a826104c79190611f9f565b91506104a4565b60008167ffffffffffffffff8111156104ea576104e9610cf1565b5b6040519080825280601f01601f19166020018201604052801561051c5781602001600182028036833780820191505090505b5090505b600085146105a957600182610535919061205a565b9150600a85610544919061208e565b60306105509190611f6b565b60f81b818381518110610566576105656120bf565b5b60200101907effffffffffffffffffffffffffffffffffffffffffffffffffffffffffffff1916908160001a905350600a856105a29190611f9f565b9450610520565b8093505050505b919050565b606060008263ffffffff16036105fe576040518060400160405280600481526020017f466972650000000000000000000000000000000000000000000000000000000081525090505b60018263ffffffff1603610645576040518060400160405280600581526020017f456172746800000000000000000000000000000000000000000000000000000081525090505b60028263ffffffff160361068c576040518060400160405280600481526020017f57696e640000000000000000000000000000000000000000000000000000000081525090505b60038263ffffffff16036106d3576040518060400160405280600581526020017f576174657200000000000000000000000000000000000000000000000000000081525090505b919050565b606060008263ffffffff1603610721576040518060400160405280601381526020017f436f6d6261742050737963686f202841544b290000000000000000000000000081525090505b60018263ffffffff1603610768576040518060400160405280601781526020017f576561706f6e205370656369616c697374202850454e2900000000000000000081525090505b60028263ffffffff16036107af576040518060400160405280601181526020017f426f6479204275696c646572202848502900000000000000000000000000000081525090505b60038263ffffffff16036107f6576040518060400160405280600f81526020017f49726f6e20536b696e202844454629000000000000000000000000000000000081525090505b60048263ffffffff160361083d576040518060400160405280600d81526020017f536e69706572202843524954290000000000000000000000000000000000000081525090505b60058263ffffffff1603610884576040518060400160405280600b81526020017f4e696e6a6120284556412900000000000000000000000000000000000000000081525090505b919050565b60006004600a600484608001516108a091906120ee565b600685604001516108b191906120ee565b6108bb9190611645565b6108c59190611614565b6108cf9190611614565b63ffffffff169050600080836000015163ffffffff16036108ef57600590505b60008360a0015163ffffffff16036109115760058161090e9190611f6b565b90505b6064818361091f9190611fd0565b6109299190611f9f565b826109349190611f6b565b915050919050565b60006002600a6004846040015161095391906120ee565b6006856060015161096491906120ee565b61096e9190611645565b6109789190611614565b6109829190611614565b63ffffffff16905060006003836000015163ffffffff16036109a357600a90505b60038360a0015163ffffffff16036109c557600a816109c29190611f6b565b90505b606481836109d39190611fd0565b6109dd9190611f9f565b826109e89190611f6b565b915050919050565b60006002600a60048460600151610a0791906120ee565b60068560800151610a1891906120ee565b610a229190611645565b610a2c9190611614565b610a369190611614565b63ffffffff16905060006005836000015163ffffffff1603610a5757600a90505b60058360a0015163ffffffff1603610a7957600a81610a769190611f6b565b90505b60648183610a879190611fd0565b610a919190611f9f565b82610a9c9190611f6b565b915050919050565b600060058260600151610ab791906120ee565b63ffffffff16905060006002836000015163ffffffff1603610ad857600390505b60028360a0015163ffffffff1603610afa57600381610af79190611f6b565b90505b60648183610b089190611fd0565b610b129190611f9f565b82610b1d9190611f6b565b915050919050565b600060028260400151610b389190611614565b63ffffffff16905060006001836000015163ffffffff1603610b5957600a90505b60018360a0015163ffffffff1603610b7b57600a81610b789190611f6b565b90505b60648183610b899190611fd0565b610b939190611f9f565b82610b9e9190611f6b565b915050919050565b600060028260800151610bb99190611614565b63ffffffff16905060006004836000015163ffffffff1603610bda57600a90505b60048360a0015163ffffffff1603610bfc57600a81610bf99190611f6b565b90505b60648183610c0a9190611fd0565b610c149190611f9f565b82610c1f9190611f6b565b915050919050565b6000600a8260800151610c3a9190611614565b63ffffffff169050919050565b6000600a600283604001518460600151610c619190611645565b610c6b9190611614565b610c759190611614565b63ffffffff169050919050565b60405180610100016040528060008152602001600081526020016000815260200160008152602001600081526020016000815260200160008152602001600081525090565b6000604051905090565b600080fd5b600080fd5b600080fd5b6000601f19601f8301169050919050565b7f4e487b7100000000000000000000000000000000000000000000000000000000600052604160045260246000fd5b610d2982610ce0565b810181811067ffffffffffffffff82111715610d4857610d47610cf1565b5b80604052505050565b6000610d5b610cc7565b9050610d678282610d20565b919050565b600080fd5b600063ffffffff82169050919050565b610d8a81610d71565b8114610d9557600080fd5b50565b600081359050610da781610d81565b92915050565b60006101008284031215610dc457610dc3610cdb565b5b610dcf610100610d51565b90506000610ddf84828501610d98565b6000830152506020610df384828501610d98565b6020830152506040610e0784828501610d98565b6040830152506060610e1b84828501610d98565b6060830152506080610e2f84828501610d98565b60808301525060a0610e4384828501610d98565b60a08301525060c0610e5784828501610d98565b60c08301525060e0610e6b84828501610d98565b60e08301525092915050565b600080fd5b600080fd5b600067ffffffffffffffff821115610e9c57610e9b610cf1565b5b610ea582610ce0565b9050602081019050919050565b82818337600083830152505050565b6000610ed4610ecf84610e81565b610d51565b905082815260208101848484011115610ef057610eef610e7c565b5b610efb848285610eb2565b509392505050565b600082601f830112610f1857610f17610e77565b5b8135610f28848260208601610ec1565b91505092915050565b600060c08284031215610f4757610f46610cdb565b5b610f5160c0610d51565b9050600082013567ffffffffffffffff811115610f7157610f70610d6c565b5b610f7d84828501610f03565b600083015250602082013567ffffffffffffffff811115610fa157610fa0610d6c565b5b610fad84828501610f03565b602083015250604082013567ffffffffffffffff811115610fd157610fd0610d6c565b5b610fdd84828501610f03565b604083015250606082013567ffffffffffffffff81111561100157611000610d6c565b5b61100d84828501610f03565b606083015250608082013567ffffffffffffffff81111561103157611030610d6c565b5b61103d84828501610f03565b60808301525060a082013567ffffffffffffffff81111561106157611060610d6c565b5b61106d84828501610f03565b60a08301525092915050565b6000806000610140848603121561109357611092610cd1565b5b60006110a186828701610dad565b93505061010084013567ffffffffffffffff8111156110c3576110c2610cd6565b5b6110cf86828701610f31565b92505061012084013567ffffffffffffffff8111156110f1576110f0610cd6565b5b6110fd86828701610f03565b9150509250925092565b600081519050919050565b600082825260208201905092915050565b60005b83811015611141578082015181840152602081019050611126565b60008484015250505050565b600061115882611107565b6111628185611112565b9350611172818560208601611123565b61117b81610ce0565b840191505092915050565b600060208201905081810360008301526111a0818461114d565b905092915050565b600081905092915050565b60006111be82611107565b6111c881856111a8565b93506111d8818560208601611123565b80840191505092915050565b60006111f082866111b3565b91506111fc82856111b3565b915061120882846111b3565b9150819050949350505050565b7f646174613a6170706c69636174696f6e2f6a736f6e3b6261736536342c000000815250565b600061124682611215565b601d8201915061125682846111b3565b915081905092915050565b7f7b226465736372697074696f6e223a202243686172616374657273222c20226960008201527f6d616765223a2022000000000000000000000000000000000000000000000000602082015250565b60006112bd6028836111a8565b91506112c882611261565b602882019050919050565b7f222c20226e616d65223a20220000000000000000000000000000000000000000815250565b7f222c202261747472696275746573223a205b0000000000000000000000000000815250565b7f7b2274726169745f74797065223a20226368617261637465725f636c6173732260008201527f2c202276616c7565223a20220000000000000000000000000000000000000000602082015250565b600061137b602c836111a8565b91506113868261131f565b602c82019050919050565b7f227d2c207b22646973706c61795f74797065223a2022626f6f73745f7065726360008201527f656e74616765222c202274726169745f74797065223a20220000000000000000602082015250565b60006113ed6038836111a8565b91506113f882611391565b603882019050919050565b7f222c202276616c7565223a200000000000000000000000000000000000000000815250565b7f7d2c200000000000000000000000000000000000000000000000000000000000815250565b7f7b2274726169745f74797065223a20226d6f6f64222c202276616c7565223a2060008201527f2200000000000000000000000000000000000000000000000000000000000000602082015250565b60006114ab6021836111a8565b91506114b68261144f565b602182019050919050565b7f227d000000000000000000000000000000000000000000000000000000000000815250565b60006114f2826112b0565b91506114fe82896111b3565b9150611509826112d3565b600c8201915061151982886111b3565b9150611524826112f9565b6012820191506115338261136e565b915061153f82876111b3565b915061154a826113e0565b915061155682866111b3565b915061156182611403565b600c8201915061157182856111b3565b915061157c82611429565b60038201915061158b8261149e565b915061159782846111b3565b91506115a2826114c1565b600282019150819050979650505050505050565b7f4e487b7100000000000000000000000000000000000000000000000000000000600052601260045260246000fd5b7f4e487b7100000000000000000000000000000000000000000000000000000000600052601160045260246000fd5b600061161f82610d71565b915061162a83610d71565b92508261163a576116396115b6565b5b828204905092915050565b600061165082610d71565b915061165b83610d71565b9250828201905063ffffffff811115611677576116766115e5565b5b92915050565b7f2c207b2274726169745f74797065223a2022535452222c20226d61785f76616c60008201527f7565223a20313030302c202276616c7565223a20000000000000000000000000602082015250565b60006116d96034836111a8565b91506116e48261167d565b603482019050919050565b7f7d2c207b2274726169745f74797065223a2022564954222c20226d61785f766160008201527f6c7565223a20313030302c202276616c7565223a200000000000000000000000602082015250565b600061174b6035836111a8565b9150611756826116ef565b603582019050919050565b7f7d2c207b2274726169745f74797065223a2022444558222c20226d61785f766160008201527f6c7565223a20313030302c202276616c7565223a200000000000000000000000602082015250565b60006117bd6035836111a8565b91506117c882611761565b603582019050919050565b7f7d2c207b2274726169745f74797065223a2022436861726163746572204c657660008201527f656c222c20226d61785f76616c7565223a203130302c202276616c7565223a20602082015250565b600061182f6040836111a8565b915061183a826117d3565b604082019050919050565b7f7d2c207b2274726169745f74797065223a2022656c656d656e74222c2022766160008201527f6c7565223a202200000000000000000000000000000000000000000000000000602082015250565b60006118a16027836111a8565b91506118ac82611845565b602782019050919050565b7f7d00000000000000000000000000000000000000000000000000000000000000815250565b60006118e8826116cc565b91506118f4828a6111b3565b91506118ff8261173e565b915061190b82896111b3565b9150611916826117b0565b915061192282886111b3565b915061192d82611822565b915061193982876111b3565b915061194482611894565b915061195082866111b3565b915061195b826113e0565b915061196782856111b3565b915061197282611403565b600c8201915061198282846111b3565b915061198d826118b7565b60018201915081905098975050505050505050565b7f2c207b22646973706c61795f74797065223a20226e756d626572222c2022747260008201527f6169745f74797065223a202241544b222c20226d61785f76616c7565223a203960208201527f3939392c202276616c7565223a20000000000000000000000000000000000000604082015250565b6000611a24604e836111a8565b9150611a2f826119a2565b604e82019050919050565b7f7d2c207b22646973706c61795f74797065223a20226e756d626572222c20227460008201527f726169745f74797065223a2022444546222c20226d61785f76616c7565223a2060208201527f393939392c202276616c7565223a200000000000000000000000000000000000604082015250565b6000611abc604f836111a8565b9150611ac782611a3a565b604f82019050919050565b7f7d2c207b22646973706c61795f74797065223a20226e756d626572222c20227460008201527f726169745f74797065223a2022455641222c20226d61785f76616c7565223a2060208201527f313030302c202276616c7565223a200000000000000000000000000000000000604082015250565b6000611b54604f836111a8565b9150611b5f82611ad2565b604f82019050919050565b7f7d2c207b22646973706c61795f74797065223a20226e756d626572222c20227460008201527f726169745f74797065223a20224850222c20226d61785f76616c7565223a203960208201527f3939392c202276616c7565223a20000000000000000000000000000000000000604082015250565b6000611bec604e836111a8565b9150611bf782611b6a565b604e82019050919050565b7f7d2c207b22646973706c61795f74797065223a20226e756d626572222c20227460008201527f726169745f74797065223a202250454e222c20226d61785f76616c7565223a2060208201527f313030302c202276616c7565223a200000000000000000000000000000000000604082015250565b6000611c84604f836111a8565b9150611c8f82611c02565b604f82019050919050565b7f7d2c207b22646973706c61795f74797065223a20226e756d626572222c20227460008201527f726169745f74797065223a202243524954222c20226d61785f76616c7565223a60208201527f20313030302c202276616c7565223a2000000000000000000000000000000000604082015250565b6000611d1c6050836111a8565b9150611d2782611c9a565b605082019050919050565b7f7d2c207b22646973706c61795f74797065223a20226e756d626572222c20227460008201527f726169745f74797065223a20224c554b222c20226d61785f76616c7565223a2060208201527f313030302c202276616c7565223a200000000000000000000000000000000000604082015250565b6000611db4604f836111a8565b9150611dbf82611d32565b604f82019050919050565b7f7d2c207b22646973706c61795f74797065223a20226e756d626572222c20227460008201527f726169745f74797065223a2022524553222c20226d61785f76616c7565223a2060208201527f313030302c202276616c7565223a200000000000000000000000000000000000604082015250565b6000611e4c604f836111a8565b9150611e5782611dca565b604f82019050919050565b7f7d5d7d0000000000000000000000000000000000000000000000000000000000815250565b6000611e9382611a17565b9150611e9f828b6111b3565b9150611eaa82611aaf565b9150611eb6828a6111b3565b9150611ec182611b47565b9150611ecd82896111b3565b9150611ed882611bdf565b9150611ee482886111b3565b9150611eef82611c77565b9150611efb82876111b3565b9150611f0682611d0f565b9150611f1282866111b3565b9150611f1d82611da7565b9150611f2982856111b3565b9150611f3482611e3f565b9150611f4082846111b3565b9150611f4b82611e62565b6003820191508190509998505050505050505050565b6000819050919050565b6000611f7682611f61565b9150611f8183611f61565b9250828201905080821115611f9957611f986115e5565b5b92915050565b6000611faa82611f61565b9150611fb583611f61565b925082611fc557611fc46115b6565b5b828204905092915050565b6000611fdb82611f61565b9150611fe683611f61565b9250828202611ff481611f61565b9150828204841483151761200b5761200a6115e5565b5b5092915050565b600061201d82611f61565b91507fffffffffffffffffffffffffffffffffffffffffffffffffffffffffffffffff820361204f5761204e6115e5565b5b600182019050919050565b600061206582611f61565b915061207083611f61565b9250828203905081811115612088576120876115e5565b5b92915050565b600061209982611f61565b91506120a483611f61565b9250826120b4576120b36115b6565b5b828206905092915050565b7f4e487b7100000000000000000000000000000000000000000000000000000000600052603260045260246000fd5b60006120f982610d71565b915061210483610d71565b925082820261211281610d71565b9150808214612124576121236115e5565b5b509291505056fe4142434445464748494a4b4c4d4e4f505152535455565758595a6162636465666768696a6b6c6d6e6f707172737475767778797a303132333435363738392b2fa2646970667358221220bca5d39767df82563bd4f8cc97c3cd10a5c5e7a9f788850450d89031c492156f64736f6c63430008110033",
  "linkReferences": {},
  "deployedLinkReferences": {}
}