{
  "_format": "hh-sol-artifact-1",
  "contractName": "Characters",
  "sourceName": "contracts/core/nfts/Characters.sol",
  "abi": [
    {
      "inputs": [],
      "stateMutability": "nonpayable",
      "type": "constructor"
    },
    {
      "anonymous": false,
      "inputs": [
        {
          "indexed": true,
          "internalType": "address",
          "name": "owner",
          "type": "address"
        },
        {
          "indexed": true,
          "internalType": "address",
          "name": "approved",
          "type": "address"
        },
        {
          "indexed": true,
          "internalType": "uint256",
          "name": "tokenId",
          "type": "uint256"
        }
      ],
      "name": "Approval",
      "type": "event"
    },
    {
      "anonymous": false,
      "inputs": [
        {
          "indexed": true,
          "internalType": "address",
          "name": "owner",
          "type": "address"
        },
        {
          "indexed": true,
          "internalType": "address",
          "name": "operator",
          "type": "address"
        },
        {
          "indexed": false,
          "internalType": "bool",
          "name": "approved",
          "type": "bool"
        }
      ],
      "name": "ApprovalForAll",
      "type": "event"
    },
    {
      "anonymous": false,
      "inputs": [
        {
          "indexed": true,
          "internalType": "uint256",
          "name": "character_id",
          "type": "uint256"
        },
        {
          "indexed": false,
          "internalType": "address",
          "name": "user",
          "type": "address"
        },
        {
          "indexed": false,
          "internalType": "string",
          "name": "char_name",
          "type": "string"
        },
        {
          "components": [
            {
              "internalType": "uint32",
              "name": "character_class",
              "type": "uint32"
            },
            {
              "internalType": "uint32",
              "name": "element",
              "type": "uint32"
            },
            {
              "internalType": "uint32",
              "name": "str",
              "type": "uint32"
            },
            {
              "internalType": "uint32",
              "name": "vit",
              "type": "uint32"
            },
            {
              "internalType": "uint32",
              "name": "dex",
              "type": "uint32"
            },
            {
              "internalType": "uint32",
              "name": "talent",
              "type": "uint32"
            },
            {
              "internalType": "uint32",
              "name": "mood",
              "type": "uint32"
            },
            {
              "internalType": "uint32",
              "name": "exp",
              "type": "uint32"
            }
          ],
          "indexed": false,
          "internalType": "struct character_properties",
          "name": "character_props",
          "type": "tuple"
        }
      ],
      "name": "CharacterMinted",
      "type": "event"
    },
    {
      "anonymous": false,
      "inputs": [
        {
          "indexed": true,
          "internalType": "uint256",
          "name": "character_id",
          "type": "uint256"
        },
        {
          "indexed": false,
          "internalType": "string",
          "name": "char_name",
          "type": "string"
        },
        {
          "components": [
            {
              "internalType": "uint32",
              "name": "character_class",
              "type": "uint32"
            },
            {
              "internalType": "uint32",
              "name": "element",
              "type": "uint32"
            },
            {
              "internalType": "uint32",
              "name": "str",
              "type": "uint32"
            },
            {
              "internalType": "uint32",
              "name": "vit",
              "type": "uint32"
            },
            {
              "internalType": "uint32",
              "name": "dex",
              "type": "uint32"
            },
            {
              "internalType": "uint32",
              "name": "talent",
              "type": "uint32"
            },
            {
              "internalType": "uint32",
              "name": "mood",
              "type": "uint32"
            },
            {
              "internalType": "uint32",
              "name": "exp",
              "type": "uint32"
            }
          ],
          "indexed": false,
          "internalType": "struct character_properties",
          "name": "character_props",
          "type": "tuple"
        }
      ],
      "name": "CharacterUpdated",
      "type": "event"
    },
    {
      "anonymous": false,
      "inputs": [
        {
          "indexed": true,
          "internalType": "address",
          "name": "previousOwner",
          "type": "address"
        },
        {
          "indexed": true,
          "internalType": "address",
          "name": "newOwner",
          "type": "address"
        }
      ],
      "name": "OwnershipTransferred",
      "type": "event"
    },
    {
      "anonymous": false,
      "inputs": [
        {
          "indexed": true,
          "internalType": "address",
          "name": "from",
          "type": "address"
        },
        {
          "indexed": true,
          "internalType": "address",
          "name": "to",
          "type": "address"
        },
        {
          "indexed": true,
          "internalType": "uint256",
          "name": "tokenId",
          "type": "uint256"
        }
      ],
      "name": "Transfer",
      "type": "event"
    },
    {
      "inputs": [
        {
          "internalType": "address",
          "name": "user",
          "type": "address"
        },
        {
          "components": [
            {
              "internalType": "uint32",
              "name": "character_class",
              "type": "uint32"
            },
            {
              "internalType": "uint32",
              "name": "element",
              "type": "uint32"
            },
            {
              "internalType": "uint32",
              "name": "str",
              "type": "uint32"
            },
            {
              "internalType": "uint32",
              "name": "vit",
              "type": "uint32"
            },
            {
              "internalType": "uint32",
              "name": "dex",
              "type": "uint32"
            },
            {
              "internalType": "uint32",
              "name": "talent",
              "type": "uint32"
            },
            {
              "internalType": "uint32",
              "name": "mood",
              "type": "uint32"
            },
            {
              "internalType": "uint32",
              "name": "exp",
              "type": "uint32"
            }
          ],
          "internalType": "struct character_properties",
          "name": "character_props",
          "type": "tuple"
        },
        {
          "internalType": "string",
          "name": "_character_name",
          "type": "string"
        }
      ],
      "name": "_mintCharacter",
      "outputs": [],
      "stateMutability": "nonpayable",
      "type": "function"
    },
    {
      "inputs": [
        {
          "internalType": "address",
          "name": "to",
          "type": "address"
        },
        {
          "internalType": "uint256",
          "name": "tokenId",
          "type": "uint256"
        }
      ],
      "name": "approve",
      "outputs": [],
      "stateMutability": "nonpayable",
      "type": "function"
    },
    {
      "inputs": [
        {
          "internalType": "address",
          "name": "owner",
          "type": "address"
        }
      ],
      "name": "balanceOf",
      "outputs": [
        {
          "internalType": "uint256",
          "name": "",
          "type": "uint256"
        }
      ],
      "stateMutability": "view",
      "type": "function"
    },
    {
      "inputs": [
        {
          "internalType": "uint256",
          "name": "",
          "type": "uint256"
        }
      ],
      "name": "character",
      "outputs": [
        {
          "internalType": "uint32",
          "name": "character_class",
          "type": "uint32"
        },
        {
          "internalType": "uint32",
          "name": "element",
          "type": "uint32"
        },
        {
          "internalType": "uint32",
          "name": "str",
          "type": "uint32"
        },
        {
          "internalType": "uint32",
          "name": "vit",
          "type": "uint32"
        },
        {
          "internalType": "uint32",
          "name": "dex",
          "type": "uint32"
        },
        {
          "internalType": "uint32",
          "name": "talent",
          "type": "uint32"
        },
        {
          "internalType": "uint32",
          "name": "mood",
          "type": "uint32"
        },
        {
          "internalType": "uint32",
          "name": "exp",
          "type": "uint32"
        }
      ],
      "stateMutability": "view",
      "type": "function"
    },
    {
      "inputs": [
        {
          "internalType": "uint256",
          "name": "",
          "type": "uint256"
        }
      ],
      "name": "character_name",
      "outputs": [
        {
          "internalType": "string",
          "name": "",
          "type": "string"
        }
      ],
      "stateMutability": "view",
      "type": "function"
    },
    {
      "inputs": [
        {
          "internalType": "uint256",
          "name": "tokenId",
          "type": "uint256"
        }
      ],
      "name": "getApproved",
      "outputs": [
        {
          "internalType": "address",
          "name": "",
          "type": "address"
        }
      ],
      "stateMutability": "view",
      "type": "function"
    },
    {
      "inputs": [
        {
          "internalType": "uint256",
          "name": "character_id",
          "type": "uint256"
        }
      ],
      "name": "getCharacter",
      "outputs": [
        {
          "internalType": "string",
          "name": "char_name",
          "type": "string"
        },
        {
          "components": [
            {
              "internalType": "uint32",
              "name": "character_class",
              "type": "uint32"
            },
            {
              "internalType": "uint32",
              "name": "element",
              "type": "uint32"
            },
            {
              "internalType": "uint32",
              "name": "str",
              "type": "uint32"
            },
            {
              "internalType": "uint32",
              "name": "vit",
              "type": "uint32"
            },
            {
              "internalType": "uint32",
              "name": "dex",
              "type": "uint32"
            },
            {
              "internalType": "uint32",
              "name": "talent",
              "type": "uint32"
            },
            {
              "internalType": "uint32",
              "name": "mood",
              "type": "uint32"
            },
            {
              "internalType": "uint32",
              "name": "exp",
              "type": "uint32"
            }
          ],
          "internalType": "struct character_properties",
          "name": "char_props",
          "type": "tuple"
        },
        {
          "components": [
            {
              "internalType": "uint256",
              "name": "atk",
              "type": "uint256"
            },
            {
              "internalType": "uint256",
              "name": "def",
              "type": "uint256"
            },
            {
              "internalType": "uint256",
              "name": "eva",
              "type": "uint256"
            },
            {
              "internalType": "uint256",
              "name": "hp",
              "type": "uint256"
            },
            {
              "internalType": "uint256",
              "name": "pen",
              "type": "uint256"
            },
            {
              "internalType": "uint256",
              "name": "crit",
              "type": "uint256"
            },
            {
              "internalType": "uint256",
              "name": "luck",
              "type": "uint256"
            },
            {
              "internalType": "uint256",
              "name": "energy_restoration",
              "type": "uint256"
            }
          ],
          "internalType": "struct battle_stats",
          "name": "char_stats",
          "type": "tuple"
        }
      ],
      "stateMutability": "view",
      "type": "function"
    },
    {
      "inputs": [
        {
          "internalType": "address",
          "name": "owner",
          "type": "address"
        },
        {
          "internalType": "address",
          "name": "operator",
          "type": "address"
        }
      ],
      "name": "isApprovedForAll",
      "outputs": [
        {
          "internalType": "bool",
          "name": "",
          "type": "bool"
        }
      ],
      "stateMutability": "view",
      "type": "function"
    },
    {
      "inputs": [
        {
          "internalType": "address",
          "name": "_owner",
          "type": "address"
        },
        {
          "internalType": "uint256",
          "name": "_character",
          "type": "uint256"
        }
      ],
      "name": "isOwner",
      "outputs": [
        {
          "internalType": "bool",
          "name": "",
          "type": "bool"
        }
      ],
      "stateMutability": "view",
      "type": "function"
    },
    {
      "inputs": [],
      "name": "name",
      "outputs": [
        {
          "internalType": "string",
          "name": "",
          "type": "string"
        }
      ],
      "stateMutability": "view",
      "type": "function"
    },
    {
      "inputs": [],
      "name": "owner",
      "outputs": [
        {
          "internalType": "address",
          "name": "",
          "type": "address"
        }
      ],
      "stateMutability": "view",
      "type": "function"
    },
    {
      "inputs": [
        {
          "internalType": "uint256",
          "name": "tokenId",
          "type": "uint256"
        }
      ],
      "name": "ownerOf",
      "outputs": [
        {
          "internalType": "address",
          "name": "",
          "type": "address"
        }
      ],
      "stateMutability": "view",
      "type": "function"
    },
    {
      "inputs": [],
      "name": "renounceOwnership",
      "outputs": [],
      "stateMutability": "nonpayable",
      "type": "function"
    },
    {
      "inputs": [
        {
          "internalType": "address",
          "name": "from",
          "type": "address"
        },
        {
          "internalType": "address",
          "name": "to",
          "type": "address"
        },
        {
          "internalType": "uint256",
          "name": "tokenId",
          "type": "uint256"
        }
      ],
      "name": "safeTransferFrom",
      "outputs": [],
      "stateMutability": "nonpayable",
      "type": "function"
    },
    {
      "inputs": [
        {
          "internalType": "address",
          "name": "from",
          "type": "address"
        },
        {
          "internalType": "address",
          "name": "to",
          "type": "address"
        },
        {
          "internalType": "uint256",
          "name": "tokenId",
          "type": "uint256"
        },
        {
          "internalType": "bytes",
          "name": "data",
          "type": "bytes"
        }
      ],
      "name": "safeTransferFrom",
      "outputs": [],
      "stateMutability": "nonpayable",
      "type": "function"
    },
    {
      "inputs": [
        {
          "internalType": "address",
          "name": "operator",
          "type": "address"
        },
        {
          "internalType": "bool",
          "name": "approved",
          "type": "bool"
        }
      ],
      "name": "setApprovalForAll",
      "outputs": [],
      "stateMutability": "nonpayable",
      "type": "function"
    },
    {
      "inputs": [
        {
          "internalType": "address",
          "name": "dungeonAddress",
          "type": "address"
        }
      ],
      "name": "setDungeon",
      "outputs": [],
      "stateMutability": "nonpayable",
      "type": "function"
    },
    {
      "inputs": [
        {
          "internalType": "address",
          "name": "managerAddress",
          "type": "address"
        }
      ],
      "name": "setEquipmentManager",
      "outputs": [],
      "stateMutability": "nonpayable",
      "type": "function"
    },
    {
      "inputs": [
        {
          "internalType": "address",
          "name": "minterAddress",
          "type": "address"
        }
      ],
      "name": "setMinter",
      "outputs": [],
      "stateMutability": "nonpayable",
      "type": "function"
    },
    {
      "inputs": [
        {
          "internalType": "address",
          "name": "uriConstructorAddress",
          "type": "address"
        }
      ],
      "name": "setUriConstructor",
      "outputs": [],
      "stateMutability": "nonpayable",
      "type": "function"
    },
    {
      "inputs": [
        {
          "internalType": "bytes4",
          "name": "interfaceId",
          "type": "bytes4"
        }
      ],
      "name": "supportsInterface",
      "outputs": [
        {
          "internalType": "bool",
          "name": "",
          "type": "bool"
        }
      ],
      "stateMutability": "view",
      "type": "function"
    },
    {
      "inputs": [],
      "name": "symbol",
      "outputs": [
        {
          "internalType": "string",
          "name": "",
          "type": "string"
        }
      ],
      "stateMutability": "view",
      "type": "function"
    },
    {
      "inputs": [
        {
          "internalType": "uint256",
          "name": "index",
          "type": "uint256"
        }
      ],
      "name": "tokenByIndex",
      "outputs": [
        {
          "internalType": "uint256",
          "name": "",
          "type": "uint256"
        }
      ],
      "stateMutability": "view",
      "type": "function"
    },
    {
      "inputs": [
        {
          "internalType": "address",
          "name": "owner",
          "type": "address"
        },
        {
          "internalType": "uint256",
          "name": "index",
          "type": "uint256"
        }
      ],
      "name": "tokenOfOwnerByIndex",
      "outputs": [
        {
          "internalType": "uint256",
          "name": "",
          "type": "uint256"
        }
      ],
      "stateMutability": "view",
      "type": "function"
    },
    {
      "inputs": [
        {
          "internalType": "uint256",
          "name": "tokenId",
          "type": "uint256"
        }
      ],
      "name": "tokenURI",
      "outputs": [
        {
          "internalType": "string",
          "name": "tokenURIString",
          "type": "string"
        }
      ],
      "stateMutability": "view",
      "type": "function"
    },
    {
      "inputs": [],
      "name": "totalSupply",
      "outputs": [
        {
          "internalType": "uint256",
          "name": "",
          "type": "uint256"
        }
      ],
      "stateMutability": "view",
      "type": "function"
    },
    {
      "inputs": [
        {
          "internalType": "address",
          "name": "from",
          "type": "address"
        },
        {
          "internalType": "address",
          "name": "to",
          "type": "address"
        },
        {
          "internalType": "uint256",
          "name": "tokenId",
          "type": "uint256"
        }
      ],
      "name": "transferFrom",
      "outputs": [],
      "stateMutability": "nonpayable",
      "type": "function"
    },
    {
      "inputs": [
        {
          "internalType": "address",
          "name": "newOwner",
          "type": "address"
        }
      ],
      "name": "transferOwnership",
      "outputs": [],
      "stateMutability": "nonpayable",
      "type": "function"
    },
    {
      "inputs": [
        {
          "internalType": "uint256",
          "name": "tokenId",
          "type": "uint256"
        },
        {
          "internalType": "string",
          "name": "char_name",
          "type": "string"
        },
        {
          "components": [
            {
              "internalType": "uint32",
              "name": "character_class",
              "type": "uint32"
            },
            {
              "internalType": "uint32",
              "name": "element",
              "type": "uint32"
            },
            {
              "internalType": "uint32",
              "name": "str",
              "type": "uint32"
            },
            {
              "internalType": "uint32",
              "name": "vit",
              "type": "uint32"
            },
            {
              "internalType": "uint32",
              "name": "dex",
              "type": "uint32"
            },
            {
              "internalType": "uint32",
              "name": "talent",
              "type": "uint32"
            },
            {
              "internalType": "uint32",
              "name": "mood",
              "type": "uint32"
            },
            {
              "internalType": "uint32",
              "name": "exp",
              "type": "uint32"
            }
          ],
          "internalType": "struct character_properties",
          "name": "updated_props",
          "type": "tuple"
        }
      ],
      "name": "updateCharacter",
      "outputs": [],
      "stateMutability": "nonpayable",
      "type": "function"
    }
  ],
  "bytecode": "0x60806040523480156200001157600080fd5b506040518060400160405280600a81526020017f43686172616374657273000000000000000000000000000000000000000000008152506040518060400160405280600481526020017f435452530000000000000000000000000000000000000000000000000000000081525081600090816200008f919062000412565b508060019081620000a1919062000412565b505050620000c4620000b8620000ca60201b60201c565b620000d260201b60201c565b620004f9565b600033905090565b6000600a60009054906101000a900473ffffffffffffffffffffffffffffffffffffffff16905081600a60006101000a81548173ffffffffffffffffffffffffffffffffffffffff021916908373ffffffffffffffffffffffffffffffffffffffff1602179055508173ffffffffffffffffffffffffffffffffffffffff168173ffffffffffffffffffffffffffffffffffffffff167f8be0079c531659141344cd1fd0a4f28419497f9722a3daafe3b4186f6b6457e060405160405180910390a35050565b600081519050919050565b7f4e487b7100000000000000000000000000000000000000000000000000000000600052604160045260246000fd5b7f4e487b7100000000000000000000000000000000000000000000000000000000600052602260045260246000fd5b600060028204905060018216806200021a57607f821691505b60208210810362000230576200022f620001d2565b5b50919050565b60008190508160005260206000209050919050565b60006020601f8301049050919050565b600082821b905092915050565b6000600883026200029a7fffffffffffffffffffffffffffffffffffffffffffffffffffffffffffffffff826200025b565b620002a686836200025b565b95508019841693508086168417925050509392505050565b6000819050919050565b6000819050919050565b6000620002f3620002ed620002e784620002be565b620002c8565b620002be565b9050919050565b6000819050919050565b6200030f83620002d2565b620003276200031e82620002fa565b84845462000268565b825550505050565b600090565b6200033e6200032f565b6200034b81848462000304565b505050565b5b8181101562000373576200036760008262000334565b60018101905062000351565b5050565b601f821115620003c2576200038c8162000236565b62000397846200024b565b81016020851015620003a7578190505b620003bf620003b6856200024b565b83018262000350565b50505b505050565b600082821c905092915050565b6000620003e760001984600802620003c7565b1980831691505092915050565b6000620004028383620003d4565b9150826002028217905092915050565b6200041d8262000198565b67ffffffffffffffff811115620004395762000438620001a3565b5b62000445825462000201565b6200045282828562000377565b600060209050601f8311600181146200048a576000841562000475578287015190505b620004818582620003f4565b865550620004f1565b601f1984166200049a8662000236565b60005b82811015620004c4578489015182556001820191506020850194506020810190506200049d565b86831015620004e45784890151620004e0601f891682620003d4565b8355505b6001600288020188555050505b505050505050565b615a5380620005096000396000f3fe608060405234801561001057600080fd5b50600436106101cf5760003560e01c8063715018a611610104578063b88d4fde116100a2578063e327a6af11610071578063e327a6af14610557578063e985e9c514610587578063f2fde38b146105b7578063fca3b5aa146105d3576101cf565b8063b88d4fde146104bd578063b8d90560146104d9578063c87b56dd146104f5578063dabb053114610525576101cf565b80638da5cb5b116100de5780638da5cb5b1461044957806395d89b4114610467578063a22cb46514610485578063ae0b1ea8146104a1576101cf565b8063715018a6146103f357806373412e1c146103fd5780637e9fe96314610419576101cf565b80632f745c5911610171578063468f25b01161014b578063468f25b01461032c5780634f6ccce7146103635780636352211e1461039357806370a08231146103c3576101cf565b80632f745c59146102c457806342842e0e146102f4578063430c453214610310576101cf565b8063095ea7b3116101ad578063095ea7b3146102525780630dffcd851461026e57806318160ddd1461028a57806323b872dd146102a8576101cf565b806301ffc9a7146101d457806306fdde0314610204578063081812fc14610222575b600080fd5b6101ee60048036038101906101e99190613b9a565b6105ef565b6040516101fb9190613be2565b60405180910390f35b61020c610601565b6040516102199190613c8d565b60405180910390f35b61023c60048036038101906102379190613ce5565b610693565b6040516102499190613d53565b60405180910390f35b61026c60048036038101906102679190613d9a565b6106d9565b005b6102886004803603810190610283919061401a565b6107f0565b005b610292610a69565b60405161029f919061409a565b60405180910390f35b6102c260048036038101906102bd91906140b5565b610a76565b005b6102de60048036038101906102d99190613d9a565b610ad6565b6040516102eb919061409a565b60405180910390f35b61030e600480360381019061030991906140b5565b610b7b565b005b61032a60048036038101906103259190614108565b610b9b565b005b61034660048036038101906103419190613ce5565b610be7565b60405161035a989796959493929190614144565b60405180910390f35b61037d60048036038101906103789190613ce5565b610caf565b60405161038a919061409a565b60405180910390f35b6103ad60048036038101906103a89190613ce5565b610d20565b6040516103ba9190613d53565b60405180910390f35b6103dd60048036038101906103d89190614108565b610dd1565b6040516103ea919061409a565b60405180910390f35b6103fb610e88565b005b61041760048036038101906104129190614108565b610e9c565b005b610433600480360381019061042e9190613ce5565b610ee8565b6040516104409190613c8d565b60405180910390f35b610451610f88565b60405161045e9190613d53565b60405180910390f35b61046f610fb2565b60405161047c9190613c8d565b60405180910390f35b61049f600480360381019061049a91906141ee565b611044565b005b6104bb60048036038101906104b69190614108565b61105a565b005b6104d760048036038101906104d291906142cf565b6110a6565b005b6104f360048036038101906104ee9190614352565b611108565b005b61050f600480360381019061050a9190613ce5565b6112f0565b60405161051c9190613c8d565b60405180910390f35b61053f600480360381019061053a9190613ce5565b611568565b60405161054e93929190614524565b60405180910390f35b610571600480360381019061056c9190613d9a565b61177b565b60405161057e9190613be2565b60405180910390f35b6105a1600480360381019061059c9190614564565b61178f565b6040516105ae9190613be2565b60405180910390f35b6105d160048036038101906105cc9190614108565b611823565b005b6105ed60048036038101906105e89190614108565b6118a6565b005b60006105fa826118f2565b9050919050565b606060008054610610906145d3565b80601f016020809104026020016040519081016040528092919081815260200182805461063c906145d3565b80156106895780601f1061065e57610100808354040283529160200191610689565b820191906000526020600020905b81548152906001019060200180831161066c57829003601f168201915b5050505050905090565b600061069e8261196c565b6004600083815260200190815260200160002060009054906101000a900473ffffffffffffffffffffffffffffffffffffffff169050919050565b60006106e482610d20565b90508073ffffffffffffffffffffffffffffffffffffffff168373ffffffffffffffffffffffffffffffffffffffff1603610754576040517f08c379a000000000000000000000000000000000000000000000000000000000815260040161074b90614676565b60405180910390fd5b8073ffffffffffffffffffffffffffffffffffffffff166107736119b7565b73ffffffffffffffffffffffffffffffffffffffff1614806107a257506107a18161079c6119b7565b61178f565b5b6107e1576040517f08c379a00000000000000000000000000000000000000000000000000000000081526004016107d890614708565b60405180910390fd5b6107eb83836119bf565b505050565b601060009054906101000a900473ffffffffffffffffffffffffffffffffffffffff1673ffffffffffffffffffffffffffffffffffffffff163373ffffffffffffffffffffffffffffffffffffffff161461084a57600080fd5b610854600b611a78565b81600e6000610863600b611a8e565b815260200190815260200160002060008201518160000160006101000a81548163ffffffff021916908363ffffffff16021790555060208201518160000160046101000a81548163ffffffff021916908363ffffffff16021790555060408201518160000160086101000a81548163ffffffff021916908363ffffffff160217905550606082015181600001600c6101000a81548163ffffffff021916908363ffffffff16021790555060808201518160000160106101000a81548163ffffffff021916908363ffffffff16021790555060a08201518160000160146101000a81548163ffffffff021916908363ffffffff16021790555060c08201518160000160186101000a81548163ffffffff021916908363ffffffff16021790555060e082015181600001601c6101000a81548163ffffffff021916908363ffffffff16021790555090505080600f60006109bb600b611a8e565b815260200190815260200160002090816109d591906148d4565b506109e9836109e4600b611a8e565b611a9c565b6109f3600b611a8e565b7f4d8e7234eb0fcf2f4c4de31348bbeb94e61ba9ed00fb8edff48c05a2d2e0154684600f6000610a23600b611a8e565b8152602001908152602001600020600e6000610a3f600b611a8e565b8152602001908152602001600020604051610a5c93929190614c3d565b60405180910390a2505050565b6000600880549050905090565b610a87610a816119b7565b82611c75565b610ac6576040517f08c379a0000000000000000000000000000000000000000000000000000000008152600401610abd90614cee565b60405180910390fd5b610ad1838383611d0a565b505050565b6000610ae183610dd1565b8210610b22576040517f08c379a0000000000000000000000000000000000000000000000000000000008152600401610b1990614d80565b60405180910390fd5b600660008473ffffffffffffffffffffffffffffffffffffffff1673ffffffffffffffffffffffffffffffffffffffff168152602001908152602001600020600083815260200190815260200160002054905092915050565b610b96838383604051806020016040528060008152506110a6565b505050565b610ba3611f70565b80601160006101000a81548173ffffffffffffffffffffffffffffffffffffffff021916908373ffffffffffffffffffffffffffffffffffffffff16021790555050565b600e6020528060005260406000206000915090508060000160009054906101000a900463ffffffff16908060000160049054906101000a900463ffffffff16908060000160089054906101000a900463ffffffff169080600001600c9054906101000a900463ffffffff16908060000160109054906101000a900463ffffffff16908060000160149054906101000a900463ffffffff16908060000160189054906101000a900463ffffffff169080600001601c9054906101000a900463ffffffff16905088565b6000610cb9610a69565b8210610cfa576040517f08c379a0000000000000000000000000000000000000000000000000000000008152600401610cf190614e12565b60405180910390fd5b60088281548110610d0e57610d0d614e32565b5b90600052602060002001549050919050565b6000806002600084815260200190815260200160002060009054906101000a900473ffffffffffffffffffffffffffffffffffffffff169050600073ffffffffffffffffffffffffffffffffffffffff168173ffffffffffffffffffffffffffffffffffffffff1603610dc8576040517f08c379a0000000000000000000000000000000000000000000000000000000008152600401610dbf90614ead565b60405180910390fd5b80915050919050565b60008073ffffffffffffffffffffffffffffffffffffffff168273ffffffffffffffffffffffffffffffffffffffff1603610e41576040517f08c379a0000000000000000000000000000000000000000000000000000000008152600401610e3890614f3f565b60405180910390fd5b600360008373ffffffffffffffffffffffffffffffffffffffff1673ffffffffffffffffffffffffffffffffffffffff168152602001908152602001600020549050919050565b610e90611f70565b610e9a6000611fee565b565b610ea4611f70565b80600d60006101000a81548173ffffffffffffffffffffffffffffffffffffffff021916908373ffffffffffffffffffffffffffffffffffffffff16021790555050565b600f6020528060005260406000206000915090508054610f07906145d3565b80601f0160208091040260200160405190810160405280929190818152602001828054610f33906145d3565b8015610f805780601f10610f5557610100808354040283529160200191610f80565b820191906000526020600020905b815481529060010190602001808311610f6357829003601f168201915b505050505081565b6000600a60009054906101000a900473ffffffffffffffffffffffffffffffffffffffff16905090565b606060018054610fc1906145d3565b80601f0160208091040260200160405190810160405280929190818152602001828054610fed906145d3565b801561103a5780601f1061100f5761010080835404028352916020019161103a565b820191906000526020600020905b81548152906001019060200180831161101d57829003601f168201915b5050505050905090565b61105661104f6119b7565b83836120b4565b5050565b611062611f70565b80600c60006101000a81548173ffffffffffffffffffffffffffffffffffffffff021916908373ffffffffffffffffffffffffffffffffffffffff16021790555050565b6110b76110b16119b7565b83611c75565b6110f6576040517f08c379a00000000000000000000000000000000000000000000000000000000081526004016110ed90614cee565b60405180910390fd5b61110284848484612220565b50505050565b601160009054906101000a900473ffffffffffffffffffffffffffffffffffffffff1673ffffffffffffffffffffffffffffffffffffffff163373ffffffffffffffffffffffffffffffffffffffff161461116257600080fd5b80600e600085815260200190815260200160002060008201518160000160006101000a81548163ffffffff021916908363ffffffff16021790555060208201518160000160046101000a81548163ffffffff021916908363ffffffff16021790555060408201518160000160086101000a81548163ffffffff021916908363ffffffff160217905550606082015181600001600c6101000a81548163ffffffff021916908363ffffffff16021790555060808201518160000160106101000a81548163ffffffff021916908363ffffffff16021790555060a08201518160000160146101000a81548163ffffffff021916908363ffffffff16021790555060c08201518160000160186101000a81548163ffffffff021916908363ffffffff16021790555060e082015181600001601c6101000a81548163ffffffff021916908363ffffffff160217905550905050827f68cdd11df2f17f4926545f7a658c797ad7595cd0f7eebba190bc90df8eac289683836040516112e3929190614f5f565b60405180910390a2505050565b60606112fb8261227c565b61133a576040517f08c379a000000000000000000000000000000000000000000000000000000000815260040161133190614fdc565b60405180910390fd5b6000600e6000848152602001908152602001600020604051806101000160405290816000820160009054906101000a900463ffffffff1663ffffffff1663ffffffff1681526020016000820160049054906101000a900463ffffffff1663ffffffff1663ffffffff1681526020016000820160089054906101000a900463ffffffff1663ffffffff1663ffffffff16815260200160008201600c9054906101000a900463ffffffff1663ffffffff1663ffffffff1681526020016000820160109054906101000a900463ffffffff1663ffffffff1663ffffffff1681526020016000820160149054906101000a900463ffffffff1663ffffffff1663ffffffff1681526020016000820160189054906101000a900463ffffffff1663ffffffff1663ffffffff16815260200160008201601c9054906101000a900463ffffffff1663ffffffff1663ffffffff1681525050905060006114a682600001518360c001518460a001516122e8565b9050600d60009054906101000a900473ffffffffffffffffffffffffffffffffffffffff1673ffffffffffffffffffffffffffffffffffffffff1663b12ca1da8383600f60008981526020019081526020016000206040518463ffffffff1660e01b8152600401611519939291906150f2565b600060405180830381865afa158015611536573d6000803e3d6000fd5b505050506040513d6000823e3d601f19601f8201168201806040525081019061155f91906151aa565b92505050919050565b6060611572613a3e565b61157a613ab3565b600f60008581526020019081526020016000208054611598906145d3565b80601f01602080910402602001604051908101604052809291908181526020018280546115c4906145d3565b80156116115780601f106115e657610100808354040283529160200191611611565b820191906000526020600020905b8154815290600101906020018083116115f457829003601f168201915b50505050509250600e6000858152602001908152602001600020604051806101000160405290816000820160009054906101000a900463ffffffff1663ffffffff1663ffffffff1681526020016000820160049054906101000a900463ffffffff1663ffffffff1663ffffffff1681526020016000820160089054906101000a900463ffffffff1663ffffffff1663ffffffff16815260200160008201600c9054906101000a900463ffffffff1663ffffffff1663ffffffff1681526020016000820160109054906101000a900463ffffffff1663ffffffff1663ffffffff1681526020016000820160149054906101000a900463ffffffff1663ffffffff1663ffffffff1681526020016000820160189054906101000a900463ffffffff1663ffffffff1663ffffffff16815260200160008201601c9054906101000a900463ffffffff1663ffffffff1663ffffffff168152505091506117728261238f565b90509193909250565b60006117878383611c75565b905092915050565b6000600560008473ffffffffffffffffffffffffffffffffffffffff1673ffffffffffffffffffffffffffffffffffffffff16815260200190815260200160002060008373ffffffffffffffffffffffffffffffffffffffff1673ffffffffffffffffffffffffffffffffffffffff16815260200190815260200160002060009054906101000a900460ff16905092915050565b61182b611f70565b600073ffffffffffffffffffffffffffffffffffffffff168173ffffffffffffffffffffffffffffffffffffffff160361189a576040517f08c379a000000000000000000000000000000000000000000000000000000000815260040161189190615265565b60405180910390fd5b6118a381611fee565b50565b6118ae611f70565b80601060006101000a81548173ffffffffffffffffffffffffffffffffffffffff021916908373ffffffffffffffffffffffffffffffffffffffff16021790555050565b60007f780e9d63000000000000000000000000000000000000000000000000000000007bffffffffffffffffffffffffffffffffffffffffffffffffffffffff1916827bffffffffffffffffffffffffffffffffffffffffffffffffffffffff19161480611965575061196482612418565b5b9050919050565b6119758161227c565b6119b4576040517f08c379a00000000000000000000000000000000000000000000000000000000081526004016119ab90614ead565b60405180910390fd5b50565b600033905090565b816004600083815260200190815260200160002060006101000a81548173ffffffffffffffffffffffffffffffffffffffff021916908373ffffffffffffffffffffffffffffffffffffffff160217905550808273ffffffffffffffffffffffffffffffffffffffff16611a3283610d20565b73ffffffffffffffffffffffffffffffffffffffff167f8c5be1e5ebec7d5bd14f71427d1e84f3dd0314c0f7b2291e5b200ac8c7c3b92560405160405180910390a45050565b6001816000016000828254019250508190555050565b600081600001549050919050565b600073ffffffffffffffffffffffffffffffffffffffff168273ffffffffffffffffffffffffffffffffffffffff1603611b0b576040517f08c379a0000000000000000000000000000000000000000000000000000000008152600401611b02906152d1565b60405180910390fd5b611b148161227c565b15611b54576040517f08c379a0000000000000000000000000000000000000000000000000000000008152600401611b4b9061533d565b60405180910390fd5b611b60600083836124fa565b6001600360008473ffffffffffffffffffffffffffffffffffffffff1673ffffffffffffffffffffffffffffffffffffffff1681526020019081526020016000206000828254611bb0919061538c565b92505081905550816002600083815260200190815260200160002060006101000a81548173ffffffffffffffffffffffffffffffffffffffff021916908373ffffffffffffffffffffffffffffffffffffffff160217905550808273ffffffffffffffffffffffffffffffffffffffff16600073ffffffffffffffffffffffffffffffffffffffff167fddf252ad1be2c89b69c2b068fc378daa952ba7f163c4a11628f55a4df523b3ef60405160405180910390a4611c71600083836125cc565b5050565b600080611c8183610d20565b90508073ffffffffffffffffffffffffffffffffffffffff168473ffffffffffffffffffffffffffffffffffffffff161480611cc35750611cc2818561178f565b5b80611d0157508373ffffffffffffffffffffffffffffffffffffffff16611ce984610693565b73ffffffffffffffffffffffffffffffffffffffff16145b91505092915050565b8273ffffffffffffffffffffffffffffffffffffffff16611d2a82610d20565b73ffffffffffffffffffffffffffffffffffffffff1614611d80576040517f08c379a0000000000000000000000000000000000000000000000000000000008152600401611d7790615432565b60405180910390fd5b600073ffffffffffffffffffffffffffffffffffffffff168273ffffffffffffffffffffffffffffffffffffffff1603611def576040517f08c379a0000000000000000000000000000000000000000000000000000000008152600401611de6906154c4565b60405180910390fd5b611dfa8383836124fa565b611e056000826119bf565b6001600360008573ffffffffffffffffffffffffffffffffffffffff1673ffffffffffffffffffffffffffffffffffffffff1681526020019081526020016000206000828254611e5591906154e4565b925050819055506001600360008473ffffffffffffffffffffffffffffffffffffffff1673ffffffffffffffffffffffffffffffffffffffff1681526020019081526020016000206000828254611eac919061538c565b92505081905550816002600083815260200190815260200160002060006101000a81548173ffffffffffffffffffffffffffffffffffffffff021916908373ffffffffffffffffffffffffffffffffffffffff160217905550808273ffffffffffffffffffffffffffffffffffffffff168473ffffffffffffffffffffffffffffffffffffffff167fddf252ad1be2c89b69c2b068fc378daa952ba7f163c4a11628f55a4df523b3ef60405160405180910390a4611f6b8383836125cc565b505050565b611f786119b7565b73ffffffffffffffffffffffffffffffffffffffff16611f96610f88565b73ffffffffffffffffffffffffffffffffffffffff1614611fec576040517f08c379a0000000000000000000000000000000000000000000000000000000008152600401611fe390615564565b60405180910390fd5b565b6000600a60009054906101000a900473ffffffffffffffffffffffffffffffffffffffff16905081600a60006101000a81548173ffffffffffffffffffffffffffffffffffffffff021916908373ffffffffffffffffffffffffffffffffffffffff1602179055508173ffffffffffffffffffffffffffffffffffffffff168173ffffffffffffffffffffffffffffffffffffffff167f8be0079c531659141344cd1fd0a4f28419497f9722a3daafe3b4186f6b6457e060405160405180910390a35050565b8173ffffffffffffffffffffffffffffffffffffffff168373ffffffffffffffffffffffffffffffffffffffff1603612122576040517f08c379a0000000000000000000000000000000000000000000000000000000008152600401612119906155d0565b60405180910390fd5b80600560008573ffffffffffffffffffffffffffffffffffffffff1673ffffffffffffffffffffffffffffffffffffffff16815260200190815260200160002060008473ffffffffffffffffffffffffffffffffffffffff1673ffffffffffffffffffffffffffffffffffffffff16815260200190815260200160002060006101000a81548160ff0219169083151502179055508173ffffffffffffffffffffffffffffffffffffffff168373ffffffffffffffffffffffffffffffffffffffff167f17307eab39ab6107e8899845ad3d59bd9653f200f220920489ca2b5937696c31836040516122139190613be2565b60405180910390a3505050565b61222b848484611d0a565b612237848484846125d1565b612276576040517f08c379a000000000000000000000000000000000000000000000000000000000815260040161226d90615662565b60405180910390fd5b50505050565b60008073ffffffffffffffffffffffffffffffffffffffff166002600084815260200190815260200160002060009054906101000a900473ffffffffffffffffffffffffffffffffffffffff1673ffffffffffffffffffffffffffffffffffffffff1614159050919050565b6122f0613af8565b60006040518060800160405280605d81526020016159c1605d913990506000806000806000806123218b8b8b612758565b9550955095509550955095506040518060c0016040528087815260200188878988604051602001612355949392919061570a565b6040516020818303038152906040528152602001858152602001848152602001838152602001828152509750505050505050509392505050565b612397613ab3565b6040518061010001604052806123ac84612d1d565b81526020016123ba84612dd0565b81526020016123c884612e84565b81526020016123d684612f38565b81526020016123e484612fb9565b81526020016123f28461303a565b8152602001612400846130bb565b815260200161240e846130db565b8152509050919050565b60007f80ac58cd000000000000000000000000000000000000000000000000000000007bffffffffffffffffffffffffffffffffffffffffffffffffffffffff1916827bffffffffffffffffffffffffffffffffffffffffffffffffffffffff191614806124e357507f5b5e139f000000000000000000000000000000000000000000000000000000007bffffffffffffffffffffffffffffffffffffffffffffffffffffffff1916827bffffffffffffffffffffffffffffffffffffffffffffffffffffffff1916145b806124f357506124f282613116565b5b9050919050565b600073ffffffffffffffffffffffffffffffffffffffff168373ffffffffffffffffffffffffffffffffffffffff16146125bc57600c60009054906101000a900473ffffffffffffffffffffffffffffffffffffffff1673ffffffffffffffffffffffffffffffffffffffff1663aeb804da826040518263ffffffff1660e01b8152600401612589919061409a565b600060405180830381600087803b1580156125a357600080fd5b505af11580156125b7573d6000803e3d6000fd5b505050505b6125c7838383613180565b505050565b505050565b60006125f28473ffffffffffffffffffffffffffffffffffffffff16613292565b1561274b578373ffffffffffffffffffffffffffffffffffffffff1663150b7a0261261b6119b7565b8786866040518563ffffffff1660e01b815260040161263d94939291906157bb565b6020604051808303816000875af192505050801561267957506040513d601f19601f82011682018060405250810190612676919061581c565b60015b6126fb573d80600081146126a9576040519150601f19603f3d011682016040523d82523d6000602084013e6126ae565b606091505b5060008151036126f3576040517f08c379a00000000000000000000000000000000000000000000000000000000081526004016126ea90615662565b60405180910390fd5b805181602001fd5b63150b7a0260e01b7bffffffffffffffffffffffffffffffffffffffffffffffffffffffff1916817bffffffffffffffffffffffffffffffffffffffffffffffffffffffff191614915050612750565b600190505b949350505050565b60608060608060608060008963ffffffff1603612850576040518060400160405280600681526020017f56696b696e67000000000000000000000000000000000000000000000000000081525095506040518060400160405280600481526020017f302532300000000000000000000000000000000000000000000000000000000081525094506040518060400160405280600c81526020017f56696b696e67202841544b29000000000000000000000000000000000000000081525092506040518060400160405280600181526020017f350000000000000000000000000000000000000000000000000000000000000081525091505b60018963ffffffff160361293f576040518060400160405280600a81526020017f576f6f646375747465720000000000000000000000000000000000000000000081525095506040518060400160405280600481526020017f312532300000000000000000000000000000000000000000000000000000000081525094506040518060400160405280601081526020017f576f6f64637574746572202850454e290000000000000000000000000000000081525092506040518060400160405280600281526020017f313000000000000000000000000000000000000000000000000000000000000081525091505b60028963ffffffff1603612a2e576040518060400160405280600581526020017f54726f6c6c00000000000000000000000000000000000000000000000000000081525095506040518060400160405280600481526020017f342532300000000000000000000000000000000000000000000000000000000081525094506040518060400160405280600a81526020017f54726f6c6c20284850290000000000000000000000000000000000000000000081525092506040518060400160405280600181526020017f330000000000000000000000000000000000000000000000000000000000000081525091505b60038963ffffffff1603612b1d576040518060400160405280600881526020017f4d656368616e696300000000000000000000000000000000000000000000000081525095506040518060400160405280600481526020017f352532300000000000000000000000000000000000000000000000000000000081525094506040518060400160405280600e81526020017f4d656368616e696320284445462900000000000000000000000000000000000081525092506040518060400160405280600281526020017f313000000000000000000000000000000000000000000000000000000000000081525091505b60048963ffffffff1603612c0c576040518060400160405280600981526020017f416d7068696269616e000000000000000000000000000000000000000000000081525095506040518060400160405280600481526020017f322532300000000000000000000000000000000000000000000000000000000081525094506040518060400160405280601081526020017f416d7068696269616e202843524954290000000000000000000000000000000081525092506040518060400160405280600281526020017f313000000000000000000000000000000000000000000000000000000000000081525091505b60058963ffffffff1603612cfb576040518060400160405280600b81526020017f4772617665526f6262657200000000000000000000000000000000000000000081525095506040518060400160405280600481526020017f332532300000000000000000000000000000000000000000000000000000000081525094506040518060400160405280601181526020017f4772617665726f6262657220284556412900000000000000000000000000000081525092506040518060400160405280600281526020017f313000000000000000000000000000000000000000000000000000000000000081525091505b612d04886132b5565b9350612d0f87613582565b905093975093979195509350565b60006004600a60048460800151612d349190615849565b60068560400151612d459190615849565b612d4f9190615886565b612d5991906158ed565b612d6391906158ed565b63ffffffff169050600080836000015163ffffffff1603612d8357600590505b60008360a0015163ffffffff1603612da557600581612da2919061538c565b90505b60648183612db3919061591e565b612dbd9190615960565b82612dc8919061538c565b915050919050565b60006002600a60048460400151612de79190615849565b60068560600151612df89190615849565b612e029190615886565b612e0c91906158ed565b612e1691906158ed565b63ffffffff16905060006003836000015163ffffffff1603612e3757600a90505b60038360a0015163ffffffff1603612e5957600a81612e56919061538c565b90505b60648183612e67919061591e565b612e719190615960565b82612e7c919061538c565b915050919050565b60006002600a60048460600151612e9b9190615849565b60068560800151612eac9190615849565b612eb69190615886565b612ec091906158ed565b612eca91906158ed565b63ffffffff16905060006005836000015163ffffffff1603612eeb57600a90505b60058360a0015163ffffffff1603612f0d57600a81612f0a919061538c565b90505b60648183612f1b919061591e565b612f259190615960565b82612f30919061538c565b915050919050565b600060058260600151612f4b9190615849565b63ffffffff16905060006002836000015163ffffffff1603612f6c57600390505b60028360a0015163ffffffff1603612f8e57600381612f8b919061538c565b90505b60648183612f9c919061591e565b612fa69190615960565b82612fb1919061538c565b915050919050565b600060028260400151612fcc91906158ed565b63ffffffff16905060006001836000015163ffffffff1603612fed57600a90505b60018360a0015163ffffffff160361300f57600a8161300c919061538c565b90505b6064818361301d919061591e565b6130279190615960565b82613032919061538c565b915050919050565b60006002826080015161304d91906158ed565b63ffffffff16905060006004836000015163ffffffff160361306e57600a90505b60048360a0015163ffffffff160361309057600a8161308d919061538c565b90505b6064818361309e919061591e565b6130a89190615960565b826130b3919061538c565b915050919050565b6000600a82608001516130ce91906158ed565b63ffffffff169050919050565b6000600a6002836040015184606001516130f59190615886565b6130ff91906158ed565b61310991906158ed565b63ffffffff169050919050565b60007f01ffc9a7000000000000000000000000000000000000000000000000000000007bffffffffffffffffffffffffffffffffffffffffffffffffffffffff1916827bffffffffffffffffffffffffffffffffffffffffffffffffffffffff1916149050919050565b61318b838383613733565b600073ffffffffffffffffffffffffffffffffffffffff168373ffffffffffffffffffffffffffffffffffffffff16036131cd576131c881613738565b61320c565b8173ffffffffffffffffffffffffffffffffffffffff168373ffffffffffffffffffffffffffffffffffffffff161461320b5761320a8382613781565b5b5b600073ffffffffffffffffffffffffffffffffffffffff168273ffffffffffffffffffffffffffffffffffffffff160361324e57613249816138ee565b61328d565b8273ffffffffffffffffffffffffffffffffffffffff168273ffffffffffffffffffffffffffffffffffffffff161461328c5761328b82826139bf565b5b5b505050565b6000808273ffffffffffffffffffffffffffffffffffffffff163b119050919050565b606060008263ffffffff16036132fe576040518060400160405280600681526020017f416d617a6564000000000000000000000000000000000000000000000000000081525090505b60018263ffffffff1603613345576040518060400160405280600581526020017f416e67727900000000000000000000000000000000000000000000000000000081525090505b60028263ffffffff160361338c576040518060400160405280600481526020017f43616c6d0000000000000000000000000000000000000000000000000000000081525090505b60038263ffffffff16036133d3576040518060400160405280600981526020017f497272697461746564000000000000000000000000000000000000000000000081525090505b60048263ffffffff160361341a576040518060400160405280600781526020017f4d6f636b696e670000000000000000000000000000000000000000000000000081525090505b60058263ffffffff1603613461576040518060400160405280600381526020017f536164000000000000000000000000000000000000000000000000000000000081525090505b60068263ffffffff16036134a8576040518060400160405280600681526020017f536361726564000000000000000000000000000000000000000000000000000081525090505b60078263ffffffff16036134ef576040518060400160405280600881526020017f5374756e6e696e6700000000000000000000000000000000000000000000000081525090505b60088263ffffffff1603613536576040518060400160405280600a81526020017f54686f7567687466756c0000000000000000000000000000000000000000000081525090505b60098263ffffffff160361357d576040518060400160405280600581526020017f557073657400000000000000000000000000000000000000000000000000000081525090505b919050565b606060008263ffffffff16036135cb576040518060400160405280600181526020017f350000000000000000000000000000000000000000000000000000000000000081525090505b60018263ffffffff1603613612576040518060400160405280600281526020017f313000000000000000000000000000000000000000000000000000000000000081525090505b60028263ffffffff1603613659576040518060400160405280600181526020017f330000000000000000000000000000000000000000000000000000000000000081525090505b60038263ffffffff16036136a0576040518060400160405280600281526020017f313000000000000000000000000000000000000000000000000000000000000081525090505b60048263ffffffff16036136e7576040518060400160405280600281526020017f313000000000000000000000000000000000000000000000000000000000000081525090505b60058263ffffffff160361372e576040518060400160405280600281526020017f313000000000000000000000000000000000000000000000000000000000000081525090505b919050565b505050565b6008805490506009600083815260200190815260200160002081905550600881908060018154018082558091505060019003906000526020600020016000909190919091505550565b6000600161378e84610dd1565b61379891906154e4565b905060006007600084815260200190815260200160002054905081811461387d576000600660008673ffffffffffffffffffffffffffffffffffffffff1673ffffffffffffffffffffffffffffffffffffffff168152602001908152602001600020600084815260200190815260200160002054905080600660008773ffffffffffffffffffffffffffffffffffffffff1673ffffffffffffffffffffffffffffffffffffffff168152602001908152602001600020600084815260200190815260200160002081905550816007600083815260200190815260200160002081905550505b6007600084815260200190815260200160002060009055600660008573ffffffffffffffffffffffffffffffffffffffff1673ffffffffffffffffffffffffffffffffffffffff16815260200190815260200160002060008381526020019081526020016000206000905550505050565b6000600160088054905061390291906154e4565b905060006009600084815260200190815260200160002054905060006008838154811061393257613931614e32565b5b90600052602060002001549050806008838154811061395457613953614e32565b5b9060005260206000200181905550816009600083815260200190815260200160002081905550600960008581526020019081526020016000206000905560088054806139a3576139a2615991565b5b6001900381819060005260206000200160009055905550505050565b60006139ca83610dd1565b905081600660008573ffffffffffffffffffffffffffffffffffffffff1673ffffffffffffffffffffffffffffffffffffffff168152602001908152602001600020600083815260200190815260200160002081905550806007600084815260200190815260200160002081905550505050565b604051806101000160405280600063ffffffff168152602001600063ffffffff168152602001600063ffffffff168152602001600063ffffffff168152602001600063ffffffff168152602001600063ffffffff168152602001600063ffffffff168152602001600063ffffffff1681525090565b60405180610100016040528060008152602001600081526020016000815260200160008152602001600081526020016000815260200160008152602001600081525090565b6040518060c001604052806060815260200160608152602001606081526020016060815260200160608152602001606081525090565b6000604051905090565b600080fd5b600080fd5b60007fffffffff0000000000000000000000000000000000000000000000000000000082169050919050565b613b7781613b42565b8114613b8257600080fd5b50565b600081359050613b9481613b6e565b92915050565b600060208284031215613bb057613baf613b38565b5b6000613bbe84828501613b85565b91505092915050565b60008115159050919050565b613bdc81613bc7565b82525050565b6000602082019050613bf76000830184613bd3565b92915050565b600081519050919050565b600082825260208201905092915050565b60005b83811015613c37578082015181840152602081019050613c1c565b60008484015250505050565b6000601f19601f8301169050919050565b6000613c5f82613bfd565b613c698185613c08565b9350613c79818560208601613c19565b613c8281613c43565b840191505092915050565b60006020820190508181036000830152613ca78184613c54565b905092915050565b6000819050919050565b613cc281613caf565b8114613ccd57600080fd5b50565b600081359050613cdf81613cb9565b92915050565b600060208284031215613cfb57613cfa613b38565b5b6000613d0984828501613cd0565b91505092915050565b600073ffffffffffffffffffffffffffffffffffffffff82169050919050565b6000613d3d82613d12565b9050919050565b613d4d81613d32565b82525050565b6000602082019050613d686000830184613d44565b92915050565b613d7781613d32565b8114613d8257600080fd5b50565b600081359050613d9481613d6e565b92915050565b60008060408385031215613db157613db0613b38565b5b6000613dbf85828601613d85565b9250506020613dd085828601613cd0565b9150509250929050565b600080fd5b7f4e487b7100000000000000000000000000000000000000000000000000000000600052604160045260246000fd5b613e1782613c43565b810181811067ffffffffffffffff82111715613e3657613e35613ddf565b5b80604052505050565b6000613e49613b2e565b9050613e558282613e0e565b919050565b600063ffffffff82169050919050565b613e7381613e5a565b8114613e7e57600080fd5b50565b600081359050613e9081613e6a565b92915050565b60006101008284031215613ead57613eac613dda565b5b613eb8610100613e3f565b90506000613ec884828501613e81565b6000830152506020613edc84828501613e81565b6020830152506040613ef084828501613e81565b6040830152506060613f0484828501613e81565b6060830152506080613f1884828501613e81565b60808301525060a0613f2c84828501613e81565b60a08301525060c0613f4084828501613e81565b60c08301525060e0613f5484828501613e81565b60e08301525092915050565b600080fd5b600080fd5b600067ffffffffffffffff821115613f8557613f84613ddf565b5b613f8e82613c43565b9050602081019050919050565b82818337600083830152505050565b6000613fbd613fb884613f6a565b613e3f565b905082815260208101848484011115613fd957613fd8613f65565b5b613fe4848285613f9b565b509392505050565b600082601f83011261400157614000613f60565b5b8135614011848260208601613faa565b91505092915050565b6000806000610140848603121561403457614033613b38565b5b600061404286828701613d85565b935050602061405386828701613e96565b92505061012084013567ffffffffffffffff81111561407557614074613b3d565b5b61408186828701613fec565b9150509250925092565b61409481613caf565b82525050565b60006020820190506140af600083018461408b565b92915050565b6000806000606084860312156140ce576140cd613b38565b5b60006140dc86828701613d85565b93505060206140ed86828701613d85565b92505060406140fe86828701613cd0565b9150509250925092565b60006020828403121561411e5761411d613b38565b5b600061412c84828501613d85565b91505092915050565b61413e81613e5a565b82525050565b60006101008201905061415a600083018b614135565b614167602083018a614135565b6141746040830189614135565b6141816060830188614135565b61418e6080830187614135565b61419b60a0830186614135565b6141a860c0830185614135565b6141b560e0830184614135565b9998505050505050505050565b6141cb81613bc7565b81146141d657600080fd5b50565b6000813590506141e8816141c2565b92915050565b6000806040838503121561420557614204613b38565b5b600061421385828601613d85565b9250506020614224858286016141d9565b9150509250929050565b600067ffffffffffffffff82111561424957614248613ddf565b5b61425282613c43565b9050602081019050919050565b600061427261426d8461422e565b613e3f565b90508281526020810184848401111561428e5761428d613f65565b5b614299848285613f9b565b509392505050565b600082601f8301126142b6576142b5613f60565b5b81356142c684826020860161425f565b91505092915050565b600080600080608085870312156142e9576142e8613b38565b5b60006142f787828801613d85565b945050602061430887828801613d85565b935050604061431987828801613cd0565b925050606085013567ffffffffffffffff81111561433a57614339613b3d565b5b614346878288016142a1565b91505092959194509250565b6000806000610140848603121561436c5761436b613b38565b5b600061437a86828701613cd0565b935050602084013567ffffffffffffffff81111561439b5761439a613b3d565b5b6143a786828701613fec565b92505060406143b886828701613e96565b9150509250925092565b6143cb81613e5a565b82525050565b610100820160008201516143e860008501826143c2565b5060208201516143fb60208501826143c2565b50604082015161440e60408501826143c2565b50606082015161442160608501826143c2565b50608082015161443460808501826143c2565b5060a082015161444760a08501826143c2565b5060c082015161445a60c08501826143c2565b5060e082015161446d60e08501826143c2565b50505050565b61447c81613caf565b82525050565b610100820160008201516144996000850182614473565b5060208201516144ac6020850182614473565b5060408201516144bf6040850182614473565b5060608201516144d26060850182614473565b5060808201516144e56080850182614473565b5060a08201516144f860a0850182614473565b5060c082015161450b60c0850182614473565b5060e082015161451e60e0850182614473565b50505050565b600061022082019050818103600083015261453f8186613c54565b905061454e60208301856143d1565b61455c610120830184614482565b949350505050565b6000806040838503121561457b5761457a613b38565b5b600061458985828601613d85565b925050602061459a85828601613d85565b9150509250929050565b7f4e487b7100000000000000000000000000000000000000000000000000000000600052602260045260246000fd5b600060028204905060018216806145eb57607f821691505b6020821081036145fe576145fd6145a4565b5b50919050565b7f4552433732313a20617070726f76616c20746f2063757272656e74206f776e6560008201527f7200000000000000000000000000000000000000000000000000000000000000602082015250565b6000614660602183613c08565b915061466b82614604565b604082019050919050565b6000602082019050818103600083015261468f81614653565b9050919050565b7f4552433732313a20617070726f76652063616c6c6572206973206e6f7420746f60008201527f6b656e206f776e6572206e6f7220617070726f76656420666f7220616c6c0000602082015250565b60006146f2603e83613c08565b91506146fd82614696565b604082019050919050565b60006020820190508181036000830152614721816146e5565b9050919050565b60008190508160005260206000209050919050565b60006020601f8301049050919050565b600082821b905092915050565b60006008830261478a7fffffffffffffffffffffffffffffffffffffffffffffffffffffffffffffffff8261474d565b614794868361474d565b95508019841693508086168417925050509392505050565b6000819050919050565b60006147d16147cc6147c784613caf565b6147ac565b613caf565b9050919050565b6000819050919050565b6147eb836147b6565b6147ff6147f7826147d8565b84845461475a565b825550505050565b600090565b614814614807565b61481f8184846147e2565b505050565b5b818110156148435761483860008261480c565b600181019050614825565b5050565b601f8211156148885761485981614728565b6148628461473d565b81016020851015614871578190505b61488561487d8561473d565b830182614824565b50505b505050565b600082821c905092915050565b60006148ab6000198460080261488d565b1980831691505092915050565b60006148c4838361489a565b9150826002028217905092915050565b6148dd82613bfd565b67ffffffffffffffff8111156148f6576148f5613ddf565b5b61490082546145d3565b61490b828285614847565b600060209050601f83116001811461493e576000841561492c578287015190505b61493685826148b8565b86555061499e565b601f19841661494c86614728565b60005b828110156149745784890151825560018201915060208501945060208101905061494f565b86831015614991578489015161498d601f89168261489a565b8355505b6001600288020188555050505b505050505050565b600081546149b3816145d3565b6149bd8186613c08565b945060018216600081146149d857600181146149ee57614a21565b60ff198316865281151560200286019350614a21565b6149f785614728565b60005b83811015614a19578154818901526001820191506020810190506149fa565b808801955050505b50505092915050565b60008160001c9050919050565b600063ffffffff82169050919050565b6000614a5a614a5583614a2a565b614a37565b9050919050565b60008160201c9050919050565b6000614a81614a7c83614a61565b614a37565b9050919050565b60008160401c9050919050565b6000614aa8614aa383614a88565b614a37565b9050919050565b60008160601c9050919050565b6000614acf614aca83614aaf565b614a37565b9050919050565b60008160801c9050919050565b6000614af6614af183614ad6565b614a37565b9050919050565b60008160a01c9050919050565b6000614b1d614b1883614afd565b614a37565b9050919050565b60008160c01c9050919050565b6000614b44614b3f83614b24565b614a37565b9050919050565b60008160e01c9050919050565b6000614b6b614b6683614b4b565b614a37565b9050919050565b61010082016000808301549050614b8881614a47565b614b9560008601826143c2565b50614b9f81614a6e565b614bac60208601826143c2565b50614bb681614a95565b614bc360408601826143c2565b50614bcd81614abc565b614bda60608601826143c2565b50614be481614ae3565b614bf160808601826143c2565b50614bfb81614b0a565b614c0860a08601826143c2565b50614c1281614b31565b614c1f60c08601826143c2565b50614c2981614b58565b614c3660e08601826143c2565b5050505050565b600061014082019050614c536000830186613d44565b8181036020830152614c6581856149a6565b9050614c746040830184614b72565b949350505050565b7f4552433732313a2063616c6c6572206973206e6f7420746f6b656e206f776e6560008201527f72206e6f7220617070726f766564000000000000000000000000000000000000602082015250565b6000614cd8602e83613c08565b9150614ce382614c7c565b604082019050919050565b60006020820190508181036000830152614d0781614ccb565b9050919050565b7f455243373231456e756d657261626c653a206f776e657220696e646578206f7560008201527f74206f6620626f756e6473000000000000000000000000000000000000000000602082015250565b6000614d6a602b83613c08565b9150614d7582614d0e565b604082019050919050565b60006020820190508181036000830152614d9981614d5d565b9050919050565b7f455243373231456e756d657261626c653a20676c6f62616c20696e646578206f60008201527f7574206f6620626f756e64730000000000000000000000000000000000000000602082015250565b6000614dfc602c83613c08565b9150614e0782614da0565b604082019050919050565b60006020820190508181036000830152614e2b81614def565b9050919050565b7f4e487b7100000000000000000000000000000000000000000000000000000000600052603260045260246000fd5b7f4552433732313a20696e76616c696420746f6b656e2049440000000000000000600082015250565b6000614e97601883613c08565b9150614ea282614e61565b602082019050919050565b60006020820190508181036000830152614ec681614e8a565b9050919050565b7f4552433732313a2061646472657373207a65726f206973206e6f74206120766160008201527f6c6964206f776e65720000000000000000000000000000000000000000000000602082015250565b6000614f29602983613c08565b9150614f3482614ecd565b604082019050919050565b60006020820190508181036000830152614f5881614f1c565b9050919050565b6000610120820190508181036000830152614f7a8185613c54565b9050614f8960208301846143d1565b9392505050565b7f4e6f6e6578697374656e74000000000000000000000000000000000000000000600082015250565b6000614fc6600b83613c08565b9150614fd182614f90565b602082019050919050565b60006020820190508181036000830152614ff581614fb9565b9050919050565b600082825260208201905092915050565b600061501882613bfd565b6150228185614ffc565b9350615032818560208601613c19565b61503b81613c43565b840191505092915050565b600060c0830160008301518482036000860152615063828261500d565b9150506020830151848203602086015261507d828261500d565b91505060408301518482036040860152615097828261500d565b915050606083015184820360608601526150b1828261500d565b915050608083015184820360808601526150cb828261500d565b91505060a083015184820360a08601526150e5828261500d565b9150508091505092915050565b60006101408201905061510860008301866143d1565b81810361010083015261511b8185615046565b905081810361012083015261513081846149a6565b9050949350505050565b600061514d61514884613f6a565b613e3f565b90508281526020810184848401111561516957615168613f65565b5b615174848285613c19565b509392505050565b600082601f83011261519157615190613f60565b5b81516151a184826020860161513a565b91505092915050565b6000602082840312156151c0576151bf613b38565b5b600082015167ffffffffffffffff8111156151de576151dd613b3d565b5b6151ea8482850161517c565b91505092915050565b7f4f776e61626c653a206e6577206f776e657220697320746865207a65726f206160008201527f6464726573730000000000000000000000000000000000000000000000000000602082015250565b600061524f602683613c08565b915061525a826151f3565b604082019050919050565b6000602082019050818103600083015261527e81615242565b9050919050565b7f4552433732313a206d696e7420746f20746865207a65726f2061646472657373600082015250565b60006152bb602083613c08565b91506152c682615285565b602082019050919050565b600060208201905081810360008301526152ea816152ae565b9050919050565b7f4552433732313a20746f6b656e20616c7265616479206d696e74656400000000600082015250565b6000615327601c83613c08565b9150615332826152f1565b602082019050919050565b600060208201905081810360008301526153568161531a565b9050919050565b7f4e487b7100000000000000000000000000000000000000000000000000000000600052601160045260246000fd5b600061539782613caf565b91506153a283613caf565b92508282019050808211156153ba576153b961535d565b5b92915050565b7f4552433732313a207472616e736665722066726f6d20696e636f72726563742060008201527f6f776e6572000000000000000000000000000000000000000000000000000000602082015250565b600061541c602583613c08565b9150615427826153c0565b604082019050919050565b6000602082019050818103600083015261544b8161540f565b9050919050565b7f4552433732313a207472616e7366657220746f20746865207a65726f2061646460008201527f7265737300000000000000000000000000000000000000000000000000000000602082015250565b60006154ae602483613c08565b91506154b982615452565b604082019050919050565b600060208201905081810360008301526154dd816154a1565b9050919050565b60006154ef82613caf565b91506154fa83613caf565b92508282039050818111156155125761551161535d565b5b92915050565b7f4f776e61626c653a2063616c6c6572206973206e6f7420746865206f776e6572600082015250565b600061554e602083613c08565b915061555982615518565b602082019050919050565b6000602082019050818103600083015261557d81615541565b9050919050565b7f4552433732313a20617070726f766520746f2063616c6c657200000000000000600082015250565b60006155ba601983613c08565b91506155c582615584565b602082019050919050565b600060208201905081810360008301526155e9816155ad565b9050919050565b7f4552433732313a207472616e7366657220746f206e6f6e20455243373231526560008201527f63656976657220696d706c656d656e7465720000000000000000000000000000602082015250565b600061564c603283613c08565b9150615657826155f0565b604082019050919050565b6000602082019050818103600083015261567b8161563f565b9050919050565b600081905092915050565b600061569882613bfd565b6156a28185615682565b93506156b2818560208601613c19565b80840191505092915050565b7f2f00000000000000000000000000000000000000000000000000000000000000815250565b7f2e706e6700000000000000000000000000000000000000000000000000000000815250565b6000615716828761568d565b9150615722828661568d565b915061572e828561568d565b9150615739826156be565b600182019150615749828461568d565b9150615754826156e4565b60048201915081905095945050505050565b600081519050919050565b600082825260208201905092915050565b600061578d82615766565b6157978185615771565b93506157a7818560208601613c19565b6157b081613c43565b840191505092915050565b60006080820190506157d06000830187613d44565b6157dd6020830186613d44565b6157ea604083018561408b565b81810360608301526157fc8184615782565b905095945050505050565b60008151905061581681613b6e565b92915050565b60006020828403121561583257615831613b38565b5b600061584084828501615807565b91505092915050565b600061585482613e5a565b915061585f83613e5a565b925082820261586d81613e5a565b915080821461587f5761587e61535d565b5b5092915050565b600061589182613e5a565b915061589c83613e5a565b9250828201905063ffffffff8111156158b8576158b761535d565b5b92915050565b7f4e487b7100000000000000000000000000000000000000000000000000000000600052601260045260246000fd5b60006158f882613e5a565b915061590383613e5a565b925082615913576159126158be565b5b828204905092915050565b600061592982613caf565b915061593483613caf565b925082820261594281613caf565b915082820484148315176159595761595861535d565b5b5092915050565b600061596b82613caf565b915061597683613caf565b925082615986576159856158be565b5b828204905092915050565b7f4e487b7100000000000000000000000000000000000000000000000000000000600052603160045260246000fdfe68747470733a2f2f636861696e6c696e6b2d727067323032322e696e667572612d697066732e696f2f697066732f516d546e4351567a6b466563426a4c55544a54624a6d753144733373696d696d75385a31584b4b6b7367633761732fa2646970667358221220f629c472c8c0d4225643f65a39a86ec64a684fb82589cf4d7699f422c24f82ce64736f6c63430008110033",
  "linkReferences": {},
  "deployedLinkReferences": {}
}