{
  "_format": "hh-sol-artifact-1",
  "contractName": "Characters",
  "sourceName": "contracts/core/nfts/Characters.sol",
  "abi": [
    {
      "inputs": [],
      "stateMutability": "nonpayable",
      "type": "constructor"
    },
    {
      "anonymous": false,
      "inputs": [
        {
          "indexed": true,
          "internalType": "address",
          "name": "owner",
          "type": "address"
        },
        {
          "indexed": true,
          "internalType": "address",
          "name": "approved",
          "type": "address"
        },
        {
          "indexed": true,
          "internalType": "uint256",
          "name": "tokenId",
          "type": "uint256"
        }
      ],
      "name": "Approval",
      "type": "event"
    },
    {
      "anonymous": false,
      "inputs": [
        {
          "indexed": true,
          "internalType": "address",
          "name": "owner",
          "type": "address"
        },
        {
          "indexed": true,
          "internalType": "address",
          "name": "operator",
          "type": "address"
        },
        {
          "indexed": false,
          "internalType": "bool",
          "name": "approved",
          "type": "bool"
        }
      ],
      "name": "ApprovalForAll",
      "type": "event"
    },
    {
      "anonymous": false,
      "inputs": [
        {
          "indexed": true,
          "internalType": "uint256",
          "name": "character_id",
          "type": "uint256"
        },
        {
          "indexed": false,
          "internalType": "address",
          "name": "user",
          "type": "address"
        },
        {
          "indexed": false,
          "internalType": "string",
          "name": "char_name",
          "type": "string"
        },
        {
          "components": [
            {
              "internalType": "uint32",
              "name": "character_class",
              "type": "uint32"
            },
            {
              "internalType": "uint32",
              "name": "element",
              "type": "uint32"
            },
            {
              "internalType": "uint32",
              "name": "str",
              "type": "uint32"
            },
            {
              "internalType": "uint32",
              "name": "vit",
              "type": "uint32"
            },
            {
              "internalType": "uint32",
              "name": "dex",
              "type": "uint32"
            },
            {
              "internalType": "uint32",
              "name": "talent",
              "type": "uint32"
            },
            {
              "internalType": "uint32",
              "name": "mood",
              "type": "uint32"
            },
            {
              "internalType": "uint32",
              "name": "exp",
              "type": "uint32"
            }
          ],
          "indexed": false,
          "internalType": "struct character_properties",
          "name": "character_props",
          "type": "tuple"
        }
      ],
      "name": "CharacterMinted",
      "type": "event"
    },
    {
      "anonymous": false,
      "inputs": [
        {
          "indexed": true,
          "internalType": "uint256",
          "name": "character_id",
          "type": "uint256"
        },
        {
          "indexed": false,
          "internalType": "string",
          "name": "char_name",
          "type": "string"
        }
      ],
      "name": "CharacterRenamed",
      "type": "event"
    },
    {
      "anonymous": false,
      "inputs": [
        {
          "indexed": true,
          "internalType": "uint256",
          "name": "character_id",
          "type": "uint256"
        },
        {
          "components": [
            {
              "internalType": "uint32",
              "name": "character_class",
              "type": "uint32"
            },
            {
              "internalType": "uint32",
              "name": "element",
              "type": "uint32"
            },
            {
              "internalType": "uint32",
              "name": "str",
              "type": "uint32"
            },
            {
              "internalType": "uint32",
              "name": "vit",
              "type": "uint32"
            },
            {
              "internalType": "uint32",
              "name": "dex",
              "type": "uint32"
            },
            {
              "internalType": "uint32",
              "name": "talent",
              "type": "uint32"
            },
            {
              "internalType": "uint32",
              "name": "mood",
              "type": "uint32"
            },
            {
              "internalType": "uint32",
              "name": "exp",
              "type": "uint32"
            }
          ],
          "indexed": false,
          "internalType": "struct character_properties",
          "name": "character_props",
          "type": "tuple"
        }
      ],
      "name": "CharacterUpdated",
      "type": "event"
    },
    {
      "anonymous": false,
      "inputs": [
        {
          "indexed": true,
          "internalType": "address",
          "name": "previousOwner",
          "type": "address"
        },
        {
          "indexed": true,
          "internalType": "address",
          "name": "newOwner",
          "type": "address"
        }
      ],
      "name": "OwnershipTransferred",
      "type": "event"
    },
    {
      "anonymous": false,
      "inputs": [
        {
          "indexed": true,
          "internalType": "address",
          "name": "from",
          "type": "address"
        },
        {
          "indexed": true,
          "internalType": "address",
          "name": "to",
          "type": "address"
        },
        {
          "indexed": true,
          "internalType": "uint256",
          "name": "tokenId",
          "type": "uint256"
        }
      ],
      "name": "Transfer",
      "type": "event"
    },
    {
      "inputs": [
        {
          "internalType": "address",
          "name": "user",
          "type": "address"
        },
        {
          "components": [
            {
              "internalType": "uint32",
              "name": "character_class",
              "type": "uint32"
            },
            {
              "internalType": "uint32",
              "name": "element",
              "type": "uint32"
            },
            {
              "internalType": "uint32",
              "name": "str",
              "type": "uint32"
            },
            {
              "internalType": "uint32",
              "name": "vit",
              "type": "uint32"
            },
            {
              "internalType": "uint32",
              "name": "dex",
              "type": "uint32"
            },
            {
              "internalType": "uint32",
              "name": "talent",
              "type": "uint32"
            },
            {
              "internalType": "uint32",
              "name": "mood",
              "type": "uint32"
            },
            {
              "internalType": "uint32",
              "name": "exp",
              "type": "uint32"
            }
          ],
          "internalType": "struct character_properties",
          "name": "character_props",
          "type": "tuple"
        },
        {
          "internalType": "string",
          "name": "_character_name",
          "type": "string"
        }
      ],
      "name": "_mintCharacter",
      "outputs": [],
      "stateMutability": "nonpayable",
      "type": "function"
    },
    {
      "inputs": [
        {
          "internalType": "address",
          "name": "to",
          "type": "address"
        },
        {
          "internalType": "uint256",
          "name": "tokenId",
          "type": "uint256"
        }
      ],
      "name": "approve",
      "outputs": [],
      "stateMutability": "nonpayable",
      "type": "function"
    },
    {
      "inputs": [
        {
          "internalType": "address",
          "name": "owner",
          "type": "address"
        }
      ],
      "name": "balanceOf",
      "outputs": [
        {
          "internalType": "uint256",
          "name": "",
          "type": "uint256"
        }
      ],
      "stateMutability": "view",
      "type": "function"
    },
    {
      "inputs": [
        {
          "internalType": "uint256",
          "name": "",
          "type": "uint256"
        }
      ],
      "name": "character",
      "outputs": [
        {
          "internalType": "uint32",
          "name": "character_class",
          "type": "uint32"
        },
        {
          "internalType": "uint32",
          "name": "element",
          "type": "uint32"
        },
        {
          "internalType": "uint32",
          "name": "str",
          "type": "uint32"
        },
        {
          "internalType": "uint32",
          "name": "vit",
          "type": "uint32"
        },
        {
          "internalType": "uint32",
          "name": "dex",
          "type": "uint32"
        },
        {
          "internalType": "uint32",
          "name": "talent",
          "type": "uint32"
        },
        {
          "internalType": "uint32",
          "name": "mood",
          "type": "uint32"
        },
        {
          "internalType": "uint32",
          "name": "exp",
          "type": "uint32"
        }
      ],
      "stateMutability": "view",
      "type": "function"
    },
    {
      "inputs": [
        {
          "internalType": "uint256",
          "name": "",
          "type": "uint256"
        }
      ],
      "name": "character_name",
      "outputs": [
        {
          "internalType": "string",
          "name": "",
          "type": "string"
        }
      ],
      "stateMutability": "view",
      "type": "function"
    },
    {
      "inputs": [
        {
          "internalType": "uint256",
          "name": "tokenId",
          "type": "uint256"
        }
      ],
      "name": "getApproved",
      "outputs": [
        {
          "internalType": "address",
          "name": "",
          "type": "address"
        }
      ],
      "stateMutability": "view",
      "type": "function"
    },
    {
      "inputs": [
        {
          "internalType": "uint256",
          "name": "character_id",
          "type": "uint256"
        }
      ],
      "name": "getCharacter",
      "outputs": [
        {
          "internalType": "string",
          "name": "char_name",
          "type": "string"
        },
        {
          "components": [
            {
              "internalType": "uint32",
              "name": "character_class",
              "type": "uint32"
            },
            {
              "internalType": "uint32",
              "name": "element",
              "type": "uint32"
            },
            {
              "internalType": "uint32",
              "name": "str",
              "type": "uint32"
            },
            {
              "internalType": "uint32",
              "name": "vit",
              "type": "uint32"
            },
            {
              "internalType": "uint32",
              "name": "dex",
              "type": "uint32"
            },
            {
              "internalType": "uint32",
              "name": "talent",
              "type": "uint32"
            },
            {
              "internalType": "uint32",
              "name": "mood",
              "type": "uint32"
            },
            {
              "internalType": "uint32",
              "name": "exp",
              "type": "uint32"
            }
          ],
          "internalType": "struct character_properties",
          "name": "char_props",
          "type": "tuple"
        },
        {
          "components": [
            {
              "internalType": "uint256",
              "name": "atk",
              "type": "uint256"
            },
            {
              "internalType": "uint256",
              "name": "def",
              "type": "uint256"
            },
            {
              "internalType": "uint256",
              "name": "eva",
              "type": "uint256"
            },
            {
              "internalType": "uint256",
              "name": "hp",
              "type": "uint256"
            },
            {
              "internalType": "uint256",
              "name": "pen",
              "type": "uint256"
            },
            {
              "internalType": "uint256",
              "name": "crit",
              "type": "uint256"
            },
            {
              "internalType": "uint256",
              "name": "luck",
              "type": "uint256"
            },
            {
              "internalType": "uint256",
              "name": "energy_restoration",
              "type": "uint256"
            }
          ],
          "internalType": "struct battle_stats",
          "name": "char_stats",
          "type": "tuple"
        }
      ],
      "stateMutability": "view",
      "type": "function"
    },
    {
      "inputs": [
        {
          "internalType": "address",
          "name": "owner",
          "type": "address"
        },
        {
          "internalType": "address",
          "name": "operator",
          "type": "address"
        }
      ],
      "name": "isApprovedForAll",
      "outputs": [
        {
          "internalType": "bool",
          "name": "",
          "type": "bool"
        }
      ],
      "stateMutability": "view",
      "type": "function"
    },
    {
      "inputs": [
        {
          "internalType": "address",
          "name": "_owner",
          "type": "address"
        },
        {
          "internalType": "uint256",
          "name": "_character",
          "type": "uint256"
        }
      ],
      "name": "isOwner",
      "outputs": [
        {
          "internalType": "bool",
          "name": "",
          "type": "bool"
        }
      ],
      "stateMutability": "view",
      "type": "function"
    },
    {
      "inputs": [],
      "name": "name",
      "outputs": [
        {
          "internalType": "string",
          "name": "",
          "type": "string"
        }
      ],
      "stateMutability": "view",
      "type": "function"
    },
    {
      "inputs": [],
      "name": "owner",
      "outputs": [
        {
          "internalType": "address",
          "name": "",
          "type": "address"
        }
      ],
      "stateMutability": "view",
      "type": "function"
    },
    {
      "inputs": [
        {
          "internalType": "uint256",
          "name": "tokenId",
          "type": "uint256"
        }
      ],
      "name": "ownerOf",
      "outputs": [
        {
          "internalType": "address",
          "name": "",
          "type": "address"
        }
      ],
      "stateMutability": "view",
      "type": "function"
    },
    {
      "inputs": [
        {
          "internalType": "uint256",
          "name": "tokenId",
          "type": "uint256"
        },
        {
          "internalType": "string",
          "name": "new_name",
          "type": "string"
        }
      ],
      "name": "renameCharacter",
      "outputs": [],
      "stateMutability": "nonpayable",
      "type": "function"
    },
    {
      "inputs": [],
      "name": "renounceOwnership",
      "outputs": [],
      "stateMutability": "nonpayable",
      "type": "function"
    },
    {
      "inputs": [
        {
          "internalType": "address",
          "name": "from",
          "type": "address"
        },
        {
          "internalType": "address",
          "name": "to",
          "type": "address"
        },
        {
          "internalType": "uint256",
          "name": "tokenId",
          "type": "uint256"
        }
      ],
      "name": "safeTransferFrom",
      "outputs": [],
      "stateMutability": "nonpayable",
      "type": "function"
    },
    {
      "inputs": [
        {
          "internalType": "address",
          "name": "from",
          "type": "address"
        },
        {
          "internalType": "address",
          "name": "to",
          "type": "address"
        },
        {
          "internalType": "uint256",
          "name": "tokenId",
          "type": "uint256"
        },
        {
          "internalType": "bytes",
          "name": "data",
          "type": "bytes"
        }
      ],
      "name": "safeTransferFrom",
      "outputs": [],
      "stateMutability": "nonpayable",
      "type": "function"
    },
    {
      "inputs": [
        {
          "internalType": "address",
          "name": "operator",
          "type": "address"
        },
        {
          "internalType": "bool",
          "name": "approved",
          "type": "bool"
        }
      ],
      "name": "setApprovalForAll",
      "outputs": [],
      "stateMutability": "nonpayable",
      "type": "function"
    },
    {
      "inputs": [
        {
          "internalType": "address",
          "name": "dungeonAddress",
          "type": "address"
        }
      ],
      "name": "setDungeon",
      "outputs": [],
      "stateMutability": "nonpayable",
      "type": "function"
    },
    {
      "inputs": [
        {
          "internalType": "address",
          "name": "managerAddress",
          "type": "address"
        }
      ],
      "name": "setEquipmentManager",
      "outputs": [],
      "stateMutability": "nonpayable",
      "type": "function"
    },
    {
      "inputs": [
        {
          "internalType": "address",
          "name": "minterAddress",
          "type": "address"
        }
      ],
      "name": "setMinter",
      "outputs": [],
      "stateMutability": "nonpayable",
      "type": "function"
    },
    {
      "inputs": [
        {
          "internalType": "address",
          "name": "uriConstructorAddress",
          "type": "address"
        }
      ],
      "name": "setUriConstructor",
      "outputs": [],
      "stateMutability": "nonpayable",
      "type": "function"
    },
    {
      "inputs": [
        {
          "internalType": "bytes4",
          "name": "interfaceId",
          "type": "bytes4"
        }
      ],
      "name": "supportsInterface",
      "outputs": [
        {
          "internalType": "bool",
          "name": "",
          "type": "bool"
        }
      ],
      "stateMutability": "view",
      "type": "function"
    },
    {
      "inputs": [],
      "name": "symbol",
      "outputs": [
        {
          "internalType": "string",
          "name": "",
          "type": "string"
        }
      ],
      "stateMutability": "view",
      "type": "function"
    },
    {
      "inputs": [
        {
          "internalType": "uint256",
          "name": "index",
          "type": "uint256"
        }
      ],
      "name": "tokenByIndex",
      "outputs": [
        {
          "internalType": "uint256",
          "name": "",
          "type": "uint256"
        }
      ],
      "stateMutability": "view",
      "type": "function"
    },
    {
      "inputs": [
        {
          "internalType": "address",
          "name": "owner",
          "type": "address"
        },
        {
          "internalType": "uint256",
          "name": "index",
          "type": "uint256"
        }
      ],
      "name": "tokenOfOwnerByIndex",
      "outputs": [
        {
          "internalType": "uint256",
          "name": "",
          "type": "uint256"
        }
      ],
      "stateMutability": "view",
      "type": "function"
    },
    {
      "inputs": [
        {
          "internalType": "uint256",
          "name": "tokenId",
          "type": "uint256"
        }
      ],
      "name": "tokenURI",
      "outputs": [
        {
          "internalType": "string",
          "name": "tokenURIString",
          "type": "string"
        }
      ],
      "stateMutability": "view",
      "type": "function"
    },
    {
      "inputs": [],
      "name": "totalSupply",
      "outputs": [
        {
          "internalType": "uint256",
          "name": "",
          "type": "uint256"
        }
      ],
      "stateMutability": "view",
      "type": "function"
    },
    {
      "inputs": [
        {
          "internalType": "address",
          "name": "from",
          "type": "address"
        },
        {
          "internalType": "address",
          "name": "to",
          "type": "address"
        },
        {
          "internalType": "uint256",
          "name": "tokenId",
          "type": "uint256"
        }
      ],
      "name": "transferFrom",
      "outputs": [],
      "stateMutability": "nonpayable",
      "type": "function"
    },
    {
      "inputs": [
        {
          "internalType": "address",
          "name": "newOwner",
          "type": "address"
        }
      ],
      "name": "transferOwnership",
      "outputs": [],
      "stateMutability": "nonpayable",
      "type": "function"
    },
    {
      "inputs": [
        {
          "internalType": "uint256",
          "name": "tokenId",
          "type": "uint256"
        },
        {
          "components": [
            {
              "internalType": "uint32",
              "name": "character_class",
              "type": "uint32"
            },
            {
              "internalType": "uint32",
              "name": "element",
              "type": "uint32"
            },
            {
              "internalType": "uint32",
              "name": "str",
              "type": "uint32"
            },
            {
              "internalType": "uint32",
              "name": "vit",
              "type": "uint32"
            },
            {
              "internalType": "uint32",
              "name": "dex",
              "type": "uint32"
            },
            {
              "internalType": "uint32",
              "name": "talent",
              "type": "uint32"
            },
            {
              "internalType": "uint32",
              "name": "mood",
              "type": "uint32"
            },
            {
              "internalType": "uint32",
              "name": "exp",
              "type": "uint32"
            }
          ],
          "internalType": "struct character_properties",
          "name": "updated_props",
          "type": "tuple"
        }
      ],
      "name": "updateCharacter",
      "outputs": [],
      "stateMutability": "nonpayable",
      "type": "function"
    }
  ],
  "bytecode": "0x60806040523480156200001157600080fd5b506040518060400160405280600a81526020017f43686172616374657273000000000000000000000000000000000000000000008152506040518060400160405280600481526020017f435452530000000000000000000000000000000000000000000000000000000081525081600090816200008f919062000412565b508060019081620000a1919062000412565b505050620000c4620000b8620000ca60201b60201c565b620000d260201b60201c565b620004f9565b600033905090565b6000600a60009054906101000a900473ffffffffffffffffffffffffffffffffffffffff16905081600a60006101000a81548173ffffffffffffffffffffffffffffffffffffffff021916908373ffffffffffffffffffffffffffffffffffffffff1602179055508173ffffffffffffffffffffffffffffffffffffffff168173ffffffffffffffffffffffffffffffffffffffff167f8be0079c531659141344cd1fd0a4f28419497f9722a3daafe3b4186f6b6457e060405160405180910390a35050565b600081519050919050565b7f4e487b7100000000000000000000000000000000000000000000000000000000600052604160045260246000fd5b7f4e487b7100000000000000000000000000000000000000000000000000000000600052602260045260246000fd5b600060028204905060018216806200021a57607f821691505b60208210810362000230576200022f620001d2565b5b50919050565b60008190508160005260206000209050919050565b60006020601f8301049050919050565b600082821b905092915050565b6000600883026200029a7fffffffffffffffffffffffffffffffffffffffffffffffffffffffffffffffff826200025b565b620002a686836200025b565b95508019841693508086168417925050509392505050565b6000819050919050565b6000819050919050565b6000620002f3620002ed620002e784620002be565b620002c8565b620002be565b9050919050565b6000819050919050565b6200030f83620002d2565b620003276200031e82620002fa565b84845462000268565b825550505050565b600090565b6200033e6200032f565b6200034b81848462000304565b505050565b5b8181101562000373576200036760008262000334565b60018101905062000351565b5050565b601f821115620003c2576200038c8162000236565b62000397846200024b565b81016020851015620003a7578190505b620003bf620003b6856200024b565b83018262000350565b50505b505050565b600082821c905092915050565b6000620003e760001984600802620003c7565b1980831691505092915050565b6000620004028383620003d4565b9150826002028217905092915050565b6200041d8262000198565b67ffffffffffffffff811115620004395762000438620001a3565b5b62000445825462000201565b6200045282828562000377565b600060209050601f8311600181146200048a576000841562000475578287015190505b620004818582620003f4565b865550620004f1565b601f1984166200049a8662000236565b60005b82811015620004c4578489015182556001820191506020850194506020810190506200049d565b86831015620004e45784890151620004e0601f891682620003d4565b8355505b6001600288020188555050505b505050505050565b615bc780620005096000396000f3fe608060405234801561001057600080fd5b50600436106101da5760003560e01c806373412e1c11610104578063b5ffc819116100a2578063e327a6af11610071578063e327a6af1461057e578063e985e9c5146105ae578063f2fde38b146105de578063fca3b5aa146105fa576101da565b8063b5ffc819146104e4578063b88d4fde14610500578063c87b56dd1461051c578063dabb05311461054c576101da565b80638da5cb5b116100de5780638da5cb5b1461047057806395d89b411461048e578063a22cb465146104ac578063ae0b1ea8146104c8576101da565b806373412e1c146104085780637e9fe963146104245780638d3bef3e14610454576101da565b80632f745c591161017c5780634f6ccce71161014b5780634f6ccce71461036e5780636352211e1461039e57806370a08231146103ce578063715018a6146103fe576101da565b80632f745c59146102cf57806342842e0e146102ff578063430c45321461031b578063468f25b014610337576101da565b8063095ea7b3116101b8578063095ea7b31461025d5780630dffcd851461027957806318160ddd1461029557806323b872dd146102b3576101da565b806301ffc9a7146101df57806306fdde031461020f578063081812fc1461022d575b600080fd5b6101f960048036038101906101f49190613c64565b610616565b6040516102069190613cac565b60405180910390f35b610217610628565b6040516102249190613d57565b60405180910390f35b61024760048036038101906102429190613daf565b6106ba565b6040516102549190613e1d565b60405180910390f35b61027760048036038101906102729190613e64565b610700565b005b610293600480360381019061028e91906140e4565b610817565b005b61029d610a90565b6040516102aa9190614164565b60405180910390f35b6102cd60048036038101906102c8919061417f565b610a9d565b005b6102e960048036038101906102e49190613e64565b610afd565b6040516102f69190614164565b60405180910390f35b6103196004803603810190610314919061417f565b610ba2565b005b610335600480360381019061033091906141d2565b610bc2565b005b610351600480360381019061034c9190613daf565b610c0e565b60405161036598979695949392919061420e565b60405180910390f35b61038860048036038101906103839190613daf565b610cd6565b6040516103959190614164565b60405180910390f35b6103b860048036038101906103b39190613daf565b610d47565b6040516103c59190613e1d565b60405180910390f35b6103e860048036038101906103e391906141d2565b610df8565b6040516103f59190614164565b60405180910390f35b610406610eaf565b005b610422600480360381019061041d91906141d2565b610ec3565b005b61043e60048036038101906104399190613daf565b610f0f565b60405161044b9190613d57565b60405180910390f35b61046e6004803603810190610469919061428c565b610faf565b005b610478611194565b6040516104859190613e1d565b60405180910390f35b6104966111be565b6040516104a39190613d57565b60405180910390f35b6104c660048036038101906104c191906142f9565b611250565b005b6104e260048036038101906104dd91906141d2565b611266565b005b6104fe60048036038101906104f99190614339565b6112b2565b005b61051a60048036038101906105159190614436565b611358565b005b61053660048036038101906105319190613daf565b6113ba565b6040516105439190613d57565b60405180910390f35b61056660048036038101906105619190613daf565b611632565b6040516105759392919061461b565b60405180910390f35b61059860048036038101906105939190613e64565b611845565b6040516105a59190613cac565b60405180910390f35b6105c860048036038101906105c3919061465b565b611859565b6040516105d59190613cac565b60405180910390f35b6105f860048036038101906105f391906141d2565b6118ed565b005b610614600480360381019061060f91906141d2565b611970565b005b6000610621826119bc565b9050919050565b606060008054610637906146ca565b80601f0160208091040260200160405190810160405280929190818152602001828054610663906146ca565b80156106b05780601f10610685576101008083540402835291602001916106b0565b820191906000526020600020905b81548152906001019060200180831161069357829003601f168201915b5050505050905090565b60006106c582611a36565b6004600083815260200190815260200160002060009054906101000a900473ffffffffffffffffffffffffffffffffffffffff169050919050565b600061070b82610d47565b90508073ffffffffffffffffffffffffffffffffffffffff168373ffffffffffffffffffffffffffffffffffffffff160361077b576040517f08c379a00000000000000000000000000000000000000000000000000000000081526004016107729061476d565b60405180910390fd5b8073ffffffffffffffffffffffffffffffffffffffff1661079a611a81565b73ffffffffffffffffffffffffffffffffffffffff1614806107c957506107c8816107c3611a81565b611859565b5b610808576040517f08c379a00000000000000000000000000000000000000000000000000000000081526004016107ff906147ff565b60405180910390fd5b6108128383611a89565b505050565b601060009054906101000a900473ffffffffffffffffffffffffffffffffffffffff1673ffffffffffffffffffffffffffffffffffffffff163373ffffffffffffffffffffffffffffffffffffffff161461087157600080fd5b61087b600b611b42565b81600e600061088a600b611b58565b815260200190815260200160002060008201518160000160006101000a81548163ffffffff021916908363ffffffff16021790555060208201518160000160046101000a81548163ffffffff021916908363ffffffff16021790555060408201518160000160086101000a81548163ffffffff021916908363ffffffff160217905550606082015181600001600c6101000a81548163ffffffff021916908363ffffffff16021790555060808201518160000160106101000a81548163ffffffff021916908363ffffffff16021790555060a08201518160000160146101000a81548163ffffffff021916908363ffffffff16021790555060c08201518160000160186101000a81548163ffffffff021916908363ffffffff16021790555060e082015181600001601c6101000a81548163ffffffff021916908363ffffffff16021790555090505080600f60006109e2600b611b58565b815260200190815260200160002090816109fc91906149cb565b50610a1083610a0b600b611b58565b611b66565b610a1a600b611b58565b7f4d8e7234eb0fcf2f4c4de31348bbeb94e61ba9ed00fb8edff48c05a2d2e0154684600f6000610a4a600b611b58565b8152602001908152602001600020600e6000610a66600b611b58565b8152602001908152602001600020604051610a8393929190614d34565b60405180910390a2505050565b6000600880549050905090565b610aae610aa8611a81565b82611d3f565b610aed576040517f08c379a0000000000000000000000000000000000000000000000000000000008152600401610ae490614de5565b60405180910390fd5b610af8838383611dd4565b505050565b6000610b0883610df8565b8210610b49576040517f08c379a0000000000000000000000000000000000000000000000000000000008152600401610b4090614e77565b60405180910390fd5b600660008473ffffffffffffffffffffffffffffffffffffffff1673ffffffffffffffffffffffffffffffffffffffff168152602001908152602001600020600083815260200190815260200160002054905092915050565b610bbd83838360405180602001604052806000815250611358565b505050565b610bca61203a565b80601160006101000a81548173ffffffffffffffffffffffffffffffffffffffff021916908373ffffffffffffffffffffffffffffffffffffffff16021790555050565b600e6020528060005260406000206000915090508060000160009054906101000a900463ffffffff16908060000160049054906101000a900463ffffffff16908060000160089054906101000a900463ffffffff169080600001600c9054906101000a900463ffffffff16908060000160109054906101000a900463ffffffff16908060000160149054906101000a900463ffffffff16908060000160189054906101000a900463ffffffff169080600001601c9054906101000a900463ffffffff16905088565b6000610ce0610a90565b8210610d21576040517f08c379a0000000000000000000000000000000000000000000000000000000008152600401610d1890614f09565b60405180910390fd5b60088281548110610d3557610d34614f29565b5b90600052602060002001549050919050565b6000806002600084815260200190815260200160002060009054906101000a900473ffffffffffffffffffffffffffffffffffffffff169050600073ffffffffffffffffffffffffffffffffffffffff168173ffffffffffffffffffffffffffffffffffffffff1603610def576040517f08c379a0000000000000000000000000000000000000000000000000000000008152600401610de690614fa4565b60405180910390fd5b80915050919050565b60008073ffffffffffffffffffffffffffffffffffffffff168273ffffffffffffffffffffffffffffffffffffffff1603610e68576040517f08c379a0000000000000000000000000000000000000000000000000000000008152600401610e5f90615036565b60405180910390fd5b600360008373ffffffffffffffffffffffffffffffffffffffff1673ffffffffffffffffffffffffffffffffffffffff168152602001908152602001600020549050919050565b610eb761203a565b610ec160006120b8565b565b610ecb61203a565b80600d60006101000a81548173ffffffffffffffffffffffffffffffffffffffff021916908373ffffffffffffffffffffffffffffffffffffffff16021790555050565b600f6020528060005260406000206000915090508054610f2e906146ca565b80601f0160208091040260200160405190810160405280929190818152602001828054610f5a906146ca565b8015610fa75780601f10610f7c57610100808354040283529160200191610fa7565b820191906000526020600020905b815481529060010190602001808311610f8a57829003601f168201915b505050505081565b601160009054906101000a900473ffffffffffffffffffffffffffffffffffffffff1673ffffffffffffffffffffffffffffffffffffffff163373ffffffffffffffffffffffffffffffffffffffff161461100957600080fd5b80600e600084815260200190815260200160002060008201518160000160006101000a81548163ffffffff021916908363ffffffff16021790555060208201518160000160046101000a81548163ffffffff021916908363ffffffff16021790555060408201518160000160086101000a81548163ffffffff021916908363ffffffff160217905550606082015181600001600c6101000a81548163ffffffff021916908363ffffffff16021790555060808201518160000160106101000a81548163ffffffff021916908363ffffffff16021790555060a08201518160000160146101000a81548163ffffffff021916908363ffffffff16021790555060c08201518160000160186101000a81548163ffffffff021916908363ffffffff16021790555060e082015181600001601c6101000a81548163ffffffff021916908363ffffffff160217905550905050817f9c7e2034baf5e11b7306c43be1f00b58ece4975a6e1eed1b95e471457a47a524826040516111889190615056565b60405180910390a25050565b6000600a60009054906101000a900473ffffffffffffffffffffffffffffffffffffffff16905090565b6060600180546111cd906146ca565b80601f01602080910402602001604051908101604052809291908181526020018280546111f9906146ca565b80156112465780601f1061121b57610100808354040283529160200191611246565b820191906000526020600020905b81548152906001019060200180831161122957829003601f168201915b5050505050905090565b61126261125b611a81565b838361217e565b5050565b61126e61203a565b80600c60006101000a81548173ffffffffffffffffffffffffffffffffffffffff021916908373ffffffffffffffffffffffffffffffffffffffff16021790555050565b6112bc3383611845565b6112fb576040517f08c379a00000000000000000000000000000000000000000000000000000000081526004016112f2906150e4565b60405180910390fd5b80600f6000848152602001908152602001600020908161131b91906149cb565b50817f459d865fdd8f6e2100a04e04f89593b66221232d3a0cb3c0cb984344057a60998260405161134c9190613d57565b60405180910390a25050565b611369611363611a81565b83611d3f565b6113a8576040517f08c379a000000000000000000000000000000000000000000000000000000000815260040161139f90614de5565b60405180910390fd5b6113b4848484846122ea565b50505050565b60606113c582612346565b611404576040517f08c379a00000000000000000000000000000000000000000000000000000000081526004016113fb90615150565b60405180910390fd5b6000600e6000848152602001908152602001600020604051806101000160405290816000820160009054906101000a900463ffffffff1663ffffffff1663ffffffff1681526020016000820160049054906101000a900463ffffffff1663ffffffff1663ffffffff1681526020016000820160089054906101000a900463ffffffff1663ffffffff1663ffffffff16815260200160008201600c9054906101000a900463ffffffff1663ffffffff1663ffffffff1681526020016000820160109054906101000a900463ffffffff1663ffffffff1663ffffffff1681526020016000820160149054906101000a900463ffffffff1663ffffffff1663ffffffff1681526020016000820160189054906101000a900463ffffffff1663ffffffff1663ffffffff16815260200160008201601c9054906101000a900463ffffffff1663ffffffff1663ffffffff16815250509050600061157082600001518360c001518460a001516123b2565b9050600d60009054906101000a900473ffffffffffffffffffffffffffffffffffffffff1673ffffffffffffffffffffffffffffffffffffffff1663b12ca1da8383600f60008981526020019081526020016000206040518463ffffffff1660e01b81526004016115e393929190615266565b600060405180830381865afa158015611600573d6000803e3d6000fd5b505050506040513d6000823e3d601f19601f82011682018060405250810190611629919061531e565b92505050919050565b606061163c613b08565b611644613b7d565b600f60008581526020019081526020016000208054611662906146ca565b80601f016020809104026020016040519081016040528092919081815260200182805461168e906146ca565b80156116db5780601f106116b0576101008083540402835291602001916116db565b820191906000526020600020905b8154815290600101906020018083116116be57829003601f168201915b50505050509250600e6000858152602001908152602001600020604051806101000160405290816000820160009054906101000a900463ffffffff1663ffffffff1663ffffffff1681526020016000820160049054906101000a900463ffffffff1663ffffffff1663ffffffff1681526020016000820160089054906101000a900463ffffffff1663ffffffff1663ffffffff16815260200160008201600c9054906101000a900463ffffffff1663ffffffff1663ffffffff1681526020016000820160109054906101000a900463ffffffff1663ffffffff1663ffffffff1681526020016000820160149054906101000a900463ffffffff1663ffffffff1663ffffffff1681526020016000820160189054906101000a900463ffffffff1663ffffffff1663ffffffff16815260200160008201601c9054906101000a900463ffffffff1663ffffffff1663ffffffff1681525050915061183c82612459565b90509193909250565b60006118518383611d3f565b905092915050565b6000600560008473ffffffffffffffffffffffffffffffffffffffff1673ffffffffffffffffffffffffffffffffffffffff16815260200190815260200160002060008373ffffffffffffffffffffffffffffffffffffffff1673ffffffffffffffffffffffffffffffffffffffff16815260200190815260200160002060009054906101000a900460ff16905092915050565b6118f561203a565b600073ffffffffffffffffffffffffffffffffffffffff168173ffffffffffffffffffffffffffffffffffffffff1603611964576040517f08c379a000000000000000000000000000000000000000000000000000000000815260040161195b906153d9565b60405180910390fd5b61196d816120b8565b50565b61197861203a565b80601060006101000a81548173ffffffffffffffffffffffffffffffffffffffff021916908373ffffffffffffffffffffffffffffffffffffffff16021790555050565b60007f780e9d63000000000000000000000000000000000000000000000000000000007bffffffffffffffffffffffffffffffffffffffffffffffffffffffff1916827bffffffffffffffffffffffffffffffffffffffffffffffffffffffff19161480611a2f5750611a2e826124e2565b5b9050919050565b611a3f81612346565b611a7e576040517f08c379a0000000000000000000000000000000000000000000000000000000008152600401611a7590614fa4565b60405180910390fd5b50565b600033905090565b816004600083815260200190815260200160002060006101000a81548173ffffffffffffffffffffffffffffffffffffffff021916908373ffffffffffffffffffffffffffffffffffffffff160217905550808273ffffffffffffffffffffffffffffffffffffffff16611afc83610d47565b73ffffffffffffffffffffffffffffffffffffffff167f8c5be1e5ebec7d5bd14f71427d1e84f3dd0314c0f7b2291e5b200ac8c7c3b92560405160405180910390a45050565b6001816000016000828254019250508190555050565b600081600001549050919050565b600073ffffffffffffffffffffffffffffffffffffffff168273ffffffffffffffffffffffffffffffffffffffff1603611bd5576040517f08c379a0000000000000000000000000000000000000000000000000000000008152600401611bcc90615445565b60405180910390fd5b611bde81612346565b15611c1e576040517f08c379a0000000000000000000000000000000000000000000000000000000008152600401611c15906154b1565b60405180910390fd5b611c2a600083836125c4565b6001600360008473ffffffffffffffffffffffffffffffffffffffff1673ffffffffffffffffffffffffffffffffffffffff1681526020019081526020016000206000828254611c7a9190615500565b92505081905550816002600083815260200190815260200160002060006101000a81548173ffffffffffffffffffffffffffffffffffffffff021916908373ffffffffffffffffffffffffffffffffffffffff160217905550808273ffffffffffffffffffffffffffffffffffffffff16600073ffffffffffffffffffffffffffffffffffffffff167fddf252ad1be2c89b69c2b068fc378daa952ba7f163c4a11628f55a4df523b3ef60405160405180910390a4611d3b60008383612696565b5050565b600080611d4b83610d47565b90508073ffffffffffffffffffffffffffffffffffffffff168473ffffffffffffffffffffffffffffffffffffffff161480611d8d5750611d8c8185611859565b5b80611dcb57508373ffffffffffffffffffffffffffffffffffffffff16611db3846106ba565b73ffffffffffffffffffffffffffffffffffffffff16145b91505092915050565b8273ffffffffffffffffffffffffffffffffffffffff16611df482610d47565b73ffffffffffffffffffffffffffffffffffffffff1614611e4a576040517f08c379a0000000000000000000000000000000000000000000000000000000008152600401611e41906155a6565b60405180910390fd5b600073ffffffffffffffffffffffffffffffffffffffff168273ffffffffffffffffffffffffffffffffffffffff1603611eb9576040517f08c379a0000000000000000000000000000000000000000000000000000000008152600401611eb090615638565b60405180910390fd5b611ec48383836125c4565b611ecf600082611a89565b6001600360008573ffffffffffffffffffffffffffffffffffffffff1673ffffffffffffffffffffffffffffffffffffffff1681526020019081526020016000206000828254611f1f9190615658565b925050819055506001600360008473ffffffffffffffffffffffffffffffffffffffff1673ffffffffffffffffffffffffffffffffffffffff1681526020019081526020016000206000828254611f769190615500565b92505081905550816002600083815260200190815260200160002060006101000a81548173ffffffffffffffffffffffffffffffffffffffff021916908373ffffffffffffffffffffffffffffffffffffffff160217905550808273ffffffffffffffffffffffffffffffffffffffff168473ffffffffffffffffffffffffffffffffffffffff167fddf252ad1be2c89b69c2b068fc378daa952ba7f163c4a11628f55a4df523b3ef60405160405180910390a4612035838383612696565b505050565b612042611a81565b73ffffffffffffffffffffffffffffffffffffffff16612060611194565b73ffffffffffffffffffffffffffffffffffffffff16146120b6576040517f08c379a00000000000000000000000000000000000000000000000000000000081526004016120ad906156d8565b60405180910390fd5b565b6000600a60009054906101000a900473ffffffffffffffffffffffffffffffffffffffff16905081600a60006101000a81548173ffffffffffffffffffffffffffffffffffffffff021916908373ffffffffffffffffffffffffffffffffffffffff1602179055508173ffffffffffffffffffffffffffffffffffffffff168173ffffffffffffffffffffffffffffffffffffffff167f8be0079c531659141344cd1fd0a4f28419497f9722a3daafe3b4186f6b6457e060405160405180910390a35050565b8173ffffffffffffffffffffffffffffffffffffffff168373ffffffffffffffffffffffffffffffffffffffff16036121ec576040517f08c379a00000000000000000000000000000000000000000000000000000000081526004016121e390615744565b60405180910390fd5b80600560008573ffffffffffffffffffffffffffffffffffffffff1673ffffffffffffffffffffffffffffffffffffffff16815260200190815260200160002060008473ffffffffffffffffffffffffffffffffffffffff1673ffffffffffffffffffffffffffffffffffffffff16815260200190815260200160002060006101000a81548160ff0219169083151502179055508173ffffffffffffffffffffffffffffffffffffffff168373ffffffffffffffffffffffffffffffffffffffff167f17307eab39ab6107e8899845ad3d59bd9653f200f220920489ca2b5937696c31836040516122dd9190613cac565b60405180910390a3505050565b6122f5848484611dd4565b6123018484848461269b565b612340576040517f08c379a0000000000000000000000000000000000000000000000000000000008152600401612337906157d6565b60405180910390fd5b50505050565b60008073ffffffffffffffffffffffffffffffffffffffff166002600084815260200190815260200160002060009054906101000a900473ffffffffffffffffffffffffffffffffffffffff1673ffffffffffffffffffffffffffffffffffffffff1614159050919050565b6123ba613bc2565b60006040518060800160405280605d8152602001615b35605d913990506000806000806000806123eb8b8b8b612822565b9550955095509550955095506040518060c001604052808781526020018887898860405160200161241f949392919061587e565b6040516020818303038152906040528152602001858152602001848152602001838152602001828152509750505050505050509392505050565b612461613b7d565b60405180610100016040528061247684612de7565b815260200161248484612e9a565b815260200161249284612f4e565b81526020016124a084613002565b81526020016124ae84613083565b81526020016124bc84613104565b81526020016124ca84613185565b81526020016124d8846131a5565b8152509050919050565b60007f80ac58cd000000000000000000000000000000000000000000000000000000007bffffffffffffffffffffffffffffffffffffffffffffffffffffffff1916827bffffffffffffffffffffffffffffffffffffffffffffffffffffffff191614806125ad57507f5b5e139f000000000000000000000000000000000000000000000000000000007bffffffffffffffffffffffffffffffffffffffffffffffffffffffff1916827bffffffffffffffffffffffffffffffffffffffffffffffffffffffff1916145b806125bd57506125bc826131e0565b5b9050919050565b600073ffffffffffffffffffffffffffffffffffffffff168373ffffffffffffffffffffffffffffffffffffffff161461268657600c60009054906101000a900473ffffffffffffffffffffffffffffffffffffffff1673ffffffffffffffffffffffffffffffffffffffff1663aeb804da826040518263ffffffff1660e01b81526004016126539190614164565b600060405180830381600087803b15801561266d57600080fd5b505af1158015612681573d6000803e3d6000fd5b505050505b61269183838361324a565b505050565b505050565b60006126bc8473ffffffffffffffffffffffffffffffffffffffff1661335c565b15612815578373ffffffffffffffffffffffffffffffffffffffff1663150b7a026126e5611a81565b8786866040518563ffffffff1660e01b8152600401612707949392919061592f565b6020604051808303816000875af192505050801561274357506040513d601f19601f820116820180604052508101906127409190615990565b60015b6127c5573d8060008114612773576040519150601f19603f3d011682016040523d82523d6000602084013e612778565b606091505b5060008151036127bd576040517f08c379a00000000000000000000000000000000000000000000000000000000081526004016127b4906157d6565b60405180910390fd5b805181602001fd5b63150b7a0260e01b7bffffffffffffffffffffffffffffffffffffffffffffffffffffffff1916817bffffffffffffffffffffffffffffffffffffffffffffffffffffffff19161491505061281a565b600190505b949350505050565b60608060608060608060008963ffffffff160361291a576040518060400160405280600681526020017f56696b696e67000000000000000000000000000000000000000000000000000081525095506040518060400160405280600481526020017f302532300000000000000000000000000000000000000000000000000000000081525094506040518060400160405280600c81526020017f56696b696e67202841544b29000000000000000000000000000000000000000081525092506040518060400160405280600181526020017f350000000000000000000000000000000000000000000000000000000000000081525091505b60018963ffffffff1603612a09576040518060400160405280600a81526020017f576f6f646375747465720000000000000000000000000000000000000000000081525095506040518060400160405280600481526020017f312532300000000000000000000000000000000000000000000000000000000081525094506040518060400160405280601081526020017f576f6f64637574746572202850454e290000000000000000000000000000000081525092506040518060400160405280600281526020017f313000000000000000000000000000000000000000000000000000000000000081525091505b60028963ffffffff1603612af8576040518060400160405280600581526020017f54726f6c6c00000000000000000000000000000000000000000000000000000081525095506040518060400160405280600481526020017f342532300000000000000000000000000000000000000000000000000000000081525094506040518060400160405280600a81526020017f54726f6c6c20284850290000000000000000000000000000000000000000000081525092506040518060400160405280600181526020017f330000000000000000000000000000000000000000000000000000000000000081525091505b60038963ffffffff1603612be7576040518060400160405280600881526020017f4d656368616e696300000000000000000000000000000000000000000000000081525095506040518060400160405280600481526020017f352532300000000000000000000000000000000000000000000000000000000081525094506040518060400160405280600e81526020017f4d656368616e696320284445462900000000000000000000000000000000000081525092506040518060400160405280600281526020017f313000000000000000000000000000000000000000000000000000000000000081525091505b60048963ffffffff1603612cd6576040518060400160405280600981526020017f416d7068696269616e000000000000000000000000000000000000000000000081525095506040518060400160405280600481526020017f322532300000000000000000000000000000000000000000000000000000000081525094506040518060400160405280601081526020017f416d7068696269616e202843524954290000000000000000000000000000000081525092506040518060400160405280600281526020017f313000000000000000000000000000000000000000000000000000000000000081525091505b60058963ffffffff1603612dc5576040518060400160405280600b81526020017f4772617665526f6262657200000000000000000000000000000000000000000081525095506040518060400160405280600481526020017f332532300000000000000000000000000000000000000000000000000000000081525094506040518060400160405280601181526020017f4772617665726f6262657220284556412900000000000000000000000000000081525092506040518060400160405280600281526020017f313000000000000000000000000000000000000000000000000000000000000081525091505b612dce8861337f565b9350612dd98761364c565b905093975093979195509350565b60006004600a60048460800151612dfe91906159bd565b60068560400151612e0f91906159bd565b612e1991906159fa565b612e239190615a61565b612e2d9190615a61565b63ffffffff169050600080836000015163ffffffff1603612e4d57600590505b60008360a0015163ffffffff1603612e6f57600581612e6c9190615500565b90505b60648183612e7d9190615a92565b612e879190615ad4565b82612e929190615500565b915050919050565b60006002600a60048460400151612eb191906159bd565b60068560600151612ec291906159bd565b612ecc91906159fa565b612ed69190615a61565b612ee09190615a61565b63ffffffff16905060006003836000015163ffffffff1603612f0157600a90505b60038360a0015163ffffffff1603612f2357600a81612f209190615500565b90505b60648183612f319190615a92565b612f3b9190615ad4565b82612f469190615500565b915050919050565b60006002600a60048460600151612f6591906159bd565b60068560800151612f7691906159bd565b612f8091906159fa565b612f8a9190615a61565b612f949190615a61565b63ffffffff16905060006005836000015163ffffffff1603612fb557600a90505b60058360a0015163ffffffff1603612fd757600a81612fd49190615500565b90505b60648183612fe59190615a92565b612fef9190615ad4565b82612ffa9190615500565b915050919050565b60006005826060015161301591906159bd565b63ffffffff16905060006002836000015163ffffffff160361303657600390505b60028360a0015163ffffffff1603613058576003816130559190615500565b90505b606481836130669190615a92565b6130709190615ad4565b8261307b9190615500565b915050919050565b6000600282604001516130969190615a61565b63ffffffff16905060006001836000015163ffffffff16036130b757600a90505b60018360a0015163ffffffff16036130d957600a816130d69190615500565b90505b606481836130e79190615a92565b6130f19190615ad4565b826130fc9190615500565b915050919050565b6000600282608001516131179190615a61565b63ffffffff16905060006004836000015163ffffffff160361313857600a90505b60048360a0015163ffffffff160361315a57600a816131579190615500565b90505b606481836131689190615a92565b6131729190615ad4565b8261317d9190615500565b915050919050565b6000600a82608001516131989190615a61565b63ffffffff169050919050565b6000600a6002836040015184606001516131bf91906159fa565b6131c99190615a61565b6131d39190615a61565b63ffffffff169050919050565b60007f01ffc9a7000000000000000000000000000000000000000000000000000000007bffffffffffffffffffffffffffffffffffffffffffffffffffffffff1916827bffffffffffffffffffffffffffffffffffffffffffffffffffffffff1916149050919050565b6132558383836137fd565b600073ffffffffffffffffffffffffffffffffffffffff168373ffffffffffffffffffffffffffffffffffffffff16036132975761329281613802565b6132d6565b8173ffffffffffffffffffffffffffffffffffffffff168373ffffffffffffffffffffffffffffffffffffffff16146132d5576132d4838261384b565b5b5b600073ffffffffffffffffffffffffffffffffffffffff168273ffffffffffffffffffffffffffffffffffffffff160361331857613313816139b8565b613357565b8273ffffffffffffffffffffffffffffffffffffffff168273ffffffffffffffffffffffffffffffffffffffff1614613356576133558282613a89565b5b5b505050565b6000808273ffffffffffffffffffffffffffffffffffffffff163b119050919050565b606060008263ffffffff16036133c8576040518060400160405280600681526020017f416d617a6564000000000000000000000000000000000000000000000000000081525090505b60018263ffffffff160361340f576040518060400160405280600581526020017f416e67727900000000000000000000000000000000000000000000000000000081525090505b60028263ffffffff1603613456576040518060400160405280600481526020017f43616c6d0000000000000000000000000000000000000000000000000000000081525090505b60038263ffffffff160361349d576040518060400160405280600981526020017f497272697461746564000000000000000000000000000000000000000000000081525090505b60048263ffffffff16036134e4576040518060400160405280600781526020017f4d6f636b696e670000000000000000000000000000000000000000000000000081525090505b60058263ffffffff160361352b576040518060400160405280600381526020017f536164000000000000000000000000000000000000000000000000000000000081525090505b60068263ffffffff1603613572576040518060400160405280600681526020017f536361726564000000000000000000000000000000000000000000000000000081525090505b60078263ffffffff16036135b9576040518060400160405280600781526020017f5374756e6e65640000000000000000000000000000000000000000000000000081525090505b60088263ffffffff1603613600576040518060400160405280600a81526020017f54686f7567687466756c0000000000000000000000000000000000000000000081525090505b60098263ffffffff1603613647576040518060400160405280600581526020017f557073657400000000000000000000000000000000000000000000000000000081525090505b919050565b606060008263ffffffff1603613695576040518060400160405280600181526020017f350000000000000000000000000000000000000000000000000000000000000081525090505b60018263ffffffff16036136dc576040518060400160405280600281526020017f313000000000000000000000000000000000000000000000000000000000000081525090505b60028263ffffffff1603613723576040518060400160405280600181526020017f330000000000000000000000000000000000000000000000000000000000000081525090505b60038263ffffffff160361376a576040518060400160405280600281526020017f313000000000000000000000000000000000000000000000000000000000000081525090505b60048263ffffffff16036137b1576040518060400160405280600281526020017f313000000000000000000000000000000000000000000000000000000000000081525090505b60058263ffffffff16036137f8576040518060400160405280600281526020017f313000000000000000000000000000000000000000000000000000000000000081525090505b919050565b505050565b6008805490506009600083815260200190815260200160002081905550600881908060018154018082558091505060019003906000526020600020016000909190919091505550565b6000600161385884610df8565b6138629190615658565b9050600060076000848152602001908152602001600020549050818114613947576000600660008673ffffffffffffffffffffffffffffffffffffffff1673ffffffffffffffffffffffffffffffffffffffff168152602001908152602001600020600084815260200190815260200160002054905080600660008773ffffffffffffffffffffffffffffffffffffffff1673ffffffffffffffffffffffffffffffffffffffff168152602001908152602001600020600084815260200190815260200160002081905550816007600083815260200190815260200160002081905550505b6007600084815260200190815260200160002060009055600660008573ffffffffffffffffffffffffffffffffffffffff1673ffffffffffffffffffffffffffffffffffffffff16815260200190815260200160002060008381526020019081526020016000206000905550505050565b600060016008805490506139cc9190615658565b90506000600960008481526020019081526020016000205490506000600883815481106139fc576139fb614f29565b5b906000526020600020015490508060088381548110613a1e57613a1d614f29565b5b906000526020600020018190555081600960008381526020019081526020016000208190555060096000858152602001908152602001600020600090556008805480613a6d57613a6c615b05565b5b6001900381819060005260206000200160009055905550505050565b6000613a9483610df8565b905081600660008573ffffffffffffffffffffffffffffffffffffffff1673ffffffffffffffffffffffffffffffffffffffff168152602001908152602001600020600083815260200190815260200160002081905550806007600084815260200190815260200160002081905550505050565b604051806101000160405280600063ffffffff168152602001600063ffffffff168152602001600063ffffffff168152602001600063ffffffff168152602001600063ffffffff168152602001600063ffffffff168152602001600063ffffffff168152602001600063ffffffff1681525090565b60405180610100016040528060008152602001600081526020016000815260200160008152602001600081526020016000815260200160008152602001600081525090565b6040518060c001604052806060815260200160608152602001606081526020016060815260200160608152602001606081525090565b6000604051905090565b600080fd5b600080fd5b60007fffffffff0000000000000000000000000000000000000000000000000000000082169050919050565b613c4181613c0c565b8114613c4c57600080fd5b50565b600081359050613c5e81613c38565b92915050565b600060208284031215613c7a57613c79613c02565b5b6000613c8884828501613c4f565b91505092915050565b60008115159050919050565b613ca681613c91565b82525050565b6000602082019050613cc16000830184613c9d565b92915050565b600081519050919050565b600082825260208201905092915050565b60005b83811015613d01578082015181840152602081019050613ce6565b60008484015250505050565b6000601f19601f8301169050919050565b6000613d2982613cc7565b613d338185613cd2565b9350613d43818560208601613ce3565b613d4c81613d0d565b840191505092915050565b60006020820190508181036000830152613d718184613d1e565b905092915050565b6000819050919050565b613d8c81613d79565b8114613d9757600080fd5b50565b600081359050613da981613d83565b92915050565b600060208284031215613dc557613dc4613c02565b5b6000613dd384828501613d9a565b91505092915050565b600073ffffffffffffffffffffffffffffffffffffffff82169050919050565b6000613e0782613ddc565b9050919050565b613e1781613dfc565b82525050565b6000602082019050613e326000830184613e0e565b92915050565b613e4181613dfc565b8114613e4c57600080fd5b50565b600081359050613e5e81613e38565b92915050565b60008060408385031215613e7b57613e7a613c02565b5b6000613e8985828601613e4f565b9250506020613e9a85828601613d9a565b9150509250929050565b600080fd5b7f4e487b7100000000000000000000000000000000000000000000000000000000600052604160045260246000fd5b613ee182613d0d565b810181811067ffffffffffffffff82111715613f0057613eff613ea9565b5b80604052505050565b6000613f13613bf8565b9050613f1f8282613ed8565b919050565b600063ffffffff82169050919050565b613f3d81613f24565b8114613f4857600080fd5b50565b600081359050613f5a81613f34565b92915050565b60006101008284031215613f7757613f76613ea4565b5b613f82610100613f09565b90506000613f9284828501613f4b565b6000830152506020613fa684828501613f4b565b6020830152506040613fba84828501613f4b565b6040830152506060613fce84828501613f4b565b6060830152506080613fe284828501613f4b565b60808301525060a0613ff684828501613f4b565b60a08301525060c061400a84828501613f4b565b60c08301525060e061401e84828501613f4b565b60e08301525092915050565b600080fd5b600080fd5b600067ffffffffffffffff82111561404f5761404e613ea9565b5b61405882613d0d565b9050602081019050919050565b82818337600083830152505050565b600061408761408284614034565b613f09565b9050828152602081018484840111156140a3576140a261402f565b5b6140ae848285614065565b509392505050565b600082601f8301126140cb576140ca61402a565b5b81356140db848260208601614074565b91505092915050565b600080600061014084860312156140fe576140fd613c02565b5b600061410c86828701613e4f565b935050602061411d86828701613f60565b92505061012084013567ffffffffffffffff81111561413f5761413e613c07565b5b61414b868287016140b6565b9150509250925092565b61415e81613d79565b82525050565b60006020820190506141796000830184614155565b92915050565b60008060006060848603121561419857614197613c02565b5b60006141a686828701613e4f565b93505060206141b786828701613e4f565b92505060406141c886828701613d9a565b9150509250925092565b6000602082840312156141e8576141e7613c02565b5b60006141f684828501613e4f565b91505092915050565b61420881613f24565b82525050565b600061010082019050614224600083018b6141ff565b614231602083018a6141ff565b61423e60408301896141ff565b61424b60608301886141ff565b61425860808301876141ff565b61426560a08301866141ff565b61427260c08301856141ff565b61427f60e08301846141ff565b9998505050505050505050565b60008061012083850312156142a4576142a3613c02565b5b60006142b285828601613d9a565b92505060206142c385828601613f60565b9150509250929050565b6142d681613c91565b81146142e157600080fd5b50565b6000813590506142f3816142cd565b92915050565b600080604083850312156143105761430f613c02565b5b600061431e85828601613e4f565b925050602061432f858286016142e4565b9150509250929050565b600080604083850312156143505761434f613c02565b5b600061435e85828601613d9a565b925050602083013567ffffffffffffffff81111561437f5761437e613c07565b5b61438b858286016140b6565b9150509250929050565b600067ffffffffffffffff8211156143b0576143af613ea9565b5b6143b982613d0d565b9050602081019050919050565b60006143d96143d484614395565b613f09565b9050828152602081018484840111156143f5576143f461402f565b5b614400848285614065565b509392505050565b600082601f83011261441d5761441c61402a565b5b813561442d8482602086016143c6565b91505092915050565b600080600080608085870312156144505761444f613c02565b5b600061445e87828801613e4f565b945050602061446f87828801613e4f565b935050604061448087828801613d9a565b925050606085013567ffffffffffffffff8111156144a1576144a0613c07565b5b6144ad87828801614408565b91505092959194509250565b6144c281613f24565b82525050565b610100820160008201516144df60008501826144b9565b5060208201516144f260208501826144b9565b50604082015161450560408501826144b9565b50606082015161451860608501826144b9565b50608082015161452b60808501826144b9565b5060a082015161453e60a08501826144b9565b5060c082015161455160c08501826144b9565b5060e082015161456460e08501826144b9565b50505050565b61457381613d79565b82525050565b61010082016000820151614590600085018261456a565b5060208201516145a3602085018261456a565b5060408201516145b6604085018261456a565b5060608201516145c9606085018261456a565b5060808201516145dc608085018261456a565b5060a08201516145ef60a085018261456a565b5060c082015161460260c085018261456a565b5060e082015161461560e085018261456a565b50505050565b60006102208201905081810360008301526146368186613d1e565b905061464560208301856144c8565b614653610120830184614579565b949350505050565b6000806040838503121561467257614671613c02565b5b600061468085828601613e4f565b925050602061469185828601613e4f565b9150509250929050565b7f4e487b7100000000000000000000000000000000000000000000000000000000600052602260045260246000fd5b600060028204905060018216806146e257607f821691505b6020821081036146f5576146f461469b565b5b50919050565b7f4552433732313a20617070726f76616c20746f2063757272656e74206f776e6560008201527f7200000000000000000000000000000000000000000000000000000000000000602082015250565b6000614757602183613cd2565b9150614762826146fb565b604082019050919050565b600060208201905081810360008301526147868161474a565b9050919050565b7f4552433732313a20617070726f76652063616c6c6572206973206e6f7420746f60008201527f6b656e206f776e6572206e6f7220617070726f76656420666f7220616c6c0000602082015250565b60006147e9603e83613cd2565b91506147f48261478d565b604082019050919050565b60006020820190508181036000830152614818816147dc565b9050919050565b60008190508160005260206000209050919050565b60006020601f8301049050919050565b600082821b905092915050565b6000600883026148817fffffffffffffffffffffffffffffffffffffffffffffffffffffffffffffffff82614844565b61488b8683614844565b95508019841693508086168417925050509392505050565b6000819050919050565b60006148c86148c36148be84613d79565b6148a3565b613d79565b9050919050565b6000819050919050565b6148e2836148ad565b6148f66148ee826148cf565b848454614851565b825550505050565b600090565b61490b6148fe565b6149168184846148d9565b505050565b5b8181101561493a5761492f600082614903565b60018101905061491c565b5050565b601f82111561497f576149508161481f565b61495984614834565b81016020851015614968578190505b61497c61497485614834565b83018261491b565b50505b505050565b600082821c905092915050565b60006149a260001984600802614984565b1980831691505092915050565b60006149bb8383614991565b9150826002028217905092915050565b6149d482613cc7565b67ffffffffffffffff8111156149ed576149ec613ea9565b5b6149f782546146ca565b614a0282828561493e565b600060209050601f831160018114614a355760008415614a23578287015190505b614a2d85826149af565b865550614a95565b601f198416614a438661481f565b60005b82811015614a6b57848901518255600182019150602085019450602081019050614a46565b86831015614a885784890151614a84601f891682614991565b8355505b6001600288020188555050505b505050505050565b60008154614aaa816146ca565b614ab48186613cd2565b94506001821660008114614acf5760018114614ae557614b18565b60ff198316865281151560200286019350614b18565b614aee8561481f565b60005b83811015614b1057815481890152600182019150602081019050614af1565b808801955050505b50505092915050565b60008160001c9050919050565b600063ffffffff82169050919050565b6000614b51614b4c83614b21565b614b2e565b9050919050565b60008160201c9050919050565b6000614b78614b7383614b58565b614b2e565b9050919050565b60008160401c9050919050565b6000614b9f614b9a83614b7f565b614b2e565b9050919050565b60008160601c9050919050565b6000614bc6614bc183614ba6565b614b2e565b9050919050565b60008160801c9050919050565b6000614bed614be883614bcd565b614b2e565b9050919050565b60008160a01c9050919050565b6000614c14614c0f83614bf4565b614b2e565b9050919050565b60008160c01c9050919050565b6000614c3b614c3683614c1b565b614b2e565b9050919050565b60008160e01c9050919050565b6000614c62614c5d83614c42565b614b2e565b9050919050565b61010082016000808301549050614c7f81614b3e565b614c8c60008601826144b9565b50614c9681614b65565b614ca360208601826144b9565b50614cad81614b8c565b614cba60408601826144b9565b50614cc481614bb3565b614cd160608601826144b9565b50614cdb81614bda565b614ce860808601826144b9565b50614cf281614c01565b614cff60a08601826144b9565b50614d0981614c28565b614d1660c08601826144b9565b50614d2081614c4f565b614d2d60e08601826144b9565b5050505050565b600061014082019050614d4a6000830186613e0e565b8181036020830152614d5c8185614a9d565b9050614d6b6040830184614c69565b949350505050565b7f4552433732313a2063616c6c6572206973206e6f7420746f6b656e206f776e6560008201527f72206e6f7220617070726f766564000000000000000000000000000000000000602082015250565b6000614dcf602e83613cd2565b9150614dda82614d73565b604082019050919050565b60006020820190508181036000830152614dfe81614dc2565b9050919050565b7f455243373231456e756d657261626c653a206f776e657220696e646578206f7560008201527f74206f6620626f756e6473000000000000000000000000000000000000000000602082015250565b6000614e61602b83613cd2565b9150614e6c82614e05565b604082019050919050565b60006020820190508181036000830152614e9081614e54565b9050919050565b7f455243373231456e756d657261626c653a20676c6f62616c20696e646578206f60008201527f7574206f6620626f756e64730000000000000000000000000000000000000000602082015250565b6000614ef3602c83613cd2565b9150614efe82614e97565b604082019050919050565b60006020820190508181036000830152614f2281614ee6565b9050919050565b7f4e487b7100000000000000000000000000000000000000000000000000000000600052603260045260246000fd5b7f4552433732313a20696e76616c696420746f6b656e2049440000000000000000600082015250565b6000614f8e601883613cd2565b9150614f9982614f58565b602082019050919050565b60006020820190508181036000830152614fbd81614f81565b9050919050565b7f4552433732313a2061646472657373207a65726f206973206e6f74206120766160008201527f6c6964206f776e65720000000000000000000000000000000000000000000000602082015250565b6000615020602983613cd2565b915061502b82614fc4565b604082019050919050565b6000602082019050818103600083015261504f81615013565b9050919050565b60006101008201905061506c60008301846144c8565b92915050565b7f43616e6e6f742072656e616d6520636861726163746572206e6f74206f776e6560008201527f642e000000000000000000000000000000000000000000000000000000000000602082015250565b60006150ce602283613cd2565b91506150d982615072565b604082019050919050565b600060208201905081810360008301526150fd816150c1565b9050919050565b7f4e6f6e6578697374656e74000000000000000000000000000000000000000000600082015250565b600061513a600b83613cd2565b915061514582615104565b602082019050919050565b600060208201905081810360008301526151698161512d565b9050919050565b600082825260208201905092915050565b600061518c82613cc7565b6151968185615170565b93506151a6818560208601613ce3565b6151af81613d0d565b840191505092915050565b600060c08301600083015184820360008601526151d78282615181565b915050602083015184820360208601526151f18282615181565b9150506040830151848203604086015261520b8282615181565b915050606083015184820360608601526152258282615181565b9150506080830151848203608086015261523f8282615181565b91505060a083015184820360a08601526152598282615181565b9150508091505092915050565b60006101408201905061527c60008301866144c8565b81810361010083015261528f81856151ba565b90508181036101208301526152a48184614a9d565b9050949350505050565b60006152c16152bc84614034565b613f09565b9050828152602081018484840111156152dd576152dc61402f565b5b6152e8848285613ce3565b509392505050565b600082601f8301126153055761530461402a565b5b81516153158482602086016152ae565b91505092915050565b60006020828403121561533457615333613c02565b5b600082015167ffffffffffffffff81111561535257615351613c07565b5b61535e848285016152f0565b91505092915050565b7f4f776e61626c653a206e6577206f776e657220697320746865207a65726f206160008201527f6464726573730000000000000000000000000000000000000000000000000000602082015250565b60006153c3602683613cd2565b91506153ce82615367565b604082019050919050565b600060208201905081810360008301526153f2816153b6565b9050919050565b7f4552433732313a206d696e7420746f20746865207a65726f2061646472657373600082015250565b600061542f602083613cd2565b915061543a826153f9565b602082019050919050565b6000602082019050818103600083015261545e81615422565b9050919050565b7f4552433732313a20746f6b656e20616c7265616479206d696e74656400000000600082015250565b600061549b601c83613cd2565b91506154a682615465565b602082019050919050565b600060208201905081810360008301526154ca8161548e565b9050919050565b7f4e487b7100000000000000000000000000000000000000000000000000000000600052601160045260246000fd5b600061550b82613d79565b915061551683613d79565b925082820190508082111561552e5761552d6154d1565b5b92915050565b7f4552433732313a207472616e736665722066726f6d20696e636f72726563742060008201527f6f776e6572000000000000000000000000000000000000000000000000000000602082015250565b6000615590602583613cd2565b915061559b82615534565b604082019050919050565b600060208201905081810360008301526155bf81615583565b9050919050565b7f4552433732313a207472616e7366657220746f20746865207a65726f2061646460008201527f7265737300000000000000000000000000000000000000000000000000000000602082015250565b6000615622602483613cd2565b915061562d826155c6565b604082019050919050565b6000602082019050818103600083015261565181615615565b9050919050565b600061566382613d79565b915061566e83613d79565b9250828203905081811115615686576156856154d1565b5b92915050565b7f4f776e61626c653a2063616c6c6572206973206e6f7420746865206f776e6572600082015250565b60006156c2602083613cd2565b91506156cd8261568c565b602082019050919050565b600060208201905081810360008301526156f1816156b5565b9050919050565b7f4552433732313a20617070726f766520746f2063616c6c657200000000000000600082015250565b600061572e601983613cd2565b9150615739826156f8565b602082019050919050565b6000602082019050818103600083015261575d81615721565b9050919050565b7f4552433732313a207472616e7366657220746f206e6f6e20455243373231526560008201527f63656976657220696d706c656d656e7465720000000000000000000000000000602082015250565b60006157c0603283613cd2565b91506157cb82615764565b604082019050919050565b600060208201905081810360008301526157ef816157b3565b9050919050565b600081905092915050565b600061580c82613cc7565b61581681856157f6565b9350615826818560208601613ce3565b80840191505092915050565b7f2f00000000000000000000000000000000000000000000000000000000000000815250565b7f2e706e6700000000000000000000000000000000000000000000000000000000815250565b600061588a8287615801565b91506158968286615801565b91506158a28285615801565b91506158ad82615832565b6001820191506158bd8284615801565b91506158c882615858565b60048201915081905095945050505050565b600081519050919050565b600082825260208201905092915050565b6000615901826158da565b61590b81856158e5565b935061591b818560208601613ce3565b61592481613d0d565b840191505092915050565b60006080820190506159446000830187613e0e565b6159516020830186613e0e565b61595e6040830185614155565b818103606083015261597081846158f6565b905095945050505050565b60008151905061598a81613c38565b92915050565b6000602082840312156159a6576159a5613c02565b5b60006159b48482850161597b565b91505092915050565b60006159c882613f24565b91506159d383613f24565b92508282026159e181613f24565b91508082146159f3576159f26154d1565b5b5092915050565b6000615a0582613f24565b9150615a1083613f24565b9250828201905063ffffffff811115615a2c57615a2b6154d1565b5b92915050565b7f4e487b7100000000000000000000000000000000000000000000000000000000600052601260045260246000fd5b6000615a6c82613f24565b9150615a7783613f24565b925082615a8757615a86615a32565b5b828204905092915050565b6000615a9d82613d79565b9150615aa883613d79565b9250828202615ab681613d79565b91508282048414831517615acd57615acc6154d1565b5b5092915050565b6000615adf82613d79565b9150615aea83613d79565b925082615afa57615af9615a32565b5b828204905092915050565b7f4e487b7100000000000000000000000000000000000000000000000000000000600052603160045260246000fdfe68747470733a2f2f636861696e6c696e6b2d727067323032322e696e667572612d697066732e696f2f697066732f516d546e4351567a6b466563426a4c55544a54624a6d753144733373696d696d75385a31584b4b6b7367633761732fa2646970667358221220e3e80258deb6fde89c67de48d2f92cbf6f917a93b5413b87af88b72749370beb64736f6c63430008110033",
  "linkReferences": {},
  "deployedLinkReferences": {}
}