{
  "_format": "hh-sol-artifact-1",
  "contractName": "EnerLink",
  "sourceName": "contracts/core/tokens/Consumables/EnerLink.sol",
  "abi": [
    {
      "inputs": [],
      "stateMutability": "nonpayable",
      "type": "constructor"
    },
    {
      "anonymous": false,
      "inputs": [
        {
          "indexed": true,
          "internalType": "address",
          "name": "owner",
          "type": "address"
        },
        {
          "indexed": true,
          "internalType": "address",
          "name": "spender",
          "type": "address"
        },
        {
          "indexed": false,
          "internalType": "uint256",
          "name": "value",
          "type": "uint256"
        }
      ],
      "name": "Approval",
      "type": "event"
    },
    {
      "anonymous": false,
      "inputs": [
        {
          "indexed": true,
          "internalType": "address",
          "name": "previousOwner",
          "type": "address"
        },
        {
          "indexed": true,
          "internalType": "address",
          "name": "newOwner",
          "type": "address"
        }
      ],
      "name": "OwnershipTransferred",
      "type": "event"
    },
    {
      "anonymous": false,
      "inputs": [
        {
          "indexed": true,
          "internalType": "address",
          "name": "from",
          "type": "address"
        },
        {
          "indexed": true,
          "internalType": "address",
          "name": "to",
          "type": "address"
        },
        {
          "indexed": false,
          "internalType": "uint256",
          "name": "value",
          "type": "uint256"
        }
      ],
      "name": "Transfer",
      "type": "event"
    },
    {
      "inputs": [
        {
          "internalType": "address",
          "name": "owner",
          "type": "address"
        },
        {
          "internalType": "address",
          "name": "spender",
          "type": "address"
        }
      ],
      "name": "allowance",
      "outputs": [
        {
          "internalType": "uint256",
          "name": "",
          "type": "uint256"
        }
      ],
      "stateMutability": "view",
      "type": "function"
    },
    {
      "inputs": [
        {
          "internalType": "address",
          "name": "spender",
          "type": "address"
        },
        {
          "internalType": "uint256",
          "name": "amount",
          "type": "uint256"
        }
      ],
      "name": "approve",
      "outputs": [
        {
          "internalType": "bool",
          "name": "",
          "type": "bool"
        }
      ],
      "stateMutability": "nonpayable",
      "type": "function"
    },
    {
      "inputs": [
        {
          "internalType": "address",
          "name": "account",
          "type": "address"
        }
      ],
      "name": "balanceOf",
      "outputs": [
        {
          "internalType": "uint256",
          "name": "",
          "type": "uint256"
        }
      ],
      "stateMutability": "view",
      "type": "function"
    },
    {
      "inputs": [
        {
          "internalType": "uint256",
          "name": "amount",
          "type": "uint256"
        }
      ],
      "name": "burn",
      "outputs": [],
      "stateMutability": "nonpayable",
      "type": "function"
    },
    {
      "inputs": [
        {
          "internalType": "address",
          "name": "account",
          "type": "address"
        },
        {
          "internalType": "uint256",
          "name": "amount",
          "type": "uint256"
        }
      ],
      "name": "burnFrom",
      "outputs": [],
      "stateMutability": "nonpayable",
      "type": "function"
    },
    {
      "inputs": [],
      "name": "decimals",
      "outputs": [
        {
          "internalType": "uint8",
          "name": "",
          "type": "uint8"
        }
      ],
      "stateMutability": "view",
      "type": "function"
    },
    {
      "inputs": [
        {
          "internalType": "address",
          "name": "spender",
          "type": "address"
        },
        {
          "internalType": "uint256",
          "name": "subtractedValue",
          "type": "uint256"
        }
      ],
      "name": "decreaseAllowance",
      "outputs": [
        {
          "internalType": "bool",
          "name": "",
          "type": "bool"
        }
      ],
      "stateMutability": "nonpayable",
      "type": "function"
    },
    {
      "inputs": [
        {
          "internalType": "address",
          "name": "spender",
          "type": "address"
        },
        {
          "internalType": "uint256",
          "name": "addedValue",
          "type": "uint256"
        }
      ],
      "name": "increaseAllowance",
      "outputs": [
        {
          "internalType": "bool",
          "name": "",
          "type": "bool"
        }
      ],
      "stateMutability": "nonpayable",
      "type": "function"
    },
    {
      "inputs": [
        {
          "internalType": "address",
          "name": "to",
          "type": "address"
        },
        {
          "internalType": "uint256",
          "name": "amount",
          "type": "uint256"
        }
      ],
      "name": "mint",
      "outputs": [],
      "stateMutability": "nonpayable",
      "type": "function"
    },
    {
      "inputs": [],
      "name": "name",
      "outputs": [
        {
          "internalType": "string",
          "name": "",
          "type": "string"
        }
      ],
      "stateMutability": "view",
      "type": "function"
    },
    {
      "inputs": [],
      "name": "owner",
      "outputs": [
        {
          "internalType": "address",
          "name": "",
          "type": "address"
        }
      ],
      "stateMutability": "view",
      "type": "function"
    },
    {
      "inputs": [],
      "name": "renounceOwnership",
      "outputs": [],
      "stateMutability": "nonpayable",
      "type": "function"
    },
    {
      "inputs": [
        {
          "internalType": "address",
          "name": "_minter",
          "type": "address"
        }
      ],
      "name": "setMinter",
      "outputs": [],
      "stateMutability": "nonpayable",
      "type": "function"
    },
    {
      "inputs": [],
      "name": "symbol",
      "outputs": [
        {
          "internalType": "string",
          "name": "",
          "type": "string"
        }
      ],
      "stateMutability": "view",
      "type": "function"
    },
    {
      "inputs": [],
      "name": "totalSupply",
      "outputs": [
        {
          "internalType": "uint256",
          "name": "",
          "type": "uint256"
        }
      ],
      "stateMutability": "view",
      "type": "function"
    },
    {
      "inputs": [
        {
          "internalType": "address",
          "name": "to",
          "type": "address"
        },
        {
          "internalType": "uint256",
          "name": "amount",
          "type": "uint256"
        }
      ],
      "name": "transfer",
      "outputs": [
        {
          "internalType": "bool",
          "name": "",
          "type": "bool"
        }
      ],
      "stateMutability": "nonpayable",
      "type": "function"
    },
    {
      "inputs": [
        {
          "internalType": "address",
          "name": "from",
          "type": "address"
        },
        {
          "internalType": "address",
          "name": "to",
          "type": "address"
        },
        {
          "internalType": "uint256",
          "name": "amount",
          "type": "uint256"
        }
      ],
      "name": "transferFrom",
      "outputs": [
        {
          "internalType": "bool",
          "name": "",
          "type": "bool"
        }
      ],
      "stateMutability": "nonpayable",
      "type": "function"
    },
    {
      "inputs": [
        {
          "internalType": "address",
          "name": "newOwner",
          "type": "address"
        }
      ],
      "name": "transferOwnership",
      "outputs": [],
      "stateMutability": "nonpayable",
      "type": "function"
    }
  ],
  "bytecode": "0x60806040523480156200001157600080fd5b506040518060400160405280601381526020017f436f6e73756d61626c6520456e65724c696e6b000000000000000000000000008152506040518060400160405280600781526020017f20654c494e4b210000000000000000000000000000000000000000000000000081525081600390816200008f9190620005db565b508060049081620000a19190620005db565b505050620000c4620000b86200010860201b60201c565b6200011060201b60201c565b6200010233620000d9620001d660201b60201c565b600a620000e7919062000852565b6122b8620000f69190620008a3565b620001df60201b60201c565b620009da565b600033905090565b6000600560009054906101000a900473ffffffffffffffffffffffffffffffffffffffff16905081600560006101000a81548173ffffffffffffffffffffffffffffffffffffffff021916908373ffffffffffffffffffffffffffffffffffffffff1602179055508173ffffffffffffffffffffffffffffffffffffffff168173ffffffffffffffffffffffffffffffffffffffff167f8be0079c531659141344cd1fd0a4f28419497f9722a3daafe3b4186f6b6457e060405160405180910390a35050565b60006012905090565b600073ffffffffffffffffffffffffffffffffffffffff168273ffffffffffffffffffffffffffffffffffffffff160362000251576040517f08c379a000000000000000000000000000000000000000000000000000000000815260040162000248906200094f565b60405180910390fd5b62000265600083836200035760201b60201c565b806002600082825462000279919062000971565b92505081905550806000808473ffffffffffffffffffffffffffffffffffffffff1673ffffffffffffffffffffffffffffffffffffffff1681526020019081526020016000206000828254620002d0919062000971565b925050819055508173ffffffffffffffffffffffffffffffffffffffff16600073ffffffffffffffffffffffffffffffffffffffff167fddf252ad1be2c89b69c2b068fc378daa952ba7f163c4a11628f55a4df523b3ef83604051620003379190620009bd565b60405180910390a362000353600083836200035c60201b60201c565b5050565b505050565b505050565b600081519050919050565b7f4e487b7100000000000000000000000000000000000000000000000000000000600052604160045260246000fd5b7f4e487b7100000000000000000000000000000000000000000000000000000000600052602260045260246000fd5b60006002820490506001821680620003e357607f821691505b602082108103620003f957620003f86200039b565b5b50919050565b60008190508160005260206000209050919050565b60006020601f8301049050919050565b600082821b905092915050565b600060088302620004637fffffffffffffffffffffffffffffffffffffffffffffffffffffffffffffffff8262000424565b6200046f868362000424565b95508019841693508086168417925050509392505050565b6000819050919050565b6000819050919050565b6000620004bc620004b6620004b08462000487565b62000491565b62000487565b9050919050565b6000819050919050565b620004d8836200049b565b620004f0620004e782620004c3565b84845462000431565b825550505050565b600090565b62000507620004f8565b62000514818484620004cd565b505050565b5b818110156200053c5762000530600082620004fd565b6001810190506200051a565b5050565b601f8211156200058b576200055581620003ff565b620005608462000414565b8101602085101562000570578190505b620005886200057f8562000414565b83018262000519565b50505b505050565b600082821c905092915050565b6000620005b06000198460080262000590565b1980831691505092915050565b6000620005cb83836200059d565b9150826002028217905092915050565b620005e68262000361565b67ffffffffffffffff8111156200060257620006016200036c565b5b6200060e8254620003ca565b6200061b82828562000540565b600060209050601f8311600181146200065357600084156200063e578287015190505b6200064a8582620005bd565b865550620006ba565b601f1984166200066386620003ff565b60005b828110156200068d5784890151825560018201915060208501945060208101905062000666565b86831015620006ad5784890151620006a9601f8916826200059d565b8355505b6001600288020188555050505b505050505050565b7f4e487b7100000000000000000000000000000000000000000000000000000000600052601160045260246000fd5b60008160011c9050919050565b6000808291508390505b60018511156200075057808604811115620007285762000727620006c2565b5b6001851615620007385780820291505b80810290506200074885620006f1565b945062000708565b94509492505050565b6000826200076b57600190506200083e565b816200077b57600090506200083e565b81600181146200079457600281146200079f57620007d5565b60019150506200083e565b60ff841115620007b457620007b3620006c2565b5b8360020a915084821115620007ce57620007cd620006c2565b5b506200083e565b5060208310610133831016604e8410600b84101617156200080f5782820a905083811115620008095762000808620006c2565b5b6200083e565b6200081e8484846001620006fe565b92509050818404811115620008385762000837620006c2565b5b81810290505b9392505050565b600060ff82169050919050565b60006200085f8262000487565b91506200086c8362000845565b92506200089b7fffffffffffffffffffffffffffffffffffffffffffffffffffffffffffffffff848462000759565b905092915050565b6000620008b08262000487565b9150620008bd8362000487565b9250828202620008cd8162000487565b91508282048414831517620008e757620008e6620006c2565b5b5092915050565b600082825260208201905092915050565b7f45524332303a206d696e7420746f20746865207a65726f206164647265737300600082015250565b600062000937601f83620008ee565b91506200094482620008ff565b602082019050919050565b600060208201905081810360008301526200096a8162000928565b9050919050565b60006200097e8262000487565b91506200098b8362000487565b9250828201905080821115620009a657620009a5620006c2565b5b92915050565b620009b78162000487565b82525050565b6000602082019050620009d46000830184620009ac565b92915050565b611d5c80620009ea6000396000f3fe608060405234801561001057600080fd5b50600436106101165760003560e01c8063715018a6116100a2578063a457c2d711610071578063a457c2d7146102cf578063a9059cbb146102ff578063dd62ed3e1461032f578063f2fde38b1461035f578063fca3b5aa1461037b57610116565b8063715018a61461026d57806379cc6790146102775780638da5cb5b1461029357806395d89b41146102b157610116565b8063313ce567116100e9578063313ce567146101b757806339509351146101d557806340c10f191461020557806342966c681461022157806370a082311461023d57610116565b806306fdde031461011b578063095ea7b31461013957806318160ddd1461016957806323b872dd14610187575b600080fd5b610123610397565b604051610130919061128e565b60405180910390f35b610153600480360381019061014e9190611349565b610429565b60405161016091906113a4565b60405180910390f35b61017161044c565b60405161017e91906113ce565b60405180910390f35b6101a1600480360381019061019c91906113e9565b610456565b6040516101ae91906113a4565b60405180910390f35b6101bf610485565b6040516101cc9190611458565b60405180910390f35b6101ef60048036038101906101ea9190611349565b61048e565b6040516101fc91906113a4565b60405180910390f35b61021f600480360381019061021a9190611349565b6104c5565b005b61023b60048036038101906102369190611473565b610563565b005b610257600480360381019061025291906114a0565b610577565b60405161026491906113ce565b60405180910390f35b6102756105bf565b005b610291600480360381019061028c9190611349565b6105d3565b005b61029b6105f3565b6040516102a891906114dc565b60405180910390f35b6102b961061d565b6040516102c6919061128e565b60405180910390f35b6102e960048036038101906102e49190611349565b6106af565b6040516102f691906113a4565b60405180910390f35b61031960048036038101906103149190611349565b610726565b60405161032691906113a4565b60405180910390f35b610349600480360381019061034491906114f7565b610749565b60405161035691906113ce565b60405180910390f35b610379600480360381019061037491906114a0565b6107d0565b005b610395600480360381019061039091906114a0565b610853565b005b6060600380546103a690611566565b80601f01602080910402602001604051908101604052809291908181526020018280546103d290611566565b801561041f5780601f106103f45761010080835404028352916020019161041f565b820191906000526020600020905b81548152906001019060200180831161040257829003601f168201915b5050505050905090565b60008061043461089f565b90506104418185856108a7565b600191505092915050565b6000600254905090565b60008061046161089f565b905061046e858285610a70565b610479858585610afc565b60019150509392505050565b60006012905090565b60008061049961089f565b90506104ba8185856104ab8589610749565b6104b591906115c6565b6108a7565b600191505092915050565b600660009054906101000a900473ffffffffffffffffffffffffffffffffffffffff1673ffffffffffffffffffffffffffffffffffffffff163373ffffffffffffffffffffffffffffffffffffffff1614610555576040517f08c379a000000000000000000000000000000000000000000000000000000000815260040161054c9061166c565b60405180910390fd5b61055f8282610d7b565b5050565b61057461056e61089f565b82610eda565b50565b60008060008373ffffffffffffffffffffffffffffffffffffffff1673ffffffffffffffffffffffffffffffffffffffff168152602001908152602001600020549050919050565b6105c76110b0565b6105d1600061112e565b565b6105e5826105df61089f565b83610a70565b6105ef8282610eda565b5050565b6000600560009054906101000a900473ffffffffffffffffffffffffffffffffffffffff16905090565b60606004805461062c90611566565b80601f016020809104026020016040519081016040528092919081815260200182805461065890611566565b80156106a55780601f1061067a576101008083540402835291602001916106a5565b820191906000526020600020905b81548152906001019060200180831161068857829003601f168201915b5050505050905090565b6000806106ba61089f565b905060006106c88286610749565b90508381101561070d576040517f08c379a0000000000000000000000000000000000000000000000000000000008152600401610704906116fe565b60405180910390fd5b61071a82868684036108a7565b60019250505092915050565b60008061073161089f565b905061073e818585610afc565b600191505092915050565b6000600160008473ffffffffffffffffffffffffffffffffffffffff1673ffffffffffffffffffffffffffffffffffffffff16815260200190815260200160002060008373ffffffffffffffffffffffffffffffffffffffff1673ffffffffffffffffffffffffffffffffffffffff16815260200190815260200160002054905092915050565b6107d86110b0565b600073ffffffffffffffffffffffffffffffffffffffff168173ffffffffffffffffffffffffffffffffffffffff1603610847576040517f08c379a000000000000000000000000000000000000000000000000000000000815260040161083e90611790565b60405180910390fd5b6108508161112e565b50565b61085b6110b0565b80600660006101000a81548173ffffffffffffffffffffffffffffffffffffffff021916908373ffffffffffffffffffffffffffffffffffffffff16021790555050565b600033905090565b600073ffffffffffffffffffffffffffffffffffffffff168373ffffffffffffffffffffffffffffffffffffffff1603610916576040517f08c379a000000000000000000000000000000000000000000000000000000000815260040161090d90611822565b60405180910390fd5b600073ffffffffffffffffffffffffffffffffffffffff168273ffffffffffffffffffffffffffffffffffffffff1603610985576040517f08c379a000000000000000000000000000000000000000000000000000000000815260040161097c906118b4565b60405180910390fd5b80600160008573ffffffffffffffffffffffffffffffffffffffff1673ffffffffffffffffffffffffffffffffffffffff16815260200190815260200160002060008473ffffffffffffffffffffffffffffffffffffffff1673ffffffffffffffffffffffffffffffffffffffff168152602001908152602001600020819055508173ffffffffffffffffffffffffffffffffffffffff168373ffffffffffffffffffffffffffffffffffffffff167f8c5be1e5ebec7d5bd14f71427d1e84f3dd0314c0f7b2291e5b200ac8c7c3b92583604051610a6391906113ce565b60405180910390a3505050565b6000610a7c8484610749565b90507fffffffffffffffffffffffffffffffffffffffffffffffffffffffffffffffff8114610af65781811015610ae8576040517f08c379a0000000000000000000000000000000000000000000000000000000008152600401610adf90611920565b60405180910390fd5b610af584848484036108a7565b5b50505050565b600073ffffffffffffffffffffffffffffffffffffffff168373ffffffffffffffffffffffffffffffffffffffff1603610b6b576040517f08c379a0000000000000000000000000000000000000000000000000000000008152600401610b62906119b2565b60405180910390fd5b600073ffffffffffffffffffffffffffffffffffffffff168273ffffffffffffffffffffffffffffffffffffffff1603610bda576040517f08c379a0000000000000000000000000000000000000000000000000000000008152600401610bd190611a44565b60405180910390fd5b610be58383836111f4565b60008060008573ffffffffffffffffffffffffffffffffffffffff1673ffffffffffffffffffffffffffffffffffffffff16815260200190815260200160002054905081811015610c6b576040517f08c379a0000000000000000000000000000000000000000000000000000000008152600401610c6290611ad6565b60405180910390fd5b8181036000808673ffffffffffffffffffffffffffffffffffffffff1673ffffffffffffffffffffffffffffffffffffffff16815260200190815260200160002081905550816000808573ffffffffffffffffffffffffffffffffffffffff1673ffffffffffffffffffffffffffffffffffffffff1681526020019081526020016000206000828254610cfe91906115c6565b925050819055508273ffffffffffffffffffffffffffffffffffffffff168473ffffffffffffffffffffffffffffffffffffffff167fddf252ad1be2c89b69c2b068fc378daa952ba7f163c4a11628f55a4df523b3ef84604051610d6291906113ce565b60405180910390a3610d758484846111f9565b50505050565b600073ffffffffffffffffffffffffffffffffffffffff168273ffffffffffffffffffffffffffffffffffffffff1603610dea576040517f08c379a0000000000000000000000000000000000000000000000000000000008152600401610de190611b42565b60405180910390fd5b610df6600083836111f4565b8060026000828254610e0891906115c6565b92505081905550806000808473ffffffffffffffffffffffffffffffffffffffff1673ffffffffffffffffffffffffffffffffffffffff1681526020019081526020016000206000828254610e5d91906115c6565b925050819055508173ffffffffffffffffffffffffffffffffffffffff16600073ffffffffffffffffffffffffffffffffffffffff167fddf252ad1be2c89b69c2b068fc378daa952ba7f163c4a11628f55a4df523b3ef83604051610ec291906113ce565b60405180910390a3610ed6600083836111f9565b5050565b600073ffffffffffffffffffffffffffffffffffffffff168273ffffffffffffffffffffffffffffffffffffffff1603610f49576040517f08c379a0000000000000000000000000000000000000000000000000000000008152600401610f4090611bd4565b60405180910390fd5b610f55826000836111f4565b60008060008473ffffffffffffffffffffffffffffffffffffffff1673ffffffffffffffffffffffffffffffffffffffff16815260200190815260200160002054905081811015610fdb576040517f08c379a0000000000000000000000000000000000000000000000000000000008152600401610fd290611c66565b60405180910390fd5b8181036000808573ffffffffffffffffffffffffffffffffffffffff1673ffffffffffffffffffffffffffffffffffffffff1681526020019081526020016000208190555081600260008282546110329190611c86565b92505081905550600073ffffffffffffffffffffffffffffffffffffffff168373ffffffffffffffffffffffffffffffffffffffff167fddf252ad1be2c89b69c2b068fc378daa952ba7f163c4a11628f55a4df523b3ef8460405161109791906113ce565b60405180910390a36110ab836000846111f9565b505050565b6110b861089f565b73ffffffffffffffffffffffffffffffffffffffff166110d66105f3565b73ffffffffffffffffffffffffffffffffffffffff161461112c576040517f08c379a000000000000000000000000000000000000000000000000000000000815260040161112390611d06565b60405180910390fd5b565b6000600560009054906101000a900473ffffffffffffffffffffffffffffffffffffffff16905081600560006101000a81548173ffffffffffffffffffffffffffffffffffffffff021916908373ffffffffffffffffffffffffffffffffffffffff1602179055508173ffffffffffffffffffffffffffffffffffffffff168173ffffffffffffffffffffffffffffffffffffffff167f8be0079c531659141344cd1fd0a4f28419497f9722a3daafe3b4186f6b6457e060405160405180910390a35050565b505050565b505050565b600081519050919050565b600082825260208201905092915050565b60005b8381101561123857808201518184015260208101905061121d565b60008484015250505050565b6000601f19601f8301169050919050565b6000611260826111fe565b61126a8185611209565b935061127a81856020860161121a565b61128381611244565b840191505092915050565b600060208201905081810360008301526112a88184611255565b905092915050565b600080fd5b600073ffffffffffffffffffffffffffffffffffffffff82169050919050565b60006112e0826112b5565b9050919050565b6112f0816112d5565b81146112fb57600080fd5b50565b60008135905061130d816112e7565b92915050565b6000819050919050565b61132681611313565b811461133157600080fd5b50565b6000813590506113438161131d565b92915050565b600080604083850312156113605761135f6112b0565b5b600061136e858286016112fe565b925050602061137f85828601611334565b9150509250929050565b60008115159050919050565b61139e81611389565b82525050565b60006020820190506113b96000830184611395565b92915050565b6113c881611313565b82525050565b60006020820190506113e360008301846113bf565b92915050565b600080600060608486031215611402576114016112b0565b5b6000611410868287016112fe565b9350506020611421868287016112fe565b925050604061143286828701611334565b9150509250925092565b600060ff82169050919050565b6114528161143c565b82525050565b600060208201905061146d6000830184611449565b92915050565b600060208284031215611489576114886112b0565b5b600061149784828501611334565b91505092915050565b6000602082840312156114b6576114b56112b0565b5b60006114c4848285016112fe565b91505092915050565b6114d6816112d5565b82525050565b60006020820190506114f160008301846114cd565b92915050565b6000806040838503121561150e5761150d6112b0565b5b600061151c858286016112fe565b925050602061152d858286016112fe565b9150509250929050565b7f4e487b7100000000000000000000000000000000000000000000000000000000600052602260045260246000fd5b6000600282049050600182168061157e57607f821691505b60208210810361159157611590611537565b5b50919050565b7f4e487b7100000000000000000000000000000000000000000000000000000000600052601160045260246000fd5b60006115d182611313565b91506115dc83611313565b92508282019050808211156115f4576115f3611597565b5b92915050565b7f4f6e6c7920746865206d696e74657220636f6e74726163742063616e206d696e60008201527f7420746f6b656e732e0000000000000000000000000000000000000000000000602082015250565b6000611656602983611209565b9150611661826115fa565b604082019050919050565b6000602082019050818103600083015261168581611649565b9050919050565b7f45524332303a2064656372656173656420616c6c6f77616e63652062656c6f7760008201527f207a65726f000000000000000000000000000000000000000000000000000000602082015250565b60006116e8602583611209565b91506116f38261168c565b604082019050919050565b60006020820190508181036000830152611717816116db565b9050919050565b7f4f776e61626c653a206e6577206f776e657220697320746865207a65726f206160008201527f6464726573730000000000000000000000000000000000000000000000000000602082015250565b600061177a602683611209565b91506117858261171e565b604082019050919050565b600060208201905081810360008301526117a98161176d565b9050919050565b7f45524332303a20617070726f76652066726f6d20746865207a65726f2061646460008201527f7265737300000000000000000000000000000000000000000000000000000000602082015250565b600061180c602483611209565b9150611817826117b0565b604082019050919050565b6000602082019050818103600083015261183b816117ff565b9050919050565b7f45524332303a20617070726f766520746f20746865207a65726f20616464726560008201527f7373000000000000000000000000000000000000000000000000000000000000602082015250565b600061189e602283611209565b91506118a982611842565b604082019050919050565b600060208201905081810360008301526118cd81611891565b9050919050565b7f45524332303a20696e73756666696369656e7420616c6c6f77616e6365000000600082015250565b600061190a601d83611209565b9150611915826118d4565b602082019050919050565b60006020820190508181036000830152611939816118fd565b9050919050565b7f45524332303a207472616e736665722066726f6d20746865207a65726f20616460008201527f6472657373000000000000000000000000000000000000000000000000000000602082015250565b600061199c602583611209565b91506119a782611940565b604082019050919050565b600060208201905081810360008301526119cb8161198f565b9050919050565b7f45524332303a207472616e7366657220746f20746865207a65726f206164647260008201527f6573730000000000000000000000000000000000000000000000000000000000602082015250565b6000611a2e602383611209565b9150611a39826119d2565b604082019050919050565b60006020820190508181036000830152611a5d81611a21565b9050919050565b7f45524332303a207472616e7366657220616d6f756e742065786365656473206260008201527f616c616e63650000000000000000000000000000000000000000000000000000602082015250565b6000611ac0602683611209565b9150611acb82611a64565b604082019050919050565b60006020820190508181036000830152611aef81611ab3565b9050919050565b7f45524332303a206d696e7420746f20746865207a65726f206164647265737300600082015250565b6000611b2c601f83611209565b9150611b3782611af6565b602082019050919050565b60006020820190508181036000830152611b5b81611b1f565b9050919050565b7f45524332303a206275726e2066726f6d20746865207a65726f2061646472657360008201527f7300000000000000000000000000000000000000000000000000000000000000602082015250565b6000611bbe602183611209565b9150611bc982611b62565b604082019050919050565b60006020820190508181036000830152611bed81611bb1565b9050919050565b7f45524332303a206275726e20616d6f756e7420657863656564732062616c616e60008201527f6365000000000000000000000000000000000000000000000000000000000000602082015250565b6000611c50602283611209565b9150611c5b82611bf4565b604082019050919050565b60006020820190508181036000830152611c7f81611c43565b9050919050565b6000611c9182611313565b9150611c9c83611313565b9250828203905081811115611cb457611cb3611597565b5b92915050565b7f4f776e61626c653a2063616c6c6572206973206e6f7420746865206f776e6572600082015250565b6000611cf0602083611209565b9150611cfb82611cba565b602082019050919050565b60006020820190508181036000830152611d1f81611ce3565b905091905056fea2646970667358221220a2f22855f895c12fe76dfa1b3d73ea1aaaa216e1be1349faf6ca9d4f1370c21b64736f6c63430008110033",
  "linkReferences": {},
  "deployedLinkReferences": {}
}