{
  "_format": "hh-sol-artifact-1",
  "contractName": "ClankToken",
  "sourceName": "contracts/core/tokens/ClankToken.sol",
  "abi": [
    {
      "inputs": [],
      "stateMutability": "nonpayable",
      "type": "constructor"
    },
    {
      "anonymous": false,
      "inputs": [
        {
          "indexed": true,
          "internalType": "address",
          "name": "owner",
          "type": "address"
        },
        {
          "indexed": true,
          "internalType": "address",
          "name": "spender",
          "type": "address"
        },
        {
          "indexed": false,
          "internalType": "uint256",
          "name": "value",
          "type": "uint256"
        }
      ],
      "name": "Approval",
      "type": "event"
    },
    {
      "anonymous": false,
      "inputs": [
        {
          "indexed": true,
          "internalType": "address",
          "name": "previousOwner",
          "type": "address"
        },
        {
          "indexed": true,
          "internalType": "address",
          "name": "newOwner",
          "type": "address"
        }
      ],
      "name": "OwnershipTransferred",
      "type": "event"
    },
    {
      "anonymous": false,
      "inputs": [
        {
          "indexed": true,
          "internalType": "address",
          "name": "from",
          "type": "address"
        },
        {
          "indexed": true,
          "internalType": "address",
          "name": "to",
          "type": "address"
        },
        {
          "indexed": false,
          "internalType": "uint256",
          "name": "value",
          "type": "uint256"
        }
      ],
      "name": "Transfer",
      "type": "event"
    },
    {
      "inputs": [
        {
          "internalType": "address",
          "name": "",
          "type": "address"
        }
      ],
      "name": "address_minted_free",
      "outputs": [
        {
          "internalType": "bool",
          "name": "",
          "type": "bool"
        }
      ],
      "stateMutability": "view",
      "type": "function"
    },
    {
      "inputs": [
        {
          "internalType": "address",
          "name": "owner",
          "type": "address"
        },
        {
          "internalType": "address",
          "name": "spender",
          "type": "address"
        }
      ],
      "name": "allowance",
      "outputs": [
        {
          "internalType": "uint256",
          "name": "",
          "type": "uint256"
        }
      ],
      "stateMutability": "view",
      "type": "function"
    },
    {
      "inputs": [
        {
          "internalType": "address",
          "name": "spender",
          "type": "address"
        },
        {
          "internalType": "uint256",
          "name": "amount",
          "type": "uint256"
        }
      ],
      "name": "approve",
      "outputs": [
        {
          "internalType": "bool",
          "name": "",
          "type": "bool"
        }
      ],
      "stateMutability": "nonpayable",
      "type": "function"
    },
    {
      "inputs": [
        {
          "internalType": "address",
          "name": "account",
          "type": "address"
        }
      ],
      "name": "balanceOf",
      "outputs": [
        {
          "internalType": "uint256",
          "name": "",
          "type": "uint256"
        }
      ],
      "stateMutability": "view",
      "type": "function"
    },
    {
      "inputs": [
        {
          "internalType": "uint256",
          "name": "amount",
          "type": "uint256"
        }
      ],
      "name": "burn",
      "outputs": [],
      "stateMutability": "nonpayable",
      "type": "function"
    },
    {
      "inputs": [
        {
          "internalType": "address",
          "name": "account",
          "type": "address"
        },
        {
          "internalType": "uint256",
          "name": "amount",
          "type": "uint256"
        }
      ],
      "name": "burnFrom",
      "outputs": [],
      "stateMutability": "nonpayable",
      "type": "function"
    },
    {
      "inputs": [
        {
          "internalType": "uint256",
          "name": "",
          "type": "uint256"
        }
      ],
      "name": "character_minted_free",
      "outputs": [
        {
          "internalType": "bool",
          "name": "",
          "type": "bool"
        }
      ],
      "stateMutability": "view",
      "type": "function"
    },
    {
      "inputs": [],
      "name": "decimals",
      "outputs": [
        {
          "internalType": "uint8",
          "name": "",
          "type": "uint8"
        }
      ],
      "stateMutability": "view",
      "type": "function"
    },
    {
      "inputs": [
        {
          "internalType": "address",
          "name": "spender",
          "type": "address"
        },
        {
          "internalType": "uint256",
          "name": "subtractedValue",
          "type": "uint256"
        }
      ],
      "name": "decreaseAllowance",
      "outputs": [
        {
          "internalType": "bool",
          "name": "",
          "type": "bool"
        }
      ],
      "stateMutability": "nonpayable",
      "type": "function"
    },
    {
      "inputs": [
        {
          "internalType": "address",
          "name": "spender",
          "type": "address"
        },
        {
          "internalType": "uint256",
          "name": "addedValue",
          "type": "uint256"
        }
      ],
      "name": "increaseAllowance",
      "outputs": [
        {
          "internalType": "bool",
          "name": "",
          "type": "bool"
        }
      ],
      "stateMutability": "nonpayable",
      "type": "function"
    },
    {
      "inputs": [
        {
          "internalType": "address",
          "name": "to",
          "type": "address"
        },
        {
          "internalType": "uint256",
          "name": "amount",
          "type": "uint256"
        }
      ],
      "name": "mint",
      "outputs": [],
      "stateMutability": "nonpayable",
      "type": "function"
    },
    {
      "inputs": [
        {
          "internalType": "uint256",
          "name": "character_id",
          "type": "uint256"
        }
      ],
      "name": "mintFree",
      "outputs": [],
      "stateMutability": "nonpayable",
      "type": "function"
    },
    {
      "inputs": [],
      "name": "name",
      "outputs": [
        {
          "internalType": "string",
          "name": "",
          "type": "string"
        }
      ],
      "stateMutability": "view",
      "type": "function"
    },
    {
      "inputs": [],
      "name": "owner",
      "outputs": [
        {
          "internalType": "address",
          "name": "",
          "type": "address"
        }
      ],
      "stateMutability": "view",
      "type": "function"
    },
    {
      "inputs": [],
      "name": "renounceOwnership",
      "outputs": [],
      "stateMutability": "nonpayable",
      "type": "function"
    },
    {
      "inputs": [
        {
          "internalType": "address",
          "name": "charactersAddress",
          "type": "address"
        }
      ],
      "name": "setCharactersContract",
      "outputs": [],
      "stateMutability": "nonpayable",
      "type": "function"
    },
    {
      "inputs": [],
      "name": "symbol",
      "outputs": [
        {
          "internalType": "string",
          "name": "",
          "type": "string"
        }
      ],
      "stateMutability": "view",
      "type": "function"
    },
    {
      "inputs": [],
      "name": "totalSupply",
      "outputs": [
        {
          "internalType": "uint256",
          "name": "",
          "type": "uint256"
        }
      ],
      "stateMutability": "view",
      "type": "function"
    },
    {
      "inputs": [
        {
          "internalType": "address",
          "name": "to",
          "type": "address"
        },
        {
          "internalType": "uint256",
          "name": "amount",
          "type": "uint256"
        }
      ],
      "name": "transfer",
      "outputs": [
        {
          "internalType": "bool",
          "name": "",
          "type": "bool"
        }
      ],
      "stateMutability": "nonpayable",
      "type": "function"
    },
    {
      "inputs": [
        {
          "internalType": "address",
          "name": "from",
          "type": "address"
        },
        {
          "internalType": "address",
          "name": "to",
          "type": "address"
        },
        {
          "internalType": "uint256",
          "name": "amount",
          "type": "uint256"
        }
      ],
      "name": "transferFrom",
      "outputs": [
        {
          "internalType": "bool",
          "name": "",
          "type": "bool"
        }
      ],
      "stateMutability": "nonpayable",
      "type": "function"
    },
    {
      "inputs": [
        {
          "internalType": "address",
          "name": "newOwner",
          "type": "address"
        }
      ],
      "name": "transferOwnership",
      "outputs": [],
      "stateMutability": "nonpayable",
      "type": "function"
    }
  ],
  "bytecode": "0x60806040523480156200001157600080fd5b506040518060400160405280600b81526020017f436c616e6b20546f6b656e0000000000000000000000000000000000000000008152506040518060400160405280600781526020017f20434c414e4b210000000000000000000000000000000000000000000000000081525081600390816200008f9190620006bd565b508060049081620000a19190620006bd565b505050620000c4620000b86200010960201b60201c565b6200011160201b60201c565b6200010333620000d9620001d760201b60201c565b600a620000e7919062000934565b620186a0620000f7919062000985565b620001e060201b60201c565b62000b2e565b600033905090565b6000600560009054906101000a900473ffffffffffffffffffffffffffffffffffffffff16905081600560006101000a81548173ffffffffffffffffffffffffffffffffffffffff021916908373ffffffffffffffffffffffffffffffffffffffff1602179055508173ffffffffffffffffffffffffffffffffffffffff168173ffffffffffffffffffffffffffffffffffffffff167f8be0079c531659141344cd1fd0a4f28419497f9722a3daafe3b4186f6b6457e060405160405180910390a35050565b60006012905090565b620001f06200020660201b60201c565b6200020282826200029760201b60201c565b5050565b620002166200010960201b60201c565b73ffffffffffffffffffffffffffffffffffffffff166200023c6200040f60201b60201c565b73ffffffffffffffffffffffffffffffffffffffff161462000295576040517f08c379a00000000000000000000000000000000000000000000000000000000081526004016200028c9062000a31565b60405180910390fd5b565b600073ffffffffffffffffffffffffffffffffffffffff168273ffffffffffffffffffffffffffffffffffffffff160362000309576040517f08c379a0000000000000000000000000000000000000000000000000000000008152600401620003009062000aa3565b60405180910390fd5b6200031d600083836200043960201b60201c565b806002600082825462000331919062000ac5565b92505081905550806000808473ffffffffffffffffffffffffffffffffffffffff1673ffffffffffffffffffffffffffffffffffffffff168152602001908152602001600020600082825462000388919062000ac5565b925050819055508173ffffffffffffffffffffffffffffffffffffffff16600073ffffffffffffffffffffffffffffffffffffffff167fddf252ad1be2c89b69c2b068fc378daa952ba7f163c4a11628f55a4df523b3ef83604051620003ef919062000b11565b60405180910390a36200040b600083836200043e60201b60201c565b5050565b6000600560009054906101000a900473ffffffffffffffffffffffffffffffffffffffff16905090565b505050565b505050565b600081519050919050565b7f4e487b7100000000000000000000000000000000000000000000000000000000600052604160045260246000fd5b7f4e487b7100000000000000000000000000000000000000000000000000000000600052602260045260246000fd5b60006002820490506001821680620004c557607f821691505b602082108103620004db57620004da6200047d565b5b50919050565b60008190508160005260206000209050919050565b60006020601f8301049050919050565b600082821b905092915050565b600060088302620005457fffffffffffffffffffffffffffffffffffffffffffffffffffffffffffffffff8262000506565b62000551868362000506565b95508019841693508086168417925050509392505050565b6000819050919050565b6000819050919050565b60006200059e62000598620005928462000569565b62000573565b62000569565b9050919050565b6000819050919050565b620005ba836200057d565b620005d2620005c982620005a5565b84845462000513565b825550505050565b600090565b620005e9620005da565b620005f6818484620005af565b505050565b5b818110156200061e5762000612600082620005df565b600181019050620005fc565b5050565b601f8211156200066d576200063781620004e1565b6200064284620004f6565b8101602085101562000652578190505b6200066a6200066185620004f6565b830182620005fb565b50505b505050565b600082821c905092915050565b6000620006926000198460080262000672565b1980831691505092915050565b6000620006ad83836200067f565b9150826002028217905092915050565b620006c88262000443565b67ffffffffffffffff811115620006e457620006e36200044e565b5b620006f08254620004ac565b620006fd82828562000622565b600060209050601f83116001811462000735576000841562000720578287015190505b6200072c85826200069f565b8655506200079c565b601f1984166200074586620004e1565b60005b828110156200076f5784890151825560018201915060208501945060208101905062000748565b868310156200078f57848901516200078b601f8916826200067f565b8355505b6001600288020188555050505b505050505050565b7f4e487b7100000000000000000000000000000000000000000000000000000000600052601160045260246000fd5b60008160011c9050919050565b6000808291508390505b600185111562000832578086048111156200080a5762000809620007a4565b5b60018516156200081a5780820291505b80810290506200082a85620007d3565b9450620007ea565b94509492505050565b6000826200084d576001905062000920565b816200085d576000905062000920565b81600181146200087657600281146200088157620008b7565b600191505062000920565b60ff841115620008965762000895620007a4565b5b8360020a915084821115620008b057620008af620007a4565b5b5062000920565b5060208310610133831016604e8410600b8410161715620008f15782820a905083811115620008eb57620008ea620007a4565b5b62000920565b620009008484846001620007e0565b925090508184048111156200091a5762000919620007a4565b5b81810290505b9392505050565b600060ff82169050919050565b6000620009418262000569565b91506200094e8362000927565b92506200097d7fffffffffffffffffffffffffffffffffffffffffffffffffffffffffffffffff84846200083b565b905092915050565b6000620009928262000569565b91506200099f8362000569565b9250828202620009af8162000569565b91508282048414831517620009c957620009c8620007a4565b5b5092915050565b600082825260208201905092915050565b7f4f776e61626c653a2063616c6c6572206973206e6f7420746865206f776e6572600082015250565b600062000a19602083620009d0565b915062000a2682620009e1565b602082019050919050565b6000602082019050818103600083015262000a4c8162000a0a565b9050919050565b7f45524332303a206d696e7420746f20746865207a65726f206164647265737300600082015250565b600062000a8b601f83620009d0565b915062000a988262000a53565b602082019050919050565b6000602082019050818103600083015262000abe8162000a7c565b9050919050565b600062000ad28262000569565b915062000adf8362000569565b925082820190508082111562000afa5762000af9620007a4565b5b92915050565b62000b0b8162000569565b82525050565b600060208201905062000b28600083018462000b00565b92915050565b61276c8062000b3e6000396000f3fe608060405234801561001057600080fd5b50600436106101365760003560e01c8063715018a6116100b8578063a457c2d71161007c578063a457c2d71461033b578063a9059cbb1461036b578063c44943601461039b578063d63c3004146103b7578063dd62ed3e146103e7578063f2fde38b1461041757610136565b8063715018a6146102bd57806379cc6790146102c75780638da5cb5b146102e357806395d89b4114610301578063a41467331461031f57610136565b8063313ce567116100ff578063313ce56714610207578063395093511461022557806340c10f191461025557806342966c681461027157806370a082311461028d57610136565b806244d6c91461013b57806306fdde031461016b578063095ea7b31461018957806318160ddd146101b957806323b872dd146101d7575b600080fd5b610155600480360381019061015091906116f1565b610433565b6040516101629190611739565b60405180910390f35b610173610453565b60405161018091906117e4565b60405180910390f35b6101a3600480360381019061019e919061183c565b6104e5565b6040516101b09190611739565b60405180910390f35b6101c1610508565b6040516101ce919061188b565b60405180910390f35b6101f160048036038101906101ec91906118a6565b610512565b6040516101fe9190611739565b60405180910390f35b61020f610541565b60405161021c9190611915565b60405180910390f35b61023f600480360381019061023a919061183c565b61054a565b60405161024c9190611739565b60405180910390f35b61026f600480360381019061026a919061183c565b610581565b005b61028b60048036038101906102869190611930565b610597565b005b6102a760048036038101906102a291906116f1565b6105ab565b6040516102b4919061188b565b60405180910390f35b6102c56105f3565b005b6102e160048036038101906102dc919061183c565b610607565b005b6102eb610627565b6040516102f8919061196c565b60405180910390f35b610309610651565b60405161031691906117e4565b60405180910390f35b61033960048036038101906103349190611930565b6106e3565b005b6103556004803603810190610350919061183c565b610b15565b6040516103629190611739565b60405180910390f35b6103856004803603810190610380919061183c565b610b8c565b6040516103929190611739565b60405180910390f35b6103b560048036038101906103b091906116f1565b610baf565b005b6103d160048036038101906103cc9190611930565b610bfb565b6040516103de9190611739565b60405180910390f35b61040160048036038101906103fc9190611987565b610c1b565b60405161040e919061188b565b60405180910390f35b610431600480360381019061042c91906116f1565b610ca2565b005b60086020528060005260406000206000915054906101000a900460ff1681565b606060038054610462906119f6565b80601f016020809104026020016040519081016040528092919081815260200182805461048e906119f6565b80156104db5780601f106104b0576101008083540402835291602001916104db565b820191906000526020600020905b8154815290600101906020018083116104be57829003601f168201915b5050505050905090565b6000806104f0610d25565b90506104fd818585610d2d565b600191505092915050565b6000600254905090565b60008061051d610d25565b905061052a858285610ef6565b610535858585610f82565b60019150509392505050565b60006012905090565b600080610555610d25565b90506105768185856105678589610c1b565b6105719190611a56565b610d2d565b600191505092915050565b610589611201565b610593828261127f565b5050565b6105a86105a2610d25565b826113de565b50565b60008060008373ffffffffffffffffffffffffffffffffffffffff1673ffffffffffffffffffffffffffffffffffffffff168152602001908152602001600020549050919050565b6105fb611201565b61060560006115b4565b565b61061982610613610d25565b83610ef6565b61062382826113de565b5050565b6000600560009054906101000a900473ffffffffffffffffffffffffffffffffffffffff16905090565b606060048054610660906119f6565b80601f016020809104026020016040519081016040528092919081815260200182805461068c906119f6565b80156106d95780601f106106ae576101008083540402835291602001916106d9565b820191906000526020600020905b8154815290600101906020018083116106bc57829003601f168201915b5050505050905090565b600660149054906101000a900460ff1615610733576040517f08c379a000000000000000000000000000000000000000000000000000000000815260040161072a90611ad6565b60405180910390fd5b600660009054906101000a900473ffffffffffffffffffffffffffffffffffffffff1673ffffffffffffffffffffffffffffffffffffffff1663e327a6af33836040518363ffffffff1660e01b8152600401610790929190611af6565b602060405180830381865afa1580156107ad573d6000803e3d6000fd5b505050506040513d601f19601f820116820180604052508101906107d19190611b4b565b610810576040517f08c379a000000000000000000000000000000000000000000000000000000000815260040161080790611bc4565b60405180910390fd5b6101f4600660009054906101000a900473ffffffffffffffffffffffffffffffffffffffff1673ffffffffffffffffffffffffffffffffffffffff1663468f25b0836040518263ffffffff1660e01b815260040161086e919061188b565b61010060405180830381865afa15801561088c573d6000803e3d6000fd5b505050506040513d601f19601f820116820180604052508101906108b09190611d6a565b60e0015163ffffffff16116108fa576040517f08c379a00000000000000000000000000000000000000000000000000000000081526004016108f190611de4565b60405180910390fd5b6007600082815260200190815260200160002060009054906101000a900460ff161561095b576040517f08c379a000000000000000000000000000000000000000000000000000000000815260040161095290611e50565b60405180910390fd5b600860003373ffffffffffffffffffffffffffffffffffffffff1673ffffffffffffffffffffffffffffffffffffffff16815260200190815260200160002060009054906101000a900460ff16156109e8576040517f08c379a00000000000000000000000000000000000000000000000000000000081526004016109df90611ebc565b60405180910390fd5b6109f0610541565b600a6109fc919061200f565b62030d40610a0a919061205a565b610a12610508565b1015610b125760016007600083815260200190815260200160002060006101000a81548160ff0219169083151502179055506001600860003373ffffffffffffffffffffffffffffffffffffffff1673ffffffffffffffffffffffffffffffffffffffff16815260200190815260200160002060006101000a81548160ff021916908315150217905550610ac633610aa8610541565b600a610ab4919061200f565b6103e8610ac1919061205a565b61127f565b610ace610541565b600a610ada919061200f565b62030d40610ae8919061205a565b610af0610508565b10610b11576001600660146101000a81548160ff0219169083151502179055505b5b50565b600080610b20610d25565b90506000610b2e8286610c1b565b905083811015610b73576040517f08c379a0000000000000000000000000000000000000000000000000000000008152600401610b6a9061210e565b60405180910390fd5b610b808286868403610d2d565b60019250505092915050565b600080610b97610d25565b9050610ba4818585610f82565b600191505092915050565b610bb7611201565b80600660006101000a81548173ffffffffffffffffffffffffffffffffffffffff021916908373ffffffffffffffffffffffffffffffffffffffff16021790555050565b60076020528060005260406000206000915054906101000a900460ff1681565b6000600160008473ffffffffffffffffffffffffffffffffffffffff1673ffffffffffffffffffffffffffffffffffffffff16815260200190815260200160002060008373ffffffffffffffffffffffffffffffffffffffff1673ffffffffffffffffffffffffffffffffffffffff16815260200190815260200160002054905092915050565b610caa611201565b600073ffffffffffffffffffffffffffffffffffffffff168173ffffffffffffffffffffffffffffffffffffffff1603610d19576040517f08c379a0000000000000000000000000000000000000000000000000000000008152600401610d10906121a0565b60405180910390fd5b610d22816115b4565b50565b600033905090565b600073ffffffffffffffffffffffffffffffffffffffff168373ffffffffffffffffffffffffffffffffffffffff1603610d9c576040517f08c379a0000000000000000000000000000000000000000000000000000000008152600401610d9390612232565b60405180910390fd5b600073ffffffffffffffffffffffffffffffffffffffff168273ffffffffffffffffffffffffffffffffffffffff1603610e0b576040517f08c379a0000000000000000000000000000000000000000000000000000000008152600401610e02906122c4565b60405180910390fd5b80600160008573ffffffffffffffffffffffffffffffffffffffff1673ffffffffffffffffffffffffffffffffffffffff16815260200190815260200160002060008473ffffffffffffffffffffffffffffffffffffffff1673ffffffffffffffffffffffffffffffffffffffff168152602001908152602001600020819055508173ffffffffffffffffffffffffffffffffffffffff168373ffffffffffffffffffffffffffffffffffffffff167f8c5be1e5ebec7d5bd14f71427d1e84f3dd0314c0f7b2291e5b200ac8c7c3b92583604051610ee9919061188b565b60405180910390a3505050565b6000610f028484610c1b565b90507fffffffffffffffffffffffffffffffffffffffffffffffffffffffffffffffff8114610f7c5781811015610f6e576040517f08c379a0000000000000000000000000000000000000000000000000000000008152600401610f6590612330565b60405180910390fd5b610f7b8484848403610d2d565b5b50505050565b600073ffffffffffffffffffffffffffffffffffffffff168373ffffffffffffffffffffffffffffffffffffffff1603610ff1576040517f08c379a0000000000000000000000000000000000000000000000000000000008152600401610fe8906123c2565b60405180910390fd5b600073ffffffffffffffffffffffffffffffffffffffff168273ffffffffffffffffffffffffffffffffffffffff1603611060576040517f08c379a000000000000000000000000000000000000000000000000000000000815260040161105790612454565b60405180910390fd5b61106b83838361167a565b60008060008573ffffffffffffffffffffffffffffffffffffffff1673ffffffffffffffffffffffffffffffffffffffff168152602001908152602001600020549050818110156110f1576040517f08c379a00000000000000000000000000000000000000000000000000000000081526004016110e8906124e6565b60405180910390fd5b8181036000808673ffffffffffffffffffffffffffffffffffffffff1673ffffffffffffffffffffffffffffffffffffffff16815260200190815260200160002081905550816000808573ffffffffffffffffffffffffffffffffffffffff1673ffffffffffffffffffffffffffffffffffffffff16815260200190815260200160002060008282546111849190611a56565b925050819055508273ffffffffffffffffffffffffffffffffffffffff168473ffffffffffffffffffffffffffffffffffffffff167fddf252ad1be2c89b69c2b068fc378daa952ba7f163c4a11628f55a4df523b3ef846040516111e8919061188b565b60405180910390a36111fb84848461167f565b50505050565b611209610d25565b73ffffffffffffffffffffffffffffffffffffffff16611227610627565b73ffffffffffffffffffffffffffffffffffffffff161461127d576040517f08c379a000000000000000000000000000000000000000000000000000000000815260040161127490612552565b60405180910390fd5b565b600073ffffffffffffffffffffffffffffffffffffffff168273ffffffffffffffffffffffffffffffffffffffff16036112ee576040517f08c379a00000000000000000000000000000000000000000000000000000000081526004016112e5906125be565b60405180910390fd5b6112fa6000838361167a565b806002600082825461130c9190611a56565b92505081905550806000808473ffffffffffffffffffffffffffffffffffffffff1673ffffffffffffffffffffffffffffffffffffffff16815260200190815260200160002060008282546113619190611a56565b925050819055508173ffffffffffffffffffffffffffffffffffffffff16600073ffffffffffffffffffffffffffffffffffffffff167fddf252ad1be2c89b69c2b068fc378daa952ba7f163c4a11628f55a4df523b3ef836040516113c6919061188b565b60405180910390a36113da6000838361167f565b5050565b600073ffffffffffffffffffffffffffffffffffffffff168273ffffffffffffffffffffffffffffffffffffffff160361144d576040517f08c379a000000000000000000000000000000000000000000000000000000000815260040161144490612650565b60405180910390fd5b6114598260008361167a565b60008060008473ffffffffffffffffffffffffffffffffffffffff1673ffffffffffffffffffffffffffffffffffffffff168152602001908152602001600020549050818110156114df576040517f08c379a00000000000000000000000000000000000000000000000000000000081526004016114d6906126e2565b60405180910390fd5b8181036000808573ffffffffffffffffffffffffffffffffffffffff1673ffffffffffffffffffffffffffffffffffffffff1681526020019081526020016000208190555081600260008282546115369190612702565b92505081905550600073ffffffffffffffffffffffffffffffffffffffff168373ffffffffffffffffffffffffffffffffffffffff167fddf252ad1be2c89b69c2b068fc378daa952ba7f163c4a11628f55a4df523b3ef8460405161159b919061188b565b60405180910390a36115af8360008461167f565b505050565b6000600560009054906101000a900473ffffffffffffffffffffffffffffffffffffffff16905081600560006101000a81548173ffffffffffffffffffffffffffffffffffffffff021916908373ffffffffffffffffffffffffffffffffffffffff1602179055508173ffffffffffffffffffffffffffffffffffffffff168173ffffffffffffffffffffffffffffffffffffffff167f8be0079c531659141344cd1fd0a4f28419497f9722a3daafe3b4186f6b6457e060405160405180910390a35050565b505050565b505050565b6000604051905090565b600080fd5b600073ffffffffffffffffffffffffffffffffffffffff82169050919050565b60006116be82611693565b9050919050565b6116ce816116b3565b81146116d957600080fd5b50565b6000813590506116eb816116c5565b92915050565b6000602082840312156117075761170661168e565b5b6000611715848285016116dc565b91505092915050565b60008115159050919050565b6117338161171e565b82525050565b600060208201905061174e600083018461172a565b92915050565b600081519050919050565b600082825260208201905092915050565b60005b8381101561178e578082015181840152602081019050611773565b60008484015250505050565b6000601f19601f8301169050919050565b60006117b682611754565b6117c0818561175f565b93506117d0818560208601611770565b6117d98161179a565b840191505092915050565b600060208201905081810360008301526117fe81846117ab565b905092915050565b6000819050919050565b61181981611806565b811461182457600080fd5b50565b60008135905061183681611810565b92915050565b600080604083850312156118535761185261168e565b5b6000611861858286016116dc565b925050602061187285828601611827565b9150509250929050565b61188581611806565b82525050565b60006020820190506118a0600083018461187c565b92915050565b6000806000606084860312156118bf576118be61168e565b5b60006118cd868287016116dc565b93505060206118de868287016116dc565b92505060406118ef86828701611827565b9150509250925092565b600060ff82169050919050565b61190f816118f9565b82525050565b600060208201905061192a6000830184611906565b92915050565b6000602082840312156119465761194561168e565b5b600061195484828501611827565b91505092915050565b611966816116b3565b82525050565b6000602082019050611981600083018461195d565b92915050565b6000806040838503121561199e5761199d61168e565b5b60006119ac858286016116dc565b92505060206119bd858286016116dc565b9150509250929050565b7f4e487b7100000000000000000000000000000000000000000000000000000000600052602260045260246000fd5b60006002820490506001821680611a0e57607f821691505b602082108103611a2157611a206119c7565b5b50919050565b7f4e487b7100000000000000000000000000000000000000000000000000000000600052601160045260246000fd5b6000611a6182611806565b9150611a6c83611806565b9250828201905080821115611a8457611a83611a27565b5b92915050565b7f24434c414e4b3a2066726565206d696e7420706572696f64206973206f766572600082015250565b6000611ac060208361175f565b9150611acb82611a8a565b602082019050919050565b60006020820190508181036000830152611aef81611ab3565b9050919050565b6000604082019050611b0b600083018561195d565b611b18602083018461187c565b9392505050565b611b288161171e565b8114611b3357600080fd5b50565b600081519050611b4581611b1f565b92915050565b600060208284031215611b6157611b6061168e565b5b6000611b6f84828501611b36565b91505092915050565b7f24434c414e4b3a20636861726163746572206e6f74206f776e65640000000000600082015250565b6000611bae601b8361175f565b9150611bb982611b78565b602082019050919050565b60006020820190508181036000830152611bdd81611ba1565b9050919050565b600080fd5b7f4e487b7100000000000000000000000000000000000000000000000000000000600052604160045260246000fd5b611c218261179a565b810181811067ffffffffffffffff82111715611c4057611c3f611be9565b5b80604052505050565b6000611c53611684565b9050611c5f8282611c18565b919050565b600063ffffffff82169050919050565b611c7d81611c64565b8114611c8857600080fd5b50565b600081519050611c9a81611c74565b92915050565b60006101008284031215611cb757611cb6611be4565b5b611cc2610100611c49565b90506000611cd284828501611c8b565b6000830152506020611ce684828501611c8b565b6020830152506040611cfa84828501611c8b565b6040830152506060611d0e84828501611c8b565b6060830152506080611d2284828501611c8b565b60808301525060a0611d3684828501611c8b565b60a08301525060c0611d4a84828501611c8b565b60c08301525060e0611d5e84828501611c8b565b60e08301525092915050565b60006101008284031215611d8157611d8061168e565b5b6000611d8f84828501611ca0565b91505092915050565b7f24434c414e4b3a20696e73756620636861722065787000000000000000000000600082015250565b6000611dce60168361175f565b9150611dd982611d98565b602082019050919050565b60006020820190508181036000830152611dfd81611dc1565b9050919050565b7f24434c414e4b3a2063686172616374657220616c7265616479206d696e746564600082015250565b6000611e3a60208361175f565b9150611e4582611e04565b602082019050919050565b60006020820190508181036000830152611e6981611e2d565b9050919050565b7f24434c414e4b3a206164647265737320616c7265616479206d696e7465640000600082015250565b6000611ea6601e8361175f565b9150611eb182611e70565b602082019050919050565b60006020820190508181036000830152611ed581611e99565b9050919050565b60008160011c9050919050565b6000808291508390505b6001851115611f3357808604811115611f0f57611f0e611a27565b5b6001851615611f1e5780820291505b8081029050611f2c85611edc565b9450611ef3565b94509492505050565b600082611f4c5760019050612008565b81611f5a5760009050612008565b8160018114611f705760028114611f7a57611fa9565b6001915050612008565b60ff841115611f8c57611f8b611a27565b5b8360020a915084821115611fa357611fa2611a27565b5b50612008565b5060208310610133831016604e8410600b8410161715611fde5782820a905083811115611fd957611fd8611a27565b5b612008565b611feb8484846001611ee9565b9250905081840481111561200257612001611a27565b5b81810290505b9392505050565b600061201a82611806565b9150612025836118f9565b92506120527fffffffffffffffffffffffffffffffffffffffffffffffffffffffffffffffff8484611f3c565b905092915050565b600061206582611806565b915061207083611806565b925082820261207e81611806565b9150828204841483151761209557612094611a27565b5b5092915050565b7f45524332303a2064656372656173656420616c6c6f77616e63652062656c6f7760008201527f207a65726f000000000000000000000000000000000000000000000000000000602082015250565b60006120f860258361175f565b91506121038261209c565b604082019050919050565b60006020820190508181036000830152612127816120eb565b9050919050565b7f4f776e61626c653a206e6577206f776e657220697320746865207a65726f206160008201527f6464726573730000000000000000000000000000000000000000000000000000602082015250565b600061218a60268361175f565b91506121958261212e565b604082019050919050565b600060208201905081810360008301526121b98161217d565b9050919050565b7f45524332303a20617070726f76652066726f6d20746865207a65726f2061646460008201527f7265737300000000000000000000000000000000000000000000000000000000602082015250565b600061221c60248361175f565b9150612227826121c0565b604082019050919050565b6000602082019050818103600083015261224b8161220f565b9050919050565b7f45524332303a20617070726f766520746f20746865207a65726f20616464726560008201527f7373000000000000000000000000000000000000000000000000000000000000602082015250565b60006122ae60228361175f565b91506122b982612252565b604082019050919050565b600060208201905081810360008301526122dd816122a1565b9050919050565b7f45524332303a20696e73756666696369656e7420616c6c6f77616e6365000000600082015250565b600061231a601d8361175f565b9150612325826122e4565b602082019050919050565b600060208201905081810360008301526123498161230d565b9050919050565b7f45524332303a207472616e736665722066726f6d20746865207a65726f20616460008201527f6472657373000000000000000000000000000000000000000000000000000000602082015250565b60006123ac60258361175f565b91506123b782612350565b604082019050919050565b600060208201905081810360008301526123db8161239f565b9050919050565b7f45524332303a207472616e7366657220746f20746865207a65726f206164647260008201527f6573730000000000000000000000000000000000000000000000000000000000602082015250565b600061243e60238361175f565b9150612449826123e2565b604082019050919050565b6000602082019050818103600083015261246d81612431565b9050919050565b7f45524332303a207472616e7366657220616d6f756e742065786365656473206260008201527f616c616e63650000000000000000000000000000000000000000000000000000602082015250565b60006124d060268361175f565b91506124db82612474565b604082019050919050565b600060208201905081810360008301526124ff816124c3565b9050919050565b7f4f776e61626c653a2063616c6c6572206973206e6f7420746865206f776e6572600082015250565b600061253c60208361175f565b915061254782612506565b602082019050919050565b6000602082019050818103600083015261256b8161252f565b9050919050565b7f45524332303a206d696e7420746f20746865207a65726f206164647265737300600082015250565b60006125a8601f8361175f565b91506125b382612572565b602082019050919050565b600060208201905081810360008301526125d78161259b565b9050919050565b7f45524332303a206275726e2066726f6d20746865207a65726f2061646472657360008201527f7300000000000000000000000000000000000000000000000000000000000000602082015250565b600061263a60218361175f565b9150612645826125de565b604082019050919050565b600060208201905081810360008301526126698161262d565b9050919050565b7f45524332303a206275726e20616d6f756e7420657863656564732062616c616e60008201527f6365000000000000000000000000000000000000000000000000000000000000602082015250565b60006126cc60228361175f565b91506126d782612670565b604082019050919050565b600060208201905081810360008301526126fb816126bf565b9050919050565b600061270d82611806565b915061271883611806565b92508282039050818111156127305761272f611a27565b5b9291505056fea2646970667358221220b2dce1bfd9f68213765150d9a8ca74defd61c06948cffe32eea9c62e6379890564736f6c63430008110033",
  "linkReferences": {},
  "deployedLinkReferences": {}
}