{
  "_format": "hh-sol-artifact-1",
  "contractName": "VRFv2DungeonBattles",
  "sourceName": "contracts/periphery/chainlink/vrf/VRFv2DungeonBattles.sol",
  "abi": [
    {
      "inputs": [
        {
          "internalType": "uint64",
          "name": "subscriptionId",
          "type": "uint64"
        },
        {
          "internalType": "address",
          "name": "_coordinator",
          "type": "address"
        },
        {
          "internalType": "bytes32",
          "name": "_keyHash",
          "type": "bytes32"
        },
        {
          "internalType": "address",
          "name": "ownerContract",
          "type": "address"
        }
      ],
      "stateMutability": "nonpayable",
      "type": "constructor"
    },
    {
      "inputs": [
        {
          "internalType": "address",
          "name": "have",
          "type": "address"
        },
        {
          "internalType": "address",
          "name": "want",
          "type": "address"
        }
      ],
      "name": "OnlyCoordinatorCanFulfill",
      "type": "error"
    },
    {
      "anonymous": false,
      "inputs": [
        {
          "indexed": true,
          "internalType": "address",
          "name": "from",
          "type": "address"
        },
        {
          "indexed": true,
          "internalType": "address",
          "name": "to",
          "type": "address"
        }
      ],
      "name": "OwnershipTransferRequested",
      "type": "event"
    },
    {
      "anonymous": false,
      "inputs": [
        {
          "indexed": true,
          "internalType": "address",
          "name": "from",
          "type": "address"
        },
        {
          "indexed": true,
          "internalType": "address",
          "name": "to",
          "type": "address"
        }
      ],
      "name": "OwnershipTransferred",
      "type": "event"
    },
    {
      "anonymous": false,
      "inputs": [
        {
          "indexed": false,
          "internalType": "uint256",
          "name": "requestId",
          "type": "uint256"
        },
        {
          "indexed": false,
          "internalType": "uint256[]",
          "name": "randomWords",
          "type": "uint256[]"
        },
        {
          "indexed": false,
          "internalType": "address",
          "name": "user",
          "type": "address"
        }
      ],
      "name": "RequestFulfilled",
      "type": "event"
    },
    {
      "anonymous": false,
      "inputs": [
        {
          "indexed": false,
          "internalType": "uint256",
          "name": "requestId",
          "type": "uint256"
        },
        {
          "indexed": false,
          "internalType": "uint32",
          "name": "numWords",
          "type": "uint32"
        },
        {
          "indexed": false,
          "internalType": "address",
          "name": "user",
          "type": "address"
        }
      ],
      "name": "RequestSent",
      "type": "event"
    },
    {
      "inputs": [],
      "name": "acceptOwnership",
      "outputs": [],
      "stateMutability": "nonpayable",
      "type": "function"
    },
    {
      "inputs": [
        {
          "internalType": "uint256",
          "name": "_requestId",
          "type": "uint256"
        }
      ],
      "name": "getRequestStatus",
      "outputs": [
        {
          "internalType": "bool",
          "name": "fulfilled",
          "type": "bool"
        },
        {
          "internalType": "uint256[]",
          "name": "randomWords",
          "type": "uint256[]"
        }
      ],
      "stateMutability": "view",
      "type": "function"
    },
    {
      "inputs": [],
      "name": "lastRequestId",
      "outputs": [
        {
          "internalType": "uint256",
          "name": "",
          "type": "uint256"
        }
      ],
      "stateMutability": "view",
      "type": "function"
    },
    {
      "inputs": [],
      "name": "owner",
      "outputs": [
        {
          "internalType": "address",
          "name": "",
          "type": "address"
        }
      ],
      "stateMutability": "view",
      "type": "function"
    },
    {
      "inputs": [
        {
          "internalType": "uint256",
          "name": "requestId",
          "type": "uint256"
        },
        {
          "internalType": "uint256[]",
          "name": "randomWords",
          "type": "uint256[]"
        }
      ],
      "name": "rawFulfillRandomWords",
      "outputs": [],
      "stateMutability": "nonpayable",
      "type": "function"
    },
    {
      "inputs": [
        {
          "internalType": "uint256",
          "name": "",
          "type": "uint256"
        }
      ],
      "name": "requestIdToUser",
      "outputs": [
        {
          "internalType": "address",
          "name": "",
          "type": "address"
        }
      ],
      "stateMutability": "view",
      "type": "function"
    },
    {
      "inputs": [
        {
          "internalType": "uint256",
          "name": "",
          "type": "uint256"
        }
      ],
      "name": "requestIds",
      "outputs": [
        {
          "internalType": "uint256",
          "name": "",
          "type": "uint256"
        }
      ],
      "stateMutability": "view",
      "type": "function"
    },
    {
      "inputs": [
        {
          "internalType": "address",
          "name": "user",
          "type": "address"
        },
        {
          "internalType": "uint32",
          "name": "numWords",
          "type": "uint32"
        },
        {
          "internalType": "bool",
          "name": "experimental",
          "type": "bool"
        }
      ],
      "name": "requestRandomWords",
      "outputs": [
        {
          "internalType": "uint256",
          "name": "requestId",
          "type": "uint256"
        }
      ],
      "stateMutability": "nonpayable",
      "type": "function"
    },
    {
      "inputs": [
        {
          "internalType": "uint256",
          "name": "",
          "type": "uint256"
        }
      ],
      "name": "s_requests",
      "outputs": [
        {
          "internalType": "bool",
          "name": "fulfilled",
          "type": "bool"
        },
        {
          "internalType": "bool",
          "name": "exists",
          "type": "bool"
        }
      ],
      "stateMutability": "view",
      "type": "function"
    },
    {
      "inputs": [
        {
          "internalType": "address",
          "name": "to",
          "type": "address"
        }
      ],
      "name": "transferOwnership",
      "outputs": [],
      "stateMutability": "nonpayable",
      "type": "function"
    }
  ],
  "bytecode": "0x60a06040526003600860006101000a81548161ffff021916908361ffff1602179055503480156200002f57600080fd5b5060405162001b3338038062001b3383398181016040528101906200005591906200041f565b80806000858073ffffffffffffffffffffffffffffffffffffffff1660808173ffffffffffffffffffffffffffffffffffffffff168152505050600073ffffffffffffffffffffffffffffffffffffffff168273ffffffffffffffffffffffffffffffffffffffff160362000101576040517f08c379a0000000000000000000000000000000000000000000000000000000008152600401620000f890620004f2565b60405180910390fd5b816000806101000a81548173ffffffffffffffffffffffffffffffffffffffff021916908373ffffffffffffffffffffffffffffffffffffffff160217905550600073ffffffffffffffffffffffffffffffffffffffff168173ffffffffffffffffffffffffffffffffffffffff1614620001885762000187816200020660201b60201c565b5b50505082600460006101000a81548173ffffffffffffffffffffffffffffffffffffffff021916908373ffffffffffffffffffffffffffffffffffffffff1602179055508160078190555083600460146101000a81548167ffffffffffffffff021916908367ffffffffffffffff1602179055505050505062000586565b3373ffffffffffffffffffffffffffffffffffffffff168173ffffffffffffffffffffffffffffffffffffffff160362000277576040517f08c379a00000000000000000000000000000000000000000000000000000000081526004016200026e9062000564565b60405180910390fd5b80600160006101000a81548173ffffffffffffffffffffffffffffffffffffffff021916908373ffffffffffffffffffffffffffffffffffffffff1602179055508073ffffffffffffffffffffffffffffffffffffffff1660008054906101000a900473ffffffffffffffffffffffffffffffffffffffff1673ffffffffffffffffffffffffffffffffffffffff167fed8889f560326eb138920d842192f0eb3dd22b4f139c87a2c57538e05bae127860405160405180910390a350565b600080fd5b600067ffffffffffffffff82169050919050565b62000359816200033a565b81146200036557600080fd5b50565b60008151905062000379816200034e565b92915050565b600073ffffffffffffffffffffffffffffffffffffffff82169050919050565b6000620003ac826200037f565b9050919050565b620003be816200039f565b8114620003ca57600080fd5b50565b600081519050620003de81620003b3565b92915050565b6000819050919050565b620003f981620003e4565b81146200040557600080fd5b50565b6000815190506200041981620003ee565b92915050565b600080600080608085870312156200043c576200043b62000335565b5b60006200044c8782880162000368565b94505060206200045f87828801620003cd565b9350506040620004728782880162000408565b92505060606200048587828801620003cd565b91505092959194509250565b600082825260208201905092915050565b7f43616e6e6f7420736574206f776e657220746f207a65726f0000000000000000600082015250565b6000620004da60188362000491565b9150620004e782620004a2565b602082019050919050565b600060208201905081810360008301526200050d81620004cb565b9050919050565b7f43616e6e6f74207472616e7366657220746f2073656c66000000000000000000600082015250565b60006200054c60178362000491565b9150620005598262000514565b602082019050919050565b600060208201905081810360008301526200057f816200053d565b9050919050565b60805161158a620005a9600039600081816102150152610269015261158a6000f3fe608060405234801561001057600080fd5b506004361061009e5760003560e01c8063a168fa8911610066578063a168fa8914610147578063d8a4676f14610178578063dc7d73bb146101a9578063f2fde38b146101d9578063fc2a88c3146101f55761009e565b80631fe543e3146100a357806379ba5097146100bf5780638796ba8c146100c95780638da5cb5b146100f95780639bca039d14610117575b600080fd5b6100bd60048036038101906100b89190610dff565b610213565b005b6100c76102d3565b005b6100e360048036038101906100de9190610e5b565b610468565b6040516100f09190610e97565b60405180910390f35b61010161048c565b60405161010e9190610ef3565b60405180910390f35b610131600480360381019061012c9190610fae565b6104b5565b60405161013e9190610e97565b60405180910390f35b610161600480360381019061015c9190610e5b565b610751565b60405161016f929190611010565b60405180910390f35b610192600480360381019061018d9190610e5b565b61078f565b6040516101a09291906110f7565b60405180910390f35b6101c360048036038101906101be9190610e5b565b6108ba565b6040516101d09190610ef3565b60405180910390f35b6101f360048036038101906101ee9190611127565b6108ed565b005b6101fd610901565b60405161020a9190610e97565b60405180910390f35b7f000000000000000000000000000000000000000000000000000000000000000073ffffffffffffffffffffffffffffffffffffffff163373ffffffffffffffffffffffffffffffffffffffff16146102c557337f00000000000000000000000000000000000000000000000000000000000000006040517f1cf993f40000000000000000000000000000000000000000000000000000000081526004016102bc929190611154565b60405180910390fd5b6102cf8282610907565b5050565b600160009054906101000a900473ffffffffffffffffffffffffffffffffffffffff1673ffffffffffffffffffffffffffffffffffffffff163373ffffffffffffffffffffffffffffffffffffffff1614610363576040517f08c379a000000000000000000000000000000000000000000000000000000000815260040161035a906111da565b60405180910390fd5b60008060009054906101000a900473ffffffffffffffffffffffffffffffffffffffff169050336000806101000a81548173ffffffffffffffffffffffffffffffffffffffff021916908373ffffffffffffffffffffffffffffffffffffffff1602179055506000600160006101000a81548173ffffffffffffffffffffffffffffffffffffffff021916908373ffffffffffffffffffffffffffffffffffffffff1602179055503373ffffffffffffffffffffffffffffffffffffffff168173ffffffffffffffffffffffffffffffffffffffff167f8be0079c531659141344cd1fd0a4f28419497f9722a3daafe3b4186f6b6457e060405160405180910390a350565b6005818154811061047857600080fd5b906000526020600020016000915090505481565b60008060009054906101000a900473ffffffffffffffffffffffffffffffffffffffff16905090565b60006104bf610a36565b6000614e20846104cf9190611229565b620186a06104dd9190611266565b9050600460009054906101000a900473ffffffffffffffffffffffffffffffffffffffff1673ffffffffffffffffffffffffffffffffffffffff16635d3b1d30600754600460149054906101000a900467ffffffffffffffff16600860009054906101000a900461ffff1685896040518663ffffffff1660e01b815260040161056a959493929190611306565b6020604051808303816000875af1158015610589573d6000803e3d6000fd5b505050506040513d601f19601f820116820180604052508101906105ad919061136e565b91506040518060600160405280600015158152602001600115158152602001600067ffffffffffffffff8111156105e7576105e6610cbc565b5b6040519080825280602002602001820160405280156106155781602001602082028036833780820191505090505b508152506002600084815260200190815260200160002060008201518160000160006101000a81548160ff02191690831515021790555060208201518160000160016101000a81548160ff0219169083151502179055506040820151816001019080519060200190610688929190610bf2565b50905050600582908060018154018082558091505060019003906000526020600020016000909190919091505581600681905550846003600084815260200190815260200160002060006101000a81548173ffffffffffffffffffffffffffffffffffffffff021916908373ffffffffffffffffffffffffffffffffffffffff1602179055507ff63bc84386bc129703919a2388162a4ad560a11f28b1280169517f1fa7ace4258285876040516107419392919061139b565b60405180910390a1509392505050565b60026020528060005260406000206000915090508060000160009054906101000a900460ff16908060000160019054906101000a900460ff16905082565b600060606002600084815260200190815260200160002060000160019054906101000a900460ff166107f6576040517f08c379a00000000000000000000000000000000000000000000000000000000081526004016107ed9061141e565b60405180910390fd5b6000600260008581526020019081526020016000206040518060600160405290816000820160009054906101000a900460ff161515151581526020016000820160019054906101000a900460ff161515151581526020016001820180548060200260200160405190810160405280929190818152602001828054801561089b57602002820191906000526020600020905b815481526020019060010190808311610887575b5050505050815250509050806000015181604001519250925050915091565b60036020528060005260406000206000915054906101000a900473ffffffffffffffffffffffffffffffffffffffff1681565b6108f5610a36565b6108fe81610ac6565b50565b60065481565b6002600083815260200190815260200160002060000160019054906101000a900460ff1661096a576040517f08c379a00000000000000000000000000000000000000000000000000000000081526004016109619061141e565b60405180910390fd5b60016002600084815260200190815260200160002060000160006101000a81548160ff021916908315150217905550806002600084815260200190815260200160002060010190805190602001906109c3929190610bf2565b507fed0ce7ad1739b90cc4f577e1fb062d20aa017a2f5b685a1dde6d70a52ea9ce3182826003600086815260200190815260200160002060009054906101000a900473ffffffffffffffffffffffffffffffffffffffff16604051610a2a9392919061143e565b60405180910390a15050565b60008054906101000a900473ffffffffffffffffffffffffffffffffffffffff1673ffffffffffffffffffffffffffffffffffffffff163373ffffffffffffffffffffffffffffffffffffffff1614610ac4576040517f08c379a0000000000000000000000000000000000000000000000000000000008152600401610abb906114c8565b60405180910390fd5b565b3373ffffffffffffffffffffffffffffffffffffffff168173ffffffffffffffffffffffffffffffffffffffff1603610b34576040517f08c379a0000000000000000000000000000000000000000000000000000000008152600401610b2b90611534565b60405180910390fd5b80600160006101000a81548173ffffffffffffffffffffffffffffffffffffffff021916908373ffffffffffffffffffffffffffffffffffffffff1602179055508073ffffffffffffffffffffffffffffffffffffffff1660008054906101000a900473ffffffffffffffffffffffffffffffffffffffff1673ffffffffffffffffffffffffffffffffffffffff167fed8889f560326eb138920d842192f0eb3dd22b4f139c87a2c57538e05bae127860405160405180910390a350565b828054828255906000526020600020908101928215610c2e579160200282015b82811115610c2d578251825591602001919060010190610c12565b5b509050610c3b9190610c3f565b5090565b5b80821115610c58576000816000905550600101610c40565b5090565b6000604051905090565b600080fd5b600080fd5b6000819050919050565b610c8381610c70565b8114610c8e57600080fd5b50565b600081359050610ca081610c7a565b92915050565b600080fd5b6000601f19601f8301169050919050565b7f4e487b7100000000000000000000000000000000000000000000000000000000600052604160045260246000fd5b610cf482610cab565b810181811067ffffffffffffffff82111715610d1357610d12610cbc565b5b80604052505050565b6000610d26610c5c565b9050610d328282610ceb565b919050565b600067ffffffffffffffff821115610d5257610d51610cbc565b5b602082029050602081019050919050565b600080fd5b6000610d7b610d7684610d37565b610d1c565b90508083825260208201905060208402830185811115610d9e57610d9d610d63565b5b835b81811015610dc75780610db38882610c91565b845260208401935050602081019050610da0565b5050509392505050565b600082601f830112610de657610de5610ca6565b5b8135610df6848260208601610d68565b91505092915050565b60008060408385031215610e1657610e15610c66565b5b6000610e2485828601610c91565b925050602083013567ffffffffffffffff811115610e4557610e44610c6b565b5b610e5185828601610dd1565b9150509250929050565b600060208284031215610e7157610e70610c66565b5b6000610e7f84828501610c91565b91505092915050565b610e9181610c70565b82525050565b6000602082019050610eac6000830184610e88565b92915050565b600073ffffffffffffffffffffffffffffffffffffffff82169050919050565b6000610edd82610eb2565b9050919050565b610eed81610ed2565b82525050565b6000602082019050610f086000830184610ee4565b92915050565b610f1781610ed2565b8114610f2257600080fd5b50565b600081359050610f3481610f0e565b92915050565b600063ffffffff82169050919050565b610f5381610f3a565b8114610f5e57600080fd5b50565b600081359050610f7081610f4a565b92915050565b60008115159050919050565b610f8b81610f76565b8114610f9657600080fd5b50565b600081359050610fa881610f82565b92915050565b600080600060608486031215610fc757610fc6610c66565b5b6000610fd586828701610f25565b9350506020610fe686828701610f61565b9250506040610ff786828701610f99565b9150509250925092565b61100a81610f76565b82525050565b60006040820190506110256000830185611001565b6110326020830184611001565b9392505050565b600081519050919050565b600082825260208201905092915050565b6000819050602082019050919050565b61106e81610c70565b82525050565b60006110808383611065565b60208301905092915050565b6000602082019050919050565b60006110a482611039565b6110ae8185611044565b93506110b983611055565b8060005b838110156110ea5781516110d18882611074565b97506110dc8361108c565b9250506001810190506110bd565b5085935050505092915050565b600060408201905061110c6000830185611001565b818103602083015261111e8184611099565b90509392505050565b60006020828403121561113d5761113c610c66565b5b600061114b84828501610f25565b91505092915050565b60006040820190506111696000830185610ee4565b6111766020830184610ee4565b9392505050565b600082825260208201905092915050565b7f4d7573742062652070726f706f736564206f776e657200000000000000000000600082015250565b60006111c460168361117d565b91506111cf8261118e565b602082019050919050565b600060208201905081810360008301526111f3816111b7565b9050919050565b7f4e487b7100000000000000000000000000000000000000000000000000000000600052601160045260246000fd5b600061123482610f3a565b915061123f83610f3a565b925082820261124d81610f3a565b915080821461125f5761125e6111fa565b5b5092915050565b600061127182610f3a565b915061127c83610f3a565b9250828201905063ffffffff811115611298576112976111fa565b5b92915050565b6000819050919050565b6112b18161129e565b82525050565b600067ffffffffffffffff82169050919050565b6112d4816112b7565b82525050565b600061ffff82169050919050565b6112f1816112da565b82525050565b61130081610f3a565b82525050565b600060a08201905061131b60008301886112a8565b61132860208301876112cb565b61133560408301866112e8565b61134260608301856112f7565b61134f60808301846112f7565b9695505050505050565b60008151905061136881610c7a565b92915050565b60006020828403121561138457611383610c66565b5b600061139284828501611359565b91505092915050565b60006060820190506113b06000830186610e88565b6113bd60208301856112f7565b6113ca6040830184610ee4565b949350505050565b7f72657175657374206e6f7420666f756e64000000000000000000000000000000600082015250565b600061140860118361117d565b9150611413826113d2565b602082019050919050565b60006020820190508181036000830152611437816113fb565b9050919050565b60006060820190506114536000830186610e88565b81810360208301526114658185611099565b90506114746040830184610ee4565b949350505050565b7f4f6e6c792063616c6c61626c65206279206f776e657200000000000000000000600082015250565b60006114b260168361117d565b91506114bd8261147c565b602082019050919050565b600060208201905081810360008301526114e1816114a5565b9050919050565b7f43616e6e6f74207472616e7366657220746f2073656c66000000000000000000600082015250565b600061151e60178361117d565b9150611529826114e8565b602082019050919050565b6000602082019050818103600083015261154d81611511565b905091905056fea26469706673582212209246178f81911f89cdbf9a5c521f4c36e117e7801fe31be8a8bcf136b8a4de3564736f6c63430008110033",
  "linkReferences": {},
  "deployedLinkReferences": {}
}