{
  "_format": "hh-sol-artifact-1",
  "contractName": "DungeonKeeper",
  "sourceName": "contracts/periphery/chainlink/keepers/DungeonKeeper.sol",
  "abi": [
    {
      "inputs": [
        {
          "internalType": "address",
          "name": "_dungeonAddress",
          "type": "address"
        },
        {
          "internalType": "address",
          "name": "_keepersRegistry",
          "type": "address"
        }
      ],
      "stateMutability": "nonpayable",
      "type": "constructor"
    },
    {
      "inputs": [],
      "name": "OnlyKeeperRegistry",
      "type": "error"
    },
    {
      "anonymous": false,
      "inputs": [
        {
          "indexed": true,
          "internalType": "address",
          "name": "previousOwner",
          "type": "address"
        },
        {
          "indexed": true,
          "internalType": "address",
          "name": "newOwner",
          "type": "address"
        }
      ],
      "name": "OwnershipTransferred",
      "type": "event"
    },
    {
      "anonymous": false,
      "inputs": [
        {
          "indexed": false,
          "internalType": "address",
          "name": "account",
          "type": "address"
        }
      ],
      "name": "Paused",
      "type": "event"
    },
    {
      "anonymous": false,
      "inputs": [
        {
          "indexed": false,
          "internalType": "address",
          "name": "account",
          "type": "address"
        }
      ],
      "name": "Unpaused",
      "type": "event"
    },
    {
      "inputs": [
        {
          "internalType": "bytes",
          "name": "",
          "type": "bytes"
        }
      ],
      "name": "checkUpkeep",
      "outputs": [
        {
          "internalType": "bool",
          "name": "upkeepNeeded",
          "type": "bool"
        },
        {
          "internalType": "bytes",
          "name": "",
          "type": "bytes"
        }
      ],
      "stateMutability": "view",
      "type": "function"
    },
    {
      "inputs": [],
      "name": "interval",
      "outputs": [
        {
          "internalType": "uint256",
          "name": "",
          "type": "uint256"
        }
      ],
      "stateMutability": "view",
      "type": "function"
    },
    {
      "inputs": [],
      "name": "lastTimeStamp",
      "outputs": [
        {
          "internalType": "uint256",
          "name": "",
          "type": "uint256"
        }
      ],
      "stateMutability": "view",
      "type": "function"
    },
    {
      "inputs": [],
      "name": "owner",
      "outputs": [
        {
          "internalType": "address",
          "name": "",
          "type": "address"
        }
      ],
      "stateMutability": "view",
      "type": "function"
    },
    {
      "inputs": [],
      "name": "pause",
      "outputs": [],
      "stateMutability": "nonpayable",
      "type": "function"
    },
    {
      "inputs": [],
      "name": "paused",
      "outputs": [
        {
          "internalType": "bool",
          "name": "",
          "type": "bool"
        }
      ],
      "stateMutability": "view",
      "type": "function"
    },
    {
      "inputs": [
        {
          "internalType": "bytes",
          "name": "",
          "type": "bytes"
        }
      ],
      "name": "performUpkeep",
      "outputs": [],
      "stateMutability": "nonpayable",
      "type": "function"
    },
    {
      "inputs": [],
      "name": "renounceOwnership",
      "outputs": [],
      "stateMutability": "nonpayable",
      "type": "function"
    },
    {
      "inputs": [],
      "name": "s_keeperRegistryAddress",
      "outputs": [
        {
          "internalType": "address",
          "name": "",
          "type": "address"
        }
      ],
      "stateMutability": "view",
      "type": "function"
    },
    {
      "inputs": [
        {
          "internalType": "uint256",
          "name": "_newInterval",
          "type": "uint256"
        }
      ],
      "name": "setInterval",
      "outputs": [],
      "stateMutability": "nonpayable",
      "type": "function"
    },
    {
      "inputs": [
        {
          "internalType": "address",
          "name": "keeperRegistryAddress",
          "type": "address"
        }
      ],
      "name": "setKeeperRegistryAddress",
      "outputs": [],
      "stateMutability": "nonpayable",
      "type": "function"
    },
    {
      "inputs": [
        {
          "internalType": "address",
          "name": "newOwner",
          "type": "address"
        }
      ],
      "name": "transferOwnership",
      "outputs": [],
      "stateMutability": "nonpayable",
      "type": "function"
    },
    {
      "inputs": [],
      "name": "unpause",
      "outputs": [],
      "stateMutability": "nonpayable",
      "type": "function"
    }
  ],
  "bytecode": "0x60806040523480156200001157600080fd5b506040516200118038038062001180833981810160405281019062000037919062000359565b620000576200004b620000db60201b60201c565b620000e360201b60201c565b60008060146101000a81548160ff021916908315150217905550612a306001819055504260028190555081600460006101000a81548173ffffffffffffffffffffffffffffffffffffffff021916908373ffffffffffffffffffffffffffffffffffffffff160217905550620000d381620001a760201b60201c565b505062000423565b600033905090565b60008060009054906101000a900473ffffffffffffffffffffffffffffffffffffffff169050816000806101000a81548173ffffffffffffffffffffffffffffffffffffffff021916908373ffffffffffffffffffffffffffffffffffffffff1602179055508173ffffffffffffffffffffffffffffffffffffffff168173ffffffffffffffffffffffffffffffffffffffff167f8be0079c531659141344cd1fd0a4f28419497f9722a3daafe3b4186f6b6457e060405160405180910390a35050565b620001b76200023560201b60201c565b600073ffffffffffffffffffffffffffffffffffffffff168173ffffffffffffffffffffffffffffffffffffffff1603620001f157600080fd5b80600360006101000a81548173ffffffffffffffffffffffffffffffffffffffff021916908373ffffffffffffffffffffffffffffffffffffffff16021790555050565b62000245620000db60201b60201c565b73ffffffffffffffffffffffffffffffffffffffff166200026b620002c660201b60201c565b73ffffffffffffffffffffffffffffffffffffffff1614620002c4576040517f08c379a0000000000000000000000000000000000000000000000000000000008152600401620002bb9062000401565b60405180910390fd5b565b60008060009054906101000a900473ffffffffffffffffffffffffffffffffffffffff16905090565b600080fd5b600073ffffffffffffffffffffffffffffffffffffffff82169050919050565b60006200032182620002f4565b9050919050565b620003338162000314565b81146200033f57600080fd5b50565b600081519050620003538162000328565b92915050565b60008060408385031215620003735762000372620002ef565b5b6000620003838582860162000342565b9250506020620003968582860162000342565b9150509250929050565b600082825260208201905092915050565b7f4f776e61626c653a2063616c6c6572206973206e6f7420746865206f776e6572600082015250565b6000620003e9602083620003a0565b9150620003f682620003b1565b602082019050919050565b600060208201905081810360008301526200041c81620003da565b9050919050565b610d4d80620004336000396000f3fe608060405234801561001057600080fd5b50600436106100cf5760003560e01c8063715018a61161008c5780638da5cb5b116100665780638da5cb5b146101b557806394555114146101d3578063947a36fb146101ef578063f2fde38b1461020d576100cf565b8063715018a614610183578063771b081e1461018d5780638456cb59146101ab576100cf565b806322a90082146100d45780633f3b3b27146100f05780633f4ba83a1461010e5780634585e33b146101185780635c975abb146101345780636e04ff0d14610152575b600080fd5b6100ee60048036038101906100e99190610819565b610229565b005b6100f861023b565b6040516101059190610855565b60405180910390f35b610116610241565b005b610132600480360381019061012d91906108d5565b610253565b005b61013c61037f565b604051610149919061093d565b60405180910390f35b61016c600480360381019061016791906108d5565b610395565b60405161017a9291906109e8565b60405180910390f35b61018b6103b4565b005b6101956103c8565b6040516101a29190610a59565b60405180910390f35b6101b36103ee565b005b6101bd610400565b6040516101ca9190610a59565b60405180910390f35b6101ed60048036038101906101e89190610aa0565b610429565b005b6101f76104ae565b6040516102049190610855565b60405180910390f35b61022760048036038101906102229190610aa0565b6104b4565b005b610231610537565b8060018190555050565b60025481565b610249610537565b6102516105b5565b565b600360009054906101000a900473ffffffffffffffffffffffffffffffffffffffff1673ffffffffffffffffffffffffffffffffffffffff163373ffffffffffffffffffffffffffffffffffffffff16146102da576040517fd3a6803400000000000000000000000000000000000000000000000000000000815260040160405180910390fd5b600154600254426102eb9190610afc565b111561037b5742600281905550600460009054906101000a900473ffffffffffffffffffffffffffffffffffffffff1673ffffffffffffffffffffffffffffffffffffffff16637f6a078a6040518163ffffffff1660e01b8152600401600060405180830381600087803b15801561036257600080fd5b505af1158015610376573d6000803e3d6000fd5b505050505b5050565b60008060149054906101000a900460ff16905090565b60006060600154600254426103aa9190610afc565b1191509250929050565b6103bc610537565b6103c66000610617565b565b600360009054906101000a900473ffffffffffffffffffffffffffffffffffffffff1681565b6103f6610537565b6103fe6106db565b565b60008060009054906101000a900473ffffffffffffffffffffffffffffffffffffffff16905090565b610431610537565b600073ffffffffffffffffffffffffffffffffffffffff168173ffffffffffffffffffffffffffffffffffffffff160361046a57600080fd5b80600360006101000a81548173ffffffffffffffffffffffffffffffffffffffff021916908373ffffffffffffffffffffffffffffffffffffffff16021790555050565b60015481565b6104bc610537565b600073ffffffffffffffffffffffffffffffffffffffff168173ffffffffffffffffffffffffffffffffffffffff160361052b576040517f08c379a000000000000000000000000000000000000000000000000000000000815260040161052290610bb3565b60405180910390fd5b61053481610617565b50565b61053f61073e565b73ffffffffffffffffffffffffffffffffffffffff1661055d610400565b73ffffffffffffffffffffffffffffffffffffffff16146105b3576040517f08c379a00000000000000000000000000000000000000000000000000000000081526004016105aa90610c1f565b60405180910390fd5b565b6105bd610746565b60008060146101000a81548160ff0219169083151502179055507f5db9ee0a495bf2e6ff9c91a7834c1ba4fdd244a5e8aa4e537bd38aeae4b073aa61060061073e565b60405161060d9190610a59565b60405180910390a1565b60008060009054906101000a900473ffffffffffffffffffffffffffffffffffffffff169050816000806101000a81548173ffffffffffffffffffffffffffffffffffffffff021916908373ffffffffffffffffffffffffffffffffffffffff1602179055508173ffffffffffffffffffffffffffffffffffffffff168173ffffffffffffffffffffffffffffffffffffffff167f8be0079c531659141344cd1fd0a4f28419497f9722a3daafe3b4186f6b6457e060405160405180910390a35050565b6106e361078f565b6001600060146101000a81548160ff0219169083151502179055507f62e78cea01bee320cd4e420270b5ea74000d11b0c9f74754ebdbfc544b05a25861072761073e565b6040516107349190610a59565b60405180910390a1565b600033905090565b61074e61037f565b61078d576040517f08c379a000000000000000000000000000000000000000000000000000000000815260040161078490610c8b565b60405180910390fd5b565b61079761037f565b156107d7576040517f08c379a00000000000000000000000000000000000000000000000000000000081526004016107ce90610cf7565b60405180910390fd5b565b600080fd5b600080fd5b6000819050919050565b6107f6816107e3565b811461080157600080fd5b50565b600081359050610813816107ed565b92915050565b60006020828403121561082f5761082e6107d9565b5b600061083d84828501610804565b91505092915050565b61084f816107e3565b82525050565b600060208201905061086a6000830184610846565b92915050565b600080fd5b600080fd5b600080fd5b60008083601f84011261089557610894610870565b5b8235905067ffffffffffffffff8111156108b2576108b1610875565b5b6020830191508360018202830111156108ce576108cd61087a565b5b9250929050565b600080602083850312156108ec576108eb6107d9565b5b600083013567ffffffffffffffff81111561090a576109096107de565b5b6109168582860161087f565b92509250509250929050565b60008115159050919050565b61093781610922565b82525050565b6000602082019050610952600083018461092e565b92915050565b600081519050919050565b600082825260208201905092915050565b60005b83811015610992578082015181840152602081019050610977565b60008484015250505050565b6000601f19601f8301169050919050565b60006109ba82610958565b6109c48185610963565b93506109d4818560208601610974565b6109dd8161099e565b840191505092915050565b60006040820190506109fd600083018561092e565b8181036020830152610a0f81846109af565b90509392505050565b600073ffffffffffffffffffffffffffffffffffffffff82169050919050565b6000610a4382610a18565b9050919050565b610a5381610a38565b82525050565b6000602082019050610a6e6000830184610a4a565b92915050565b610a7d81610a38565b8114610a8857600080fd5b50565b600081359050610a9a81610a74565b92915050565b600060208284031215610ab657610ab56107d9565b5b6000610ac484828501610a8b565b91505092915050565b7f4e487b7100000000000000000000000000000000000000000000000000000000600052601160045260246000fd5b6000610b07826107e3565b9150610b12836107e3565b9250828203905081811115610b2a57610b29610acd565b5b92915050565b600082825260208201905092915050565b7f4f776e61626c653a206e6577206f776e657220697320746865207a65726f206160008201527f6464726573730000000000000000000000000000000000000000000000000000602082015250565b6000610b9d602683610b30565b9150610ba882610b41565b604082019050919050565b60006020820190508181036000830152610bcc81610b90565b9050919050565b7f4f776e61626c653a2063616c6c6572206973206e6f7420746865206f776e6572600082015250565b6000610c09602083610b30565b9150610c1482610bd3565b602082019050919050565b60006020820190508181036000830152610c3881610bfc565b9050919050565b7f5061757361626c653a206e6f7420706175736564000000000000000000000000600082015250565b6000610c75601483610b30565b9150610c8082610c3f565b602082019050919050565b60006020820190508181036000830152610ca481610c68565b9050919050565b7f5061757361626c653a2070617573656400000000000000000000000000000000600082015250565b6000610ce1601083610b30565b9150610cec82610cab565b602082019050919050565b60006020820190508181036000830152610d1081610cd4565b905091905056fea26469706673582212202a7b65ca398ec037849fae72ba1c019605080f1c4209a1202ffac0c8e598f8c064736f6c63430008110033",
  "linkReferences": {},
  "deployedLinkReferences": {}
}