{
  "_format": "hh-sol-artifact-1",
  "contractName": "EquipmentMinter",
  "sourceName": "contracts/periphery/routers/EquipmentMinter.sol",
  "abi": [
    {
      "inputs": [
        {
          "internalType": "address",
          "name": "equipmentsNftAddress",
          "type": "address"
        },
        {
          "internalType": "address",
          "name": "charactersAddress",
          "type": "address"
        },
        {
          "internalType": "address",
          "name": "enerlinkAddress",
          "type": "address"
        },
        {
          "internalType": "address[4]",
          "name": "materials",
          "type": "address[4]"
        },
        {
          "internalType": "address[4]",
          "name": "catalysts",
          "type": "address[4]"
        }
      ],
      "stateMutability": "nonpayable",
      "type": "constructor"
    },
    {
      "anonymous": false,
      "inputs": [
        {
          "indexed": true,
          "internalType": "address",
          "name": "player_address",
          "type": "address"
        },
        {
          "components": [
            {
              "internalType": "uint256",
              "name": "request_id",
              "type": "uint256"
            },
            {
              "internalType": "uint64",
              "name": "equipment_type",
              "type": "uint64"
            },
            {
              "internalType": "uint32",
              "name": "number_of_items",
              "type": "uint32"
            },
            {
              "internalType": "uint256",
              "name": "time_requested",
              "type": "uint256"
            },
            {
              "internalType": "bool",
              "name": "free",
              "type": "bool"
            }
          ],
          "indexed": false,
          "internalType": "struct equipment_request",
          "name": "request",
          "type": "tuple"
        }
      ],
      "name": "EquipmentRequested",
      "type": "event"
    },
    {
      "anonymous": false,
      "inputs": [
        {
          "indexed": true,
          "internalType": "address",
          "name": "previousOwner",
          "type": "address"
        },
        {
          "indexed": true,
          "internalType": "address",
          "name": "newOwner",
          "type": "address"
        }
      ],
      "name": "OwnershipTransferred",
      "type": "event"
    },
    {
      "anonymous": false,
      "inputs": [
        {
          "indexed": false,
          "internalType": "address",
          "name": "account",
          "type": "address"
        }
      ],
      "name": "Paused",
      "type": "event"
    },
    {
      "anonymous": false,
      "inputs": [
        {
          "indexed": false,
          "internalType": "address",
          "name": "account",
          "type": "address"
        }
      ],
      "name": "Unpaused",
      "type": "event"
    },
    {
      "inputs": [],
      "name": "cancelRequestExperimental",
      "outputs": [],
      "stateMutability": "nonpayable",
      "type": "function"
    },
    {
      "inputs": [
        {
          "internalType": "uint256",
          "name": "",
          "type": "uint256"
        },
        {
          "internalType": "uint256",
          "name": "",
          "type": "uint256"
        }
      ],
      "name": "character_minted_free",
      "outputs": [
        {
          "internalType": "bool",
          "name": "",
          "type": "bool"
        }
      ],
      "stateMutability": "view",
      "type": "function"
    },
    {
      "inputs": [
        {
          "internalType": "uint256",
          "name": "equipment_type",
          "type": "uint256"
        }
      ],
      "name": "getEquipmentRecipe",
      "outputs": [
        {
          "components": [
            {
              "internalType": "uint256",
              "name": "main_material",
              "type": "uint256"
            },
            {
              "internalType": "uint256",
              "name": "indirect_material",
              "type": "uint256"
            },
            {
              "internalType": "uint256",
              "name": "catalyst",
              "type": "uint256"
            },
            {
              "internalType": "uint256",
              "name": "main_material_amount",
              "type": "uint256"
            },
            {
              "internalType": "uint256",
              "name": "indirect_material_amount",
              "type": "uint256"
            },
            {
              "internalType": "uint256",
              "name": "catalyst_amount",
              "type": "uint256"
            }
          ],
          "internalType": "struct item_recipe",
          "name": "recipe",
          "type": "tuple"
        }
      ],
      "stateMutability": "pure",
      "type": "function"
    },
    {
      "inputs": [],
      "name": "mintEquipments",
      "outputs": [],
      "stateMutability": "nonpayable",
      "type": "function"
    },
    {
      "inputs": [
        {
          "internalType": "address",
          "name": "user",
          "type": "address"
        },
        {
          "internalType": "uint256[]",
          "name": "randomNumberRequested",
          "type": "uint256[]"
        }
      ],
      "name": "mintEquipmentsExperimental",
      "outputs": [],
      "stateMutability": "nonpayable",
      "type": "function"
    },
    {
      "inputs": [],
      "name": "mint_fee",
      "outputs": [
        {
          "internalType": "uint256",
          "name": "",
          "type": "uint256"
        }
      ],
      "stateMutability": "view",
      "type": "function"
    },
    {
      "inputs": [],
      "name": "owner",
      "outputs": [
        {
          "internalType": "address",
          "name": "",
          "type": "address"
        }
      ],
      "stateMutability": "view",
      "type": "function"
    },
    {
      "inputs": [],
      "name": "paused",
      "outputs": [
        {
          "internalType": "bool",
          "name": "",
          "type": "bool"
        }
      ],
      "stateMutability": "view",
      "type": "function"
    },
    {
      "inputs": [],
      "name": "renounceOwnership",
      "outputs": [],
      "stateMutability": "nonpayable",
      "type": "function"
    },
    {
      "inputs": [
        {
          "internalType": "address",
          "name": "",
          "type": "address"
        }
      ],
      "name": "request",
      "outputs": [
        {
          "internalType": "uint256",
          "name": "request_id",
          "type": "uint256"
        },
        {
          "internalType": "uint64",
          "name": "equipment_type",
          "type": "uint64"
        },
        {
          "internalType": "uint32",
          "name": "number_of_items",
          "type": "uint32"
        },
        {
          "internalType": "uint256",
          "name": "time_requested",
          "type": "uint256"
        },
        {
          "internalType": "bool",
          "name": "free",
          "type": "bool"
        }
      ],
      "stateMutability": "view",
      "type": "function"
    },
    {
      "inputs": [
        {
          "internalType": "uint64",
          "name": "_equipment_type",
          "type": "uint64"
        },
        {
          "internalType": "uint256",
          "name": "item_count",
          "type": "uint256"
        }
      ],
      "name": "requestEquipment",
      "outputs": [],
      "stateMutability": "payable",
      "type": "function"
    },
    {
      "inputs": [
        {
          "internalType": "uint64",
          "name": "_equipment_type",
          "type": "uint64"
        }
      ],
      "name": "requestEquipmentExperimental",
      "outputs": [],
      "stateMutability": "payable",
      "type": "function"
    },
    {
      "inputs": [
        {
          "internalType": "uint256",
          "name": "character_id",
          "type": "uint256"
        },
        {
          "internalType": "uint64",
          "name": "_equipment_type",
          "type": "uint64"
        }
      ],
      "name": "requestEquipmentFree",
      "outputs": [],
      "stateMutability": "payable",
      "type": "function"
    },
    {
      "inputs": [
        {
          "internalType": "uint256",
          "name": "amount",
          "type": "uint256"
        }
      ],
      "name": "setMintFee",
      "outputs": [],
      "stateMutability": "nonpayable",
      "type": "function"
    },
    {
      "inputs": [
        {
          "internalType": "address",
          "name": "_vrfContract",
          "type": "address"
        }
      ],
      "name": "setRandomizationContract",
      "outputs": [],
      "stateMutability": "nonpayable",
      "type": "function"
    },
    {
      "inputs": [
        {
          "internalType": "address",
          "name": "newOwner",
          "type": "address"
        }
      ],
      "name": "transferOwnership",
      "outputs": [],
      "stateMutability": "nonpayable",
      "type": "function"
    },
    {
      "inputs": [
        {
          "internalType": "uint256",
          "name": "equipment_type",
          "type": "uint256"
        },
        {
          "internalType": "uint256",
          "name": "item_count",
          "type": "uint256"
        }
      ],
      "name": "userMaterialsEnough",
      "outputs": [
        {
          "internalType": "bool",
          "name": "enough",
          "type": "bool"
        }
      ],
      "stateMutability": "view",
      "type": "function"
    },
    {
      "inputs": [],
      "name": "withdraw",
      "outputs": [],
      "stateMutability": "nonpayable",
      "type": "function"
    }
  ],
  "bytecode": "0x60806040523480156200001157600080fd5b50604051620053b6380380620053b68339818101604052810190620000379190620004ec565b620000576200004b620001a860201b60201c565b620001b060201b60201c565b60008060146101000a81548160ff02191690831515021790555084600560006101000a81548173ffffffffffffffffffffffffffffffffffffffff021916908373ffffffffffffffffffffffffffffffffffffffff16021790555083600260006101000a81548173ffffffffffffffffffffffffffffffffffffffff021916908373ffffffffffffffffffffffffffffffffffffffff16021790555082600360006101000a81548173ffffffffffffffffffffffffffffffffffffffff021916908373ffffffffffffffffffffffffffffffffffffffff16021790555081600a9060046200014792919062000274565b5080600e9060046200015b92919062000274565b5033600660006101000a81548173ffffffffffffffffffffffffffffffffffffffff021916908373ffffffffffffffffffffffffffffffffffffffff160217905550505050505062000575565b600033905090565b60008060009054906101000a900473ffffffffffffffffffffffffffffffffffffffff169050816000806101000a81548173ffffffffffffffffffffffffffffffffffffffff021916908373ffffffffffffffffffffffffffffffffffffffff1602179055508173ffffffffffffffffffffffffffffffffffffffff168173ffffffffffffffffffffffffffffffffffffffff167f8be0079c531659141344cd1fd0a4f28419497f9722a3daafe3b4186f6b6457e060405160405180910390a35050565b8260048101928215620002e3579160200282015b82811115620002e25782518260006101000a81548173ffffffffffffffffffffffffffffffffffffffff021916908373ffffffffffffffffffffffffffffffffffffffff1602179055509160200191906001019062000288565b5b509050620002f29190620002f6565b5090565b5b8082111562000311576000816000905550600101620002f7565b5090565b6000604051905090565b600080fd5b600073ffffffffffffffffffffffffffffffffffffffff82169050919050565b6000620003518262000324565b9050919050565b620003638162000344565b81146200036f57600080fd5b50565b600081519050620003838162000358565b92915050565b600080fd5b6000601f19601f8301169050919050565b7f4e487b7100000000000000000000000000000000000000000000000000000000600052604160045260246000fd5b620003d9826200038e565b810181811067ffffffffffffffff82111715620003fb57620003fa6200039f565b5b80604052505050565b60006200041062000315565b90506200041e8282620003ce565b919050565b600067ffffffffffffffff8211156200044157620004406200039f565b5b602082029050919050565b600080fd5b600062000468620004628462000423565b62000404565b905080602084028301858111156200048557620004846200044c565b5b835b81811015620004b257806200049d888262000372565b84526020840193505060208101905062000487565b5050509392505050565b600082601f830112620004d457620004d362000389565b5b6004620004e384828562000451565b91505092915050565b600080600080600061016086880312156200050c576200050b6200031f565b5b60006200051c8882890162000372565b95505060206200052f8882890162000372565b9450506040620005428882890162000372565b93505060606200055588828901620004bc565b92505060e06200056888828901620004bc565b9150509295509295909350565b614e3180620005856000396000f3fe6080604052600436106101095760003560e01c80638da5cb5b11610095578063b25f9b3e11610064578063b25f9b3e1461032b578063da610fcf14610342578063e9ff18c61461036d578063eddd0d9c14610389578063f2fde38b146103b257610109565b80638da5cb5b1461027e578063a330e03e146102a9578063a9a876af146102e6578063ab111add1461030f57610109565b80635473e978116100dc5780635473e978146101995780635c975abb146101c2578063715018a6146101ed5780638428e99a1461020457806387acbc971461024157610109565b806308e6b2c91461010e57806320b37cfc1461012557806327c78c42146101415780633ccfd60b14610182575b600080fd5b34801561011a57600080fd5b506101236103db565b005b61013f600480360381019061013a9190613543565b610748565b005b34801561014d57600080fd5b50610168600480360381019061016391906135e1565b610bea565b604051610179959493929190613666565b60405180910390f35b34801561018e57600080fd5b50610197610c51565b005b3480156101a557600080fd5b506101c060048036038101906101bb91906135e1565b610d2a565b005b3480156101ce57600080fd5b506101d7610db7565b6040516101e491906136b9565b60405180910390f35b3480156101f957600080fd5b50610202610dcd565b005b34801561021057600080fd5b5061022b600480360381019061022691906136d4565b610de1565b604051610238919061378b565b60405180910390f35b34801561024d57600080fd5b50610268600480360381019061026391906137a6565b610df9565b60405161027591906136b9565b60405180910390f35b34801561028a57600080fd5b50610293610eca565b6040516102a091906137f5565b60405180910390f35b3480156102b557600080fd5b506102d060048036038101906102cb91906137a6565b610ef3565b6040516102dd91906136b9565b60405180910390f35b3480156102f257600080fd5b5061030d60048036038101906103089190613969565b610f22565b005b610329600480360381019061032491906139c5565b6111ec565b005b34801561033757600080fd5b50610340611872565b005b34801561034e57600080fd5b50610357611bd9565b6040516103649190613a05565b60405180910390f35b61038760048036038101906103829190613a20565b611bdf565b005b34801561039557600080fd5b506103b060048036038101906103ab91906136d4565b612034565b005b3480156103be57600080fd5b506103d960048036038101906103d491906135e1565b612055565b005b6000600760003373ffffffffffffffffffffffffffffffffffffffff1673ffffffffffffffffffffffffffffffffffffffff1681526020019081526020016000206040518060a0016040529081600082015481526020016001820160009054906101000a900467ffffffffffffffff1667ffffffffffffffff1667ffffffffffffffff1681526020016001820160089054906101000a900463ffffffff1663ffffffff1663ffffffff168152602001600282015481526020016003820160009054906101000a900460ff161515151581525050905060008160000151116104f7576040517f08c379a00000000000000000000000000000000000000000000000000000000081526004016104ee90613aaa565b60405180910390fd5b600080600160009054906101000a900473ffffffffffffffffffffffffffffffffffffffff1673ffffffffffffffffffffffffffffffffffffffff1663d8a4676f84600001516040518263ffffffff1660e01b81526004016105599190613a05565b600060405180830381865afa158015610576573d6000803e3d6000fd5b505050506040513d6000823e3d601f19601f8201168201806040525081019061059f9190613ba2565b91509150816105e3576040517f08c379a00000000000000000000000000000000000000000000000000000000081526004016105da90613c70565b60405180910390fd5b60005b836040015163ffffffff16811015610639576106263383838151811061060f5761060e613c90565b5b6020026020010151866020015187608001516120d8565b808061063190613cee565b9150506105e6565b506040518060a0016040528060008152602001600067ffffffffffffffff168152602001600063ffffffff16815260200142815260200160001515815250600760003373ffffffffffffffffffffffffffffffffffffffff1673ffffffffffffffffffffffffffffffffffffffff1681526020019081526020016000206000820151816000015560208201518160010160006101000a81548167ffffffffffffffff021916908367ffffffffffffffff16021790555060408201518160010160086101000a81548163ffffffff021916908363ffffffff1602179055506060820151816002015560808201518160030160006101000a81548160ff021916908315150217905550905050505050565b610750612269565b6000600760003373ffffffffffffffffffffffffffffffffffffffff1673ffffffffffffffffffffffffffffffffffffffff1681526020019081526020016000206040518060a0016040529081600082015481526020016001820160009054906101000a900467ffffffffffffffff1667ffffffffffffffff1667ffffffffffffffff1681526020016001820160089054906101000a900463ffffffff1663ffffffff1663ffffffff168152602001600282015481526020016003820160009054906101000a900460ff1615151515815250509050600081600001511461086c576040517f08c379a000000000000000000000000000000000000000000000000000000000815260040161086390613da8565b60405180910390fd5b60058367ffffffffffffffff16106108b9576040517f08c379a00000000000000000000000000000000000000000000000000000000081526004016108b090613e3a565b60405180910390fd5b6000821180156108c95750600482105b610908576040517f08c379a00000000000000000000000000000000000000000000000000000000081526004016108ff90613ecc565b60405180910390fd5b600854826109169190613eec565b341015610958576040517f08c379a000000000000000000000000000000000000000000000000000000000815260040161094f90613fc6565b60405180910390fd5b600061096e8467ffffffffffffffff16846122b3565b9050806109b0576040517f08c379a00000000000000000000000000000000000000000000000000000000081526004016109a790614058565b60405180910390fd5b6040518060a00160405280600160009054906101000a900473ffffffffffffffffffffffffffffffffffffffff1673ffffffffffffffffffffffffffffffffffffffff16639bca039d338760006040518463ffffffff1660e01b8152600401610a1b93929190614078565b6020604051808303816000875af1158015610a3a573d6000803e3d6000fd5b505050506040513d601f19601f82011682018060405250810190610a5e91906140af565b81526020018567ffffffffffffffff1681526020018463ffffffff16815260200142815260200160001515815250600760003373ffffffffffffffffffffffffffffffffffffffff1673ffffffffffffffffffffffffffffffffffffffff1681526020019081526020016000206000820151816000015560208201518160010160006101000a81548167ffffffffffffffff021916908367ffffffffffffffff16021790555060408201518160010160086101000a81548163ffffffff021916908363ffffffff1602179055506060820151816002015560808201518160030160006101000a81548160ff0219169083151502179055509050503373ffffffffffffffffffffffffffffffffffffffff167f58577bf17ae4d0cc9d3b31873621b2a79ce93516e49b689b734695e54df0d9fd600760003373ffffffffffffffffffffffffffffffffffffffff1673ffffffffffffffffffffffffffffffffffffffff168152602001908152602001600020604051610bdc9190614260565b60405180910390a250505050565b60076020528060005260406000206000915090508060000154908060010160009054906101000a900467ffffffffffffffff16908060010160089054906101000a900463ffffffff16908060020154908060030160009054906101000a900460ff16905085565b610c596124ed565b6000600660009054906101000a900473ffffffffffffffffffffffffffffffffffffffff1673ffffffffffffffffffffffffffffffffffffffff1647604051610ca1906142ac565b60006040518083038185875af1925050503d8060008114610cde576040519150601f19603f3d011682016040523d82523d6000602084013e610ce3565b606091505b5050905080610d27576040517f08c379a0000000000000000000000000000000000000000000000000000000008152600401610d1e9061430d565b60405180910390fd5b50565b610d326124ed565b80600460006101000a81548173ffffffffffffffffffffffffffffffffffffffff021916908373ffffffffffffffffffffffffffffffffffffffff16021790555080600160006101000a81548173ffffffffffffffffffffffffffffffffffffffff021916908373ffffffffffffffffffffffffffffffffffffffff16021790555050565b60008060149054906101000a900460ff16905090565b610dd56124ed565b610ddf600061256b565b565b610de96133cb565b610df28261262f565b9050919050565b6000600190506000610e0a8461262f565b9050828160600151610e1c9190613eec565b816060018181525050828160800151610e359190613eec565b816080018181525050828160a00151610e4e9190613eec565b8160a00181815250506000610e6682600001516126a1565b5090506000610e7883602001516126a1565b5090506000610e8a8460400151612763565b5090508360600151831015610e9e57600094505b8360800151821015610eaf57600094505b8360a00151811015610ec057600094505b5050505092915050565b60008060009054906101000a900473ffffffffffffffffffffffffffffffffffffffff16905090565b60096020528160005260406000206020528060005260406000206000915091509054906101000a900460ff1681565b600460009054906101000a900473ffffffffffffffffffffffffffffffffffffffff1673ffffffffffffffffffffffffffffffffffffffff163373ffffffffffffffffffffffffffffffffffffffff1614610fb2576040517f08c379a0000000000000000000000000000000000000000000000000000000008152600401610fa9906143c5565b60405180910390fd5b6000600760008473ffffffffffffffffffffffffffffffffffffffff1673ffffffffffffffffffffffffffffffffffffffff1681526020019081526020016000206040518060a0016040529081600082015481526020016001820160009054906101000a900467ffffffffffffffff1667ffffffffffffffff1667ffffffffffffffff1681526020016001820160089054906101000a900463ffffffff1663ffffffff1663ffffffff168152602001600282015481526020016003820160009054906101000a900460ff161515151581525050905060005b816040015163ffffffff168110156110dd576110ca848483815181106110b3576110b2613c90565b5b6020026020010151846020015185608001516120d8565b80806110d590613cee565b91505061108a565b506040518060a0016040528060008152602001600067ffffffffffffffff168152602001600063ffffffff16815260200142815260200160001515815250600760008573ffffffffffffffffffffffffffffffffffffffff1673ffffffffffffffffffffffffffffffffffffffff1681526020019081526020016000206000820151816000015560208201518160010160006101000a81548167ffffffffffffffff021916908367ffffffffffffffff16021790555060408201518160010160086101000a81548163ffffffff021916908363ffffffff1602179055506060820151816002015560808201518160030160006101000a81548160ff021916908315150217905550905050505050565b6111f4612269565b6000600760003373ffffffffffffffffffffffffffffffffffffffff1673ffffffffffffffffffffffffffffffffffffffff1681526020019081526020016000206040518060a0016040529081600082015481526020016001820160009054906101000a900467ffffffffffffffff1667ffffffffffffffff1667ffffffffffffffff1681526020016001820160089054906101000a900463ffffffff1663ffffffff1663ffffffff168152602001600282015481526020016003820160009054906101000a900460ff16151515158152505090506000816000015114611310576040517f08c379a000000000000000000000000000000000000000000000000000000000815260040161130790613da8565b60405180910390fd5b60058267ffffffffffffffff161061135d576040517f08c379a000000000000000000000000000000000000000000000000000000000815260040161135490614431565b60405180910390fd5b600854600161136c9190613eec565b3410156113ae576040517f08c379a00000000000000000000000000000000000000000000000000000000081526004016113a59061449d565b60405180910390fd5b6009600084815260200190815260200160002060008367ffffffffffffffff16815260200190815260200160002060009054906101000a900460ff161561142a576040517f08c379a000000000000000000000000000000000000000000000000000000000815260040161142190614509565b60405180910390fd5b60c8600260009054906101000a900473ffffffffffffffffffffffffffffffffffffffff1673ffffffffffffffffffffffffffffffffffffffff1663468f25b0856040518263ffffffff1660e01b81526004016114879190613a05565b61010060405180830381865afa1580156114a5573d6000803e3d6000fd5b505050506040513d601f19601f820116820180604052508101906114c99190614624565b60e0015163ffffffff1611611513576040517f08c379a000000000000000000000000000000000000000000000000000000000815260040161150a9061469e565b60405180910390fd5b600260009054906101000a900473ffffffffffffffffffffffffffffffffffffffff1673ffffffffffffffffffffffffffffffffffffffff1663e327a6af33856040518363ffffffff1660e01b81526004016115709291906146be565b602060405180830381865afa15801561158d573d6000803e3d6000fd5b505050506040513d601f19601f820116820180604052508101906115b191906146e7565b6115f0576040517f08c379a00000000000000000000000000000000000000000000000000000000081526004016115e790614760565b60405180910390fd5b60016009600085815260200190815260200160002060008467ffffffffffffffff16815260200190815260200160002060006101000a81548160ff0219169083151502179055506040518060a00160405280600160009054906101000a900473ffffffffffffffffffffffffffffffffffffffff1673ffffffffffffffffffffffffffffffffffffffff16639bca039d33600160006040518463ffffffff1660e01b81526004016116a3939291906147c5565b6020604051808303816000875af11580156116c2573d6000803e3d6000fd5b505050506040513d601f19601f820116820180604052508101906116e691906140af565b81526020018367ffffffffffffffff168152602001600163ffffffff16815260200142815260200160011515815250600760003373ffffffffffffffffffffffffffffffffffffffff1673ffffffffffffffffffffffffffffffffffffffff1681526020019081526020016000206000820151816000015560208201518160010160006101000a81548167ffffffffffffffff021916908367ffffffffffffffff16021790555060408201518160010160086101000a81548163ffffffff021916908363ffffffff1602179055506060820151816002015560808201518160030160006101000a81548160ff0219169083151502179055509050503373ffffffffffffffffffffffffffffffffffffffff167f58577bf17ae4d0cc9d3b31873621b2a79ce93516e49b689b734695e54df0d9fd600760003373ffffffffffffffffffffffffffffffffffffffff1673ffffffffffffffffffffffffffffffffffffffff1681526020019081526020016000206040516118659190614260565b60405180910390a2505050565b6000600760003373ffffffffffffffffffffffffffffffffffffffff1673ffffffffffffffffffffffffffffffffffffffff1681526020019081526020016000206040518060a0016040529081600082015481526020016001820160009054906101000a900467ffffffffffffffff1667ffffffffffffffff1667ffffffffffffffff1681526020016001820160089054906101000a900463ffffffff1663ffffffff1663ffffffff168152602001600282015481526020016003820160009054906101000a900460ff16151515158152505090506000600160009054906101000a900473ffffffffffffffffffffffffffffffffffffffff1673ffffffffffffffffffffffffffffffffffffffff1663d8a4676f83600001516040518263ffffffff1660e01b81526004016119a89190613a05565b600060405180830381865afa1580156119c5573d6000803e3d6000fd5b505050506040513d6000823e3d601f19601f820116820180604052508101906119ee9190613ba2565b5090506000826000015111611a38576040517f08c379a0000000000000000000000000000000000000000000000000000000008152600401611a2f9061486e565b60405180910390fd5b610e10826060015142611a4b919061488e565b11611a8b576040517f08c379a0000000000000000000000000000000000000000000000000000000008152600401611a829061495a565b60405180910390fd5b8015611acc576040517f08c379a0000000000000000000000000000000000000000000000000000000008152600401611ac3906149ec565b60405180910390fd5b6040518060a0016040528060008152602001600067ffffffffffffffff168152602001600063ffffffff16815260200142815260200160001515815250600760003373ffffffffffffffffffffffffffffffffffffffff1673ffffffffffffffffffffffffffffffffffffffff1681526020019081526020016000206000820151816000015560208201518160010160006101000a81548167ffffffffffffffff021916908367ffffffffffffffff16021790555060408201518160010160086101000a81548163ffffffff021916908363ffffffff1602179055506060820151816002015560808201518160030160006101000a81548160ff0219169083151502179055509050505050565b60085481565b611be7612269565b6000600760003373ffffffffffffffffffffffffffffffffffffffff1673ffffffffffffffffffffffffffffffffffffffff1681526020019081526020016000206040518060a0016040529081600082015481526020016001820160009054906101000a900467ffffffffffffffff1667ffffffffffffffff1667ffffffffffffffff1681526020016001820160089054906101000a900463ffffffff1663ffffffff1663ffffffff168152602001600282015481526020016003820160009054906101000a900460ff16151515158152505090506000816000015114611d03576040517f08c379a0000000000000000000000000000000000000000000000000000000008152600401611cfa90613da8565b60405180910390fd5b60058267ffffffffffffffff1610611d50576040517f08c379a0000000000000000000000000000000000000000000000000000000008152600401611d4790613e3a565b60405180910390fd5b6008546001611d5f9190613eec565b341015611da1576040517f08c379a0000000000000000000000000000000000000000000000000000000008152600401611d9890613fc6565b60405180910390fd5b6000611db88367ffffffffffffffff1660016122b3565b905080611dfa576040517f08c379a0000000000000000000000000000000000000000000000000000000008152600401611df190614058565b60405180910390fd5b6040518060a00160405280600160009054906101000a900473ffffffffffffffffffffffffffffffffffffffff1673ffffffffffffffffffffffffffffffffffffffff16639bca039d336001806040518463ffffffff1660e01b8152600401611e65939291906147c5565b6020604051808303816000875af1158015611e84573d6000803e3d6000fd5b505050506040513d601f19601f82011682018060405250810190611ea891906140af565b81526020018467ffffffffffffffff168152602001600163ffffffff16815260200142815260200160001515815250600760003373ffffffffffffffffffffffffffffffffffffffff1673ffffffffffffffffffffffffffffffffffffffff1681526020019081526020016000206000820151816000015560208201518160010160006101000a81548167ffffffffffffffff021916908367ffffffffffffffff16021790555060408201518160010160086101000a81548163ffffffff021916908363ffffffff1602179055506060820151816002015560808201518160030160006101000a81548160ff0219169083151502179055509050503373ffffffffffffffffffffffffffffffffffffffff167f58577bf17ae4d0cc9d3b31873621b2a79ce93516e49b689b734695e54df0d9fd600760003373ffffffffffffffffffffffffffffffffffffffff1673ffffffffffffffffffffffffffffffffffffffff1681526020019081526020016000206040516120279190614260565b60405180910390a2505050565b61203c6124ed565b633b9aca008161204c9190613eec565b60088190555050565b61205d6124ed565b600073ffffffffffffffffffffffffffffffffffffffff168173ffffffffffffffffffffffffffffffffffffffff16036120cc576040517f08c379a00000000000000000000000000000000000000000000000000000000081526004016120c390614a7e565b60405180910390fd5b6120d58161256b565b50565b60048267ffffffffffffffff16036121ab57600060016003856120fb9190614acd565b6121059190614afe565b9050600360009054906101000a900473ffffffffffffffffffffffffffffffffffffffff1673ffffffffffffffffffffffffffffffffffffffff166340c10f1986670de0b6b3a76400008461215a9190613eec565b6040518363ffffffff1660e01b81526004016121779291906146be565b600060405180830381600087803b15801561219157600080fd5b505af11580156121a5573d6000803e3d6000fd5b50505050505b60048267ffffffffffffffff1614612263576000806121cb858585612825565b91509150600560009054906101000a900473ffffffffffffffffffffffffffffffffffffffff1673ffffffffffffffffffffffffffffffffffffffff1663506e90aa8784846040518463ffffffff1660e01b815260040161222e93929190614c29565b600060405180830381600087803b15801561224857600080fd5b505af115801561225c573d6000803e3d6000fd5b5050505050505b50505050565b612271610db7565b156122b1576040517f08c379a00000000000000000000000000000000000000000000000000000000081526004016122a890614cad565b60405180910390fd5b565b60006001905060006122c48461262f565b90508281606001516122d69190613eec565b8160600181815250508281608001516122ef9190613eec565b816080018181525050828160a001516123089190613eec565b8160a001818152505060008061232183600001516126a1565b9150915060008061233585602001516126a1565b915091506000806123498760400151612763565b91509150866060015186101561235e57600097505b866080015184101561236f57600097505b8660a0015182101561238057600097505b60011515881515036124e0578473ffffffffffffffffffffffffffffffffffffffff166379cc67903389606001516040518363ffffffff1660e01b81526004016123cb9291906146be565b600060405180830381600087803b1580156123e557600080fd5b505af11580156123f9573d6000803e3d6000fd5b505050508273ffffffffffffffffffffffffffffffffffffffff166379cc67903389608001516040518363ffffffff1660e01b815260040161243c9291906146be565b600060405180830381600087803b15801561245657600080fd5b505af115801561246a573d6000803e3d6000fd5b505050508073ffffffffffffffffffffffffffffffffffffffff166379cc6790338960a001516040518363ffffffff1660e01b81526004016124ad9291906146be565b600060405180830381600087803b1580156124c757600080fd5b505af11580156124db573d6000803e3d6000fd5b505050505b5050505050505092915050565b6124f5612a4b565b73ffffffffffffffffffffffffffffffffffffffff16612513610eca565b73ffffffffffffffffffffffffffffffffffffffff1614612569576040517f08c379a000000000000000000000000000000000000000000000000000000000815260040161256090614d19565b60405180910390fd5b565b60008060009054906101000a900473ffffffffffffffffffffffffffffffffffffffff169050816000806101000a81548173ffffffffffffffffffffffffffffffffffffffff021916908373ffffffffffffffffffffffffffffffffffffffff1602179055508173ffffffffffffffffffffffffffffffffffffffff168173ffffffffffffffffffffffffffffffffffffffff167f8be0079c531659141344cd1fd0a4f28419497f9722a3daafe3b4186f6b6457e060405160405180910390a35050565b6126376133cb565b60008061264384612a53565b9150915060008061265386612ad3565b9150915060008061266388612b53565b915091506040518060c00160405280878152602001858152602001838152602001868152602001848152602001828152509650505050505050919050565b6000806000600a84600481106126ba576126b9613c90565b5b0160009054906101000a900473ffffffffffffffffffffffffffffffffffffffff1690508091508173ffffffffffffffffffffffffffffffffffffffff166370a08231336040518263ffffffff1660e01b815260040161271a91906137f5565b602060405180830381865afa158015612737573d6000803e3d6000fd5b505050506040513d601f19601f8201168201806040525081019061275b91906140af565b925050915091565b6000806000600e846004811061277c5761277b613c90565b5b0160009054906101000a900473ffffffffffffffffffffffffffffffffffffffff1690508091508173ffffffffffffffffffffffffffffffffffffffff166370a08231336040518263ffffffff1660e01b81526004016127dc91906137f5565b602060405180830381865afa1580156127f9573d6000803e3d6000fd5b505050506040513d601f19601f8201168201806040525081019061281d91906140af565b925050915091565b61282d613401565b612835613451565b600061284086612bd3565b905060008061286983600f8151811061285c5761285b613c90565b5b6020026020010151612ca7565b91509150851561287857600091505b600060405180610100016040528085600e8151811061289a57612899613c90565b5b602002602001015161ffff1661ffff16815260200185600d815181106128c3576128c2613c90565b5b602002602001015161ffff1661ffff16815260200185600c815181106128ec576128eb613c90565b5b602002602001015161ffff1661ffff16815260200185600b8151811061291557612914613c90565b5b602002602001015161ffff1661ffff16815260200185600a8151811061293e5761293d613c90565b5b602002602001015161ffff1661ffff1681526020018560098151811061296757612966613c90565b5b602002602001015161ffff1661ffff168152602001856008815181106129905761298f613c90565b5b602002602001015161ffff1661ffff168152602001856007815181106129b9576129b8613c90565b5b602002602001015161ffff1661ffff1681525090506000806129e683858c67ffffffffffffffff16612d5d565b80935081945082995050505060405180608001604052808b67ffffffffffffffff1681526020018667ffffffffffffffff1681526020018367ffffffffffffffff1681526020018267ffffffffffffffff168152509750505050505050935093915050565b600033905090565b60008060008303612a6e576000915067a688906bd8b0000090505b60018303612a865760019150677ce66c50e284000090505b60028303612a9e57600191506729a2241af62c000090505b60038303612ab6576002915067a688906bd8b0000090505b60048303612ace5760039150670de0b6b3a764000090505b915091565b60008060008303612aee5760019150673782dace9d90000090505b60018303612b0657600091506729a2241af62c000090505b60028303612b1e5760009150670de0b6b3a764000090505b60038303612b365760009150673782dace9d90000090505b60048303612b4e5760029150670de0b6b3a764000090505b915091565b60008060008303612b6e5760009150670de0b6b3a764000090505b60018303612b865760019150670de0b6b3a764000090505b60028303612b9e5760019150670de0b6b3a764000090505b60038303612bb65760029150670de0b6b3a764000090505b60048303612bce57600391506703782dace9d9000090505b915091565b60606000601067ffffffffffffffff811115612bf257612bf1613826565b5b604051908082528060200260200182016040528015612c205781602001602082028036833780820191505090505b509050600061ffff9050600080600f90505b60008112612c9b5760008387169050601084901b93508281901c905080858381518110612c6257612c61613c90565b5b602002602001019061ffff16908161ffff1681525050601083612c859190614afe565b9250508080612c9390614d43565b915050612c32565b50829350505050919050565b60008060006103e884612cba9190614d99565b61ffff1690506103e2811115612cd35760049250606491505b6103d881118015612ce657506103e28111155b15612cf45760039250603c91505b6103b081118015612d0757506103d88111155b15612d155760029250602891505b6102e881118015612d2857506103b08111155b15612d365760019250601991505b60008110158015612d4957506102ec8111155b15612d575760009250600f91505b50915091565b612d65613451565b600080600080612d73613496565b612d7b613496565b60005b6008811015612e0a5760006103e88c8360088110612d9f57612d9e613c90565b5b6020020151612dae9190614d99565b61ffff16905080848360088110612dc857612dc7613c90565b5b602002018181525050838260088110612de457612de3613c90565b5b602002015186612df49190614afe565b9550508080612e0290613cee565b915050612d7e565b5060005b6008811015612e7457848a848360088110612e2c57612e2b613c90565b5b6020020151612e3b9190613eec565b612e459190614dca565b828260088110612e5857612e57613c90565b5b6020020181815250508080612e6c90613cee565b915050612e0e565b50600080612e828a8c61300b565b9150915080838360088110612e9a57612e99613c90565b5b60200201818151612eab9190614afe565b9150818152505060405180610100016040528084600060088110612ed257612ed1613c90565b5b602002015163ffffffff16815260200184600160088110612ef657612ef5613c90565b5b602002015163ffffffff16815260200184600260088110612f1a57612f19613c90565b5b602002015163ffffffff16815260200184600360088110612f3e57612f3d613c90565b5b602002015163ffffffff16815260200184600460088110612f6257612f61613c90565b5b602002015163ffffffff16815260200184600560088110612f8657612f85613c90565b5b602002015163ffffffff16815260200184600660088110612faa57612fa9613c90565b5b602002015163ffffffff16815260200184600760088110612fce57612fcd613c90565b5b602002015163ffffffff168152509850612fe78461310b565b8096508199505050612ffa85878d6132f7565b965050505050505093509350939050565b60008060008403613043576000915060966032846130299190614afe565b61012c6130369190613eec565b6130409190614dca565b90505b600184036130835760019150600260966032856130609190614afe565b60e161306c9190613eec565b6130769190614dca565b6130809190614dca565b90505b600284036130c35760019150600260966032856130a09190614afe565b604b6130ac9190613eec565b6130b69190614dca565b6130c09190614dca565b90505b600384036131045760029150600260966032856130e09190614afe565b61012c6130ed9190613eec565b6130f79190614dca565b6131019190614dca565b90505b9250929050565b6000806000604051806101000160405280600081526020016001815260200160028152602001600381526020016004815260200160058152602001600681526020016007815250905060006008905060005b818110156132b95760006001826131749190614afe565b90505b828110156132a55786816008811061319257613191613c90565b5b60200201518783600881106131aa576131a9613c90565b5b602002015110156132925760008783600881106131ca576131c9613c90565b5b6020020151905060008584600881106131e6576131e5613c90565b5b60200201519050888360088110613200576131ff613c90565b5b602002015189856008811061321857613217613c90565b5b60200201818152505085836008811061323457613233613c90565b5b602002015186856008811061324c5761324b613c90565b5b6020020181815250508189846008811061326957613268613c90565b5b6020020181815250508086846008811061328657613285613c90565b5b60200201818152505050505b808061329d90613cee565b915050613177565b5080806132b190613cee565b91505061315d565b50816000600881106132ce576132cd613c90565b5b60200201519350846000600881106132e9576132e8613c90565b5b602002015192505050915091565b6000808383866133079190613eec565b6133119190614dca565b90506005811180156133245750600a8111155b1561332e57600191505b600a8111801561333f5750600f8111155b1561334957600291505b600f8111801561335a575060148111155b1561336457600391505b6014811180156133755750601e8111155b1561337f57600491505b601e811180156133905750602d8111155b1561339a57600591505b602d811180156133ab575060418111155b156133b557600691505b60418111156133c357600791505b509392505050565b6040518060c001604052806000815260200160008152602001600081526020016000815260200160008152602001600081525090565b6040518060800160405280600067ffffffffffffffff168152602001600067ffffffffffffffff168152602001600067ffffffffffffffff168152602001600067ffffffffffffffff1681525090565b60405180610100016040528060008152602001600081526020016000815260200160008152602001600081526020016000815260200160008152602001600081525090565b604051806101000160405280600890602082028036833780820191505090505090565b6000604051905090565b600080fd5b600080fd5b600067ffffffffffffffff82169050919050565b6134ea816134cd565b81146134f557600080fd5b50565b600081359050613507816134e1565b92915050565b6000819050919050565b6135208161350d565b811461352b57600080fd5b50565b60008135905061353d81613517565b92915050565b6000806040838503121561355a576135596134c3565b5b6000613568858286016134f8565b92505060206135798582860161352e565b9150509250929050565b600073ffffffffffffffffffffffffffffffffffffffff82169050919050565b60006135ae82613583565b9050919050565b6135be816135a3565b81146135c957600080fd5b50565b6000813590506135db816135b5565b92915050565b6000602082840312156135f7576135f66134c3565b5b6000613605848285016135cc565b91505092915050565b6136178161350d565b82525050565b613626816134cd565b82525050565b600063ffffffff82169050919050565b6136458161362c565b82525050565b60008115159050919050565b6136608161364b565b82525050565b600060a08201905061367b600083018861360e565b613688602083018761361d565b613695604083018661363c565b6136a2606083018561360e565b6136af6080830184613657565b9695505050505050565b60006020820190506136ce6000830184613657565b92915050565b6000602082840312156136ea576136e96134c3565b5b60006136f88482850161352e565b91505092915050565b61370a8161350d565b82525050565b60c0820160008201516137266000850182613701565b5060208201516137396020850182613701565b50604082015161374c6040850182613701565b50606082015161375f6060850182613701565b5060808201516137726080850182613701565b5060a082015161378560a0850182613701565b50505050565b600060c0820190506137a06000830184613710565b92915050565b600080604083850312156137bd576137bc6134c3565b5b60006137cb8582860161352e565b92505060206137dc8582860161352e565b9150509250929050565b6137ef816135a3565b82525050565b600060208201905061380a60008301846137e6565b92915050565b600080fd5b6000601f19601f8301169050919050565b7f4e487b7100000000000000000000000000000000000000000000000000000000600052604160045260246000fd5b61385e82613815565b810181811067ffffffffffffffff8211171561387d5761387c613826565b5b80604052505050565b60006138906134b9565b905061389c8282613855565b919050565b600067ffffffffffffffff8211156138bc576138bb613826565b5b602082029050602081019050919050565b600080fd5b60006138e56138e0846138a1565b613886565b90508083825260208201905060208402830185811115613908576139076138cd565b5b835b81811015613931578061391d888261352e565b84526020840193505060208101905061390a565b5050509392505050565b600082601f8301126139505761394f613810565b5b81356139608482602086016138d2565b91505092915050565b600080604083850312156139805761397f6134c3565b5b600061398e858286016135cc565b925050602083013567ffffffffffffffff8111156139af576139ae6134c8565b5b6139bb8582860161393b565b9150509250929050565b600080604083850312156139dc576139db6134c3565b5b60006139ea8582860161352e565b92505060206139fb858286016134f8565b9150509250929050565b6000602082019050613a1a600083018461360e565b92915050565b600060208284031215613a3657613a356134c3565b5b6000613a44848285016134f8565b91505092915050565b600082825260208201905092915050565b7f654d4e54523a204e6f207265717565737420746f206d696e742e000000000000600082015250565b6000613a94601a83613a4d565b9150613a9f82613a5e565b602082019050919050565b60006020820190508181036000830152613ac381613a87565b9050919050565b613ad38161364b565b8114613ade57600080fd5b50565b600081519050613af081613aca565b92915050565b600081519050613b0581613517565b92915050565b6000613b1e613b19846138a1565b613886565b90508083825260208201905060208402830185811115613b4157613b406138cd565b5b835b81811015613b6a5780613b568882613af6565b845260208401935050602081019050613b43565b5050509392505050565b600082601f830112613b8957613b88613810565b5b8151613b99848260208601613b0b565b91505092915050565b60008060408385031215613bb957613bb86134c3565b5b6000613bc785828601613ae1565b925050602083015167ffffffffffffffff811115613be857613be76134c8565b5b613bf485828601613b74565b9150509250929050565b7f654d4e54523a2052657175657374206973206e6f74207965742066756c66696c60008201527f6c6564206f7220696e76616c696420726571756573742069642e000000000000602082015250565b6000613c5a603a83613a4d565b9150613c6582613bfe565b604082019050919050565b60006020820190508181036000830152613c8981613c4d565b9050919050565b7f4e487b7100000000000000000000000000000000000000000000000000000000600052603260045260246000fd5b7f4e487b7100000000000000000000000000000000000000000000000000000000600052601160045260246000fd5b6000613cf98261350d565b91507fffffffffffffffffffffffffffffffffffffffffffffffffffffffffffffffff8203613d2b57613d2a613cbf565b5b600182019050919050565b7f654d4e54523a205468657265206973206120726571756573742070656e64696e60008201527f67206d696e742e00000000000000000000000000000000000000000000000000602082015250565b6000613d92602783613a4d565b9150613d9d82613d36565b604082019050919050565b60006020820190508181036000830152613dc181613d85565b9050919050565b7f654d4e54523a20496e636f7272656374206e756d62657220666f7220616e206560008201527f717569706d656e7420747970652e000000000000000000000000000000000000602082015250565b6000613e24602e83613a4d565b9150613e2f82613dc8565b604082019050919050565b60006020820190508181036000830152613e5381613e17565b9050919050565b7f654d4e54523a2043616e206f6e6c79207265717565737420746f206d696e742060008201527f3120746f2033206974656d7320617420612074696d652e000000000000000000602082015250565b6000613eb6603783613a4d565b9150613ec182613e5a565b604082019050919050565b60006020820190508181036000830152613ee581613ea9565b9050919050565b6000613ef78261350d565b9150613f028361350d565b9250828202613f108161350d565b91508282048414831517613f2757613f26613cbf565b5b5092915050565b7f654d4e54523a20496e636f727265637420616d6f756e7420666f72206571756960008201527f706d656e74206d696e74696e672e2053656e642065786163746c7920302e303160208201527f204d4154494320706572206974656d207265717565737465642e000000000000604082015250565b6000613fb0605a83613a4d565b9150613fbb82613f2e565b606082019050919050565b60006020820190508181036000830152613fdf81613fa3565b9050919050565b7f654d4e54523a204e6f7420656e6f756768206d6174657269616c7320666f722060008201527f74686973206372616674696e67207472616e73616374696f6e2e000000000000602082015250565b6000614042603a83613a4d565b915061404d82613fe6565b604082019050919050565b6000602082019050818103600083015261407181614035565b9050919050565b600060608201905061408d60008301866137e6565b61409a602083018561363c565b6140a76040830184613657565b949350505050565b6000602082840312156140c5576140c46134c3565b5b60006140d384828501613af6565b91505092915050565b60008160001c9050919050565b6000819050919050565b6000614106614101836140dc565b6140e9565b9050919050565b600067ffffffffffffffff82169050919050565b600061413461412f836140dc565b61410d565b9050919050565b614144816134cd565b82525050565b60008160401c9050919050565b600063ffffffff82169050919050565b600061417a6141758361414a565b614157565b9050919050565b61418a8161362c565b82525050565b600060ff82169050919050565b60006141b06141ab836140dc565b614190565b9050919050565b6141c08161364b565b82525050565b60a0820160008083015490506141db816140f3565b6141e86000860182613701565b50600183015490506141f981614121565b614206602086018261413b565b5061421081614167565b61421d6040860182614181565b506002830154905061422e816140f3565b61423b6060860182613701565b506003830154905061424c8161419d565b61425960808601826141b7565b5050505050565b600060a08201905061427560008301846141c6565b92915050565b600081905092915050565b50565b600061429660008361427b565b91506142a182614286565b600082019050919050565b60006142b782614289565b9150819050919050565b7f4661696c656420746f207769746864726177206d61746963732e000000000000600082015250565b60006142f7601a83613a4d565b9150614302826142c1565b602082019050919050565b60006020820190508181036000830152614326816142ea565b9050919050565b7f654d4e54523a2043616e206f6e6c792062652063616c6c65642062792074686560008201527f2056524620436f6e747261637420666f722065717569706d656e74206372616660208201527f74696e672e000000000000000000000000000000000000000000000000000000604082015250565b60006143af604583613a4d565b91506143ba8261432d565b606082019050919050565b600060208201905081810360008301526143de816143a2565b9050919050565b7f654d4e54523a20696e76616c6964206571707420747970652e00000000000000600082015250565b600061441b601983613a4d565b9150614426826143e5565b602082019050919050565b6000602082019050818103600083015261444a8161440e565b9050919050565b7f654d4e54523a2073656e6420302e3031206d6174696300000000000000000000600082015250565b6000614487601683613a4d565b915061449282614451565b602082019050919050565b600060208201905081810360008301526144b68161447a565b9050919050565b7f654d4e54523a2063686172616374657220616c7265616479206d696e7465642e600082015250565b60006144f3602083613a4d565b91506144fe826144bd565b602082019050919050565b60006020820190508181036000830152614522816144e6565b9050919050565b600080fd5b6145378161362c565b811461454257600080fd5b50565b6000815190506145548161452e565b92915050565b6000610100828403121561457157614570614529565b5b61457c610100613886565b9050600061458c84828501614545565b60008301525060206145a084828501614545565b60208301525060406145b484828501614545565b60408301525060606145c884828501614545565b60608301525060806145dc84828501614545565b60808301525060a06145f084828501614545565b60a08301525060c061460484828501614545565b60c08301525060e061461884828501614545565b60e08301525092915050565b6000610100828403121561463b5761463a6134c3565b5b60006146498482850161455a565b91505092915050565b7f654d4e54523a20696e7375662063686172206578702e00000000000000000000600082015250565b6000614688601683613a4d565b915061469382614652565b602082019050919050565b600060208201905081810360008301526146b78161467b565b9050919050565b60006040820190506146d360008301856137e6565b6146e0602083018461360e565b9392505050565b6000602082840312156146fd576146fc6134c3565b5b600061470b84828501613ae1565b91505092915050565b7f654d4e54523a20636861726163746572206e6f74206f776e65642e0000000000600082015250565b600061474a601b83613a4d565b915061475582614714565b602082019050919050565b600060208201905081810360008301526147798161473d565b9050919050565b6000819050919050565b6000819050919050565b60006147af6147aa6147a584614780565b61478a565b61362c565b9050919050565b6147bf81614794565b82525050565b60006060820190506147da60008301866137e6565b6147e760208301856147b6565b6147f46040830184613657565b949350505050565b7f654d4e54523a2043616e6e6f742063616e63656c206e6f6e2d6578697374696e60008201527f672072657175657374732e000000000000000000000000000000000000000000602082015250565b6000614858602b83613a4d565b9150614863826147fc565b604082019050919050565b600060208201905081810360008301526148878161484b565b9050919050565b60006148998261350d565b91506148a48361350d565b92508282039050818111156148bc576148bb613cbf565b5b92915050565b7f654d4e54523a2043616e6e6f742063616e63656c20726571756573747320746860008201527f617420686176656e74206c6170736564203120686f75722066726f6d2074696d60208201527f65207265717565737465642e0000000000000000000000000000000000000000604082015250565b6000614944604c83613a4d565b915061494f826148c2565b606082019050919050565b6000602082019050818103600083015261497381614937565b9050919050565b7f654d4e54523a2043616e6e6f742063616e63656c20726571756573747320746860008201527f6174206861766520616c7265616479206265656e2066756c66696c6c65642e00602082015250565b60006149d6603f83613a4d565b91506149e18261497a565b604082019050919050565b60006020820190508181036000830152614a05816149c9565b9050919050565b7f4f776e61626c653a206e6577206f776e657220697320746865207a65726f206160008201527f6464726573730000000000000000000000000000000000000000000000000000602082015250565b6000614a68602683613a4d565b9150614a7382614a0c565b604082019050919050565b60006020820190508181036000830152614a9781614a5b565b9050919050565b7f4e487b7100000000000000000000000000000000000000000000000000000000600052601260045260246000fd5b6000614ad88261350d565b9150614ae38361350d565b925082614af357614af2614a9e565b5b828206905092915050565b6000614b098261350d565b9150614b148361350d565b9250828201905080821115614b2c57614b2b613cbf565b5b92915050565b608082016000820151614b48600085018261413b565b506020820151614b5b602085018261413b565b506040820151614b6e604085018261413b565b506060820151614b81606085018261413b565b50505050565b61010082016000820151614b9e6000850182613701565b506020820151614bb16020850182613701565b506040820151614bc46040850182613701565b506060820151614bd76060850182613701565b506080820151614bea6080850182613701565b5060a0820151614bfd60a0850182613701565b5060c0820151614c1060c0850182613701565b5060e0820151614c2360e0850182613701565b50505050565b60006101a082019050614c3f60008301866137e6565b614c4c6020830185614b32565b614c5960a0830184614b87565b949350505050565b7f5061757361626c653a2070617573656400000000000000000000000000000000600082015250565b6000614c97601083613a4d565b9150614ca282614c61565b602082019050919050565b60006020820190508181036000830152614cc681614c8a565b9050919050565b7f4f776e61626c653a2063616c6c6572206973206e6f7420746865206f776e6572600082015250565b6000614d03602083613a4d565b9150614d0e82614ccd565b602082019050919050565b60006020820190508181036000830152614d3281614cf6565b9050919050565b6000819050919050565b6000614d4e82614d39565b91507f80000000000000000000000000000000000000000000000000000000000000008203614d8057614d7f613cbf565b5b600182039050919050565b600061ffff82169050919050565b6000614da482614d8b565b9150614daf83614d8b565b925082614dbf57614dbe614a9e565b5b828206905092915050565b6000614dd58261350d565b9150614de08361350d565b925082614df057614def614a9e565b5b82820490509291505056fea2646970667358221220b99cb505cd50b4e8e07a85397e480d13de4cd5d038a9ed3fc08d20a3f9d4bf7664736f6c63430008110033",
  "linkReferences": {},
  "deployedLinkReferences": {}
}