{
  "_format": "hh-sol-artifact-1",
  "contractName": "EquipmentMinter",
  "sourceName": "contracts/periphery/routers/EquipmentMinter.sol",
  "abi": [
    {
      "inputs": [
        {
          "internalType": "address",
          "name": "equipmentsNftAddress",
          "type": "address"
        },
        {
          "internalType": "address",
          "name": "charactersAddress",
          "type": "address"
        },
        {
          "internalType": "address",
          "name": "enerlinkAddress",
          "type": "address"
        },
        {
          "internalType": "address[4]",
          "name": "materials",
          "type": "address[4]"
        },
        {
          "internalType": "address[4]",
          "name": "catalysts",
          "type": "address[4]"
        }
      ],
      "stateMutability": "nonpayable",
      "type": "constructor"
    },
    {
      "anonymous": false,
      "inputs": [
        {
          "indexed": true,
          "internalType": "address",
          "name": "player_address",
          "type": "address"
        },
        {
          "components": [
            {
              "internalType": "uint256",
              "name": "request_id",
              "type": "uint256"
            },
            {
              "internalType": "uint64",
              "name": "equipment_type",
              "type": "uint64"
            },
            {
              "internalType": "uint32",
              "name": "number_of_items",
              "type": "uint32"
            },
            {
              "internalType": "uint256",
              "name": "time_requested",
              "type": "uint256"
            },
            {
              "internalType": "bool",
              "name": "free",
              "type": "bool"
            }
          ],
          "indexed": false,
          "internalType": "struct equipment_request",
          "name": "request",
          "type": "tuple"
        }
      ],
      "name": "EquipmentRequested",
      "type": "event"
    },
    {
      "anonymous": false,
      "inputs": [
        {
          "indexed": true,
          "internalType": "address",
          "name": "previousOwner",
          "type": "address"
        },
        {
          "indexed": true,
          "internalType": "address",
          "name": "newOwner",
          "type": "address"
        }
      ],
      "name": "OwnershipTransferred",
      "type": "event"
    },
    {
      "anonymous": false,
      "inputs": [
        {
          "indexed": false,
          "internalType": "address",
          "name": "account",
          "type": "address"
        }
      ],
      "name": "Paused",
      "type": "event"
    },
    {
      "anonymous": false,
      "inputs": [
        {
          "indexed": false,
          "internalType": "address",
          "name": "account",
          "type": "address"
        }
      ],
      "name": "Unpaused",
      "type": "event"
    },
    {
      "inputs": [],
      "name": "cancelRequestExperimental",
      "outputs": [],
      "stateMutability": "nonpayable",
      "type": "function"
    },
    {
      "inputs": [
        {
          "internalType": "uint256",
          "name": "",
          "type": "uint256"
        }
      ],
      "name": "character_minted_free",
      "outputs": [
        {
          "internalType": "bool",
          "name": "",
          "type": "bool"
        }
      ],
      "stateMutability": "view",
      "type": "function"
    },
    {
      "inputs": [
        {
          "internalType": "uint256",
          "name": "equipment_type",
          "type": "uint256"
        }
      ],
      "name": "getEquipmentRecipe",
      "outputs": [
        {
          "components": [
            {
              "internalType": "uint256",
              "name": "main_material",
              "type": "uint256"
            },
            {
              "internalType": "uint256",
              "name": "indirect_material",
              "type": "uint256"
            },
            {
              "internalType": "uint256",
              "name": "catalyst",
              "type": "uint256"
            },
            {
              "internalType": "uint256",
              "name": "main_material_amount",
              "type": "uint256"
            },
            {
              "internalType": "uint256",
              "name": "indirect_material_amount",
              "type": "uint256"
            },
            {
              "internalType": "uint256",
              "name": "catalyst_amount",
              "type": "uint256"
            }
          ],
          "internalType": "struct item_recipe",
          "name": "recipe",
          "type": "tuple"
        }
      ],
      "stateMutability": "pure",
      "type": "function"
    },
    {
      "inputs": [],
      "name": "mintEquipments",
      "outputs": [],
      "stateMutability": "nonpayable",
      "type": "function"
    },
    {
      "inputs": [
        {
          "internalType": "address",
          "name": "user",
          "type": "address"
        },
        {
          "internalType": "uint256[]",
          "name": "randomNumberRequested",
          "type": "uint256[]"
        }
      ],
      "name": "mintEquipmentsExperimental",
      "outputs": [],
      "stateMutability": "nonpayable",
      "type": "function"
    },
    {
      "inputs": [],
      "name": "mint_fee",
      "outputs": [
        {
          "internalType": "uint256",
          "name": "",
          "type": "uint256"
        }
      ],
      "stateMutability": "view",
      "type": "function"
    },
    {
      "inputs": [],
      "name": "owner",
      "outputs": [
        {
          "internalType": "address",
          "name": "",
          "type": "address"
        }
      ],
      "stateMutability": "view",
      "type": "function"
    },
    {
      "inputs": [],
      "name": "paused",
      "outputs": [
        {
          "internalType": "bool",
          "name": "",
          "type": "bool"
        }
      ],
      "stateMutability": "view",
      "type": "function"
    },
    {
      "inputs": [],
      "name": "renounceOwnership",
      "outputs": [],
      "stateMutability": "nonpayable",
      "type": "function"
    },
    {
      "inputs": [
        {
          "internalType": "address",
          "name": "",
          "type": "address"
        }
      ],
      "name": "request",
      "outputs": [
        {
          "internalType": "uint256",
          "name": "request_id",
          "type": "uint256"
        },
        {
          "internalType": "uint64",
          "name": "equipment_type",
          "type": "uint64"
        },
        {
          "internalType": "uint32",
          "name": "number_of_items",
          "type": "uint32"
        },
        {
          "internalType": "uint256",
          "name": "time_requested",
          "type": "uint256"
        },
        {
          "internalType": "bool",
          "name": "free",
          "type": "bool"
        }
      ],
      "stateMutability": "view",
      "type": "function"
    },
    {
      "inputs": [
        {
          "internalType": "uint64",
          "name": "_equipment_type",
          "type": "uint64"
        },
        {
          "internalType": "uint256",
          "name": "item_count",
          "type": "uint256"
        }
      ],
      "name": "requestEquipment",
      "outputs": [],
      "stateMutability": "payable",
      "type": "function"
    },
    {
      "inputs": [
        {
          "internalType": "uint64",
          "name": "_equipment_type",
          "type": "uint64"
        }
      ],
      "name": "requestEquipmentExperimental",
      "outputs": [],
      "stateMutability": "payable",
      "type": "function"
    },
    {
      "inputs": [
        {
          "internalType": "uint256",
          "name": "character_id",
          "type": "uint256"
        },
        {
          "internalType": "uint64",
          "name": "_equipment_type",
          "type": "uint64"
        }
      ],
      "name": "requestEquipmentExperimentalFree",
      "outputs": [],
      "stateMutability": "payable",
      "type": "function"
    },
    {
      "inputs": [
        {
          "internalType": "uint256",
          "name": "amount",
          "type": "uint256"
        }
      ],
      "name": "setMintFee",
      "outputs": [],
      "stateMutability": "nonpayable",
      "type": "function"
    },
    {
      "inputs": [
        {
          "internalType": "address",
          "name": "_vrfContract",
          "type": "address"
        }
      ],
      "name": "setRandomizationContract",
      "outputs": [],
      "stateMutability": "nonpayable",
      "type": "function"
    },
    {
      "inputs": [
        {
          "internalType": "address",
          "name": "newOwner",
          "type": "address"
        }
      ],
      "name": "transferOwnership",
      "outputs": [],
      "stateMutability": "nonpayable",
      "type": "function"
    },
    {
      "inputs": [
        {
          "internalType": "uint256",
          "name": "equipment_type",
          "type": "uint256"
        },
        {
          "internalType": "uint256",
          "name": "item_count",
          "type": "uint256"
        }
      ],
      "name": "userMaterialsEnough",
      "outputs": [
        {
          "internalType": "bool",
          "name": "enough",
          "type": "bool"
        }
      ],
      "stateMutability": "view",
      "type": "function"
    },
    {
      "inputs": [],
      "name": "withdraw",
      "outputs": [],
      "stateMutability": "nonpayable",
      "type": "function"
    }
  ],
  "bytecode": "0x60806040523480156200001157600080fd5b5060405162005370380380620053708339818101604052810190620000379190620004ec565b620000576200004b620001a860201b60201c565b620001b060201b60201c565b60008060146101000a81548160ff02191690831515021790555084600560006101000a81548173ffffffffffffffffffffffffffffffffffffffff021916908373ffffffffffffffffffffffffffffffffffffffff16021790555083600260006101000a81548173ffffffffffffffffffffffffffffffffffffffff021916908373ffffffffffffffffffffffffffffffffffffffff16021790555082600360006101000a81548173ffffffffffffffffffffffffffffffffffffffff021916908373ffffffffffffffffffffffffffffffffffffffff16021790555081600a9060046200014792919062000274565b5080600e9060046200015b92919062000274565b5033600660006101000a81548173ffffffffffffffffffffffffffffffffffffffff021916908373ffffffffffffffffffffffffffffffffffffffff160217905550505050505062000575565b600033905090565b60008060009054906101000a900473ffffffffffffffffffffffffffffffffffffffff169050816000806101000a81548173ffffffffffffffffffffffffffffffffffffffff021916908373ffffffffffffffffffffffffffffffffffffffff1602179055508173ffffffffffffffffffffffffffffffffffffffff168173ffffffffffffffffffffffffffffffffffffffff167f8be0079c531659141344cd1fd0a4f28419497f9722a3daafe3b4186f6b6457e060405160405180910390a35050565b8260048101928215620002e3579160200282015b82811115620002e25782518260006101000a81548173ffffffffffffffffffffffffffffffffffffffff021916908373ffffffffffffffffffffffffffffffffffffffff1602179055509160200191906001019062000288565b5b509050620002f29190620002f6565b5090565b5b8082111562000311576000816000905550600101620002f7565b5090565b6000604051905090565b600080fd5b600073ffffffffffffffffffffffffffffffffffffffff82169050919050565b6000620003518262000324565b9050919050565b620003638162000344565b81146200036f57600080fd5b50565b600081519050620003838162000358565b92915050565b600080fd5b6000601f19601f8301169050919050565b7f4e487b7100000000000000000000000000000000000000000000000000000000600052604160045260246000fd5b620003d9826200038e565b810181811067ffffffffffffffff82111715620003fb57620003fa6200039f565b5b80604052505050565b60006200041062000315565b90506200041e8282620003ce565b919050565b600067ffffffffffffffff8211156200044157620004406200039f565b5b602082029050919050565b600080fd5b600062000468620004628462000423565b62000404565b905080602084028301858111156200048557620004846200044c565b5b835b81811015620004b257806200049d888262000372565b84526020840193505060208101905062000487565b5050509392505050565b600082601f830112620004d457620004d362000389565b5b6004620004e384828562000451565b91505092915050565b600080600080600061016086880312156200050c576200050b6200031f565b5b60006200051c8882890162000372565b95505060206200052f8882890162000372565b9450506040620005428882890162000372565b93505060606200055588828901620004bc565b92505060e06200056888828901620004bc565b9150509295509295909350565b614deb80620005856000396000f3fe6080604052600436106101095760003560e01c80638da5cb5b11610095578063d63c300411610064578063d63c300414610305578063da610fcf14610342578063e9ff18c61461036d578063eddd0d9c14610389578063f2fde38b146103b257610109565b80638da5cb5b1461027e578063a4b4dd4e146102a9578063a9a876af146102c5578063b25f9b3e146102ee57610109565b80635473e978116100dc5780635473e978146101995780635c975abb146101c2578063715018a6146101ed5780638428e99a1461020457806387acbc971461024157610109565b806308e6b2c91461010e57806320b37cfc1461012557806327c78c42146101415780633ccfd60b14610182575b600080fd5b34801561011a57600080fd5b506101236103db565b005b61013f600480360381019061013a91906134fd565b610748565b005b34801561014d57600080fd5b506101686004803603810190610163919061359b565b610bea565b604051610179959493929190613620565b60405180910390f35b34801561018e57600080fd5b50610197610c51565b005b3480156101a557600080fd5b506101c060048036038101906101bb919061359b565b610d2a565b005b3480156101ce57600080fd5b506101d7610db7565b6040516101e49190613673565b60405180910390f35b3480156101f957600080fd5b50610202610dcd565b005b34801561021057600080fd5b5061022b6004803603810190610226919061368e565b610de1565b6040516102389190613745565b60405180910390f35b34801561024d57600080fd5b5061026860048036038101906102639190613760565b610df9565b6040516102759190613673565b60405180910390f35b34801561028a57600080fd5b50610293610eca565b6040516102a091906137af565b60405180910390f35b6102c360048036038101906102be91906137ca565b610ef3565b005b3480156102d157600080fd5b506102ec60048036038101906102e79190613963565b611542565b005b3480156102fa57600080fd5b5061030361180c565b005b34801561031157600080fd5b5061032c6004803603810190610327919061368e565b611b73565b6040516103399190613673565b60405180910390f35b34801561034e57600080fd5b50610357611b93565b60405161036491906139bf565b60405180910390f35b610387600480360381019061038291906139da565b611b99565b005b34801561039557600080fd5b506103b060048036038101906103ab919061368e565b611fee565b005b3480156103be57600080fd5b506103d960048036038101906103d4919061359b565b61200f565b005b6000600760003373ffffffffffffffffffffffffffffffffffffffff1673ffffffffffffffffffffffffffffffffffffffff1681526020019081526020016000206040518060a0016040529081600082015481526020016001820160009054906101000a900467ffffffffffffffff1667ffffffffffffffff1667ffffffffffffffff1681526020016001820160089054906101000a900463ffffffff1663ffffffff1663ffffffff168152602001600282015481526020016003820160009054906101000a900460ff161515151581525050905060008160000151116104f7576040517f08c379a00000000000000000000000000000000000000000000000000000000081526004016104ee90613a64565b60405180910390fd5b600080600160009054906101000a900473ffffffffffffffffffffffffffffffffffffffff1673ffffffffffffffffffffffffffffffffffffffff1663d8a4676f84600001516040518263ffffffff1660e01b815260040161055991906139bf565b600060405180830381865afa158015610576573d6000803e3d6000fd5b505050506040513d6000823e3d601f19601f8201168201806040525081019061059f9190613b5c565b91509150816105e3576040517f08c379a00000000000000000000000000000000000000000000000000000000081526004016105da90613c2a565b60405180910390fd5b60005b836040015163ffffffff16811015610639576106263383838151811061060f5761060e613c4a565b5b602002602001015186602001518760800151612092565b808061063190613ca8565b9150506105e6565b506040518060a0016040528060008152602001600067ffffffffffffffff168152602001600063ffffffff16815260200142815260200160001515815250600760003373ffffffffffffffffffffffffffffffffffffffff1673ffffffffffffffffffffffffffffffffffffffff1681526020019081526020016000206000820151816000015560208201518160010160006101000a81548167ffffffffffffffff021916908367ffffffffffffffff16021790555060408201518160010160086101000a81548163ffffffff021916908363ffffffff1602179055506060820151816002015560808201518160030160006101000a81548160ff021916908315150217905550905050505050565b610750612223565b6000600760003373ffffffffffffffffffffffffffffffffffffffff1673ffffffffffffffffffffffffffffffffffffffff1681526020019081526020016000206040518060a0016040529081600082015481526020016001820160009054906101000a900467ffffffffffffffff1667ffffffffffffffff1667ffffffffffffffff1681526020016001820160089054906101000a900463ffffffff1663ffffffff1663ffffffff168152602001600282015481526020016003820160009054906101000a900460ff1615151515815250509050600081600001511461086c576040517f08c379a000000000000000000000000000000000000000000000000000000000815260040161086390613d62565b60405180910390fd5b60058367ffffffffffffffff16106108b9576040517f08c379a00000000000000000000000000000000000000000000000000000000081526004016108b090613df4565b60405180910390fd5b6000821180156108c95750600482105b610908576040517f08c379a00000000000000000000000000000000000000000000000000000000081526004016108ff90613e86565b60405180910390fd5b600854826109169190613ea6565b341015610958576040517f08c379a000000000000000000000000000000000000000000000000000000000815260040161094f90613f80565b60405180910390fd5b600061096e8467ffffffffffffffff168461226d565b9050806109b0576040517f08c379a00000000000000000000000000000000000000000000000000000000081526004016109a790614012565b60405180910390fd5b6040518060a00160405280600160009054906101000a900473ffffffffffffffffffffffffffffffffffffffff1673ffffffffffffffffffffffffffffffffffffffff16639bca039d338760006040518463ffffffff1660e01b8152600401610a1b93929190614032565b6020604051808303816000875af1158015610a3a573d6000803e3d6000fd5b505050506040513d601f19601f82011682018060405250810190610a5e9190614069565b81526020018567ffffffffffffffff1681526020018463ffffffff16815260200142815260200160001515815250600760003373ffffffffffffffffffffffffffffffffffffffff1673ffffffffffffffffffffffffffffffffffffffff1681526020019081526020016000206000820151816000015560208201518160010160006101000a81548167ffffffffffffffff021916908367ffffffffffffffff16021790555060408201518160010160086101000a81548163ffffffff021916908363ffffffff1602179055506060820151816002015560808201518160030160006101000a81548160ff0219169083151502179055509050503373ffffffffffffffffffffffffffffffffffffffff167f58577bf17ae4d0cc9d3b31873621b2a79ce93516e49b689b734695e54df0d9fd600760003373ffffffffffffffffffffffffffffffffffffffff1673ffffffffffffffffffffffffffffffffffffffff168152602001908152602001600020604051610bdc919061421a565b60405180910390a250505050565b60076020528060005260406000206000915090508060000154908060010160009054906101000a900467ffffffffffffffff16908060010160089054906101000a900463ffffffff16908060020154908060030160009054906101000a900460ff16905085565b610c596124a7565b6000600660009054906101000a900473ffffffffffffffffffffffffffffffffffffffff1673ffffffffffffffffffffffffffffffffffffffff1647604051610ca190614266565b60006040518083038185875af1925050503d8060008114610cde576040519150601f19603f3d011682016040523d82523d6000602084013e610ce3565b606091505b5050905080610d27576040517f08c379a0000000000000000000000000000000000000000000000000000000008152600401610d1e906142c7565b60405180910390fd5b50565b610d326124a7565b80600460006101000a81548173ffffffffffffffffffffffffffffffffffffffff021916908373ffffffffffffffffffffffffffffffffffffffff16021790555080600160006101000a81548173ffffffffffffffffffffffffffffffffffffffff021916908373ffffffffffffffffffffffffffffffffffffffff16021790555050565b60008060149054906101000a900460ff16905090565b610dd56124a7565b610ddf6000612525565b565b610de9613385565b610df2826125e9565b9050919050565b6000600190506000610e0a846125e9565b9050828160600151610e1c9190613ea6565b816060018181525050828160800151610e359190613ea6565b816080018181525050828160a00151610e4e9190613ea6565b8160a00181815250506000610e66826000015161265b565b5090506000610e78836020015161265b565b5090506000610e8a846040015161271d565b5090508360600151831015610e9e57600094505b8360800151821015610eaf57600094505b8360a00151811015610ec057600094505b5050505092915050565b60008060009054906101000a900473ffffffffffffffffffffffffffffffffffffffff16905090565b610efb612223565b6000600760003373ffffffffffffffffffffffffffffffffffffffff1673ffffffffffffffffffffffffffffffffffffffff1681526020019081526020016000206040518060a0016040529081600082015481526020016001820160009054906101000a900467ffffffffffffffff1667ffffffffffffffff1667ffffffffffffffff1681526020016001820160089054906101000a900463ffffffff1663ffffffff1663ffffffff168152602001600282015481526020016003820160009054906101000a900460ff16151515158152505090506000816000015114611017576040517f08c379a000000000000000000000000000000000000000000000000000000000815260040161100e90613d62565b60405180910390fd5b60058267ffffffffffffffff1610611064576040517f08c379a000000000000000000000000000000000000000000000000000000000815260040161105b90614333565b60405180910390fd5b60085460016110739190613ea6565b3410156110b5576040517f08c379a00000000000000000000000000000000000000000000000000000000081526004016110ac9061439f565b60405180910390fd5b6009600084815260200190815260200160002060009054906101000a900460ff1615611116576040517f08c379a000000000000000000000000000000000000000000000000000000000815260040161110d9061440b565b60405180910390fd5b60c8600260009054906101000a900473ffffffffffffffffffffffffffffffffffffffff1673ffffffffffffffffffffffffffffffffffffffff1663468f25b0856040518263ffffffff1660e01b815260040161117391906139bf565b61010060405180830381865afa158015611191573d6000803e3d6000fd5b505050506040513d601f19601f820116820180604052508101906111b59190614526565b60e0015163ffffffff16116111ff576040517f08c379a00000000000000000000000000000000000000000000000000000000081526004016111f6906145a0565b60405180910390fd5b600260009054906101000a900473ffffffffffffffffffffffffffffffffffffffff1673ffffffffffffffffffffffffffffffffffffffff1663e327a6af33856040518363ffffffff1660e01b815260040161125c9291906145c0565b602060405180830381865afa158015611279573d6000803e3d6000fd5b505050506040513d601f19601f8201168201806040525081019061129d91906145e9565b6112dc576040517f08c379a00000000000000000000000000000000000000000000000000000000081526004016112d390614662565b60405180910390fd5b60016009600085815260200190815260200160002060006101000a81548160ff0219169083151502179055506040518060a00160405280600160009054906101000a900473ffffffffffffffffffffffffffffffffffffffff1673ffffffffffffffffffffffffffffffffffffffff16639bca039d336001806040518463ffffffff1660e01b8152600401611373939291906146c7565b6020604051808303816000875af1158015611392573d6000803e3d6000fd5b505050506040513d601f19601f820116820180604052508101906113b69190614069565b81526020018367ffffffffffffffff168152602001600163ffffffff16815260200142815260200160011515815250600760003373ffffffffffffffffffffffffffffffffffffffff1673ffffffffffffffffffffffffffffffffffffffff1681526020019081526020016000206000820151816000015560208201518160010160006101000a81548167ffffffffffffffff021916908367ffffffffffffffff16021790555060408201518160010160086101000a81548163ffffffff021916908363ffffffff1602179055506060820151816002015560808201518160030160006101000a81548160ff0219169083151502179055509050503373ffffffffffffffffffffffffffffffffffffffff167f58577bf17ae4d0cc9d3b31873621b2a79ce93516e49b689b734695e54df0d9fd600760003373ffffffffffffffffffffffffffffffffffffffff1673ffffffffffffffffffffffffffffffffffffffff168152602001908152602001600020604051611535919061421a565b60405180910390a2505050565b600460009054906101000a900473ffffffffffffffffffffffffffffffffffffffff1673ffffffffffffffffffffffffffffffffffffffff163373ffffffffffffffffffffffffffffffffffffffff16146115d2576040517f08c379a00000000000000000000000000000000000000000000000000000000081526004016115c990614796565b60405180910390fd5b6000600760008473ffffffffffffffffffffffffffffffffffffffff1673ffffffffffffffffffffffffffffffffffffffff1681526020019081526020016000206040518060a0016040529081600082015481526020016001820160009054906101000a900467ffffffffffffffff1667ffffffffffffffff1667ffffffffffffffff1681526020016001820160089054906101000a900463ffffffff1663ffffffff1663ffffffff168152602001600282015481526020016003820160009054906101000a900460ff161515151581525050905060005b816040015163ffffffff168110156116fd576116ea848483815181106116d3576116d2613c4a565b5b602002602001015184602001518560800151612092565b80806116f590613ca8565b9150506116aa565b506040518060a0016040528060008152602001600067ffffffffffffffff168152602001600063ffffffff16815260200142815260200160001515815250600760008573ffffffffffffffffffffffffffffffffffffffff1673ffffffffffffffffffffffffffffffffffffffff1681526020019081526020016000206000820151816000015560208201518160010160006101000a81548167ffffffffffffffff021916908367ffffffffffffffff16021790555060408201518160010160086101000a81548163ffffffff021916908363ffffffff1602179055506060820151816002015560808201518160030160006101000a81548160ff021916908315150217905550905050505050565b6000600760003373ffffffffffffffffffffffffffffffffffffffff1673ffffffffffffffffffffffffffffffffffffffff1681526020019081526020016000206040518060a0016040529081600082015481526020016001820160009054906101000a900467ffffffffffffffff1667ffffffffffffffff1667ffffffffffffffff1681526020016001820160089054906101000a900463ffffffff1663ffffffff1663ffffffff168152602001600282015481526020016003820160009054906101000a900460ff16151515158152505090506000600160009054906101000a900473ffffffffffffffffffffffffffffffffffffffff1673ffffffffffffffffffffffffffffffffffffffff1663d8a4676f83600001516040518263ffffffff1660e01b815260040161194291906139bf565b600060405180830381865afa15801561195f573d6000803e3d6000fd5b505050506040513d6000823e3d601f19601f820116820180604052508101906119889190613b5c565b50905060008260000151116119d2576040517f08c379a00000000000000000000000000000000000000000000000000000000081526004016119c990614828565b60405180910390fd5b610e108260600151426119e59190614848565b11611a25576040517f08c379a0000000000000000000000000000000000000000000000000000000008152600401611a1c90614914565b60405180910390fd5b8015611a66576040517f08c379a0000000000000000000000000000000000000000000000000000000008152600401611a5d906149a6565b60405180910390fd5b6040518060a0016040528060008152602001600067ffffffffffffffff168152602001600063ffffffff16815260200142815260200160001515815250600760003373ffffffffffffffffffffffffffffffffffffffff1673ffffffffffffffffffffffffffffffffffffffff1681526020019081526020016000206000820151816000015560208201518160010160006101000a81548167ffffffffffffffff021916908367ffffffffffffffff16021790555060408201518160010160086101000a81548163ffffffff021916908363ffffffff1602179055506060820151816002015560808201518160030160006101000a81548160ff0219169083151502179055509050505050565b60096020528060005260406000206000915054906101000a900460ff1681565b60085481565b611ba1612223565b6000600760003373ffffffffffffffffffffffffffffffffffffffff1673ffffffffffffffffffffffffffffffffffffffff1681526020019081526020016000206040518060a0016040529081600082015481526020016001820160009054906101000a900467ffffffffffffffff1667ffffffffffffffff1667ffffffffffffffff1681526020016001820160089054906101000a900463ffffffff1663ffffffff1663ffffffff168152602001600282015481526020016003820160009054906101000a900460ff16151515158152505090506000816000015114611cbd576040517f08c379a0000000000000000000000000000000000000000000000000000000008152600401611cb490613d62565b60405180910390fd5b60058267ffffffffffffffff1610611d0a576040517f08c379a0000000000000000000000000000000000000000000000000000000008152600401611d0190613df4565b60405180910390fd5b6008546001611d199190613ea6565b341015611d5b576040517f08c379a0000000000000000000000000000000000000000000000000000000008152600401611d5290613f80565b60405180910390fd5b6000611d728367ffffffffffffffff16600161226d565b905080611db4576040517f08c379a0000000000000000000000000000000000000000000000000000000008152600401611dab90614012565b60405180910390fd5b6040518060a00160405280600160009054906101000a900473ffffffffffffffffffffffffffffffffffffffff1673ffffffffffffffffffffffffffffffffffffffff16639bca039d336001806040518463ffffffff1660e01b8152600401611e1f939291906146c7565b6020604051808303816000875af1158015611e3e573d6000803e3d6000fd5b505050506040513d601f19601f82011682018060405250810190611e629190614069565b81526020018467ffffffffffffffff168152602001600163ffffffff16815260200142815260200160001515815250600760003373ffffffffffffffffffffffffffffffffffffffff1673ffffffffffffffffffffffffffffffffffffffff1681526020019081526020016000206000820151816000015560208201518160010160006101000a81548167ffffffffffffffff021916908367ffffffffffffffff16021790555060408201518160010160086101000a81548163ffffffff021916908363ffffffff1602179055506060820151816002015560808201518160030160006101000a81548160ff0219169083151502179055509050503373ffffffffffffffffffffffffffffffffffffffff167f58577bf17ae4d0cc9d3b31873621b2a79ce93516e49b689b734695e54df0d9fd600760003373ffffffffffffffffffffffffffffffffffffffff1673ffffffffffffffffffffffffffffffffffffffff168152602001908152602001600020604051611fe1919061421a565b60405180910390a2505050565b611ff66124a7565b633b9aca00816120069190613ea6565b60088190555050565b6120176124a7565b600073ffffffffffffffffffffffffffffffffffffffff168173ffffffffffffffffffffffffffffffffffffffff1603612086576040517f08c379a000000000000000000000000000000000000000000000000000000000815260040161207d90614a38565b60405180910390fd5b61208f81612525565b50565b60048267ffffffffffffffff160361216557600060016003856120b59190614a87565b6120bf9190614ab8565b9050600360009054906101000a900473ffffffffffffffffffffffffffffffffffffffff1673ffffffffffffffffffffffffffffffffffffffff166340c10f1986670de0b6b3a7640000846121149190613ea6565b6040518363ffffffff1660e01b81526004016121319291906145c0565b600060405180830381600087803b15801561214b57600080fd5b505af115801561215f573d6000803e3d6000fd5b50505050505b60048267ffffffffffffffff161461221d576000806121858585856127df565b91509150600560009054906101000a900473ffffffffffffffffffffffffffffffffffffffff1673ffffffffffffffffffffffffffffffffffffffff1663506e90aa8784846040518463ffffffff1660e01b81526004016121e893929190614be3565b600060405180830381600087803b15801561220257600080fd5b505af1158015612216573d6000803e3d6000fd5b5050505050505b50505050565b61222b610db7565b1561226b576040517f08c379a000000000000000000000000000000000000000000000000000000000815260040161226290614c67565b60405180910390fd5b565b600060019050600061227e846125e9565b90508281606001516122909190613ea6565b8160600181815250508281608001516122a99190613ea6565b816080018181525050828160a001516122c29190613ea6565b8160a00181815250506000806122db836000015161265b565b915091506000806122ef856020015161265b565b91509150600080612303876040015161271d565b91509150866060015186101561231857600097505b866080015184101561232957600097505b8660a0015182101561233a57600097505b600115158815150361249a578473ffffffffffffffffffffffffffffffffffffffff166379cc67903389606001516040518363ffffffff1660e01b81526004016123859291906145c0565b600060405180830381600087803b15801561239f57600080fd5b505af11580156123b3573d6000803e3d6000fd5b505050508273ffffffffffffffffffffffffffffffffffffffff166379cc67903389608001516040518363ffffffff1660e01b81526004016123f69291906145c0565b600060405180830381600087803b15801561241057600080fd5b505af1158015612424573d6000803e3d6000fd5b505050508073ffffffffffffffffffffffffffffffffffffffff166379cc6790338960a001516040518363ffffffff1660e01b81526004016124679291906145c0565b600060405180830381600087803b15801561248157600080fd5b505af1158015612495573d6000803e3d6000fd5b505050505b5050505050505092915050565b6124af612a05565b73ffffffffffffffffffffffffffffffffffffffff166124cd610eca565b73ffffffffffffffffffffffffffffffffffffffff1614612523576040517f08c379a000000000000000000000000000000000000000000000000000000000815260040161251a90614cd3565b60405180910390fd5b565b60008060009054906101000a900473ffffffffffffffffffffffffffffffffffffffff169050816000806101000a81548173ffffffffffffffffffffffffffffffffffffffff021916908373ffffffffffffffffffffffffffffffffffffffff1602179055508173ffffffffffffffffffffffffffffffffffffffff168173ffffffffffffffffffffffffffffffffffffffff167f8be0079c531659141344cd1fd0a4f28419497f9722a3daafe3b4186f6b6457e060405160405180910390a35050565b6125f1613385565b6000806125fd84612a0d565b9150915060008061260d86612a8d565b9150915060008061261d88612b0d565b915091506040518060c00160405280878152602001858152602001838152602001868152602001848152602001828152509650505050505050919050565b6000806000600a846004811061267457612673613c4a565b5b0160009054906101000a900473ffffffffffffffffffffffffffffffffffffffff1690508091508173ffffffffffffffffffffffffffffffffffffffff166370a08231336040518263ffffffff1660e01b81526004016126d491906137af565b602060405180830381865afa1580156126f1573d6000803e3d6000fd5b505050506040513d601f19601f820116820180604052508101906127159190614069565b925050915091565b6000806000600e846004811061273657612735613c4a565b5b0160009054906101000a900473ffffffffffffffffffffffffffffffffffffffff1690508091508173ffffffffffffffffffffffffffffffffffffffff166370a08231336040518263ffffffff1660e01b815260040161279691906137af565b602060405180830381865afa1580156127b3573d6000803e3d6000fd5b505050506040513d601f19601f820116820180604052508101906127d79190614069565b925050915091565b6127e76133bb565b6127ef61340b565b60006127fa86612b8d565b905060008061282383600f8151811061281657612815613c4a565b5b6020026020010151612c61565b91509150851561283257600091505b600060405180610100016040528085600e8151811061285457612853613c4a565b5b602002602001015161ffff1661ffff16815260200185600d8151811061287d5761287c613c4a565b5b602002602001015161ffff1661ffff16815260200185600c815181106128a6576128a5613c4a565b5b602002602001015161ffff1661ffff16815260200185600b815181106128cf576128ce613c4a565b5b602002602001015161ffff1661ffff16815260200185600a815181106128f8576128f7613c4a565b5b602002602001015161ffff1661ffff1681526020018560098151811061292157612920613c4a565b5b602002602001015161ffff1661ffff1681526020018560088151811061294a57612949613c4a565b5b602002602001015161ffff1661ffff1681526020018560078151811061297357612972613c4a565b5b602002602001015161ffff1661ffff1681525090506000806129a083858c67ffffffffffffffff16612d17565b80935081945082995050505060405180608001604052808b67ffffffffffffffff1681526020018667ffffffffffffffff1681526020018367ffffffffffffffff1681526020018267ffffffffffffffff168152509750505050505050935093915050565b600033905090565b60008060008303612a28576000915067a688906bd8b0000090505b60018303612a405760019150677ce66c50e284000090505b60028303612a5857600191506729a2241af62c000090505b60038303612a70576002915067a688906bd8b0000090505b60048303612a885760039150670de0b6b3a764000090505b915091565b60008060008303612aa85760019150673782dace9d90000090505b60018303612ac057600091506729a2241af62c000090505b60028303612ad85760009150670de0b6b3a764000090505b60038303612af05760009150673782dace9d90000090505b60048303612b085760029150670de0b6b3a764000090505b915091565b60008060008303612b285760009150670de0b6b3a764000090505b60018303612b405760019150670de0b6b3a764000090505b60028303612b585760019150670de0b6b3a764000090505b60038303612b705760029150670de0b6b3a764000090505b60048303612b8857600391506703782dace9d9000090505b915091565b60606000601067ffffffffffffffff811115612bac57612bab613820565b5b604051908082528060200260200182016040528015612bda5781602001602082028036833780820191505090505b509050600061ffff9050600080600f90505b60008112612c555760008387169050601084901b93508281901c905080858381518110612c1c57612c1b613c4a565b5b602002602001019061ffff16908161ffff1681525050601083612c3f9190614ab8565b9250508080612c4d90614cfd565b915050612bec565b50829350505050919050565b60008060006103e884612c749190614d53565b61ffff1690506103e2811115612c8d5760049250606491505b6103d881118015612ca057506103e28111155b15612cae5760039250603c91505b6103b081118015612cc157506103d88111155b15612ccf5760029250602891505b6102e881118015612ce257506103b08111155b15612cf05760019250601991505b60008110158015612d0357506102ec8111155b15612d115760009250600f91505b50915091565b612d1f61340b565b600080600080612d2d613450565b612d35613450565b60005b6008811015612dc45760006103e88c8360088110612d5957612d58613c4a565b5b6020020151612d689190614d53565b61ffff16905080848360088110612d8257612d81613c4a565b5b602002018181525050838260088110612d9e57612d9d613c4a565b5b602002015186612dae9190614ab8565b9550508080612dbc90613ca8565b915050612d38565b5060005b6008811015612e2e57848a848360088110612de657612de5613c4a565b5b6020020151612df59190613ea6565b612dff9190614d84565b828260088110612e1257612e11613c4a565b5b6020020181815250508080612e2690613ca8565b915050612dc8565b50600080612e3c8a8c612fc5565b9150915080838360088110612e5457612e53613c4a565b5b60200201818151612e659190614ab8565b9150818152505060405180610100016040528084600060088110612e8c57612e8b613c4a565b5b602002015163ffffffff16815260200184600160088110612eb057612eaf613c4a565b5b602002015163ffffffff16815260200184600260088110612ed457612ed3613c4a565b5b602002015163ffffffff16815260200184600360088110612ef857612ef7613c4a565b5b602002015163ffffffff16815260200184600460088110612f1c57612f1b613c4a565b5b602002015163ffffffff16815260200184600560088110612f4057612f3f613c4a565b5b602002015163ffffffff16815260200184600660088110612f6457612f63613c4a565b5b602002015163ffffffff16815260200184600760088110612f8857612f87613c4a565b5b602002015163ffffffff168152509850612fa1846130c5565b8096508199505050612fb485878d6132b1565b965050505050505093509350939050565b60008060008403612ffd57600091506096603284612fe39190614ab8565b61012c612ff09190613ea6565b612ffa9190614d84565b90505b6001840361303d57600191506002609660328561301a9190614ab8565b60e16130269190613ea6565b6130309190614d84565b61303a9190614d84565b90505b6002840361307d57600191506002609660328561305a9190614ab8565b604b6130669190613ea6565b6130709190614d84565b61307a9190614d84565b90505b600384036130be57600291506002609660328561309a9190614ab8565b61012c6130a79190613ea6565b6130b19190614d84565b6130bb9190614d84565b90505b9250929050565b6000806000604051806101000160405280600081526020016001815260200160028152602001600381526020016004815260200160058152602001600681526020016007815250905060006008905060005b8181101561327357600060018261312e9190614ab8565b90505b8281101561325f5786816008811061314c5761314b613c4a565b5b602002015187836008811061316457613163613c4a565b5b6020020151101561324c57600087836008811061318457613183613c4a565b5b6020020151905060008584600881106131a05761319f613c4a565b5b602002015190508883600881106131ba576131b9613c4a565b5b60200201518985600881106131d2576131d1613c4a565b5b6020020181815250508583600881106131ee576131ed613c4a565b5b602002015186856008811061320657613205613c4a565b5b6020020181815250508189846008811061322357613222613c4a565b5b602002018181525050808684600881106132405761323f613c4a565b5b60200201818152505050505b808061325790613ca8565b915050613131565b50808061326b90613ca8565b915050613117565b508160006008811061328857613287613c4a565b5b60200201519350846000600881106132a3576132a2613c4a565b5b602002015192505050915091565b6000808383866132c19190613ea6565b6132cb9190614d84565b90506005811180156132de5750600a8111155b156132e857600191505b600a811180156132f95750600f8111155b1561330357600291505b600f81118015613314575060148111155b1561331e57600391505b60148111801561332f5750601e8111155b1561333957600491505b601e8111801561334a5750602d8111155b1561335457600591505b602d81118015613365575060418111155b1561336f57600691505b604181111561337d57600791505b509392505050565b6040518060c001604052806000815260200160008152602001600081526020016000815260200160008152602001600081525090565b6040518060800160405280600067ffffffffffffffff168152602001600067ffffffffffffffff168152602001600067ffffffffffffffff168152602001600067ffffffffffffffff1681525090565b60405180610100016040528060008152602001600081526020016000815260200160008152602001600081526020016000815260200160008152602001600081525090565b604051806101000160405280600890602082028036833780820191505090505090565b6000604051905090565b600080fd5b600080fd5b600067ffffffffffffffff82169050919050565b6134a481613487565b81146134af57600080fd5b50565b6000813590506134c18161349b565b92915050565b6000819050919050565b6134da816134c7565b81146134e557600080fd5b50565b6000813590506134f7816134d1565b92915050565b600080604083850312156135145761351361347d565b5b6000613522858286016134b2565b9250506020613533858286016134e8565b9150509250929050565b600073ffffffffffffffffffffffffffffffffffffffff82169050919050565b60006135688261353d565b9050919050565b6135788161355d565b811461358357600080fd5b50565b6000813590506135958161356f565b92915050565b6000602082840312156135b1576135b061347d565b5b60006135bf84828501613586565b91505092915050565b6135d1816134c7565b82525050565b6135e081613487565b82525050565b600063ffffffff82169050919050565b6135ff816135e6565b82525050565b60008115159050919050565b61361a81613605565b82525050565b600060a08201905061363560008301886135c8565b61364260208301876135d7565b61364f60408301866135f6565b61365c60608301856135c8565b6136696080830184613611565b9695505050505050565b60006020820190506136886000830184613611565b92915050565b6000602082840312156136a4576136a361347d565b5b60006136b2848285016134e8565b91505092915050565b6136c4816134c7565b82525050565b60c0820160008201516136e060008501826136bb565b5060208201516136f360208501826136bb565b50604082015161370660408501826136bb565b50606082015161371960608501826136bb565b50608082015161372c60808501826136bb565b5060a082015161373f60a08501826136bb565b50505050565b600060c08201905061375a60008301846136ca565b92915050565b600080604083850312156137775761377661347d565b5b6000613785858286016134e8565b9250506020613796858286016134e8565b9150509250929050565b6137a98161355d565b82525050565b60006020820190506137c460008301846137a0565b92915050565b600080604083850312156137e1576137e061347d565b5b60006137ef858286016134e8565b9250506020613800858286016134b2565b9150509250929050565b600080fd5b6000601f19601f8301169050919050565b7f4e487b7100000000000000000000000000000000000000000000000000000000600052604160045260246000fd5b6138588261380f565b810181811067ffffffffffffffff8211171561387757613876613820565b5b80604052505050565b600061388a613473565b9050613896828261384f565b919050565b600067ffffffffffffffff8211156138b6576138b5613820565b5b602082029050602081019050919050565b600080fd5b60006138df6138da8461389b565b613880565b90508083825260208201905060208402830185811115613902576139016138c7565b5b835b8181101561392b578061391788826134e8565b845260208401935050602081019050613904565b5050509392505050565b600082601f83011261394a5761394961380a565b5b813561395a8482602086016138cc565b91505092915050565b6000806040838503121561397a5761397961347d565b5b600061398885828601613586565b925050602083013567ffffffffffffffff8111156139a9576139a8613482565b5b6139b585828601613935565b9150509250929050565b60006020820190506139d460008301846135c8565b92915050565b6000602082840312156139f0576139ef61347d565b5b60006139fe848285016134b2565b91505092915050565b600082825260208201905092915050565b7f654d4e54523a204e6f207265717565737420746f206d696e742e000000000000600082015250565b6000613a4e601a83613a07565b9150613a5982613a18565b602082019050919050565b60006020820190508181036000830152613a7d81613a41565b9050919050565b613a8d81613605565b8114613a9857600080fd5b50565b600081519050613aaa81613a84565b92915050565b600081519050613abf816134d1565b92915050565b6000613ad8613ad38461389b565b613880565b90508083825260208201905060208402830185811115613afb57613afa6138c7565b5b835b81811015613b245780613b108882613ab0565b845260208401935050602081019050613afd565b5050509392505050565b600082601f830112613b4357613b4261380a565b5b8151613b53848260208601613ac5565b91505092915050565b60008060408385031215613b7357613b7261347d565b5b6000613b8185828601613a9b565b925050602083015167ffffffffffffffff811115613ba257613ba1613482565b5b613bae85828601613b2e565b9150509250929050565b7f654d4e54523a2052657175657374206973206e6f74207965742066756c66696c60008201527f6c6564206f7220696e76616c696420726571756573742069642e000000000000602082015250565b6000613c14603a83613a07565b9150613c1f82613bb8565b604082019050919050565b60006020820190508181036000830152613c4381613c07565b9050919050565b7f4e487b7100000000000000000000000000000000000000000000000000000000600052603260045260246000fd5b7f4e487b7100000000000000000000000000000000000000000000000000000000600052601160045260246000fd5b6000613cb3826134c7565b91507fffffffffffffffffffffffffffffffffffffffffffffffffffffffffffffffff8203613ce557613ce4613c79565b5b600182019050919050565b7f654d4e54523a205468657265206973206120726571756573742070656e64696e60008201527f67206d696e742e00000000000000000000000000000000000000000000000000602082015250565b6000613d4c602783613a07565b9150613d5782613cf0565b604082019050919050565b60006020820190508181036000830152613d7b81613d3f565b9050919050565b7f654d4e54523a20496e636f7272656374206e756d62657220666f7220616e206560008201527f717569706d656e7420747970652e000000000000000000000000000000000000602082015250565b6000613dde602e83613a07565b9150613de982613d82565b604082019050919050565b60006020820190508181036000830152613e0d81613dd1565b9050919050565b7f654d4e54523a2043616e206f6e6c79207265717565737420746f206d696e742060008201527f3120746f2033206974656d7320617420612074696d652e000000000000000000602082015250565b6000613e70603783613a07565b9150613e7b82613e14565b604082019050919050565b60006020820190508181036000830152613e9f81613e63565b9050919050565b6000613eb1826134c7565b9150613ebc836134c7565b9250828202613eca816134c7565b91508282048414831517613ee157613ee0613c79565b5b5092915050565b7f654d4e54523a20496e636f727265637420616d6f756e7420666f72206571756960008201527f706d656e74206d696e74696e672e2053656e642065786163746c7920302e303160208201527f204d4154494320706572206974656d207265717565737465642e000000000000604082015250565b6000613f6a605a83613a07565b9150613f7582613ee8565b606082019050919050565b60006020820190508181036000830152613f9981613f5d565b9050919050565b7f654d4e54523a204e6f7420656e6f756768206d6174657269616c7320666f722060008201527f74686973206372616674696e67207472616e73616374696f6e2e000000000000602082015250565b6000613ffc603a83613a07565b915061400782613fa0565b604082019050919050565b6000602082019050818103600083015261402b81613fef565b9050919050565b600060608201905061404760008301866137a0565b61405460208301856135f6565b6140616040830184613611565b949350505050565b60006020828403121561407f5761407e61347d565b5b600061408d84828501613ab0565b91505092915050565b60008160001c9050919050565b6000819050919050565b60006140c06140bb83614096565b6140a3565b9050919050565b600067ffffffffffffffff82169050919050565b60006140ee6140e983614096565b6140c7565b9050919050565b6140fe81613487565b82525050565b60008160401c9050919050565b600063ffffffff82169050919050565b600061413461412f83614104565b614111565b9050919050565b614144816135e6565b82525050565b600060ff82169050919050565b600061416a61416583614096565b61414a565b9050919050565b61417a81613605565b82525050565b60a082016000808301549050614195816140ad565b6141a260008601826136bb565b50600183015490506141b3816140db565b6141c060208601826140f5565b506141ca81614121565b6141d7604086018261413b565b50600283015490506141e8816140ad565b6141f560608601826136bb565b506003830154905061420681614157565b6142136080860182614171565b5050505050565b600060a08201905061422f6000830184614180565b92915050565b600081905092915050565b50565b6000614250600083614235565b915061425b82614240565b600082019050919050565b600061427182614243565b9150819050919050565b7f4661696c656420746f207769746864726177206d61746963732e000000000000600082015250565b60006142b1601a83613a07565b91506142bc8261427b565b602082019050919050565b600060208201905081810360008301526142e0816142a4565b9050919050565b7f654d4e54523a20696e76616c6964206571707420747970652e00000000000000600082015250565b600061431d601983613a07565b9150614328826142e7565b602082019050919050565b6000602082019050818103600083015261434c81614310565b9050919050565b7f654d4e54523a2073656e6420302e3031206d6174696300000000000000000000600082015250565b6000614389601683613a07565b915061439482614353565b602082019050919050565b600060208201905081810360008301526143b88161437c565b9050919050565b7f654d4e54523a2063686172616374657220616c7265616479206d696e7465642e600082015250565b60006143f5602083613a07565b9150614400826143bf565b602082019050919050565b60006020820190508181036000830152614424816143e8565b9050919050565b600080fd5b614439816135e6565b811461444457600080fd5b50565b60008151905061445681614430565b92915050565b600061010082840312156144735761447261442b565b5b61447e610100613880565b9050600061448e84828501614447565b60008301525060206144a284828501614447565b60208301525060406144b684828501614447565b60408301525060606144ca84828501614447565b60608301525060806144de84828501614447565b60808301525060a06144f284828501614447565b60a08301525060c061450684828501614447565b60c08301525060e061451a84828501614447565b60e08301525092915050565b6000610100828403121561453d5761453c61347d565b5b600061454b8482850161445c565b91505092915050565b7f654d4e54523a20696e7375662063686172206578702e00000000000000000000600082015250565b600061458a601683613a07565b915061459582614554565b602082019050919050565b600060208201905081810360008301526145b98161457d565b9050919050565b60006040820190506145d560008301856137a0565b6145e260208301846135c8565b9392505050565b6000602082840312156145ff576145fe61347d565b5b600061460d84828501613a9b565b91505092915050565b7f654d4e54523a20636861726163746572206e6f74206f776e65642e0000000000600082015250565b600061464c601b83613a07565b915061465782614616565b602082019050919050565b6000602082019050818103600083015261467b8161463f565b9050919050565b6000819050919050565b6000819050919050565b60006146b16146ac6146a784614682565b61468c565b6135e6565b9050919050565b6146c181614696565b82525050565b60006060820190506146dc60008301866137a0565b6146e960208301856146b8565b6146f66040830184613611565b949350505050565b7f654d4e54523a2043616e206f6e6c792062652063616c6c65642062792074686560008201527f2056524620436f6e747261637420666f722065717569706d656e74206372616660208201527f74696e672e000000000000000000000000000000000000000000000000000000604082015250565b6000614780604583613a07565b915061478b826146fe565b606082019050919050565b600060208201905081810360008301526147af81614773565b9050919050565b7f654d4e54523a2043616e6e6f742063616e63656c206e6f6e2d6578697374696e60008201527f672072657175657374732e000000000000000000000000000000000000000000602082015250565b6000614812602b83613a07565b915061481d826147b6565b604082019050919050565b6000602082019050818103600083015261484181614805565b9050919050565b6000614853826134c7565b915061485e836134c7565b925082820390508181111561487657614875613c79565b5b92915050565b7f654d4e54523a2043616e6e6f742063616e63656c20726571756573747320746860008201527f617420686176656e74206c6170736564203120686f75722066726f6d2074696d60208201527f65207265717565737465642e0000000000000000000000000000000000000000604082015250565b60006148fe604c83613a07565b91506149098261487c565b606082019050919050565b6000602082019050818103600083015261492d816148f1565b9050919050565b7f654d4e54523a2043616e6e6f742063616e63656c20726571756573747320746860008201527f6174206861766520616c7265616479206265656e2066756c66696c6c65642e00602082015250565b6000614990603f83613a07565b915061499b82614934565b604082019050919050565b600060208201905081810360008301526149bf81614983565b9050919050565b7f4f776e61626c653a206e6577206f776e657220697320746865207a65726f206160008201527f6464726573730000000000000000000000000000000000000000000000000000602082015250565b6000614a22602683613a07565b9150614a2d826149c6565b604082019050919050565b60006020820190508181036000830152614a5181614a15565b9050919050565b7f4e487b7100000000000000000000000000000000000000000000000000000000600052601260045260246000fd5b6000614a92826134c7565b9150614a9d836134c7565b925082614aad57614aac614a58565b5b828206905092915050565b6000614ac3826134c7565b9150614ace836134c7565b9250828201905080821115614ae657614ae5613c79565b5b92915050565b608082016000820151614b0260008501826140f5565b506020820151614b1560208501826140f5565b506040820151614b2860408501826140f5565b506060820151614b3b60608501826140f5565b50505050565b61010082016000820151614b5860008501826136bb565b506020820151614b6b60208501826136bb565b506040820151614b7e60408501826136bb565b506060820151614b9160608501826136bb565b506080820151614ba460808501826136bb565b5060a0820151614bb760a08501826136bb565b5060c0820151614bca60c08501826136bb565b5060e0820151614bdd60e08501826136bb565b50505050565b60006101a082019050614bf960008301866137a0565b614c066020830185614aec565b614c1360a0830184614b41565b949350505050565b7f5061757361626c653a2070617573656400000000000000000000000000000000600082015250565b6000614c51601083613a07565b9150614c5c82614c1b565b602082019050919050565b60006020820190508181036000830152614c8081614c44565b9050919050565b7f4f776e61626c653a2063616c6c6572206973206e6f7420746865206f776e6572600082015250565b6000614cbd602083613a07565b9150614cc882614c87565b602082019050919050565b60006020820190508181036000830152614cec81614cb0565b9050919050565b6000819050919050565b6000614d0882614cf3565b91507f80000000000000000000000000000000000000000000000000000000000000008203614d3a57614d39613c79565b5b600182039050919050565b600061ffff82169050919050565b6000614d5e82614d45565b9150614d6983614d45565b925082614d7957614d78614a58565b5b828206905092915050565b6000614d8f826134c7565b9150614d9a836134c7565b925082614daa57614da9614a58565b5b82820490509291505056fea2646970667358221220d17216a55a9e1c5f0fe40c9462dbecf430633ae9562723700562e8ee16143be464736f6c63430008110033",
  "linkReferences": {},
  "deployedLinkReferences": {}
}