{
  "_format": "hh-sol-artifact-1",
  "contractName": "CharacterMinter",
  "sourceName": "contracts/periphery/routers/CharacterMinter.sol",
  "abi": [
    {
      "inputs": [
        {
          "internalType": "address",
          "name": "charactersNftAddress",
          "type": "address"
        }
      ],
      "stateMutability": "nonpayable",
      "type": "constructor"
    },
    {
      "anonymous": false,
      "inputs": [
        {
          "indexed": true,
          "internalType": "address",
          "name": "user",
          "type": "address"
        },
        {
          "components": [
            {
              "internalType": "uint256",
              "name": "request_id",
              "type": "uint256"
            },
            {
              "internalType": "uint32",
              "name": "character_class",
              "type": "uint32"
            },
            {
              "internalType": "string",
              "name": "_name",
              "type": "string"
            },
            {
              "internalType": "uint256",
              "name": "time_requested",
              "type": "uint256"
            }
          ],
          "indexed": false,
          "internalType": "struct character_request",
          "name": "request",
          "type": "tuple"
        }
      ],
      "name": "CharacterRequested",
      "type": "event"
    },
    {
      "anonymous": false,
      "inputs": [
        {
          "indexed": true,
          "internalType": "address",
          "name": "previousOwner",
          "type": "address"
        },
        {
          "indexed": true,
          "internalType": "address",
          "name": "newOwner",
          "type": "address"
        }
      ],
      "name": "OwnershipTransferred",
      "type": "event"
    },
    {
      "anonymous": false,
      "inputs": [
        {
          "indexed": false,
          "internalType": "address",
          "name": "account",
          "type": "address"
        }
      ],
      "name": "Paused",
      "type": "event"
    },
    {
      "anonymous": false,
      "inputs": [
        {
          "indexed": false,
          "internalType": "address",
          "name": "account",
          "type": "address"
        }
      ],
      "name": "Unpaused",
      "type": "event"
    },
    {
      "inputs": [],
      "name": "cancelRequestExperimental",
      "outputs": [],
      "stateMutability": "nonpayable",
      "type": "function"
    },
    {
      "inputs": [],
      "name": "mintCharacter",
      "outputs": [],
      "stateMutability": "nonpayable",
      "type": "function"
    },
    {
      "inputs": [
        {
          "internalType": "address",
          "name": "user",
          "type": "address"
        },
        {
          "internalType": "uint256[]",
          "name": "randomNumberRequested",
          "type": "uint256[]"
        }
      ],
      "name": "mintCharacterExperimental",
      "outputs": [],
      "stateMutability": "nonpayable",
      "type": "function"
    },
    {
      "inputs": [],
      "name": "owner",
      "outputs": [
        {
          "internalType": "address",
          "name": "",
          "type": "address"
        }
      ],
      "stateMutability": "view",
      "type": "function"
    },
    {
      "inputs": [],
      "name": "paused",
      "outputs": [
        {
          "internalType": "bool",
          "name": "",
          "type": "bool"
        }
      ],
      "stateMutability": "view",
      "type": "function"
    },
    {
      "inputs": [],
      "name": "renounceOwnership",
      "outputs": [],
      "stateMutability": "nonpayable",
      "type": "function"
    },
    {
      "inputs": [
        {
          "internalType": "address",
          "name": "",
          "type": "address"
        }
      ],
      "name": "request",
      "outputs": [
        {
          "internalType": "uint256",
          "name": "request_id",
          "type": "uint256"
        },
        {
          "internalType": "uint32",
          "name": "character_class",
          "type": "uint32"
        },
        {
          "internalType": "string",
          "name": "_name",
          "type": "string"
        },
        {
          "internalType": "uint256",
          "name": "time_requested",
          "type": "uint256"
        }
      ],
      "stateMutability": "view",
      "type": "function"
    },
    {
      "inputs": [
        {
          "internalType": "uint32",
          "name": "_character_class",
          "type": "uint32"
        },
        {
          "internalType": "string",
          "name": "_character_name",
          "type": "string"
        }
      ],
      "name": "requestCharacter",
      "outputs": [],
      "stateMutability": "payable",
      "type": "function"
    },
    {
      "inputs": [
        {
          "internalType": "uint32",
          "name": "_character_class",
          "type": "uint32"
        },
        {
          "internalType": "string",
          "name": "_character_name",
          "type": "string"
        }
      ],
      "name": "requestCharacterExperimental",
      "outputs": [],
      "stateMutability": "payable",
      "type": "function"
    },
    {
      "inputs": [
        {
          "internalType": "uint256",
          "name": "amount",
          "type": "uint256"
        }
      ],
      "name": "setMintFee",
      "outputs": [],
      "stateMutability": "nonpayable",
      "type": "function"
    },
    {
      "inputs": [
        {
          "internalType": "address",
          "name": "_vrf_contract_address",
          "type": "address"
        }
      ],
      "name": "setRandomizationContract",
      "outputs": [],
      "stateMutability": "nonpayable",
      "type": "function"
    },
    {
      "inputs": [
        {
          "internalType": "address",
          "name": "newOwner",
          "type": "address"
        }
      ],
      "name": "transferOwnership",
      "outputs": [],
      "stateMutability": "nonpayable",
      "type": "function"
    },
    {
      "inputs": [],
      "name": "withdraw",
      "outputs": [],
      "stateMutability": "nonpayable",
      "type": "function"
    }
  ],
  "bytecode": "0x60806040523480156200001157600080fd5b506040516200363838038062003638833981810160405281019062000037919062000230565b620000576200004b620000fa60201b60201c565b6200010260201b60201c565b60008060146101000a81548160ff02191690831515021790555080600360006101000a81548173ffffffffffffffffffffffffffffffffffffffff021916908373ffffffffffffffffffffffffffffffffffffffff16021790555033600460006101000a81548173ffffffffffffffffffffffffffffffffffffffff021916908373ffffffffffffffffffffffffffffffffffffffff1602179055505062000262565b600033905090565b60008060009054906101000a900473ffffffffffffffffffffffffffffffffffffffff169050816000806101000a81548173ffffffffffffffffffffffffffffffffffffffff021916908373ffffffffffffffffffffffffffffffffffffffff1602179055508173ffffffffffffffffffffffffffffffffffffffff168173ffffffffffffffffffffffffffffffffffffffff167f8be0079c531659141344cd1fd0a4f28419497f9722a3daafe3b4186f6b6457e060405160405180910390a35050565b600080fd5b600073ffffffffffffffffffffffffffffffffffffffff82169050919050565b6000620001f882620001cb565b9050919050565b6200020a81620001eb565b81146200021657600080fd5b50565b6000815190506200022a81620001ff565b92915050565b600060208284031215620002495762000248620001c6565b5b6000620002598482850162000219565b91505092915050565b6133c680620002726000396000f3fe6080604052600436106100c25760003560e01c80638da5cb5b1161007f578063cd07775b11610059578063cd07775b14610210578063eddd0d9c1461022c578063f2fde38b14610255578063faf039f41461027e576100c2565b80638da5cb5b146101a5578063b25f9b3e146101d0578063bd97bb81146101e7576100c2565b80630e4c5043146100c757806327c78c42146100e35780633ccfd60b146101235780635473e9781461013a5780635c975abb14610163578063715018a61461018e575b600080fd5b6100e160048036038101906100dc9190611e8c565b610295565b005b3480156100ef57600080fd5b5061010a60048036038101906101059190611f46565b610679565b60405161011a949392919061201a565b60405180910390f35b34801561012f57600080fd5b50610138610741565b005b34801561014657600080fd5b50610161600480360381019061015c9190611f46565b61081a565b005b34801561016f57600080fd5b506101786108a7565b6040516101859190612081565b60405180910390f35b34801561019a57600080fd5b506101a36108bd565b005b3480156101b157600080fd5b506101ba6108d1565b6040516101c791906120ab565b60405180910390f35b3480156101dc57600080fd5b506101e56108fa565b005b3480156101f357600080fd5b5061020e600480360381019061020991906121ba565b610c68565b005b61022a60048036038101906102259190611e8c565b610f11565b005b34801561023857600080fd5b50610253600480360381019061024e9190612216565b6112f6565b005b34801561026157600080fd5b5061027c60048036038101906102779190611f46565b611317565b005b34801561028a57600080fd5b5061029361139a565b005b61029d6116e6565b6000600660003373ffffffffffffffffffffffffffffffffffffffff1673ffffffffffffffffffffffffffffffffffffffff168152602001908152602001600020604051806080016040529081600082015481526020016001820160009054906101000a900463ffffffff1663ffffffff1663ffffffff16815260200160028201805461032990612272565b80601f016020809104026020016040519081016040528092919081815260200182805461035590612272565b80156103a25780601f10610377576101008083540402835291602001916103a2565b820191906000526020600020905b81548152906001019060200180831161038557829003601f168201915b50505050508152602001600382015481525050905060008160000151146103fe576040517f08c379a00000000000000000000000000000000000000000000000000000000081526004016103f590612315565b60405180910390fd5b60068363ffffffff1610610447576040517f08c379a000000000000000000000000000000000000000000000000000000000815260040161043e906123a7565b60405180910390fd5b60055434101561048c576040517f08c379a00000000000000000000000000000000000000000000000000000000081526004016104839061245f565b60405180910390fd5b6040518060800160405280600160009054906101000a900473ffffffffffffffffffffffffffffffffffffffff1673ffffffffffffffffffffffffffffffffffffffff16639bca039d336001806040518463ffffffff1660e01b81526004016104f7939291906124c4565b6020604051808303816000875af1158015610516573d6000803e3d6000fd5b505050506040513d601f19601f8201168201806040525081019061053a9190612510565b81526020018463ffffffff16815260200183815260200142815250600660003373ffffffffffffffffffffffffffffffffffffffff1673ffffffffffffffffffffffffffffffffffffffff1681526020019081526020016000206000820151816000015560208201518160010160006101000a81548163ffffffff021916908363ffffffff16021790555060408201518160020190816105da91906126df565b50606082015181600301559050503373ffffffffffffffffffffffffffffffffffffffff167f707f1d09cebd3bc4985eb24412527658e0122ce2bed37b28c114cf377df89254600660003373ffffffffffffffffffffffffffffffffffffffff1673ffffffffffffffffffffffffffffffffffffffff16815260200190815260200160002060405161066c9190612944565b60405180910390a2505050565b60066020528060005260406000206000915090508060000154908060010160009054906101000a900463ffffffff16908060020180546106b890612272565b80601f01602080910402602001604051908101604052809291908181526020018280546106e490612272565b80156107315780601f1061070657610100808354040283529160200191610731565b820191906000526020600020905b81548152906001019060200180831161071457829003601f168201915b5050505050908060030154905084565b610749611730565b6000600460009054906101000a900473ffffffffffffffffffffffffffffffffffffffff1673ffffffffffffffffffffffffffffffffffffffff164760405161079190612997565b60006040518083038185875af1925050503d80600081146107ce576040519150601f19603f3d011682016040523d82523d6000602084013e6107d3565b606091505b5050905080610817576040517f08c379a000000000000000000000000000000000000000000000000000000000815260040161080e906129f8565b60405180910390fd5b50565b610822611730565b80600260006101000a81548173ffffffffffffffffffffffffffffffffffffffff021916908373ffffffffffffffffffffffffffffffffffffffff16021790555080600160006101000a81548173ffffffffffffffffffffffffffffffffffffffff021916908373ffffffffffffffffffffffffffffffffffffffff16021790555050565b60008060149054906101000a900460ff16905090565b6108c5611730565b6108cf60006117ae565b565b60008060009054906101000a900473ffffffffffffffffffffffffffffffffffffffff16905090565b6000600660003373ffffffffffffffffffffffffffffffffffffffff1673ffffffffffffffffffffffffffffffffffffffff168152602001908152602001600020604051806080016040529081600082015481526020016001820160009054906101000a900463ffffffff1663ffffffff1663ffffffff16815260200160028201805461098690612272565b80601f01602080910402602001604051908101604052809291908181526020018280546109b290612272565b80156109ff5780601f106109d4576101008083540402835291602001916109ff565b820191906000526020600020905b8154815290600101906020018083116109e257829003601f168201915b5050505050815260200160038201548152505090506000816000015111610a5b576040517f08c379a0000000000000000000000000000000000000000000000000000000008152600401610a5290612a8a565b60405180910390fd5b610e10816060015142610a6e9190612ad9565b11610aae576040517f08c379a0000000000000000000000000000000000000000000000000000000008152600401610aa590612ba5565b60405180910390fd5b6000600160009054906101000a900473ffffffffffffffffffffffffffffffffffffffff1673ffffffffffffffffffffffffffffffffffffffff1663d8a4676f83600001516040518263ffffffff1660e01b8152600401610b0f9190612bc5565b600060405180830381865afa158015610b2c573d6000803e3d6000fd5b505050506040513d6000823e3d601f19601f82011682018060405250810190610b559190612ca3565b5090508015610b99576040517f08c379a0000000000000000000000000000000000000000000000000000000008152600401610b9090612d71565b60405180910390fd5b604051806080016040528060008152602001600063ffffffff16815260200160405180602001604052806000815250815260200142815250600660003373ffffffffffffffffffffffffffffffffffffffff1673ffffffffffffffffffffffffffffffffffffffff1681526020019081526020016000206000820151816000015560208201518160010160006101000a81548163ffffffff021916908363ffffffff1602179055506040820151816002019081610c5691906126df565b50606082015181600301559050505050565b600260009054906101000a900473ffffffffffffffffffffffffffffffffffffffff1673ffffffffffffffffffffffffffffffffffffffff163373ffffffffffffffffffffffffffffffffffffffff1614610cf8576040517f08c379a0000000000000000000000000000000000000000000000000000000008152600401610cef90612e29565b60405180910390fd5b6000600660008473ffffffffffffffffffffffffffffffffffffffff1673ffffffffffffffffffffffffffffffffffffffff168152602001908152602001600020604051806080016040529081600082015481526020016001820160009054906101000a900463ffffffff1663ffffffff1663ffffffff168152602001600282018054610d8490612272565b80601f0160208091040260200160405190810160405280929190818152602001828054610db090612272565b8015610dfd5780601f10610dd257610100808354040283529160200191610dfd565b820191906000526020600020905b815481529060010190602001808311610de057829003601f168201915b505050505081526020016003820154815250509050610e418383600081518110610e2a57610e29612e49565b5b602002602001015183602001518460400151611872565b604051806080016040528060008152602001600063ffffffff16815260200160405180602001604052806000815250815260200142815250600660008573ffffffffffffffffffffffffffffffffffffffff1673ffffffffffffffffffffffffffffffffffffffff1681526020019081526020016000206000820151816000015560208201518160010160006101000a81548163ffffffff021916908363ffffffff1602179055506040820151816002019081610efe91906126df565b5060608201518160030155905050505050565b610f196116e6565b6000600660003373ffffffffffffffffffffffffffffffffffffffff1673ffffffffffffffffffffffffffffffffffffffff168152602001908152602001600020604051806080016040529081600082015481526020016001820160009054906101000a900463ffffffff1663ffffffff1663ffffffff168152602001600282018054610fa590612272565b80601f0160208091040260200160405190810160405280929190818152602001828054610fd190612272565b801561101e5780601f10610ff35761010080835404028352916020019161101e565b820191906000526020600020905b81548152906001019060200180831161100157829003601f168201915b505050505081526020016003820154815250509050600081600001511461107a576040517f08c379a000000000000000000000000000000000000000000000000000000000815260040161107190612315565b60405180910390fd5b60068363ffffffff16106110c3576040517f08c379a00000000000000000000000000000000000000000000000000000000081526004016110ba906123a7565b60405180910390fd5b600554341015611108576040517f08c379a00000000000000000000000000000000000000000000000000000000081526004016110ff9061245f565b60405180910390fd5b6040518060800160405280600160009054906101000a900473ffffffffffffffffffffffffffffffffffffffff1673ffffffffffffffffffffffffffffffffffffffff16639bca039d33600160006040518463ffffffff1660e01b8152600401611174939291906124c4565b6020604051808303816000875af1158015611193573d6000803e3d6000fd5b505050506040513d601f19601f820116820180604052508101906111b79190612510565b81526020018463ffffffff16815260200183815260200142815250600660003373ffffffffffffffffffffffffffffffffffffffff1673ffffffffffffffffffffffffffffffffffffffff1681526020019081526020016000206000820151816000015560208201518160010160006101000a81548163ffffffff021916908363ffffffff160217905550604082015181600201908161125791906126df565b50606082015181600301559050503373ffffffffffffffffffffffffffffffffffffffff167f707f1d09cebd3bc4985eb24412527658e0122ce2bed37b28c114cf377df89254600660003373ffffffffffffffffffffffffffffffffffffffff1673ffffffffffffffffffffffffffffffffffffffff1681526020019081526020016000206040516112e99190612944565b60405180910390a2505050565b6112fe611730565b633b9aca008161130e9190612e78565b60058190555050565b61131f611730565b600073ffffffffffffffffffffffffffffffffffffffff168173ffffffffffffffffffffffffffffffffffffffff160361138e576040517f08c379a000000000000000000000000000000000000000000000000000000000815260040161138590612f2c565b60405180910390fd5b611397816117ae565b50565b6000600660003373ffffffffffffffffffffffffffffffffffffffff1673ffffffffffffffffffffffffffffffffffffffff168152602001908152602001600020604051806080016040529081600082015481526020016001820160009054906101000a900463ffffffff1663ffffffff1663ffffffff16815260200160028201805461142690612272565b80601f016020809104026020016040519081016040528092919081815260200182805461145290612272565b801561149f5780601f106114745761010080835404028352916020019161149f565b820191906000526020600020905b81548152906001019060200180831161148257829003601f168201915b50505050508152602001600382015481525050905060008160000151116114fb576040517f08c379a00000000000000000000000000000000000000000000000000000000081526004016114f290612f98565b60405180910390fd5b600080600160009054906101000a900473ffffffffffffffffffffffffffffffffffffffff1673ffffffffffffffffffffffffffffffffffffffff1663d8a4676f84600001516040518263ffffffff1660e01b815260040161155d9190612bc5565b600060405180830381865afa15801561157a573d6000803e3d6000fd5b505050506040513d6000823e3d601f19601f820116820180604052508101906115a39190612ca3565b91509150816115e7576040517f08c379a00000000000000000000000000000000000000000000000000000000081526004016115de9061302a565b60405180910390fd5b61161633826000815181106115ff576115fe612e49565b5b602002602001015185602001518660400151611872565b604051806080016040528060008152602001600063ffffffff16815260200160405180602001604052806000815250815260200142815250600660003373ffffffffffffffffffffffffffffffffffffffff1673ffffffffffffffffffffffffffffffffffffffff1681526020019081526020016000206000820151816000015560208201518160010160006101000a81548163ffffffff021916908363ffffffff16021790555060408201518160020190816116d391906126df565b5060608201518160030155905050505050565b6116ee6108a7565b1561172e576040517f08c379a000000000000000000000000000000000000000000000000000000000815260040161172590613096565b60405180910390fd5b565b611738611918565b73ffffffffffffffffffffffffffffffffffffffff166117566108d1565b73ffffffffffffffffffffffffffffffffffffffff16146117ac576040517f08c379a00000000000000000000000000000000000000000000000000000000081526004016117a390613102565b60405180910390fd5b565b60008060009054906101000a900473ffffffffffffffffffffffffffffffffffffffff169050816000806101000a81548173ffffffffffffffffffffffffffffffffffffffff021916908373ffffffffffffffffffffffffffffffffffffffff1602179055508173ffffffffffffffffffffffffffffffffffffffff168173ffffffffffffffffffffffffffffffffffffffff167f8be0079c531659141344cd1fd0a4f28419497f9722a3daafe3b4186f6b6457e060405160405180910390a35050565b600061187e8484611920565b9050600360009054906101000a900473ffffffffffffffffffffffffffffffffffffffff1673ffffffffffffffffffffffffffffffffffffffff16630dffcd858683856040518463ffffffff1660e01b81526004016118df939291906131c4565b600060405180830381600087803b1580156118f957600080fd5b505af115801561190d573d6000803e3d6000fd5b505050505050505050565b600033905090565b611928611c81565b600061193384611a8e565b9050600061195b8260078151811061194e5761194d612e49565b5b6020026020010151611b68565b905060008060006119be8560068151811061197957611978612e49565b5b60200260200101518660058151811061199557611994612e49565b5b6020026020010151876004815181106119b1576119b0612e49565b5b6020026020010151611b7e565b92509250925060006119ea866003815181106119dd576119dc612e49565b5b6020026020010151611c55565b90506000611a1287600281518110611a0557611a04612e49565b5b6020026020010151611c6b565b90506040518061010001604052808a63ffffffff1681526020018763ffffffff1681526020018663ffffffff1681526020018563ffffffff1681526020018463ffffffff1681526020018363ffffffff1681526020018263ffffffff168152602001600063ffffffff1681525097505050505050505092915050565b60606000600867ffffffffffffffff811115611aad57611aac611d61565b5b604051908082528060200260200182016040528015611adb5781602001602082028036833780820191505090505b509050600063ffffffff9050600080600790505b60008112611b5c5760008387169050602084901b93508281901c905080858381518110611b1f57611b1e612e49565b5b602002602001019063ffffffff16908163ffffffff1681525050602083611b469190613204565b9250508080611b5490613242565b915050611aef565b50829350505050919050565b6000600482611b7791906132b9565b9050919050565b6000806000806103e887611b9291906132b9565b905060006103e887611ba491906132b9565b905060006103e887611bb691906132b9565b90506000818385611bc791906132ea565b611bd191906132ea565b905060968161022686611be49190613322565b611bee919061335f565b611bf891906132ea565b965060968161022685611c0b9190613322565b611c15919061335f565b611c1f91906132ea565b955060968161022684611c329190613322565b611c3c919061335f565b611c4691906132ea565b94505050505093509350939050565b6000600682611c6491906132b9565b9050919050565b6000600a82611c7a91906132b9565b9050919050565b604051806101000160405280600063ffffffff168152602001600063ffffffff168152602001600063ffffffff168152602001600063ffffffff168152602001600063ffffffff168152602001600063ffffffff168152602001600063ffffffff168152602001600063ffffffff1681525090565b6000604051905090565b600080fd5b600080fd5b600063ffffffff82169050919050565b611d2381611d0a565b8114611d2e57600080fd5b50565b600081359050611d4081611d1a565b92915050565b600080fd5b600080fd5b6000601f19601f8301169050919050565b7f4e487b7100000000000000000000000000000000000000000000000000000000600052604160045260246000fd5b611d9982611d50565b810181811067ffffffffffffffff82111715611db857611db7611d61565b5b80604052505050565b6000611dcb611cf6565b9050611dd78282611d90565b919050565b600067ffffffffffffffff821115611df757611df6611d61565b5b611e0082611d50565b9050602081019050919050565b82818337600083830152505050565b6000611e2f611e2a84611ddc565b611dc1565b905082815260208101848484011115611e4b57611e4a611d4b565b5b611e56848285611e0d565b509392505050565b600082601f830112611e7357611e72611d46565b5b8135611e83848260208601611e1c565b91505092915050565b60008060408385031215611ea357611ea2611d00565b5b6000611eb185828601611d31565b925050602083013567ffffffffffffffff811115611ed257611ed1611d05565b5b611ede85828601611e5e565b9150509250929050565b600073ffffffffffffffffffffffffffffffffffffffff82169050919050565b6000611f1382611ee8565b9050919050565b611f2381611f08565b8114611f2e57600080fd5b50565b600081359050611f4081611f1a565b92915050565b600060208284031215611f5c57611f5b611d00565b5b6000611f6a84828501611f31565b91505092915050565b6000819050919050565b611f8681611f73565b82525050565b611f9581611d0a565b82525050565b600081519050919050565b600082825260208201905092915050565b60005b83811015611fd5578082015181840152602081019050611fba565b60008484015250505050565b6000611fec82611f9b565b611ff68185611fa6565b9350612006818560208601611fb7565b61200f81611d50565b840191505092915050565b600060808201905061202f6000830187611f7d565b61203c6020830186611f8c565b818103604083015261204e8185611fe1565b905061205d6060830184611f7d565b95945050505050565b60008115159050919050565b61207b81612066565b82525050565b60006020820190506120966000830184612072565b92915050565b6120a581611f08565b82525050565b60006020820190506120c0600083018461209c565b92915050565b600067ffffffffffffffff8211156120e1576120e0611d61565b5b602082029050602081019050919050565b600080fd5b61210081611f73565b811461210b57600080fd5b50565b60008135905061211d816120f7565b92915050565b6000612136612131846120c6565b611dc1565b90508083825260208201905060208402830185811115612159576121586120f2565b5b835b81811015612182578061216e888261210e565b84526020840193505060208101905061215b565b5050509392505050565b600082601f8301126121a1576121a0611d46565b5b81356121b1848260208601612123565b91505092915050565b600080604083850312156121d1576121d0611d00565b5b60006121df85828601611f31565b925050602083013567ffffffffffffffff811115612200576121ff611d05565b5b61220c8582860161218c565b9150509250929050565b60006020828403121561222c5761222b611d00565b5b600061223a8482850161210e565b91505092915050565b7f4e487b7100000000000000000000000000000000000000000000000000000000600052602260045260246000fd5b6000600282049050600182168061228a57607f821691505b60208210810361229d5761229c612243565b5b50919050565b7f634d4e54523a205468657265206973206120726571756573742070656e64696e60008201527f67206d696e742e00000000000000000000000000000000000000000000000000602082015250565b60006122ff602783611fa6565b915061230a826122a3565b604082019050919050565b6000602082019050818103600083015261232e816122f2565b9050919050565b7f634d4e54523a20496e636f7272656374206e756d62657220666f72206120636860008201527f6172616374657220636c6173732e000000000000000000000000000000000000602082015250565b6000612391602e83611fa6565b915061239c82612335565b604082019050919050565b600060208201905081810360008301526123c081612384565b9050919050565b7f634d4e54523a20496e636f727265637420616d6f756e7420666f72206368617260008201527f6163746572206d696e74696e672e2053656e642065786163746c7920302e303160208201527f204d4154494320706572206974656d207265717565737465642e000000000000604082015250565b6000612449605a83611fa6565b9150612454826123c7565b606082019050919050565b600060208201905081810360008301526124788161243c565b9050919050565b6000819050919050565b6000819050919050565b60006124ae6124a96124a48461247f565b612489565b611d0a565b9050919050565b6124be81612493565b82525050565b60006060820190506124d9600083018661209c565b6124e660208301856124b5565b6124f36040830184612072565b949350505050565b60008151905061250a816120f7565b92915050565b60006020828403121561252657612525611d00565b5b6000612534848285016124fb565b91505092915050565b60008190508160005260206000209050919050565b60006020601f8301049050919050565b600082821b905092915050565b60006008830261259f7fffffffffffffffffffffffffffffffffffffffffffffffffffffffffffffffff82612562565b6125a98683612562565b95508019841693508086168417925050509392505050565b60006125dc6125d76125d284611f73565b612489565b611f73565b9050919050565b6000819050919050565b6125f6836125c1565b61260a612602826125e3565b84845461256f565b825550505050565b600090565b61261f612612565b61262a8184846125ed565b505050565b5b8181101561264e57612643600082612617565b600181019050612630565b5050565b601f821115612693576126648161253d565b61266d84612552565b8101602085101561267c578190505b61269061268885612552565b83018261262f565b50505b505050565b600082821c905092915050565b60006126b660001984600802612698565b1980831691505092915050565b60006126cf83836126a5565b9150826002028217905092915050565b6126e882611f9b565b67ffffffffffffffff81111561270157612700611d61565b5b61270b8254612272565b612716828285612652565b600060209050601f8311600181146127495760008415612737578287015190505b61274185826126c3565b8655506127a9565b601f1984166127578661253d565b60005b8281101561277f5784890151825560018201915060208501945060208101905061275a565b8683101561279c5784890151612798601f8916826126a5565b8355505b6001600288020188555050505b505050505050565b60008160001c9050919050565b6000819050919050565b60006127db6127d6836127b1565b6127be565b9050919050565b6127eb81611f73565b82525050565b600063ffffffff82169050919050565b600061281461280f836127b1565b6127f1565b9050919050565b61282481611d0a565b82525050565b600082825260208201905092915050565b6000815461284881612272565b612852818661282a565b9450600182166000811461286d5760018114612883576128b6565b60ff1983168652811515602002860193506128b6565b61288c8561253d565b60005b838110156128ae5781548189015260018201915060208101905061288f565b808801955050505b50505092915050565b60006080830160008084015490506128d6816127c8565b6128e360008701826127e2565b50600184015490506128f481612801565b612901602087018261281b565b50600284018583036040870152612918838261283b565b9250506003840154905061292b816127c8565b61293860608701826127e2565b50819250505092915050565b6000602082019050818103600083015261295e81846128bf565b905092915050565b600081905092915050565b50565b6000612981600083612966565b915061298c82612971565b600082019050919050565b60006129a282612974565b9150819050919050565b7f4661696c656420746f207769746864726177206d61746963732e000000000000600082015250565b60006129e2601a83611fa6565b91506129ed826129ac565b602082019050919050565b60006020820190508181036000830152612a11816129d5565b9050919050565b7f634d4e54523a2043616e6e6f742063616e63656c206e6f6e2d6578697374696e60008201527f672072657175657374732e000000000000000000000000000000000000000000602082015250565b6000612a74602b83611fa6565b9150612a7f82612a18565b604082019050919050565b60006020820190508181036000830152612aa381612a67565b9050919050565b7f4e487b7100000000000000000000000000000000000000000000000000000000600052601160045260246000fd5b6000612ae482611f73565b9150612aef83611f73565b9250828203905081811115612b0757612b06612aaa565b5b92915050565b7f634d4e54523a2043616e6e6f742063616e63656c20726571756573747320746860008201527f617420686176656e74206c6170736564203120686f75722066726f6d2074696d60208201527f65207265717565737465642e0000000000000000000000000000000000000000604082015250565b6000612b8f604c83611fa6565b9150612b9a82612b0d565b606082019050919050565b60006020820190508181036000830152612bbe81612b82565b9050919050565b6000602082019050612bda6000830184611f7d565b92915050565b612be981612066565b8114612bf457600080fd5b50565b600081519050612c0681612be0565b92915050565b6000612c1f612c1a846120c6565b611dc1565b90508083825260208201905060208402830185811115612c4257612c416120f2565b5b835b81811015612c6b5780612c5788826124fb565b845260208401935050602081019050612c44565b5050509392505050565b600082601f830112612c8a57612c89611d46565b5b8151612c9a848260208601612c0c565b91505092915050565b60008060408385031215612cba57612cb9611d00565b5b6000612cc885828601612bf7565b925050602083015167ffffffffffffffff811115612ce957612ce8611d05565b5b612cf585828601612c75565b9150509250929050565b7f634d4e54523a2043616e6e6f742063616e63656c20726571756573747320746860008201527f6174206861766520616c7265616479206265656e2066756c66696c6c65642e00602082015250565b6000612d5b603f83611fa6565b9150612d6682612cff565b604082019050919050565b60006020820190508181036000830152612d8a81612d4e565b9050919050565b7f634d4e54523a2043616e206f6e6c792062652063616c6c65642062792074686560008201527f2056524620436f6e747261637420666f722065717569706d656e74206372616660208201527f74696e672e000000000000000000000000000000000000000000000000000000604082015250565b6000612e13604583611fa6565b9150612e1e82612d91565b606082019050919050565b60006020820190508181036000830152612e4281612e06565b9050919050565b7f4e487b7100000000000000000000000000000000000000000000000000000000600052603260045260246000fd5b6000612e8382611f73565b9150612e8e83611f73565b9250828202612e9c81611f73565b91508282048414831517612eb357612eb2612aaa565b5b5092915050565b7f4f776e61626c653a206e6577206f776e657220697320746865207a65726f206160008201527f6464726573730000000000000000000000000000000000000000000000000000602082015250565b6000612f16602683611fa6565b9150612f2182612eba565b604082019050919050565b60006020820190508181036000830152612f4581612f09565b9050919050565b7f634d4e5452533a204e6f207265717565737420746f206d696e742e0000000000600082015250565b6000612f82601b83611fa6565b9150612f8d82612f4c565b602082019050919050565b60006020820190508181036000830152612fb181612f75565b9050919050565b7f634d4e5452533a2052657175657374206973206e6f74207965742066756c666960008201527f6c6c6564206f7220696e76616c696420726571756573742069642e0000000000602082015250565b6000613014603b83611fa6565b915061301f82612fb8565b604082019050919050565b6000602082019050818103600083015261304381613007565b9050919050565b7f5061757361626c653a2070617573656400000000000000000000000000000000600082015250565b6000613080601083611fa6565b915061308b8261304a565b602082019050919050565b600060208201905081810360008301526130af81613073565b9050919050565b7f4f776e61626c653a2063616c6c6572206973206e6f7420746865206f776e6572600082015250565b60006130ec602083611fa6565b91506130f7826130b6565b602082019050919050565b6000602082019050818103600083015261311b816130df565b9050919050565b61010082016000820151613139600085018261281b565b50602082015161314c602085018261281b565b50604082015161315f604085018261281b565b506060820151613172606085018261281b565b506080820151613185608085018261281b565b5060a082015161319860a085018261281b565b5060c08201516131ab60c085018261281b565b5060e08201516131be60e085018261281b565b50505050565b6000610140820190506131da600083018661209c565b6131e76020830185613122565b8181036101208301526131fa8184611fe1565b9050949350505050565b600061320f82611f73565b915061321a83611f73565b925082820190508082111561323257613231612aaa565b5b92915050565b6000819050919050565b600061324d82613238565b91507f8000000000000000000000000000000000000000000000000000000000000000820361327f5761327e612aaa565b5b600182039050919050565b7f4e487b7100000000000000000000000000000000000000000000000000000000600052601260045260246000fd5b60006132c482611d0a565b91506132cf83611d0a565b9250826132df576132de61328a565b5b828206905092915050565b60006132f582611d0a565b915061330083611d0a565b9250828201905063ffffffff81111561331c5761331b612aaa565b5b92915050565b600061332d82611d0a565b915061333883611d0a565b925082820261334681611d0a565b915080821461335857613357612aaa565b5b5092915050565b600061336a82611d0a565b915061337583611d0a565b9250826133855761338461328a565b5b82820490509291505056fea2646970667358221220aa4c8b9154619b0c64788d081e01ee2c20b5d67522ed824a1b2f63db4d5b9a4564736f6c63430008110033",
  "linkReferences": {},
  "deployedLinkReferences": {}
}