{
  "_format": "hh-sol-artifact-1",
  "contractName": "Dungeons",
  "sourceName": "contracts/core/dungeons/Dungeons.sol",
  "abi": [
    {
      "inputs": [
        {
          "internalType": "address",
          "name": "charactersNftAddress",
          "type": "address"
        },
        {
          "internalType": "address",
          "name": "equipmentNftAddress",
          "type": "address"
        },
        {
          "internalType": "address",
          "name": "equipmentManagerAddress",
          "type": "address"
        },
        {
          "internalType": "address[4]",
          "name": "materials",
          "type": "address[4]"
        },
        {
          "internalType": "address",
          "name": "enerlinkAddress",
          "type": "address"
        }
      ],
      "stateMutability": "nonpayable",
      "type": "constructor"
    },
    {
      "anonymous": false,
      "inputs": [
        {
          "indexed": false,
          "internalType": "uint256",
          "name": "battle_id",
          "type": "uint256"
        },
        {
          "indexed": false,
          "internalType": "uint256",
          "name": "battle_result",
          "type": "uint256"
        }
      ],
      "name": "BattleEnded",
      "type": "event"
    },
    {
      "anonymous": false,
      "inputs": [
        {
          "indexed": true,
          "internalType": "address",
          "name": "user",
          "type": "address"
        },
        {
          "components": [
            {
              "internalType": "uint256",
              "name": "request_id",
              "type": "uint256"
            },
            {
              "internalType": "uint64",
              "name": "dungeon_type",
              "type": "uint64"
            },
            {
              "internalType": "uint64",
              "name": "tier",
              "type": "uint64"
            },
            {
              "internalType": "uint64",
              "name": "result",
              "type": "uint64"
            },
            {
              "internalType": "uint64",
              "name": "max_loot",
              "type": "uint64"
            },
            {
              "internalType": "uint256",
              "name": "character_id",
              "type": "uint256"
            },
            {
              "internalType": "bool",
              "name": "completed",
              "type": "bool"
            }
          ],
          "indexed": false,
          "internalType": "struct battle_request",
          "name": "request",
          "type": "tuple"
        }
      ],
      "name": "BattleRequested",
      "type": "event"
    },
    {
      "anonymous": false,
      "inputs": [
        {
          "components": [
            {
              "internalType": "uint256",
              "name": "request_id",
              "type": "uint256"
            },
            {
              "internalType": "uint64",
              "name": "dungeon_type",
              "type": "uint64"
            },
            {
              "internalType": "uint64",
              "name": "tier",
              "type": "uint64"
            },
            {
              "internalType": "uint64",
              "name": "result",
              "type": "uint64"
            },
            {
              "internalType": "uint64",
              "name": "max_loot",
              "type": "uint64"
            },
            {
              "internalType": "uint256",
              "name": "character_id",
              "type": "uint256"
            },
            {
              "internalType": "bool",
              "name": "completed",
              "type": "bool"
            }
          ],
          "indexed": false,
          "internalType": "struct battle_request",
          "name": "request",
          "type": "tuple"
        },
        {
          "components": [
            {
              "internalType": "uint32",
              "name": "character_class",
              "type": "uint32"
            },
            {
              "internalType": "uint32",
              "name": "element",
              "type": "uint32"
            },
            {
              "internalType": "uint32",
              "name": "str",
              "type": "uint32"
            },
            {
              "internalType": "uint32",
              "name": "vit",
              "type": "uint32"
            },
            {
              "internalType": "uint32",
              "name": "dex",
              "type": "uint32"
            },
            {
              "internalType": "uint32",
              "name": "talent",
              "type": "uint32"
            },
            {
              "internalType": "uint32",
              "name": "mood",
              "type": "uint32"
            },
            {
              "internalType": "uint32",
              "name": "exp",
              "type": "uint32"
            }
          ],
          "indexed": false,
          "internalType": "struct character_properties",
          "name": "char_props",
          "type": "tuple"
        },
        {
          "components": [
            {
              "internalType": "uint256",
              "name": "atk",
              "type": "uint256"
            },
            {
              "internalType": "uint256",
              "name": "def",
              "type": "uint256"
            },
            {
              "internalType": "uint256",
              "name": "eva",
              "type": "uint256"
            },
            {
              "internalType": "uint256",
              "name": "hp",
              "type": "uint256"
            },
            {
              "internalType": "uint256",
              "name": "pen",
              "type": "uint256"
            },
            {
              "internalType": "uint256",
              "name": "crit",
              "type": "uint256"
            },
            {
              "internalType": "uint256",
              "name": "luck",
              "type": "uint256"
            },
            {
              "internalType": "uint256",
              "name": "energy_restoration",
              "type": "uint256"
            }
          ],
          "indexed": false,
          "internalType": "struct battle_stats",
          "name": "char_stats",
          "type": "tuple"
        },
        {
          "components": [
            {
              "internalType": "uint256",
              "name": "dungeon",
              "type": "uint256"
            },
            {
              "internalType": "uint256",
              "name": "tier",
              "type": "uint256"
            },
            {
              "internalType": "uint256",
              "name": "_type",
              "type": "uint256"
            },
            {
              "internalType": "uint256",
              "name": "attr_sum",
              "type": "uint256"
            },
            {
              "internalType": "uint256",
              "name": "attr_alloc",
              "type": "uint256"
            }
          ],
          "indexed": false,
          "internalType": "struct enemy_properties",
          "name": "enemy_props",
          "type": "tuple"
        },
        {
          "components": [
            {
              "internalType": "uint256",
              "name": "atk",
              "type": "uint256"
            },
            {
              "internalType": "uint256",
              "name": "def",
              "type": "uint256"
            },
            {
              "internalType": "uint256",
              "name": "eva",
              "type": "uint256"
            },
            {
              "internalType": "uint256",
              "name": "hp",
              "type": "uint256"
            },
            {
              "internalType": "uint256",
              "name": "pen",
              "type": "uint256"
            },
            {
              "internalType": "uint256",
              "name": "crit",
              "type": "uint256"
            },
            {
              "internalType": "uint256",
              "name": "luck",
              "type": "uint256"
            },
            {
              "internalType": "uint256",
              "name": "energy_restoration",
              "type": "uint256"
            }
          ],
          "indexed": false,
          "internalType": "struct battle_stats",
          "name": "enemy_stats",
          "type": "tuple"
        }
      ],
      "name": "BattleStarted",
      "type": "event"
    },
    {
      "anonymous": false,
      "inputs": [
        {
          "indexed": false,
          "internalType": "uint256",
          "name": "battle_id",
          "type": "uint256"
        },
        {
          "components": [
            {
              "components": [
                {
                  "internalType": "bool",
                  "name": "evaded",
                  "type": "bool"
                },
                {
                  "internalType": "bool",
                  "name": "penetrated",
                  "type": "bool"
                },
                {
                  "internalType": "bool",
                  "name": "critical_hit",
                  "type": "bool"
                },
                {
                  "internalType": "uint256",
                  "name": "damage",
                  "type": "uint256"
                }
              ],
              "internalType": "struct attack_event",
              "name": "attack1",
              "type": "tuple"
            },
            {
              "components": [
                {
                  "internalType": "bool",
                  "name": "evaded",
                  "type": "bool"
                },
                {
                  "internalType": "bool",
                  "name": "penetrated",
                  "type": "bool"
                },
                {
                  "internalType": "bool",
                  "name": "critical_hit",
                  "type": "bool"
                },
                {
                  "internalType": "uint256",
                  "name": "damage",
                  "type": "uint256"
                }
              ],
              "internalType": "struct attack_event",
              "name": "attack2",
              "type": "tuple"
            },
            {
              "components": [
                {
                  "internalType": "uint256",
                  "name": "char_hp",
                  "type": "uint256"
                },
                {
                  "internalType": "uint256",
                  "name": "char_def",
                  "type": "uint256"
                },
                {
                  "internalType": "uint256",
                  "name": "enem_hp",
                  "type": "uint256"
                },
                {
                  "internalType": "uint256",
                  "name": "enem_def",
                  "type": "uint256"
                }
              ],
              "internalType": "struct battlers_balances",
              "name": "balances",
              "type": "tuple"
            }
          ],
          "indexed": false,
          "internalType": "struct clash_event",
          "name": "clash",
          "type": "tuple"
        },
        {
          "components": [
            {
              "internalType": "uint256",
              "name": "char_hp",
              "type": "uint256"
            },
            {
              "internalType": "uint256",
              "name": "char_def",
              "type": "uint256"
            },
            {
              "internalType": "uint256",
              "name": "enem_hp",
              "type": "uint256"
            },
            {
              "internalType": "uint256",
              "name": "enem_def",
              "type": "uint256"
            }
          ],
          "indexed": false,
          "internalType": "struct battlers_balances",
          "name": "balances",
          "type": "tuple"
        }
      ],
      "name": "Clashed",
      "type": "event"
    },
    {
      "anonymous": false,
      "inputs": [
        {
          "indexed": false,
          "internalType": "uint256",
          "name": "dungeon1",
          "type": "uint256"
        },
        {
          "indexed": false,
          "internalType": "uint256",
          "name": "dungeon2",
          "type": "uint256"
        },
        {
          "indexed": false,
          "internalType": "uint256",
          "name": "dungeon3",
          "type": "uint256"
        }
      ],
      "name": "DungeonsReplenished",
      "type": "event"
    },
    {
      "anonymous": false,
      "inputs": [
        {
          "indexed": true,
          "internalType": "address",
          "name": "previousOwner",
          "type": "address"
        },
        {
          "indexed": true,
          "internalType": "address",
          "name": "newOwner",
          "type": "address"
        }
      ],
      "name": "OwnershipTransferred",
      "type": "event"
    },
    {
      "inputs": [
        {
          "internalType": "address",
          "name": "",
          "type": "address"
        }
      ],
      "name": "battle_requests",
      "outputs": [
        {
          "internalType": "uint256",
          "name": "request_id",
          "type": "uint256"
        },
        {
          "internalType": "uint64",
          "name": "dungeon_type",
          "type": "uint64"
        },
        {
          "internalType": "uint64",
          "name": "tier",
          "type": "uint64"
        },
        {
          "internalType": "uint64",
          "name": "result",
          "type": "uint64"
        },
        {
          "internalType": "uint64",
          "name": "max_loot",
          "type": "uint64"
        },
        {
          "internalType": "uint256",
          "name": "character_id",
          "type": "uint256"
        },
        {
          "internalType": "bool",
          "name": "completed",
          "type": "bool"
        }
      ],
      "stateMutability": "view",
      "type": "function"
    },
    {
      "inputs": [
        {
          "internalType": "uint256",
          "name": "character_id",
          "type": "uint256"
        }
      ],
      "name": "consumeEnerLink",
      "outputs": [
        {
          "internalType": "bool",
          "name": "restored",
          "type": "bool"
        }
      ],
      "stateMutability": "nonpayable",
      "type": "function"
    },
    {
      "inputs": [
        {
          "internalType": "uint256",
          "name": "",
          "type": "uint256"
        }
      ],
      "name": "dungeon_loot_cap",
      "outputs": [
        {
          "internalType": "uint256",
          "name": "",
          "type": "uint256"
        }
      ],
      "stateMutability": "view",
      "type": "function"
    },
    {
      "inputs": [
        {
          "internalType": "uint256",
          "name": "",
          "type": "uint256"
        }
      ],
      "name": "dungeon_loot_remaining",
      "outputs": [
        {
          "internalType": "uint256",
          "name": "",
          "type": "uint256"
        }
      ],
      "stateMutability": "view",
      "type": "function"
    },
    {
      "inputs": [
        {
          "internalType": "uint256",
          "name": "",
          "type": "uint256"
        }
      ],
      "name": "energy_balances",
      "outputs": [
        {
          "internalType": "uint256",
          "name": "energy",
          "type": "uint256"
        },
        {
          "internalType": "uint256",
          "name": "time_last_updated",
          "type": "uint256"
        }
      ],
      "stateMutability": "view",
      "type": "function"
    },
    {
      "inputs": [
        {
          "internalType": "uint256",
          "name": "character_id",
          "type": "uint256"
        },
        {
          "internalType": "uint64",
          "name": "dungeon",
          "type": "uint64"
        },
        {
          "internalType": "uint64",
          "name": "tier",
          "type": "uint64"
        }
      ],
      "name": "findBattle",
      "outputs": [],
      "stateMutability": "payable",
      "type": "function"
    },
    {
      "inputs": [
        {
          "internalType": "uint256",
          "name": "character_id",
          "type": "uint256"
        }
      ],
      "name": "getCharacterEnergy",
      "outputs": [
        {
          "internalType": "uint256",
          "name": "character_energy",
          "type": "uint256"
        }
      ],
      "stateMutability": "view",
      "type": "function"
    },
    {
      "inputs": [],
      "name": "owner",
      "outputs": [
        {
          "internalType": "address",
          "name": "",
          "type": "address"
        }
      ],
      "stateMutability": "view",
      "type": "function"
    },
    {
      "inputs": [],
      "name": "renounceOwnership",
      "outputs": [],
      "stateMutability": "nonpayable",
      "type": "function"
    },
    {
      "inputs": [],
      "name": "replenishDungeonLoot",
      "outputs": [],
      "stateMutability": "nonpayable",
      "type": "function"
    },
    {
      "inputs": [
        {
          "internalType": "uint256",
          "name": "amount",
          "type": "uint256"
        }
      ],
      "name": "setBattleFee",
      "outputs": [],
      "stateMutability": "nonpayable",
      "type": "function"
    },
    {
      "inputs": [
        {
          "internalType": "address",
          "name": "keeperAddress",
          "type": "address"
        }
      ],
      "name": "setDungeonKeeper",
      "outputs": [],
      "stateMutability": "nonpayable",
      "type": "function"
    },
    {
      "inputs": [
        {
          "internalType": "uint256",
          "name": "dungeon",
          "type": "uint256"
        },
        {
          "internalType": "uint256",
          "name": "amount",
          "type": "uint256"
        }
      ],
      "name": "setDungeonLootCap",
      "outputs": [],
      "stateMutability": "nonpayable",
      "type": "function"
    },
    {
      "inputs": [
        {
          "internalType": "address",
          "name": "_vrf_contract_address",
          "type": "address"
        }
      ],
      "name": "setRandomizationContract",
      "outputs": [],
      "stateMutability": "nonpayable",
      "type": "function"
    },
    {
      "inputs": [],
      "name": "startBattle",
      "outputs": [],
      "stateMutability": "nonpayable",
      "type": "function"
    },
    {
      "inputs": [
        {
          "internalType": "address",
          "name": "newOwner",
          "type": "address"
        }
      ],
      "name": "transferOwnership",
      "outputs": [],
      "stateMutability": "nonpayable",
      "type": "function"
    },
    {
      "inputs": [],
      "name": "withdraw",
      "outputs": [],
      "stateMutability": "nonpayable",
      "type": "function"
    }
  ],
  "bytecode": "0x60806040523480156200001157600080fd5b50604051620055823803806200558283398181016040528101906200003791906200059f565b620000576200004b6200025b60201b60201c565b6200026360201b60201c565b84600260006101000a81548173ffffffffffffffffffffffffffffffffffffffff021916908373ffffffffffffffffffffffffffffffffffffffff16021790555083600360006101000a81548173ffffffffffffffffffffffffffffffffffffffff021916908373ffffffffffffffffffffffffffffffffffffffff16021790555082600460006101000a81548173ffffffffffffffffffffffffffffffffffffffff021916908373ffffffffffffffffffffffffffffffffffffffff16021790555081600a9060046200012d92919062000327565b5080600560006101000a81548173ffffffffffffffffffffffffffffffffffffffff021916908373ffffffffffffffffffffffffffffffffffffffff16021790555033600660006101000a81548173ffffffffffffffffffffffffffffffffffffffff021916908373ffffffffffffffffffffffffffffffffffffffff16021790555061034c600e60008081526020019081526020016000208190555061034c600e6000600181526020019081526020016000208190555061034c600e6000600281526020019081526020016000208190555061034c600f60008081526020019081526020016000208190555061034c600f6000600181526020019081526020016000208190555061034c600f60006002815260200190815260200160002081905550505050505062000628565b600033905090565b60008060009054906101000a900473ffffffffffffffffffffffffffffffffffffffff169050816000806101000a81548173ffffffffffffffffffffffffffffffffffffffff021916908373ffffffffffffffffffffffffffffffffffffffff1602179055508173ffffffffffffffffffffffffffffffffffffffff168173ffffffffffffffffffffffffffffffffffffffff167f8be0079c531659141344cd1fd0a4f28419497f9722a3daafe3b4186f6b6457e060405160405180910390a35050565b826004810192821562000396579160200282015b82811115620003955782518260006101000a81548173ffffffffffffffffffffffffffffffffffffffff021916908373ffffffffffffffffffffffffffffffffffffffff160217905550916020019190600101906200033b565b5b509050620003a59190620003a9565b5090565b5b80821115620003c4576000816000905550600101620003aa565b5090565b6000604051905090565b600080fd5b600073ffffffffffffffffffffffffffffffffffffffff82169050919050565b60006200040482620003d7565b9050919050565b6200041681620003f7565b81146200042257600080fd5b50565b60008151905062000436816200040b565b92915050565b600080fd5b6000601f19601f8301169050919050565b7f4e487b7100000000000000000000000000000000000000000000000000000000600052604160045260246000fd5b6200048c8262000441565b810181811067ffffffffffffffff82111715620004ae57620004ad62000452565b5b80604052505050565b6000620004c3620003c8565b9050620004d1828262000481565b919050565b600067ffffffffffffffff821115620004f457620004f362000452565b5b602082029050919050565b600080fd5b60006200051b6200051584620004d6565b620004b7565b90508060208402830185811115620005385762000537620004ff565b5b835b8181101562000565578062000550888262000425565b8452602084019350506020810190506200053a565b5050509392505050565b600082601f8301126200058757620005866200043c565b5b60046200059684828562000504565b91505092915050565b60008060008060006101008688031215620005bf57620005be620003d2565b5b6000620005cf8882890162000425565b9550506020620005e28882890162000425565b9450506040620005f58882890162000425565b935050606062000608888289016200056f565b92505060e06200061b8882890162000425565b9150509295509295909350565b614f4a80620006386000396000f3fe6080604052600436106100fe5760003560e01c80637ec80d16116100955780639493ac07116100645780639493ac07146102ed578063c653befd14610316578063db14bfb414610359578063f2fde38b14610396578063fb33e5ae146103bf576100fe565b80637ec80d16146102315780637f6a078a1461026e57806382b816b3146102855780638da5cb5b146102c2576100fe565b806353b8dd77116100d157806353b8dd77146101975780635473e978146101d55780636771ebda146101fe578063715018a61461021a576100fe565b8063240a2c97146101035780632d035fb41461011a5780633ccfd60b146101435780634117e4c41461015a575b600080fd5b34801561010f57600080fd5b506101186103e8565b005b34801561012657600080fd5b50610141600480360381019061013c9190613672565b610976565b005b34801561014f57600080fd5b5061015861099a565b005b34801561016657600080fd5b50610181600480360381019061017c91906136b2565b610a73565b60405161018e91906136ee565b60405180910390f35b3480156101a357600080fd5b506101be60048036038101906101b991906136b2565b610a8b565b6040516101cc929190613709565b60405180910390f35b3480156101e157600080fd5b506101fc60048036038101906101f79190613790565b610aaf565b005b610218600480360381019061021391906137fd565b610afb565b005b34801561022657600080fd5b5061022f611056565b005b34801561023d57600080fd5b50610258600480360381019061025391906136b2565b61106a565b60405161026591906136ee565b60405180910390f35b34801561027a57600080fd5b506102836110d2565b005b34801561029157600080fd5b506102ac60048036038101906102a791906136b2565b61125f565b6040516102b991906136ee565b60405180910390f35b3480156102ce57600080fd5b506102d7611277565b6040516102e4919061385f565b60405180910390f35b3480156102f957600080fd5b50610314600480360381019061030f91906136b2565b6112a0565b005b34801561032257600080fd5b5061033d60048036038101906103389190613790565b6112c1565b60405161035097969594939291906138a4565b60405180910390f35b34801561036557600080fd5b50610380600480360381019061037b91906136b2565b611360565b60405161038d9190613913565b60405180910390f35b3480156103a257600080fd5b506103bd60048036038101906103b89190613790565b61148f565b005b3480156103cb57600080fd5b506103e660048036038101906103e19190613790565b611512565b005b6000600860003373ffffffffffffffffffffffffffffffffffffffff1673ffffffffffffffffffffffffffffffffffffffff1681526020019081526020016000206040518060e0016040529081600082015481526020016001820160009054906101000a900467ffffffffffffffff1667ffffffffffffffff1667ffffffffffffffff1681526020016001820160089054906101000a900467ffffffffffffffff1667ffffffffffffffff1667ffffffffffffffff1681526020016001820160109054906101000a900467ffffffffffffffff1667ffffffffffffffff1667ffffffffffffffff1681526020016001820160189054906101000a900467ffffffffffffffff1667ffffffffffffffff1667ffffffffffffffff168152602001600282015481526020016003820160009054906101000a900460ff1615151515815250509050600080600160009054906101000a900473ffffffffffffffffffffffffffffffffffffffff1673ffffffffffffffffffffffffffffffffffffffff1663d8a4676f84600001516040518263ffffffff1660e01b815260040161058f91906136ee565b600060405180830381865afa1580156105ac573d6000803e3d6000fd5b505050506040513d6000823e3d601f19601f820116820180604052508101906105d59190613ac8565b9150915081610619576040517f08c379a000000000000000000000000000000000000000000000000000000000815260040161061090613b81565b60405180910390fd5b600061063f8260008151811061063257610631613ba1565b5b602002602001015161155e565b90506000806106518660a00151611632565b915091506000806106b6886020015167ffffffffffffffff16896040015167ffffffffffffffff168760008151811061068d5761068c613ba1565b5b6020026020010151886001815181106106a9576106a8613ba1565b5b6020026020010151611709565b9150915060648460e0015163ffffffff161080156106e257506000886040015167ffffffffffffffff16145b1561070e576064601982606001516106fa9190613bff565b6107049190613c70565b8160600181815250505b7f35cc45055cf75bfd1439799d9a9a7ee9fcaf6b8b4d3e913f71201b1d602246a48885858585604051610745959493929190613f27565b60405180910390a18760c0015115610792576040517f08c379a000000000000000000000000000000000000000000000000000000000815260040161078990613ff0565b60405180910390fd5b6001600860003373ffffffffffffffffffffffffffffffffffffffff1673ffffffffffffffffffffffffffffffffffffffff16815260200190815260200160002060030160006101000a81548160ff02191690831515021790555060006108018960000151868686868c611785565b905080600860003373ffffffffffffffffffffffffffffffffffffffff1673ffffffffffffffffffffffffffffffffffffffff16815260200190815260200160002060010160106101000a81548167ffffffffffffffff021916908367ffffffffffffffff16021790555060018167ffffffffffffffff16148061088f575060028167ffffffffffffffff16145b1561089f5761089e8986611b26565b5b60018167ffffffffffffffff160361091c5761091b89876002815181106108c9576108c8613ba1565b5b602002602001015161ffff16886003815181106108e9576108e8613ba1565b5b602002602001015161ffff168960048151811061090957610908613ba1565b5b602002602001015161ffff1633611cd8565b5b61092e8960a001518560e00151611ecd565b7f277c2ba9c8248b5a28abd67ee9d4e2a32e7c0a3914aa3d726deef541031e29ee89600001518260405161096392919061404b565b60405180910390a1505050505050505050565b61097e611f0e565b80600f6000848152602001908152602001600020819055505050565b6109a2611f0e565b6000600660009054906101000a900473ffffffffffffffffffffffffffffffffffffffff1673ffffffffffffffffffffffffffffffffffffffff16476040516109ea906140a5565b60006040518083038185875af1925050503d8060008114610a27576040519150601f19603f3d011682016040523d82523d6000602084013e610a2c565b606091505b5050905080610a70576040517f08c379a0000000000000000000000000000000000000000000000000000000008152600401610a6790614106565b60405180910390fd5b50565b600e6020528060005260406000206000915090505481565b60096020528060005260406000206000915090508060000154908060010154905082565b610ab7611f0e565b80600160006101000a81548173ffffffffffffffffffffffffffffffffffffffff021916908373ffffffffffffffffffffffffffffffffffffffff16021790555050565b600260009054906101000a900473ffffffffffffffffffffffffffffffffffffffff1673ffffffffffffffffffffffffffffffffffffffff1663e327a6af33856040518363ffffffff1660e01b8152600401610b58929190614126565b602060405180830381865afa158015610b75573d6000803e3d6000fd5b505050506040513d601f19601f82011682018060405250810190610b99919061414f565b610bd8576040517f08c379a0000000000000000000000000000000000000000000000000000000008152600401610bcf906141c8565b60405180910390fd5b60038267ffffffffffffffff16108015610bfc575060058167ffffffffffffffff16105b610c3b576040517f08c379a0000000000000000000000000000000000000000000000000000000008152600401610c3290614234565b60405180910390fd5b600754341015610c80576040517f08c379a0000000000000000000000000000000000000000000000000000000008152600401610c77906142c6565b60405180910390fd5b6000610c8b8461106a565b90506064811015610cd1576040517f08c379a0000000000000000000000000000000000000000000000000000000008152600401610cc890614332565b60405180910390fd5b610cdc816064611f8c565b60096000868152602001908152602001600020600001819055504260096000868152602001908152602001600020600101819055506000610d318467ffffffffffffffff168467ffffffffffffffff16611fb1565b925050506000600e60008667ffffffffffffffff16815260200190815260200160002054905081811015610d63578091505b610d6d8183611f8c565b600e60008767ffffffffffffffff168152602001908152602001600020819055506040518060e00160405280600160009054906101000a900473ffffffffffffffffffffffffffffffffffffffff1673ffffffffffffffffffffffffffffffffffffffff16639bca039d33600b60006040518463ffffffff1660e01b8152600401610dfa93929190614361565b6020604051808303816000875af1158015610e19573d6000803e3d6000fd5b505050506040513d601f19601f82011682018060405250810190610e3d9190614398565b81526020018667ffffffffffffffff1681526020018567ffffffffffffffff168152602001600067ffffffffffffffff1681526020018367ffffffffffffffff16815260200187815260200160001515815250600860003373ffffffffffffffffffffffffffffffffffffffff1673ffffffffffffffffffffffffffffffffffffffff1681526020019081526020016000206000820151816000015560208201518160010160006101000a81548167ffffffffffffffff021916908367ffffffffffffffff16021790555060408201518160010160086101000a81548167ffffffffffffffff021916908367ffffffffffffffff16021790555060608201518160010160106101000a81548167ffffffffffffffff021916908367ffffffffffffffff16021790555060808201518160010160186101000a81548167ffffffffffffffff021916908367ffffffffffffffff16021790555060a0820151816002015560c08201518160030160006101000a81548160ff0219169083151502179055509050503373ffffffffffffffffffffffffffffffffffffffff167fdb001f22d59ea0dc19344aa108b16bbf05d248b5857355d379a045f46b90055f600860003373ffffffffffffffffffffffffffffffffffffffff1673ffffffffffffffffffffffffffffffffffffffff1681526020019081526020016000206040516110469190614588565b60405180910390a2505050505050565b61105e611f0e565b6110686000611ff4565b565b600080603c61108f426009600087815260200190815260200160002060010154611f8c565b6110999190613c70565b90506110ca60096000858152602001908152602001600020600001546005836110c29190613bff565b6103e86120b8565b915050919050565b601060009054906101000a900473ffffffffffffffffffffffffffffffffffffffff1673ffffffffffffffffffffffffffffffffffffffff163373ffffffffffffffffffffffffffffffffffffffff1614611162576040517f08c379a000000000000000000000000000000000000000000000000000000000815260040161115990614615565b60405180910390fd5b600f600080815260200190815260200160002054600e600080815260200190815260200160002081905550600f60006001815260200190815260200160002054600e60006001815260200190815260200160002081905550600f60006002815260200190815260200160002054600e600060028152602001908152602001600020819055507fe7b67699e33b54befd49a619f3d7bc3f346c351e25e6c0ab273c43120cba4290600e600080815260200190815260200160002054600e60006001815260200190815260200160002054600e6000600281526020019081526020016000205460405161125593929190614635565b60405180910390a1565b600f6020528060005260406000206000915090505481565b60008060009054906101000a900473ffffffffffffffffffffffffffffffffffffffff16905090565b6112a8611f0e565b633b9aca00816112b89190613bff565b60078190555050565b60086020528060005260406000206000915090508060000154908060010160009054906101000a900467ffffffffffffffff16908060010160089054906101000a900467ffffffffffffffff16908060010160109054906101000a900467ffffffffffffffff16908060010160189054906101000a900467ffffffffffffffff16908060020154908060030160009054906101000a900460ff16905087565b60006103e861136e8361106a565b106113ae576040517f08c379a00000000000000000000000000000000000000000000000000000000081526004016113a5906146de565b60405180910390fd5b600560009054906101000a900473ffffffffffffffffffffffffffffffffffffffff1673ffffffffffffffffffffffffffffffffffffffff166379cc679033670de0b6b3a76400006040518363ffffffff1660e01b8152600401611413929190614739565b600060405180830381600087803b15801561142d57600080fd5b505af1158015611441573d6000803e3d6000fd5b5050505060405180604001604052806103e881526020014281525060096000848152602001908152602001600020600082015181600001556020820151816001015590505060019050919050565b611497611f0e565b600073ffffffffffffffffffffffffffffffffffffffff168173ffffffffffffffffffffffffffffffffffffffff1603611506576040517f08c379a00000000000000000000000000000000000000000000000000000000081526004016114fd906147d4565b60405180910390fd5b61150f81611ff4565b50565b61151a611f0e565b80601060006101000a81548173ffffffffffffffffffffffffffffffffffffffff021916908373ffffffffffffffffffffffffffffffffffffffff16021790555050565b60606000601067ffffffffffffffff81111561157d5761157c613970565b5b6040519080825280602002602001820160405280156115ab5781602001602082028036833780820191505090505b509050600061ffff9050600080600f90505b600081126116265760008387169050601084901b93508281901c9050808583815181106115ed576115ec613ba1565b5b602002602001019061ffff16908161ffff168152505060108361161091906147f4565b925050808061161e90614832565b9150506115bd565b50829350505050919050565b61163a613495565b61164261350a565b600260009054906101000a900473ffffffffffffffffffffffffffffffffffffffff1673ffffffffffffffffffffffffffffffffffffffff1663468f25b0846040518263ffffffff1660e01b815260040161169d91906136ee565b61010060405180830381865afa1580156116bb573d6000803e3d6000fd5b505050506040513d601f19601f820116820180604052508101906116df9190614975565b91506116ea826120e8565b905060006116f784612171565b905061170382826124c7565b50915091565b61171161354f565b61171961350a565b6040518060a0016040528087815260200186815260200161173d8661ffff166125b3565b815260200161174b876125c9565b815260200161175d8561ffff16612615565b8152509150600061176d8361262c565b905061177981846127fb565b91505094509492505050565b6000806000600190505b600b811015611b1a5760006117bd8583815181106117b0576117af613ba1565b5b602002602001015161155e565b905060005b6010811015611b055783806117d6906149a3565b945050600089606001511180156117f1575060008760600151115b80156117fe575060148411155b15611a5c5761180b61357e565b6118ed8b6000015163ffffffff168b8a604051806080016040528088888151811061183957611838613ba1565b5b602002602001015161ffff1661ffff1681526020018860018961185c91906147f4565b8151811061186d5761186c613ba1565b5b602002602001015161ffff1661ffff1681526020018860028961189091906147f4565b815181106118a1576118a0613ba1565b5b602002602001015161ffff1661ffff168152602001886003896118c491906147f4565b815181106118d5576118d4613ba1565b5b602002602001015161ffff1661ffff1681525061287d565b81600001819052506119dd8960400151898c60405180608001604052808860048961191891906147f4565b8151811061192957611928613ba1565b5b602002602001015161ffff1661ffff1681526020018860058961194c91906147f4565b8151811061195d5761195c613ba1565b5b602002602001015161ffff1661ffff1681526020018860068961198091906147f4565b8151811061199157611990613ba1565b5b602002602001015161ffff1661ffff168152602001886007896119b491906147f4565b815181106119c5576119c4613ba1565b5b602002602001015161ffff1661ffff1681525061287d565b8160200181905250600060405180608001604052808c6060015181526020018c6020015181526020018a6060015181526020018a6020015181525090507f1f8f88cd0adb917741e331e629bad9f91d2dfe66b32888281e797ad5e7497e398d8383604051611a4d93929190614b2e565b60405180910390a15050611af1565b60008960600151118015611a74575060008760600151115b8015611a805750601484115b15611a8a57600294505b60008960600151148015611aa2575060008760600151145b15611aac57600294505b60008960600151118015611ac4575060008760600151145b15611ace57600194505b60008960600151148015611ae6575060008760600151115b15611af057600094505b5b600881611afe91906147f4565b90506117c2565b50508080611b12906149a3565b91505061178f565b50509695505050505050565b600080611b40846040015167ffffffffffffffff166129f1565b915091506000611b5d856020015167ffffffffffffffff16612a4e565b63ffffffff1690506127108460e0015163ffffffff161015611cd157611b968460e0015163ffffffff168463ffffffff166127106120b8565b8460e0019063ffffffff16908163ffffffff168152505060008103611bdd578184604001818151611bc79190614b67565b91509063ffffffff16908163ffffffff16815250505b60018103611c0d578184606001818151611bf79190614b67565b91509063ffffffff16908163ffffffff16815250505b60028103611c3d578184608001818151611c279190614b67565b91509063ffffffff16908163ffffffff16815250505b600260009054906101000a900473ffffffffffffffffffffffffffffffffffffffff1673ffffffffffffffffffffffffffffffffffffffff16638d3bef3e8660a00151866040518363ffffffff1660e01b8152600401611c9e929190614b9f565b600060405180830381600087803b158015611cb857600080fd5b505af1158015611ccc573d6000803e3d6000fd5b505050505b5050505050565b6000806000611d03886020015167ffffffffffffffff16896040015167ffffffffffffffff16611fb1565b9250925092506000611d2488848b6080015167ffffffffffffffff16612a7b565b90506000600a8560048110611d3c57611d3b613ba1565b5b0160009054906101000a900473ffffffffffffffffffffffffffffffffffffffff1690508073ffffffffffffffffffffffffffffffffffffffff166340c10f1987670de0b6b3a764000085611d919190613bff565b6040518363ffffffff1660e01b8152600401611dae929190614126565b600060405180830381600087803b158015611dc857600080fd5b505af1158015611ddc573d6000803e3d6000fd5b505050506000611deb89612adf565b90508015611ec0576000611e00898787612a7b565b90506000600a600360048110611e1957611e18613ba1565b5b0160009054906101000a900473ffffffffffffffffffffffffffffffffffffffff1690508073ffffffffffffffffffffffffffffffffffffffff166340c10f198a670de0b6b3a764000085611e6e9190613bff565b6040518363ffffffff1660e01b8152600401611e8b929190614126565b600060405180830381600087803b158015611ea557600080fd5b505af1158015611eb9573d6000803e3d6000fd5b5050505050505b5050505050505050505050565b611ef06009600084815260200190815260200160002060000154826103e86120b8565b60096000848152602001908152602001600020600001819055505050565b611f16612b05565b73ffffffffffffffffffffffffffffffffffffffff16611f34611277565b73ffffffffffffffffffffffffffffffffffffffff1614611f8a576040517f08c379a0000000000000000000000000000000000000000000000000000000008152600401611f8190614c15565b60405180910390fd5b565b6000828211611fa6578183611fa19190614c35565b611fa9565b60005b905092915050565b6000806000808503611fc257600092505b60018503611fcf57600192505b60028503611fdc57600292505b611fe584612b0d565b80925081935050509250925092565b60008060009054906101000a900473ffffffffffffffffffffffffffffffffffffffff169050816000806101000a81548173ffffffffffffffffffffffffffffffffffffffff021916908373ffffffffffffffffffffffffffffffffffffffff1602179055508173ffffffffffffffffffffffffffffffffffffffff168173ffffffffffffffffffffffffffffffffffffffff167f8be0079c531659141344cd1fd0a4f28419497f9722a3daafe3b4186f6b6457e060405160405180910390a35050565b60008183856120c791906147f4565b116120dd5782846120d891906147f4565b6120df565b815b90509392505050565b6120f061350a565b60405180610100016040528061210584612b6a565b815260200161211384612c1d565b815260200161212184612cd1565b815260200161212f84612d85565b815260200161213d84612e06565b815260200161214b84612e87565b815260200161215984612f08565b815260200161216784612f28565b8152509050919050565b61217961350a565b6000600460009054906101000a900473ffffffffffffffffffffffffffffffffffffffff1673ffffffffffffffffffffffffffffffffffffffff1663c71fcf70846040518263ffffffff1660e01b81526004016121d691906136ee565b608060405180830381865afa1580156121f3573d6000803e3d6000fd5b505050506040513d601f19601f820116820180604052508101906122179190614cf6565b90506122c382600360009054906101000a900473ffffffffffffffffffffffffffffffffffffffff1673ffffffffffffffffffffffffffffffffffffffff1663ad217ae584600001516040518263ffffffff1660e01b815260040161227c9190614d23565b61010060405180830381865afa15801561229a573d6000803e3d6000fd5b505050506040513d601f19601f820116820180604052508101906122be9190614e08565b612f63565b61236d82600360009054906101000a900473ffffffffffffffffffffffffffffffffffffffff1673ffffffffffffffffffffffffffffffffffffffff1663ad217ae584602001516040518263ffffffff1660e01b81526004016123269190614d23565b61010060405180830381865afa158015612344573d6000803e3d6000fd5b505050506040513d601f19601f820116820180604052508101906123689190614e08565b612f63565b61241782600360009054906101000a900473ffffffffffffffffffffffffffffffffffffffff1673ffffffffffffffffffffffffffffffffffffffff1663ad217ae584604001516040518263ffffffff1660e01b81526004016123d09190614d23565b61010060405180830381865afa1580156123ee573d6000803e3d6000fd5b505050506040513d601f19601f820116820180604052508101906124129190614e08565b612f63565b6124c182600360009054906101000a900473ffffffffffffffffffffffffffffffffffffffff1673ffffffffffffffffffffffffffffffffffffffff1663ad217ae584606001516040518263ffffffff1660e01b815260040161247a9190614d23565b61010060405180830381865afa158015612498573d6000803e3d6000fd5b505050506040513d601f19601f820116820180604052508101906124bc9190614e08565b612f63565b50919050565b8060000151826000018181516124dd91906147f4565b915081815250508060200151826020018181516124fa91906147f4565b9150818152505080604001518260400181815161251791906147f4565b9150818152505080606001518260600181815161253491906147f4565b9150818152505080608001518260800181815161255191906147f4565b915081815250508060a001518260a00181815161256e91906147f4565b915081815250508060c001518260c00181815161258b91906147f4565b915081815250508060e001518260e0018181516125a891906147f4565b915081815250505050565b60006006826125c29190614e36565b9050919050565b60008082036125d85761025890505b600182036125e65761038490505b600282036125f45761051490505b600382036126025761070890505b600482036126105761096090505b919050565b6000610190826126259190614e36565b9050919050565b6126346135b1565b60008260000151036126ca576103e882606001516102586126559190613bff565b61265f9190613c70565b8160000181815250506103e88260600151836080015161267f9190613bff565b6126899190613c70565b8160200181815250506103e8826060015183608001516101906126ac9190614c35565b6126b69190613bff565b6126c09190613c70565b8160400181815250505b6001826000015103612760576103e8826060015183608001516126ed9190613bff565b6126f79190613c70565b8160000181815250506103e882606001516102586127159190613bff565b61271f9190613c70565b8160200181815250506103e8826060015183608001516101906127429190614c35565b61274c9190613bff565b6127569190613c70565b8160400181815250505b60028260000151036127f6576103e8826060015183608001516127839190613bff565b61278d9190613c70565b8160000181815250506103e8826060015183608001516101906127b09190614c35565b6127ba9190613bff565b6127c49190613c70565b8160200181815250506103e882606001516102586127e29190613bff565b6127ec9190613c70565b8160400181815250505b919050565b61280361350a565b604051806101000160405280612819858561304f565b815260200161282885856130d5565b8152602001612837858561315c565b815260200161284685856131e3565b81526020016128558585613237565b8152602001612864858561328b565b8152602001600081526020016000815250905092915050565b6128856135d2565b6000806000806128ad866000600481106128a2576128a1613ba1565b5b6020020151886132df565b9050806129bc576128d7866001600481106128cb576128ca613ba1565b5b6020020151898b61330d565b93506128fb866002600481106128f0576128ef613ba1565b5b6020020151896133bf565b925061291f8660036004811061291457612913613ba1565b5b6020020151896133ed565b9150821561293f57612935876060015185611f8c565b8760600181815250505b8115612955576002846129529190613bff565b93505b86602001518411156129a35761298a8760600151600289602001518761297b9190614c35565b6129859190613c70565b611f8c565b87606001818152505060008760200181815250506129bb565b6129b1876020015185611f8c565b8760200181815250505b5b604051806080016040528082151581526020018415158152602001831515815260200185815250945050505050949350505050565b60008060008303612a055760149150600190505b60018303612a165760289150600390505b60028303612a2757603c9150600690505b60038303612a385760509150600a90505b60048303612a495760649150600f90505b915091565b6000808203612a5c57600290505b60018203612a6957600090505b60028203612a7657600190505b919050565b600082821115612acd5760006103e885612a959190614e36565b90506000612aa38486611f8c565b9050612ac8856103e88484612ab89190613bff565b612ac29190613c70565b866120b8565b925050505b828211612ad8578190505b9392505050565b6000806103e883612af09190614e36565b905060fa8111612aff57600191505b50919050565b600033905090565b60008060008303612b215760019150600390505b60018303612b325760029150600690505b60028303612b435760039150600990505b60038303612b545760049150600c90505b60048303612b655760059150600f90505b915091565b60006004600a60048460800151612b819190614e67565b60068560400151612b929190614e67565b612b9c9190614b67565b612ba69190614ea4565b612bb09190614ea4565b63ffffffff169050600080836000015163ffffffff1603612bd057600590505b60008360a0015163ffffffff1603612bf257600581612bef91906147f4565b90505b60648183612c009190613bff565b612c0a9190613c70565b82612c1591906147f4565b915050919050565b60006002600a60048460400151612c349190614e67565b60068560600151612c459190614e67565b612c4f9190614b67565b612c599190614ea4565b612c639190614ea4565b63ffffffff16905060006003836000015163ffffffff1603612c8457600a90505b60038360a0015163ffffffff1603612ca657600a81612ca391906147f4565b90505b60648183612cb49190613bff565b612cbe9190613c70565b82612cc991906147f4565b915050919050565b60006002600a60048460600151612ce89190614e67565b60068560800151612cf99190614e67565b612d039190614b67565b612d0d9190614ea4565b612d179190614ea4565b63ffffffff16905060006005836000015163ffffffff1603612d3857600a90505b60058360a0015163ffffffff1603612d5a57600a81612d5791906147f4565b90505b60648183612d689190613bff565b612d729190613c70565b82612d7d91906147f4565b915050919050565b600060058260600151612d989190614e67565b63ffffffff16905060006002836000015163ffffffff1603612db957600390505b60028360a0015163ffffffff1603612ddb57600381612dd891906147f4565b90505b60648183612de99190613bff565b612df39190613c70565b82612dfe91906147f4565b915050919050565b600060028260400151612e199190614ea4565b63ffffffff16905060006001836000015163ffffffff1603612e3a57600a90505b60018360a0015163ffffffff1603612e5c57600a81612e5991906147f4565b90505b60648183612e6a9190613bff565b612e749190613c70565b82612e7f91906147f4565b915050919050565b600060028260800151612e9a9190614ea4565b63ffffffff16905060006004836000015163ffffffff1603612ebb57600a90505b60048360a0015163ffffffff1603612edd57600a81612eda91906147f4565b90505b60648183612eeb9190613bff565b612ef59190613c70565b82612f0091906147f4565b915050919050565b6000600a8260800151612f1b9190614ea4565b63ffffffff169050919050565b6000600a600283604001518460600151612f429190614b67565b612f4c9190614ea4565b612f569190614ea4565b63ffffffff169050919050565b806000015182600001818151612f7991906147f4565b91508181525050806020015182602001818151612f9691906147f4565b91508181525050806040015182604001818151612fb391906147f4565b91508181525050806060015182606001818151612fd091906147f4565b91508181525050806080015182608001818151612fed91906147f4565b915081815250508060a001518260a00181815161300a91906147f4565b915081815250508060c001518260c00181815161302791906147f4565b915081815250508060e001518260e00181815161304491906147f4565b915081815250505050565b60006002600a600485604001516130669190613bff565b600686600001516130779190613bff565b61308191906147f4565b61308b9190613c70565b6130959190613c70565b90506000808360400151036130a957600590505b606481836130b79190613bff565b6130c19190613c70565b826130cc91906147f4565b91505092915050565b60006002600a600485600001516130ec9190613bff565b600686602001516130fd9190613bff565b61310791906147f4565b6131119190613c70565b61311b9190613c70565b90506000600383604001510361313057600a90505b6064818361313e9190613bff565b6131489190613c70565b8261315391906147f4565b91505092915050565b60006002600a600485602001516131739190613bff565b600686604001516131849190613bff565b61318e91906147f4565b6131989190613c70565b6131a29190613c70565b9050600060058360400151036131b757600a90505b606481836131c59190613bff565b6131cf9190613c70565b826131da91906147f4565b91505092915050565b6000600583602001516131f69190613bff565b90506000600283604001510361320b57600390505b606481836132199190613bff565b6132239190613c70565b8261322e91906147f4565b91505092915050565b60006002836000015161324a9190613c70565b90506000600183604001510361325f57600a90505b6064818361326d9190613bff565b6132779190613c70565b8261328291906147f4565b91505092915050565b60006002836040015161329e9190613c70565b9050600060048360400151036132b357600a90505b606481836132c19190613bff565b6132cb9190613c70565b826132d691906147f4565b91505092915050565b6000806103e8846132f09190614ee3565b61ffff1690508260400151811161330657600191505b5092915050565b600080600061331b8461341b565b9150915060006103e88660000151846133349190613bff565b61333e9190613c70565b905060006103e88760000151846133559190613bff565b61335f9190613c70565b90506000828261336f9190614c35565b905060006103e88a6133819190614ee3565b61ffff16905060006103e882846133989190613bff565b6133a29190613c70565b90506133af8582866120b8565b9750505050505050509392505050565b6000806103e8846133d09190614ee3565b61ffff169050826080015181116133e657600191505b5092915050565b6000806103e8846133fe9190614ee3565b61ffff1690508260a00151811161341457600191505b5092915050565b600080600083036134315761028a915061054690505b60018303613444576102bc91506104e290505b60028303613457576102ee915061044c90505b6003830361346a57610320915061041a90505b6004830361347d5761035291506103e890505b600583036134905761038491506103b690505b915091565b604051806101000160405280600063ffffffff168152602001600063ffffffff168152602001600063ffffffff168152602001600063ffffffff168152602001600063ffffffff168152602001600063ffffffff168152602001600063ffffffff168152602001600063ffffffff1681525090565b60405180610100016040528060008152602001600081526020016000815260200160008152602001600081526020016000815260200160008152602001600081525090565b6040518060a0016040528060008152602001600081526020016000815260200160008152602001600081525090565b60405180606001604052806135916135d2565b815260200161359e6135d2565b81526020016135ab613600565b81525090565b60405180606001604052806000815260200160008152602001600081525090565b6040518060800160405280600015158152602001600015158152602001600015158152602001600081525090565b6040518060800160405280600081526020016000815260200160008152602001600081525090565b6000604051905090565b600080fd5b600080fd5b6000819050919050565b61364f8161363c565b811461365a57600080fd5b50565b60008135905061366c81613646565b92915050565b6000806040838503121561368957613688613632565b5b60006136978582860161365d565b92505060206136a88582860161365d565b9150509250929050565b6000602082840312156136c8576136c7613632565b5b60006136d68482850161365d565b91505092915050565b6136e88161363c565b82525050565b600060208201905061370360008301846136df565b92915050565b600060408201905061371e60008301856136df565b61372b60208301846136df565b9392505050565b600073ffffffffffffffffffffffffffffffffffffffff82169050919050565b600061375d82613732565b9050919050565b61376d81613752565b811461377857600080fd5b50565b60008135905061378a81613764565b92915050565b6000602082840312156137a6576137a5613632565b5b60006137b48482850161377b565b91505092915050565b600067ffffffffffffffff82169050919050565b6137da816137bd565b81146137e557600080fd5b50565b6000813590506137f7816137d1565b92915050565b60008060006060848603121561381657613815613632565b5b60006138248682870161365d565b9350506020613835868287016137e8565b9250506040613846868287016137e8565b9150509250925092565b61385981613752565b82525050565b60006020820190506138746000830184613850565b92915050565b613883816137bd565b82525050565b60008115159050919050565b61389e81613889565b82525050565b600060e0820190506138b9600083018a6136df565b6138c6602083018961387a565b6138d3604083018861387a565b6138e0606083018761387a565b6138ed608083018661387a565b6138fa60a08301856136df565b61390760c0830184613895565b98975050505050505050565b60006020820190506139286000830184613895565b92915050565b61393781613889565b811461394257600080fd5b50565b6000815190506139548161392e565b92915050565b600080fd5b6000601f19601f8301169050919050565b7f4e487b7100000000000000000000000000000000000000000000000000000000600052604160045260246000fd5b6139a88261395f565b810181811067ffffffffffffffff821117156139c7576139c6613970565b5b80604052505050565b60006139da613628565b90506139e6828261399f565b919050565b600067ffffffffffffffff821115613a0657613a05613970565b5b602082029050602081019050919050565b600080fd5b600081519050613a2b81613646565b92915050565b6000613a44613a3f846139eb565b6139d0565b90508083825260208201905060208402830185811115613a6757613a66613a17565b5b835b81811015613a905780613a7c8882613a1c565b845260208401935050602081019050613a69565b5050509392505050565b600082601f830112613aaf57613aae61395a565b5b8151613abf848260208601613a31565b91505092915050565b60008060408385031215613adf57613ade613632565b5b6000613aed85828601613945565b925050602083015167ffffffffffffffff811115613b0e57613b0d613637565b5b613b1a85828601613a9a565b9150509250929050565b600082825260208201905092915050565b7f44756e67656f6e733a204e6f74207965742066756c66696c6c65642e00000000600082015250565b6000613b6b601c83613b24565b9150613b7682613b35565b602082019050919050565b60006020820190508181036000830152613b9a81613b5e565b9050919050565b7f4e487b7100000000000000000000000000000000000000000000000000000000600052603260045260246000fd5b7f4e487b7100000000000000000000000000000000000000000000000000000000600052601160045260246000fd5b6000613c0a8261363c565b9150613c158361363c565b9250828202613c238161363c565b91508282048414831517613c3a57613c39613bd0565b5b5092915050565b7f4e487b7100000000000000000000000000000000000000000000000000000000600052601260045260246000fd5b6000613c7b8261363c565b9150613c868361363c565b925082613c9657613c95613c41565b5b828204905092915050565b613caa8161363c565b82525050565b613cb9816137bd565b82525050565b613cc881613889565b82525050565b60e082016000820151613ce46000850182613ca1565b506020820151613cf76020850182613cb0565b506040820151613d0a6040850182613cb0565b506060820151613d1d6060850182613cb0565b506080820151613d306080850182613cb0565b5060a0820151613d4360a0850182613ca1565b5060c0820151613d5660c0850182613cbf565b50505050565b600063ffffffff82169050919050565b613d7581613d5c565b82525050565b61010082016000820151613d926000850182613d6c565b506020820151613da56020850182613d6c565b506040820151613db86040850182613d6c565b506060820151613dcb6060850182613d6c565b506080820151613dde6080850182613d6c565b5060a0820151613df160a0850182613d6c565b5060c0820151613e0460c0850182613d6c565b5060e0820151613e1760e0850182613d6c565b50505050565b61010082016000820151613e346000850182613ca1565b506020820151613e476020850182613ca1565b506040820151613e5a6040850182613ca1565b506060820151613e6d6060850182613ca1565b506080820151613e806080850182613ca1565b5060a0820151613e9360a0850182613ca1565b5060c0820151613ea660c0850182613ca1565b5060e0820151613eb960e0850182613ca1565b50505050565b60a082016000820151613ed56000850182613ca1565b506020820151613ee86020850182613ca1565b506040820151613efb6040850182613ca1565b506060820151613f0e6060850182613ca1565b506080820151613f216080850182613ca1565b50505050565b600061048082019050613f3d6000830188613cce565b613f4a60e0830187613d7b565b613f586101e0830186613e1d565b613f666102e0830185613ebf565b613f74610380830184613e1d565b9695505050505050565b7f44756e67656f6e733a20426174746c6520616c726561647920636f6d706c657460008201527f65642e0000000000000000000000000000000000000000000000000000000000602082015250565b6000613fda602383613b24565b9150613fe582613f7e565b604082019050919050565b6000602082019050818103600083015261400981613fcd565b9050919050565b6000819050919050565b600061403561403061402b846137bd565b614010565b61363c565b9050919050565b6140458161401a565b82525050565b600060408201905061406060008301856136df565b61406d602083018461403c565b9392505050565b600081905092915050565b50565b600061408f600083614074565b915061409a8261407f565b600082019050919050565b60006140b082614082565b9150819050919050565b7f4661696c656420746f207769746864726177206d61746963732e000000000000600082015250565b60006140f0601a83613b24565b91506140fb826140ba565b602082019050919050565b6000602082019050818103600083015261411f816140e3565b9050919050565b600060408201905061413b6000830185613850565b61414860208301846136df565b9392505050565b60006020828403121561416557614164613632565b5b600061417384828501613945565b91505092915050565b7f44756e67656f6e733a20436861726163746572206e6f74206f776e6564000000600082015250565b60006141b2601d83613b24565b91506141bd8261417c565b602082019050919050565b600060208201905081810360008301526141e1816141a5565b9050919050565b7f44756e67656f6e733a204976616c69642064756e67656f6e2f74696572000000600082015250565b600061421e601d83613b24565b9150614229826141e8565b602082019050919050565b6000602082019050818103600083015261424d81614211565b9050919050565b7f44756e67656f6e733a20496e73756666696369656e7420616d6f756e7420736560008201527f6e742e0000000000000000000000000000000000000000000000000000000000602082015250565b60006142b0602383613b24565b91506142bb82614254565b604082019050919050565b600060208201905081810360008301526142df816142a3565b9050919050565b7f44756e67656f6e733a204e6f7420656e6f75676820656e657267792e00000000600082015250565b600061431c601c83613b24565b9150614327826142e6565b602082019050919050565b6000602082019050818103600083015261434b8161430f565b9050919050565b61435b81613d5c565b82525050565b60006060820190506143766000830186613850565b6143836020830185614352565b6143906040830184613895565b949350505050565b6000602082840312156143ae576143ad613632565b5b60006143bc84828501613a1c565b91505092915050565b60008160001c9050919050565b6000819050919050565b60006143ef6143ea836143c5565b6143d2565b9050919050565b600067ffffffffffffffff82169050919050565b600061441d614418836143c5565b6143f6565b9050919050565b60008160401c9050919050565b600061444461443f83614424565b6143f6565b9050919050565b60008160801c9050919050565b600061446b6144668361444b565b6143f6565b9050919050565b60008160c01c9050919050565b600061449261448d83614472565b6143f6565b9050919050565b600060ff82169050919050565b60006144b96144b4836143c5565b614499565b9050919050565b60e0820160008083015490506144d5816143dc565b6144e26000860182613ca1565b50600183015490506144f38161440a565b6145006020860182613cb0565b5061450a81614431565b6145176040860182613cb0565b5061452181614458565b61452e6060860182613cb0565b506145388161447f565b6145456080860182613cb0565b5060028301549050614556816143dc565b61456360a0860182613ca1565b5060038301549050614574816144a6565b61458160c0860182613cbf565b5050505050565b600060e08201905061459d60008301846144c0565b92915050565b7f44756e67656f6e733a206f6e6c79207265706c656e697368657220636f6e747260008201527f6163740000000000000000000000000000000000000000000000000000000000602082015250565b60006145ff602383613b24565b915061460a826145a3565b604082019050919050565b6000602082019050818103600083015261462e816145f2565b9050919050565b600060608201905061464a60008301866136df565b61465760208301856136df565b61466460408301846136df565b949350505050565b7f44756e67656f6e733a2063686172616374657220616c7265616479206174206660008201527f756c6c2068700000000000000000000000000000000000000000000000000000602082015250565b60006146c8602683613b24565b91506146d38261466c565b604082019050919050565b600060208201905081810360008301526146f7816146bb565b9050919050565b6000819050919050565b600061472361471e614719846146fe565b614010565b61363c565b9050919050565b61473381614708565b82525050565b600060408201905061474e6000830185613850565b61475b602083018461472a565b9392505050565b7f4f776e61626c653a206e6577206f776e657220697320746865207a65726f206160008201527f6464726573730000000000000000000000000000000000000000000000000000602082015250565b60006147be602683613b24565b91506147c982614762565b604082019050919050565b600060208201905081810360008301526147ed816147b1565b9050919050565b60006147ff8261363c565b915061480a8361363c565b925082820190508082111561482257614821613bd0565b5b92915050565b6000819050919050565b600061483d82614828565b91507f8000000000000000000000000000000000000000000000000000000000000000820361486f5761486e613bd0565b5b600182039050919050565b600080fd5b61488881613d5c565b811461489357600080fd5b50565b6000815190506148a58161487f565b92915050565b600061010082840312156148c2576148c161487a565b5b6148cd6101006139d0565b905060006148dd84828501614896565b60008301525060206148f184828501614896565b602083015250604061490584828501614896565b604083015250606061491984828501614896565b606083015250608061492d84828501614896565b60808301525060a061494184828501614896565b60a08301525060c061495584828501614896565b60c08301525060e061496984828501614896565b60e08301525092915050565b6000610100828403121561498c5761498b613632565b5b600061499a848285016148ab565b91505092915050565b60006149ae8261363c565b91507fffffffffffffffffffffffffffffffffffffffffffffffffffffffffffffffff82036149e0576149df613bd0565b5b600182019050919050565b608082016000820151614a016000850182613cbf565b506020820151614a146020850182613cbf565b506040820151614a276040850182613cbf565b506060820151614a3a6060850182613ca1565b50505050565b608082016000820151614a566000850182613ca1565b506020820151614a696020850182613ca1565b506040820151614a7c6040850182613ca1565b506060820151614a8f6060850182613ca1565b50505050565b61018082016000820151614aac60008501826149eb565b506020820151614abf60808501826149eb565b506040820151614ad3610100850182614a40565b50505050565b608082016000820151614aef6000850182613ca1565b506020820151614b026020850182613ca1565b506040820151614b156040850182613ca1565b506060820151614b286060850182613ca1565b50505050565b600061022082019050614b4460008301866136df565b614b516020830185614a95565b614b5f6101a0830184614ad9565b949350505050565b6000614b7282613d5c565b9150614b7d83613d5c565b9250828201905063ffffffff811115614b9957614b98613bd0565b5b92915050565b600061012082019050614bb560008301856136df565b614bc26020830184613d7b565b9392505050565b7f4f776e61626c653a2063616c6c6572206973206e6f7420746865206f776e6572600082015250565b6000614bff602083613b24565b9150614c0a82614bc9565b602082019050919050565b60006020820190508181036000830152614c2e81614bf2565b9050919050565b6000614c408261363c565b9150614c4b8361363c565b9250828203905081811115614c6357614c62613bd0565b5b92915050565b600081519050614c78816137d1565b92915050565b600060808284031215614c9457614c9361487a565b5b614c9e60806139d0565b90506000614cae84828501614c69565b6000830152506020614cc284828501614c69565b6020830152506040614cd684828501614c69565b6040830152506060614cea84828501614c69565b60608301525092915050565b600060808284031215614d0c57614d0b613632565b5b6000614d1a84828501614c7e565b91505092915050565b6000602082019050614d38600083018461403c565b92915050565b60006101008284031215614d5557614d5461487a565b5b614d606101006139d0565b90506000614d7084828501613a1c565b6000830152506020614d8484828501613a1c565b6020830152506040614d9884828501613a1c565b6040830152506060614dac84828501613a1c565b6060830152506080614dc084828501613a1c565b60808301525060a0614dd484828501613a1c565b60a08301525060c0614de884828501613a1c565b60c08301525060e0614dfc84828501613a1c565b60e08301525092915050565b60006101008284031215614e1f57614e1e613632565b5b6000614e2d84828501614d3e565b91505092915050565b6000614e418261363c565b9150614e4c8361363c565b925082614e5c57614e5b613c41565b5b828206905092915050565b6000614e7282613d5c565b9150614e7d83613d5c565b9250828202614e8b81613d5c565b9150808214614e9d57614e9c613bd0565b5b5092915050565b6000614eaf82613d5c565b9150614eba83613d5c565b925082614eca57614ec9613c41565b5b828204905092915050565b600061ffff82169050919050565b6000614eee82614ed5565b9150614ef983614ed5565b925082614f0957614f08613c41565b5b82820690509291505056fea2646970667358221220a75fc75071ba948fe21b3f9774ec6973241a7759cafd27217d1018c10831e68a64736f6c63430008110033",
  "linkReferences": {},
  "deployedLinkReferences": {}
}