{
  "_format": "hh-sol-artifact-1",
  "contractName": "Dungeons",
  "sourceName": "contracts/core/dungeons/Dungeons.sol",
  "abi": [
    {
      "inputs": [
        {
          "internalType": "address",
          "name": "charactersNftAddress",
          "type": "address"
        },
        {
          "internalType": "address",
          "name": "equipmentNftAddress",
          "type": "address"
        },
        {
          "internalType": "address",
          "name": "equipmentManagerAddress",
          "type": "address"
        },
        {
          "internalType": "address[4]",
          "name": "materials",
          "type": "address[4]"
        },
        {
          "internalType": "address",
          "name": "enerlinkAddress",
          "type": "address"
        }
      ],
      "stateMutability": "nonpayable",
      "type": "constructor"
    },
    {
      "anonymous": false,
      "inputs": [
        {
          "indexed": true,
          "internalType": "uint256",
          "name": "battle_id",
          "type": "uint256"
        },
        {
          "indexed": false,
          "internalType": "uint256",
          "name": "battle_result",
          "type": "uint256"
        }
      ],
      "name": "BattleEnded",
      "type": "event"
    },
    {
      "anonymous": false,
      "inputs": [
        {
          "indexed": true,
          "internalType": "address",
          "name": "user",
          "type": "address"
        },
        {
          "components": [
            {
              "internalType": "uint256",
              "name": "request_id",
              "type": "uint256"
            },
            {
              "internalType": "uint64",
              "name": "dungeon_type",
              "type": "uint64"
            },
            {
              "internalType": "uint64",
              "name": "tier",
              "type": "uint64"
            },
            {
              "internalType": "uint64",
              "name": "result",
              "type": "uint64"
            },
            {
              "internalType": "uint64",
              "name": "max_loot",
              "type": "uint64"
            },
            {
              "internalType": "uint256",
              "name": "character_id",
              "type": "uint256"
            },
            {
              "internalType": "bool",
              "name": "completed",
              "type": "bool"
            }
          ],
          "indexed": false,
          "internalType": "struct battle_request",
          "name": "request",
          "type": "tuple"
        }
      ],
      "name": "BattleRequested",
      "type": "event"
    },
    {
      "anonymous": false,
      "inputs": [
        {
          "components": [
            {
              "internalType": "uint256",
              "name": "request_id",
              "type": "uint256"
            },
            {
              "internalType": "uint64",
              "name": "dungeon_type",
              "type": "uint64"
            },
            {
              "internalType": "uint64",
              "name": "tier",
              "type": "uint64"
            },
            {
              "internalType": "uint64",
              "name": "result",
              "type": "uint64"
            },
            {
              "internalType": "uint64",
              "name": "max_loot",
              "type": "uint64"
            },
            {
              "internalType": "uint256",
              "name": "character_id",
              "type": "uint256"
            },
            {
              "internalType": "bool",
              "name": "completed",
              "type": "bool"
            }
          ],
          "indexed": true,
          "internalType": "struct battle_request",
          "name": "request",
          "type": "tuple"
        },
        {
          "components": [
            {
              "internalType": "uint32",
              "name": "character_class",
              "type": "uint32"
            },
            {
              "internalType": "uint32",
              "name": "element",
              "type": "uint32"
            },
            {
              "internalType": "uint32",
              "name": "str",
              "type": "uint32"
            },
            {
              "internalType": "uint32",
              "name": "vit",
              "type": "uint32"
            },
            {
              "internalType": "uint32",
              "name": "dex",
              "type": "uint32"
            },
            {
              "internalType": "uint32",
              "name": "talent",
              "type": "uint32"
            },
            {
              "internalType": "uint32",
              "name": "mood",
              "type": "uint32"
            },
            {
              "internalType": "uint32",
              "name": "exp",
              "type": "uint32"
            }
          ],
          "indexed": false,
          "internalType": "struct character_properties",
          "name": "char_pros",
          "type": "tuple"
        },
        {
          "components": [
            {
              "internalType": "uint256",
              "name": "atk",
              "type": "uint256"
            },
            {
              "internalType": "uint256",
              "name": "def",
              "type": "uint256"
            },
            {
              "internalType": "uint256",
              "name": "eva",
              "type": "uint256"
            },
            {
              "internalType": "uint256",
              "name": "hp",
              "type": "uint256"
            },
            {
              "internalType": "uint256",
              "name": "pen",
              "type": "uint256"
            },
            {
              "internalType": "uint256",
              "name": "crit",
              "type": "uint256"
            },
            {
              "internalType": "uint256",
              "name": "luck",
              "type": "uint256"
            },
            {
              "internalType": "uint256",
              "name": "energy_restoration",
              "type": "uint256"
            }
          ],
          "indexed": false,
          "internalType": "struct battle_stats",
          "name": "character",
          "type": "tuple"
        },
        {
          "components": [
            {
              "internalType": "uint256",
              "name": "dungeon",
              "type": "uint256"
            },
            {
              "internalType": "uint256",
              "name": "tier",
              "type": "uint256"
            },
            {
              "internalType": "uint256",
              "name": "_type",
              "type": "uint256"
            },
            {
              "internalType": "uint256",
              "name": "attr_sum",
              "type": "uint256"
            },
            {
              "internalType": "uint256",
              "name": "attr_alloc",
              "type": "uint256"
            }
          ],
          "indexed": false,
          "internalType": "struct enemy_properties",
          "name": "enemy_props",
          "type": "tuple"
        },
        {
          "components": [
            {
              "internalType": "uint256",
              "name": "atk",
              "type": "uint256"
            },
            {
              "internalType": "uint256",
              "name": "def",
              "type": "uint256"
            },
            {
              "internalType": "uint256",
              "name": "eva",
              "type": "uint256"
            },
            {
              "internalType": "uint256",
              "name": "hp",
              "type": "uint256"
            },
            {
              "internalType": "uint256",
              "name": "pen",
              "type": "uint256"
            },
            {
              "internalType": "uint256",
              "name": "crit",
              "type": "uint256"
            },
            {
              "internalType": "uint256",
              "name": "luck",
              "type": "uint256"
            },
            {
              "internalType": "uint256",
              "name": "energy_restoration",
              "type": "uint256"
            }
          ],
          "indexed": false,
          "internalType": "struct battle_stats",
          "name": "enemy",
          "type": "tuple"
        }
      ],
      "name": "BattleStarted",
      "type": "event"
    },
    {
      "anonymous": false,
      "inputs": [
        {
          "indexed": true,
          "internalType": "uint256",
          "name": "battle_id",
          "type": "uint256"
        },
        {
          "components": [
            {
              "components": [
                {
                  "internalType": "bool",
                  "name": "evaded",
                  "type": "bool"
                },
                {
                  "internalType": "bool",
                  "name": "penetrated",
                  "type": "bool"
                },
                {
                  "internalType": "bool",
                  "name": "critical_hit",
                  "type": "bool"
                },
                {
                  "internalType": "uint256",
                  "name": "damage",
                  "type": "uint256"
                }
              ],
              "internalType": "struct attack_event",
              "name": "attack1",
              "type": "tuple"
            },
            {
              "components": [
                {
                  "internalType": "bool",
                  "name": "evaded",
                  "type": "bool"
                },
                {
                  "internalType": "bool",
                  "name": "penetrated",
                  "type": "bool"
                },
                {
                  "internalType": "bool",
                  "name": "critical_hit",
                  "type": "bool"
                },
                {
                  "internalType": "uint256",
                  "name": "damage",
                  "type": "uint256"
                }
              ],
              "internalType": "struct attack_event",
              "name": "attack2",
              "type": "tuple"
            }
          ],
          "indexed": false,
          "internalType": "struct clash_event",
          "name": "clash",
          "type": "tuple"
        }
      ],
      "name": "Clashed",
      "type": "event"
    },
    {
      "anonymous": false,
      "inputs": [
        {
          "indexed": false,
          "internalType": "uint256",
          "name": "dungeon1",
          "type": "uint256"
        },
        {
          "indexed": false,
          "internalType": "uint256",
          "name": "dungeon2",
          "type": "uint256"
        },
        {
          "indexed": false,
          "internalType": "uint256",
          "name": "dungeon3",
          "type": "uint256"
        }
      ],
      "name": "DungeonsReplenished",
      "type": "event"
    },
    {
      "anonymous": false,
      "inputs": [
        {
          "indexed": true,
          "internalType": "address",
          "name": "previousOwner",
          "type": "address"
        },
        {
          "indexed": true,
          "internalType": "address",
          "name": "newOwner",
          "type": "address"
        }
      ],
      "name": "OwnershipTransferred",
      "type": "event"
    },
    {
      "inputs": [
        {
          "internalType": "address",
          "name": "",
          "type": "address"
        }
      ],
      "name": "battle_requests",
      "outputs": [
        {
          "internalType": "uint256",
          "name": "request_id",
          "type": "uint256"
        },
        {
          "internalType": "uint64",
          "name": "dungeon_type",
          "type": "uint64"
        },
        {
          "internalType": "uint64",
          "name": "tier",
          "type": "uint64"
        },
        {
          "internalType": "uint64",
          "name": "result",
          "type": "uint64"
        },
        {
          "internalType": "uint64",
          "name": "max_loot",
          "type": "uint64"
        },
        {
          "internalType": "uint256",
          "name": "character_id",
          "type": "uint256"
        },
        {
          "internalType": "bool",
          "name": "completed",
          "type": "bool"
        }
      ],
      "stateMutability": "view",
      "type": "function"
    },
    {
      "inputs": [
        {
          "internalType": "uint256",
          "name": "character_id",
          "type": "uint256"
        }
      ],
      "name": "consumeEnerLink",
      "outputs": [
        {
          "internalType": "bool",
          "name": "restored",
          "type": "bool"
        }
      ],
      "stateMutability": "nonpayable",
      "type": "function"
    },
    {
      "inputs": [
        {
          "internalType": "uint256",
          "name": "",
          "type": "uint256"
        }
      ],
      "name": "dungeon_loot_cap",
      "outputs": [
        {
          "internalType": "uint256",
          "name": "",
          "type": "uint256"
        }
      ],
      "stateMutability": "view",
      "type": "function"
    },
    {
      "inputs": [
        {
          "internalType": "uint256",
          "name": "",
          "type": "uint256"
        }
      ],
      "name": "dungeon_loot_remaining",
      "outputs": [
        {
          "internalType": "uint256",
          "name": "",
          "type": "uint256"
        }
      ],
      "stateMutability": "view",
      "type": "function"
    },
    {
      "inputs": [
        {
          "internalType": "uint256",
          "name": "",
          "type": "uint256"
        }
      ],
      "name": "energy_balances",
      "outputs": [
        {
          "internalType": "uint256",
          "name": "energy",
          "type": "uint256"
        },
        {
          "internalType": "uint256",
          "name": "time_last_updated",
          "type": "uint256"
        }
      ],
      "stateMutability": "view",
      "type": "function"
    },
    {
      "inputs": [
        {
          "internalType": "uint256",
          "name": "character_id",
          "type": "uint256"
        },
        {
          "internalType": "uint64",
          "name": "dungeon",
          "type": "uint64"
        },
        {
          "internalType": "uint64",
          "name": "tier",
          "type": "uint64"
        }
      ],
      "name": "findBattle",
      "outputs": [],
      "stateMutability": "payable",
      "type": "function"
    },
    {
      "inputs": [
        {
          "internalType": "uint256",
          "name": "character_id",
          "type": "uint256"
        }
      ],
      "name": "getCharacterEnergy",
      "outputs": [
        {
          "internalType": "uint256",
          "name": "character_energy",
          "type": "uint256"
        }
      ],
      "stateMutability": "view",
      "type": "function"
    },
    {
      "inputs": [],
      "name": "owner",
      "outputs": [
        {
          "internalType": "address",
          "name": "",
          "type": "address"
        }
      ],
      "stateMutability": "view",
      "type": "function"
    },
    {
      "inputs": [],
      "name": "renounceOwnership",
      "outputs": [],
      "stateMutability": "nonpayable",
      "type": "function"
    },
    {
      "inputs": [],
      "name": "replenishDungeonLoot",
      "outputs": [],
      "stateMutability": "nonpayable",
      "type": "function"
    },
    {
      "inputs": [
        {
          "internalType": "uint256",
          "name": "amount",
          "type": "uint256"
        }
      ],
      "name": "setBattleFee",
      "outputs": [],
      "stateMutability": "nonpayable",
      "type": "function"
    },
    {
      "inputs": [
        {
          "internalType": "address",
          "name": "keeperAddress",
          "type": "address"
        }
      ],
      "name": "setDungeonKeeper",
      "outputs": [],
      "stateMutability": "nonpayable",
      "type": "function"
    },
    {
      "inputs": [
        {
          "internalType": "uint256",
          "name": "dungeon",
          "type": "uint256"
        },
        {
          "internalType": "uint256",
          "name": "amount",
          "type": "uint256"
        }
      ],
      "name": "setDungeonLootCap",
      "outputs": [],
      "stateMutability": "nonpayable",
      "type": "function"
    },
    {
      "inputs": [
        {
          "internalType": "address",
          "name": "_vrf_contract_address",
          "type": "address"
        }
      ],
      "name": "setRandomizationContract",
      "outputs": [],
      "stateMutability": "nonpayable",
      "type": "function"
    },
    {
      "inputs": [],
      "name": "startBattle",
      "outputs": [],
      "stateMutability": "nonpayable",
      "type": "function"
    },
    {
      "inputs": [
        {
          "internalType": "address",
          "name": "newOwner",
          "type": "address"
        }
      ],
      "name": "transferOwnership",
      "outputs": [],
      "stateMutability": "nonpayable",
      "type": "function"
    },
    {
      "inputs": [],
      "name": "withdraw",
      "outputs": [],
      "stateMutability": "nonpayable",
      "type": "function"
    }
  ],
  "bytecode": "0x60806040523480156200001157600080fd5b506040516200549e3803806200549e83398181016040528101906200003791906200059f565b620000576200004b6200025b60201b60201c565b6200026360201b60201c565b84600260006101000a81548173ffffffffffffffffffffffffffffffffffffffff021916908373ffffffffffffffffffffffffffffffffffffffff16021790555083600360006101000a81548173ffffffffffffffffffffffffffffffffffffffff021916908373ffffffffffffffffffffffffffffffffffffffff16021790555082600460006101000a81548173ffffffffffffffffffffffffffffffffffffffff021916908373ffffffffffffffffffffffffffffffffffffffff16021790555081600a9060046200012d92919062000327565b5080600560006101000a81548173ffffffffffffffffffffffffffffffffffffffff021916908373ffffffffffffffffffffffffffffffffffffffff16021790555033600660006101000a81548173ffffffffffffffffffffffffffffffffffffffff021916908373ffffffffffffffffffffffffffffffffffffffff16021790555061034c600e60008081526020019081526020016000208190555061034c600e6000600181526020019081526020016000208190555061034c600e6000600281526020019081526020016000208190555061034c600f60008081526020019081526020016000208190555061034c600f6000600181526020019081526020016000208190555061034c600f60006002815260200190815260200160002081905550505050505062000628565b600033905090565b60008060009054906101000a900473ffffffffffffffffffffffffffffffffffffffff169050816000806101000a81548173ffffffffffffffffffffffffffffffffffffffff021916908373ffffffffffffffffffffffffffffffffffffffff1602179055508173ffffffffffffffffffffffffffffffffffffffff168173ffffffffffffffffffffffffffffffffffffffff167f8be0079c531659141344cd1fd0a4f28419497f9722a3daafe3b4186f6b6457e060405160405180910390a35050565b826004810192821562000396579160200282015b82811115620003955782518260006101000a81548173ffffffffffffffffffffffffffffffffffffffff021916908373ffffffffffffffffffffffffffffffffffffffff160217905550916020019190600101906200033b565b5b509050620003a59190620003a9565b5090565b5b80821115620003c4576000816000905550600101620003aa565b5090565b6000604051905090565b600080fd5b600073ffffffffffffffffffffffffffffffffffffffff82169050919050565b60006200040482620003d7565b9050919050565b6200041681620003f7565b81146200042257600080fd5b50565b60008151905062000436816200040b565b92915050565b600080fd5b6000601f19601f8301169050919050565b7f4e487b7100000000000000000000000000000000000000000000000000000000600052604160045260246000fd5b6200048c8262000441565b810181811067ffffffffffffffff82111715620004ae57620004ad62000452565b5b80604052505050565b6000620004c3620003c8565b9050620004d1828262000481565b919050565b600067ffffffffffffffff821115620004f457620004f362000452565b5b602082029050919050565b600080fd5b60006200051b6200051584620004d6565b620004b7565b90508060208402830185811115620005385762000537620004ff565b5b835b8181101562000565578062000550888262000425565b8452602084019350506020810190506200053a565b5050509392505050565b600082601f8301126200058757620005866200043c565b5b60046200059684828562000504565b91505092915050565b60008060008060006101008688031215620005bf57620005be620003d2565b5b6000620005cf8882890162000425565b9550506020620005e28882890162000425565b9450506040620005f58882890162000425565b935050606062000608888289016200056f565b92505060e06200061b8882890162000425565b9150509295509295909350565b614e6680620006386000396000f3fe6080604052600436106100fe5760003560e01c80637ec80d16116100955780639493ac07116100645780639493ac07146102ed578063c653befd14610316578063db14bfb414610359578063f2fde38b14610396578063fb33e5ae146103bf576100fe565b80637ec80d16146102315780637f6a078a1461026e57806382b816b3146102855780638da5cb5b146102c2576100fe565b806353b8dd77116100d157806353b8dd77146101975780635473e978146101d55780636771ebda146101fe578063715018a61461021a576100fe565b8063240a2c97146101035780632d035fb41461011a5780633ccfd60b146101435780634117e4c41461015a575b600080fd5b34801561010f57600080fd5b506101186103e8565b005b34801561012657600080fd5b50610141600480360381019061013c9190613617565b610989565b005b34801561014f57600080fd5b506101586109ad565b005b34801561016657600080fd5b50610181600480360381019061017c9190613657565b610a86565b60405161018e9190613693565b60405180910390f35b3480156101a357600080fd5b506101be60048036038101906101b99190613657565b610a9e565b6040516101cc9291906136ae565b60405180910390f35b3480156101e157600080fd5b506101fc60048036038101906101f79190613735565b610ac2565b005b610218600480360381019061021391906137a2565b610b0e565b005b34801561022657600080fd5b5061022f611069565b005b34801561023d57600080fd5b5061025860048036038101906102539190613657565b61107d565b6040516102659190613693565b60405180910390f35b34801561027a57600080fd5b506102836110e5565b005b34801561029157600080fd5b506102ac60048036038101906102a79190613657565b611272565b6040516102b99190613693565b60405180910390f35b3480156102ce57600080fd5b506102d761128a565b6040516102e49190613804565b60405180910390f35b3480156102f957600080fd5b50610314600480360381019061030f9190613657565b6112b3565b005b34801561032257600080fd5b5061033d60048036038101906103389190613735565b6112d4565b6040516103509796959493929190613849565b60405180910390f35b34801561036557600080fd5b50610380600480360381019061037b9190613657565b611373565b60405161038d91906138b8565b60405180910390f35b3480156103a257600080fd5b506103bd60048036038101906103b89190613735565b6114a2565b005b3480156103cb57600080fd5b506103e660048036038101906103e19190613735565b611525565b005b6000600860003373ffffffffffffffffffffffffffffffffffffffff1673ffffffffffffffffffffffffffffffffffffffff1681526020019081526020016000206040518060e0016040529081600082015481526020016001820160009054906101000a900467ffffffffffffffff1667ffffffffffffffff1667ffffffffffffffff1681526020016001820160089054906101000a900467ffffffffffffffff1667ffffffffffffffff1667ffffffffffffffff1681526020016001820160109054906101000a900467ffffffffffffffff1667ffffffffffffffff1667ffffffffffffffff1681526020016001820160189054906101000a900467ffffffffffffffff1667ffffffffffffffff1667ffffffffffffffff168152602001600282015481526020016003820160009054906101000a900460ff1615151515815250509050600080600160009054906101000a900473ffffffffffffffffffffffffffffffffffffffff1673ffffffffffffffffffffffffffffffffffffffff1663d8a4676f84600001516040518263ffffffff1660e01b815260040161058f9190613693565b600060405180830381865afa1580156105ac573d6000803e3d6000fd5b505050506040513d6000823e3d601f19601f820116820180604052508101906105d59190613a6d565b9150915081610619576040517f08c379a000000000000000000000000000000000000000000000000000000000815260040161061090613b26565b60405180910390fd5b600061063f8260008151811061063257610631613b46565b5b6020026020010151611571565b90506000806106518660a00151611645565b915091506000806106b6886020015167ffffffffffffffff16896040015167ffffffffffffffff168760008151811061068d5761068c613b46565b5b6020026020010151886001815181106106a9576106a8613b46565b5b602002602001015161171c565b9150915060dc8460e0015163ffffffff161080156106e257506000886040015167ffffffffffffffff16145b1561070e576064601982606001516106fa9190613ba4565b6107049190613c15565b8160600181815250505b8760405161071c9190613d42565b60405180910390207f35cc45055cf75bfd1439799d9a9a7ee9fcaf6b8b4d3e913f71201b1d602246a4858585856040516107599493929190613f37565b60405180910390a28760c00151156107a6576040517f08c379a000000000000000000000000000000000000000000000000000000000815260040161079d90613ff2565b60405180910390fd5b6001600860003373ffffffffffffffffffffffffffffffffffffffff1673ffffffffffffffffffffffffffffffffffffffff16815260200190815260200160002060030160006101000a81548160ff02191690831515021790555060006108158960000151868686868c611798565b905080600860003373ffffffffffffffffffffffffffffffffffffffff1673ffffffffffffffffffffffffffffffffffffffff16815260200190815260200160002060010160106101000a81548167ffffffffffffffff021916908367ffffffffffffffff16021790555060018167ffffffffffffffff1614806108a3575060028167ffffffffffffffff16145b156108b3576108b28986611b00565b5b60018167ffffffffffffffff16036109305761092f89876002815181106108dd576108dc613b46565b5b602002602001015161ffff16886003815181106108fd576108fc613b46565b5b602002602001015161ffff168960048151811061091d5761091c613b46565b5b602002602001015161ffff1633611cb2565b5b6109428960a001518560e00151611ea7565b88600001517f277c2ba9c8248b5a28abd67ee9d4e2a32e7c0a3914aa3d726deef541031e29ee82604051610976919061404d565b60405180910390a2505050505050505050565b610991611ee8565b80600f6000848152602001908152602001600020819055505050565b6109b5611ee8565b6000600660009054906101000a900473ffffffffffffffffffffffffffffffffffffffff1673ffffffffffffffffffffffffffffffffffffffff16476040516109fd90614099565b60006040518083038185875af1925050503d8060008114610a3a576040519150601f19603f3d011682016040523d82523d6000602084013e610a3f565b606091505b5050905080610a83576040517f08c379a0000000000000000000000000000000000000000000000000000000008152600401610a7a906140fa565b60405180910390fd5b50565b600e6020528060005260406000206000915090505481565b60096020528060005260406000206000915090508060000154908060010154905082565b610aca611ee8565b80600160006101000a81548173ffffffffffffffffffffffffffffffffffffffff021916908373ffffffffffffffffffffffffffffffffffffffff16021790555050565b600260009054906101000a900473ffffffffffffffffffffffffffffffffffffffff1673ffffffffffffffffffffffffffffffffffffffff1663e327a6af33856040518363ffffffff1660e01b8152600401610b6b92919061411a565b602060405180830381865afa158015610b88573d6000803e3d6000fd5b505050506040513d601f19601f82011682018060405250810190610bac9190614143565b610beb576040517f08c379a0000000000000000000000000000000000000000000000000000000008152600401610be2906141bc565b60405180910390fd5b60038267ffffffffffffffff16108015610c0f575060058167ffffffffffffffff16105b610c4e576040517f08c379a0000000000000000000000000000000000000000000000000000000008152600401610c4590614228565b60405180910390fd5b600754341015610c93576040517f08c379a0000000000000000000000000000000000000000000000000000000008152600401610c8a906142ba565b60405180910390fd5b6000610c9e8461107d565b90506064811015610ce4576040517f08c379a0000000000000000000000000000000000000000000000000000000008152600401610cdb90614326565b60405180910390fd5b610cef816064611f66565b60096000868152602001908152602001600020600001819055504260096000868152602001908152602001600020600101819055506000610d448467ffffffffffffffff168467ffffffffffffffff16611f8b565b925050506000600e60008667ffffffffffffffff16815260200190815260200160002054905081811015610d76578091505b610d808183611f66565b600e60008767ffffffffffffffff168152602001908152602001600020819055506040518060e00160405280600160009054906101000a900473ffffffffffffffffffffffffffffffffffffffff1673ffffffffffffffffffffffffffffffffffffffff16639bca039d33600b60006040518463ffffffff1660e01b8152600401610e0d93929190614355565b6020604051808303816000875af1158015610e2c573d6000803e3d6000fd5b505050506040513d601f19601f82011682018060405250810190610e50919061438c565b81526020018667ffffffffffffffff1681526020018567ffffffffffffffff168152602001600067ffffffffffffffff1681526020018367ffffffffffffffff16815260200187815260200160001515815250600860003373ffffffffffffffffffffffffffffffffffffffff1673ffffffffffffffffffffffffffffffffffffffff1681526020019081526020016000206000820151816000015560208201518160010160006101000a81548167ffffffffffffffff021916908367ffffffffffffffff16021790555060408201518160010160086101000a81548167ffffffffffffffff021916908367ffffffffffffffff16021790555060608201518160010160106101000a81548167ffffffffffffffff021916908367ffffffffffffffff16021790555060808201518160010160186101000a81548167ffffffffffffffff021916908367ffffffffffffffff16021790555060a0820151816002015560c08201518160030160006101000a81548160ff0219169083151502179055509050503373ffffffffffffffffffffffffffffffffffffffff167fdb001f22d59ea0dc19344aa108b16bbf05d248b5857355d379a045f46b90055f600860003373ffffffffffffffffffffffffffffffffffffffff1673ffffffffffffffffffffffffffffffffffffffff168152602001908152602001600020604051611059919061459a565b60405180910390a2505050505050565b611071611ee8565b61107b6000611fce565b565b600080603c6110a2426009600087815260200190815260200160002060010154611f66565b6110ac9190613c15565b90506110dd60096000858152602001908152602001600020600001546005836110d59190613ba4565b6103e8612092565b915050919050565b601060009054906101000a900473ffffffffffffffffffffffffffffffffffffffff1673ffffffffffffffffffffffffffffffffffffffff163373ffffffffffffffffffffffffffffffffffffffff1614611175576040517f08c379a000000000000000000000000000000000000000000000000000000000815260040161116c90614627565b60405180910390fd5b600f600080815260200190815260200160002054600e600080815260200190815260200160002081905550600f60006001815260200190815260200160002054600e60006001815260200190815260200160002081905550600f60006002815260200190815260200160002054600e600060028152602001908152602001600020819055507fe7b67699e33b54befd49a619f3d7bc3f346c351e25e6c0ab273c43120cba4290600e600080815260200190815260200160002054600e60006001815260200190815260200160002054600e6000600281526020019081526020016000205460405161126893929190614647565b60405180910390a1565b600f6020528060005260406000206000915090505481565b60008060009054906101000a900473ffffffffffffffffffffffffffffffffffffffff16905090565b6112bb611ee8565b633b9aca00816112cb9190613ba4565b60078190555050565b60086020528060005260406000206000915090508060000154908060010160009054906101000a900467ffffffffffffffff16908060010160089054906101000a900467ffffffffffffffff16908060010160109054906101000a900467ffffffffffffffff16908060010160189054906101000a900467ffffffffffffffff16908060020154908060030160009054906101000a900460ff16905087565b60006103e86113818361107d565b106113c1576040517f08c379a00000000000000000000000000000000000000000000000000000000081526004016113b8906146f0565b60405180910390fd5b600560009054906101000a900473ffffffffffffffffffffffffffffffffffffffff1673ffffffffffffffffffffffffffffffffffffffff166379cc679033670de0b6b3a76400006040518363ffffffff1660e01b815260040161142692919061474b565b600060405180830381600087803b15801561144057600080fd5b505af1158015611454573d6000803e3d6000fd5b5050505060405180604001604052806103e881526020014281525060096000848152602001908152602001600020600082015181600001556020820151816001015590505060019050919050565b6114aa611ee8565b600073ffffffffffffffffffffffffffffffffffffffff168173ffffffffffffffffffffffffffffffffffffffff1603611519576040517f08c379a0000000000000000000000000000000000000000000000000000000008152600401611510906147e6565b60405180910390fd5b61152281611fce565b50565b61152d611ee8565b80601060006101000a81548173ffffffffffffffffffffffffffffffffffffffff021916908373ffffffffffffffffffffffffffffffffffffffff16021790555050565b60606000601067ffffffffffffffff8111156115905761158f613915565b5b6040519080825280602002602001820160405280156115be5781602001602082028036833780820191505090505b509050600061ffff9050600080600f90505b600081126116395760008387169050601084901b93508281901c905080858381518110611600576115ff613b46565b5b602002602001019061ffff16908161ffff16815250506010836116239190614806565b925050808061163190614844565b9150506115d0565b50829350505050919050565b61164d61346f565b6116556134e4565b600260009054906101000a900473ffffffffffffffffffffffffffffffffffffffff1673ffffffffffffffffffffffffffffffffffffffff1663468f25b0846040518263ffffffff1660e01b81526004016116b09190613693565b61010060405180830381865afa1580156116ce573d6000803e3d6000fd5b505050506040513d601f19601f820116820180604052508101906116f29190614987565b91506116fd826120c2565b9050600061170a8461214b565b905061171682826124a1565b50915091565b611724613529565b61172c6134e4565b6040518060a001604052808781526020018681526020016117508661ffff1661258d565b815260200161175e876125a3565b81526020016117708561ffff166125ef565b8152509150600061178083612606565b905061178c81846127d5565b91505094509492505050565b6000806000600190505b600b811015611af45760006117d08583815181106117c3576117c2613b46565b5b6020026020010151611571565b905060005b6010811015611adf5783806117e9906149b5565b94505060008960600151118015611804575060008760600151115b8015611811575060148411155b15611a365761181e613558565b6119008b6000015163ffffffff168b8a604051806080016040528088888151811061184c5761184b613b46565b5b602002602001015161ffff1661ffff1681526020018860018961186f9190614806565b815181106118805761187f613b46565b5b602002602001015161ffff1661ffff168152602001886002896118a39190614806565b815181106118b4576118b3613b46565b5b602002602001015161ffff1661ffff168152602001886003896118d79190614806565b815181106118e8576118e7613b46565b5b602002602001015161ffff1661ffff16815250612857565b81600001819052506119f08960400151898c60405180608001604052808860048961192b9190614806565b8151811061193c5761193b613b46565b5b602002602001015161ffff1661ffff1681526020018860058961195f9190614806565b815181106119705761196f613b46565b5b602002602001015161ffff1661ffff168152602001886006896119939190614806565b815181106119a4576119a3613b46565b5b602002602001015161ffff1661ffff168152602001886007896119c79190614806565b815181106119d8576119d7613b46565b5b602002602001015161ffff1661ffff16815250612857565b81602001819052508b7ff90dbb308d9b20e19aa7a65a33b6573389d01c592d9fd065be1de22dcfb9d4bc82604051611a289190614a82565b60405180910390a250611acb565b60008960600151118015611a4e575060008760600151115b8015611a5a5750601484115b15611a6457600294505b60008960600151148015611a7c575060008760600151145b15611a8657600294505b60008960600151118015611a9e575060008760600151145b15611aa857600194505b60008960600151148015611ac0575060008760600151115b15611aca57600094505b5b600881611ad89190614806565b90506117d5565b50508080611aec906149b5565b9150506117a2565b50509695505050505050565b600080611b1a846040015167ffffffffffffffff166129cb565b915091506000611b37856020015167ffffffffffffffff16612a28565b63ffffffff1690506127108460e0015163ffffffff161015611cab57611b708460e0015163ffffffff168463ffffffff16612710612092565b8460e0019063ffffffff16908163ffffffff168152505060008103611bb7578184604001818151611ba19190614a9e565b91509063ffffffff16908163ffffffff16815250505b60018103611be7578184606001818151611bd19190614a9e565b91509063ffffffff16908163ffffffff16815250505b60028103611c17578184608001818151611c019190614a9e565b91509063ffffffff16908163ffffffff16815250505b600260009054906101000a900473ffffffffffffffffffffffffffffffffffffffff1673ffffffffffffffffffffffffffffffffffffffff16638d3bef3e8660a00151866040518363ffffffff1660e01b8152600401611c78929190614ad6565b600060405180830381600087803b158015611c9257600080fd5b505af1158015611ca6573d6000803e3d6000fd5b505050505b5050505050565b6000806000611cdd886020015167ffffffffffffffff16896040015167ffffffffffffffff16611f8b565b9250925092506000611cfe88848b6080015167ffffffffffffffff16612a55565b90506000600a8560048110611d1657611d15613b46565b5b0160009054906101000a900473ffffffffffffffffffffffffffffffffffffffff1690508073ffffffffffffffffffffffffffffffffffffffff166340c10f1987670de0b6b3a764000085611d6b9190613ba4565b6040518363ffffffff1660e01b8152600401611d8892919061411a565b600060405180830381600087803b158015611da257600080fd5b505af1158015611db6573d6000803e3d6000fd5b505050506000611dc589612ab9565b90508015611e9a576000611dda898787612a55565b90506000600a600360048110611df357611df2613b46565b5b0160009054906101000a900473ffffffffffffffffffffffffffffffffffffffff1690508073ffffffffffffffffffffffffffffffffffffffff166340c10f198a670de0b6b3a764000085611e489190613ba4565b6040518363ffffffff1660e01b8152600401611e6592919061411a565b600060405180830381600087803b158015611e7f57600080fd5b505af1158015611e93573d6000803e3d6000fd5b5050505050505b5050505050505050505050565b611eca6009600084815260200190815260200160002060000154826103e8612092565b60096000848152602001908152602001600020600001819055505050565b611ef0612adf565b73ffffffffffffffffffffffffffffffffffffffff16611f0e61128a565b73ffffffffffffffffffffffffffffffffffffffff1614611f64576040517f08c379a0000000000000000000000000000000000000000000000000000000008152600401611f5b90614b4c565b60405180910390fd5b565b6000828211611f80578183611f7b9190614b6c565b611f83565b60005b905092915050565b6000806000808503611f9c57600092505b60018503611fa957600192505b60028503611fb657600292505b611fbf84612ae7565b80925081935050509250925092565b60008060009054906101000a900473ffffffffffffffffffffffffffffffffffffffff169050816000806101000a81548173ffffffffffffffffffffffffffffffffffffffff021916908373ffffffffffffffffffffffffffffffffffffffff1602179055508173ffffffffffffffffffffffffffffffffffffffff168173ffffffffffffffffffffffffffffffffffffffff167f8be0079c531659141344cd1fd0a4f28419497f9722a3daafe3b4186f6b6457e060405160405180910390a35050565b60008183856120a19190614806565b116120b75782846120b29190614806565b6120b9565b815b90509392505050565b6120ca6134e4565b6040518061010001604052806120df84612b44565b81526020016120ed84612bf7565b81526020016120fb84612cab565b815260200161210984612d5f565b815260200161211784612de0565b815260200161212584612e61565b815260200161213384612ee2565b815260200161214184612f02565b8152509050919050565b6121536134e4565b6000600460009054906101000a900473ffffffffffffffffffffffffffffffffffffffff1673ffffffffffffffffffffffffffffffffffffffff1663c71fcf70846040518263ffffffff1660e01b81526004016121b09190613693565b608060405180830381865afa1580156121cd573d6000803e3d6000fd5b505050506040513d601f19601f820116820180604052508101906121f19190614c2d565b905061229d82600360009054906101000a900473ffffffffffffffffffffffffffffffffffffffff1673ffffffffffffffffffffffffffffffffffffffff1663ad217ae584600001516040518263ffffffff1660e01b8152600401612256919061404d565b61010060405180830381865afa158015612274573d6000803e3d6000fd5b505050506040513d601f19601f820116820180604052508101906122989190614d24565b612f3d565b61234782600360009054906101000a900473ffffffffffffffffffffffffffffffffffffffff1673ffffffffffffffffffffffffffffffffffffffff1663ad217ae584602001516040518263ffffffff1660e01b8152600401612300919061404d565b61010060405180830381865afa15801561231e573d6000803e3d6000fd5b505050506040513d601f19601f820116820180604052508101906123429190614d24565b612f3d565b6123f182600360009054906101000a900473ffffffffffffffffffffffffffffffffffffffff1673ffffffffffffffffffffffffffffffffffffffff1663ad217ae584604001516040518263ffffffff1660e01b81526004016123aa919061404d565b61010060405180830381865afa1580156123c8573d6000803e3d6000fd5b505050506040513d601f19601f820116820180604052508101906123ec9190614d24565b612f3d565b61249b82600360009054906101000a900473ffffffffffffffffffffffffffffffffffffffff1673ffffffffffffffffffffffffffffffffffffffff1663ad217ae584606001516040518263ffffffff1660e01b8152600401612454919061404d565b61010060405180830381865afa158015612472573d6000803e3d6000fd5b505050506040513d601f19601f820116820180604052508101906124969190614d24565b612f3d565b50919050565b8060000151826000018181516124b79190614806565b915081815250508060200151826020018181516124d49190614806565b915081815250508060400151826040018181516124f19190614806565b9150818152505080606001518260600181815161250e9190614806565b9150818152505080608001518260800181815161252b9190614806565b915081815250508060a001518260a0018181516125489190614806565b915081815250508060c001518260c0018181516125659190614806565b915081815250508060e001518260e0018181516125829190614806565b915081815250505050565b600060068261259c9190614d52565b9050919050565b60008082036125b25761025890505b600182036125c05761038490505b600282036125ce5761051490505b600382036125dc5761070890505b600482036125ea5761096090505b919050565b6000610190826125ff9190614d52565b9050919050565b61260e61357e565b60008260000151036126a4576103e8826060015161025861262f9190613ba4565b6126399190613c15565b8160000181815250506103e8826060015183608001516126599190613ba4565b6126639190613c15565b8160200181815250506103e8826060015183608001516101906126869190614b6c565b6126909190613ba4565b61269a9190613c15565b8160400181815250505b600182600001510361273a576103e8826060015183608001516126c79190613ba4565b6126d19190613c15565b8160000181815250506103e882606001516102586126ef9190613ba4565b6126f99190613c15565b8160200181815250506103e88260600151836080015161019061271c9190614b6c565b6127269190613ba4565b6127309190613c15565b8160400181815250505b60028260000151036127d0576103e88260600151836080015161275d9190613ba4565b6127679190613c15565b8160000181815250506103e88260600151836080015161019061278a9190614b6c565b6127949190613ba4565b61279e9190613c15565b8160200181815250506103e882606001516102586127bc9190613ba4565b6127c69190613c15565b8160400181815250505b919050565b6127dd6134e4565b6040518061010001604052806127f38585613029565b815260200161280285856130af565b81526020016128118585613136565b815260200161282085856131bd565b815260200161282f8585613211565b815260200161283e8585613265565b8152602001600081526020016000815250905092915050565b61285f61359f565b6000806000806128878660006004811061287c5761287b613b46565b5b6020020151886132b9565b9050806129bf576128b1866001600481106128a5576128a4613b46565b5b6020020151898b6132e7565b93506128d5866002600481106128ca576128c9613b46565b5b602002015189613399565b92506128f9866003600481106128ee576128ed613b46565b5b6020020151896133c7565b915082156129195761290f876060015185611f66565b8760600181815250505b811561292f5760028461292c9190613ba4565b93505b866020015184111561297d57612964876060015160028960200151876129559190614b6c565b61295f9190613c15565b611f66565b8760600181815250506000876020018181525050612995565b61298b876020015185611f66565b8760200181815250505b60405180608001604052808215158152602001841515815260200183151581526020018581525094505b50505050949350505050565b600080600083036129df5760149150600190505b600183036129f05760289150600390505b60028303612a0157603c9150600690505b60038303612a125760509150600a90505b60048303612a235760649150600f90505b915091565b6000808203612a3657600290505b60018203612a4357600090505b60028203612a5057600190505b919050565b600082821115612aa75760006103e885612a6f9190614d52565b90506000612a7d8486611f66565b9050612aa2856103e88484612a929190613ba4565b612a9c9190613c15565b86612092565b925050505b828211612ab2578190505b9392505050565b6000806103e883612aca9190614d52565b905060fa8111612ad957600191505b50919050565b600033905090565b60008060008303612afb5760019150600390505b60018303612b0c5760029150600690505b60028303612b1d5760039150600990505b60038303612b2e5760049150600c90505b60048303612b3f5760059150600f90505b915091565b60006004600a60048460800151612b5b9190614d83565b60068560400151612b6c9190614d83565b612b769190614a9e565b612b809190614dc0565b612b8a9190614dc0565b63ffffffff169050600080836000015163ffffffff1603612baa57600590505b60008360a0015163ffffffff1603612bcc57600581612bc99190614806565b90505b60648183612bda9190613ba4565b612be49190613c15565b82612bef9190614806565b915050919050565b60006002600a60048460400151612c0e9190614d83565b60068560600151612c1f9190614d83565b612c299190614a9e565b612c339190614dc0565b612c3d9190614dc0565b63ffffffff16905060006003836000015163ffffffff1603612c5e57600a90505b60038360a0015163ffffffff1603612c8057600a81612c7d9190614806565b90505b60648183612c8e9190613ba4565b612c989190613c15565b82612ca39190614806565b915050919050565b60006002600a60048460600151612cc29190614d83565b60068560800151612cd39190614d83565b612cdd9190614a9e565b612ce79190614dc0565b612cf19190614dc0565b63ffffffff16905060006005836000015163ffffffff1603612d1257600a90505b60058360a0015163ffffffff1603612d3457600a81612d319190614806565b90505b60648183612d429190613ba4565b612d4c9190613c15565b82612d579190614806565b915050919050565b600060058260600151612d729190614d83565b63ffffffff16905060006002836000015163ffffffff1603612d9357600390505b60028360a0015163ffffffff1603612db557600381612db29190614806565b90505b60648183612dc39190613ba4565b612dcd9190613c15565b82612dd89190614806565b915050919050565b600060028260400151612df39190614dc0565b63ffffffff16905060006001836000015163ffffffff1603612e1457600a90505b60018360a0015163ffffffff1603612e3657600a81612e339190614806565b90505b60648183612e449190613ba4565b612e4e9190613c15565b82612e599190614806565b915050919050565b600060028260800151612e749190614dc0565b63ffffffff16905060006004836000015163ffffffff1603612e9557600a90505b60048360a0015163ffffffff1603612eb757600a81612eb49190614806565b90505b60648183612ec59190613ba4565b612ecf9190613c15565b82612eda9190614806565b915050919050565b6000600a8260800151612ef59190614dc0565b63ffffffff169050919050565b6000600a600283604001518460600151612f1c9190614a9e565b612f269190614dc0565b612f309190614dc0565b63ffffffff169050919050565b806000015182600001818151612f539190614806565b91508181525050806020015182602001818151612f709190614806565b91508181525050806040015182604001818151612f8d9190614806565b91508181525050806060015182606001818151612faa9190614806565b91508181525050806080015182608001818151612fc79190614806565b915081815250508060a001518260a001818151612fe49190614806565b915081815250508060c001518260c0018181516130019190614806565b915081815250508060e001518260e00181815161301e9190614806565b915081815250505050565b60006002600a600485604001516130409190613ba4565b600686600001516130519190613ba4565b61305b9190614806565b6130659190613c15565b61306f9190613c15565b905060008083604001510361308357600590505b606481836130919190613ba4565b61309b9190613c15565b826130a69190614806565b91505092915050565b60006002600a600485600001516130c69190613ba4565b600686602001516130d79190613ba4565b6130e19190614806565b6130eb9190613c15565b6130f59190613c15565b90506000600383604001510361310a57600a90505b606481836131189190613ba4565b6131229190613c15565b8261312d9190614806565b91505092915050565b60006002600a6004856020015161314d9190613ba4565b6006866040015161315e9190613ba4565b6131689190614806565b6131729190613c15565b61317c9190613c15565b90506000600583604001510361319157600a90505b6064818361319f9190613ba4565b6131a99190613c15565b826131b49190614806565b91505092915050565b6000600583602001516131d09190613ba4565b9050600060028360400151036131e557600390505b606481836131f39190613ba4565b6131fd9190613c15565b826132089190614806565b91505092915050565b6000600283600001516132249190613c15565b90506000600183604001510361323957600a90505b606481836132479190613ba4565b6132519190613c15565b8261325c9190614806565b91505092915050565b6000600283604001516132789190613c15565b90506000600483604001510361328d57600a90505b6064818361329b9190613ba4565b6132a59190613c15565b826132b09190614806565b91505092915050565b6000806103e8846132ca9190614dff565b61ffff169050826040015181116132e057600191505b5092915050565b60008060006132f5846133f5565b9150915060006103e886600001518461330e9190613ba4565b6133189190613c15565b905060006103e887600001518461332f9190613ba4565b6133399190613c15565b9050600082826133499190614b6c565b905060006103e88a61335b9190614dff565b61ffff16905060006103e882846133729190613ba4565b61337c9190613c15565b9050613389858286612092565b9750505050505050509392505050565b6000806103e8846133aa9190614dff565b61ffff169050826080015181116133c057600191505b5092915050565b6000806103e8846133d89190614dff565b61ffff1690508260a0015181116133ee57600191505b5092915050565b6000806000830361340b5761028a915061054690505b6001830361341e576102bc91506104e290505b60028303613431576102ee915061044c90505b6003830361344457610320915061041a90505b600483036134575761035291506103e890505b6005830361346a5761038491506103b690505b915091565b604051806101000160405280600063ffffffff168152602001600063ffffffff168152602001600063ffffffff168152602001600063ffffffff168152602001600063ffffffff168152602001600063ffffffff168152602001600063ffffffff168152602001600063ffffffff1681525090565b60405180610100016040528060008152602001600081526020016000815260200160008152602001600081526020016000815260200160008152602001600081525090565b6040518060a0016040528060008152602001600081526020016000815260200160008152602001600081525090565b604051806040016040528061356b61359f565b815260200161357861359f565b81525090565b60405180606001604052806000815260200160008152602001600081525090565b6040518060800160405280600015158152602001600015158152602001600015158152602001600081525090565b6000604051905090565b600080fd5b600080fd5b6000819050919050565b6135f4816135e1565b81146135ff57600080fd5b50565b600081359050613611816135eb565b92915050565b6000806040838503121561362e5761362d6135d7565b5b600061363c85828601613602565b925050602061364d85828601613602565b9150509250929050565b60006020828403121561366d5761366c6135d7565b5b600061367b84828501613602565b91505092915050565b61368d816135e1565b82525050565b60006020820190506136a86000830184613684565b92915050565b60006040820190506136c36000830185613684565b6136d06020830184613684565b9392505050565b600073ffffffffffffffffffffffffffffffffffffffff82169050919050565b6000613702826136d7565b9050919050565b613712816136f7565b811461371d57600080fd5b50565b60008135905061372f81613709565b92915050565b60006020828403121561374b5761374a6135d7565b5b600061375984828501613720565b91505092915050565b600067ffffffffffffffff82169050919050565b61377f81613762565b811461378a57600080fd5b50565b60008135905061379c81613776565b92915050565b6000806000606084860312156137bb576137ba6135d7565b5b60006137c986828701613602565b93505060206137da8682870161378d565b92505060406137eb8682870161378d565b9150509250925092565b6137fe816136f7565b82525050565b600060208201905061381960008301846137f5565b92915050565b61382881613762565b82525050565b60008115159050919050565b6138438161382e565b82525050565b600060e08201905061385e600083018a613684565b61386b602083018961381f565b613878604083018861381f565b613885606083018761381f565b613892608083018661381f565b61389f60a0830185613684565b6138ac60c083018461383a565b98975050505050505050565b60006020820190506138cd600083018461383a565b92915050565b6138dc8161382e565b81146138e757600080fd5b50565b6000815190506138f9816138d3565b92915050565b600080fd5b6000601f19601f8301169050919050565b7f4e487b7100000000000000000000000000000000000000000000000000000000600052604160045260246000fd5b61394d82613904565b810181811067ffffffffffffffff8211171561396c5761396b613915565b5b80604052505050565b600061397f6135cd565b905061398b8282613944565b919050565b600067ffffffffffffffff8211156139ab576139aa613915565b5b602082029050602081019050919050565b600080fd5b6000815190506139d0816135eb565b92915050565b60006139e96139e484613990565b613975565b90508083825260208201905060208402830185811115613a0c57613a0b6139bc565b5b835b81811015613a355780613a2188826139c1565b845260208401935050602081019050613a0e565b5050509392505050565b600082601f830112613a5457613a536138ff565b5b8151613a648482602086016139d6565b91505092915050565b60008060408385031215613a8457613a836135d7565b5b6000613a92858286016138ea565b925050602083015167ffffffffffffffff811115613ab357613ab26135dc565b5b613abf85828601613a3f565b9150509250929050565b600082825260208201905092915050565b7f44756e67656f6e733a204e6f74207965742066756c66696c6c65642e00000000600082015250565b6000613b10601c83613ac9565b9150613b1b82613ada565b602082019050919050565b60006020820190508181036000830152613b3f81613b03565b9050919050565b7f4e487b7100000000000000000000000000000000000000000000000000000000600052603260045260246000fd5b7f4e487b7100000000000000000000000000000000000000000000000000000000600052601160045260246000fd5b6000613baf826135e1565b9150613bba836135e1565b9250828202613bc8816135e1565b91508282048414831517613bdf57613bde613b75565b5b5092915050565b7f4e487b7100000000000000000000000000000000000000000000000000000000600052601260045260246000fd5b6000613c20826135e1565b9150613c2b836135e1565b925082613c3b57613c3a613be6565b5b828204905092915050565b613c4f816135e1565b82525050565b6000613c618383613c46565b60208301905092915050565b613c7681613762565b82525050565b6000613c888383613c6d565b60208301905092915050565b613c9d8161382e565b82525050565b6000613caf8383613c94565b60208301905092915050565b600082016000820151613cce8482613c55565b9350506020820151613ce08482613c7c565b9350506040820151613cf28482613c7c565b9350506060820151613d048482613c7c565b9350506080820151613d168482613c7c565b93505060a0820151613d288482613c55565b93505060c0820151613d3a8482613ca3565b935050505050565b6000613d4e8284613cbb565b60e08201915081905092915050565b600063ffffffff82169050919050565b613d7681613d5d565b82525050565b61010082016000820151613d936000850182613d6d565b506020820151613da66020850182613d6d565b506040820151613db96040850182613d6d565b506060820151613dcc6060850182613d6d565b506080820151613ddf6080850182613d6d565b5060a0820151613df260a0850182613d6d565b5060c0820151613e0560c0850182613d6d565b5060e0820151613e1860e0850182613d6d565b50505050565b613e27816135e1565b82525050565b61010082016000820151613e446000850182613e1e565b506020820151613e576020850182613e1e565b506040820151613e6a6040850182613e1e565b506060820151613e7d6060850182613e1e565b506080820151613e906080850182613e1e565b5060a0820151613ea360a0850182613e1e565b5060c0820151613eb660c0850182613e1e565b5060e0820151613ec960e0850182613e1e565b50505050565b60a082016000820151613ee56000850182613e1e565b506020820151613ef86020850182613e1e565b506040820151613f0b6040850182613e1e565b506060820151613f1e6060850182613e1e565b506080820151613f316080850182613e1e565b50505050565b60006103a082019050613f4d6000830187613d7c565b613f5b610100830186613e2d565b613f69610200830185613ecf565b613f776102a0830184613e2d565b95945050505050565b7f44756e67656f6e733a20426174746c6520616c726561647920636f6d706c657460008201527f65642e0000000000000000000000000000000000000000000000000000000000602082015250565b6000613fdc602383613ac9565b9150613fe782613f80565b604082019050919050565b6000602082019050818103600083015261400b81613fcf565b9050919050565b6000819050919050565b600061403761403261402d84613762565b614012565b6135e1565b9050919050565b6140478161401c565b82525050565b6000602082019050614062600083018461403e565b92915050565b600081905092915050565b50565b6000614083600083614068565b915061408e82614073565b600082019050919050565b60006140a482614076565b9150819050919050565b7f4661696c656420746f207769746864726177206d61746963732e000000000000600082015250565b60006140e4601a83613ac9565b91506140ef826140ae565b602082019050919050565b60006020820190508181036000830152614113816140d7565b9050919050565b600060408201905061412f60008301856137f5565b61413c6020830184613684565b9392505050565b600060208284031215614159576141586135d7565b5b6000614167848285016138ea565b91505092915050565b7f44756e67656f6e733a20436861726163746572206e6f74206f776e6564000000600082015250565b60006141a6601d83613ac9565b91506141b182614170565b602082019050919050565b600060208201905081810360008301526141d581614199565b9050919050565b7f44756e67656f6e733a204976616c69642064756e67656f6e2f74696572000000600082015250565b6000614212601d83613ac9565b915061421d826141dc565b602082019050919050565b6000602082019050818103600083015261424181614205565b9050919050565b7f44756e67656f6e733a20496e73756666696369656e7420616d6f756e7420736560008201527f6e742e0000000000000000000000000000000000000000000000000000000000602082015250565b60006142a4602383613ac9565b91506142af82614248565b604082019050919050565b600060208201905081810360008301526142d381614297565b9050919050565b7f44756e67656f6e733a204e6f7420656e6f75676820656e657267792e00000000600082015250565b6000614310601c83613ac9565b915061431b826142da565b602082019050919050565b6000602082019050818103600083015261433f81614303565b9050919050565b61434f81613d5d565b82525050565b600060608201905061436a60008301866137f5565b6143776020830185614346565b614384604083018461383a565b949350505050565b6000602082840312156143a2576143a16135d7565b5b60006143b0848285016139c1565b91505092915050565b60008160001c9050919050565b6000819050919050565b60006143e36143de836143b9565b6143c6565b9050919050565b600067ffffffffffffffff82169050919050565b600061441161440c836143b9565b6143ea565b9050919050565b61442181613762565b82525050565b60008160401c9050919050565b600061444761444283614427565b6143ea565b9050919050565b60008160801c9050919050565b600061446e6144698361444e565b6143ea565b9050919050565b60008160c01c9050919050565b600061449561449083614475565b6143ea565b9050919050565b600060ff82169050919050565b60006144bc6144b7836143b9565b61449c565b9050919050565b6144cc8161382e565b82525050565b60e0820160008083015490506144e7816143d0565b6144f46000860182613e1e565b5060018301549050614505816143fe565b6145126020860182614418565b5061451c81614434565b6145296040860182614418565b506145338161445b565b6145406060860182614418565b5061454a81614482565b6145576080860182614418565b5060028301549050614568816143d0565b61457560a0860182613e1e565b5060038301549050614586816144a9565b61459360c08601826144c3565b5050505050565b600060e0820190506145af60008301846144d2565b92915050565b7f44756e67656f6e733a206f6e6c79207265706c656e697368657220636f6e747260008201527f6163740000000000000000000000000000000000000000000000000000000000602082015250565b6000614611602383613ac9565b915061461c826145b5565b604082019050919050565b6000602082019050818103600083015261464081614604565b9050919050565b600060608201905061465c6000830186613684565b6146696020830185613684565b6146766040830184613684565b949350505050565b7f44756e67656f6e733a2063686172616374657220616c7265616479206174206660008201527f756c6c2068700000000000000000000000000000000000000000000000000000602082015250565b60006146da602683613ac9565b91506146e58261467e565b604082019050919050565b60006020820190508181036000830152614709816146cd565b9050919050565b6000819050919050565b600061473561473061472b84614710565b614012565b6135e1565b9050919050565b6147458161471a565b82525050565b600060408201905061476060008301856137f5565b61476d602083018461473c565b9392505050565b7f4f776e61626c653a206e6577206f776e657220697320746865207a65726f206160008201527f6464726573730000000000000000000000000000000000000000000000000000602082015250565b60006147d0602683613ac9565b91506147db82614774565b604082019050919050565b600060208201905081810360008301526147ff816147c3565b9050919050565b6000614811826135e1565b915061481c836135e1565b925082820190508082111561483457614833613b75565b5b92915050565b6000819050919050565b600061484f8261483a565b91507f8000000000000000000000000000000000000000000000000000000000000000820361488157614880613b75565b5b600182039050919050565b600080fd5b61489a81613d5d565b81146148a557600080fd5b50565b6000815190506148b781614891565b92915050565b600061010082840312156148d4576148d361488c565b5b6148df610100613975565b905060006148ef848285016148a8565b6000830152506020614903848285016148a8565b6020830152506040614917848285016148a8565b604083015250606061492b848285016148a8565b606083015250608061493f848285016148a8565b60808301525060a0614953848285016148a8565b60a08301525060c0614967848285016148a8565b60c08301525060e061497b848285016148a8565b60e08301525092915050565b6000610100828403121561499e5761499d6135d7565b5b60006149ac848285016148bd565b91505092915050565b60006149c0826135e1565b91507fffffffffffffffffffffffffffffffffffffffffffffffffffffffffffffffff82036149f2576149f1613b75565b5b600182019050919050565b608082016000820151614a1360008501826144c3565b506020820151614a2660208501826144c3565b506040820151614a3960408501826144c3565b506060820151614a4c6060850182613e1e565b50505050565b61010082016000820151614a6960008501826149fd565b506020820151614a7c60808501826149fd565b50505050565b600061010082019050614a986000830184614a52565b92915050565b6000614aa982613d5d565b9150614ab483613d5d565b9250828201905063ffffffff811115614ad057614acf613b75565b5b92915050565b600061012082019050614aec6000830185613684565b614af96020830184613d7c565b9392505050565b7f4f776e61626c653a2063616c6c6572206973206e6f7420746865206f776e6572600082015250565b6000614b36602083613ac9565b9150614b4182614b00565b602082019050919050565b60006020820190508181036000830152614b6581614b29565b9050919050565b6000614b77826135e1565b9150614b82836135e1565b9250828203905081811115614b9a57614b99613b75565b5b92915050565b600081519050614baf81613776565b92915050565b600060808284031215614bcb57614bca61488c565b5b614bd56080613975565b90506000614be584828501614ba0565b6000830152506020614bf984828501614ba0565b6020830152506040614c0d84828501614ba0565b6040830152506060614c2184828501614ba0565b60608301525092915050565b600060808284031215614c4357614c426135d7565b5b6000614c5184828501614bb5565b91505092915050565b60006101008284031215614c7157614c7061488c565b5b614c7c610100613975565b90506000614c8c848285016139c1565b6000830152506020614ca0848285016139c1565b6020830152506040614cb4848285016139c1565b6040830152506060614cc8848285016139c1565b6060830152506080614cdc848285016139c1565b60808301525060a0614cf0848285016139c1565b60a08301525060c0614d04848285016139c1565b60c08301525060e0614d18848285016139c1565b60e08301525092915050565b60006101008284031215614d3b57614d3a6135d7565b5b6000614d4984828501614c5a565b91505092915050565b6000614d5d826135e1565b9150614d68836135e1565b925082614d7857614d77613be6565b5b828206905092915050565b6000614d8e82613d5d565b9150614d9983613d5d565b9250828202614da781613d5d565b9150808214614db957614db8613b75565b5b5092915050565b6000614dcb82613d5d565b9150614dd683613d5d565b925082614de657614de5613be6565b5b828204905092915050565b600061ffff82169050919050565b6000614e0a82614df1565b9150614e1583614df1565b925082614e2557614e24613be6565b5b82820690509291505056fea26469706673582212201713b7e44ead81e9cd34556d2e05b310e9e89b44bc002814cfab9b590e6fc2c664736f6c63430008110033",
  "linkReferences": {},
  "deployedLinkReferences": {}
}