{
  "_format": "hh-sol-artifact-1",
  "contractName": "EquipmentManager",
  "sourceName": "contracts/periphery/equipments/EquipmentManager.sol",
  "abi": [
    {
      "inputs": [
        {
          "internalType": "address",
          "name": "character_address",
          "type": "address"
        },
        {
          "internalType": "address",
          "name": "equipment_address",
          "type": "address"
        }
      ],
      "stateMutability": "nonpayable",
      "type": "constructor"
    },
    {
      "anonymous": false,
      "inputs": [
        {
          "indexed": true,
          "internalType": "uint256",
          "name": "character_id",
          "type": "uint256"
        },
        {
          "indexed": true,
          "internalType": "uint256",
          "name": "equipment_id",
          "type": "uint256"
        },
        {
          "indexed": false,
          "internalType": "uint256",
          "name": "equipment_type",
          "type": "uint256"
        }
      ],
      "name": "ItemEquipped",
      "type": "event"
    },
    {
      "anonymous": false,
      "inputs": [
        {
          "indexed": true,
          "internalType": "uint256",
          "name": "character_id",
          "type": "uint256"
        },
        {
          "indexed": true,
          "internalType": "uint256",
          "name": "equipment_id",
          "type": "uint256"
        },
        {
          "indexed": false,
          "internalType": "uint256",
          "name": "equipment_type",
          "type": "uint256"
        }
      ],
      "name": "ItemUnequipped",
      "type": "event"
    },
    {
      "inputs": [
        {
          "internalType": "uint256",
          "name": "_character_id",
          "type": "uint256"
        },
        {
          "internalType": "uint256",
          "name": "_equipment_id",
          "type": "uint256"
        }
      ],
      "name": "equip",
      "outputs": [],
      "stateMutability": "nonpayable",
      "type": "function"
    },
    {
      "inputs": [
        {
          "internalType": "uint256",
          "name": "_character_id",
          "type": "uint256"
        },
        {
          "internalType": "uint256[]",
          "name": "_equipment_ids",
          "type": "uint256[]"
        }
      ],
      "name": "equipMany",
      "outputs": [],
      "stateMutability": "nonpayable",
      "type": "function"
    },
    {
      "inputs": [
        {
          "internalType": "uint256",
          "name": "",
          "type": "uint256"
        }
      ],
      "name": "equippedTo",
      "outputs": [
        {
          "internalType": "uint256",
          "name": "",
          "type": "uint256"
        }
      ],
      "stateMutability": "view",
      "type": "function"
    },
    {
      "inputs": [
        {
          "internalType": "uint256",
          "name": "",
          "type": "uint256"
        }
      ],
      "name": "equippedWith",
      "outputs": [
        {
          "internalType": "uint64",
          "name": "headgear",
          "type": "uint64"
        },
        {
          "internalType": "uint64",
          "name": "armor",
          "type": "uint64"
        },
        {
          "internalType": "uint64",
          "name": "weapon",
          "type": "uint64"
        },
        {
          "internalType": "uint64",
          "name": "accessory",
          "type": "uint64"
        }
      ],
      "stateMutability": "view",
      "type": "function"
    },
    {
      "inputs": [
        {
          "internalType": "uint256",
          "name": "_character_id",
          "type": "uint256"
        }
      ],
      "name": "unequipAll",
      "outputs": [],
      "stateMutability": "nonpayable",
      "type": "function"
    },
    {
      "inputs": [
        {
          "internalType": "uint256",
          "name": "_character_id",
          "type": "uint256"
        }
      ],
      "name": "unequipAllFromTransfer",
      "outputs": [
        {
          "internalType": "bool",
          "name": "success",
          "type": "bool"
        }
      ],
      "stateMutability": "nonpayable",
      "type": "function"
    },
    {
      "inputs": [
        {
          "internalType": "uint256",
          "name": "_equipment_id",
          "type": "uint256"
        }
      ],
      "name": "unequipItem",
      "outputs": [
        {
          "internalType": "bool",
          "name": "success",
          "type": "bool"
        }
      ],
      "stateMutability": "nonpayable",
      "type": "function"
    },
    {
      "inputs": [
        {
          "internalType": "uint256",
          "name": "_equipment_id",
          "type": "uint256"
        }
      ],
      "name": "unequipItemFromTransfer",
      "outputs": [
        {
          "internalType": "bool",
          "name": "success",
          "type": "bool"
        }
      ],
      "stateMutability": "nonpayable",
      "type": "function"
    },
    {
      "inputs": [
        {
          "internalType": "uint256",
          "name": "_character_id",
          "type": "uint256"
        },
        {
          "internalType": "uint256",
          "name": "equipment_type",
          "type": "uint256"
        }
      ],
      "name": "unequipType",
      "outputs": [],
      "stateMutability": "nonpayable",
      "type": "function"
    }
  ],
  "bytecode": "0x60806040523480156200001157600080fd5b5060405162001ff538038062001ff58339818101604052810190620000379190620001ac565b81600260006101000a81548173ffffffffffffffffffffffffffffffffffffffff021916908373ffffffffffffffffffffffffffffffffffffffff16021790555080600360006101000a81548173ffffffffffffffffffffffffffffffffffffffff021916908373ffffffffffffffffffffffffffffffffffffffff160217905550816000806101000a81548173ffffffffffffffffffffffffffffffffffffffff021916908373ffffffffffffffffffffffffffffffffffffffff16021790555080600160006101000a81548173ffffffffffffffffffffffffffffffffffffffff021916908373ffffffffffffffffffffffffffffffffffffffff1602179055505050620001f3565b600080fd5b600073ffffffffffffffffffffffffffffffffffffffff82169050919050565b6000620001748262000147565b9050919050565b620001868162000167565b81146200019257600080fd5b50565b600081519050620001a6816200017b565b92915050565b60008060408385031215620001c657620001c562000142565b5b6000620001d68582860162000195565b9250506020620001e98582860162000195565b9150509250929050565b611df280620002036000396000f3fe608060405234801561001057600080fd5b50600436106100935760003560e01c80636d801cf2116100665780636d801cf214610130578063aeb804da14610160578063c71fcf7014610190578063ce61c82e146101c3578063e12ce172146101df57610093565b80631001a5701461009857806328257532146100c85780633044825b146100e457806343a511d514610100575b600080fd5b6100b260048036038101906100ad9190611400565b6101fb565b6040516100bf919061143c565b60405180910390f35b6100e260048036038101906100dd9190611457565b610213565b005b6100fe60048036038101906100f99190611400565b610545565b005b61011a60048036038101906101159190611400565b610647565b60405161012791906114b2565b60405180910390f35b61014a60048036038101906101459190611400565b6108b8565b60405161015791906114b2565b60405180910390f35b61017a60048036038101906101759190611400565b610aa6565b60405161018791906114b2565b60405180910390f35b6101aa60048036038101906101a59190611400565b610b2f565b6040516101ba94939291906114f0565b60405180910390f35b6101dd60048036038101906101d8919061168e565b610baf565b005b6101f960048036038101906101f49190611457565b610c3b565b005b60046020528060005260406000206000915090505481565b60008054906101000a900473ffffffffffffffffffffffffffffffffffffffff1673ffffffffffffffffffffffffffffffffffffffff1663e327a6af33846040518363ffffffff1660e01b815260040161026e92919061172b565b602060405180830381865afa15801561028b573d6000803e3d6000fd5b505050506040513d601f19601f820116820180604052508101906102af9190611780565b6102ee576040517f08c379a00000000000000000000000000000000000000000000000000000000081526004016102e590611830565b60405180910390fd5b600160009054906101000a900473ffffffffffffffffffffffffffffffffffffffff1673ffffffffffffffffffffffffffffffffffffffff1663e327a6af33836040518363ffffffff1660e01b815260040161034b92919061172b565b602060405180830381865afa158015610368573d6000803e3d6000fd5b505050506040513d601f19601f8201168201806040525081019061038c9190611780565b6103cb576040517f08c379a00000000000000000000000000000000000000000000000000000000081526004016103c2906118c2565b60405180910390fd5b6000600160009054906101000a900473ffffffffffffffffffffffffffffffffffffffff1673ffffffffffffffffffffffffffffffffffffffff166365b817e6836040518263ffffffff1660e01b8152600401610428919061143c565b608060405180830381865afa158015610445573d6000803e3d6000fd5b505050506040513d601f19601f82011682018060405250810190610469919061198b565b90506004816000015167ffffffffffffffff16106104bc576040517f08c379a00000000000000000000000000000000000000000000000000000000081526004016104b390611a04565b60405180910390fd5b6000816000015167ffffffffffffffff16036104dd576104dc8383610d62565b5b6001816000015167ffffffffffffffff16036104fe576104fd8383610e29565b5b6002816000015167ffffffffffffffff160361051f5761051e8383610ef0565b5b6003816000015167ffffffffffffffff16036105405761053f8383610fb7565b5b505050565b60008054906101000a900473ffffffffffffffffffffffffffffffffffffffff1673ffffffffffffffffffffffffffffffffffffffff1663e327a6af33836040518363ffffffff1660e01b81526004016105a092919061172b565b602060405180830381865afa1580156105bd573d6000803e3d6000fd5b505050506040513d601f19601f820116820180604052508101906105e19190611780565b610620576040517f08c379a000000000000000000000000000000000000000000000000000000000815260040161061790611a96565b60405180910390fd5b6106298161107e565b6106328161114c565b61063b8161121a565b610644816112e8565b50565b6000600160009054906101000a900473ffffffffffffffffffffffffffffffffffffffff1673ffffffffffffffffffffffffffffffffffffffff1663e327a6af33846040518363ffffffff1660e01b81526004016106a692919061172b565b602060405180830381865afa1580156106c3573d6000803e3d6000fd5b505050506040513d601f19601f820116820180604052508101906106e79190611780565b610726576040517f08c379a000000000000000000000000000000000000000000000000000000000815260040161071d90611b02565b60405180910390fd5b60006004600084815260200190815260200160002054146108af576000600160009054906101000a900473ffffffffffffffffffffffffffffffffffffffff1673ffffffffffffffffffffffffffffffffffffffff166365b817e6846040518263ffffffff1660e01b815260040161079e919061143c565b608060405180830381865afa1580156107bb573d6000803e3d6000fd5b505050506040513d601f19601f820116820180604052508101906107df919061198b565b90506000816000015167ffffffffffffffff160361081457610813600460008581526020019081526020016000205461107e565b5b6001816000015167ffffffffffffffff160361084757610846600460008581526020019081526020016000205461114c565b5b6002816000015167ffffffffffffffff160361087a57610879600460008581526020019081526020016000205461121a565b5b6003816000015167ffffffffffffffff16036108ad576108ac60046000858152602001908152602001600020546112e8565b5b505b60019050919050565b6000600360009054906101000a900473ffffffffffffffffffffffffffffffffffffffff1673ffffffffffffffffffffffffffffffffffffffff163373ffffffffffffffffffffffffffffffffffffffff161461091457600080fd5b6000600460008481526020019081526020016000205414610a9d576000600160009054906101000a900473ffffffffffffffffffffffffffffffffffffffff1673ffffffffffffffffffffffffffffffffffffffff166365b817e6846040518263ffffffff1660e01b815260040161098c919061143c565b608060405180830381865afa1580156109a9573d6000803e3d6000fd5b505050506040513d601f19601f820116820180604052508101906109cd919061198b565b90506000816000015167ffffffffffffffff1603610a0257610a01600460008581526020019081526020016000205461107e565b5b6001816000015167ffffffffffffffff1603610a3557610a34600460008581526020019081526020016000205461114c565b5b6002816000015167ffffffffffffffff1603610a6857610a67600460008581526020019081526020016000205461121a565b5b6003816000015167ffffffffffffffff1603610a9b57610a9a60046000858152602001908152602001600020546112e8565b5b505b60019050919050565b6000600260009054906101000a900473ffffffffffffffffffffffffffffffffffffffff1673ffffffffffffffffffffffffffffffffffffffff163373ffffffffffffffffffffffffffffffffffffffff1614610b0257600080fd5b610b0b8261107e565b610b148261114c565b610b1d8261121a565b610b26826112e8565b60019050919050565b60056020528060005260406000206000915090508060000160009054906101000a900467ffffffffffffffff16908060000160089054906101000a900467ffffffffffffffff16908060000160109054906101000a900467ffffffffffffffff16908060000160189054906101000a900467ffffffffffffffff16905084565b6005815110610bf3576040517f08c379a0000000000000000000000000000000000000000000000000000000008152600401610bea90611b94565b60405180910390fd5b60005b8151811015610c3657610c2383838381518110610c1657610c15611bb4565b5b6020026020010151610213565b8080610c2e90611c12565b915050610bf6565b505050565b60008054906101000a900473ffffffffffffffffffffffffffffffffffffffff1673ffffffffffffffffffffffffffffffffffffffff1663e327a6af33846040518363ffffffff1660e01b8152600401610c9692919061172b565b602060405180830381865afa158015610cb3573d6000803e3d6000fd5b505050506040513d601f19601f82011682018060405250810190610cd79190611780565b610d16576040517f08c379a0000000000000000000000000000000000000000000000000000000008152600401610d0d90611a96565b60405180910390fd5b60008103610d2857610d278261107e565b5b60018103610d3a57610d398261114c565b5b60028103610d4c57610d4b8261121a565b5b60038103610d5e57610d5d826112e8565b5b5050565b60006004600083815260200190815260200160002054905060008114610d8c57610d8b8161107e565b5b610d958361107e565b826004600084815260200190815260200160002081905550816005600085815260200190815260200160002060000160106101000a81548167ffffffffffffffff021916908367ffffffffffffffff16021790555081837fb3b128f2b64bdbb4995e7a8f6fbd2460a58ac4477fbf8039531eb340c218ae666000604051610e1c9190611c9f565b60405180910390a3505050565b60006004600083815260200190815260200160002054905060008114610e5357610e528161114c565b5b610e5c8361114c565b826004600084815260200190815260200160002081905550816005600085815260200190815260200160002060000160086101000a81548167ffffffffffffffff021916908367ffffffffffffffff16021790555081837fb3b128f2b64bdbb4995e7a8f6fbd2460a58ac4477fbf8039531eb340c218ae666002604051610ee39190611cf5565b60405180910390a3505050565b60006004600083815260200190815260200160002054905060008114610f1a57610f198161121a565b5b610f238361121a565b826004600084815260200190815260200160002081905550816005600085815260200190815260200160002060000160006101000a81548167ffffffffffffffff021916908367ffffffffffffffff16021790555081837fb3b128f2b64bdbb4995e7a8f6fbd2460a58ac4477fbf8039531eb340c218ae666001604051610faa9190611d4b565b60405180910390a3505050565b60006004600083815260200190815260200160002054905060008114610fe157610fe0816112e8565b5b610fea836112e8565b826004600084815260200190815260200160002081905550816005600085815260200190815260200160002060000160186101000a81548167ffffffffffffffff021916908367ffffffffffffffff16021790555081837fb3b128f2b64bdbb4995e7a8f6fbd2460a58ac4477fbf8039531eb340c218ae6660036040516110719190611da1565b60405180910390a3505050565b60006005600083815260200190815260200160002060000160109054906101000a900467ffffffffffffffff1667ffffffffffffffff1690506000600460008381526020019081526020016000208190555060006005600084815260200190815260200160002060000160106101000a81548167ffffffffffffffff021916908367ffffffffffffffff16021790555080827f3333e53d03c41e93812913ca93425f068aa0b54bb0d0b00cc4f76f9d6e2698db60006040516111409190611c9f565b60405180910390a35050565b60006005600083815260200190815260200160002060000160089054906101000a900467ffffffffffffffff1667ffffffffffffffff1690506000600460008381526020019081526020016000208190555060006005600084815260200190815260200160002060000160086101000a81548167ffffffffffffffff021916908367ffffffffffffffff16021790555080827f3333e53d03c41e93812913ca93425f068aa0b54bb0d0b00cc4f76f9d6e2698db600260405161120e9190611cf5565b60405180910390a35050565b60006005600083815260200190815260200160002060000160009054906101000a900467ffffffffffffffff1667ffffffffffffffff1690506000600460008381526020019081526020016000208190555060006005600084815260200190815260200160002060000160006101000a81548167ffffffffffffffff021916908367ffffffffffffffff16021790555080827f3333e53d03c41e93812913ca93425f068aa0b54bb0d0b00cc4f76f9d6e2698db60016040516112dc9190611d4b565b60405180910390a35050565b60006005600083815260200190815260200160002060000160189054906101000a900467ffffffffffffffff1667ffffffffffffffff1690506000600460008381526020019081526020016000208190555060006005600084815260200190815260200160002060000160186101000a81548167ffffffffffffffff021916908367ffffffffffffffff16021790555080827f3333e53d03c41e93812913ca93425f068aa0b54bb0d0b00cc4f76f9d6e2698db60036040516113aa9190611da1565b60405180910390a35050565b6000604051905090565b600080fd5b600080fd5b6000819050919050565b6113dd816113ca565b81146113e857600080fd5b50565b6000813590506113fa816113d4565b92915050565b600060208284031215611416576114156113c0565b5b6000611424848285016113eb565b91505092915050565b611436816113ca565b82525050565b6000602082019050611451600083018461142d565b92915050565b6000806040838503121561146e5761146d6113c0565b5b600061147c858286016113eb565b925050602061148d858286016113eb565b9150509250929050565b60008115159050919050565b6114ac81611497565b82525050565b60006020820190506114c760008301846114a3565b92915050565b600067ffffffffffffffff82169050919050565b6114ea816114cd565b82525050565b600060808201905061150560008301876114e1565b61151260208301866114e1565b61151f60408301856114e1565b61152c60608301846114e1565b95945050505050565b600080fd5b6000601f19601f8301169050919050565b7f4e487b7100000000000000000000000000000000000000000000000000000000600052604160045260246000fd5b6115838261153a565b810181811067ffffffffffffffff821117156115a2576115a161154b565b5b80604052505050565b60006115b56113b6565b90506115c1828261157a565b919050565b600067ffffffffffffffff8211156115e1576115e061154b565b5b602082029050602081019050919050565b600080fd5b600061160a611605846115c6565b6115ab565b9050808382526020820190506020840283018581111561162d5761162c6115f2565b5b835b81811015611656578061164288826113eb565b84526020840193505060208101905061162f565b5050509392505050565b600082601f83011261167557611674611535565b5b81356116858482602086016115f7565b91505092915050565b600080604083850312156116a5576116a46113c0565b5b60006116b3858286016113eb565b925050602083013567ffffffffffffffff8111156116d4576116d36113c5565b5b6116e085828601611660565b9150509250929050565b600073ffffffffffffffffffffffffffffffffffffffff82169050919050565b6000611715826116ea565b9050919050565b6117258161170a565b82525050565b6000604082019050611740600083018561171c565b61174d602083018461142d565b9392505050565b61175d81611497565b811461176857600080fd5b50565b60008151905061177a81611754565b92915050565b600060208284031215611796576117956113c0565b5b60006117a48482850161176b565b91505092915050565b600082825260208201905092915050565b7f455150443a2043616e6e6f7420657175697020746f206120636861726163746560008201527f72206e6f74206f776e65642e0000000000000000000000000000000000000000602082015250565b600061181a602c836117ad565b9150611825826117be565b604082019050919050565b600060208201905081810360008301526118498161180d565b9050919050565b7f455150443a2043616e6e6f7420657175697020776974682065717569706d656e60008201527f74206e6f74206f776e65642e0000000000000000000000000000000000000000602082015250565b60006118ac602c836117ad565b91506118b782611850565b604082019050919050565b600060208201905081810360008301526118db8161189f565b9050919050565b600080fd5b6118f0816114cd565b81146118fb57600080fd5b50565b60008151905061190d816118e7565b92915050565b600060808284031215611929576119286118e2565b5b61193360806115ab565b90506000611943848285016118fe565b6000830152506020611957848285016118fe565b602083015250604061196b848285016118fe565b604083015250606061197f848285016118fe565b60608301525092915050565b6000608082840312156119a1576119a06113c0565b5b60006119af84828501611913565b91505092915050565b7f455150443a204974656d206e6f742065717569707061626c652e000000000000600082015250565b60006119ee601a836117ad565b91506119f9826119b8565b602082019050919050565b60006020820190508181036000830152611a1d816119e1565b9050919050565b7f455150443a2043616e6e6f7420756e65717569702066726f6d2063686172616360008201527f746572206e6f74206f776e65642e000000000000000000000000000000000000602082015250565b6000611a80602e836117ad565b9150611a8b82611a24565b604082019050919050565b60006020820190508181036000830152611aaf81611a73565b9050919050565b7f455150443a2045717569706d656e74206e6f74206f776e65642e000000000000600082015250565b6000611aec601a836117ad565b9150611af782611ab6565b602082019050919050565b60006020820190508181036000830152611b1b81611adf565b9050919050565b7f455150443a2043616e6e6f74206571756970206d6f7265207468616e2034206960008201527f74656d732e000000000000000000000000000000000000000000000000000000602082015250565b6000611b7e6025836117ad565b9150611b8982611b22565b604082019050919050565b60006020820190508181036000830152611bad81611b71565b9050919050565b7f4e487b7100000000000000000000000000000000000000000000000000000000600052603260045260246000fd5b7f4e487b7100000000000000000000000000000000000000000000000000000000600052601160045260246000fd5b6000611c1d826113ca565b91507fffffffffffffffffffffffffffffffffffffffffffffffffffffffffffffffff8203611c4f57611c4e611be3565b5b600182019050919050565b6000819050919050565b6000819050919050565b6000611c89611c84611c7f84611c5a565b611c64565b6113ca565b9050919050565b611c9981611c6e565b82525050565b6000602082019050611cb46000830184611c90565b92915050565b6000819050919050565b6000611cdf611cda611cd584611cba565b611c64565b6113ca565b9050919050565b611cef81611cc4565b82525050565b6000602082019050611d0a6000830184611ce6565b92915050565b6000819050919050565b6000611d35611d30611d2b84611d10565b611c64565b6113ca565b9050919050565b611d4581611d1a565b82525050565b6000602082019050611d606000830184611d3c565b92915050565b6000819050919050565b6000611d8b611d86611d8184611d66565b611c64565b6113ca565b9050919050565b611d9b81611d70565b82525050565b6000602082019050611db66000830184611d92565b9291505056fea26469706673582212205f34f550700f7458c08ed51b7ca66edd0e8189d44a7c0b0773ca16c132ace5c964736f6c63430008110033",
  "linkReferences": {},
  "deployedLinkReferences": {}
}