{
  "_format": "hh-sol-artifact-1",
  "contractName": "Equipments",
  "sourceName": "contracts/core/nfts/Equipments.sol",
  "abi": [
    {
      "inputs": [],
      "stateMutability": "nonpayable",
      "type": "constructor"
    },
    {
      "anonymous": false,
      "inputs": [
        {
          "indexed": true,
          "internalType": "address",
          "name": "owner",
          "type": "address"
        },
        {
          "indexed": true,
          "internalType": "address",
          "name": "approved",
          "type": "address"
        },
        {
          "indexed": true,
          "internalType": "uint256",
          "name": "tokenId",
          "type": "uint256"
        }
      ],
      "name": "Approval",
      "type": "event"
    },
    {
      "anonymous": false,
      "inputs": [
        {
          "indexed": true,
          "internalType": "address",
          "name": "owner",
          "type": "address"
        },
        {
          "indexed": true,
          "internalType": "address",
          "name": "operator",
          "type": "address"
        },
        {
          "indexed": false,
          "internalType": "bool",
          "name": "approved",
          "type": "bool"
        }
      ],
      "name": "ApprovalForAll",
      "type": "event"
    },
    {
      "anonymous": false,
      "inputs": [
        {
          "indexed": true,
          "internalType": "uint256",
          "name": "equipment_id",
          "type": "uint256"
        },
        {
          "indexed": false,
          "internalType": "address",
          "name": "user",
          "type": "address"
        },
        {
          "components": [
            {
              "internalType": "uint64",
              "name": "equipment_type",
              "type": "uint64"
            },
            {
              "internalType": "uint64",
              "name": "rarity",
              "type": "uint64"
            },
            {
              "internalType": "uint64",
              "name": "dominant_stat",
              "type": "uint64"
            },
            {
              "internalType": "uint64",
              "name": "extremity",
              "type": "uint64"
            }
          ],
          "indexed": false,
          "internalType": "struct equipment_properties",
          "name": "equipment_props",
          "type": "tuple"
        },
        {
          "components": [
            {
              "internalType": "uint256",
              "name": "atk",
              "type": "uint256"
            },
            {
              "internalType": "uint256",
              "name": "def",
              "type": "uint256"
            },
            {
              "internalType": "uint256",
              "name": "eva",
              "type": "uint256"
            },
            {
              "internalType": "uint256",
              "name": "hp",
              "type": "uint256"
            },
            {
              "internalType": "uint256",
              "name": "pen",
              "type": "uint256"
            },
            {
              "internalType": "uint256",
              "name": "crit",
              "type": "uint256"
            },
            {
              "internalType": "uint256",
              "name": "luck",
              "type": "uint256"
            },
            {
              "internalType": "uint256",
              "name": "energy_restoration",
              "type": "uint256"
            }
          ],
          "indexed": false,
          "internalType": "struct battle_stats",
          "name": "equipment_stats",
          "type": "tuple"
        }
      ],
      "name": "EquipmentMinted",
      "type": "event"
    },
    {
      "anonymous": false,
      "inputs": [
        {
          "indexed": true,
          "internalType": "address",
          "name": "previousOwner",
          "type": "address"
        },
        {
          "indexed": true,
          "internalType": "address",
          "name": "newOwner",
          "type": "address"
        }
      ],
      "name": "OwnershipTransferred",
      "type": "event"
    },
    {
      "anonymous": false,
      "inputs": [
        {
          "indexed": true,
          "internalType": "address",
          "name": "from",
          "type": "address"
        },
        {
          "indexed": true,
          "internalType": "address",
          "name": "to",
          "type": "address"
        },
        {
          "indexed": true,
          "internalType": "uint256",
          "name": "tokenId",
          "type": "uint256"
        }
      ],
      "name": "Transfer",
      "type": "event"
    },
    {
      "inputs": [
        {
          "internalType": "address",
          "name": "user",
          "type": "address"
        },
        {
          "components": [
            {
              "internalType": "uint64",
              "name": "equipment_type",
              "type": "uint64"
            },
            {
              "internalType": "uint64",
              "name": "rarity",
              "type": "uint64"
            },
            {
              "internalType": "uint64",
              "name": "dominant_stat",
              "type": "uint64"
            },
            {
              "internalType": "uint64",
              "name": "extremity",
              "type": "uint64"
            }
          ],
          "internalType": "struct equipment_properties",
          "name": "equipment_props",
          "type": "tuple"
        },
        {
          "components": [
            {
              "internalType": "uint256",
              "name": "atk",
              "type": "uint256"
            },
            {
              "internalType": "uint256",
              "name": "def",
              "type": "uint256"
            },
            {
              "internalType": "uint256",
              "name": "eva",
              "type": "uint256"
            },
            {
              "internalType": "uint256",
              "name": "hp",
              "type": "uint256"
            },
            {
              "internalType": "uint256",
              "name": "pen",
              "type": "uint256"
            },
            {
              "internalType": "uint256",
              "name": "crit",
              "type": "uint256"
            },
            {
              "internalType": "uint256",
              "name": "luck",
              "type": "uint256"
            },
            {
              "internalType": "uint256",
              "name": "energy_restoration",
              "type": "uint256"
            }
          ],
          "internalType": "struct battle_stats",
          "name": "_equipment_stats",
          "type": "tuple"
        }
      ],
      "name": "_mintEquipment",
      "outputs": [],
      "stateMutability": "nonpayable",
      "type": "function"
    },
    {
      "inputs": [
        {
          "internalType": "address",
          "name": "to",
          "type": "address"
        },
        {
          "internalType": "uint256",
          "name": "tokenId",
          "type": "uint256"
        }
      ],
      "name": "approve",
      "outputs": [],
      "stateMutability": "nonpayable",
      "type": "function"
    },
    {
      "inputs": [
        {
          "internalType": "address",
          "name": "owner",
          "type": "address"
        }
      ],
      "name": "balanceOf",
      "outputs": [
        {
          "internalType": "uint256",
          "name": "",
          "type": "uint256"
        }
      ],
      "stateMutability": "view",
      "type": "function"
    },
    {
      "inputs": [
        {
          "internalType": "uint256",
          "name": "",
          "type": "uint256"
        }
      ],
      "name": "equipment",
      "outputs": [
        {
          "internalType": "uint64",
          "name": "equipment_type",
          "type": "uint64"
        },
        {
          "internalType": "uint64",
          "name": "rarity",
          "type": "uint64"
        },
        {
          "internalType": "uint64",
          "name": "dominant_stat",
          "type": "uint64"
        },
        {
          "internalType": "uint64",
          "name": "extremity",
          "type": "uint64"
        }
      ],
      "stateMutability": "view",
      "type": "function"
    },
    {
      "inputs": [
        {
          "internalType": "uint256",
          "name": "tokenId",
          "type": "uint256"
        }
      ],
      "name": "getApproved",
      "outputs": [
        {
          "internalType": "address",
          "name": "",
          "type": "address"
        }
      ],
      "stateMutability": "view",
      "type": "function"
    },
    {
      "inputs": [
        {
          "internalType": "address",
          "name": "owner",
          "type": "address"
        },
        {
          "internalType": "address",
          "name": "operator",
          "type": "address"
        }
      ],
      "name": "isApprovedForAll",
      "outputs": [
        {
          "internalType": "bool",
          "name": "",
          "type": "bool"
        }
      ],
      "stateMutability": "view",
      "type": "function"
    },
    {
      "inputs": [
        {
          "internalType": "address",
          "name": "_owner",
          "type": "address"
        },
        {
          "internalType": "uint256",
          "name": "_equipment",
          "type": "uint256"
        }
      ],
      "name": "isOwner",
      "outputs": [
        {
          "internalType": "bool",
          "name": "",
          "type": "bool"
        }
      ],
      "stateMutability": "view",
      "type": "function"
    },
    {
      "inputs": [],
      "name": "name",
      "outputs": [
        {
          "internalType": "string",
          "name": "",
          "type": "string"
        }
      ],
      "stateMutability": "view",
      "type": "function"
    },
    {
      "inputs": [],
      "name": "owner",
      "outputs": [
        {
          "internalType": "address",
          "name": "",
          "type": "address"
        }
      ],
      "stateMutability": "view",
      "type": "function"
    },
    {
      "inputs": [
        {
          "internalType": "uint256",
          "name": "tokenId",
          "type": "uint256"
        }
      ],
      "name": "ownerOf",
      "outputs": [
        {
          "internalType": "address",
          "name": "",
          "type": "address"
        }
      ],
      "stateMutability": "view",
      "type": "function"
    },
    {
      "inputs": [],
      "name": "renounceOwnership",
      "outputs": [],
      "stateMutability": "nonpayable",
      "type": "function"
    },
    {
      "inputs": [
        {
          "internalType": "address",
          "name": "from",
          "type": "address"
        },
        {
          "internalType": "address",
          "name": "to",
          "type": "address"
        },
        {
          "internalType": "uint256",
          "name": "tokenId",
          "type": "uint256"
        }
      ],
      "name": "safeTransferFrom",
      "outputs": [],
      "stateMutability": "nonpayable",
      "type": "function"
    },
    {
      "inputs": [
        {
          "internalType": "address",
          "name": "from",
          "type": "address"
        },
        {
          "internalType": "address",
          "name": "to",
          "type": "address"
        },
        {
          "internalType": "uint256",
          "name": "tokenId",
          "type": "uint256"
        },
        {
          "internalType": "bytes",
          "name": "data",
          "type": "bytes"
        }
      ],
      "name": "safeTransferFrom",
      "outputs": [],
      "stateMutability": "nonpayable",
      "type": "function"
    },
    {
      "inputs": [
        {
          "internalType": "address",
          "name": "operator",
          "type": "address"
        },
        {
          "internalType": "bool",
          "name": "approved",
          "type": "bool"
        }
      ],
      "name": "setApprovalForAll",
      "outputs": [],
      "stateMutability": "nonpayable",
      "type": "function"
    },
    {
      "inputs": [
        {
          "internalType": "address",
          "name": "managerAddress",
          "type": "address"
        }
      ],
      "name": "setEquipmentManager",
      "outputs": [],
      "stateMutability": "nonpayable",
      "type": "function"
    },
    {
      "inputs": [
        {
          "internalType": "address",
          "name": "minterAddress",
          "type": "address"
        }
      ],
      "name": "setMinter",
      "outputs": [],
      "stateMutability": "nonpayable",
      "type": "function"
    },
    {
      "inputs": [
        {
          "internalType": "uint256",
          "name": "",
          "type": "uint256"
        }
      ],
      "name": "stats",
      "outputs": [
        {
          "internalType": "uint256",
          "name": "atk",
          "type": "uint256"
        },
        {
          "internalType": "uint256",
          "name": "def",
          "type": "uint256"
        },
        {
          "internalType": "uint256",
          "name": "eva",
          "type": "uint256"
        },
        {
          "internalType": "uint256",
          "name": "hp",
          "type": "uint256"
        },
        {
          "internalType": "uint256",
          "name": "pen",
          "type": "uint256"
        },
        {
          "internalType": "uint256",
          "name": "crit",
          "type": "uint256"
        },
        {
          "internalType": "uint256",
          "name": "luck",
          "type": "uint256"
        },
        {
          "internalType": "uint256",
          "name": "energy_restoration",
          "type": "uint256"
        }
      ],
      "stateMutability": "view",
      "type": "function"
    },
    {
      "inputs": [
        {
          "internalType": "bytes4",
          "name": "interfaceId",
          "type": "bytes4"
        }
      ],
      "name": "supportsInterface",
      "outputs": [
        {
          "internalType": "bool",
          "name": "",
          "type": "bool"
        }
      ],
      "stateMutability": "view",
      "type": "function"
    },
    {
      "inputs": [],
      "name": "symbol",
      "outputs": [
        {
          "internalType": "string",
          "name": "",
          "type": "string"
        }
      ],
      "stateMutability": "view",
      "type": "function"
    },
    {
      "inputs": [
        {
          "internalType": "uint256",
          "name": "index",
          "type": "uint256"
        }
      ],
      "name": "tokenByIndex",
      "outputs": [
        {
          "internalType": "uint256",
          "name": "",
          "type": "uint256"
        }
      ],
      "stateMutability": "view",
      "type": "function"
    },
    {
      "inputs": [
        {
          "internalType": "address",
          "name": "owner",
          "type": "address"
        },
        {
          "internalType": "uint256",
          "name": "index",
          "type": "uint256"
        }
      ],
      "name": "tokenOfOwnerByIndex",
      "outputs": [
        {
          "internalType": "uint256",
          "name": "",
          "type": "uint256"
        }
      ],
      "stateMutability": "view",
      "type": "function"
    },
    {
      "inputs": [
        {
          "internalType": "uint256",
          "name": "tokenId",
          "type": "uint256"
        }
      ],
      "name": "tokenURI",
      "outputs": [
        {
          "internalType": "string",
          "name": "tokenURIString",
          "type": "string"
        }
      ],
      "stateMutability": "view",
      "type": "function"
    },
    {
      "inputs": [],
      "name": "totalSupply",
      "outputs": [
        {
          "internalType": "uint256",
          "name": "",
          "type": "uint256"
        }
      ],
      "stateMutability": "view",
      "type": "function"
    },
    {
      "inputs": [
        {
          "internalType": "address",
          "name": "from",
          "type": "address"
        },
        {
          "internalType": "address",
          "name": "to",
          "type": "address"
        },
        {
          "internalType": "uint256",
          "name": "tokenId",
          "type": "uint256"
        }
      ],
      "name": "transferFrom",
      "outputs": [],
      "stateMutability": "nonpayable",
      "type": "function"
    },
    {
      "inputs": [
        {
          "internalType": "address",
          "name": "newOwner",
          "type": "address"
        }
      ],
      "name": "transferOwnership",
      "outputs": [],
      "stateMutability": "nonpayable",
      "type": "function"
    }
  ],
  "bytecode": "0x60806040523480156200001157600080fd5b506040518060400160405280600a81526020017f45717569706d656e7473000000000000000000000000000000000000000000008152506040518060400160405280600581526020017f455150545300000000000000000000000000000000000000000000000000000081525081600090816200008f919062000412565b508060019081620000a1919062000412565b505050620000c4620000b8620000ca60201b60201c565b620000d260201b60201c565b620004f9565b600033905090565b6000600a60009054906101000a900473ffffffffffffffffffffffffffffffffffffffff16905081600a60006101000a81548173ffffffffffffffffffffffffffffffffffffffff021916908373ffffffffffffffffffffffffffffffffffffffff1602179055508173ffffffffffffffffffffffffffffffffffffffff168173ffffffffffffffffffffffffffffffffffffffff167f8be0079c531659141344cd1fd0a4f28419497f9722a3daafe3b4186f6b6457e060405160405180910390a35050565b600081519050919050565b7f4e487b7100000000000000000000000000000000000000000000000000000000600052604160045260246000fd5b7f4e487b7100000000000000000000000000000000000000000000000000000000600052602260045260246000fd5b600060028204905060018216806200021a57607f821691505b60208210810362000230576200022f620001d2565b5b50919050565b60008190508160005260206000209050919050565b60006020601f8301049050919050565b600082821b905092915050565b6000600883026200029a7fffffffffffffffffffffffffffffffffffffffffffffffffffffffffffffffff826200025b565b620002a686836200025b565b95508019841693508086168417925050509392505050565b6000819050919050565b6000819050919050565b6000620002f3620002ed620002e784620002be565b620002c8565b620002be565b9050919050565b6000819050919050565b6200030f83620002d2565b620003276200031e82620002fa565b84845462000268565b825550505050565b600090565b6200033e6200032f565b6200034b81848462000304565b505050565b5b8181101562000373576200036760008262000334565b60018101905062000351565b5050565b601f821115620003c2576200038c8162000236565b62000397846200024b565b81016020851015620003a7578190505b620003bf620003b6856200024b565b83018262000350565b50505b505050565b600082821c905092915050565b6000620003e760001984600802620003c7565b1980831691505092915050565b6000620004028383620003d4565b9150826002028217905092915050565b6200041d8262000198565b67ffffffffffffffff811115620004395762000438620001a3565b5b62000445825462000201565b6200045282828562000377565b600060209050601f8311600181146200048a576000841562000475578287015190505b620004818582620003f4565b865550620004f1565b601f1984166200049a8662000236565b60005b82811015620004c4578489015182556001820191506020850194506020810190506200049d565b86831015620004e45784890151620004e0601f891682620003d4565b8355505b6001600288020188555050505b505050505050565b61591580620005096000396000f3fe608060405234801561001057600080fd5b50600436106101735760003560e01c806370a08231116100de578063ae0b1ea811610097578063e327a6af11610071578063e327a6af14610478578063e985e9c5146104a8578063f2fde38b146104d8578063fca3b5aa146104f457610173565b8063ae0b1ea814610410578063b88d4fde1461042c578063c87b56dd1461044857610173565b806370a0823114610347578063715018a6146103775780638da5cb5b1461038157806395d89b411461039f578063a22cb465146103bd578063ad217ae5146103d957610173565b80632f745c59116101305780632f745c591461024c57806342842e0e1461027c5780634f6ccce714610298578063506e90aa146102c85780636352211e146102e457806365b817e61461031457610173565b806301ffc9a71461017857806306fdde03146101a8578063081812fc146101c6578063095ea7b3146101f657806318160ddd1461021257806323b872dd14610230575b600080fd5b610192600480360381019061018d919061364e565b610510565b60405161019f9190613696565b60405180910390f35b6101b0610522565b6040516101bd9190613741565b60405180910390f35b6101e060048036038101906101db9190613799565b6105b4565b6040516101ed9190613807565b60405180910390f35b610210600480360381019061020b919061384e565b6105fa565b005b61021a610711565b604051610227919061389d565b60405180910390f35b61024a600480360381019061024591906138b8565b61071e565b005b6102666004803603810190610261919061384e565b61077e565b604051610273919061389d565b60405180910390f35b610296600480360381019061029191906138b8565b610823565b005b6102b260048036038101906102ad9190613799565b610843565b6040516102bf919061389d565b60405180910390f35b6102e260048036038101906102dd9190613b0d565b6108b4565b005b6102fe60048036038101906102f99190613799565b610b2d565b60405161030b9190613807565b60405180910390f35b61032e60048036038101906103299190613799565b610bde565b60405161033e9493929190613b70565b60405180910390f35b610361600480360381019061035c9190613bb5565b610c5e565b60405161036e919061389d565b60405180910390f35b61037f610d15565b005b610389610d29565b6040516103969190613807565b60405180910390f35b6103a7610d53565b6040516103b49190613741565b60405180910390f35b6103d760048036038101906103d29190613c0e565b610de5565b005b6103f360048036038101906103ee9190613799565b610dfb565b604051610407989796959493929190613c4e565b60405180910390f35b61042a60048036038101906104259190613bb5565b610e43565b005b61044660048036038101906104419190613d86565b610e8f565b005b610462600480360381019061045d9190613799565b610ef1565b60405161046f9190613741565b60405180910390f35b610492600480360381019061048d919061384e565b6110c7565b60405161049f9190613696565b60405180910390f35b6104c260048036038101906104bd9190613e09565b6110db565b6040516104cf9190613696565b60405180910390f35b6104f260048036038101906104ed9190613bb5565b61116f565b005b61050e60048036038101906105099190613bb5565b6111f2565b005b600061051b8261123e565b9050919050565b60606000805461053190613e78565b80601f016020809104026020016040519081016040528092919081815260200182805461055d90613e78565b80156105aa5780601f1061057f576101008083540402835291602001916105aa565b820191906000526020600020905b81548152906001019060200180831161058d57829003601f168201915b5050505050905090565b60006105bf826112b8565b6004600083815260200190815260200160002060009054906101000a900473ffffffffffffffffffffffffffffffffffffffff169050919050565b600061060582610b2d565b90508073ffffffffffffffffffffffffffffffffffffffff168373ffffffffffffffffffffffffffffffffffffffff1603610675576040517f08c379a000000000000000000000000000000000000000000000000000000000815260040161066c90613f1b565b60405180910390fd5b8073ffffffffffffffffffffffffffffffffffffffff16610694611303565b73ffffffffffffffffffffffffffffffffffffffff1614806106c357506106c2816106bd611303565b6110db565b5b610702576040517f08c379a00000000000000000000000000000000000000000000000000000000081526004016106f990613fad565b60405180910390fd5b61070c838361130b565b505050565b6000600880549050905090565b61072f610729611303565b826113c4565b61076e576040517f08c379a00000000000000000000000000000000000000000000000000000000081526004016107659061403f565b60405180910390fd5b610779838383611459565b505050565b600061078983610c5e565b82106107ca576040517f08c379a00000000000000000000000000000000000000000000000000000000081526004016107c1906140d1565b60405180910390fd5b600660008473ffffffffffffffffffffffffffffffffffffffff1673ffffffffffffffffffffffffffffffffffffffff168152602001908152602001600020600083815260200190815260200160002054905092915050565b61083e83838360405180602001604052806000815250610e8f565b505050565b600061084d610711565b821061088e576040517f08c379a000000000000000000000000000000000000000000000000000000000815260040161088590614163565b60405180910390fd5b600882815481106108a2576108a1614183565b5b90600052602060002001549050919050565b600f60009054906101000a900473ffffffffffffffffffffffffffffffffffffffff1673ffffffffffffffffffffffffffffffffffffffff163373ffffffffffffffffffffffffffffffffffffffff1614610944576040517f08c379a000000000000000000000000000000000000000000000000000000000815260040161093b90614224565b60405180910390fd5b61094e600b6116bf565b81600d600061095d600b6116d5565b815260200190815260200160002060008201518160000160006101000a81548167ffffffffffffffff021916908367ffffffffffffffff16021790555060208201518160000160086101000a81548167ffffffffffffffff021916908367ffffffffffffffff16021790555060408201518160000160106101000a81548167ffffffffffffffff021916908367ffffffffffffffff16021790555060608201518160000160186101000a81548167ffffffffffffffff021916908367ffffffffffffffff16021790555090505080600e6000610a39600b6116d5565b8152602001908152602001600020600082015181600001556020820151816001015560408201518160020155606082015181600301556080820151816004015560a0820151816005015560c0820151816006015560e08201518160070155905050610aad83610aa8600b6116d5565b6116e3565b610ab7600b6116d5565b7fe3ba94cca81f9aa1966fb0b616b77855896b5dc1a8e5d60495c278f0485fb1d484600d6000610ae7600b6116d5565b8152602001908152602001600020600e6000610b03600b6116d5565b8152602001908152602001600020604051610b20939291906144a0565b60405180910390a2505050565b6000806002600084815260200190815260200160002060009054906101000a900473ffffffffffffffffffffffffffffffffffffffff169050600073ffffffffffffffffffffffffffffffffffffffff168173ffffffffffffffffffffffffffffffffffffffff1603610bd5576040517f08c379a0000000000000000000000000000000000000000000000000000000008152600401610bcc90614524565b60405180910390fd5b80915050919050565b600d6020528060005260406000206000915090508060000160009054906101000a900467ffffffffffffffff16908060000160089054906101000a900467ffffffffffffffff16908060000160109054906101000a900467ffffffffffffffff16908060000160189054906101000a900467ffffffffffffffff16905084565b60008073ffffffffffffffffffffffffffffffffffffffff168273ffffffffffffffffffffffffffffffffffffffff1603610cce576040517f08c379a0000000000000000000000000000000000000000000000000000000008152600401610cc5906145b6565b60405180910390fd5b600360008373ffffffffffffffffffffffffffffffffffffffff1673ffffffffffffffffffffffffffffffffffffffff168152602001908152602001600020549050919050565b610d1d6118bc565b610d27600061193a565b565b6000600a60009054906101000a900473ffffffffffffffffffffffffffffffffffffffff16905090565b606060018054610d6290613e78565b80601f0160208091040260200160405190810160405280929190818152602001828054610d8e90613e78565b8015610ddb5780601f10610db057610100808354040283529160200191610ddb565b820191906000526020600020905b815481529060010190602001808311610dbe57829003601f168201915b5050505050905090565b610df7610df0611303565b8383611a00565b5050565b600e6020528060005260406000206000915090508060000154908060010154908060020154908060030154908060040154908060050154908060060154908060070154905088565b610e4b6118bc565b80600c60006101000a81548173ffffffffffffffffffffffffffffffffffffffff021916908373ffffffffffffffffffffffffffffffffffffffff16021790555050565b610ea0610e9a611303565b836113c4565b610edf576040517f08c379a0000000000000000000000000000000000000000000000000000000008152600401610ed69061403f565b60405180910390fd5b610eeb84848484611b6c565b50505050565b6060610efc82611bc8565b610f3b576040517f08c379a0000000000000000000000000000000000000000000000000000000008152600401610f3290614648565b60405180910390fd5b6000600d60008481526020019081526020016000206040518060800160405290816000820160009054906101000a900467ffffffffffffffff1667ffffffffffffffff1667ffffffffffffffff1681526020016000820160089054906101000a900467ffffffffffffffff1667ffffffffffffffff1667ffffffffffffffff1681526020016000820160109054906101000a900467ffffffffffffffff1667ffffffffffffffff1667ffffffffffffffff1681526020016000820160189054906101000a900467ffffffffffffffff1667ffffffffffffffff1667ffffffffffffffff168152505090506000600e60008581526020019081526020016000206040518061010001604052908160008201548152602001600182015481526020016002820154815260200160038201548152602001600482015481526020016005820154815260200160068201548152602001600782015481525050905060006110a382611c34565b905060006110b084611ccb565b90506110bc8183611e02565b945050505050919050565b60006110d383836113c4565b905092915050565b6000600560008473ffffffffffffffffffffffffffffffffffffffff1673ffffffffffffffffffffffffffffffffffffffff16815260200190815260200160002060008373ffffffffffffffffffffffffffffffffffffffff1673ffffffffffffffffffffffffffffffffffffffff16815260200190815260200160002060009054906101000a900460ff16905092915050565b6111776118bc565b600073ffffffffffffffffffffffffffffffffffffffff168173ffffffffffffffffffffffffffffffffffffffff16036111e6576040517f08c379a00000000000000000000000000000000000000000000000000000000081526004016111dd906146da565b60405180910390fd5b6111ef8161193a565b50565b6111fa6118bc565b80600f60006101000a81548173ffffffffffffffffffffffffffffffffffffffff021916908373ffffffffffffffffffffffffffffffffffffffff16021790555050565b60007f780e9d63000000000000000000000000000000000000000000000000000000007bffffffffffffffffffffffffffffffffffffffffffffffffffffffff1916827bffffffffffffffffffffffffffffffffffffffffffffffffffffffff191614806112b157506112b082611e77565b5b9050919050565b6112c181611bc8565b611300576040517f08c379a00000000000000000000000000000000000000000000000000000000081526004016112f790614524565b60405180910390fd5b50565b600033905090565b816004600083815260200190815260200160002060006101000a81548173ffffffffffffffffffffffffffffffffffffffff021916908373ffffffffffffffffffffffffffffffffffffffff160217905550808273ffffffffffffffffffffffffffffffffffffffff1661137e83610b2d565b73ffffffffffffffffffffffffffffffffffffffff167f8c5be1e5ebec7d5bd14f71427d1e84f3dd0314c0f7b2291e5b200ac8c7c3b92560405160405180910390a45050565b6000806113d083610b2d565b90508073ffffffffffffffffffffffffffffffffffffffff168473ffffffffffffffffffffffffffffffffffffffff161480611412575061141181856110db565b5b8061145057508373ffffffffffffffffffffffffffffffffffffffff16611438846105b4565b73ffffffffffffffffffffffffffffffffffffffff16145b91505092915050565b8273ffffffffffffffffffffffffffffffffffffffff1661147982610b2d565b73ffffffffffffffffffffffffffffffffffffffff16146114cf576040517f08c379a00000000000000000000000000000000000000000000000000000000081526004016114c69061476c565b60405180910390fd5b600073ffffffffffffffffffffffffffffffffffffffff168273ffffffffffffffffffffffffffffffffffffffff160361153e576040517f08c379a0000000000000000000000000000000000000000000000000000000008152600401611535906147fe565b60405180910390fd5b611549838383611f59565b61155460008261130b565b6001600360008573ffffffffffffffffffffffffffffffffffffffff1673ffffffffffffffffffffffffffffffffffffffff16815260200190815260200160002060008282546115a4919061484d565b925050819055506001600360008473ffffffffffffffffffffffffffffffffffffffff1673ffffffffffffffffffffffffffffffffffffffff16815260200190815260200160002060008282546115fb9190614881565b92505081905550816002600083815260200190815260200160002060006101000a81548173ffffffffffffffffffffffffffffffffffffffff021916908373ffffffffffffffffffffffffffffffffffffffff160217905550808273ffffffffffffffffffffffffffffffffffffffff168473ffffffffffffffffffffffffffffffffffffffff167fddf252ad1be2c89b69c2b068fc378daa952ba7f163c4a11628f55a4df523b3ef60405160405180910390a46116ba83838361202b565b505050565b6001816000016000828254019250508190555050565b600081600001549050919050565b600073ffffffffffffffffffffffffffffffffffffffff168273ffffffffffffffffffffffffffffffffffffffff1603611752576040517f08c379a000000000000000000000000000000000000000000000000000000000815260040161174990614901565b60405180910390fd5b61175b81611bc8565b1561179b576040517f08c379a00000000000000000000000000000000000000000000000000000000081526004016117929061496d565b60405180910390fd5b6117a760008383611f59565b6001600360008473ffffffffffffffffffffffffffffffffffffffff1673ffffffffffffffffffffffffffffffffffffffff16815260200190815260200160002060008282546117f79190614881565b92505081905550816002600083815260200190815260200160002060006101000a81548173ffffffffffffffffffffffffffffffffffffffff021916908373ffffffffffffffffffffffffffffffffffffffff160217905550808273ffffffffffffffffffffffffffffffffffffffff16600073ffffffffffffffffffffffffffffffffffffffff167fddf252ad1be2c89b69c2b068fc378daa952ba7f163c4a11628f55a4df523b3ef60405160405180910390a46118b86000838361202b565b5050565b6118c4611303565b73ffffffffffffffffffffffffffffffffffffffff166118e2610d29565b73ffffffffffffffffffffffffffffffffffffffff1614611938576040517f08c379a000000000000000000000000000000000000000000000000000000000815260040161192f906149d9565b60405180910390fd5b565b6000600a60009054906101000a900473ffffffffffffffffffffffffffffffffffffffff16905081600a60006101000a81548173ffffffffffffffffffffffffffffffffffffffff021916908373ffffffffffffffffffffffffffffffffffffffff1602179055508173ffffffffffffffffffffffffffffffffffffffff168173ffffffffffffffffffffffffffffffffffffffff167f8be0079c531659141344cd1fd0a4f28419497f9722a3daafe3b4186f6b6457e060405160405180910390a35050565b8173ffffffffffffffffffffffffffffffffffffffff168373ffffffffffffffffffffffffffffffffffffffff1603611a6e576040517f08c379a0000000000000000000000000000000000000000000000000000000008152600401611a6590614a45565b60405180910390fd5b80600560008573ffffffffffffffffffffffffffffffffffffffff1673ffffffffffffffffffffffffffffffffffffffff16815260200190815260200160002060008473ffffffffffffffffffffffffffffffffffffffff1673ffffffffffffffffffffffffffffffffffffffff16815260200190815260200160002060006101000a81548160ff0219169083151502179055508173ffffffffffffffffffffffffffffffffffffffff168373ffffffffffffffffffffffffffffffffffffffff167f17307eab39ab6107e8899845ad3d59bd9653f200f220920489ca2b5937696c3183604051611b5f9190613696565b60405180910390a3505050565b611b77848484611459565b611b8384848484612030565b611bc2576040517f08c379a0000000000000000000000000000000000000000000000000000000008152600401611bb990614ad7565b60405180910390fd5b50505050565b60008073ffffffffffffffffffffffffffffffffffffffff166002600084815260200190815260200160002060009054906101000a900473ffffffffffffffffffffffffffffffffffffffff1673ffffffffffffffffffffffffffffffffffffffff1614159050919050565b6060611c4382600001516121b7565b611c5083602001516121b7565b611c5d84604001516121b7565b611c6a85606001516121b7565b611c7786608001516121b7565b611c848760a001516121b7565b611c918860c001516121b7565b611c9e8960e001516121b7565b604051602001611cb5989796959493929190614ff3565b6040516020818303038152906040529050919050565b611cd36135ac565b600080600080856020015186600001518760600151886040015167ffffffffffffffff16935067ffffffffffffffff16935067ffffffffffffffff16935067ffffffffffffffff169350600080611d2986612317565b91509150600080611d3a878661257c565b915091506000611d4987612710565b9050600080611d578861291f565b9150915060006040518060800160405280605d8152602001615843605d913990506040518060c0016040528089888787604051602001611d9a9493929190615150565b60405160208183030381529060405281526020018287858b604051602001611dc59493929190615199565b6040516020818303038152906040528152602001878152602001898152602001848152602001858152509c50505050505050505050505050919050565b6060611e50836020015184600001518560400151866060015187608001518860a0015188604051602001611e3c97969594939291906154f5565b604051602081830303815290604052612cef565b604051602001611e6091906155fe565b604051602081830303815290604052905092915050565b60007f80ac58cd000000000000000000000000000000000000000000000000000000007bffffffffffffffffffffffffffffffffffffffffffffffffffffffff1916827bffffffffffffffffffffffffffffffffffffffffffffffffffffffff19161480611f4257507f5b5e139f000000000000000000000000000000000000000000000000000000007bffffffffffffffffffffffffffffffffffffffffffffffffffffffff1916827bffffffffffffffffffffffffffffffffffffffffffffffffffffffff1916145b80611f525750611f5182612e52565b5b9050919050565b600073ffffffffffffffffffffffffffffffffffffffff168373ffffffffffffffffffffffffffffffffffffffff161461201b57600c60009054906101000a900473ffffffffffffffffffffffffffffffffffffffff1673ffffffffffffffffffffffffffffffffffffffff16636d801cf2826040518263ffffffff1660e01b8152600401611fe8919061389d565b600060405180830381600087803b15801561200257600080fd5b505af1158015612016573d6000803e3d6000fd5b505050505b612026838383612ebc565b505050565b505050565b60006120518473ffffffffffffffffffffffffffffffffffffffff16612fce565b156121aa578373ffffffffffffffffffffffffffffffffffffffff1663150b7a0261207a611303565b8786866040518563ffffffff1660e01b815260040161209c949392919061566a565b6020604051808303816000875af19250505080156120d857506040513d601f19601f820116820180604052508101906120d591906156cb565b60015b61215a573d8060008114612108576040519150601f19603f3d011682016040523d82523d6000602084013e61210d565b606091505b506000815103612152576040517f08c379a000000000000000000000000000000000000000000000000000000000815260040161214990614ad7565b60405180910390fd5b805181602001fd5b63150b7a0260e01b7bffffffffffffffffffffffffffffffffffffffffffffffffffffffff1916817bffffffffffffffffffffffffffffffffffffffffffffffffffffffff1916149150506121af565b600190505b949350505050565b6060600082036121fe576040518060400160405280600181526020017f30000000000000000000000000000000000000000000000000000000000000008152509050612312565b600082905060005b60008214612230578080612219906156f8565b915050600a82612229919061576f565b9150612206565b60008167ffffffffffffffff81111561224c5761224b613910565b5b6040519080825280601f01601f19166020018201604052801561227e5781602001600182028036833780820191505090505b5090505b6000851461230b57600182612297919061484d565b9150600a856122a691906157a0565b60306122b29190614881565b60f81b8183815181106122c8576122c7614183565b5b60200101907effffffffffffffffffffffffffffffffffffffffffffffffffffffffffffff1916908160001a905350600a85612304919061576f565b9450612282565b8093505050505b919050565b60608060008303612393576040518060400160405280600781526020017f436f6d6d6f6e200000000000000000000000000000000000000000000000000081525091506040518060400160405280600881526020017f434f4d4d2e706e6700000000000000000000000000000000000000000000000081525090505b6001830361240c576040518060400160405280600981526020017f556e636f6d6d6f6e20000000000000000000000000000000000000000000000081525091506040518060400160405280600881526020017f554e434f2e706e6700000000000000000000000000000000000000000000000081525090505b60028303612485576040518060400160405280600781526020017f536361726365200000000000000000000000000000000000000000000000000081525091506040518060400160405280600881526020017f534341522e706e6700000000000000000000000000000000000000000000000081525090505b600383036124fe576040518060400160405280600581526020017f526172652000000000000000000000000000000000000000000000000000000081525091506040518060400160405280600881526020017f524152452e706e6700000000000000000000000000000000000000000000000081525090505b60048303612577576040518060400160405280600781526020017f556e69717565200000000000000000000000000000000000000000000000000081525091506040518060400160405280600881526020017f554e49512e706e6700000000000000000000000000000000000000000000000081525090505b915091565b606080600084036125cb5761259083612ff1565b91506040518060400160405280600881526020017f574541504f4e532f00000000000000000000000000000000000000000000000081525090505b60018403612644576040518060400160405280600681526020017f41726d6f7220000000000000000000000000000000000000000000000000000081525091506040518060400160405280600781526020017f41524d4f52532f0000000000000000000000000000000000000000000000000081525090505b600284036126bd576040518060400160405280600581526020017f48656c6d2000000000000000000000000000000000000000000000000000000081525091506040518060400160405280600681526020017f48454c4d532f000000000000000000000000000000000000000000000000000081525090505b60038403612709576126ce83613200565b91506040518060400160405280600c81526020017f4143434553534f524945532f000000000000000000000000000000000000000081525090505b9250929050565b606060008203612753576040518060400160405280600681526020017f4d696e6f7220000000000000000000000000000000000000000000000000000081525090505b60018203612794576040518060400160405280600581526020017f476f6f642000000000000000000000000000000000000000000000000000000081525090505b600282036127d5576040518060400160405280600681526020017f477265617420000000000000000000000000000000000000000000000000000081525090505b60038203612816576040518060400160405280600881526020017f496e74656e73652000000000000000000000000000000000000000000000000081525090505b60048203612857576040518060400160405280600e81526020017f45787472616f7264696e6172792000000000000000000000000000000000000081525090505b60058203612898576040518060400160405280600981526020017f457468657265616c20000000000000000000000000000000000000000000000081525090505b600682036128d9576040518060400160405280600d81526020017f417374726f6e6f6d6963616c200000000000000000000000000000000000000081525090505b6007820361291a576040518060400160405280600781526020017f446976696e65200000000000000000000000000000000000000000000000000081525090505b919050565b6060806000830361299b576040518060400160405280600581526020017f5669676f7200000000000000000000000000000000000000000000000000000081525091506040518060400160405280600481526020017f41544b2f0000000000000000000000000000000000000000000000000000000081525090505b60018303612a14576040518060400160405280600a81526020017f526573697374616e63650000000000000000000000000000000000000000000081525091506040518060400160405280600481526020017f4445462f0000000000000000000000000000000000000000000000000000000081525090505b60028303612a8d576040518060400160405280600b81526020017f456c75736976656e65737300000000000000000000000000000000000000000081525091506040518060400160405280600481526020017f4556412f0000000000000000000000000000000000000000000000000000000081525090505b60038303612b06576040518060400160405280600681526020017f4865616c7468000000000000000000000000000000000000000000000000000081525091506040518060400160405280600381526020017f48502f000000000000000000000000000000000000000000000000000000000081525090505b60048303612b7f576040518060400160405280600881526020017f4665726f6369747900000000000000000000000000000000000000000000000081525091506040518060400160405280600481526020017f50454e2f0000000000000000000000000000000000000000000000000000000081525090505b60058303612bf8576040518060400160405280600981526020017f507265636973696f6e000000000000000000000000000000000000000000000081525091506040518060400160405280600581526020017f435249542f00000000000000000000000000000000000000000000000000000081525090505b60068303612c71576040518060400160405280600581526020017f536967687400000000000000000000000000000000000000000000000000000081525091506040518060400160405280600481526020017f4c554b2f0000000000000000000000000000000000000000000000000000000081525090505b60078303612cea576040518060400160405280600b81526020017f526573746f726174696f6e00000000000000000000000000000000000000000081525091506040518060400160405280600481526020017f5245472f0000000000000000000000000000000000000000000000000000000081525090505b915091565b60606000825103612d1157604051806020016040528060008152509050612e4d565b60006040518060600160405280604081526020016158a06040913990506000600360028551612d409190614881565b612d4a919061576f565b6004612d5691906157d1565b67ffffffffffffffff811115612d6f57612d6e613910565b5b6040519080825280601f01601f191660200182016040528015612da15781602001600182028036833780820191505090505b509050600182016020820185865187015b80821015612e0d576003820191508151603f8160121c168501518453600184019350603f81600c1c168501518453600184019350603f8160061c168501518453600184019350603f8116850151845360018401935050612db2565b5050600386510660018114612e295760028114612e3c57612e44565b603d6001830353603d6002830353612e44565b603d60018303535b50505080925050505b919050565b60007f01ffc9a7000000000000000000000000000000000000000000000000000000007bffffffffffffffffffffffffffffffffffffffffffffffffffffffff1916827bffffffffffffffffffffffffffffffffffffffffffffffffffffffff1916149050919050565b612ec78383836132a1565b600073ffffffffffffffffffffffffffffffffffffffff168373ffffffffffffffffffffffffffffffffffffffff1603612f0957612f04816132a6565b612f48565b8173ffffffffffffffffffffffffffffffffffffffff168373ffffffffffffffffffffffffffffffffffffffff1614612f4757612f4683826132ef565b5b5b600073ffffffffffffffffffffffffffffffffffffffff168273ffffffffffffffffffffffffffffffffffffffff1603612f8a57612f858161345c565b612fc9565b8273ffffffffffffffffffffffffffffffffffffffff168273ffffffffffffffffffffffffffffffffffffffff1614612fc857612fc7828261352d565b5b5b505050565b6000808273ffffffffffffffffffffffffffffffffffffffff163b119050919050565b606060008203613034576040518060400160405280600781526020017f48616d6d6572200000000000000000000000000000000000000000000000000081525090505b60018203613075576040518060400160405280600781526020017f536869656c64200000000000000000000000000000000000000000000000000081525090505b600282036130b6576040518060400160405280600781526020017f446167676572200000000000000000000000000000000000000000000000000081525090505b600382036130f7576040518060400160405280600581526020017f436c75622000000000000000000000000000000000000000000000000000000081525090505b60048203613138576040518060400160405280600481526020017f417865200000000000000000000000000000000000000000000000000000000081525090505b60058203613179576040518060400160405280600881526020017f426f6d626172642000000000000000000000000000000000000000000000000081525090505b600682036131ba576040518060400160405280600681526020017f536c696e6720000000000000000000000000000000000000000000000000000081525090505b600782036131fb576040518060400160405280600681526020017f537461666620000000000000000000000000000000000000000000000000000081525090505b919050565b6060600060028361321191906157a0565b0361324f576040518060400160405280600581526020017f52696e672000000000000000000000000000000000000000000000000000000081525090505b600160028361325e91906157a0565b0361329c576040518060400160405280600781526020017f416d756c6574200000000000000000000000000000000000000000000000000081525090505b919050565b505050565b6008805490506009600083815260200190815260200160002081905550600881908060018154018082558091505060019003906000526020600020016000909190919091505550565b600060016132fc84610c5e565b613306919061484d565b90506000600760008481526020019081526020016000205490508181146133eb576000600660008673ffffffffffffffffffffffffffffffffffffffff1673ffffffffffffffffffffffffffffffffffffffff168152602001908152602001600020600084815260200190815260200160002054905080600660008773ffffffffffffffffffffffffffffffffffffffff1673ffffffffffffffffffffffffffffffffffffffff168152602001908152602001600020600084815260200190815260200160002081905550816007600083815260200190815260200160002081905550505b6007600084815260200190815260200160002060009055600660008573ffffffffffffffffffffffffffffffffffffffff1673ffffffffffffffffffffffffffffffffffffffff16815260200190815260200160002060008381526020019081526020016000206000905550505050565b60006001600880549050613470919061484d565b90506000600960008481526020019081526020016000205490506000600883815481106134a05761349f614183565b5b9060005260206000200154905080600883815481106134c2576134c1614183565b5b90600052602060002001819055508160096000838152602001908152602001600020819055506009600085815260200190815260200160002060009055600880548061351157613510615813565b5b6001900381819060005260206000200160009055905550505050565b600061353883610c5e565b905081600660008573ffffffffffffffffffffffffffffffffffffffff1673ffffffffffffffffffffffffffffffffffffffff168152602001908152602001600020600083815260200190815260200160002081905550806007600084815260200190815260200160002081905550505050565b6040518060c001604052806060815260200160608152602001606081526020016060815260200160608152602001606081525090565b6000604051905090565b600080fd5b600080fd5b60007fffffffff0000000000000000000000000000000000000000000000000000000082169050919050565b61362b816135f6565b811461363657600080fd5b50565b60008135905061364881613622565b92915050565b600060208284031215613664576136636135ec565b5b600061367284828501613639565b91505092915050565b60008115159050919050565b6136908161367b565b82525050565b60006020820190506136ab6000830184613687565b92915050565b600081519050919050565b600082825260208201905092915050565b60005b838110156136eb5780820151818401526020810190506136d0565b60008484015250505050565b6000601f19601f8301169050919050565b6000613713826136b1565b61371d81856136bc565b935061372d8185602086016136cd565b613736816136f7565b840191505092915050565b6000602082019050818103600083015261375b8184613708565b905092915050565b6000819050919050565b61377681613763565b811461378157600080fd5b50565b6000813590506137938161376d565b92915050565b6000602082840312156137af576137ae6135ec565b5b60006137bd84828501613784565b91505092915050565b600073ffffffffffffffffffffffffffffffffffffffff82169050919050565b60006137f1826137c6565b9050919050565b613801816137e6565b82525050565b600060208201905061381c60008301846137f8565b92915050565b61382b816137e6565b811461383657600080fd5b50565b60008135905061384881613822565b92915050565b60008060408385031215613865576138646135ec565b5b600061387385828601613839565b925050602061388485828601613784565b9150509250929050565b61389781613763565b82525050565b60006020820190506138b2600083018461388e565b92915050565b6000806000606084860312156138d1576138d06135ec565b5b60006138df86828701613839565b93505060206138f086828701613839565b925050604061390186828701613784565b9150509250925092565b600080fd5b7f4e487b7100000000000000000000000000000000000000000000000000000000600052604160045260246000fd5b613948826136f7565b810181811067ffffffffffffffff8211171561396757613966613910565b5b80604052505050565b600061397a6135e2565b9050613986828261393f565b919050565b600067ffffffffffffffff82169050919050565b6139a88161398b565b81146139b357600080fd5b50565b6000813590506139c58161399f565b92915050565b6000608082840312156139e1576139e061390b565b5b6139eb6080613970565b905060006139fb848285016139b6565b6000830152506020613a0f848285016139b6565b6020830152506040613a23848285016139b6565b6040830152506060613a37848285016139b6565b60608301525092915050565b60006101008284031215613a5a57613a5961390b565b5b613a65610100613970565b90506000613a7584828501613784565b6000830152506020613a8984828501613784565b6020830152506040613a9d84828501613784565b6040830152506060613ab184828501613784565b6060830152506080613ac584828501613784565b60808301525060a0613ad984828501613784565b60a08301525060c0613aed84828501613784565b60c08301525060e0613b0184828501613784565b60e08301525092915050565b60008060006101a08486031215613b2757613b266135ec565b5b6000613b3586828701613839565b9350506020613b46868287016139cb565b92505060a0613b5786828701613a43565b9150509250925092565b613b6a8161398b565b82525050565b6000608082019050613b856000830187613b61565b613b926020830186613b61565b613b9f6040830185613b61565b613bac6060830184613b61565b95945050505050565b600060208284031215613bcb57613bca6135ec565b5b6000613bd984828501613839565b91505092915050565b613beb8161367b565b8114613bf657600080fd5b50565b600081359050613c0881613be2565b92915050565b60008060408385031215613c2557613c246135ec565b5b6000613c3385828601613839565b9250506020613c4485828601613bf9565b9150509250929050565b600061010082019050613c64600083018b61388e565b613c71602083018a61388e565b613c7e604083018961388e565b613c8b606083018861388e565b613c98608083018761388e565b613ca560a083018661388e565b613cb260c083018561388e565b613cbf60e083018461388e565b9998505050505050505050565b600080fd5b600080fd5b600067ffffffffffffffff821115613cf157613cf0613910565b5b613cfa826136f7565b9050602081019050919050565b82818337600083830152505050565b6000613d29613d2484613cd6565b613970565b905082815260208101848484011115613d4557613d44613cd1565b5b613d50848285613d07565b509392505050565b600082601f830112613d6d57613d6c613ccc565b5b8135613d7d848260208601613d16565b91505092915050565b60008060008060808587031215613da057613d9f6135ec565b5b6000613dae87828801613839565b9450506020613dbf87828801613839565b9350506040613dd087828801613784565b925050606085013567ffffffffffffffff811115613df157613df06135f1565b5b613dfd87828801613d58565b91505092959194509250565b60008060408385031215613e2057613e1f6135ec565b5b6000613e2e85828601613839565b9250506020613e3f85828601613839565b9150509250929050565b7f4e487b7100000000000000000000000000000000000000000000000000000000600052602260045260246000fd5b60006002820490506001821680613e9057607f821691505b602082108103613ea357613ea2613e49565b5b50919050565b7f4552433732313a20617070726f76616c20746f2063757272656e74206f776e6560008201527f7200000000000000000000000000000000000000000000000000000000000000602082015250565b6000613f056021836136bc565b9150613f1082613ea9565b604082019050919050565b60006020820190508181036000830152613f3481613ef8565b9050919050565b7f4552433732313a20617070726f76652063616c6c6572206973206e6f7420746f60008201527f6b656e206f776e6572206e6f7220617070726f76656420666f7220616c6c0000602082015250565b6000613f97603e836136bc565b9150613fa282613f3b565b604082019050919050565b60006020820190508181036000830152613fc681613f8a565b9050919050565b7f4552433732313a2063616c6c6572206973206e6f7420746f6b656e206f776e6560008201527f72206e6f7220617070726f766564000000000000000000000000000000000000602082015250565b6000614029602e836136bc565b915061403482613fcd565b604082019050919050565b600060208201905081810360008301526140588161401c565b9050919050565b7f455243373231456e756d657261626c653a206f776e657220696e646578206f7560008201527f74206f6620626f756e6473000000000000000000000000000000000000000000602082015250565b60006140bb602b836136bc565b91506140c68261405f565b604082019050919050565b600060208201905081810360008301526140ea816140ae565b9050919050565b7f455243373231456e756d657261626c653a20676c6f62616c20696e646578206f60008201527f7574206f6620626f756e64730000000000000000000000000000000000000000602082015250565b600061414d602c836136bc565b9150614158826140f1565b604082019050919050565b6000602082019050818103600083015261417c81614140565b9050919050565b7f4e487b7100000000000000000000000000000000000000000000000000000000600052603260045260246000fd5b7f45515054533a2043616e206f6e6c792062652063616c6c65642062792074686560008201527f20526f75746572204d696e7465722e0000000000000000000000000000000000602082015250565b600061420e602f836136bc565b9150614219826141b2565b604082019050919050565b6000602082019050818103600083015261423d81614201565b9050919050565b60008160001c9050919050565b600067ffffffffffffffff82169050919050565b600061427861427383614244565b614251565b9050919050565b6142888161398b565b82525050565b60008160401c9050919050565b60006142ae6142a98361428e565b614251565b9050919050565b60008160801c9050919050565b60006142d56142d0836142b5565b614251565b9050919050565b60008160c01c9050919050565b60006142fc6142f7836142dc565b614251565b9050919050565b60808201600080830154905061431881614265565b614325600086018261427f565b5061432f8161429b565b61433c602086018261427f565b50614346816142c2565b614353604086018261427f565b5061435d816142e9565b61436a606086018261427f565b5050505050565b6000819050919050565b600061438e61438983614244565b614371565b9050919050565b61439e81613763565b82525050565b610100820160008083015490506143ba8161437b565b6143c76000860182614395565b50600183015490506143d88161437b565b6143e56020860182614395565b50600283015490506143f68161437b565b6144036040860182614395565b50600383015490506144148161437b565b6144216060860182614395565b50600483015490506144328161437b565b61443f6080860182614395565b50600583015490506144508161437b565b61445d60a0860182614395565b506006830154905061446e8161437b565b61447b60c0860182614395565b506007830154905061448c8161437b565b61449960e0860182614395565b5050505050565b60006101a0820190506144b660008301866137f8565b6144c36020830185614303565b6144d060a08301846143a4565b949350505050565b7f4552433732313a20696e76616c696420746f6b656e2049440000000000000000600082015250565b600061450e6018836136bc565b9150614519826144d8565b602082019050919050565b6000602082019050818103600083015261453d81614501565b9050919050565b7f4552433732313a2061646472657373207a65726f206973206e6f74206120766160008201527f6c6964206f776e65720000000000000000000000000000000000000000000000602082015250565b60006145a06029836136bc565b91506145ab82614544565b604082019050919050565b600060208201905081810360008301526145cf81614593565b9050919050565b7f4552433732313a2055524920717565727920666f72206e6f6e6578697374656e60008201527f7420746f6b656e00000000000000000000000000000000000000000000000000602082015250565b60006146326027836136bc565b915061463d826145d6565b604082019050919050565b6000602082019050818103600083015261466181614625565b9050919050565b7f4f776e61626c653a206e6577206f776e657220697320746865207a65726f206160008201527f6464726573730000000000000000000000000000000000000000000000000000602082015250565b60006146c46026836136bc565b91506146cf82614668565b604082019050919050565b600060208201905081810360008301526146f3816146b7565b9050919050565b7f4552433732313a207472616e736665722066726f6d20696e636f72726563742060008201527f6f776e6572000000000000000000000000000000000000000000000000000000602082015250565b60006147566025836136bc565b9150614761826146fa565b604082019050919050565b6000602082019050818103600083015261478581614749565b9050919050565b7f4552433732313a207472616e7366657220746f20746865207a65726f2061646460008201527f7265737300000000000000000000000000000000000000000000000000000000602082015250565b60006147e86024836136bc565b91506147f38261478c565b604082019050919050565b60006020820190508181036000830152614817816147db565b9050919050565b7f4e487b7100000000000000000000000000000000000000000000000000000000600052601160045260246000fd5b600061485882613763565b915061486383613763565b925082820390508181111561487b5761487a61481e565b5b92915050565b600061488c82613763565b915061489783613763565b92508282019050808211156148af576148ae61481e565b5b92915050565b7f4552433732313a206d696e7420746f20746865207a65726f2061646472657373600082015250565b60006148eb6020836136bc565b91506148f6826148b5565b602082019050919050565b6000602082019050818103600083015261491a816148de565b9050919050565b7f4552433732313a20746f6b656e20616c7265616479206d696e74656400000000600082015250565b6000614957601c836136bc565b915061496282614921565b602082019050919050565b600060208201905081810360008301526149868161494a565b9050919050565b7f4f776e61626c653a2063616c6c6572206973206e6f7420746865206f776e6572600082015250565b60006149c36020836136bc565b91506149ce8261498d565b602082019050919050565b600060208201905081810360008301526149f2816149b6565b9050919050565b7f4552433732313a20617070726f766520746f2063616c6c657200000000000000600082015250565b6000614a2f6019836136bc565b9150614a3a826149f9565b602082019050919050565b60006020820190508181036000830152614a5e81614a22565b9050919050565b7f4552433732313a207472616e7366657220746f206e6f6e20455243373231526560008201527f63656976657220696d706c656d656e7465720000000000000000000000000000602082015250565b6000614ac16032836136bc565b9150614acc82614a65565b604082019050919050565b60006020820190508181036000830152614af081614ab4565b9050919050565b600081905092915050565b7f227d2c207b22646973706c61795f74797065223a20226e756d626572222c202260008201527f74726169745f74797065223a202241747461636b222c20226d61785f76616c7560208201527f65223a203130302c202276616c7565223a200000000000000000000000000000604082015250565b6000614b84605283614af7565b9150614b8f82614b02565b605282019050919050565b6000614ba5826136b1565b614baf8185614af7565b9350614bbf8185602086016136cd565b80840191505092915050565b7f7d2c207b22646973706c61795f74797065223a20226e756d626572222c20227460008201527f726169745f74797065223a2022446566656e7365222c20226d61785f76616c7560208201527f65223a203130302c202276616c7565223a200000000000000000000000000000604082015250565b6000614c4d605283614af7565b9150614c5882614bcb565b605282019050919050565b7f7d2c207b22646973706c61795f74797065223a20226e756d626572222c20227460008201527f726169745f74797065223a20224576616465204368616e63652025222c20226d60208201527f61785f76616c7565223a20313030302c202276616c7565223a20000000000000604082015250565b6000614ce5605a83614af7565b9150614cf082614c63565b605a82019050919050565b7f7d2c207b22646973706c61795f74797065223a20226e756d626572222c20227460008201527f726169745f74797065223a20224850222c20226d61785f76616c7565223a203160208201527f30302c202276616c7565223a2000000000000000000000000000000000000000604082015250565b6000614d7d604d83614af7565b9150614d8882614cfb565b604d82019050919050565b7f7d2c207b22646973706c61795f74797065223a20226e756d626572222c20227460008201527f726169745f74797065223a202250656e6574726174696f6e204368616e63652060208201527f25222c20226d61785f76616c7565223a203130302c202276616c7565223a2000604082015250565b6000614e15605f83614af7565b9150614e2082614d93565b605f82019050919050565b7f7d2c207b22646973706c61795f74797065223a20226e756d626572222c20227460008201527f726169745f74797065223a2022437269746963616c204368616e63652025222c60208201527f20226d61785f76616c7565223a20313030302c202276616c7565223a20000000604082015250565b6000614ead605d83614af7565b9150614eb882614e2b565b605d82019050919050565b7f7d2c207b22646973706c61795f74797065223a20226e756d626572222c20227460008201527f726169745f74797065223a20224c75636b2025222c20226d61785f76616c756560208201527f223a20313030302c202276616c7565223a200000000000000000000000000000604082015250565b6000614f45605283614af7565b9150614f5082614ec3565b605282019050919050565b7f7d2c207b22646973706c61795f74797065223a20226e756d626572222c20227460008201527f726169745f74797065223a2022456e6572677920526573746f726174696f6e2060208201527f25222c20226d61785f76616c7565223a20313030302c202276616c7565223a20604082015250565b6000614fdd606083614af7565b9150614fe882614f5b565b606082019050919050565b6000614ffe82614b77565b915061500a828b614b9a565b915061501582614c40565b9150615021828a614b9a565b915061502c82614cd8565b91506150388289614b9a565b915061504382614d70565b915061504f8288614b9a565b915061505a82614e08565b91506150668287614b9a565b915061507182614ea0565b915061507d8286614b9a565b915061508882614f38565b91506150948285614b9a565b915061509f82614fd0565b91506150ab8284614b9a565b91508190509998505050505050505050565b600081519050919050565b600081905092915050565b60006150de826150bd565b6150e881856150c8565b93506150f88185602086016136cd565b80840191505092915050565b7f6f66200000000000000000000000000000000000000000000000000000000000600082015250565b600061513a600383614af7565b915061514582615104565b600382019050919050565b600061515c82876150d3565b915061516882866150d3565b91506151738261512d565b915061517f82856150d3565b915061518b82846150d3565b915081905095945050505050565b60006151a582876150d3565b91506151b182866150d3565b91506151bd82856150d3565b91506151c982846150d3565b915081905095945050505050565b7f7b226465736372697074696f6e223a202252616e646f6d436c6173682045717560008201527f69706d656e74222c2022696d616765223a202200000000000000000000000000602082015250565b6000615233603383614af7565b915061523e826151d7565b603382019050919050565b7f222c20226e616d65223a20220000000000000000000000000000000000000000600082015250565b600061527f600c83614af7565b915061528a82615249565b600c82019050919050565b7f222c202261747472696275746573223a205b0000000000000000000000000000600082015250565b60006152cb601283614af7565b91506152d682615295565b601282019050919050565b7f7b2274726169745f74797065223a202265717569706d656e745f74797065222c60008201527f202276616c7565223a2022000000000000000000000000000000000000000000602082015250565b600061533d602b83614af7565b9150615348826152e1565b602b82019050919050565b7f227d2c207b2274726169745f74797065223a2022726172697479222c2022766160008201527f6c7565223a202200000000000000000000000000000000000000000000000000602082015250565b60006153af602783614af7565b91506153ba82615353565b602782019050919050565b7f227d2c207b2274726169745f74797065223a20226170746974756465222c202260008201527f76616c7565223a20220000000000000000000000000000000000000000000000602082015250565b6000615421602983614af7565b915061542c826153c5565b602982019050919050565b7f227d2c207b2274726169745f74797065223a202265787472656d697479222c2060008201527f2276616c7565223a202200000000000000000000000000000000000000000000602082015250565b6000615493602a83614af7565b915061549e82615437565b602a82019050919050565b7f7d5d7d0000000000000000000000000000000000000000000000000000000000600082015250565b60006154df600383614af7565b91506154ea826154a9565b600382019050919050565b600061550082615226565b915061550c828a6150d3565b915061551782615272565b915061552382896150d3565b915061552e826152be565b915061553982615330565b915061554582886150d3565b9150615550826153a2565b915061555c82876150d3565b915061556782615414565b915061557382866150d3565b915061557e82615486565b915061558a82856150d3565b91506155968284614b9a565b91506155a1826154d2565b915081905098975050505050505050565b7f646174613a6170706c69636174696f6e2f6a736f6e3b6261736536342c000000600082015250565b60006155e8601d83614af7565b91506155f3826155b2565b601d82019050919050565b6000615609826155db565b91506156158284614b9a565b915081905092915050565b600082825260208201905092915050565b600061563c826150bd565b6156468185615620565b93506156568185602086016136cd565b61565f816136f7565b840191505092915050565b600060808201905061567f60008301876137f8565b61568c60208301866137f8565b615699604083018561388e565b81810360608301526156ab8184615631565b905095945050505050565b6000815190506156c581613622565b92915050565b6000602082840312156156e1576156e06135ec565b5b60006156ef848285016156b6565b91505092915050565b600061570382613763565b91507fffffffffffffffffffffffffffffffffffffffffffffffffffffffffffffffff82036157355761573461481e565b5b600182019050919050565b7f4e487b7100000000000000000000000000000000000000000000000000000000600052601260045260246000fd5b600061577a82613763565b915061578583613763565b92508261579557615794615740565b5b828204905092915050565b60006157ab82613763565b91506157b683613763565b9250826157c6576157c5615740565b5b828206905092915050565b60006157dc82613763565b91506157e783613763565b92508282026157f581613763565b9150828204841483151761580c5761580b61481e565b5b5092915050565b7f4e487b7100000000000000000000000000000000000000000000000000000000600052603160045260246000fdfe68747470733a2f2f636861696e6c696e6b2d727067323032322e696e667572612d697066732e696f2f697066732f516d6166426e457836734c5852316e4c41647354786361414e6f3968547244397a32314c5575617165464a4a6b612f4142434445464748494a4b4c4d4e4f505152535455565758595a6162636465666768696a6b6c6d6e6f707172737475767778797a303132333435363738392b2fa264697066735822122088244d51d8bc33495e71148076370b9be89167fd0c3a3266f54d51a1094a35e764736f6c63430008110033",
  "linkReferences": {},
  "deployedLinkReferences": {}
}