{
  "_format": "hh-sol-artifact-1",
  "contractName": "WhiteSparkstone",
  "sourceName": "contracts/core/tokens/Catalysts/WhiteSparkstone.sol",
  "abi": [
    {
      "inputs": [],
      "stateMutability": "nonpayable",
      "type": "constructor"
    },
    {
      "anonymous": false,
      "inputs": [
        {
          "indexed": true,
          "internalType": "address",
          "name": "owner",
          "type": "address"
        },
        {
          "indexed": true,
          "internalType": "address",
          "name": "spender",
          "type": "address"
        },
        {
          "indexed": false,
          "internalType": "uint256",
          "name": "value",
          "type": "uint256"
        }
      ],
      "name": "Approval",
      "type": "event"
    },
    {
      "anonymous": false,
      "inputs": [
        {
          "indexed": true,
          "internalType": "address",
          "name": "previousOwner",
          "type": "address"
        },
        {
          "indexed": true,
          "internalType": "address",
          "name": "newOwner",
          "type": "address"
        }
      ],
      "name": "OwnershipTransferred",
      "type": "event"
    },
    {
      "anonymous": false,
      "inputs": [
        {
          "indexed": true,
          "internalType": "address",
          "name": "from",
          "type": "address"
        },
        {
          "indexed": true,
          "internalType": "address",
          "name": "to",
          "type": "address"
        },
        {
          "indexed": false,
          "internalType": "uint256",
          "name": "value",
          "type": "uint256"
        }
      ],
      "name": "Transfer",
      "type": "event"
    },
    {
      "inputs": [
        {
          "internalType": "address",
          "name": "owner",
          "type": "address"
        },
        {
          "internalType": "address",
          "name": "spender",
          "type": "address"
        }
      ],
      "name": "allowance",
      "outputs": [
        {
          "internalType": "uint256",
          "name": "",
          "type": "uint256"
        }
      ],
      "stateMutability": "view",
      "type": "function"
    },
    {
      "inputs": [
        {
          "internalType": "address",
          "name": "spender",
          "type": "address"
        },
        {
          "internalType": "uint256",
          "name": "amount",
          "type": "uint256"
        }
      ],
      "name": "approve",
      "outputs": [
        {
          "internalType": "bool",
          "name": "",
          "type": "bool"
        }
      ],
      "stateMutability": "nonpayable",
      "type": "function"
    },
    {
      "inputs": [
        {
          "internalType": "address",
          "name": "account",
          "type": "address"
        }
      ],
      "name": "balanceOf",
      "outputs": [
        {
          "internalType": "uint256",
          "name": "",
          "type": "uint256"
        }
      ],
      "stateMutability": "view",
      "type": "function"
    },
    {
      "inputs": [
        {
          "internalType": "uint256",
          "name": "amount",
          "type": "uint256"
        }
      ],
      "name": "burn",
      "outputs": [],
      "stateMutability": "nonpayable",
      "type": "function"
    },
    {
      "inputs": [
        {
          "internalType": "address",
          "name": "account",
          "type": "address"
        },
        {
          "internalType": "uint256",
          "name": "amount",
          "type": "uint256"
        }
      ],
      "name": "burnFrom",
      "outputs": [],
      "stateMutability": "nonpayable",
      "type": "function"
    },
    {
      "inputs": [],
      "name": "decimals",
      "outputs": [
        {
          "internalType": "uint8",
          "name": "",
          "type": "uint8"
        }
      ],
      "stateMutability": "view",
      "type": "function"
    },
    {
      "inputs": [
        {
          "internalType": "address",
          "name": "spender",
          "type": "address"
        },
        {
          "internalType": "uint256",
          "name": "subtractedValue",
          "type": "uint256"
        }
      ],
      "name": "decreaseAllowance",
      "outputs": [
        {
          "internalType": "bool",
          "name": "",
          "type": "bool"
        }
      ],
      "stateMutability": "nonpayable",
      "type": "function"
    },
    {
      "inputs": [
        {
          "internalType": "address",
          "name": "spender",
          "type": "address"
        },
        {
          "internalType": "uint256",
          "name": "addedValue",
          "type": "uint256"
        }
      ],
      "name": "increaseAllowance",
      "outputs": [
        {
          "internalType": "bool",
          "name": "",
          "type": "bool"
        }
      ],
      "stateMutability": "nonpayable",
      "type": "function"
    },
    {
      "inputs": [
        {
          "internalType": "address",
          "name": "to",
          "type": "address"
        },
        {
          "internalType": "uint256",
          "name": "amount",
          "type": "uint256"
        }
      ],
      "name": "mint",
      "outputs": [],
      "stateMutability": "nonpayable",
      "type": "function"
    },
    {
      "inputs": [],
      "name": "name",
      "outputs": [
        {
          "internalType": "string",
          "name": "",
          "type": "string"
        }
      ],
      "stateMutability": "view",
      "type": "function"
    },
    {
      "inputs": [],
      "name": "owner",
      "outputs": [
        {
          "internalType": "address",
          "name": "",
          "type": "address"
        }
      ],
      "stateMutability": "view",
      "type": "function"
    },
    {
      "inputs": [],
      "name": "renounceOwnership",
      "outputs": [],
      "stateMutability": "nonpayable",
      "type": "function"
    },
    {
      "inputs": [
        {
          "internalType": "address",
          "name": "lp_address",
          "type": "address"
        }
      ],
      "name": "setLpToken",
      "outputs": [],
      "stateMutability": "nonpayable",
      "type": "function"
    },
    {
      "inputs": [],
      "name": "symbol",
      "outputs": [
        {
          "internalType": "string",
          "name": "",
          "type": "string"
        }
      ],
      "stateMutability": "view",
      "type": "function"
    },
    {
      "inputs": [],
      "name": "totalSupply",
      "outputs": [
        {
          "internalType": "uint256",
          "name": "",
          "type": "uint256"
        }
      ],
      "stateMutability": "view",
      "type": "function"
    },
    {
      "inputs": [
        {
          "internalType": "address",
          "name": "to",
          "type": "address"
        },
        {
          "internalType": "uint256",
          "name": "amount",
          "type": "uint256"
        }
      ],
      "name": "transfer",
      "outputs": [
        {
          "internalType": "bool",
          "name": "",
          "type": "bool"
        }
      ],
      "stateMutability": "nonpayable",
      "type": "function"
    },
    {
      "inputs": [
        {
          "internalType": "address",
          "name": "from",
          "type": "address"
        },
        {
          "internalType": "address",
          "name": "to",
          "type": "address"
        },
        {
          "internalType": "uint256",
          "name": "amount",
          "type": "uint256"
        }
      ],
      "name": "transferFrom",
      "outputs": [
        {
          "internalType": "bool",
          "name": "",
          "type": "bool"
        }
      ],
      "stateMutability": "nonpayable",
      "type": "function"
    },
    {
      "inputs": [
        {
          "internalType": "address",
          "name": "newOwner",
          "type": "address"
        }
      ],
      "name": "transferOwnership",
      "outputs": [],
      "stateMutability": "nonpayable",
      "type": "function"
    }
  ],
  "bytecode": "0x60806040523480156200001157600080fd5b506040518060400160405280601981526020017f436174616c79737420576869746520537061726b73746f6e65000000000000008152506040518060400160405280600781526020017f2077535041524b0000000000000000000000000000000000000000000000000081525081600390816200008f9190620005da565b508060049081620000a19190620005da565b505050620000c4620000b86200010760201b60201c565b6200010f60201b60201c565b6200010133620000d9620001d560201b60201c565b600a620000e7919062000851565b6064620000f59190620008a2565b620001de60201b60201c565b620009d9565b600033905090565b6000600560009054906101000a900473ffffffffffffffffffffffffffffffffffffffff16905081600560006101000a81548173ffffffffffffffffffffffffffffffffffffffff021916908373ffffffffffffffffffffffffffffffffffffffff1602179055508173ffffffffffffffffffffffffffffffffffffffff168173ffffffffffffffffffffffffffffffffffffffff167f8be0079c531659141344cd1fd0a4f28419497f9722a3daafe3b4186f6b6457e060405160405180910390a35050565b60006012905090565b600073ffffffffffffffffffffffffffffffffffffffff168273ffffffffffffffffffffffffffffffffffffffff160362000250576040517f08c379a000000000000000000000000000000000000000000000000000000000815260040162000247906200094e565b60405180910390fd5b62000264600083836200035660201b60201c565b806002600082825462000278919062000970565b92505081905550806000808473ffffffffffffffffffffffffffffffffffffffff1673ffffffffffffffffffffffffffffffffffffffff1681526020019081526020016000206000828254620002cf919062000970565b925050819055508173ffffffffffffffffffffffffffffffffffffffff16600073ffffffffffffffffffffffffffffffffffffffff167fddf252ad1be2c89b69c2b068fc378daa952ba7f163c4a11628f55a4df523b3ef83604051620003369190620009bc565b60405180910390a362000352600083836200035b60201b60201c565b5050565b505050565b505050565b600081519050919050565b7f4e487b7100000000000000000000000000000000000000000000000000000000600052604160045260246000fd5b7f4e487b7100000000000000000000000000000000000000000000000000000000600052602260045260246000fd5b60006002820490506001821680620003e257607f821691505b602082108103620003f857620003f76200039a565b5b50919050565b60008190508160005260206000209050919050565b60006020601f8301049050919050565b600082821b905092915050565b600060088302620004627fffffffffffffffffffffffffffffffffffffffffffffffffffffffffffffffff8262000423565b6200046e868362000423565b95508019841693508086168417925050509392505050565b6000819050919050565b6000819050919050565b6000620004bb620004b5620004af8462000486565b62000490565b62000486565b9050919050565b6000819050919050565b620004d7836200049a565b620004ef620004e682620004c2565b84845462000430565b825550505050565b600090565b62000506620004f7565b62000513818484620004cc565b505050565b5b818110156200053b576200052f600082620004fc565b60018101905062000519565b5050565b601f8211156200058a576200055481620003fe565b6200055f8462000413565b810160208510156200056f578190505b620005876200057e8562000413565b83018262000518565b50505b505050565b600082821c905092915050565b6000620005af600019846008026200058f565b1980831691505092915050565b6000620005ca83836200059c565b9150826002028217905092915050565b620005e58262000360565b67ffffffffffffffff8111156200060157620006006200036b565b5b6200060d8254620003c9565b6200061a8282856200053f565b600060209050601f8311600181146200065257600084156200063d578287015190505b620006498582620005bc565b865550620006b9565b601f1984166200066286620003fe565b60005b828110156200068c5784890151825560018201915060208501945060208101905062000665565b86831015620006ac5784890151620006a8601f8916826200059c565b8355505b6001600288020188555050505b505050505050565b7f4e487b7100000000000000000000000000000000000000000000000000000000600052601160045260246000fd5b60008160011c9050919050565b6000808291508390505b60018511156200074f57808604811115620007275762000726620006c1565b5b6001851615620007375780820291505b80810290506200074785620006f0565b945062000707565b94509492505050565b6000826200076a57600190506200083d565b816200077a57600090506200083d565b81600181146200079357600281146200079e57620007d4565b60019150506200083d565b60ff841115620007b357620007b2620006c1565b5b8360020a915084821115620007cd57620007cc620006c1565b5b506200083d565b5060208310610133831016604e8410600b84101617156200080e5782820a905083811115620008085762000807620006c1565b5b6200083d565b6200081d8484846001620006fd565b92509050818404811115620008375762000836620006c1565b5b81810290505b9392505050565b600060ff82169050919050565b60006200085e8262000486565b91506200086b8362000844565b92506200089a7fffffffffffffffffffffffffffffffffffffffffffffffffffffffffffffffff848462000758565b905092915050565b6000620008af8262000486565b9150620008bc8362000486565b9250828202620008cc8162000486565b91508282048414831517620008e657620008e5620006c1565b5b5092915050565b600082825260208201905092915050565b7f45524332303a206d696e7420746f20746865207a65726f206164647265737300600082015250565b600062000936601f83620008ed565b91506200094382620008fe565b602082019050919050565b60006020820190508181036000830152620009698162000927565b9050919050565b60006200097d8262000486565b91506200098a8362000486565b9250828201905080821115620009a557620009a4620006c1565b5b92915050565b620009b68162000486565b82525050565b6000602082019050620009d36000830184620009ab565b92915050565b611e9880620009e96000396000f3fe608060405234801561001057600080fd5b50600436106101165760003560e01c8063715018a6116100a25780639ee933b5116100715780639ee933b5146102cf578063a457c2d7146102eb578063a9059cbb1461031b578063dd62ed3e1461034b578063f2fde38b1461037b57610116565b8063715018a61461026d57806379cc6790146102775780638da5cb5b1461029357806395d89b41146102b157610116565b8063313ce567116100e9578063313ce567146101b757806339509351146101d557806340c10f191461020557806342966c681461022157806370a082311461023d57610116565b806306fdde031461011b578063095ea7b31461013957806318160ddd1461016957806323b872dd14610187575b600080fd5b610123610397565b60405161013091906112f8565b60405180910390f35b610153600480360381019061014e91906113b3565b610429565b604051610160919061140e565b60405180910390f35b61017161044c565b60405161017e9190611438565b60405180910390f35b6101a1600480360381019061019c9190611453565b610456565b6040516101ae919061140e565b60405180910390f35b6101bf610485565b6040516101cc91906114c2565b60405180910390f35b6101ef60048036038101906101ea91906113b3565b61048e565b6040516101fc919061140e565b60405180910390f35b61021f600480360381019061021a91906113b3565b6104c5565b005b61023b600480360381019061023691906114dd565b6105cd565b005b6102576004803603810190610252919061150a565b6105e1565b6040516102649190611438565b60405180910390f35b610275610629565b005b610291600480360381019061028c91906113b3565b61063d565b005b61029b61065d565b6040516102a89190611546565b60405180910390f35b6102b9610687565b6040516102c691906112f8565b60405180910390f35b6102e960048036038101906102e4919061150a565b610719565b005b610305600480360381019061030091906113b3565b610765565b604051610312919061140e565b60405180910390f35b610335600480360381019061033091906113b3565b6107dc565b604051610342919061140e565b60405180910390f35b61036560048036038101906103609190611561565b6107ff565b6040516103729190611438565b60405180910390f35b6103956004803603810190610390919061150a565b610886565b005b6060600380546103a6906115d0565b80601f01602080910402602001604051908101604052809291908181526020018280546103d2906115d0565b801561041f5780601f106103f45761010080835404028352916020019161041f565b820191906000526020600020905b81548152906001019060200180831161040257829003601f168201915b5050505050905090565b600080610434610909565b9050610441818585610911565b600191505092915050565b6000600254905090565b600080610461610909565b905061046e858285610ada565b610479858585610b66565b60019150509392505050565b60006012905090565b600080610499610909565b90506104ba8185856104ab85896107ff565b6104b59190611630565b610911565b600191505092915050565b6000600a826104d49190611664565b90506000600660009054906101000a900473ffffffffffffffffffffffffffffffffffffffff1673ffffffffffffffffffffffffffffffffffffffff166323b872dd336000856040518463ffffffff1660e01b8152600401610538939291906116a6565b6020604051808303816000875af1158015610557573d6000803e3d6000fd5b505050506040513d601f19601f8201168201806040525081019061057b9190611709565b9050806105bd576040517f08c379a00000000000000000000000000000000000000000000000000000000081526004016105b4906117a8565b60405180910390fd5b6105c78484610de5565b50505050565b6105de6105d8610909565b82610f44565b50565b60008060008373ffffffffffffffffffffffffffffffffffffffff1673ffffffffffffffffffffffffffffffffffffffff168152602001908152602001600020549050919050565b61063161111a565b61063b6000611198565b565b61064f82610649610909565b83610ada565b6106598282610f44565b5050565b6000600560009054906101000a900473ffffffffffffffffffffffffffffffffffffffff16905090565b606060048054610696906115d0565b80601f01602080910402602001604051908101604052809291908181526020018280546106c2906115d0565b801561070f5780601f106106e45761010080835404028352916020019161070f565b820191906000526020600020905b8154815290600101906020018083116106f257829003601f168201915b5050505050905090565b61072161111a565b80600660006101000a81548173ffffffffffffffffffffffffffffffffffffffff021916908373ffffffffffffffffffffffffffffffffffffffff16021790555050565b600080610770610909565b9050600061077e82866107ff565b9050838110156107c3576040517f08c379a00000000000000000000000000000000000000000000000000000000081526004016107ba9061183a565b60405180910390fd5b6107d08286868403610911565b60019250505092915050565b6000806107e7610909565b90506107f4818585610b66565b600191505092915050565b6000600160008473ffffffffffffffffffffffffffffffffffffffff1673ffffffffffffffffffffffffffffffffffffffff16815260200190815260200160002060008373ffffffffffffffffffffffffffffffffffffffff1673ffffffffffffffffffffffffffffffffffffffff16815260200190815260200160002054905092915050565b61088e61111a565b600073ffffffffffffffffffffffffffffffffffffffff168173ffffffffffffffffffffffffffffffffffffffff16036108fd576040517f08c379a00000000000000000000000000000000000000000000000000000000081526004016108f4906118cc565b60405180910390fd5b61090681611198565b50565b600033905090565b600073ffffffffffffffffffffffffffffffffffffffff168373ffffffffffffffffffffffffffffffffffffffff1603610980576040517f08c379a00000000000000000000000000000000000000000000000000000000081526004016109779061195e565b60405180910390fd5b600073ffffffffffffffffffffffffffffffffffffffff168273ffffffffffffffffffffffffffffffffffffffff16036109ef576040517f08c379a00000000000000000000000000000000000000000000000000000000081526004016109e6906119f0565b60405180910390fd5b80600160008573ffffffffffffffffffffffffffffffffffffffff1673ffffffffffffffffffffffffffffffffffffffff16815260200190815260200160002060008473ffffffffffffffffffffffffffffffffffffffff1673ffffffffffffffffffffffffffffffffffffffff168152602001908152602001600020819055508173ffffffffffffffffffffffffffffffffffffffff168373ffffffffffffffffffffffffffffffffffffffff167f8c5be1e5ebec7d5bd14f71427d1e84f3dd0314c0f7b2291e5b200ac8c7c3b92583604051610acd9190611438565b60405180910390a3505050565b6000610ae684846107ff565b90507fffffffffffffffffffffffffffffffffffffffffffffffffffffffffffffffff8114610b605781811015610b52576040517f08c379a0000000000000000000000000000000000000000000000000000000008152600401610b4990611a5c565b60405180910390fd5b610b5f8484848403610911565b5b50505050565b600073ffffffffffffffffffffffffffffffffffffffff168373ffffffffffffffffffffffffffffffffffffffff1603610bd5576040517f08c379a0000000000000000000000000000000000000000000000000000000008152600401610bcc90611aee565b60405180910390fd5b600073ffffffffffffffffffffffffffffffffffffffff168273ffffffffffffffffffffffffffffffffffffffff1603610c44576040517f08c379a0000000000000000000000000000000000000000000000000000000008152600401610c3b90611b80565b60405180910390fd5b610c4f83838361125e565b60008060008573ffffffffffffffffffffffffffffffffffffffff1673ffffffffffffffffffffffffffffffffffffffff16815260200190815260200160002054905081811015610cd5576040517f08c379a0000000000000000000000000000000000000000000000000000000008152600401610ccc90611c12565b60405180910390fd5b8181036000808673ffffffffffffffffffffffffffffffffffffffff1673ffffffffffffffffffffffffffffffffffffffff16815260200190815260200160002081905550816000808573ffffffffffffffffffffffffffffffffffffffff1673ffffffffffffffffffffffffffffffffffffffff1681526020019081526020016000206000828254610d689190611630565b925050819055508273ffffffffffffffffffffffffffffffffffffffff168473ffffffffffffffffffffffffffffffffffffffff167fddf252ad1be2c89b69c2b068fc378daa952ba7f163c4a11628f55a4df523b3ef84604051610dcc9190611438565b60405180910390a3610ddf848484611263565b50505050565b600073ffffffffffffffffffffffffffffffffffffffff168273ffffffffffffffffffffffffffffffffffffffff1603610e54576040517f08c379a0000000000000000000000000000000000000000000000000000000008152600401610e4b90611c7e565b60405180910390fd5b610e606000838361125e565b8060026000828254610e729190611630565b92505081905550806000808473ffffffffffffffffffffffffffffffffffffffff1673ffffffffffffffffffffffffffffffffffffffff1681526020019081526020016000206000828254610ec79190611630565b925050819055508173ffffffffffffffffffffffffffffffffffffffff16600073ffffffffffffffffffffffffffffffffffffffff167fddf252ad1be2c89b69c2b068fc378daa952ba7f163c4a11628f55a4df523b3ef83604051610f2c9190611438565b60405180910390a3610f4060008383611263565b5050565b600073ffffffffffffffffffffffffffffffffffffffff168273ffffffffffffffffffffffffffffffffffffffff1603610fb3576040517f08c379a0000000000000000000000000000000000000000000000000000000008152600401610faa90611d10565b60405180910390fd5b610fbf8260008361125e565b60008060008473ffffffffffffffffffffffffffffffffffffffff1673ffffffffffffffffffffffffffffffffffffffff16815260200190815260200160002054905081811015611045576040517f08c379a000000000000000000000000000000000000000000000000000000000815260040161103c90611da2565b60405180910390fd5b8181036000808573ffffffffffffffffffffffffffffffffffffffff1673ffffffffffffffffffffffffffffffffffffffff16815260200190815260200160002081905550816002600082825461109c9190611dc2565b92505081905550600073ffffffffffffffffffffffffffffffffffffffff168373ffffffffffffffffffffffffffffffffffffffff167fddf252ad1be2c89b69c2b068fc378daa952ba7f163c4a11628f55a4df523b3ef846040516111019190611438565b60405180910390a361111583600084611263565b505050565b611122610909565b73ffffffffffffffffffffffffffffffffffffffff1661114061065d565b73ffffffffffffffffffffffffffffffffffffffff1614611196576040517f08c379a000000000000000000000000000000000000000000000000000000000815260040161118d90611e42565b60405180910390fd5b565b6000600560009054906101000a900473ffffffffffffffffffffffffffffffffffffffff16905081600560006101000a81548173ffffffffffffffffffffffffffffffffffffffff021916908373ffffffffffffffffffffffffffffffffffffffff1602179055508173ffffffffffffffffffffffffffffffffffffffff168173ffffffffffffffffffffffffffffffffffffffff167f8be0079c531659141344cd1fd0a4f28419497f9722a3daafe3b4186f6b6457e060405160405180910390a35050565b505050565b505050565b600081519050919050565b600082825260208201905092915050565b60005b838110156112a2578082015181840152602081019050611287565b60008484015250505050565b6000601f19601f8301169050919050565b60006112ca82611268565b6112d48185611273565b93506112e4818560208601611284565b6112ed816112ae565b840191505092915050565b6000602082019050818103600083015261131281846112bf565b905092915050565b600080fd5b600073ffffffffffffffffffffffffffffffffffffffff82169050919050565b600061134a8261131f565b9050919050565b61135a8161133f565b811461136557600080fd5b50565b60008135905061137781611351565b92915050565b6000819050919050565b6113908161137d565b811461139b57600080fd5b50565b6000813590506113ad81611387565b92915050565b600080604083850312156113ca576113c961131a565b5b60006113d885828601611368565b92505060206113e98582860161139e565b9150509250929050565b60008115159050919050565b611408816113f3565b82525050565b600060208201905061142360008301846113ff565b92915050565b6114328161137d565b82525050565b600060208201905061144d6000830184611429565b92915050565b60008060006060848603121561146c5761146b61131a565b5b600061147a86828701611368565b935050602061148b86828701611368565b925050604061149c8682870161139e565b9150509250925092565b600060ff82169050919050565b6114bc816114a6565b82525050565b60006020820190506114d760008301846114b3565b92915050565b6000602082840312156114f3576114f261131a565b5b60006115018482850161139e565b91505092915050565b6000602082840312156115205761151f61131a565b5b600061152e84828501611368565b91505092915050565b6115408161133f565b82525050565b600060208201905061155b6000830184611537565b92915050565b600080604083850312156115785761157761131a565b5b600061158685828601611368565b925050602061159785828601611368565b9150509250929050565b7f4e487b7100000000000000000000000000000000000000000000000000000000600052602260045260246000fd5b600060028204905060018216806115e857607f821691505b6020821081036115fb576115fa6115a1565b5b50919050565b7f4e487b7100000000000000000000000000000000000000000000000000000000600052601160045260246000fd5b600061163b8261137d565b91506116468361137d565b925082820190508082111561165e5761165d611601565b5b92915050565b600061166f8261137d565b915061167a8361137d565b92508282026116888161137d565b9150828204841483151761169f5761169e611601565b5b5092915050565b60006060820190506116bb6000830186611537565b6116c86020830185611537565b6116d56040830184611429565b949350505050565b6116e6816113f3565b81146116f157600080fd5b50565b600081519050611703816116dd565b92915050565b60006020828403121561171f5761171e61131a565b5b600061172d848285016116f4565b91505092915050565b7f537061726b53746f6e653a204661696c656420746f207472616e666572204c5060008201527f20746f6b656e732e000000000000000000000000000000000000000000000000602082015250565b6000611792602883611273565b915061179d82611736565b604082019050919050565b600060208201905081810360008301526117c181611785565b9050919050565b7f45524332303a2064656372656173656420616c6c6f77616e63652062656c6f7760008201527f207a65726f000000000000000000000000000000000000000000000000000000602082015250565b6000611824602583611273565b915061182f826117c8565b604082019050919050565b6000602082019050818103600083015261185381611817565b9050919050565b7f4f776e61626c653a206e6577206f776e657220697320746865207a65726f206160008201527f6464726573730000000000000000000000000000000000000000000000000000602082015250565b60006118b6602683611273565b91506118c18261185a565b604082019050919050565b600060208201905081810360008301526118e5816118a9565b9050919050565b7f45524332303a20617070726f76652066726f6d20746865207a65726f2061646460008201527f7265737300000000000000000000000000000000000000000000000000000000602082015250565b6000611948602483611273565b9150611953826118ec565b604082019050919050565b600060208201905081810360008301526119778161193b565b9050919050565b7f45524332303a20617070726f766520746f20746865207a65726f20616464726560008201527f7373000000000000000000000000000000000000000000000000000000000000602082015250565b60006119da602283611273565b91506119e58261197e565b604082019050919050565b60006020820190508181036000830152611a09816119cd565b9050919050565b7f45524332303a20696e73756666696369656e7420616c6c6f77616e6365000000600082015250565b6000611a46601d83611273565b9150611a5182611a10565b602082019050919050565b60006020820190508181036000830152611a7581611a39565b9050919050565b7f45524332303a207472616e736665722066726f6d20746865207a65726f20616460008201527f6472657373000000000000000000000000000000000000000000000000000000602082015250565b6000611ad8602583611273565b9150611ae382611a7c565b604082019050919050565b60006020820190508181036000830152611b0781611acb565b9050919050565b7f45524332303a207472616e7366657220746f20746865207a65726f206164647260008201527f6573730000000000000000000000000000000000000000000000000000000000602082015250565b6000611b6a602383611273565b9150611b7582611b0e565b604082019050919050565b60006020820190508181036000830152611b9981611b5d565b9050919050565b7f45524332303a207472616e7366657220616d6f756e742065786365656473206260008201527f616c616e63650000000000000000000000000000000000000000000000000000602082015250565b6000611bfc602683611273565b9150611c0782611ba0565b604082019050919050565b60006020820190508181036000830152611c2b81611bef565b9050919050565b7f45524332303a206d696e7420746f20746865207a65726f206164647265737300600082015250565b6000611c68601f83611273565b9150611c7382611c32565b602082019050919050565b60006020820190508181036000830152611c9781611c5b565b9050919050565b7f45524332303a206275726e2066726f6d20746865207a65726f2061646472657360008201527f7300000000000000000000000000000000000000000000000000000000000000602082015250565b6000611cfa602183611273565b9150611d0582611c9e565b604082019050919050565b60006020820190508181036000830152611d2981611ced565b9050919050565b7f45524332303a206275726e20616d6f756e7420657863656564732062616c616e60008201527f6365000000000000000000000000000000000000000000000000000000000000602082015250565b6000611d8c602283611273565b9150611d9782611d30565b604082019050919050565b60006020820190508181036000830152611dbb81611d7f565b9050919050565b6000611dcd8261137d565b9150611dd88361137d565b9250828203905081811115611df057611def611601565b5b92915050565b7f4f776e61626c653a2063616c6c6572206973206e6f7420746865206f776e6572600082015250565b6000611e2c602083611273565b9150611e3782611df6565b602082019050919050565b60006020820190508181036000830152611e5b81611e1f565b905091905056fea2646970667358221220ccbc2b44d1ef7bf7a7a92310b62a0a4d0d29c06368a6c3d32160730b253ea68d64736f6c63430008110033",
  "linkReferences": {},
  "deployedLinkReferences": {}
}